{
	"venda-multipla.sol": {
		"GotasNFTMarketplace": {
			"abi": [
				{
					"inputs": [
						{
							"internalType": "uint256",
							"name": "_royaltyPercentage",
							"type": "uint256"
						},
						{
							"internalType": "uint256",
							"name": "_platformFeePercentage",
							"type": "uint256"
						},
						{
							"internalType": "address",
							"name": "_royaltyAddress",
							"type": "address"
						},
						{
							"internalType": "address",
							"name": "_platformFeeAddress",
							"type": "address"
						}
					],
					"stateMutability": "nonpayable",
					"type": "constructor"
				},
				{
					"anonymous": false,
					"inputs": [
						{
							"indexed": true,
							"internalType": "uint256",
							"name": "listingId",
							"type": "uint256"
						}
					],
					"name": "NFTDelisted",
					"type": "event"
				},
				{
					"anonymous": false,
					"inputs": [
						{
							"indexed": true,
							"internalType": "uint256",
							"name": "listingId",
							"type": "uint256"
						},
						{
							"indexed": true,
							"internalType": "address",
							"name": "seller",
							"type": "address"
						},
						{
							"indexed": true,
							"internalType": "address",
							"name": "nftContract",
							"type": "address"
						},
						{
							"indexed": false,
							"internalType": "uint256[]",
							"name": "nftIds",
							"type": "uint256[]"
						},
						{
							"indexed": false,
							"internalType": "uint256",
							"name": "price",
							"type": "uint256"
						},
						{
							"indexed": false,
							"internalType": "uint256",
							"name": "deadline",
							"type": "uint256"
						}
					],
					"name": "NFTListed",
					"type": "event"
				},
				{
					"anonymous": false,
					"inputs": [
						{
							"indexed": true,
							"internalType": "uint256",
							"name": "listingId",
							"type": "uint256"
						},
						{
							"indexed": true,
							"internalType": "address",
							"name": "seller",
							"type": "address"
						},
						{
							"indexed": true,
							"internalType": "address",
							"name": "buyer",
							"type": "address"
						},
						{
							"indexed": false,
							"internalType": "uint256",
							"name": "price",
							"type": "uint256"
						}
					],
					"name": "NFTSold",
					"type": "event"
				},
				{
					"anonymous": false,
					"inputs": [
						{
							"indexed": true,
							"internalType": "address",
							"name": "previousOwner",
							"type": "address"
						},
						{
							"indexed": true,
							"internalType": "address",
							"name": "newOwner",
							"type": "address"
						}
					],
					"name": "OwnershipTransferred",
					"type": "event"
				},
				{
					"anonymous": false,
					"inputs": [
						{
							"indexed": false,
							"internalType": "address",
							"name": "account",
							"type": "address"
						}
					],
					"name": "Paused",
					"type": "event"
				},
				{
					"anonymous": false,
					"inputs": [
						{
							"indexed": false,
							"internalType": "address",
							"name": "account",
							"type": "address"
						}
					],
					"name": "Unpaused",
					"type": "event"
				},
				{
					"inputs": [
						{
							"internalType": "uint256",
							"name": "",
							"type": "uint256"
						}
					],
					"name": "activeListingIds",
					"outputs": [
						{
							"internalType": "uint256",
							"name": "",
							"type": "uint256"
						}
					],
					"stateMutability": "view",
					"type": "function"
				},
				{
					"inputs": [
						{
							"internalType": "uint256",
							"name": "_listingId",
							"type": "uint256"
						}
					],
					"name": "buyNFT",
					"outputs": [],
					"stateMutability": "payable",
					"type": "function"
				},
				{
					"inputs": [
						{
							"internalType": "uint256",
							"name": "_listingId",
							"type": "uint256"
						}
					],
					"name": "cancelListing",
					"outputs": [],
					"stateMutability": "nonpayable",
					"type": "function"
				},
				{
					"inputs": [],
					"name": "getAllListingIds",
					"outputs": [
						{
							"internalType": "uint256[]",
							"name": "",
							"type": "uint256[]"
						}
					],
					"stateMutability": "view",
					"type": "function"
				},
				{
					"inputs": [
						{
							"internalType": "uint256",
							"name": "_listingId",
							"type": "uint256"
						}
					],
					"name": "getListingInfo",
					"outputs": [
						{
							"components": [
								{
									"internalType": "uint256",
									"name": "tokenId",
									"type": "uint256"
								},
								{
									"internalType": "string",
									"name": "metadataLink",
									"type": "string"
								}
							],
							"internalType": "struct GotasNFTMarketplace.TokenInfo[]",
							"name": "",
							"type": "tuple[]"
						}
					],
					"stateMutability": "view",
					"type": "function"
				},
				{
					"inputs": [
						{
							"internalType": "address",
							"name": "_nftContractAddress",
							"type": "address"
						},
						{
							"internalType": "uint256[]",
							"name": "_nftIds",
							"type": "uint256[]"
						},
						{
							"internalType": "uint256",
							"name": "_price",
							"type": "uint256"
						},
						{
							"internalType": "uint256",
							"name": "_deadline",
							"type": "uint256"
						}
					],
					"name": "listNFT",
					"outputs": [],
					"stateMutability": "nonpayable",
					"type": "function"
				},
				{
					"inputs": [
						{
							"internalType": "uint256",
							"name": "",
							"type": "uint256"
						}
					],
					"name": "listingOwners",
					"outputs": [
						{
							"internalType": "address",
							"name": "",
							"type": "address"
						}
					],
					"stateMutability": "view",
					"type": "function"
				},
				{
					"inputs": [
						{
							"internalType": "uint256",
							"name": "",
							"type": "uint256"
						}
					],
					"name": "listings",
					"outputs": [
						{
							"internalType": "address",
							"name": "nftContractAddress",
							"type": "address"
						},
						{
							"internalType": "address",
							"name": "seller",
							"type": "address"
						},
						{
							"internalType": "uint256",
							"name": "price",
							"type": "uint256"
						},
						{
							"internalType": "uint256",
							"name": "deadline",
							"type": "uint256"
						}
					],
					"stateMutability": "view",
					"type": "function"
				},
				{
					"inputs": [],
					"name": "nextListingId",
					"outputs": [
						{
							"internalType": "uint256",
							"name": "",
							"type": "uint256"
						}
					],
					"stateMutability": "view",
					"type": "function"
				},
				{
					"inputs": [],
					"name": "owner",
					"outputs": [
						{
							"internalType": "address",
							"name": "",
							"type": "address"
						}
					],
					"stateMutability": "view",
					"type": "function"
				},
				{
					"inputs": [],
					"name": "pause",
					"outputs": [],
					"stateMutability": "nonpayable",
					"type": "function"
				},
				{
					"inputs": [],
					"name": "paused",
					"outputs": [
						{
							"internalType": "bool",
							"name": "",
							"type": "bool"
						}
					],
					"stateMutability": "view",
					"type": "function"
				},
				{
					"inputs": [],
					"name": "platformFeeAddress",
					"outputs": [
						{
							"internalType": "address",
							"name": "",
							"type": "address"
						}
					],
					"stateMutability": "view",
					"type": "function"
				},
				{
					"inputs": [],
					"name": "platformFeePercentage",
					"outputs": [
						{
							"internalType": "uint256",
							"name": "",
							"type": "uint256"
						}
					],
					"stateMutability": "view",
					"type": "function"
				},
				{
					"inputs": [],
					"name": "renounceOwnership",
					"outputs": [],
					"stateMutability": "nonpayable",
					"type": "function"
				},
				{
					"inputs": [],
					"name": "royaltyAddress",
					"outputs": [
						{
							"internalType": "address",
							"name": "",
							"type": "address"
						}
					],
					"stateMutability": "view",
					"type": "function"
				},
				{
					"inputs": [],
					"name": "royaltyPercentage",
					"outputs": [
						{
							"internalType": "uint256",
							"name": "",
							"type": "uint256"
						}
					],
					"stateMutability": "view",
					"type": "function"
				},
				{
					"inputs": [
						{
							"internalType": "address",
							"name": "newOwner",
							"type": "address"
						}
					],
					"name": "transferOwnership",
					"outputs": [],
					"stateMutability": "nonpayable",
					"type": "function"
				},
				{
					"inputs": [],
					"name": "unpause",
					"outputs": [],
					"stateMutability": "nonpayable",
					"type": "function"
				},
				{
					"inputs": [
						{
							"internalType": "address",
							"name": "_newRoyaltyAddress",
							"type": "address"
						},
						{
							"internalType": "address",
							"name": "_newPlatformFeeAddress",
							"type": "address"
						}
					],
					"name": "updateFeeAddresses",
					"outputs": [],
					"stateMutability": "nonpayable",
					"type": "function"
				},
				{
					"inputs": [
						{
							"internalType": "uint256",
							"name": "_newRoyaltyPercentage",
							"type": "uint256"
						},
						{
							"internalType": "uint256",
							"name": "_newPlatformFeePercentage",
							"type": "uint256"
						}
					],
					"name": "updateFeePercentages",
					"outputs": [],
					"stateMutability": "nonpayable",
					"type": "function"
				}
			],
			"devdoc": {
				"kind": "dev",
				"methods": {
					"owner()": {
						"details": "Returns the address of the current owner."
					},
					"paused()": {
						"details": "Returns true if the contract is paused, and false otherwise."
					},
					"renounceOwnership()": {
						"details": "Leaves the contract without owner. It will not be possible to call `onlyOwner` functions. Can only be called by the current owner. NOTE: Renouncing ownership will leave the contract without an owner, thereby disabling any functionality that is only available to the owner."
					},
					"transferOwnership(address)": {
						"details": "Transfers ownership of the contract to a new account (`newOwner`). Can only be called by the current owner."
					}
				},
				"version": 1
			},
			"evm": {
				"assembly": "    /* \"venda-multipla.sol\":367:6309  contract GotasNFTMarketplace is Ownable, ReentrancyGuard, Pausable {... */\n  mstore(0x40, 0x80)\n    /* \"venda-multipla.sol\":1049:1050  1 */\n  0x01\n    /* \"venda-multipla.sol\":1018:1050  uint256 public nextListingId = 1 */\n  0x0a\n  sstore\n    /* \"venda-multipla.sol\":1368:1810  constructor(uint256 _royaltyPercentage, uint256 _platformFeePercentage, address _royaltyAddress, address _platformFeeAddress) {... */\n  callvalue\n  dup1\n  iszero\n  tag_1\n  jumpi\n  0x00\n  dup1\n  revert\ntag_1:\n  pop\n  mload(0x40)\n  sub(codesize, bytecodeSize)\n  dup1\n  bytecodeSize\n  dup4\n  codecopy\n  dup2\n  dup2\n  add\n  0x40\n  mstore\n  dup2\n  add\n  swap1\n  tag_2\n  swap2\n  swap1\n  tag_3\n  jump\t// in\ntag_2:\n    /* \"@openzeppelin/contracts/access/Ownable.sol\":936:968  _transferOwnership(_msgSender()) */\n  tag_9\n    /* \"@openzeppelin/contracts/access/Ownable.sol\":955:967  _msgSender() */\n  tag_10\n    /* \"@openzeppelin/contracts/access/Ownable.sol\":955:965  _msgSender */\n  shl(0x20, tag_11)\n    /* \"@openzeppelin/contracts/access/Ownable.sol\":955:967  _msgSender() */\n  0x20\n  shr\n  jump\t// in\ntag_10:\n    /* \"@openzeppelin/contracts/access/Ownable.sol\":936:954  _transferOwnership */\n  shl(0x20, tag_12)\n    /* \"@openzeppelin/contracts/access/Ownable.sol\":936:968  _transferOwnership(_msgSender()) */\n  0x20\n  shr\n  jump\t// in\ntag_9:\n    /* \"@openzeppelin/contracts/security/ReentrancyGuard.sol\":1716:1717  1 */\n  0x01\n    /* \"@openzeppelin/contracts/security/ReentrancyGuard.sol\":1821:1828  _status */\n  dup1\n    /* \"@openzeppelin/contracts/security/ReentrancyGuard.sol\":1821:1843  _status = _NOT_ENTERED */\n  dup2\n  swap1\n  sstore\n  pop\n    /* \"@openzeppelin/contracts/security/Pausable.sol\":1006:1011  false */\n  0x00\n    /* \"@openzeppelin/contracts/security/Pausable.sol\":996:1003  _paused */\n  0x02\n  0x00\n    /* \"@openzeppelin/contracts/security/Pausable.sol\":996:1011  _paused = false */\n  0x0100\n  exp\n  dup2\n  sload\n  dup2\n  0xff\n  mul\n  not\n  and\n  swap1\n  dup4\n  iszero\n  iszero\n  mul\n  or\n  swap1\n  sstore\n  pop\n    /* \"venda-multipla.sol\":1539:1540  0 */\n  0x00\n    /* \"venda-multipla.sol\":1512:1541  _royaltyAddress != address(0) */\n  0xffffffffffffffffffffffffffffffffffffffff\n  and\n    /* \"venda-multipla.sol\":1512:1527  _royaltyAddress */\n  dup3\n    /* \"venda-multipla.sol\":1512:1541  _royaltyAddress != address(0) */\n  0xffffffffffffffffffffffffffffffffffffffff\n  and\n  eq\n  iszero\n    /* \"venda-multipla.sol\":1512:1578  _royaltyAddress != address(0) && _platformFeeAddress != address(0) */\n  dup1\n  iszero\n  tag_16\n  jumpi\n  pop\n    /* \"venda-multipla.sol\":1576:1577  0 */\n  0x00\n    /* \"venda-multipla.sol\":1545:1578  _platformFeeAddress != address(0) */\n  0xffffffffffffffffffffffffffffffffffffffff\n  and\n    /* \"venda-multipla.sol\":1545:1564  _platformFeeAddress */\n  dup2\n    /* \"venda-multipla.sol\":1545:1578  _platformFeeAddress != address(0) */\n  0xffffffffffffffffffffffffffffffffffffffff\n  and\n  eq\n  iszero\n    /* \"venda-multipla.sol\":1512:1578  _royaltyAddress != address(0) && _platformFeeAddress != address(0) */\ntag_16:\n    /* \"venda-multipla.sol\":1504:1607  require(_royaltyAddress != address(0) && _platformFeeAddress != address(0), \"Addresses cannot be zero\") */\n  tag_17\n  jumpi\n  mload(0x40)\n  0x08c379a000000000000000000000000000000000000000000000000000000000\n  dup2\n  mstore\n  0x04\n  add\n  tag_18\n  swap1\n  tag_19\n  jump\t// in\ntag_18:\n  mload(0x40)\n  dup1\n  swap2\n  sub\n  swap1\n  revert\ntag_17:\n    /* \"venda-multipla.sol\":1637:1655  _royaltyPercentage */\n  dup4\n    /* \"venda-multipla.sol\":1617:1634  royaltyPercentage */\n  0x04\n    /* \"venda-multipla.sol\":1617:1655  royaltyPercentage = _royaltyPercentage */\n  dup2\n  swap1\n  sstore\n  pop\n    /* \"venda-multipla.sol\":1689:1711  _platformFeePercentage */\n  dup3\n    /* \"venda-multipla.sol\":1665:1686  platformFeePercentage */\n  0x05\n    /* \"venda-multipla.sol\":1665:1711  platformFeePercentage = _platformFeePercentage */\n  dup2\n  swap1\n  sstore\n  pop\n    /* \"venda-multipla.sol\":1738:1753  _royaltyAddress */\n  dup2\n    /* \"venda-multipla.sol\":1721:1735  royaltyAddress */\n  0x06\n  0x00\n    /* \"venda-multipla.sol\":1721:1753  royaltyAddress = _royaltyAddress */\n  0x0100\n  exp\n  dup2\n  sload\n  dup2\n  0xffffffffffffffffffffffffffffffffffffffff\n  mul\n  not\n  and\n  swap1\n  dup4\n  0xffffffffffffffffffffffffffffffffffffffff\n  and\n  mul\n  or\n  swap1\n  sstore\n  pop\n    /* \"venda-multipla.sol\":1784:1803  _platformFeeAddress */\n  dup1\n    /* \"venda-multipla.sol\":1763:1781  platformFeeAddress */\n  0x07\n  0x00\n    /* \"venda-multipla.sol\":1763:1803  platformFeeAddress = _platformFeeAddress */\n  0x0100\n  exp\n  dup2\n  sload\n  dup2\n  0xffffffffffffffffffffffffffffffffffffffff\n  mul\n  not\n  and\n  swap1\n  dup4\n  0xffffffffffffffffffffffffffffffffffffffff\n  and\n  mul\n  or\n  swap1\n  sstore\n  pop\n    /* \"venda-multipla.sol\":1368:1810  constructor(uint256 _royaltyPercentage, uint256 _platformFeePercentage, address _royaltyAddress, address _platformFeeAddress) {... */\n  pop\n  pop\n  pop\n  pop\n    /* \"venda-multipla.sol\":367:6309  contract GotasNFTMarketplace is Ownable, ReentrancyGuard, Pausable {... */\n  jump(tag_20)\n    /* \"@openzeppelin/contracts/utils/Context.sol\":640:736  function _msgSender() internal view virtual returns (address) {... */\ntag_11:\n    /* \"@openzeppelin/contracts/utils/Context.sol\":693:700  address */\n  0x00\n    /* \"@openzeppelin/contracts/utils/Context.sol\":719:729  msg.sender */\n  caller\n    /* \"@openzeppelin/contracts/utils/Context.sol\":712:729  return msg.sender */\n  swap1\n  pop\n    /* \"@openzeppelin/contracts/utils/Context.sol\":640:736  function _msgSender() internal view virtual returns (address) {... */\n  swap1\n  jump\t// out\n    /* \"@openzeppelin/contracts/access/Ownable.sol\":2426:2613  function _transferOwnership(address newOwner) internal virtual {... */\ntag_12:\n    /* \"@openzeppelin/contracts/access/Ownable.sol\":2499:2515  address oldOwner */\n  0x00\n    /* \"@openzeppelin/contracts/access/Ownable.sol\":2518:2524  _owner */\n  dup1\n  0x00\n  swap1\n  sload\n  swap1\n  0x0100\n  exp\n  swap1\n  div\n  0xffffffffffffffffffffffffffffffffffffffff\n  and\n    /* \"@openzeppelin/contracts/access/Ownable.sol\":2499:2524  address oldOwner = _owner */\n  swap1\n  pop\n    /* \"@openzeppelin/contracts/access/Ownable.sol\":2543:2551  newOwner */\n  dup2\n    /* \"@openzeppelin/contracts/access/Ownable.sol\":2534:2540  _owner */\n  0x00\n  dup1\n    /* \"@openzeppelin/contracts/access/Ownable.sol\":2534:2551  _owner = newOwner */\n  0x0100\n  exp\n  dup2\n  sload\n  dup2\n  0xffffffffffffffffffffffffffffffffffffffff\n  mul\n  not\n  and\n  swap1\n  dup4\n  0xffffffffffffffffffffffffffffffffffffffff\n  and\n  mul\n  or\n  swap1\n  sstore\n  pop\n    /* \"@openzeppelin/contracts/access/Ownable.sol\":2597:2605  newOwner */\n  dup2\n    /* \"@openzeppelin/contracts/access/Ownable.sol\":2566:2606  OwnershipTransferred(oldOwner, newOwner) */\n  0xffffffffffffffffffffffffffffffffffffffff\n  and\n    /* \"@openzeppelin/contracts/access/Ownable.sol\":2587:2595  oldOwner */\n  dup2\n    /* \"@openzeppelin/contracts/access/Ownable.sol\":2566:2606  OwnershipTransferred(oldOwner, newOwner) */\n  0xffffffffffffffffffffffffffffffffffffffff\n  and\n  0x8be0079c531659141344cd1fd0a4f28419497f9722a3daafe3b4186f6b6457e0\n  mload(0x40)\n  mload(0x40)\n  dup1\n  swap2\n  sub\n  swap1\n  log3\n    /* \"@openzeppelin/contracts/access/Ownable.sol\":2426:2613  function _transferOwnership(address newOwner) internal virtual {... */\n  pop\n  pop\n  jump\t// out\n    /* \"#utility.yul\":7:150   */\ntag_24:\n  0x00\n    /* \"#utility.yul\":95:101   */\n  dup2\n    /* \"#utility.yul\":89:102   */\n  mload\n    /* \"#utility.yul\":80:102   */\n  swap1\n  pop\n    /* \"#utility.yul\":111:144   */\n  tag_26\n    /* \"#utility.yul\":138:143   */\n  dup2\n    /* \"#utility.yul\":111:144   */\n  tag_27\n  jump\t// in\ntag_26:\n    /* \"#utility.yul\":70:150   */\n  swap3\n  swap2\n  pop\n  pop\n  jump\t// out\n    /* \"#utility.yul\":156:299   */\ntag_28:\n  0x00\n    /* \"#utility.yul\":244:250   */\n  dup2\n    /* \"#utility.yul\":238:251   */\n  mload\n    /* \"#utility.yul\":229:251   */\n  swap1\n  pop\n    /* \"#utility.yul\":260:293   */\n  tag_30\n    /* \"#utility.yul\":287:292   */\n  dup2\n    /* \"#utility.yul\":260:293   */\n  tag_31\n  jump\t// in\ntag_30:\n    /* \"#utility.yul\":219:299   */\n  swap3\n  swap2\n  pop\n  pop\n  jump\t// out\n    /* \"#utility.yul\":305:1058   */\ntag_3:\n  0x00\n  dup1\n  0x00\n  dup1\n    /* \"#utility.yul\":475:478   */\n  0x80\n    /* \"#utility.yul\":463:472   */\n  dup6\n    /* \"#utility.yul\":454:461   */\n  dup8\n    /* \"#utility.yul\":450:473   */\n  sub\n    /* \"#utility.yul\":446:479   */\n  slt\n    /* \"#utility.yul\":443:445   */\n  iszero\n  tag_33\n  jumpi\n    /* \"#utility.yul\":492:493   */\n  0x00\n    /* \"#utility.yul\":489:490   */\n  dup1\n    /* \"#utility.yul\":482:494   */\n  revert\n    /* \"#utility.yul\":443:445   */\ntag_33:\n    /* \"#utility.yul\":535:536   */\n  0x00\n    /* \"#utility.yul\":560:624   */\n  tag_34\n    /* \"#utility.yul\":616:623   */\n  dup8\n    /* \"#utility.yul\":607:613   */\n  dup3\n    /* \"#utility.yul\":596:605   */\n  dup9\n    /* \"#utility.yul\":592:614   */\n  add\n    /* \"#utility.yul\":560:624   */\n  tag_28\n  jump\t// in\ntag_34:\n    /* \"#utility.yul\":550:624   */\n  swap5\n  pop\n    /* \"#utility.yul\":506:634   */\n  pop\n    /* \"#utility.yul\":673:675   */\n  0x20\n    /* \"#utility.yul\":699:763   */\n  tag_35\n    /* \"#utility.yul\":755:762   */\n  dup8\n    /* \"#utility.yul\":746:752   */\n  dup3\n    /* \"#utility.yul\":735:744   */\n  dup9\n    /* \"#utility.yul\":731:753   */\n  add\n    /* \"#utility.yul\":699:763   */\n  tag_28\n  jump\t// in\ntag_35:\n    /* \"#utility.yul\":689:763   */\n  swap4\n  pop\n    /* \"#utility.yul\":644:773   */\n  pop\n    /* \"#utility.yul\":812:814   */\n  0x40\n    /* \"#utility.yul\":838:902   */\n  tag_36\n    /* \"#utility.yul\":894:901   */\n  dup8\n    /* \"#utility.yul\":885:891   */\n  dup3\n    /* \"#utility.yul\":874:883   */\n  dup9\n    /* \"#utility.yul\":870:892   */\n  add\n    /* \"#utility.yul\":838:902   */\n  tag_24\n  jump\t// in\ntag_36:\n    /* \"#utility.yul\":828:902   */\n  swap3\n  pop\n    /* \"#utility.yul\":783:912   */\n  pop\n    /* \"#utility.yul\":951:953   */\n  0x60\n    /* \"#utility.yul\":977:1041   */\n  tag_37\n    /* \"#utility.yul\":1033:1040   */\n  dup8\n    /* \"#utility.yul\":1024:1030   */\n  dup3\n    /* \"#utility.yul\":1013:1022   */\n  dup9\n    /* \"#utility.yul\":1009:1031   */\n  add\n    /* \"#utility.yul\":977:1041   */\n  tag_24\n  jump\t// in\ntag_37:\n    /* \"#utility.yul\":967:1041   */\n  swap2\n  pop\n    /* \"#utility.yul\":922:1051   */\n  pop\n    /* \"#utility.yul\":433:1058   */\n  swap3\n  swap6\n  swap2\n  swap5\n  pop\n  swap3\n  pop\n  jump\t// out\n    /* \"#utility.yul\":1064:1386   */\ntag_38:\n  0x00\n    /* \"#utility.yul\":1227:1294   */\n  tag_40\n    /* \"#utility.yul\":1291:1293   */\n  0x18\n    /* \"#utility.yul\":1286:1289   */\n  dup4\n    /* \"#utility.yul\":1227:1294   */\n  tag_41\n  jump\t// in\ntag_40:\n    /* \"#utility.yul\":1220:1294   */\n  swap2\n  pop\n    /* \"#utility.yul\":1324:1350   */\n  0x4164647265737365732063616e6e6f74206265207a65726f0000000000000000\n    /* \"#utility.yul\":1320:1321   */\n  0x00\n    /* \"#utility.yul\":1315:1318   */\n  dup4\n    /* \"#utility.yul\":1311:1322   */\n  add\n    /* \"#utility.yul\":1304:1351   */\n  mstore\n    /* \"#utility.yul\":1377:1379   */\n  0x20\n    /* \"#utility.yul\":1372:1375   */\n  dup3\n    /* \"#utility.yul\":1368:1380   */\n  add\n    /* \"#utility.yul\":1361:1380   */\n  swap1\n  pop\n    /* \"#utility.yul\":1210:1386   */\n  swap2\n  swap1\n  pop\n  jump\t// out\n    /* \"#utility.yul\":1392:1811   */\ntag_19:\n  0x00\n    /* \"#utility.yul\":1596:1598   */\n  0x20\n    /* \"#utility.yul\":1585:1594   */\n  dup3\n    /* \"#utility.yul\":1581:1599   */\n  add\n    /* \"#utility.yul\":1573:1599   */\n  swap1\n  pop\n    /* \"#utility.yul\":1645:1654   */\n  dup2\n    /* \"#utility.yul\":1639:1643   */\n  dup2\n    /* \"#utility.yul\":1635:1655   */\n  sub\n    /* \"#utility.yul\":1631:1632   */\n  0x00\n    /* \"#utility.yul\":1620:1629   */\n  dup4\n    /* \"#utility.yul\":1616:1633   */\n  add\n    /* \"#utility.yul\":1609:1656   */\n  mstore\n    /* \"#utility.yul\":1673:1804   */\n  tag_43\n    /* \"#utility.yul\":1799:1803   */\n  dup2\n    /* \"#utility.yul\":1673:1804   */\n  tag_38\n  jump\t// in\ntag_43:\n    /* \"#utility.yul\":1665:1804   */\n  swap1\n  pop\n    /* \"#utility.yul\":1563:1811   */\n  swap2\n  swap1\n  pop\n  jump\t// out\n    /* \"#utility.yul\":1817:1986   */\ntag_41:\n  0x00\n    /* \"#utility.yul\":1935:1941   */\n  dup3\n    /* \"#utility.yul\":1930:1933   */\n  dup3\n    /* \"#utility.yul\":1923:1942   */\n  mstore\n    /* \"#utility.yul\":1975:1979   */\n  0x20\n    /* \"#utility.yul\":1970:1973   */\n  dup3\n    /* \"#utility.yul\":1966:1980   */\n  add\n    /* \"#utility.yul\":1951:1980   */\n  swap1\n  pop\n    /* \"#utility.yul\":1913:1986   */\n  swap3\n  swap2\n  pop\n  pop\n  jump\t// out\n    /* \"#utility.yul\":1992:2088   */\ntag_45:\n  0x00\n    /* \"#utility.yul\":2058:2082   */\n  tag_47\n    /* \"#utility.yul\":2076:2081   */\n  dup3\n    /* \"#utility.yul\":2058:2082   */\n  tag_48\n  jump\t// in\ntag_47:\n    /* \"#utility.yul\":2047:2082   */\n  swap1\n  pop\n    /* \"#utility.yul\":2037:2088   */\n  swap2\n  swap1\n  pop\n  jump\t// out\n    /* \"#utility.yul\":2094:2220   */\ntag_48:\n  0x00\n    /* \"#utility.yul\":2171:2213   */\n  0xffffffffffffffffffffffffffffffffffffffff\n    /* \"#utility.yul\":2164:2169   */\n  dup3\n    /* \"#utility.yul\":2160:2214   */\n  and\n    /* \"#utility.yul\":2149:2214   */\n  swap1\n  pop\n    /* \"#utility.yul\":2139:2220   */\n  swap2\n  swap1\n  pop\n  jump\t// out\n    /* \"#utility.yul\":2226:2303   */\ntag_50:\n  0x00\n    /* \"#utility.yul\":2292:2297   */\n  dup2\n    /* \"#utility.yul\":2281:2297   */\n  swap1\n  pop\n    /* \"#utility.yul\":2271:2303   */\n  swap2\n  swap1\n  pop\n  jump\t// out\n    /* \"#utility.yul\":2309:2431   */\ntag_27:\n    /* \"#utility.yul\":2382:2406   */\n  tag_53\n    /* \"#utility.yul\":2400:2405   */\n  dup2\n    /* \"#utility.yul\":2382:2406   */\n  tag_45\n  jump\t// in\ntag_53:\n    /* \"#utility.yul\":2375:2380   */\n  dup2\n    /* \"#utility.yul\":2372:2407   */\n  eq\n    /* \"#utility.yul\":2362:2364   */\n  tag_54\n  jumpi\n    /* \"#utility.yul\":2421:2422   */\n  0x00\n    /* \"#utility.yul\":2418:2419   */\n  dup1\n    /* \"#utility.yul\":2411:2423   */\n  revert\n    /* \"#utility.yul\":2362:2364   */\ntag_54:\n    /* \"#utility.yul\":2352:2431   */\n  pop\n  jump\t// out\n    /* \"#utility.yul\":2437:2559   */\ntag_31:\n    /* \"#utility.yul\":2510:2534   */\n  tag_56\n    /* \"#utility.yul\":2528:2533   */\n  dup2\n    /* \"#utility.yul\":2510:2534   */\n  tag_50\n  jump\t// in\ntag_56:\n    /* \"#utility.yul\":2503:2508   */\n  dup2\n    /* \"#utility.yul\":2500:2535   */\n  eq\n    /* \"#utility.yul\":2490:2492   */\n  tag_57\n  jumpi\n    /* \"#utility.yul\":2549:2550   */\n  0x00\n    /* \"#utility.yul\":2546:2547   */\n  dup1\n    /* \"#utility.yul\":2539:2551   */\n  revert\n    /* \"#utility.yul\":2490:2492   */\ntag_57:\n    /* \"#utility.yul\":2480:2559   */\n  pop\n  jump\t// out\n    /* \"venda-multipla.sol\":367:6309  contract GotasNFTMarketplace is Ownable, ReentrancyGuard, Pausable {... */\ntag_20:\n  dataSize(sub_0)\n  dup1\n  dataOffset(sub_0)\n  0x00\n  codecopy\n  0x00\n  return\nstop\n\nsub_0: assembly {\n        /* \"venda-multipla.sol\":367:6309  contract GotasNFTMarketplace is Ownable, ReentrancyGuard, Pausable {... */\n      mstore(0x40, 0x80)\n      jumpi(tag_1, lt(calldatasize, 0x04))\n      shr(0xe0, calldataload(0x00))\n      dup1\n      0x85dd3008\n      gt\n      tag_23\n      jumpi\n      dup1\n      0xb9314135\n      gt\n      tag_24\n      jumpi\n      dup1\n      0xb9314135\n      eq\n      tag_17\n      jumpi\n      dup1\n      0xcdd78cfc\n      eq\n      tag_18\n      jumpi\n      dup1\n      0xde74e57b\n      eq\n      tag_19\n      jumpi\n      dup1\n      0xe3b6a1f6\n      eq\n      tag_20\n      jumpi\n      dup1\n      0xed14834f\n      eq\n      tag_21\n      jumpi\n      dup1\n      0xf2fde38b\n      eq\n      tag_22\n      jumpi\n      jump(tag_1)\n    tag_24:\n      dup1\n      0x85dd3008\n      eq\n      tag_12\n      jumpi\n      dup1\n      0x8a71bb2d\n      eq\n      tag_13\n      jumpi\n      dup1\n      0x8da5cb5b\n      eq\n      tag_14\n      jumpi\n      dup1\n      0xaaccf1ec\n      eq\n      tag_15\n      jumpi\n      dup1\n      0xad2f852a\n      eq\n      tag_16\n      jumpi\n      jump(tag_1)\n    tag_23:\n      dup1\n      0x5e4e8d65\n      gt\n      tag_25\n      jumpi\n      dup1\n      0x5e4e8d65\n      eq\n      tag_7\n      jumpi\n      dup1\n      0x715018a6\n      eq\n      tag_8\n      jumpi\n      dup1\n      0x78578bb3\n      eq\n      tag_9\n      jumpi\n      dup1\n      0x7bdaceef\n      eq\n      tag_10\n      jumpi\n      dup1\n      0x8456cb59\n      eq\n      tag_11\n      jumpi\n      jump(tag_1)\n    tag_25:\n      dup1\n      0x305a67a8\n      eq\n      tag_2\n      jumpi\n      dup1\n      0x3f4ba83a\n      eq\n      tag_3\n      jumpi\n      dup1\n      0x4e313796\n      eq\n      tag_4\n      jumpi\n      dup1\n      0x51ed8288\n      eq\n      tag_5\n      jumpi\n      dup1\n      0x5c975abb\n      eq\n      tag_6\n      jumpi\n    tag_1:\n      0x00\n      dup1\n      revert\n        /* \"venda-multipla.sol\":4350:4648  function cancelListing(uint256 _listingId) external nonReentrant {... */\n    tag_2:\n      callvalue\n      dup1\n      iszero\n      tag_26\n      jumpi\n      0x00\n      dup1\n      revert\n    tag_26:\n      pop\n      tag_27\n      0x04\n      dup1\n      calldatasize\n      sub\n      dup2\n      add\n      swap1\n      tag_28\n      swap2\n      swap1\n      tag_29\n      jump\t// in\n    tag_28:\n      tag_30\n      jump\t// in\n    tag_27:\n      stop\n        /* \"venda-multipla.sol\":4734:4812  function unpause() external onlyOwner nonReentrant {... */\n    tag_3:\n      callvalue\n      dup1\n      iszero\n      tag_31\n      jumpi\n      0x00\n      dup1\n      revert\n    tag_31:\n      pop\n      tag_32\n      tag_33\n      jump\t// in\n    tag_32:\n      stop\n        /* \"venda-multipla.sol\":1816:2929  function listNFT(address _nftContractAddress, uint256[] memory _nftIds, uint256 _price, uint256 _deadline) external whenNotPaused nonReentrant {... */\n    tag_4:\n      callvalue\n      dup1\n      iszero\n      tag_34\n      jumpi\n      0x00\n      dup1\n      revert\n    tag_34:\n      pop\n      tag_35\n      0x04\n      dup1\n      calldatasize\n      sub\n      dup2\n      add\n      swap1\n      tag_36\n      swap2\n      swap1\n      tag_37\n      jump\t// in\n    tag_36:\n      tag_38\n      jump\t// in\n    tag_35:\n      stop\n        /* \"venda-multipla.sol\":2935:4344  function buyNFT(uint256 _listingId) external payable whenNotPaused nonReentrant {... */\n    tag_5:\n      tag_39\n      0x04\n      dup1\n      calldatasize\n      sub\n      dup2\n      add\n      swap1\n      tag_40\n      swap2\n      swap1\n      tag_29\n      jump\t// in\n    tag_40:\n      tag_41\n      jump\t// in\n    tag_39:\n      stop\n        /* \"@openzeppelin/contracts/security/Pausable.sol\":1615:1699  function paused() public view virtual returns (bool) {... */\n    tag_6:\n      callvalue\n      dup1\n      iszero\n      tag_42\n      jumpi\n      0x00\n      dup1\n      revert\n    tag_42:\n      pop\n      tag_43\n      tag_44\n      jump\t// in\n    tag_43:\n      mload(0x40)\n      tag_45\n      swap2\n      swap1\n      tag_46\n      jump\t// in\n    tag_45:\n      mload(0x40)\n      dup1\n      swap2\n      sub\n      swap1\n      return\n        /* \"venda-multipla.sol\":4818:5162  function updateFeeAddresses(address _newRoyaltyAddress, address _newPlatformFeeAddress) external onlyOwner nonReentrant {... */\n    tag_7:\n      callvalue\n      dup1\n      iszero\n      tag_47\n      jumpi\n      0x00\n      dup1\n      revert\n    tag_47:\n      pop\n      tag_48\n      0x04\n      dup1\n      calldatasize\n      sub\n      dup2\n      add\n      swap1\n      tag_49\n      swap2\n      swap1\n      tag_50\n      jump\t// in\n    tag_49:\n      tag_51\n      jump\t// in\n    tag_48:\n      stop\n        /* \"@openzeppelin/contracts/access/Ownable.sol\":1824:1925  function renounceOwnership() public virtual onlyOwner {... */\n    tag_8:\n      callvalue\n      dup1\n      iszero\n      tag_52\n      jumpi\n      0x00\n      dup1\n      revert\n    tag_52:\n      pop\n      tag_53\n      tag_54\n      jump\t// in\n    tag_53:\n      stop\n        /* \"venda-multipla.sol\":5168:5413  function updateFeePercentages(uint256 _newRoyaltyPercentage, uint256 _newPlatformFeePercentage) external onlyOwner nonReentrant {... */\n    tag_9:\n      callvalue\n      dup1\n      iszero\n      tag_55\n      jumpi\n      0x00\n      dup1\n      revert\n    tag_55:\n      pop\n      tag_56\n      0x04\n      dup1\n      calldatasize\n      sub\n      dup2\n      add\n      swap1\n      tag_57\n      swap2\n      swap1\n      tag_58\n      jump\t// in\n    tag_57:\n      tag_59\n      jump\t// in\n    tag_56:\n      stop\n        /* \"venda-multipla.sol\":963:1011  mapping(uint256 => address) public listingOwners */\n    tag_10:\n      callvalue\n      dup1\n      iszero\n      tag_60\n      jumpi\n      0x00\n      dup1\n      revert\n    tag_60:\n      pop\n      tag_61\n      0x04\n      dup1\n      calldatasize\n      sub\n      dup2\n      add\n      swap1\n      tag_62\n      swap2\n      swap1\n      tag_29\n      jump\t// in\n    tag_62:\n      tag_63\n      jump\t// in\n    tag_61:\n      mload(0x40)\n      tag_64\n      swap2\n      swap1\n      tag_65\n      jump\t// in\n    tag_64:\n      mload(0x40)\n      dup1\n      swap2\n      sub\n      swap1\n      return\n        /* \"venda-multipla.sol\":4654:4728  function pause() external onlyOwner nonReentrant {... */\n    tag_11:\n      callvalue\n      dup1\n      iszero\n      tag_66\n      jumpi\n      0x00\n      dup1\n      revert\n    tag_66:\n      pop\n      tag_67\n      tag_68\n      jump\t// in\n    tag_67:\n      stop\n        /* \"venda-multipla.sol\":5419:5528  function getAllListingIds() external view returns (uint256[] memory) {... */\n    tag_12:\n      callvalue\n      dup1\n      iszero\n      tag_69\n      jumpi\n      0x00\n      dup1\n      revert\n    tag_69:\n      pop\n      tag_70\n      tag_71\n      jump\t// in\n    tag_70:\n      mload(0x40)\n      tag_72\n      swap2\n      swap1\n      tag_73\n      jump\t// in\n    tag_72:\n      mload(0x40)\n      dup1\n      swap2\n      sub\n      swap1\n      return\n        /* \"venda-multipla.sol\":758:790  uint256 public royaltyPercentage */\n    tag_13:\n      callvalue\n      dup1\n      iszero\n      tag_74\n      jumpi\n      0x00\n      dup1\n      revert\n    tag_74:\n      pop\n      tag_75\n      tag_76\n      jump\t// in\n    tag_75:\n      mload(0x40)\n      tag_77\n      swap2\n      swap1\n      tag_78\n      jump\t// in\n    tag_77:\n      mload(0x40)\n      dup1\n      swap2\n      sub\n      swap1\n      return\n        /* \"@openzeppelin/contracts/access/Ownable.sol\":1201:1286  function owner() public view virtual returns (address) {... */\n    tag_14:\n      callvalue\n      dup1\n      iszero\n      tag_79\n      jumpi\n      0x00\n      dup1\n      revert\n    tag_79:\n      pop\n      tag_80\n      tag_81\n      jump\t// in\n    tag_80:\n      mload(0x40)\n      tag_82\n      swap2\n      swap1\n      tag_65\n      jump\t// in\n    tag_82:\n      mload(0x40)\n      dup1\n      swap2\n      sub\n      swap1\n      return\n        /* \"venda-multipla.sol\":1018:1050  uint256 public nextListingId = 1 */\n    tag_15:\n      callvalue\n      dup1\n      iszero\n      tag_83\n      jumpi\n      0x00\n      dup1\n      revert\n    tag_83:\n      pop\n      tag_84\n      tag_85\n      jump\t// in\n    tag_84:\n      mload(0x40)\n      tag_86\n      swap2\n      swap1\n      tag_78\n      jump\t// in\n    tag_86:\n      mload(0x40)\n      dup1\n      swap2\n      sub\n      swap1\n      return\n        /* \"venda-multipla.sol\":839:868  address public royaltyAddress */\n    tag_16:\n      callvalue\n      dup1\n      iszero\n      tag_87\n      jumpi\n      0x00\n      dup1\n      revert\n    tag_87:\n      pop\n      tag_88\n      tag_89\n      jump\t// in\n    tag_88:\n      mload(0x40)\n      tag_90\n      swap2\n      swap1\n      tag_65\n      jump\t// in\n    tag_90:\n      mload(0x40)\n      dup1\n      swap2\n      sub\n      swap1\n      return\n        /* \"venda-multipla.sol\":5534:6307  function getListingInfo(uint256 _listingId) external view returns (TokenInfo[] memory) {... */\n    tag_17:\n      callvalue\n      dup1\n      iszero\n      tag_91\n      jumpi\n      0x00\n      dup1\n      revert\n    tag_91:\n      pop\n      tag_92\n      0x04\n      dup1\n      calldatasize\n      sub\n      dup2\n      add\n      swap1\n      tag_93\n      swap2\n      swap1\n      tag_29\n      jump\t// in\n    tag_93:\n      tag_94\n      jump\t// in\n    tag_92:\n      mload(0x40)\n      tag_95\n      swap2\n      swap1\n      tag_96\n      jump\t// in\n    tag_95:\n      mload(0x40)\n      dup1\n      swap2\n      sub\n      swap1\n      return\n        /* \"venda-multipla.sol\":796:832  uint256 public platformFeePercentage */\n    tag_18:\n      callvalue\n      dup1\n      iszero\n      tag_97\n      jumpi\n      0x00\n      dup1\n      revert\n    tag_97:\n      pop\n      tag_98\n      tag_99\n      jump\t// in\n    tag_98:\n      mload(0x40)\n      tag_100\n      swap2\n      swap1\n      tag_78\n      jump\t// in\n    tag_100:\n      mload(0x40)\n      dup1\n      swap2\n      sub\n      swap1\n      return\n        /* \"venda-multipla.sol\":914:957  mapping(uint256 => Listing) public listings */\n    tag_19:\n      callvalue\n      dup1\n      iszero\n      tag_101\n      jumpi\n      0x00\n      dup1\n      revert\n    tag_101:\n      pop\n      tag_102\n      0x04\n      dup1\n      calldatasize\n      sub\n      dup2\n      add\n      swap1\n      tag_103\n      swap2\n      swap1\n      tag_29\n      jump\t// in\n    tag_103:\n      tag_104\n      jump\t// in\n    tag_102:\n      mload(0x40)\n      tag_105\n      swap5\n      swap4\n      swap3\n      swap2\n      swap1\n      tag_106\n      jump\t// in\n    tag_105:\n      mload(0x40)\n      dup1\n      swap2\n      sub\n      swap1\n      return\n        /* \"venda-multipla.sol\":719:752  uint256[] public activeListingIds */\n    tag_20:\n      callvalue\n      dup1\n      iszero\n      tag_107\n      jumpi\n      0x00\n      dup1\n      revert\n    tag_107:\n      pop\n      tag_108\n      0x04\n      dup1\n      calldatasize\n      sub\n      dup2\n      add\n      swap1\n      tag_109\n      swap2\n      swap1\n      tag_29\n      jump\t// in\n    tag_109:\n      tag_110\n      jump\t// in\n    tag_108:\n      mload(0x40)\n      tag_111\n      swap2\n      swap1\n      tag_78\n      jump\t// in\n    tag_111:\n      mload(0x40)\n      dup1\n      swap2\n      sub\n      swap1\n      return\n        /* \"venda-multipla.sol\":874:907  address public platformFeeAddress */\n    tag_21:\n      callvalue\n      dup1\n      iszero\n      tag_112\n      jumpi\n      0x00\n      dup1\n      revert\n    tag_112:\n      pop\n      tag_113\n      tag_114\n      jump\t// in\n    tag_113:\n      mload(0x40)\n      tag_115\n      swap2\n      swap1\n      tag_65\n      jump\t// in\n    tag_115:\n      mload(0x40)\n      dup1\n      swap2\n      sub\n      swap1\n      return\n        /* \"@openzeppelin/contracts/access/Ownable.sol\":2074:2272  function transferOwnership(address newOwner) public virtual onlyOwner {... */\n    tag_22:\n      callvalue\n      dup1\n      iszero\n      tag_116\n      jumpi\n      0x00\n      dup1\n      revert\n    tag_116:\n      pop\n      tag_117\n      0x04\n      dup1\n      calldatasize\n      sub\n      dup2\n      add\n      swap1\n      tag_118\n      swap2\n      swap1\n      tag_119\n      jump\t// in\n    tag_118:\n      tag_120\n      jump\t// in\n    tag_117:\n      stop\n        /* \"venda-multipla.sol\":4350:4648  function cancelListing(uint256 _listingId) external nonReentrant {... */\n    tag_30:\n        /* \"@openzeppelin/contracts/security/ReentrancyGuard.sol\":2261:2282  _nonReentrantBefore() */\n      tag_122\n        /* \"@openzeppelin/contracts/security/ReentrancyGuard.sol\":2261:2280  _nonReentrantBefore */\n      tag_123\n        /* \"@openzeppelin/contracts/security/ReentrancyGuard.sol\":2261:2282  _nonReentrantBefore() */\n      jump\t// in\n    tag_122:\n        /* \"venda-multipla.sol\":4462:4472  msg.sender */\n      caller\n        /* \"venda-multipla.sol\":4433:4472  listingOwners[_listingId] == msg.sender */\n      0xffffffffffffffffffffffffffffffffffffffff\n      and\n        /* \"venda-multipla.sol\":4433:4446  listingOwners */\n      0x09\n        /* \"venda-multipla.sol\":4433:4458  listingOwners[_listingId] */\n      0x00\n        /* \"venda-multipla.sol\":4447:4457  _listingId */\n      dup4\n        /* \"venda-multipla.sol\":4433:4458  listingOwners[_listingId] */\n      dup2\n      mstore\n      0x20\n      add\n      swap1\n      dup2\n      mstore\n      0x20\n      add\n      0x00\n      keccak256\n      0x00\n      swap1\n      sload\n      swap1\n      0x0100\n      exp\n      swap1\n      div\n      0xffffffffffffffffffffffffffffffffffffffff\n      and\n        /* \"venda-multipla.sol\":4433:4472  listingOwners[_listingId] == msg.sender */\n      0xffffffffffffffffffffffffffffffffffffffff\n      and\n      eq\n        /* \"venda-multipla.sol\":4425:4514  require(listingOwners[_listingId] == msg.sender, \"Only the listing owner can cancel it.\") */\n      tag_125\n      jumpi\n      mload(0x40)\n      0x08c379a000000000000000000000000000000000000000000000000000000000\n      dup2\n      mstore\n      0x04\n      add\n      tag_126\n      swap1\n      tag_127\n      jump\t// in\n    tag_126:\n      mload(0x40)\n      dup1\n      swap2\n      sub\n      swap1\n      revert\n    tag_125:\n        /* \"venda-multipla.sol\":4540:4548  listings */\n      0x08\n        /* \"venda-multipla.sol\":4540:4560  listings[_listingId] */\n      0x00\n        /* \"venda-multipla.sol\":4549:4559  _listingId */\n      dup3\n        /* \"venda-multipla.sol\":4540:4560  listings[_listingId] */\n      dup2\n      mstore\n      0x20\n      add\n      swap1\n      dup2\n      mstore\n      0x20\n      add\n      0x00\n      keccak256\n      0x00\n        /* \"venda-multipla.sol\":4533:4560  delete listings[_listingId] */\n      dup1\n      dup3\n      add\n      exp(0x0100, 0x00)\n      dup2\n      sload\n      swap1\n      0xffffffffffffffffffffffffffffffffffffffff\n      mul\n      not\n      and\n      swap1\n      sstore\n      0x01\n      dup3\n      add\n      0x00\n      tag_128\n      swap2\n      swap1\n      tag_129\n      jump\t// in\n    tag_128:\n      0x02\n      dup3\n      add\n      exp(0x0100, 0x00)\n      dup2\n      sload\n      swap1\n      0xffffffffffffffffffffffffffffffffffffffff\n      mul\n      not\n      and\n      swap1\n      sstore\n      0x03\n      dup3\n      add\n      0x00\n      swap1\n      sstore\n      0x04\n      dup3\n      add\n      0x00\n      swap1\n      sstore\n      pop\n      pop\n        /* \"venda-multipla.sol\":4577:4590  listingOwners */\n      0x09\n        /* \"venda-multipla.sol\":4577:4602  listingOwners[_listingId] */\n      0x00\n        /* \"venda-multipla.sol\":4591:4601  _listingId */\n      dup3\n        /* \"venda-multipla.sol\":4577:4602  listingOwners[_listingId] */\n      dup2\n      mstore\n      0x20\n      add\n      swap1\n      dup2\n      mstore\n      0x20\n      add\n      0x00\n      keccak256\n      0x00\n        /* \"venda-multipla.sol\":4570:4602  delete listingOwners[_listingId] */\n      0x0100\n      exp\n      dup2\n      sload\n      swap1\n      0xffffffffffffffffffffffffffffffffffffffff\n      mul\n      not\n      and\n      swap1\n      sstore\n        /* \"venda-multipla.sol\":4630:4640  _listingId */\n      dup1\n        /* \"venda-multipla.sol\":4618:4641  NFTDelisted(_listingId) */\n      0xc0c55a6edead4433d18cb1e287a0a20a2fa003a6f483bc9823d2e504d70d1c67\n      mload(0x40)\n      mload(0x40)\n      dup1\n      swap2\n      sub\n      swap1\n      log2\n        /* \"@openzeppelin/contracts/security/ReentrancyGuard.sol\":2303:2323  _nonReentrantAfter() */\n      tag_130\n        /* \"@openzeppelin/contracts/security/ReentrancyGuard.sol\":2303:2321  _nonReentrantAfter */\n      tag_131\n        /* \"@openzeppelin/contracts/security/ReentrancyGuard.sol\":2303:2323  _nonReentrantAfter() */\n      jump\t// in\n    tag_130:\n        /* \"venda-multipla.sol\":4350:4648  function cancelListing(uint256 _listingId) external nonReentrant {... */\n      pop\n      jump\t// out\n        /* \"venda-multipla.sol\":4734:4812  function unpause() external onlyOwner nonReentrant {... */\n    tag_33:\n        /* \"@openzeppelin/contracts/access/Ownable.sol\":1094:1107  _checkOwner() */\n      tag_133\n        /* \"@openzeppelin/contracts/access/Ownable.sol\":1094:1105  _checkOwner */\n      tag_134\n        /* \"@openzeppelin/contracts/access/Ownable.sol\":1094:1107  _checkOwner() */\n      jump\t// in\n    tag_133:\n        /* \"@openzeppelin/contracts/security/ReentrancyGuard.sol\":2261:2282  _nonReentrantBefore() */\n      tag_136\n        /* \"@openzeppelin/contracts/security/ReentrancyGuard.sol\":2261:2280  _nonReentrantBefore */\n      tag_123\n        /* \"@openzeppelin/contracts/security/ReentrancyGuard.sol\":2261:2282  _nonReentrantBefore() */\n      jump\t// in\n    tag_136:\n        /* \"venda-multipla.sol\":4795:4805  _unpause() */\n      tag_138\n        /* \"venda-multipla.sol\":4795:4803  _unpause */\n      tag_139\n        /* \"venda-multipla.sol\":4795:4805  _unpause() */\n      jump\t// in\n    tag_138:\n        /* \"@openzeppelin/contracts/security/ReentrancyGuard.sol\":2303:2323  _nonReentrantAfter() */\n      tag_140\n        /* \"@openzeppelin/contracts/security/ReentrancyGuard.sol\":2303:2321  _nonReentrantAfter */\n      tag_131\n        /* \"@openzeppelin/contracts/security/ReentrancyGuard.sol\":2303:2323  _nonReentrantAfter() */\n      jump\t// in\n    tag_140:\n        /* \"venda-multipla.sol\":4734:4812  function unpause() external onlyOwner nonReentrant {... */\n      jump\t// out\n        /* \"venda-multipla.sol\":1816:2929  function listNFT(address _nftContractAddress, uint256[] memory _nftIds, uint256 _price, uint256 _deadline) external whenNotPaused nonReentrant {... */\n    tag_38:\n        /* \"@openzeppelin/contracts/security/Pausable.sol\":1239:1258  _requireNotPaused() */\n      tag_142\n        /* \"@openzeppelin/contracts/security/Pausable.sol\":1239:1256  _requireNotPaused */\n      tag_143\n        /* \"@openzeppelin/contracts/security/Pausable.sol\":1239:1258  _requireNotPaused() */\n      jump\t// in\n    tag_142:\n        /* \"@openzeppelin/contracts/security/ReentrancyGuard.sol\":2261:2282  _nonReentrantBefore() */\n      tag_145\n        /* \"@openzeppelin/contracts/security/ReentrancyGuard.sol\":2261:2280  _nonReentrantBefore */\n      tag_123\n        /* \"@openzeppelin/contracts/security/ReentrancyGuard.sol\":2261:2282  _nonReentrantBefore() */\n      jump\t// in\n    tag_145:\n        /* \"venda-multipla.sol\":1986:1987  0 */\n      0x00\n        /* \"venda-multipla.sol\":1977:1983  _price */\n      dup3\n        /* \"venda-multipla.sol\":1977:1987  _price > 0 */\n      gt\n        /* \"venda-multipla.sol\":1969:2024  require(_price > 0, \"Price must be greater than zero.\") */\n      tag_147\n      jumpi\n      mload(0x40)\n      0x08c379a000000000000000000000000000000000000000000000000000000000\n      dup2\n      mstore\n      0x04\n      add\n      tag_148\n      swap1\n      tag_149\n      jump\t// in\n    tag_148:\n      mload(0x40)\n      dup1\n      swap2\n      sub\n      swap1\n      revert\n    tag_147:\n        /* \"venda-multipla.sol\":2054:2055  0 */\n      0x00\n        /* \"venda-multipla.sol\":2042:2051  _deadline */\n      dup2\n        /* \"venda-multipla.sol\":2042:2055  _deadline > 0 */\n      gt\n        /* \"venda-multipla.sol\":2034:2095  require(_deadline > 0, \"Deadline must be greater than zero.\") */\n      tag_150\n      jumpi\n      mload(0x40)\n      0x08c379a000000000000000000000000000000000000000000000000000000000\n      dup2\n      mstore\n      0x04\n      add\n      tag_151\n      swap1\n      tag_152\n      jump\t// in\n    tag_151:\n      mload(0x40)\n      dup1\n      swap2\n      sub\n      swap1\n      revert\n    tag_150:\n        /* \"venda-multipla.sol\":2130:2131  0 */\n      0x00\n        /* \"venda-multipla.sol\":2113:2120  _nftIds */\n      dup4\n        /* \"venda-multipla.sol\":2113:2127  _nftIds.length */\n      mload\n        /* \"venda-multipla.sol\":2113:2131  _nftIds.length > 0 */\n      gt\n        /* \"venda-multipla.sol\":2105:2163  require(_nftIds.length > 0, \"Must list at least one NFT.\") */\n      tag_153\n      jumpi\n      mload(0x40)\n      0x08c379a000000000000000000000000000000000000000000000000000000000\n      dup2\n      mstore\n      0x04\n      add\n      tag_154\n      swap1\n      tag_155\n      jump\t// in\n    tag_154:\n      mload(0x40)\n      dup1\n      swap2\n      sub\n      swap1\n      revert\n    tag_153:\n        /* \"venda-multipla.sol\":2174:2193  IERC721 nftContract */\n      0x00\n        /* \"venda-multipla.sol\":2204:2223  _nftContractAddress */\n      dup5\n        /* \"venda-multipla.sol\":2174:2224  IERC721 nftContract = IERC721(_nftContractAddress) */\n      swap1\n      pop\n        /* \"venda-multipla.sol\":2240:2249  uint256 i */\n      0x00\n        /* \"venda-multipla.sol\":2235:2432  for (uint256 i = 0; i < _nftIds.length; i++) {... */\n    tag_156:\n        /* \"venda-multipla.sol\":2259:2266  _nftIds */\n      dup5\n        /* \"venda-multipla.sol\":2259:2273  _nftIds.length */\n      mload\n        /* \"venda-multipla.sol\":2255:2256  i */\n      dup2\n        /* \"venda-multipla.sol\":2255:2273  i < _nftIds.length */\n      lt\n        /* \"venda-multipla.sol\":2235:2432  for (uint256 i = 0; i < _nftIds.length; i++) {... */\n      iszero\n      tag_157\n      jumpi\n        /* \"venda-multipla.sol\":2294:2308  uint256 _nftId */\n      0x00\n        /* \"venda-multipla.sol\":2311:2318  _nftIds */\n      dup6\n        /* \"venda-multipla.sol\":2319:2320  i */\n      dup3\n        /* \"venda-multipla.sol\":2311:2321  _nftIds[i] */\n      dup2\n      mload\n      dup2\n      lt\n      tag_159\n      jumpi\n      mstore(0x00, 0x4e487b7100000000000000000000000000000000000000000000000000000000)\n      mstore(0x04, 0x32)\n      revert(0x00, 0x24)\n    tag_159:\n      0x20\n      mul\n      0x20\n      add\n      add\n      mload\n        /* \"venda-multipla.sol\":2294:2321  uint256 _nftId = _nftIds[i] */\n      swap1\n      pop\n        /* \"venda-multipla.sol\":2374:2384  msg.sender */\n      caller\n        /* \"venda-multipla.sol\":2343:2384  nftContract.ownerOf(_nftId) == msg.sender */\n      0xffffffffffffffffffffffffffffffffffffffff\n      and\n        /* \"venda-multipla.sol\":2343:2354  nftContract */\n      dup4\n        /* \"venda-multipla.sol\":2343:2362  nftContract.ownerOf */\n      0xffffffffffffffffffffffffffffffffffffffff\n      and\n      0x6352211e\n        /* \"venda-multipla.sol\":2363:2369  _nftId */\n      dup4\n        /* \"venda-multipla.sol\":2343:2370  nftContract.ownerOf(_nftId) */\n      mload(0x40)\n      dup3\n      0xffffffff\n      and\n      0xe0\n      shl\n      dup2\n      mstore\n      0x04\n      add\n      tag_160\n      swap2\n      swap1\n      tag_78\n      jump\t// in\n    tag_160:\n      0x20\n      mload(0x40)\n      dup1\n      dup4\n      sub\n      dup2\n      dup7\n      dup1\n      extcodesize\n      iszero\n      dup1\n      iszero\n      tag_161\n      jumpi\n      0x00\n      dup1\n      revert\n    tag_161:\n      pop\n      gas\n      staticcall\n      iszero\n      dup1\n      iszero\n      tag_163\n      jumpi\n      returndatasize\n      0x00\n      dup1\n      returndatacopy\n      revert(0x00, returndatasize)\n    tag_163:\n      pop\n      pop\n      pop\n      pop\n      mload(0x40)\n      returndatasize\n      not(0x1f)\n      0x1f\n      dup3\n      add\n      and\n      dup3\n      add\n      dup1\n      0x40\n      mstore\n      pop\n      dup2\n      add\n      swap1\n      tag_164\n      swap2\n      swap1\n      tag_165\n      jump\t// in\n    tag_164:\n        /* \"venda-multipla.sol\":2343:2384  nftContract.ownerOf(_nftId) == msg.sender */\n      0xffffffffffffffffffffffffffffffffffffffff\n      and\n      eq\n        /* \"venda-multipla.sol\":2335:2421  require(nftContract.ownerOf(_nftId) == msg.sender, \"You must own the NFT to list it.\") */\n      tag_166\n      jumpi\n      mload(0x40)\n      0x08c379a000000000000000000000000000000000000000000000000000000000\n      dup2\n      mstore\n      0x04\n      add\n      tag_167\n      swap1\n      tag_168\n      jump\t// in\n    tag_167:\n      mload(0x40)\n      dup1\n      swap2\n      sub\n      swap1\n      revert\n    tag_166:\n        /* \"venda-multipla.sol\":2235:2432  for (uint256 i = 0; i < _nftIds.length; i++) {... */\n      pop\n        /* \"venda-multipla.sol\":2275:2278  i++ */\n      dup1\n      dup1\n      tag_169\n      swap1\n      tag_170\n      jump\t// in\n    tag_169:\n      swap2\n      pop\n      pop\n        /* \"venda-multipla.sol\":2235:2432  for (uint256 i = 0; i < _nftIds.length; i++) {... */\n      jump(tag_156)\n    tag_157:\n      pop\n        /* \"venda-multipla.sol\":2468:2679  Listing({... */\n      mload(0x40)\n      dup1\n      0xa0\n      add\n      0x40\n      mstore\n      dup1\n        /* \"venda-multipla.sol\":2510:2529  _nftContractAddress */\n      dup7\n        /* \"venda-multipla.sol\":2468:2679  Listing({... */\n      0xffffffffffffffffffffffffffffffffffffffff\n      and\n      dup2\n      mstore\n      0x20\n      add\n        /* \"venda-multipla.sol\":2551:2558  _nftIds */\n      dup6\n        /* \"venda-multipla.sol\":2468:2679  Listing({... */\n      dup2\n      mstore\n      0x20\n      add\n        /* \"venda-multipla.sol\":2580:2590  msg.sender */\n      caller\n        /* \"venda-multipla.sol\":2468:2679  Listing({... */\n      0xffffffffffffffffffffffffffffffffffffffff\n      and\n      dup2\n      mstore\n      0x20\n      add\n        /* \"venda-multipla.sol\":2611:2617  _price */\n      dup5\n        /* \"venda-multipla.sol\":2468:2679  Listing({... */\n      dup2\n      mstore\n      0x20\n      add\n        /* \"venda-multipla.sol\":2659:2668  _deadline */\n      dup4\n        /* \"venda-multipla.sol\":2641:2656  block.timestamp */\n      timestamp\n        /* \"venda-multipla.sol\":2641:2668  block.timestamp + _deadline */\n      tag_171\n      swap2\n      swap1\n      tag_172\n      jump\t// in\n    tag_171:\n        /* \"venda-multipla.sol\":2468:2679  Listing({... */\n      dup2\n      mstore\n      pop\n        /* \"venda-multipla.sol\":2442:2450  listings */\n      0x08\n        /* \"venda-multipla.sol\":2442:2465  listings[nextListingId] */\n      0x00\n        /* \"venda-multipla.sol\":2451:2464  nextListingId */\n      sload(0x0a)\n        /* \"venda-multipla.sol\":2442:2465  listings[nextListingId] */\n      dup2\n      mstore\n      0x20\n      add\n      swap1\n      dup2\n      mstore\n      0x20\n      add\n      0x00\n      keccak256\n        /* \"venda-multipla.sol\":2442:2679  listings[nextListingId] = Listing({... */\n      0x00\n      dup3\n      add\n      mload\n      dup2\n      0x00\n      add\n      exp(0x0100, 0x00)\n      dup2\n      sload\n      dup2\n      0xffffffffffffffffffffffffffffffffffffffff\n      mul\n      not\n      and\n      swap1\n      dup4\n      0xffffffffffffffffffffffffffffffffffffffff\n      and\n      mul\n      or\n      swap1\n      sstore\n      pop\n      0x20\n      dup3\n      add\n      mload\n      dup2\n      0x01\n      add\n      swap1\n      dup1\n      mload\n      swap1\n      0x20\n      add\n      swap1\n      tag_173\n      swap3\n      swap2\n      swap1\n      tag_174\n      jump\t// in\n    tag_173:\n      pop\n      0x40\n      dup3\n      add\n      mload\n      dup2\n      0x02\n      add\n      exp(0x0100, 0x00)\n      dup2\n      sload\n      dup2\n      0xffffffffffffffffffffffffffffffffffffffff\n      mul\n      not\n      and\n      swap1\n      dup4\n      0xffffffffffffffffffffffffffffffffffffffff\n      and\n      mul\n      or\n      swap1\n      sstore\n      pop\n      0x60\n      dup3\n      add\n      mload\n      dup2\n      0x03\n      add\n      sstore\n      0x80\n      dup3\n      add\n      mload\n      dup2\n      0x04\n      add\n      sstore\n      swap1\n      pop\n      pop\n        /* \"venda-multipla.sol\":2721:2731  msg.sender */\n      caller\n        /* \"venda-multipla.sol\":2690:2703  listingOwners */\n      0x09\n        /* \"venda-multipla.sol\":2690:2718  listingOwners[nextListingId] */\n      0x00\n        /* \"venda-multipla.sol\":2704:2717  nextListingId */\n      sload(0x0a)\n        /* \"venda-multipla.sol\":2690:2718  listingOwners[nextListingId] */\n      dup2\n      mstore\n      0x20\n      add\n      swap1\n      dup2\n      mstore\n      0x20\n      add\n      0x00\n      keccak256\n      0x00\n        /* \"venda-multipla.sol\":2690:2731  listingOwners[nextListingId] = msg.sender */\n      0x0100\n      exp\n      dup2\n      sload\n      dup2\n      0xffffffffffffffffffffffffffffffffffffffff\n      mul\n      not\n      and\n      swap1\n      dup4\n      0xffffffffffffffffffffffffffffffffffffffff\n      and\n      mul\n      or\n      swap1\n      sstore\n      pop\n        /* \"venda-multipla.sol\":2742:2758  activeListingIds */\n      0x03\n        /* \"venda-multipla.sol\":2764:2777  nextListingId */\n      sload(0x0a)\n        /* \"venda-multipla.sol\":2742:2778  activeListingIds.push(nextListingId) */\n      swap1\n      dup1\n      0x01\n      dup2\n      sload\n      add\n      dup1\n      dup3\n      sstore\n      dup1\n      swap2\n      pop\n      pop\n      0x01\n      swap1\n      sub\n      swap1\n      0x00\n      mstore\n      keccak256(0x00, 0x20)\n      add\n      0x00\n      swap1\n      swap2\n      swap1\n      swap2\n      swap1\n      swap2\n      pop\n      sstore\n        /* \"venda-multipla.sol\":2831:2850  _nftContractAddress */\n      dup5\n        /* \"venda-multipla.sol\":2794:2897  NFTListed(nextListingId, msg.sender, _nftContractAddress, _nftIds, _price, block.timestamp + _deadline) */\n      0xffffffffffffffffffffffffffffffffffffffff\n      and\n        /* \"venda-multipla.sol\":2819:2829  msg.sender */\n      caller\n        /* \"venda-multipla.sol\":2794:2897  NFTListed(nextListingId, msg.sender, _nftContractAddress, _nftIds, _price, block.timestamp + _deadline) */\n      0xffffffffffffffffffffffffffffffffffffffff\n      and\n        /* \"venda-multipla.sol\":2804:2817  nextListingId */\n      sload(0x0a)\n        /* \"venda-multipla.sol\":2794:2897  NFTListed(nextListingId, msg.sender, _nftContractAddress, _nftIds, _price, block.timestamp + _deadline) */\n      0xb135ab5d6fb2741efa75bf597e471845ca0a87fc756c5ab2a23f77639e3a8941\n        /* \"venda-multipla.sol\":2852:2859  _nftIds */\n      dup8\n        /* \"venda-multipla.sol\":2861:2867  _price */\n      dup8\n        /* \"venda-multipla.sol\":2887:2896  _deadline */\n      dup8\n        /* \"venda-multipla.sol\":2869:2884  block.timestamp */\n      timestamp\n        /* \"venda-multipla.sol\":2869:2896  block.timestamp + _deadline */\n      tag_176\n      swap2\n      swap1\n      tag_172\n      jump\t// in\n    tag_176:\n        /* \"venda-multipla.sol\":2794:2897  NFTListed(nextListingId, msg.sender, _nftContractAddress, _nftIds, _price, block.timestamp + _deadline) */\n      mload(0x40)\n      tag_177\n      swap4\n      swap3\n      swap2\n      swap1\n      tag_178\n      jump\t// in\n    tag_177:\n      mload(0x40)\n      dup1\n      swap2\n      sub\n      swap1\n      log4\n        /* \"venda-multipla.sol\":2907:2920  nextListingId */\n      0x0a\n      0x00\n        /* \"venda-multipla.sol\":2907:2922  nextListingId++ */\n      dup2\n      sload\n      dup1\n      swap3\n      swap2\n      swap1\n      tag_179\n      swap1\n      tag_170\n      jump\t// in\n    tag_179:\n      swap2\n      swap1\n      pop\n      sstore\n      pop\n        /* \"@openzeppelin/contracts/security/ReentrancyGuard.sol\":2292:2293  _ */\n      pop\n        /* \"@openzeppelin/contracts/security/ReentrancyGuard.sol\":2303:2323  _nonReentrantAfter() */\n      tag_180\n        /* \"@openzeppelin/contracts/security/ReentrancyGuard.sol\":2303:2321  _nonReentrantAfter */\n      tag_131\n        /* \"@openzeppelin/contracts/security/ReentrancyGuard.sol\":2303:2323  _nonReentrantAfter() */\n      jump\t// in\n    tag_180:\n        /* \"venda-multipla.sol\":1816:2929  function listNFT(address _nftContractAddress, uint256[] memory _nftIds, uint256 _price, uint256 _deadline) external whenNotPaused nonReentrant {... */\n      pop\n      pop\n      pop\n      pop\n      jump\t// out\n        /* \"venda-multipla.sol\":2935:4344  function buyNFT(uint256 _listingId) external payable whenNotPaused nonReentrant {... */\n    tag_41:\n        /* \"@openzeppelin/contracts/security/Pausable.sol\":1239:1258  _requireNotPaused() */\n      tag_182\n        /* \"@openzeppelin/contracts/security/Pausable.sol\":1239:1256  _requireNotPaused */\n      tag_143\n        /* \"@openzeppelin/contracts/security/Pausable.sol\":1239:1258  _requireNotPaused() */\n      jump\t// in\n    tag_182:\n        /* \"@openzeppelin/contracts/security/ReentrancyGuard.sol\":2261:2282  _nonReentrantBefore() */\n      tag_184\n        /* \"@openzeppelin/contracts/security/ReentrancyGuard.sol\":2261:2280  _nonReentrantBefore */\n      tag_123\n        /* \"@openzeppelin/contracts/security/ReentrancyGuard.sol\":2261:2282  _nonReentrantBefore() */\n      jump\t// in\n    tag_184:\n        /* \"venda-multipla.sol\":3045:3046  0 */\n      0x00\n        /* \"venda-multipla.sol\":3033:3042  msg.value */\n      callvalue\n        /* \"venda-multipla.sol\":3033:3046  msg.value > 0 */\n      gt\n        /* \"venda-multipla.sol\":3025:3088  require(msg.value > 0, \"Sent value must be greater than zero.\") */\n      tag_186\n      jumpi\n      mload(0x40)\n      0x08c379a000000000000000000000000000000000000000000000000000000000\n      dup2\n      mstore\n      0x04\n      add\n      tag_187\n      swap1\n      tag_188\n      jump\t// in\n    tag_187:\n      mload(0x40)\n      dup1\n      swap2\n      sub\n      swap1\n      revert\n    tag_186:\n        /* \"venda-multipla.sol\":3099:3122  Listing storage listing */\n      0x00\n        /* \"venda-multipla.sol\":3125:3133  listings */\n      0x08\n        /* \"venda-multipla.sol\":3125:3145  listings[_listingId] */\n      0x00\n        /* \"venda-multipla.sol\":3134:3144  _listingId */\n      dup4\n        /* \"venda-multipla.sol\":3125:3145  listings[_listingId] */\n      dup2\n      mstore\n      0x20\n      add\n      swap1\n      dup2\n      mstore\n      0x20\n      add\n      0x00\n      keccak256\n        /* \"venda-multipla.sol\":3099:3145  Listing storage listing = listings[_listingId] */\n      swap1\n      pop\n        /* \"venda-multipla.sol\":3189:3190  0 */\n      0x00\n        /* \"venda-multipla.sol\":3163:3191  listing.seller != address(0) */\n      0xffffffffffffffffffffffffffffffffffffffff\n      and\n        /* \"venda-multipla.sol\":3163:3170  listing */\n      dup2\n        /* \"venda-multipla.sol\":3163:3177  listing.seller */\n      0x02\n      add\n      0x00\n      swap1\n      sload\n      swap1\n      0x0100\n      exp\n      swap1\n      div\n      0xffffffffffffffffffffffffffffffffffffffff\n      and\n        /* \"venda-multipla.sol\":3163:3191  listing.seller != address(0) */\n      0xffffffffffffffffffffffffffffffffffffffff\n      and\n      eq\n      iszero\n        /* \"venda-multipla.sol\":3155:3219  require(listing.seller != address(0), \"Listing does not exist.\") */\n      tag_189\n      jumpi\n      mload(0x40)\n      0x08c379a000000000000000000000000000000000000000000000000000000000\n      dup2\n      mstore\n      0x04\n      add\n      tag_190\n      swap1\n      tag_191\n      jump\t// in\n    tag_190:\n      mload(0x40)\n      dup1\n      swap2\n      sub\n      swap1\n      revert\n    tag_189:\n        /* \"venda-multipla.sol\":3256:3263  listing */\n      dup1\n        /* \"venda-multipla.sol\":3256:3272  listing.deadline */\n      0x04\n      add\n      sload\n        /* \"venda-multipla.sol\":3237:3252  block.timestamp */\n      timestamp\n        /* \"venda-multipla.sol\":3237:3272  block.timestamp <= listing.deadline */\n      gt\n      iszero\n        /* \"venda-multipla.sol\":3229:3302  require(block.timestamp <= listing.deadline, \"This listing has expired.\") */\n      tag_192\n      jumpi\n      mload(0x40)\n      0x08c379a000000000000000000000000000000000000000000000000000000000\n      dup2\n      mstore\n      0x04\n      add\n      tag_193\n      swap1\n      tag_194\n      jump\t// in\n    tag_193:\n      mload(0x40)\n      dup1\n      swap2\n      sub\n      swap1\n      revert\n    tag_192:\n        /* \"venda-multipla.sol\":3333:3340  listing */\n      dup1\n        /* \"venda-multipla.sol\":3333:3346  listing.price */\n      0x03\n      add\n      sload\n        /* \"venda-multipla.sol\":3320:3329  msg.value */\n      callvalue\n        /* \"venda-multipla.sol\":3320:3346  msg.value == listing.price */\n      eq\n        /* \"venda-multipla.sol\":3312:3397  require(msg.value == listing.price, \"Sent value must be equal to the listing price.\") */\n      tag_195\n      jumpi\n      mload(0x40)\n      0x08c379a000000000000000000000000000000000000000000000000000000000\n      dup2\n      mstore\n      0x04\n      add\n      tag_196\n      swap1\n      tag_197\n      jump\t// in\n    tag_196:\n      mload(0x40)\n      dup1\n      swap2\n      sub\n      swap1\n      revert\n    tag_195:\n        /* \"venda-multipla.sol\":3408:3429  uint256 royaltyAmount */\n      0x00\n        /* \"venda-multipla.sol\":3470:3475  10000 */\n      0x2710\n        /* \"venda-multipla.sol\":3449:3466  royaltyPercentage */\n      sload(0x04)\n        /* \"venda-multipla.sol\":3433:3440  listing */\n      dup4\n        /* \"venda-multipla.sol\":3433:3446  listing.price */\n      0x03\n      add\n      sload\n        /* \"venda-multipla.sol\":3433:3466  listing.price * royaltyPercentage */\n      tag_198\n      swap2\n      swap1\n      tag_199\n      jump\t// in\n    tag_198:\n        /* \"venda-multipla.sol\":3432:3475  (listing.price * royaltyPercentage) / 10000 */\n      tag_200\n      swap2\n      swap1\n      tag_201\n      jump\t// in\n    tag_200:\n        /* \"venda-multipla.sol\":3408:3475  uint256 royaltyAmount = (listing.price * royaltyPercentage) / 10000 */\n      swap1\n      pop\n        /* \"venda-multipla.sol\":3485:3504  uint256 platformFee */\n      0x00\n        /* \"venda-multipla.sol\":3549:3554  10000 */\n      0x2710\n        /* \"venda-multipla.sol\":3524:3545  platformFeePercentage */\n      sload(0x05)\n        /* \"venda-multipla.sol\":3508:3515  listing */\n      dup5\n        /* \"venda-multipla.sol\":3508:3521  listing.price */\n      0x03\n      add\n      sload\n        /* \"venda-multipla.sol\":3508:3545  listing.price * platformFeePercentage */\n      tag_202\n      swap2\n      swap1\n      tag_199\n      jump\t// in\n    tag_202:\n        /* \"venda-multipla.sol\":3507:3554  (listing.price * platformFeePercentage) / 10000 */\n      tag_203\n      swap2\n      swap1\n      tag_201\n      jump\t// in\n    tag_203:\n        /* \"venda-multipla.sol\":3485:3554  uint256 platformFee = (listing.price * platformFeePercentage) / 10000 */\n      swap1\n      pop\n        /* \"venda-multipla.sol\":3564:3584  uint256 sellerAmount */\n      0x00\n        /* \"venda-multipla.sol\":3619:3630  platformFee */\n      dup2\n        /* \"venda-multipla.sol\":3603:3616  royaltyAmount */\n      dup4\n        /* \"venda-multipla.sol\":3587:3594  listing */\n      dup6\n        /* \"venda-multipla.sol\":3587:3600  listing.price */\n      0x03\n      add\n      sload\n        /* \"venda-multipla.sol\":3587:3616  listing.price - royaltyAmount */\n      tag_204\n      swap2\n      swap1\n      tag_205\n      jump\t// in\n    tag_204:\n        /* \"venda-multipla.sol\":3587:3630  listing.price - royaltyAmount - platformFee */\n      tag_206\n      swap2\n      swap1\n      tag_205\n      jump\t// in\n    tag_206:\n        /* \"venda-multipla.sol\":3564:3630  uint256 sellerAmount = listing.price - royaltyAmount - platformFee */\n      swap1\n      pop\n        /* \"venda-multipla.sol\":3641:3660  IERC721 nftContract */\n      0x00\n        /* \"venda-multipla.sol\":3671:3678  listing */\n      dup5\n        /* \"venda-multipla.sol\":3671:3697  listing.nftContractAddress */\n      0x00\n      add\n      0x00\n      swap1\n      sload\n      swap1\n      0x0100\n      exp\n      swap1\n      div\n      0xffffffffffffffffffffffffffffffffffffffff\n      and\n        /* \"venda-multipla.sol\":3641:3698  IERC721 nftContract = IERC721(listing.nftContractAddress) */\n      swap1\n      pop\n        /* \"venda-multipla.sol\":3713:3722  uint256 i */\n      0x00\n        /* \"venda-multipla.sol\":3708:4007  for (uint256 i = 0; i < listing.nftIds.length; i++) {... */\n    tag_207:\n        /* \"venda-multipla.sol\":3732:3739  listing */\n      dup6\n        /* \"venda-multipla.sol\":3732:3746  listing.nftIds */\n      0x01\n      add\n        /* \"venda-multipla.sol\":3732:3753  listing.nftIds.length */\n      dup1\n      sload\n      swap1\n      pop\n        /* \"venda-multipla.sol\":3728:3729  i */\n      dup2\n        /* \"venda-multipla.sol\":3728:3753  i < listing.nftIds.length */\n      lt\n        /* \"venda-multipla.sol\":3708:4007  for (uint256 i = 0; i < listing.nftIds.length; i++) {... */\n      iszero\n      tag_208\n      jumpi\n        /* \"venda-multipla.sol\":3774:3788  uint256 _nftId */\n      0x00\n        /* \"venda-multipla.sol\":3791:3798  listing */\n      dup7\n        /* \"venda-multipla.sol\":3791:3805  listing.nftIds */\n      0x01\n      add\n        /* \"venda-multipla.sol\":3806:3807  i */\n      dup3\n        /* \"venda-multipla.sol\":3791:3808  listing.nftIds[i] */\n      dup2\n      sload\n      dup2\n      lt\n      tag_210\n      jumpi\n      mstore(0x00, 0x4e487b7100000000000000000000000000000000000000000000000000000000)\n      mstore(0x04, 0x32)\n      revert(0x00, 0x24)\n    tag_210:\n      swap1\n      0x00\n      mstore\n      keccak256(0x00, 0x20)\n      add\n      sload\n        /* \"venda-multipla.sol\":3774:3808  uint256 _nftId = listing.nftIds[i] */\n      swap1\n      pop\n        /* \"venda-multipla.sol\":3861:3868  listing */\n      dup7\n        /* \"venda-multipla.sol\":3861:3875  listing.seller */\n      0x02\n      add\n      0x00\n      swap1\n      sload\n      swap1\n      0x0100\n      exp\n      swap1\n      div\n      0xffffffffffffffffffffffffffffffffffffffff\n      and\n        /* \"venda-multipla.sol\":3830:3875  nftContract.ownerOf(_nftId) == listing.seller */\n      0xffffffffffffffffffffffffffffffffffffffff\n      and\n        /* \"venda-multipla.sol\":3830:3841  nftContract */\n      dup4\n        /* \"venda-multipla.sol\":3830:3849  nftContract.ownerOf */\n      0xffffffffffffffffffffffffffffffffffffffff\n      and\n      0x6352211e\n        /* \"venda-multipla.sol\":3850:3856  _nftId */\n      dup4\n        /* \"venda-multipla.sol\":3830:3857  nftContract.ownerOf(_nftId) */\n      mload(0x40)\n      dup3\n      0xffffffff\n      and\n      0xe0\n      shl\n      dup2\n      mstore\n      0x04\n      add\n      tag_212\n      swap2\n      swap1\n      tag_78\n      jump\t// in\n    tag_212:\n      0x20\n      mload(0x40)\n      dup1\n      dup4\n      sub\n      dup2\n      dup7\n      dup1\n      extcodesize\n      iszero\n      dup1\n      iszero\n      tag_213\n      jumpi\n      0x00\n      dup1\n      revert\n    tag_213:\n      pop\n      gas\n      staticcall\n      iszero\n      dup1\n      iszero\n      tag_215\n      jumpi\n      returndatasize\n      0x00\n      dup1\n      returndatacopy\n      revert(0x00, returndatasize)\n    tag_215:\n      pop\n      pop\n      pop\n      pop\n      mload(0x40)\n      returndatasize\n      not(0x1f)\n      0x1f\n      dup3\n      add\n      and\n      dup3\n      add\n      dup1\n      0x40\n      mstore\n      pop\n      dup2\n      add\n      swap1\n      tag_216\n      swap2\n      swap1\n      tag_165\n      jump\t// in\n    tag_216:\n        /* \"venda-multipla.sol\":3830:3875  nftContract.ownerOf(_nftId) == listing.seller */\n      0xffffffffffffffffffffffffffffffffffffffff\n      and\n      eq\n        /* \"venda-multipla.sol\":3822:3918  require(nftContract.ownerOf(_nftId) == listing.seller, \"Seller no longer owns one of the NFTs.\") */\n      tag_217\n      jumpi\n      mload(0x40)\n      0x08c379a000000000000000000000000000000000000000000000000000000000\n      dup2\n      mstore\n      0x04\n      add\n      tag_218\n      swap1\n      tag_219\n      jump\t// in\n    tag_218:\n      mload(0x40)\n      dup1\n      swap2\n      sub\n      swap1\n      revert\n    tag_217:\n        /* \"venda-multipla.sol\":3932:3943  nftContract */\n      dup3\n        /* \"venda-multipla.sol\":3932:3960  nftContract.safeTransferFrom */\n      0xffffffffffffffffffffffffffffffffffffffff\n      and\n      0x42842e0e\n        /* \"venda-multipla.sol\":3961:3968  listing */\n      dup9\n        /* \"venda-multipla.sol\":3961:3975  listing.seller */\n      0x02\n      add\n      0x00\n      swap1\n      sload\n      swap1\n      0x0100\n      exp\n      swap1\n      div\n      0xffffffffffffffffffffffffffffffffffffffff\n      and\n        /* \"venda-multipla.sol\":3977:3987  msg.sender */\n      caller\n        /* \"venda-multipla.sol\":3989:3995  _nftId */\n      dup5\n        /* \"venda-multipla.sol\":3932:3996  nftContract.safeTransferFrom(listing.seller, msg.sender, _nftId) */\n      mload(0x40)\n      dup5\n      0xffffffff\n      and\n      0xe0\n      shl\n      dup2\n      mstore\n      0x04\n      add\n      tag_220\n      swap4\n      swap3\n      swap2\n      swap1\n      tag_221\n      jump\t// in\n    tag_220:\n      0x00\n      mload(0x40)\n      dup1\n      dup4\n      sub\n      dup2\n      0x00\n      dup8\n      dup1\n      extcodesize\n      iszero\n      dup1\n      iszero\n      tag_222\n      jumpi\n      0x00\n      dup1\n      revert\n    tag_222:\n      pop\n      gas\n      call\n      iszero\n      dup1\n      iszero\n      tag_224\n      jumpi\n      returndatasize\n      0x00\n      dup1\n      returndatacopy\n      revert(0x00, returndatasize)\n    tag_224:\n      pop\n      pop\n      pop\n      pop\n        /* \"venda-multipla.sol\":3708:4007  for (uint256 i = 0; i < listing.nftIds.length; i++) {... */\n      pop\n        /* \"venda-multipla.sol\":3755:3758  i++ */\n      dup1\n      dup1\n      tag_225\n      swap1\n      tag_170\n      jump\t// in\n    tag_225:\n      swap2\n      pop\n      pop\n        /* \"venda-multipla.sol\":3708:4007  for (uint256 i = 0; i < listing.nftIds.length; i++) {... */\n      jump(tag_207)\n    tag_208:\n      pop\n        /* \"venda-multipla.sol\":4025:4032  listing */\n      dup5\n        /* \"venda-multipla.sol\":4025:4039  listing.seller */\n      0x02\n      add\n      0x00\n      swap1\n      sload\n      swap1\n      0x0100\n      exp\n      swap1\n      div\n      0xffffffffffffffffffffffffffffffffffffffff\n      and\n        /* \"venda-multipla.sol\":4017:4049  payable(listing.seller).transfer */\n      0xffffffffffffffffffffffffffffffffffffffff\n      and\n        /* \"venda-multipla.sol\":4017:4063  payable(listing.seller).transfer(sellerAmount) */\n      0x08fc\n        /* \"venda-multipla.sol\":4050:4062  sellerAmount */\n      dup4\n        /* \"venda-multipla.sol\":4017:4063  payable(listing.seller).transfer(sellerAmount) */\n      swap1\n      dup2\n      iszero\n      mul\n      swap1\n      mload(0x40)\n      0x00\n      mload(0x40)\n      dup1\n      dup4\n      sub\n      dup2\n      dup6\n      dup9\n      dup9\n      call\n      swap4\n      pop\n      pop\n      pop\n      pop\n      iszero\n      dup1\n      iszero\n      tag_227\n      jumpi\n      returndatasize\n      0x00\n      dup1\n      returndatacopy\n      revert(0x00, returndatasize)\n    tag_227:\n      pop\n        /* \"venda-multipla.sol\":4081:4095  royaltyAddress */\n      0x06\n      0x00\n      swap1\n      sload\n      swap1\n      0x0100\n      exp\n      swap1\n      div\n      0xffffffffffffffffffffffffffffffffffffffff\n      and\n        /* \"venda-multipla.sol\":4073:4105  payable(royaltyAddress).transfer */\n      0xffffffffffffffffffffffffffffffffffffffff\n      and\n        /* \"venda-multipla.sol\":4073:4120  payable(royaltyAddress).transfer(royaltyAmount) */\n      0x08fc\n        /* \"venda-multipla.sol\":4106:4119  royaltyAmount */\n      dup6\n        /* \"venda-multipla.sol\":4073:4120  payable(royaltyAddress).transfer(royaltyAmount) */\n      swap1\n      dup2\n      iszero\n      mul\n      swap1\n      mload(0x40)\n      0x00\n      mload(0x40)\n      dup1\n      dup4\n      sub\n      dup2\n      dup6\n      dup9\n      dup9\n      call\n      swap4\n      pop\n      pop\n      pop\n      pop\n      iszero\n      dup1\n      iszero\n      tag_229\n      jumpi\n      returndatasize\n      0x00\n      dup1\n      returndatacopy\n      revert(0x00, returndatasize)\n    tag_229:\n      pop\n        /* \"venda-multipla.sol\":4138:4156  platformFeeAddress */\n      0x07\n      0x00\n      swap1\n      sload\n      swap1\n      0x0100\n      exp\n      swap1\n      div\n      0xffffffffffffffffffffffffffffffffffffffff\n      and\n        /* \"venda-multipla.sol\":4130:4166  payable(platformFeeAddress).transfer */\n      0xffffffffffffffffffffffffffffffffffffffff\n      and\n        /* \"venda-multipla.sol\":4130:4179  payable(platformFeeAddress).transfer(platformFee) */\n      0x08fc\n        /* \"venda-multipla.sol\":4167:4178  platformFee */\n      dup5\n        /* \"venda-multipla.sol\":4130:4179  payable(platformFeeAddress).transfer(platformFee) */\n      swap1\n      dup2\n      iszero\n      mul\n      swap1\n      mload(0x40)\n      0x00\n      mload(0x40)\n      dup1\n      dup4\n      sub\n      dup2\n      dup6\n      dup9\n      dup9\n      call\n      swap4\n      pop\n      pop\n      pop\n      pop\n      iszero\n      dup1\n      iszero\n      tag_231\n      jumpi\n      returndatasize\n      0x00\n      dup1\n      returndatacopy\n      revert(0x00, returndatasize)\n    tag_231:\n      pop\n        /* \"venda-multipla.sol\":4231:4241  msg.sender */\n      caller\n        /* \"venda-multipla.sol\":4195:4257  NFTSold(_listingId, listing.seller, msg.sender, listing.price) */\n      0xffffffffffffffffffffffffffffffffffffffff\n      and\n        /* \"venda-multipla.sol\":4215:4222  listing */\n      dup6\n        /* \"venda-multipla.sol\":4215:4229  listing.seller */\n      0x02\n      add\n      0x00\n      swap1\n      sload\n      swap1\n      0x0100\n      exp\n      swap1\n      div\n      0xffffffffffffffffffffffffffffffffffffffff\n      and\n        /* \"venda-multipla.sol\":4195:4257  NFTSold(_listingId, listing.seller, msg.sender, listing.price) */\n      0xffffffffffffffffffffffffffffffffffffffff\n      and\n        /* \"venda-multipla.sol\":4203:4213  _listingId */\n      dup8\n        /* \"venda-multipla.sol\":4195:4257  NFTSold(_listingId, listing.seller, msg.sender, listing.price) */\n      0x8562eb94748e30bb0071e932744ce902b460c683474fcb3bfd567ffa16b1afb2\n        /* \"venda-multipla.sol\":4243:4250  listing */\n      dup9\n        /* \"venda-multipla.sol\":4243:4256  listing.price */\n      0x03\n      add\n      sload\n        /* \"venda-multipla.sol\":4195:4257  NFTSold(_listingId, listing.seller, msg.sender, listing.price) */\n      mload(0x40)\n      tag_232\n      swap2\n      swap1\n      tag_78\n      jump\t// in\n    tag_232:\n      mload(0x40)\n      dup1\n      swap2\n      sub\n      swap1\n      log4\n        /* \"venda-multipla.sol\":4275:4283  listings */\n      0x08\n        /* \"venda-multipla.sol\":4275:4295  listings[_listingId] */\n      0x00\n        /* \"venda-multipla.sol\":4284:4294  _listingId */\n      dup8\n        /* \"venda-multipla.sol\":4275:4295  listings[_listingId] */\n      dup2\n      mstore\n      0x20\n      add\n      swap1\n      dup2\n      mstore\n      0x20\n      add\n      0x00\n      keccak256\n      0x00\n        /* \"venda-multipla.sol\":4268:4295  delete listings[_listingId] */\n      dup1\n      dup3\n      add\n      exp(0x0100, 0x00)\n      dup2\n      sload\n      swap1\n      0xffffffffffffffffffffffffffffffffffffffff\n      mul\n      not\n      and\n      swap1\n      sstore\n      0x01\n      dup3\n      add\n      0x00\n      tag_233\n      swap2\n      swap1\n      tag_129\n      jump\t// in\n    tag_233:\n      0x02\n      dup3\n      add\n      exp(0x0100, 0x00)\n      dup2\n      sload\n      swap1\n      0xffffffffffffffffffffffffffffffffffffffff\n      mul\n      not\n      and\n      swap1\n      sstore\n      0x03\n      dup3\n      add\n      0x00\n      swap1\n      sstore\n      0x04\n      dup3\n      add\n      0x00\n      swap1\n      sstore\n      pop\n      pop\n        /* \"venda-multipla.sol\":4312:4325  listingOwners */\n      0x09\n        /* \"venda-multipla.sol\":4312:4337  listingOwners[_listingId] */\n      0x00\n        /* \"venda-multipla.sol\":4326:4336  _listingId */\n      dup8\n        /* \"venda-multipla.sol\":4312:4337  listingOwners[_listingId] */\n      dup2\n      mstore\n      0x20\n      add\n      swap1\n      dup2\n      mstore\n      0x20\n      add\n      0x00\n      keccak256\n      0x00\n        /* \"venda-multipla.sol\":4305:4337  delete listingOwners[_listingId] */\n      0x0100\n      exp\n      dup2\n      sload\n      swap1\n      0xffffffffffffffffffffffffffffffffffffffff\n      mul\n      not\n      and\n      swap1\n      sstore\n        /* \"@openzeppelin/contracts/security/ReentrancyGuard.sol\":2292:2293  _ */\n      pop\n      pop\n      pop\n      pop\n      pop\n        /* \"@openzeppelin/contracts/security/ReentrancyGuard.sol\":2303:2323  _nonReentrantAfter() */\n      tag_234\n        /* \"@openzeppelin/contracts/security/ReentrancyGuard.sol\":2303:2321  _nonReentrantAfter */\n      tag_131\n        /* \"@openzeppelin/contracts/security/ReentrancyGuard.sol\":2303:2323  _nonReentrantAfter() */\n      jump\t// in\n    tag_234:\n        /* \"venda-multipla.sol\":2935:4344  function buyNFT(uint256 _listingId) external payable whenNotPaused nonReentrant {... */\n      pop\n      jump\t// out\n        /* \"@openzeppelin/contracts/security/Pausable.sol\":1615:1699  function paused() public view virtual returns (bool) {... */\n    tag_44:\n        /* \"@openzeppelin/contracts/security/Pausable.sol\":1662:1666  bool */\n      0x00\n        /* \"@openzeppelin/contracts/security/Pausable.sol\":1685:1692  _paused */\n      0x02\n      0x00\n      swap1\n      sload\n      swap1\n      0x0100\n      exp\n      swap1\n      div\n      0xff\n      and\n        /* \"@openzeppelin/contracts/security/Pausable.sol\":1678:1692  return _paused */\n      swap1\n      pop\n        /* \"@openzeppelin/contracts/security/Pausable.sol\":1615:1699  function paused() public view virtual returns (bool) {... */\n      swap1\n      jump\t// out\n        /* \"venda-multipla.sol\":4818:5162  function updateFeeAddresses(address _newRoyaltyAddress, address _newPlatformFeeAddress) external onlyOwner nonReentrant {... */\n    tag_51:\n        /* \"@openzeppelin/contracts/access/Ownable.sol\":1094:1107  _checkOwner() */\n      tag_237\n        /* \"@openzeppelin/contracts/access/Ownable.sol\":1094:1105  _checkOwner */\n      tag_134\n        /* \"@openzeppelin/contracts/access/Ownable.sol\":1094:1107  _checkOwner() */\n      jump\t// in\n    tag_237:\n        /* \"@openzeppelin/contracts/security/ReentrancyGuard.sol\":2261:2282  _nonReentrantBefore() */\n      tag_239\n        /* \"@openzeppelin/contracts/security/ReentrancyGuard.sol\":2261:2280  _nonReentrantBefore */\n      tag_123\n        /* \"@openzeppelin/contracts/security/ReentrancyGuard.sol\":2261:2282  _nonReentrantBefore() */\n      jump\t// in\n    tag_239:\n        /* \"venda-multipla.sol\":4986:4987  0 */\n      0x00\n        /* \"venda-multipla.sol\":4956:4988  _newRoyaltyAddress != address(0) */\n      0xffffffffffffffffffffffffffffffffffffffff\n      and\n        /* \"venda-multipla.sol\":4956:4974  _newRoyaltyAddress */\n      dup3\n        /* \"venda-multipla.sol\":4956:4988  _newRoyaltyAddress != address(0) */\n      0xffffffffffffffffffffffffffffffffffffffff\n      and\n      eq\n      iszero\n        /* \"venda-multipla.sol\":4956:5028  _newRoyaltyAddress != address(0) && _newPlatformFeeAddress != address(0) */\n      dup1\n      iszero\n      tag_241\n      jumpi\n      pop\n        /* \"venda-multipla.sol\":5026:5027  0 */\n      0x00\n        /* \"venda-multipla.sol\":4992:5028  _newPlatformFeeAddress != address(0) */\n      0xffffffffffffffffffffffffffffffffffffffff\n      and\n        /* \"venda-multipla.sol\":4992:5014  _newPlatformFeeAddress */\n      dup2\n        /* \"venda-multipla.sol\":4992:5028  _newPlatformFeeAddress != address(0) */\n      0xffffffffffffffffffffffffffffffffffffffff\n      and\n      eq\n      iszero\n        /* \"venda-multipla.sol\":4956:5028  _newRoyaltyAddress != address(0) && _newPlatformFeeAddress != address(0) */\n    tag_241:\n        /* \"venda-multipla.sol\":4948:5057  require(_newRoyaltyAddress != address(0) && _newPlatformFeeAddress != address(0), \"Addresses cannot be zero\") */\n      tag_242\n      jumpi\n      mload(0x40)\n      0x08c379a000000000000000000000000000000000000000000000000000000000\n      dup2\n      mstore\n      0x04\n      add\n      tag_243\n      swap1\n      tag_244\n      jump\t// in\n    tag_243:\n      mload(0x40)\n      dup1\n      swap2\n      sub\n      swap1\n      revert\n    tag_242:\n        /* \"venda-multipla.sol\":5084:5102  _newRoyaltyAddress */\n      dup2\n        /* \"venda-multipla.sol\":5067:5081  royaltyAddress */\n      0x06\n      0x00\n        /* \"venda-multipla.sol\":5067:5102  royaltyAddress = _newRoyaltyAddress */\n      0x0100\n      exp\n      dup2\n      sload\n      dup2\n      0xffffffffffffffffffffffffffffffffffffffff\n      mul\n      not\n      and\n      swap1\n      dup4\n      0xffffffffffffffffffffffffffffffffffffffff\n      and\n      mul\n      or\n      swap1\n      sstore\n      pop\n        /* \"venda-multipla.sol\":5133:5155  _newPlatformFeeAddress */\n      dup1\n        /* \"venda-multipla.sol\":5112:5130  platformFeeAddress */\n      0x07\n      0x00\n        /* \"venda-multipla.sol\":5112:5155  platformFeeAddress = _newPlatformFeeAddress */\n      0x0100\n      exp\n      dup2\n      sload\n      dup2\n      0xffffffffffffffffffffffffffffffffffffffff\n      mul\n      not\n      and\n      swap1\n      dup4\n      0xffffffffffffffffffffffffffffffffffffffff\n      and\n      mul\n      or\n      swap1\n      sstore\n      pop\n        /* \"@openzeppelin/contracts/security/ReentrancyGuard.sol\":2303:2323  _nonReentrantAfter() */\n      tag_245\n        /* \"@openzeppelin/contracts/security/ReentrancyGuard.sol\":2303:2321  _nonReentrantAfter */\n      tag_131\n        /* \"@openzeppelin/contracts/security/ReentrancyGuard.sol\":2303:2323  _nonReentrantAfter() */\n      jump\t// in\n    tag_245:\n        /* \"venda-multipla.sol\":4818:5162  function updateFeeAddresses(address _newRoyaltyAddress, address _newPlatformFeeAddress) external onlyOwner nonReentrant {... */\n      pop\n      pop\n      jump\t// out\n        /* \"@openzeppelin/contracts/access/Ownable.sol\":1824:1925  function renounceOwnership() public virtual onlyOwner {... */\n    tag_54:\n        /* \"@openzeppelin/contracts/access/Ownable.sol\":1094:1107  _checkOwner() */\n      tag_247\n        /* \"@openzeppelin/contracts/access/Ownable.sol\":1094:1105  _checkOwner */\n      tag_134\n        /* \"@openzeppelin/contracts/access/Ownable.sol\":1094:1107  _checkOwner() */\n      jump\t// in\n    tag_247:\n        /* \"@openzeppelin/contracts/access/Ownable.sol\":1888:1918  _transferOwnership(address(0)) */\n      tag_249\n        /* \"@openzeppelin/contracts/access/Ownable.sol\":1915:1916  0 */\n      0x00\n        /* \"@openzeppelin/contracts/access/Ownable.sol\":1888:1906  _transferOwnership */\n      tag_250\n        /* \"@openzeppelin/contracts/access/Ownable.sol\":1888:1918  _transferOwnership(address(0)) */\n      jump\t// in\n    tag_249:\n        /* \"@openzeppelin/contracts/access/Ownable.sol\":1824:1925  function renounceOwnership() public virtual onlyOwner {... */\n      jump\t// out\n        /* \"venda-multipla.sol\":5168:5413  function updateFeePercentages(uint256 _newRoyaltyPercentage, uint256 _newPlatformFeePercentage) external onlyOwner nonReentrant {... */\n    tag_59:\n        /* \"@openzeppelin/contracts/access/Ownable.sol\":1094:1107  _checkOwner() */\n      tag_252\n        /* \"@openzeppelin/contracts/access/Ownable.sol\":1094:1105  _checkOwner */\n      tag_134\n        /* \"@openzeppelin/contracts/access/Ownable.sol\":1094:1107  _checkOwner() */\n      jump\t// in\n    tag_252:\n        /* \"@openzeppelin/contracts/security/ReentrancyGuard.sol\":2261:2282  _nonReentrantBefore() */\n      tag_254\n        /* \"@openzeppelin/contracts/security/ReentrancyGuard.sol\":2261:2280  _nonReentrantBefore */\n      tag_123\n        /* \"@openzeppelin/contracts/security/ReentrancyGuard.sol\":2261:2282  _nonReentrantBefore() */\n      jump\t// in\n    tag_254:\n        /* \"venda-multipla.sol\":5326:5347  _newRoyaltyPercentage */\n      dup2\n        /* \"venda-multipla.sol\":5306:5323  royaltyPercentage */\n      0x04\n        /* \"venda-multipla.sol\":5306:5347  royaltyPercentage = _newRoyaltyPercentage */\n      dup2\n      swap1\n      sstore\n      pop\n        /* \"venda-multipla.sol\":5381:5406  _newPlatformFeePercentage */\n      dup1\n        /* \"venda-multipla.sol\":5357:5378  platformFeePercentage */\n      0x05\n        /* \"venda-multipla.sol\":5357:5406  platformFeePercentage = _newPlatformFeePercentage */\n      dup2\n      swap1\n      sstore\n      pop\n        /* \"@openzeppelin/contracts/security/ReentrancyGuard.sol\":2303:2323  _nonReentrantAfter() */\n      tag_256\n        /* \"@openzeppelin/contracts/security/ReentrancyGuard.sol\":2303:2321  _nonReentrantAfter */\n      tag_131\n        /* \"@openzeppelin/contracts/security/ReentrancyGuard.sol\":2303:2323  _nonReentrantAfter() */\n      jump\t// in\n    tag_256:\n        /* \"venda-multipla.sol\":5168:5413  function updateFeePercentages(uint256 _newRoyaltyPercentage, uint256 _newPlatformFeePercentage) external onlyOwner nonReentrant {... */\n      pop\n      pop\n      jump\t// out\n        /* \"venda-multipla.sol\":963:1011  mapping(uint256 => address) public listingOwners */\n    tag_63:\n      mstore(0x20, 0x09)\n      dup1\n      0x00\n      mstore\n      keccak256(0x00, 0x40)\n      0x00\n      swap2\n      pop\n      sload\n      swap1\n      0x0100\n      exp\n      swap1\n      div\n      0xffffffffffffffffffffffffffffffffffffffff\n      and\n      dup2\n      jump\t// out\n        /* \"venda-multipla.sol\":4654:4728  function pause() external onlyOwner nonReentrant {... */\n    tag_68:\n        /* \"@openzeppelin/contracts/access/Ownable.sol\":1094:1107  _checkOwner() */\n      tag_258\n        /* \"@openzeppelin/contracts/access/Ownable.sol\":1094:1105  _checkOwner */\n      tag_134\n        /* \"@openzeppelin/contracts/access/Ownable.sol\":1094:1107  _checkOwner() */\n      jump\t// in\n    tag_258:\n        /* \"@openzeppelin/contracts/security/ReentrancyGuard.sol\":2261:2282  _nonReentrantBefore() */\n      tag_260\n        /* \"@openzeppelin/contracts/security/ReentrancyGuard.sol\":2261:2280  _nonReentrantBefore */\n      tag_123\n        /* \"@openzeppelin/contracts/security/ReentrancyGuard.sol\":2261:2282  _nonReentrantBefore() */\n      jump\t// in\n    tag_260:\n        /* \"venda-multipla.sol\":4713:4721  _pause() */\n      tag_262\n        /* \"venda-multipla.sol\":4713:4719  _pause */\n      tag_263\n        /* \"venda-multipla.sol\":4713:4721  _pause() */\n      jump\t// in\n    tag_262:\n        /* \"@openzeppelin/contracts/security/ReentrancyGuard.sol\":2303:2323  _nonReentrantAfter() */\n      tag_264\n        /* \"@openzeppelin/contracts/security/ReentrancyGuard.sol\":2303:2321  _nonReentrantAfter */\n      tag_131\n        /* \"@openzeppelin/contracts/security/ReentrancyGuard.sol\":2303:2323  _nonReentrantAfter() */\n      jump\t// in\n    tag_264:\n        /* \"venda-multipla.sol\":4654:4728  function pause() external onlyOwner nonReentrant {... */\n      jump\t// out\n        /* \"venda-multipla.sol\":5419:5528  function getAllListingIds() external view returns (uint256[] memory) {... */\n    tag_71:\n        /* \"venda-multipla.sol\":5470:5486  uint256[] memory */\n      0x60\n        /* \"venda-multipla.sol\":5505:5521  activeListingIds */\n      0x03\n        /* \"venda-multipla.sol\":5498:5521  return activeListingIds */\n      dup1\n      sload\n      dup1\n      0x20\n      mul\n      0x20\n      add\n      mload(0x40)\n      swap1\n      dup2\n      add\n      0x40\n      mstore\n      dup1\n      swap3\n      swap2\n      swap1\n      dup2\n      dup2\n      mstore\n      0x20\n      add\n      dup3\n      dup1\n      sload\n      dup1\n      iszero\n      tag_266\n      jumpi\n      0x20\n      mul\n      dup3\n      add\n      swap2\n      swap1\n      0x00\n      mstore\n      keccak256(0x00, 0x20)\n      swap1\n    tag_267:\n      dup2\n      sload\n      dup2\n      mstore\n      0x20\n      add\n      swap1\n      0x01\n      add\n      swap1\n      dup1\n      dup4\n      gt\n      tag_267\n      jumpi\n    tag_266:\n      pop\n      pop\n      pop\n      pop\n      pop\n      swap1\n      pop\n        /* \"venda-multipla.sol\":5419:5528  function getAllListingIds() external view returns (uint256[] memory) {... */\n      swap1\n      jump\t// out\n        /* \"venda-multipla.sol\":758:790  uint256 public royaltyPercentage */\n    tag_76:\n      sload(0x04)\n      dup2\n      jump\t// out\n        /* \"@openzeppelin/contracts/access/Ownable.sol\":1201:1286  function owner() public view virtual returns (address) {... */\n    tag_81:\n        /* \"@openzeppelin/contracts/access/Ownable.sol\":1247:1254  address */\n      0x00\n        /* \"@openzeppelin/contracts/access/Ownable.sol\":1273:1279  _owner */\n      dup1\n      0x00\n      swap1\n      sload\n      swap1\n      0x0100\n      exp\n      swap1\n      div\n      0xffffffffffffffffffffffffffffffffffffffff\n      and\n        /* \"@openzeppelin/contracts/access/Ownable.sol\":1266:1279  return _owner */\n      swap1\n      pop\n        /* \"@openzeppelin/contracts/access/Ownable.sol\":1201:1286  function owner() public view virtual returns (address) {... */\n      swap1\n      jump\t// out\n        /* \"venda-multipla.sol\":1018:1050  uint256 public nextListingId = 1 */\n    tag_85:\n      sload(0x0a)\n      dup2\n      jump\t// out\n        /* \"venda-multipla.sol\":839:868  address public royaltyAddress */\n    tag_89:\n      0x06\n      0x00\n      swap1\n      sload\n      swap1\n      0x0100\n      exp\n      swap1\n      div\n      0xffffffffffffffffffffffffffffffffffffffff\n      and\n      dup2\n      jump\t// out\n        /* \"venda-multipla.sol\":5534:6307  function getListingInfo(uint256 _listingId) external view returns (TokenInfo[] memory) {... */\n    tag_94:\n        /* \"venda-multipla.sol\":5601:5619  TokenInfo[] memory */\n      0x60\n        /* \"venda-multipla.sol\":5631:5654  Listing storage listing */\n      0x00\n        /* \"venda-multipla.sol\":5657:5665  listings */\n      0x08\n        /* \"venda-multipla.sol\":5657:5677  listings[_listingId] */\n      0x00\n        /* \"venda-multipla.sol\":5666:5676  _listingId */\n      dup5\n        /* \"venda-multipla.sol\":5657:5677  listings[_listingId] */\n      dup2\n      mstore\n      0x20\n      add\n      swap1\n      dup2\n      mstore\n      0x20\n      add\n      0x00\n      keccak256\n        /* \"venda-multipla.sol\":5631:5677  Listing storage listing = listings[_listingId] */\n      swap1\n      pop\n        /* \"venda-multipla.sol\":5721:5722  0 */\n      0x00\n        /* \"venda-multipla.sol\":5695:5723  listing.seller != address(0) */\n      0xffffffffffffffffffffffffffffffffffffffff\n      and\n        /* \"venda-multipla.sol\":5695:5702  listing */\n      dup2\n        /* \"venda-multipla.sol\":5695:5709  listing.seller */\n      0x02\n      add\n      0x00\n      swap1\n      sload\n      swap1\n      0x0100\n      exp\n      swap1\n      div\n      0xffffffffffffffffffffffffffffffffffffffff\n      and\n        /* \"venda-multipla.sol\":5695:5723  listing.seller != address(0) */\n      0xffffffffffffffffffffffffffffffffffffffff\n      and\n      eq\n      iszero\n        /* \"venda-multipla.sol\":5687:5751  require(listing.seller != address(0), \"Listing does not exist.\") */\n      tag_270\n      jumpi\n      mload(0x40)\n      0x08c379a000000000000000000000000000000000000000000000000000000000\n      dup2\n      mstore\n      0x04\n      add\n      tag_271\n      swap1\n      tag_191\n      jump\t// in\n    tag_271:\n      mload(0x40)\n      dup1\n      swap2\n      sub\n      swap1\n      revert\n    tag_270:\n        /* \"venda-multipla.sol\":5762:5795  TokenInfo[] memory tokenInfoArray */\n      0x00\n        /* \"venda-multipla.sol\":5814:5821  listing */\n      dup2\n        /* \"venda-multipla.sol\":5814:5828  listing.nftIds */\n      0x01\n      add\n        /* \"venda-multipla.sol\":5814:5835  listing.nftIds.length */\n      dup1\n      sload\n      swap1\n      pop\n        /* \"venda-multipla.sol\":5798:5836  new TokenInfo[](listing.nftIds.length) */\n      0xffffffffffffffff\n      dup2\n      gt\n      iszero\n      tag_272\n      jumpi\n      mstore(0x00, 0x4e487b7100000000000000000000000000000000000000000000000000000000)\n      mstore(0x04, 0x41)\n      revert(0x00, 0x24)\n    tag_272:\n      mload(0x40)\n      swap1\n      dup1\n      dup3\n      mstore\n      dup1\n      0x20\n      mul\n      0x20\n      add\n      dup3\n      add\n      0x40\n      mstore\n      dup1\n      iszero\n      tag_273\n      jumpi\n      dup2\n      0x20\n      add\n    tag_274:\n      tag_275\n      tag_276\n      jump\t// in\n    tag_275:\n      dup2\n      mstore\n      0x20\n      add\n      swap1\n      0x01\n      swap1\n      sub\n      swap1\n      dup2\n      tag_274\n      jumpi\n      swap1\n      pop\n    tag_273:\n      pop\n        /* \"venda-multipla.sol\":5762:5836  TokenInfo[] memory tokenInfoArray = new TokenInfo[](listing.nftIds.length) */\n      swap1\n      pop\n        /* \"venda-multipla.sol\":5852:5861  uint256 i */\n      0x00\n        /* \"venda-multipla.sol\":5847:6269  for (uint256 i = 0; i < listing.nftIds.length; i++) {... */\n    tag_277:\n        /* \"venda-multipla.sol\":5871:5878  listing */\n      dup3\n        /* \"venda-multipla.sol\":5871:5885  listing.nftIds */\n      0x01\n      add\n        /* \"venda-multipla.sol\":5871:5892  listing.nftIds.length */\n      dup1\n      sload\n      swap1\n      pop\n        /* \"venda-multipla.sol\":5867:5868  i */\n      dup2\n        /* \"venda-multipla.sol\":5867:5892  i < listing.nftIds.length */\n      lt\n        /* \"venda-multipla.sol\":5847:6269  for (uint256 i = 0; i < listing.nftIds.length; i++) {... */\n      iszero\n      tag_278\n      jumpi\n        /* \"venda-multipla.sol\":5913:5927  uint256 _nftId */\n      0x00\n        /* \"venda-multipla.sol\":5930:5937  listing */\n      dup4\n        /* \"venda-multipla.sol\":5930:5944  listing.nftIds */\n      0x01\n      add\n        /* \"venda-multipla.sol\":5945:5946  i */\n      dup3\n        /* \"venda-multipla.sol\":5930:5947  listing.nftIds[i] */\n      dup2\n      sload\n      dup2\n      lt\n      tag_280\n      jumpi\n      mstore(0x00, 0x4e487b7100000000000000000000000000000000000000000000000000000000)\n      mstore(0x04, 0x32)\n      revert(0x00, 0x24)\n    tag_280:\n      swap1\n      0x00\n      mstore\n      keccak256(0x00, 0x20)\n      add\n      sload\n        /* \"venda-multipla.sol\":5913:5947  uint256 _nftId = listing.nftIds[i] */\n      swap1\n      pop\n        /* \"venda-multipla.sol\":5961:5992  string memory tokenMetadataLink */\n      0x00\n        /* \"venda-multipla.sol\":5961:5997  string memory tokenMetadataLink = \"\" */\n      mload(0x40)\n      dup1\n      0x20\n      add\n      0x40\n      mstore\n      dup1\n      0x00\n      dup2\n      mstore\n      pop\n      swap1\n      pop\n        /* \"venda-multipla.sol\":6032:6039  listing */\n      dup5\n        /* \"venda-multipla.sol\":6032:6058  listing.nftContractAddress */\n      0x00\n      add\n      0x00\n      swap1\n      sload\n      swap1\n      0x0100\n      exp\n      swap1\n      div\n      0xffffffffffffffffffffffffffffffffffffffff\n      and\n        /* \"venda-multipla.sol\":6016:6068  IERC721Metadata(listing.nftContractAddress).tokenURI */\n      0xffffffffffffffffffffffffffffffffffffffff\n      and\n      0xc87b56dd\n        /* \"venda-multipla.sol\":6069:6075  _nftId */\n      dup4\n        /* \"venda-multipla.sol\":6016:6076  IERC721Metadata(listing.nftContractAddress).tokenURI(_nftId) */\n      mload(0x40)\n      dup3\n      0xffffffff\n      and\n      0xe0\n      shl\n      dup2\n      mstore\n      0x04\n      add\n      tag_282\n      swap2\n      swap1\n      tag_78\n      jump\t// in\n    tag_282:\n      0x00\n      mload(0x40)\n      dup1\n      dup4\n      sub\n      dup2\n      dup7\n      dup1\n      extcodesize\n      iszero\n      dup1\n      iszero\n      tag_283\n      jumpi\n      0x00\n      dup1\n      revert\n    tag_283:\n      pop\n      gas\n      staticcall\n      swap3\n      pop\n      pop\n      pop\n      dup1\n      iszero\n      tag_284\n      jumpi\n      pop\n      mload(0x40)\n      returndatasize\n      0x00\n      dup3\n      returndatacopy\n      returndatasize\n      not(0x1f)\n      0x1f\n      dup3\n      add\n      and\n      dup3\n      add\n      dup1\n      0x40\n      mstore\n      pop\n      dup2\n      add\n      swap1\n      tag_285\n      swap2\n      swap1\n      tag_286\n      jump\t// in\n    tag_285:\n      0x01\n    tag_284:\n        /* \"venda-multipla.sol\":6012:6188  try IERC721Metadata(listing.nftContractAddress).tokenURI(_nftId) returns (string memory metadataLink) {... */\n      tag_287\n      jumpi\n      jump(tag_290)\n    tag_287:\n        /* \"venda-multipla.sol\":6152:6164  metadataLink */\n      dup1\n        /* \"venda-multipla.sol\":6132:6164  tokenMetadataLink = metadataLink */\n      swap2\n      pop\n        /* \"venda-multipla.sol\":6077:6179  returns (string memory metadataLink) {... */\n      pop\n        /* \"venda-multipla.sol\":6012:6188  try IERC721Metadata(listing.nftContractAddress).tokenURI(_nftId) returns (string memory metadataLink) {... */\n    tag_290:\n        /* \"venda-multipla.sol\":6222:6258  TokenInfo(_nftId, tokenMetadataLink) */\n      mload(0x40)\n      dup1\n      0x40\n      add\n      0x40\n      mstore\n      dup1\n        /* \"venda-multipla.sol\":6232:6238  _nftId */\n      dup4\n        /* \"venda-multipla.sol\":6222:6258  TokenInfo(_nftId, tokenMetadataLink) */\n      dup2\n      mstore\n      0x20\n      add\n        /* \"venda-multipla.sol\":6240:6257  tokenMetadataLink */\n      dup3\n        /* \"venda-multipla.sol\":6222:6258  TokenInfo(_nftId, tokenMetadataLink) */\n      dup2\n      mstore\n      pop\n        /* \"venda-multipla.sol\":6202:6216  tokenInfoArray */\n      dup5\n        /* \"venda-multipla.sol\":6217:6218  i */\n      dup5\n        /* \"venda-multipla.sol\":6202:6219  tokenInfoArray[i] */\n      dup2\n      mload\n      dup2\n      lt\n      tag_291\n      jumpi\n      mstore(0x00, 0x4e487b7100000000000000000000000000000000000000000000000000000000)\n      mstore(0x04, 0x32)\n      revert(0x00, 0x24)\n    tag_291:\n      0x20\n      mul\n      0x20\n      add\n      add\n        /* \"venda-multipla.sol\":6202:6258  tokenInfoArray[i] = TokenInfo(_nftId, tokenMetadataLink) */\n      dup2\n      swap1\n      mstore\n      pop\n        /* \"venda-multipla.sol\":5847:6269  for (uint256 i = 0; i < listing.nftIds.length; i++) {... */\n      pop\n      pop\n        /* \"venda-multipla.sol\":5894:5897  i++ */\n      dup1\n      dup1\n      tag_292\n      swap1\n      tag_170\n      jump\t// in\n    tag_292:\n      swap2\n      pop\n      pop\n        /* \"venda-multipla.sol\":5847:6269  for (uint256 i = 0; i < listing.nftIds.length; i++) {... */\n      jump(tag_277)\n    tag_278:\n      pop\n        /* \"venda-multipla.sol\":6286:6300  tokenInfoArray */\n      dup1\n        /* \"venda-multipla.sol\":6279:6300  return tokenInfoArray */\n      swap3\n      pop\n      pop\n      pop\n        /* \"venda-multipla.sol\":5534:6307  function getListingInfo(uint256 _listingId) external view returns (TokenInfo[] memory) {... */\n      swap2\n      swap1\n      pop\n      jump\t// out\n        /* \"venda-multipla.sol\":796:832  uint256 public platformFeePercentage */\n    tag_99:\n      sload(0x05)\n      dup2\n      jump\t// out\n        /* \"venda-multipla.sol\":914:957  mapping(uint256 => Listing) public listings */\n    tag_104:\n      mstore(0x20, 0x08)\n      dup1\n      0x00\n      mstore\n      keccak256(0x00, 0x40)\n      0x00\n      swap2\n      pop\n      swap1\n      pop\n      dup1\n      0x00\n      add\n      0x00\n      swap1\n      sload\n      swap1\n      0x0100\n      exp\n      swap1\n      div\n      0xffffffffffffffffffffffffffffffffffffffff\n      and\n      swap1\n      dup1\n      0x02\n      add\n      0x00\n      swap1\n      sload\n      swap1\n      0x0100\n      exp\n      swap1\n      div\n      0xffffffffffffffffffffffffffffffffffffffff\n      and\n      swap1\n      dup1\n      0x03\n      add\n      sload\n      swap1\n      dup1\n      0x04\n      add\n      sload\n      swap1\n      pop\n      dup5\n      jump\t// out\n        /* \"venda-multipla.sol\":719:752  uint256[] public activeListingIds */\n    tag_110:\n      0x03\n      dup2\n      dup2\n      sload\n      dup2\n      lt\n      tag_293\n      jumpi\n      0x00\n      dup1\n      revert\n    tag_293:\n      swap1\n      0x00\n      mstore\n      keccak256(0x00, 0x20)\n      add\n      0x00\n      swap2\n      pop\n      swap1\n      pop\n      sload\n      dup2\n      jump\t// out\n        /* \"venda-multipla.sol\":874:907  address public platformFeeAddress */\n    tag_114:\n      0x07\n      0x00\n      swap1\n      sload\n      swap1\n      0x0100\n      exp\n      swap1\n      div\n      0xffffffffffffffffffffffffffffffffffffffff\n      and\n      dup2\n      jump\t// out\n        /* \"@openzeppelin/contracts/access/Ownable.sol\":2074:2272  function transferOwnership(address newOwner) public virtual onlyOwner {... */\n    tag_120:\n        /* \"@openzeppelin/contracts/access/Ownable.sol\":1094:1107  _checkOwner() */\n      tag_296\n        /* \"@openzeppelin/contracts/access/Ownable.sol\":1094:1105  _checkOwner */\n      tag_134\n        /* \"@openzeppelin/contracts/access/Ownable.sol\":1094:1107  _checkOwner() */\n      jump\t// in\n    tag_296:\n        /* \"@openzeppelin/contracts/access/Ownable.sol\":2182:2183  0 */\n      0x00\n        /* \"@openzeppelin/contracts/access/Ownable.sol\":2162:2184  newOwner != address(0) */\n      0xffffffffffffffffffffffffffffffffffffffff\n      and\n        /* \"@openzeppelin/contracts/access/Ownable.sol\":2162:2170  newOwner */\n      dup2\n        /* \"@openzeppelin/contracts/access/Ownable.sol\":2162:2184  newOwner != address(0) */\n      0xffffffffffffffffffffffffffffffffffffffff\n      and\n      eq\n      iszero\n        /* \"@openzeppelin/contracts/access/Ownable.sol\":2154:2227  require(newOwner != address(0), \"Ownable: new owner is the zero address\") */\n      tag_298\n      jumpi\n      mload(0x40)\n      0x08c379a000000000000000000000000000000000000000000000000000000000\n      dup2\n      mstore\n      0x04\n      add\n      tag_299\n      swap1\n      tag_300\n      jump\t// in\n    tag_299:\n      mload(0x40)\n      dup1\n      swap2\n      sub\n      swap1\n      revert\n    tag_298:\n        /* \"@openzeppelin/contracts/access/Ownable.sol\":2237:2265  _transferOwnership(newOwner) */\n      tag_301\n        /* \"@openzeppelin/contracts/access/Ownable.sol\":2256:2264  newOwner */\n      dup2\n        /* \"@openzeppelin/contracts/access/Ownable.sol\":2237:2255  _transferOwnership */\n      tag_250\n        /* \"@openzeppelin/contracts/access/Ownable.sol\":2237:2265  _transferOwnership(newOwner) */\n      jump\t// in\n    tag_301:\n        /* \"@openzeppelin/contracts/access/Ownable.sol\":2074:2272  function transferOwnership(address newOwner) public virtual onlyOwner {... */\n      pop\n      jump\t// out\n        /* \"@openzeppelin/contracts/security/ReentrancyGuard.sol\":2336:2623  function _nonReentrantBefore() private {... */\n    tag_123:\n        /* \"@openzeppelin/contracts/security/ReentrancyGuard.sol\":1759:1760  2 */\n      0x02\n        /* \"@openzeppelin/contracts/security/ReentrancyGuard.sol\":2468:2475  _status */\n      sload(0x01)\n        /* \"@openzeppelin/contracts/security/ReentrancyGuard.sol\":2468:2487  _status != _ENTERED */\n      eq\n      iszero\n        /* \"@openzeppelin/contracts/security/ReentrancyGuard.sol\":2460:2523  require(_status != _ENTERED, \"ReentrancyGuard: reentrant call\") */\n      tag_303\n      jumpi\n      mload(0x40)\n      0x08c379a000000000000000000000000000000000000000000000000000000000\n      dup2\n      mstore\n      0x04\n      add\n      tag_304\n      swap1\n      tag_305\n      jump\t// in\n    tag_304:\n      mload(0x40)\n      dup1\n      swap2\n      sub\n      swap1\n      revert\n    tag_303:\n        /* \"@openzeppelin/contracts/security/ReentrancyGuard.sol\":1759:1760  2 */\n      0x02\n        /* \"@openzeppelin/contracts/security/ReentrancyGuard.sol\":2598:2605  _status */\n      0x01\n        /* \"@openzeppelin/contracts/security/ReentrancyGuard.sol\":2598:2616  _status = _ENTERED */\n      dup2\n      swap1\n      sstore\n      pop\n        /* \"@openzeppelin/contracts/security/ReentrancyGuard.sol\":2336:2623  function _nonReentrantBefore() private {... */\n      jump\t// out\n        /* \"@openzeppelin/contracts/security/ReentrancyGuard.sol\":2629:2838  function _nonReentrantAfter() private {... */\n    tag_131:\n        /* \"@openzeppelin/contracts/security/ReentrancyGuard.sol\":1716:1717  1 */\n      0x01\n        /* \"@openzeppelin/contracts/security/ReentrancyGuard.sol\":2809:2816  _status */\n      dup1\n        /* \"@openzeppelin/contracts/security/ReentrancyGuard.sol\":2809:2831  _status = _NOT_ENTERED */\n      dup2\n      swap1\n      sstore\n      pop\n        /* \"@openzeppelin/contracts/security/ReentrancyGuard.sol\":2629:2838  function _nonReentrantAfter() private {... */\n      jump\t// out\n        /* \"@openzeppelin/contracts/access/Ownable.sol\":1359:1489  function _checkOwner() internal view virtual {... */\n    tag_134:\n        /* \"@openzeppelin/contracts/access/Ownable.sol\":1433:1445  _msgSender() */\n      tag_308\n        /* \"@openzeppelin/contracts/access/Ownable.sol\":1433:1443  _msgSender */\n      tag_309\n        /* \"@openzeppelin/contracts/access/Ownable.sol\":1433:1445  _msgSender() */\n      jump\t// in\n    tag_308:\n        /* \"@openzeppelin/contracts/access/Ownable.sol\":1422:1445  owner() == _msgSender() */\n      0xffffffffffffffffffffffffffffffffffffffff\n      and\n        /* \"@openzeppelin/contracts/access/Ownable.sol\":1422:1429  owner() */\n      tag_310\n        /* \"@openzeppelin/contracts/access/Ownable.sol\":1422:1427  owner */\n      tag_81\n        /* \"@openzeppelin/contracts/access/Ownable.sol\":1422:1429  owner() */\n      jump\t// in\n    tag_310:\n        /* \"@openzeppelin/contracts/access/Ownable.sol\":1422:1445  owner() == _msgSender() */\n      0xffffffffffffffffffffffffffffffffffffffff\n      and\n      eq\n        /* \"@openzeppelin/contracts/access/Ownable.sol\":1414:1482  require(owner() == _msgSender(), \"Ownable: caller is not the owner\") */\n      tag_311\n      jumpi\n      mload(0x40)\n      0x08c379a000000000000000000000000000000000000000000000000000000000\n      dup2\n      mstore\n      0x04\n      add\n      tag_312\n      swap1\n      tag_313\n      jump\t// in\n    tag_312:\n      mload(0x40)\n      dup1\n      swap2\n      sub\n      swap1\n      revert\n    tag_311:\n        /* \"@openzeppelin/contracts/access/Ownable.sol\":1359:1489  function _checkOwner() internal view virtual {... */\n      jump\t// out\n        /* \"@openzeppelin/contracts/security/Pausable.sol\":2433:2550  function _unpause() internal virtual whenPaused {... */\n    tag_139:\n        /* \"@openzeppelin/contracts/security/Pausable.sol\":1486:1502  _requirePaused() */\n      tag_315\n        /* \"@openzeppelin/contracts/security/Pausable.sol\":1486:1500  _requirePaused */\n      tag_316\n        /* \"@openzeppelin/contracts/security/Pausable.sol\":1486:1502  _requirePaused() */\n      jump\t// in\n    tag_315:\n        /* \"@openzeppelin/contracts/security/Pausable.sol\":2501:2506  false */\n      0x00\n        /* \"@openzeppelin/contracts/security/Pausable.sol\":2491:2498  _paused */\n      0x02\n      0x00\n        /* \"@openzeppelin/contracts/security/Pausable.sol\":2491:2506  _paused = false */\n      0x0100\n      exp\n      dup2\n      sload\n      dup2\n      0xff\n      mul\n      not\n      and\n      swap1\n      dup4\n      iszero\n      iszero\n      mul\n      or\n      swap1\n      sstore\n      pop\n        /* \"@openzeppelin/contracts/security/Pausable.sol\":2521:2543  Unpaused(_msgSender()) */\n      0x5db9ee0a495bf2e6ff9c91a7834c1ba4fdd244a5e8aa4e537bd38aeae4b073aa\n        /* \"@openzeppelin/contracts/security/Pausable.sol\":2530:2542  _msgSender() */\n      tag_318\n        /* \"@openzeppelin/contracts/security/Pausable.sol\":2530:2540  _msgSender */\n      tag_309\n        /* \"@openzeppelin/contracts/security/Pausable.sol\":2530:2542  _msgSender() */\n      jump\t// in\n    tag_318:\n        /* \"@openzeppelin/contracts/security/Pausable.sol\":2521:2543  Unpaused(_msgSender()) */\n      mload(0x40)\n      tag_319\n      swap2\n      swap1\n      tag_65\n      jump\t// in\n    tag_319:\n      mload(0x40)\n      dup1\n      swap2\n      sub\n      swap1\n      log1\n        /* \"@openzeppelin/contracts/security/Pausable.sol\":2433:2550  function _unpause() internal virtual whenPaused {... */\n      jump\t// out\n        /* \"@openzeppelin/contracts/security/Pausable.sol\":1767:1873  function _requireNotPaused() internal view virtual {... */\n    tag_143:\n        /* \"@openzeppelin/contracts/security/Pausable.sol\":1837:1845  paused() */\n      tag_321\n        /* \"@openzeppelin/contracts/security/Pausable.sol\":1837:1843  paused */\n      tag_44\n        /* \"@openzeppelin/contracts/security/Pausable.sol\":1837:1845  paused() */\n      jump\t// in\n    tag_321:\n        /* \"@openzeppelin/contracts/security/Pausable.sol\":1836:1845  !paused() */\n      iszero\n        /* \"@openzeppelin/contracts/security/Pausable.sol\":1828:1866  require(!paused(), \"Pausable: paused\") */\n      tag_322\n      jumpi\n      mload(0x40)\n      0x08c379a000000000000000000000000000000000000000000000000000000000\n      dup2\n      mstore\n      0x04\n      add\n      tag_323\n      swap1\n      tag_324\n      jump\t// in\n    tag_323:\n      mload(0x40)\n      dup1\n      swap2\n      sub\n      swap1\n      revert\n    tag_322:\n        /* \"@openzeppelin/contracts/security/Pausable.sol\":1767:1873  function _requireNotPaused() internal view virtual {... */\n      jump\t// out\n        /* \"@openzeppelin/contracts/access/Ownable.sol\":2426:2613  function _transferOwnership(address newOwner) internal virtual {... */\n    tag_250:\n        /* \"@openzeppelin/contracts/access/Ownable.sol\":2499:2515  address oldOwner */\n      0x00\n        /* \"@openzeppelin/contracts/access/Ownable.sol\":2518:2524  _owner */\n      dup1\n      0x00\n      swap1\n      sload\n      swap1\n      0x0100\n      exp\n      swap1\n      div\n      0xffffffffffffffffffffffffffffffffffffffff\n      and\n        /* \"@openzeppelin/contracts/access/Ownable.sol\":2499:2524  address oldOwner = _owner */\n      swap1\n      pop\n        /* \"@openzeppelin/contracts/access/Ownable.sol\":2543:2551  newOwner */\n      dup2\n        /* \"@openzeppelin/contracts/access/Ownable.sol\":2534:2540  _owner */\n      0x00\n      dup1\n        /* \"@openzeppelin/contracts/access/Ownable.sol\":2534:2551  _owner = newOwner */\n      0x0100\n      exp\n      dup2\n      sload\n      dup2\n      0xffffffffffffffffffffffffffffffffffffffff\n      mul\n      not\n      and\n      swap1\n      dup4\n      0xffffffffffffffffffffffffffffffffffffffff\n      and\n      mul\n      or\n      swap1\n      sstore\n      pop\n        /* \"@openzeppelin/contracts/access/Ownable.sol\":2597:2605  newOwner */\n      dup2\n        /* \"@openzeppelin/contracts/access/Ownable.sol\":2566:2606  OwnershipTransferred(oldOwner, newOwner) */\n      0xffffffffffffffffffffffffffffffffffffffff\n      and\n        /* \"@openzeppelin/contracts/access/Ownable.sol\":2587:2595  oldOwner */\n      dup2\n        /* \"@openzeppelin/contracts/access/Ownable.sol\":2566:2606  OwnershipTransferred(oldOwner, newOwner) */\n      0xffffffffffffffffffffffffffffffffffffffff\n      and\n      0x8be0079c531659141344cd1fd0a4f28419497f9722a3daafe3b4186f6b6457e0\n      mload(0x40)\n      mload(0x40)\n      dup1\n      swap2\n      sub\n      swap1\n      log3\n        /* \"@openzeppelin/contracts/access/Ownable.sol\":2426:2613  function _transferOwnership(address newOwner) internal virtual {... */\n      pop\n      pop\n      jump\t// out\n        /* \"@openzeppelin/contracts/security/Pausable.sol\":2186:2301  function _pause() internal virtual whenNotPaused {... */\n    tag_263:\n        /* \"@openzeppelin/contracts/security/Pausable.sol\":1239:1258  _requireNotPaused() */\n      tag_327\n        /* \"@openzeppelin/contracts/security/Pausable.sol\":1239:1256  _requireNotPaused */\n      tag_143\n        /* \"@openzeppelin/contracts/security/Pausable.sol\":1239:1258  _requireNotPaused() */\n      jump\t// in\n    tag_327:\n        /* \"@openzeppelin/contracts/security/Pausable.sol\":2255:2259  true */\n      0x01\n        /* \"@openzeppelin/contracts/security/Pausable.sol\":2245:2252  _paused */\n      0x02\n      0x00\n        /* \"@openzeppelin/contracts/security/Pausable.sol\":2245:2259  _paused = true */\n      0x0100\n      exp\n      dup2\n      sload\n      dup2\n      0xff\n      mul\n      not\n      and\n      swap1\n      dup4\n      iszero\n      iszero\n      mul\n      or\n      swap1\n      sstore\n      pop\n        /* \"@openzeppelin/contracts/security/Pausable.sol\":2274:2294  Paused(_msgSender()) */\n      0x62e78cea01bee320cd4e420270b5ea74000d11b0c9f74754ebdbfc544b05a258\n        /* \"@openzeppelin/contracts/security/Pausable.sol\":2281:2293  _msgSender() */\n      tag_329\n        /* \"@openzeppelin/contracts/security/Pausable.sol\":2281:2291  _msgSender */\n      tag_309\n        /* \"@openzeppelin/contracts/security/Pausable.sol\":2281:2293  _msgSender() */\n      jump\t// in\n    tag_329:\n        /* \"@openzeppelin/contracts/security/Pausable.sol\":2274:2294  Paused(_msgSender()) */\n      mload(0x40)\n      tag_330\n      swap2\n      swap1\n      tag_65\n      jump\t// in\n    tag_330:\n      mload(0x40)\n      dup1\n      swap2\n      sub\n      swap1\n      log1\n        /* \"@openzeppelin/contracts/security/Pausable.sol\":2186:2301  function _pause() internal virtual whenNotPaused {... */\n      jump\t// out\n        /* \"@openzeppelin/contracts/utils/Context.sol\":640:736  function _msgSender() internal view virtual returns (address) {... */\n    tag_309:\n        /* \"@openzeppelin/contracts/utils/Context.sol\":693:700  address */\n      0x00\n        /* \"@openzeppelin/contracts/utils/Context.sol\":719:729  msg.sender */\n      caller\n        /* \"@openzeppelin/contracts/utils/Context.sol\":712:729  return msg.sender */\n      swap1\n      pop\n        /* \"@openzeppelin/contracts/utils/Context.sol\":640:736  function _msgSender() internal view virtual returns (address) {... */\n      swap1\n      jump\t// out\n        /* \"@openzeppelin/contracts/security/Pausable.sol\":1945:2051  function _requirePaused() internal view virtual {... */\n    tag_316:\n        /* \"@openzeppelin/contracts/security/Pausable.sol\":2011:2019  paused() */\n      tag_333\n        /* \"@openzeppelin/contracts/security/Pausable.sol\":2011:2017  paused */\n      tag_44\n        /* \"@openzeppelin/contracts/security/Pausable.sol\":2011:2019  paused() */\n      jump\t// in\n    tag_333:\n        /* \"@openzeppelin/contracts/security/Pausable.sol\":2003:2044  require(paused(), \"Pausable: not paused\") */\n      tag_334\n      jumpi\n      mload(0x40)\n      0x08c379a000000000000000000000000000000000000000000000000000000000\n      dup2\n      mstore\n      0x04\n      add\n      tag_335\n      swap1\n      tag_336\n      jump\t// in\n    tag_335:\n      mload(0x40)\n      dup1\n      swap2\n      sub\n      swap1\n      revert\n    tag_334:\n        /* \"@openzeppelin/contracts/security/Pausable.sol\":1945:2051  function _requirePaused() internal view virtual {... */\n      jump\t// out\n    tag_129:\n      pop\n      dup1\n      sload\n      0x00\n      dup3\n      sstore\n      swap1\n      0x00\n      mstore\n      keccak256(0x00, 0x20)\n      swap1\n      dup2\n      add\n      swap1\n      tag_338\n      swap2\n      swap1\n      tag_339\n      jump\t// in\n    tag_338:\n      pop\n      jump\t// out\n    tag_174:\n      dup3\n      dup1\n      sload\n      dup3\n      dup3\n      sstore\n      swap1\n      0x00\n      mstore\n      keccak256(0x00, 0x20)\n      swap1\n      dup2\n      add\n      swap3\n      dup3\n      iszero\n      tag_340\n      jumpi\n      swap2\n      0x20\n      mul\n      dup3\n      add\n    tag_341:\n      dup3\n      dup2\n      gt\n      iszero\n      tag_342\n      jumpi\n      dup3\n      mload\n      dup3\n      sstore\n      swap2\n      0x20\n      add\n      swap2\n      swap1\n      0x01\n      add\n      swap1\n      jump(tag_341)\n    tag_342:\n    tag_340:\n      pop\n      swap1\n      pop\n      tag_343\n      swap2\n      swap1\n      tag_339\n      jump\t// in\n    tag_343:\n      pop\n      swap1\n      jump\t// out\n    tag_276:\n      mload(0x40)\n      dup1\n      0x40\n      add\n      0x40\n      mstore\n      dup1\n      0x00\n      dup2\n      mstore\n      0x20\n      add\n      0x60\n      dup2\n      mstore\n      pop\n      swap1\n      jump\t// out\n    tag_339:\n    tag_344:\n      dup1\n      dup3\n      gt\n      iszero\n      tag_345\n      jumpi\n      0x00\n      dup2\n      0x00\n      swap1\n      sstore\n      pop\n      0x01\n      add\n      jump(tag_344)\n    tag_345:\n      pop\n      swap1\n      jump\t// out\n        /* \"#utility.yul\":24:646   */\n    tag_347:\n      0x00\n        /* \"#utility.yul\":145:225   */\n      tag_349\n        /* \"#utility.yul\":160:224   */\n      tag_350\n        /* \"#utility.yul\":217:223   */\n      dup5\n        /* \"#utility.yul\":160:224   */\n      tag_351\n      jump\t// in\n    tag_350:\n        /* \"#utility.yul\":145:225   */\n      tag_352\n      jump\t// in\n    tag_349:\n        /* \"#utility.yul\":136:225   */\n      swap1\n      pop\n        /* \"#utility.yul\":245:250   */\n      dup1\n        /* \"#utility.yul\":273:279   */\n      dup4\n        /* \"#utility.yul\":266:271   */\n      dup3\n        /* \"#utility.yul\":259:280   */\n      mstore\n        /* \"#utility.yul\":299:303   */\n      0x20\n        /* \"#utility.yul\":292:297   */\n      dup3\n        /* \"#utility.yul\":288:304   */\n      add\n        /* \"#utility.yul\":281:304   */\n      swap1\n      pop\n        /* \"#utility.yul\":324:330   */\n      dup3\n        /* \"#utility.yul\":374:377   */\n      dup6\n        /* \"#utility.yul\":366:370   */\n      0x20\n        /* \"#utility.yul\":358:364   */\n      dup7\n        /* \"#utility.yul\":354:371   */\n      mul\n        /* \"#utility.yul\":349:352   */\n      dup3\n        /* \"#utility.yul\":345:372   */\n      add\n        /* \"#utility.yul\":342:378   */\n      gt\n        /* \"#utility.yul\":339:341   */\n      iszero\n      tag_353\n      jumpi\n        /* \"#utility.yul\":391:392   */\n      0x00\n        /* \"#utility.yul\":388:389   */\n      dup1\n        /* \"#utility.yul\":381:393   */\n      revert\n        /* \"#utility.yul\":339:341   */\n    tag_353:\n        /* \"#utility.yul\":419:420   */\n      0x00\n        /* \"#utility.yul\":404:640   */\n    tag_354:\n        /* \"#utility.yul\":429:435   */\n      dup6\n        /* \"#utility.yul\":426:427   */\n      dup2\n        /* \"#utility.yul\":423:436   */\n      lt\n        /* \"#utility.yul\":404:640   */\n      iszero\n      tag_356\n      jumpi\n        /* \"#utility.yul\":496:499   */\n      dup2\n        /* \"#utility.yul\":524:561   */\n      tag_357\n        /* \"#utility.yul\":557:560   */\n      dup9\n        /* \"#utility.yul\":545:555   */\n      dup3\n        /* \"#utility.yul\":524:561   */\n      tag_358\n      jump\t// in\n    tag_357:\n        /* \"#utility.yul\":519:522   */\n      dup5\n        /* \"#utility.yul\":512:562   */\n      mstore\n        /* \"#utility.yul\":591:595   */\n      0x20\n        /* \"#utility.yul\":586:589   */\n      dup5\n        /* \"#utility.yul\":582:596   */\n      add\n        /* \"#utility.yul\":575:596   */\n      swap4\n      pop\n        /* \"#utility.yul\":625:629   */\n      0x20\n        /* \"#utility.yul\":620:623   */\n      dup4\n        /* \"#utility.yul\":616:630   */\n      add\n        /* \"#utility.yul\":609:630   */\n      swap3\n      pop\n        /* \"#utility.yul\":464:640   */\n      pop\n        /* \"#utility.yul\":451:452   */\n      0x01\n        /* \"#utility.yul\":448:449   */\n      dup2\n        /* \"#utility.yul\":444:453   */\n      add\n        /* \"#utility.yul\":439:453   */\n      swap1\n      pop\n        /* \"#utility.yul\":404:640   */\n      jump(tag_354)\n    tag_356:\n        /* \"#utility.yul\":408:422   */\n      pop\n        /* \"#utility.yul\":126:646   */\n      pop\n      pop\n      swap4\n      swap3\n      pop\n      pop\n      pop\n      jump\t// out\n        /* \"#utility.yul\":652:1005   */\n    tag_359:\n      0x00\n        /* \"#utility.yul\":766:831   */\n      tag_361\n        /* \"#utility.yul\":781:830   */\n      tag_362\n        /* \"#utility.yul\":823:829   */\n      dup5\n        /* \"#utility.yul\":781:830   */\n      tag_363\n      jump\t// in\n    tag_362:\n        /* \"#utility.yul\":766:831   */\n      tag_352\n      jump\t// in\n    tag_361:\n        /* \"#utility.yul\":757:831   */\n      swap1\n      pop\n        /* \"#utility.yul\":854:860   */\n      dup3\n        /* \"#utility.yul\":847:852   */\n      dup2\n        /* \"#utility.yul\":840:861   */\n      mstore\n        /* \"#utility.yul\":892:896   */\n      0x20\n        /* \"#utility.yul\":885:890   */\n      dup2\n        /* \"#utility.yul\":881:897   */\n      add\n        /* \"#utility.yul\":930:933   */\n      dup5\n        /* \"#utility.yul\":921:927   */\n      dup5\n        /* \"#utility.yul\":916:919   */\n      dup5\n        /* \"#utility.yul\":912:928   */\n      add\n        /* \"#utility.yul\":909:934   */\n      gt\n        /* \"#utility.yul\":906:908   */\n      iszero\n      tag_364\n      jumpi\n        /* \"#utility.yul\":947:948   */\n      0x00\n        /* \"#utility.yul\":944:945   */\n      dup1\n        /* \"#utility.yul\":937:949   */\n      revert\n        /* \"#utility.yul\":906:908   */\n    tag_364:\n        /* \"#utility.yul\":960:999   */\n      tag_365\n        /* \"#utility.yul\":992:998   */\n      dup5\n        /* \"#utility.yul\":987:990   */\n      dup3\n        /* \"#utility.yul\":982:985   */\n      dup6\n        /* \"#utility.yul\":960:999   */\n      tag_366\n      jump\t// in\n    tag_365:\n        /* \"#utility.yul\":747:1005   */\n      pop\n      swap4\n      swap3\n      pop\n      pop\n      pop\n      jump\t// out\n        /* \"#utility.yul\":1011:1150   */\n    tag_367:\n      0x00\n        /* \"#utility.yul\":1095:1101   */\n      dup2\n        /* \"#utility.yul\":1082:1102   */\n      calldataload\n        /* \"#utility.yul\":1073:1102   */\n      swap1\n      pop\n        /* \"#utility.yul\":1111:1144   */\n      tag_369\n        /* \"#utility.yul\":1138:1143   */\n      dup2\n        /* \"#utility.yul\":1111:1144   */\n      tag_370\n      jump\t// in\n    tag_369:\n        /* \"#utility.yul\":1063:1150   */\n      swap3\n      swap2\n      pop\n      pop\n      jump\t// out\n        /* \"#utility.yul\":1156:1299   */\n    tag_371:\n      0x00\n        /* \"#utility.yul\":1244:1250   */\n      dup2\n        /* \"#utility.yul\":1238:1251   */\n      mload\n        /* \"#utility.yul\":1229:1251   */\n      swap1\n      pop\n        /* \"#utility.yul\":1260:1293   */\n      tag_373\n        /* \"#utility.yul\":1287:1292   */\n      dup2\n        /* \"#utility.yul\":1260:1293   */\n      tag_370\n      jump\t// in\n    tag_373:\n        /* \"#utility.yul\":1219:1299   */\n      swap3\n      swap2\n      pop\n      pop\n      jump\t// out\n        /* \"#utility.yul\":1322:1625   */\n    tag_374:\n      0x00\n        /* \"#utility.yul\":1442:1445   */\n      dup3\n        /* \"#utility.yul\":1435:1439   */\n      0x1f\n        /* \"#utility.yul\":1427:1433   */\n      dup4\n        /* \"#utility.yul\":1423:1440   */\n      add\n        /* \"#utility.yul\":1419:1446   */\n      slt\n        /* \"#utility.yul\":1409:1411   */\n      tag_376\n      jumpi\n        /* \"#utility.yul\":1460:1461   */\n      0x00\n        /* \"#utility.yul\":1457:1458   */\n      dup1\n        /* \"#utility.yul\":1450:1462   */\n      revert\n        /* \"#utility.yul\":1409:1411   */\n    tag_376:\n        /* \"#utility.yul\":1500:1506   */\n      dup2\n        /* \"#utility.yul\":1487:1507   */\n      calldataload\n        /* \"#utility.yul\":1525:1619   */\n      tag_377\n        /* \"#utility.yul\":1615:1618   */\n      dup5\n        /* \"#utility.yul\":1607:1613   */\n      dup3\n        /* \"#utility.yul\":1600:1604   */\n      0x20\n        /* \"#utility.yul\":1592:1598   */\n      dup7\n        /* \"#utility.yul\":1588:1605   */\n      add\n        /* \"#utility.yul\":1525:1619   */\n      tag_347\n      jump\t// in\n    tag_377:\n        /* \"#utility.yul\":1516:1619   */\n      swap2\n      pop\n        /* \"#utility.yul\":1399:1625   */\n      pop\n      swap3\n      swap2\n      pop\n      pop\n      jump\t// out\n        /* \"#utility.yul\":1645:1933   */\n    tag_378:\n      0x00\n        /* \"#utility.yul\":1761:1764   */\n      dup3\n        /* \"#utility.yul\":1754:1758   */\n      0x1f\n        /* \"#utility.yul\":1746:1752   */\n      dup4\n        /* \"#utility.yul\":1742:1759   */\n      add\n        /* \"#utility.yul\":1738:1765   */\n      slt\n        /* \"#utility.yul\":1728:1730   */\n      tag_380\n      jumpi\n        /* \"#utility.yul\":1779:1780   */\n      0x00\n        /* \"#utility.yul\":1776:1777   */\n      dup1\n        /* \"#utility.yul\":1769:1781   */\n      revert\n        /* \"#utility.yul\":1728:1730   */\n    tag_380:\n        /* \"#utility.yul\":1812:1818   */\n      dup2\n        /* \"#utility.yul\":1806:1819   */\n      mload\n        /* \"#utility.yul\":1837:1927   */\n      tag_381\n        /* \"#utility.yul\":1923:1926   */\n      dup5\n        /* \"#utility.yul\":1915:1921   */\n      dup3\n        /* \"#utility.yul\":1908:1912   */\n      0x20\n        /* \"#utility.yul\":1900:1906   */\n      dup7\n        /* \"#utility.yul\":1896:1913   */\n      add\n        /* \"#utility.yul\":1837:1927   */\n      tag_359\n      jump\t// in\n    tag_381:\n        /* \"#utility.yul\":1828:1927   */\n      swap2\n      pop\n        /* \"#utility.yul\":1718:1933   */\n      pop\n      swap3\n      swap2\n      pop\n      pop\n      jump\t// out\n        /* \"#utility.yul\":1939:2078   */\n    tag_358:\n      0x00\n        /* \"#utility.yul\":2023:2029   */\n      dup2\n        /* \"#utility.yul\":2010:2030   */\n      calldataload\n        /* \"#utility.yul\":2001:2030   */\n      swap1\n      pop\n        /* \"#utility.yul\":2039:2072   */\n      tag_383\n        /* \"#utility.yul\":2066:2071   */\n      dup2\n        /* \"#utility.yul\":2039:2072   */\n      tag_384\n      jump\t// in\n    tag_383:\n        /* \"#utility.yul\":1991:2078   */\n      swap3\n      swap2\n      pop\n      pop\n      jump\t// out\n        /* \"#utility.yul\":2084:2346   */\n    tag_119:\n      0x00\n        /* \"#utility.yul\":2192:2194   */\n      0x20\n        /* \"#utility.yul\":2180:2189   */\n      dup3\n        /* \"#utility.yul\":2171:2178   */\n      dup5\n        /* \"#utility.yul\":2167:2190   */\n      sub\n        /* \"#utility.yul\":2163:2195   */\n      slt\n        /* \"#utility.yul\":2160:2162   */\n      iszero\n      tag_386\n      jumpi\n        /* \"#utility.yul\":2208:2209   */\n      0x00\n        /* \"#utility.yul\":2205:2206   */\n      dup1\n        /* \"#utility.yul\":2198:2210   */\n      revert\n        /* \"#utility.yul\":2160:2162   */\n    tag_386:\n        /* \"#utility.yul\":2251:2252   */\n      0x00\n        /* \"#utility.yul\":2276:2329   */\n      tag_387\n        /* \"#utility.yul\":2321:2328   */\n      dup5\n        /* \"#utility.yul\":2312:2318   */\n      dup3\n        /* \"#utility.yul\":2301:2310   */\n      dup6\n        /* \"#utility.yul\":2297:2319   */\n      add\n        /* \"#utility.yul\":2276:2329   */\n      tag_367\n      jump\t// in\n    tag_387:\n        /* \"#utility.yul\":2266:2329   */\n      swap2\n      pop\n        /* \"#utility.yul\":2222:2339   */\n      pop\n        /* \"#utility.yul\":2150:2346   */\n      swap3\n      swap2\n      pop\n      pop\n      jump\t// out\n        /* \"#utility.yul\":2352:2636   */\n    tag_165:\n      0x00\n        /* \"#utility.yul\":2471:2473   */\n      0x20\n        /* \"#utility.yul\":2459:2468   */\n      dup3\n        /* \"#utility.yul\":2450:2457   */\n      dup5\n        /* \"#utility.yul\":2446:2469   */\n      sub\n        /* \"#utility.yul\":2442:2474   */\n      slt\n        /* \"#utility.yul\":2439:2441   */\n      iszero\n      tag_389\n      jumpi\n        /* \"#utility.yul\":2487:2488   */\n      0x00\n        /* \"#utility.yul\":2484:2485   */\n      dup1\n        /* \"#utility.yul\":2477:2489   */\n      revert\n        /* \"#utility.yul\":2439:2441   */\n    tag_389:\n        /* \"#utility.yul\":2530:2531   */\n      0x00\n        /* \"#utility.yul\":2555:2619   */\n      tag_390\n        /* \"#utility.yul\":2611:2618   */\n      dup5\n        /* \"#utility.yul\":2602:2608   */\n      dup3\n        /* \"#utility.yul\":2591:2600   */\n      dup6\n        /* \"#utility.yul\":2587:2609   */\n      add\n        /* \"#utility.yul\":2555:2619   */\n      tag_371\n      jump\t// in\n    tag_390:\n        /* \"#utility.yul\":2545:2619   */\n      swap2\n      pop\n        /* \"#utility.yul\":2501:2629   */\n      pop\n        /* \"#utility.yul\":2429:2636   */\n      swap3\n      swap2\n      pop\n      pop\n      jump\t// out\n        /* \"#utility.yul\":2642:3049   */\n    tag_50:\n      0x00\n      dup1\n        /* \"#utility.yul\":2767:2769   */\n      0x40\n        /* \"#utility.yul\":2755:2764   */\n      dup4\n        /* \"#utility.yul\":2746:2753   */\n      dup6\n        /* \"#utility.yul\":2742:2765   */\n      sub\n        /* \"#utility.yul\":2738:2770   */\n      slt\n        /* \"#utility.yul\":2735:2737   */\n      iszero\n      tag_392\n      jumpi\n        /* \"#utility.yul\":2783:2784   */\n      0x00\n        /* \"#utility.yul\":2780:2781   */\n      dup1\n        /* \"#utility.yul\":2773:2785   */\n      revert\n        /* \"#utility.yul\":2735:2737   */\n    tag_392:\n        /* \"#utility.yul\":2826:2827   */\n      0x00\n        /* \"#utility.yul\":2851:2904   */\n      tag_393\n        /* \"#utility.yul\":2896:2903   */\n      dup6\n        /* \"#utility.yul\":2887:2893   */\n      dup3\n        /* \"#utility.yul\":2876:2885   */\n      dup7\n        /* \"#utility.yul\":2872:2894   */\n      add\n        /* \"#utility.yul\":2851:2904   */\n      tag_367\n      jump\t// in\n    tag_393:\n        /* \"#utility.yul\":2841:2904   */\n      swap3\n      pop\n        /* \"#utility.yul\":2797:2914   */\n      pop\n        /* \"#utility.yul\":2953:2955   */\n      0x20\n        /* \"#utility.yul\":2979:3032   */\n      tag_394\n        /* \"#utility.yul\":3024:3031   */\n      dup6\n        /* \"#utility.yul\":3015:3021   */\n      dup3\n        /* \"#utility.yul\":3004:3013   */\n      dup7\n        /* \"#utility.yul\":3000:3022   */\n      add\n        /* \"#utility.yul\":2979:3032   */\n      tag_367\n      jump\t// in\n    tag_394:\n        /* \"#utility.yul\":2969:3032   */\n      swap2\n      pop\n        /* \"#utility.yul\":2924:3042   */\n      pop\n        /* \"#utility.yul\":2725:3049   */\n      swap3\n      pop\n      swap3\n      swap1\n      pop\n      jump\t// out\n        /* \"#utility.yul\":3055:3896   */\n    tag_37:\n      0x00\n      dup1\n      0x00\n      dup1\n        /* \"#utility.yul\":3239:3242   */\n      0x80\n        /* \"#utility.yul\":3227:3236   */\n      dup6\n        /* \"#utility.yul\":3218:3225   */\n      dup8\n        /* \"#utility.yul\":3214:3237   */\n      sub\n        /* \"#utility.yul\":3210:3243   */\n      slt\n        /* \"#utility.yul\":3207:3209   */\n      iszero\n      tag_396\n      jumpi\n        /* \"#utility.yul\":3256:3257   */\n      0x00\n        /* \"#utility.yul\":3253:3254   */\n      dup1\n        /* \"#utility.yul\":3246:3258   */\n      revert\n        /* \"#utility.yul\":3207:3209   */\n    tag_396:\n        /* \"#utility.yul\":3299:3300   */\n      0x00\n        /* \"#utility.yul\":3324:3377   */\n      tag_397\n        /* \"#utility.yul\":3369:3376   */\n      dup8\n        /* \"#utility.yul\":3360:3366   */\n      dup3\n        /* \"#utility.yul\":3349:3358   */\n      dup9\n        /* \"#utility.yul\":3345:3367   */\n      add\n        /* \"#utility.yul\":3324:3377   */\n      tag_367\n      jump\t// in\n    tag_397:\n        /* \"#utility.yul\":3314:3377   */\n      swap5\n      pop\n        /* \"#utility.yul\":3270:3387   */\n      pop\n        /* \"#utility.yul\":3454:3456   */\n      0x20\n        /* \"#utility.yul\":3443:3452   */\n      dup6\n        /* \"#utility.yul\":3439:3457   */\n      add\n        /* \"#utility.yul\":3426:3458   */\n      calldataload\n        /* \"#utility.yul\":3485:3503   */\n      0xffffffffffffffff\n        /* \"#utility.yul\":3477:3483   */\n      dup2\n        /* \"#utility.yul\":3474:3504   */\n      gt\n        /* \"#utility.yul\":3471:3473   */\n      iszero\n      tag_398\n      jumpi\n        /* \"#utility.yul\":3517:3518   */\n      0x00\n        /* \"#utility.yul\":3514:3515   */\n      dup1\n        /* \"#utility.yul\":3507:3519   */\n      revert\n        /* \"#utility.yul\":3471:3473   */\n    tag_398:\n        /* \"#utility.yul\":3545:3623   */\n      tag_399\n        /* \"#utility.yul\":3615:3622   */\n      dup8\n        /* \"#utility.yul\":3606:3612   */\n      dup3\n        /* \"#utility.yul\":3595:3604   */\n      dup9\n        /* \"#utility.yul\":3591:3613   */\n      add\n        /* \"#utility.yul\":3545:3623   */\n      tag_374\n      jump\t// in\n    tag_399:\n        /* \"#utility.yul\":3535:3623   */\n      swap4\n      pop\n        /* \"#utility.yul\":3397:3633   */\n      pop\n        /* \"#utility.yul\":3672:3674   */\n      0x40\n        /* \"#utility.yul\":3698:3751   */\n      tag_400\n        /* \"#utility.yul\":3743:3750   */\n      dup8\n        /* \"#utility.yul\":3734:3740   */\n      dup3\n        /* \"#utility.yul\":3723:3732   */\n      dup9\n        /* \"#utility.yul\":3719:3741   */\n      add\n        /* \"#utility.yul\":3698:3751   */\n      tag_358\n      jump\t// in\n    tag_400:\n        /* \"#utility.yul\":3688:3751   */\n      swap3\n      pop\n        /* \"#utility.yul\":3643:3761   */\n      pop\n        /* \"#utility.yul\":3800:3802   */\n      0x60\n        /* \"#utility.yul\":3826:3879   */\n      tag_401\n        /* \"#utility.yul\":3871:3878   */\n      dup8\n        /* \"#utility.yul\":3862:3868   */\n      dup3\n        /* \"#utility.yul\":3851:3860   */\n      dup9\n        /* \"#utility.yul\":3847:3869   */\n      add\n        /* \"#utility.yul\":3826:3879   */\n      tag_358\n      jump\t// in\n    tag_401:\n        /* \"#utility.yul\":3816:3879   */\n      swap2\n      pop\n        /* \"#utility.yul\":3771:3889   */\n      pop\n        /* \"#utility.yul\":3197:3896   */\n      swap3\n      swap6\n      swap2\n      swap5\n      pop\n      swap3\n      pop\n      jump\t// out\n        /* \"#utility.yul\":3902:4292   */\n    tag_286:\n      0x00\n        /* \"#utility.yul\":4031:4033   */\n      0x20\n        /* \"#utility.yul\":4019:4028   */\n      dup3\n        /* \"#utility.yul\":4010:4017   */\n      dup5\n        /* \"#utility.yul\":4006:4029   */\n      sub\n        /* \"#utility.yul\":4002:4034   */\n      slt\n        /* \"#utility.yul\":3999:4001   */\n      iszero\n      tag_403\n      jumpi\n        /* \"#utility.yul\":4047:4048   */\n      0x00\n        /* \"#utility.yul\":4044:4045   */\n      dup1\n        /* \"#utility.yul\":4037:4049   */\n      revert\n        /* \"#utility.yul\":3999:4001   */\n    tag_403:\n        /* \"#utility.yul\":4111:4112   */\n      0x00\n        /* \"#utility.yul\":4100:4109   */\n      dup3\n        /* \"#utility.yul\":4096:4113   */\n      add\n        /* \"#utility.yul\":4090:4114   */\n      mload\n        /* \"#utility.yul\":4141:4159   */\n      0xffffffffffffffff\n        /* \"#utility.yul\":4133:4139   */\n      dup2\n        /* \"#utility.yul\":4130:4160   */\n      gt\n        /* \"#utility.yul\":4127:4129   */\n      iszero\n      tag_404\n      jumpi\n        /* \"#utility.yul\":4173:4174   */\n      0x00\n        /* \"#utility.yul\":4170:4171   */\n      dup1\n        /* \"#utility.yul\":4163:4175   */\n      revert\n        /* \"#utility.yul\":4127:4129   */\n    tag_404:\n        /* \"#utility.yul\":4201:4275   */\n      tag_405\n        /* \"#utility.yul\":4267:4274   */\n      dup5\n        /* \"#utility.yul\":4258:4264   */\n      dup3\n        /* \"#utility.yul\":4247:4256   */\n      dup6\n        /* \"#utility.yul\":4243:4265   */\n      add\n        /* \"#utility.yul\":4201:4275   */\n      tag_378\n      jump\t// in\n    tag_405:\n        /* \"#utility.yul\":4191:4275   */\n      swap2\n      pop\n        /* \"#utility.yul\":4061:4285   */\n      pop\n        /* \"#utility.yul\":3989:4292   */\n      swap3\n      swap2\n      pop\n      pop\n      jump\t// out\n        /* \"#utility.yul\":4298:4560   */\n    tag_29:\n      0x00\n        /* \"#utility.yul\":4406:4408   */\n      0x20\n        /* \"#utility.yul\":4394:4403   */\n      dup3\n        /* \"#utility.yul\":4385:4392   */\n      dup5\n        /* \"#utility.yul\":4381:4404   */\n      sub\n        /* \"#utility.yul\":4377:4409   */\n      slt\n        /* \"#utility.yul\":4374:4376   */\n      iszero\n      tag_407\n      jumpi\n        /* \"#utility.yul\":4422:4423   */\n      0x00\n        /* \"#utility.yul\":4419:4420   */\n      dup1\n        /* \"#utility.yul\":4412:4424   */\n      revert\n        /* \"#utility.yul\":4374:4376   */\n    tag_407:\n        /* \"#utility.yul\":4465:4466   */\n      0x00\n        /* \"#utility.yul\":4490:4543   */\n      tag_408\n        /* \"#utility.yul\":4535:4542   */\n      dup5\n        /* \"#utility.yul\":4526:4532   */\n      dup3\n        /* \"#utility.yul\":4515:4524   */\n      dup6\n        /* \"#utility.yul\":4511:4533   */\n      add\n        /* \"#utility.yul\":4490:4543   */\n      tag_358\n      jump\t// in\n    tag_408:\n        /* \"#utility.yul\":4480:4543   */\n      swap2\n      pop\n        /* \"#utility.yul\":4436:4553   */\n      pop\n        /* \"#utility.yul\":4364:4560   */\n      swap3\n      swap2\n      pop\n      pop\n      jump\t// out\n        /* \"#utility.yul\":4566:4973   */\n    tag_58:\n      0x00\n      dup1\n        /* \"#utility.yul\":4691:4693   */\n      0x40\n        /* \"#utility.yul\":4679:4688   */\n      dup4\n        /* \"#utility.yul\":4670:4677   */\n      dup6\n        /* \"#utility.yul\":4666:4689   */\n      sub\n        /* \"#utility.yul\":4662:4694   */\n      slt\n        /* \"#utility.yul\":4659:4661   */\n      iszero\n      tag_410\n      jumpi\n        /* \"#utility.yul\":4707:4708   */\n      0x00\n        /* \"#utility.yul\":4704:4705   */\n      dup1\n        /* \"#utility.yul\":4697:4709   */\n      revert\n        /* \"#utility.yul\":4659:4661   */\n    tag_410:\n        /* \"#utility.yul\":4750:4751   */\n      0x00\n        /* \"#utility.yul\":4775:4828   */\n      tag_411\n        /* \"#utility.yul\":4820:4827   */\n      dup6\n        /* \"#utility.yul\":4811:4817   */\n      dup3\n        /* \"#utility.yul\":4800:4809   */\n      dup7\n        /* \"#utility.yul\":4796:4818   */\n      add\n        /* \"#utility.yul\":4775:4828   */\n      tag_358\n      jump\t// in\n    tag_411:\n        /* \"#utility.yul\":4765:4828   */\n      swap3\n      pop\n        /* \"#utility.yul\":4721:4838   */\n      pop\n        /* \"#utility.yul\":4877:4879   */\n      0x20\n        /* \"#utility.yul\":4903:4956   */\n      tag_412\n        /* \"#utility.yul\":4948:4955   */\n      dup6\n        /* \"#utility.yul\":4939:4945   */\n      dup3\n        /* \"#utility.yul\":4928:4937   */\n      dup7\n        /* \"#utility.yul\":4924:4946   */\n      add\n        /* \"#utility.yul\":4903:4956   */\n      tag_358\n      jump\t// in\n    tag_412:\n        /* \"#utility.yul\":4893:4956   */\n      swap2\n      pop\n        /* \"#utility.yul\":4848:4966   */\n      pop\n        /* \"#utility.yul\":4649:4973   */\n      swap3\n      pop\n      swap3\n      swap1\n      pop\n      jump\t// out\n        /* \"#utility.yul\":4979:5239   */\n    tag_413:\n      0x00\n        /* \"#utility.yul\":5135:5233   */\n      tag_415\n        /* \"#utility.yul\":5229:5232   */\n      dup4\n        /* \"#utility.yul\":5221:5227   */\n      dup4\n        /* \"#utility.yul\":5135:5233   */\n      tag_416\n      jump\t// in\n    tag_415:\n        /* \"#utility.yul\":5121:5233   */\n      swap1\n      pop\n        /* \"#utility.yul\":5111:5239   */\n      swap3\n      swap2\n      pop\n      pop\n      jump\t// out\n        /* \"#utility.yul\":5245:5424   */\n    tag_417:\n      0x00\n        /* \"#utility.yul\":5335:5381   */\n      tag_419\n        /* \"#utility.yul\":5377:5380   */\n      dup4\n        /* \"#utility.yul\":5369:5375   */\n      dup4\n        /* \"#utility.yul\":5335:5381   */\n      tag_420\n      jump\t// in\n    tag_419:\n        /* \"#utility.yul\":5413:5417   */\n      0x20\n        /* \"#utility.yul\":5408:5411   */\n      dup4\n        /* \"#utility.yul\":5404:5418   */\n      add\n        /* \"#utility.yul\":5390:5418   */\n      swap1\n      pop\n        /* \"#utility.yul\":5325:5424   */\n      swap3\n      swap2\n      pop\n      pop\n      jump\t// out\n        /* \"#utility.yul\":5430:5548   */\n    tag_421:\n        /* \"#utility.yul\":5517:5541   */\n      tag_423\n        /* \"#utility.yul\":5535:5540   */\n      dup2\n        /* \"#utility.yul\":5517:5541   */\n      tag_424\n      jump\t// in\n    tag_423:\n        /* \"#utility.yul\":5512:5515   */\n      dup3\n        /* \"#utility.yul\":5505:5542   */\n      mstore\n        /* \"#utility.yul\":5495:5548   */\n      pop\n      pop\n      jump\t// out\n        /* \"#utility.yul\":5642:6761   */\n    tag_425:\n      0x00\n        /* \"#utility.yul\":5842:5922   */\n      tag_427\n        /* \"#utility.yul\":5916:5921   */\n      dup3\n        /* \"#utility.yul\":5842:5922   */\n      tag_428\n      jump\t// in\n    tag_427:\n        /* \"#utility.yul\":5938:6050   */\n      tag_429\n        /* \"#utility.yul\":6043:6049   */\n      dup2\n        /* \"#utility.yul\":6038:6041   */\n      dup6\n        /* \"#utility.yul\":5938:6050   */\n      tag_430\n      jump\t// in\n    tag_429:\n        /* \"#utility.yul\":5931:6050   */\n      swap4\n      pop\n        /* \"#utility.yul\":6076:6079   */\n      dup4\n        /* \"#utility.yul\":6121:6125   */\n      0x20\n        /* \"#utility.yul\":6113:6119   */\n      dup3\n        /* \"#utility.yul\":6109:6126   */\n      mul\n        /* \"#utility.yul\":6104:6107   */\n      dup6\n        /* \"#utility.yul\":6100:6127   */\n      add\n        /* \"#utility.yul\":6151:6233   */\n      tag_431\n        /* \"#utility.yul\":6227:6232   */\n      dup6\n        /* \"#utility.yul\":6151:6233   */\n      tag_432\n      jump\t// in\n    tag_431:\n        /* \"#utility.yul\":6256:6263   */\n      dup1\n        /* \"#utility.yul\":6287:6288   */\n      0x00\n        /* \"#utility.yul\":6272:6716   */\n    tag_433:\n        /* \"#utility.yul\":6297:6303   */\n      dup6\n        /* \"#utility.yul\":6294:6295   */\n      dup2\n        /* \"#utility.yul\":6291:6304   */\n      lt\n        /* \"#utility.yul\":6272:6716   */\n      iszero\n      tag_435\n      jumpi\n        /* \"#utility.yul\":6368:6377   */\n      dup5\n        /* \"#utility.yul\":6362:6366   */\n      dup5\n        /* \"#utility.yul\":6358:6378   */\n      sub\n        /* \"#utility.yul\":6353:6356   */\n      dup10\n        /* \"#utility.yul\":6346:6379   */\n      mstore\n        /* \"#utility.yul\":6419:6425   */\n      dup2\n        /* \"#utility.yul\":6413:6426   */\n      mload\n        /* \"#utility.yul\":6447:6563   */\n      tag_436\n        /* \"#utility.yul\":6558:6562   */\n      dup6\n        /* \"#utility.yul\":6543:6556   */\n      dup3\n        /* \"#utility.yul\":6447:6563   */\n      tag_413\n      jump\t// in\n    tag_436:\n        /* \"#utility.yul\":6439:6563   */\n      swap5\n      pop\n        /* \"#utility.yul\":6586:6672   */\n      tag_437\n        /* \"#utility.yul\":6665:6671   */\n      dup4\n        /* \"#utility.yul\":6586:6672   */\n      tag_438\n      jump\t// in\n    tag_437:\n        /* \"#utility.yul\":6576:6672   */\n      swap3\n      pop\n        /* \"#utility.yul\":6701:6705   */\n      0x20\n        /* \"#utility.yul\":6696:6699   */\n      dup11\n        /* \"#utility.yul\":6692:6706   */\n      add\n        /* \"#utility.yul\":6685:6706   */\n      swap10\n      pop\n        /* \"#utility.yul\":6332:6716   */\n      pop\n        /* \"#utility.yul\":6319:6320   */\n      0x01\n        /* \"#utility.yul\":6316:6317   */\n      dup2\n        /* \"#utility.yul\":6312:6321   */\n      add\n        /* \"#utility.yul\":6307:6321   */\n      swap1\n      pop\n        /* \"#utility.yul\":6272:6716   */\n      jump(tag_433)\n    tag_435:\n        /* \"#utility.yul\":6276:6290   */\n      pop\n        /* \"#utility.yul\":6732:6736   */\n      dup3\n        /* \"#utility.yul\":6725:6736   */\n      swap8\n      pop\n        /* \"#utility.yul\":6752:6755   */\n      dup8\n        /* \"#utility.yul\":6745:6755   */\n      swap6\n      pop\n        /* \"#utility.yul\":5818:6761   */\n      pop\n      pop\n      pop\n      pop\n      pop\n      swap3\n      swap2\n      pop\n      pop\n      jump\t// out\n        /* \"#utility.yul\":6797:7529   */\n    tag_439:\n      0x00\n        /* \"#utility.yul\":6945:6999   */\n      tag_441\n        /* \"#utility.yul\":6993:6998   */\n      dup3\n        /* \"#utility.yul\":6945:6999   */\n      tag_442\n      jump\t// in\n    tag_441:\n        /* \"#utility.yul\":7015:7101   */\n      tag_443\n        /* \"#utility.yul\":7094:7100   */\n      dup2\n        /* \"#utility.yul\":7089:7092   */\n      dup6\n        /* \"#utility.yul\":7015:7101   */\n      tag_444\n      jump\t// in\n    tag_443:\n        /* \"#utility.yul\":7008:7101   */\n      swap4\n      pop\n        /* \"#utility.yul\":7125:7181   */\n      tag_445\n        /* \"#utility.yul\":7175:7180   */\n      dup4\n        /* \"#utility.yul\":7125:7181   */\n      tag_446\n      jump\t// in\n    tag_445:\n        /* \"#utility.yul\":7204:7211   */\n      dup1\n        /* \"#utility.yul\":7235:7236   */\n      0x00\n        /* \"#utility.yul\":7220:7504   */\n    tag_447:\n        /* \"#utility.yul\":7245:7251   */\n      dup4\n        /* \"#utility.yul\":7242:7243   */\n      dup2\n        /* \"#utility.yul\":7239:7252   */\n      lt\n        /* \"#utility.yul\":7220:7504   */\n      iszero\n      tag_449\n      jumpi\n        /* \"#utility.yul\":7321:7327   */\n      dup2\n        /* \"#utility.yul\":7315:7328   */\n      mload\n        /* \"#utility.yul\":7348:7411   */\n      tag_450\n        /* \"#utility.yul\":7407:7410   */\n      dup9\n        /* \"#utility.yul\":7392:7405   */\n      dup3\n        /* \"#utility.yul\":7348:7411   */\n      tag_417\n      jump\t// in\n    tag_450:\n        /* \"#utility.yul\":7341:7411   */\n      swap8\n      pop\n        /* \"#utility.yul\":7434:7494   */\n      tag_451\n        /* \"#utility.yul\":7487:7493   */\n      dup4\n        /* \"#utility.yul\":7434:7494   */\n      tag_452\n      jump\t// in\n    tag_451:\n        /* \"#utility.yul\":7424:7494   */\n      swap3\n      pop\n        /* \"#utility.yul\":7280:7504   */\n      pop\n        /* \"#utility.yul\":7267:7268   */\n      0x01\n        /* \"#utility.yul\":7264:7265   */\n      dup2\n        /* \"#utility.yul\":7260:7269   */\n      add\n        /* \"#utility.yul\":7255:7269   */\n      swap1\n      pop\n        /* \"#utility.yul\":7220:7504   */\n      jump(tag_447)\n    tag_449:\n        /* \"#utility.yul\":7224:7238   */\n      pop\n        /* \"#utility.yul\":7520:7523   */\n      dup6\n        /* \"#utility.yul\":7513:7523   */\n      swap4\n      pop\n        /* \"#utility.yul\":6921:7529   */\n      pop\n      pop\n      pop\n      swap3\n      swap2\n      pop\n      pop\n      jump\t// out\n        /* \"#utility.yul\":7535:7644   */\n    tag_453:\n        /* \"#utility.yul\":7616:7637   */\n      tag_455\n        /* \"#utility.yul\":7631:7636   */\n      dup2\n        /* \"#utility.yul\":7616:7637   */\n      tag_456\n      jump\t// in\n    tag_455:\n        /* \"#utility.yul\":7611:7614   */\n      dup3\n        /* \"#utility.yul\":7604:7638   */\n      mstore\n        /* \"#utility.yul\":7594:7644   */\n      pop\n      pop\n      jump\t// out\n        /* \"#utility.yul\":7650:7994   */\n    tag_457:\n      0x00\n        /* \"#utility.yul\":7756:7795   */\n      tag_459\n        /* \"#utility.yul\":7789:7794   */\n      dup3\n        /* \"#utility.yul\":7756:7795   */\n      tag_460\n      jump\t// in\n    tag_459:\n        /* \"#utility.yul\":7811:7872   */\n      tag_461\n        /* \"#utility.yul\":7865:7871   */\n      dup2\n        /* \"#utility.yul\":7860:7863   */\n      dup6\n        /* \"#utility.yul\":7811:7872   */\n      tag_462\n      jump\t// in\n    tag_461:\n        /* \"#utility.yul\":7804:7872   */\n      swap4\n      pop\n        /* \"#utility.yul\":7881:7933   */\n      tag_463\n        /* \"#utility.yul\":7926:7932   */\n      dup2\n        /* \"#utility.yul\":7921:7924   */\n      dup6\n        /* \"#utility.yul\":7914:7918   */\n      0x20\n        /* \"#utility.yul\":7907:7912   */\n      dup7\n        /* \"#utility.yul\":7903:7919   */\n      add\n        /* \"#utility.yul\":7881:7933   */\n      tag_366\n      jump\t// in\n    tag_463:\n        /* \"#utility.yul\":7958:7987   */\n      tag_464\n        /* \"#utility.yul\":7980:7986   */\n      dup2\n        /* \"#utility.yul\":7958:7987   */\n      tag_465\n      jump\t// in\n    tag_464:\n        /* \"#utility.yul\":7953:7956   */\n      dup5\n        /* \"#utility.yul\":7949:7988   */\n      add\n        /* \"#utility.yul\":7942:7988   */\n      swap2\n      pop\n        /* \"#utility.yul\":7732:7994   */\n      pop\n      swap3\n      swap2\n      pop\n      pop\n      jump\t// out\n        /* \"#utility.yul\":8000:8318   */\n    tag_466:\n      0x00\n        /* \"#utility.yul\":8163:8230   */\n      tag_468\n        /* \"#utility.yul\":8227:8229   */\n      0x14\n        /* \"#utility.yul\":8222:8225   */\n      dup4\n        /* \"#utility.yul\":8163:8230   */\n      tag_469\n      jump\t// in\n    tag_468:\n        /* \"#utility.yul\":8156:8230   */\n      swap2\n      pop\n        /* \"#utility.yul\":8260:8282   */\n      0x5061757361626c653a206e6f7420706175736564000000000000000000000000\n        /* \"#utility.yul\":8256:8257   */\n      0x00\n        /* \"#utility.yul\":8251:8254   */\n      dup4\n        /* \"#utility.yul\":8247:8258   */\n      add\n        /* \"#utility.yul\":8240:8283   */\n      mstore\n        /* \"#utility.yul\":8309:8311   */\n      0x20\n        /* \"#utility.yul\":8304:8307   */\n      dup3\n        /* \"#utility.yul\":8300:8312   */\n      add\n        /* \"#utility.yul\":8293:8312   */\n      swap1\n      pop\n        /* \"#utility.yul\":8146:8318   */\n      swap2\n      swap1\n      pop\n      jump\t// out\n        /* \"#utility.yul\":8324:8694   */\n    tag_470:\n      0x00\n        /* \"#utility.yul\":8487:8554   */\n      tag_472\n        /* \"#utility.yul\":8551:8553   */\n      0x26\n        /* \"#utility.yul\":8546:8549   */\n      dup4\n        /* \"#utility.yul\":8487:8554   */\n      tag_469\n      jump\t// in\n    tag_472:\n        /* \"#utility.yul\":8480:8554   */\n      swap2\n      pop\n        /* \"#utility.yul\":8584:8618   */\n      0x53656c6c6572206e6f206c6f6e676572206f776e73206f6e65206f6620746865\n        /* \"#utility.yul\":8580:8581   */\n      0x00\n        /* \"#utility.yul\":8575:8578   */\n      dup4\n        /* \"#utility.yul\":8571:8582   */\n      add\n        /* \"#utility.yul\":8564:8619   */\n      mstore\n        /* \"#utility.yul\":8650:8658   */\n      0x204e4654732e0000000000000000000000000000000000000000000000000000\n        /* \"#utility.yul\":8645:8647   */\n      0x20\n        /* \"#utility.yul\":8640:8643   */\n      dup4\n        /* \"#utility.yul\":8636:8648   */\n      add\n        /* \"#utility.yul\":8629:8659   */\n      mstore\n        /* \"#utility.yul\":8685:8687   */\n      0x40\n        /* \"#utility.yul\":8680:8683   */\n      dup3\n        /* \"#utility.yul\":8676:8688   */\n      add\n        /* \"#utility.yul\":8669:8688   */\n      swap1\n      pop\n        /* \"#utility.yul\":8470:8694   */\n      swap2\n      swap1\n      pop\n      jump\t// out\n        /* \"#utility.yul\":8700:9070   */\n    tag_473:\n      0x00\n        /* \"#utility.yul\":8863:8930   */\n      tag_475\n        /* \"#utility.yul\":8927:8929   */\n      0x26\n        /* \"#utility.yul\":8922:8925   */\n      dup4\n        /* \"#utility.yul\":8863:8930   */\n      tag_469\n      jump\t// in\n    tag_475:\n        /* \"#utility.yul\":8856:8930   */\n      swap2\n      pop\n        /* \"#utility.yul\":8960:8994   */\n      0x4f776e61626c653a206e6577206f776e657220697320746865207a65726f2061\n        /* \"#utility.yul\":8956:8957   */\n      0x00\n        /* \"#utility.yul\":8951:8954   */\n      dup4\n        /* \"#utility.yul\":8947:8958   */\n      add\n        /* \"#utility.yul\":8940:8995   */\n      mstore\n        /* \"#utility.yul\":9026:9034   */\n      0x6464726573730000000000000000000000000000000000000000000000000000\n        /* \"#utility.yul\":9021:9023   */\n      0x20\n        /* \"#utility.yul\":9016:9019   */\n      dup4\n        /* \"#utility.yul\":9012:9024   */\n      add\n        /* \"#utility.yul\":9005:9035   */\n      mstore\n        /* \"#utility.yul\":9061:9063   */\n      0x40\n        /* \"#utility.yul\":9056:9059   */\n      dup3\n        /* \"#utility.yul\":9052:9064   */\n      add\n        /* \"#utility.yul\":9045:9064   */\n      swap1\n      pop\n        /* \"#utility.yul\":8846:9070   */\n      swap2\n      swap1\n      pop\n      jump\t// out\n        /* \"#utility.yul\":9076:9406   */\n    tag_476:\n      0x00\n        /* \"#utility.yul\":9239:9306   */\n      tag_478\n        /* \"#utility.yul\":9303:9305   */\n      0x20\n        /* \"#utility.yul\":9298:9301   */\n      dup4\n        /* \"#utility.yul\":9239:9306   */\n      tag_469\n      jump\t// in\n    tag_478:\n        /* \"#utility.yul\":9232:9306   */\n      swap2\n      pop\n        /* \"#utility.yul\":9336:9370   */\n      0x596f75206d757374206f776e20746865204e465420746f206c6973742069742e\n        /* \"#utility.yul\":9332:9333   */\n      0x00\n        /* \"#utility.yul\":9327:9330   */\n      dup4\n        /* \"#utility.yul\":9323:9334   */\n      add\n        /* \"#utility.yul\":9316:9371   */\n      mstore\n        /* \"#utility.yul\":9397:9399   */\n      0x20\n        /* \"#utility.yul\":9392:9395   */\n      dup3\n        /* \"#utility.yul\":9388:9400   */\n      add\n        /* \"#utility.yul\":9381:9400   */\n      swap1\n      pop\n        /* \"#utility.yul\":9222:9406   */\n      swap2\n      swap1\n      pop\n      jump\t// out\n        /* \"#utility.yul\":9412:9734   */\n    tag_479:\n      0x00\n        /* \"#utility.yul\":9575:9642   */\n      tag_481\n        /* \"#utility.yul\":9639:9641   */\n      0x18\n        /* \"#utility.yul\":9634:9637   */\n      dup4\n        /* \"#utility.yul\":9575:9642   */\n      tag_469\n      jump\t// in\n    tag_481:\n        /* \"#utility.yul\":9568:9642   */\n      swap2\n      pop\n        /* \"#utility.yul\":9672:9698   */\n      0x4164647265737365732063616e6e6f74206265207a65726f0000000000000000\n        /* \"#utility.yul\":9668:9669   */\n      0x00\n        /* \"#utility.yul\":9663:9666   */\n      dup4\n        /* \"#utility.yul\":9659:9670   */\n      add\n        /* \"#utility.yul\":9652:9699   */\n      mstore\n        /* \"#utility.yul\":9725:9727   */\n      0x20\n        /* \"#utility.yul\":9720:9723   */\n      dup3\n        /* \"#utility.yul\":9716:9728   */\n      add\n        /* \"#utility.yul\":9709:9728   */\n      swap1\n      pop\n        /* \"#utility.yul\":9558:9734   */\n      swap2\n      swap1\n      pop\n      jump\t// out\n        /* \"#utility.yul\":9740:10063   */\n    tag_482:\n      0x00\n        /* \"#utility.yul\":9903:9970   */\n      tag_484\n        /* \"#utility.yul\":9967:9969   */\n      0x19\n        /* \"#utility.yul\":9962:9965   */\n      dup4\n        /* \"#utility.yul\":9903:9970   */\n      tag_469\n      jump\t// in\n    tag_484:\n        /* \"#utility.yul\":9896:9970   */\n      swap2\n      pop\n        /* \"#utility.yul\":10000:10027   */\n      0x54686973206c697374696e672068617320657870697265642e00000000000000\n        /* \"#utility.yul\":9996:9997   */\n      0x00\n        /* \"#utility.yul\":9991:9994   */\n      dup4\n        /* \"#utility.yul\":9987:9998   */\n      add\n        /* \"#utility.yul\":9980:10028   */\n      mstore\n        /* \"#utility.yul\":10054:10056   */\n      0x20\n        /* \"#utility.yul\":10049:10052   */\n      dup3\n        /* \"#utility.yul\":10045:10057   */\n      add\n        /* \"#utility.yul\":10038:10057   */\n      swap1\n      pop\n        /* \"#utility.yul\":9886:10063   */\n      swap2\n      swap1\n      pop\n      jump\t// out\n        /* \"#utility.yul\":10069:10447   */\n    tag_485:\n      0x00\n        /* \"#utility.yul\":10232:10299   */\n      tag_487\n        /* \"#utility.yul\":10296:10298   */\n      0x2e\n        /* \"#utility.yul\":10291:10294   */\n      dup4\n        /* \"#utility.yul\":10232:10299   */\n      tag_469\n      jump\t// in\n    tag_487:\n        /* \"#utility.yul\":10225:10299   */\n      swap2\n      pop\n        /* \"#utility.yul\":10329:10363   */\n      0x53656e742076616c7565206d75737420626520657175616c20746f2074686520\n        /* \"#utility.yul\":10325:10326   */\n      0x00\n        /* \"#utility.yul\":10320:10323   */\n      dup4\n        /* \"#utility.yul\":10316:10327   */\n      add\n        /* \"#utility.yul\":10309:10364   */\n      mstore\n        /* \"#utility.yul\":10395:10411   */\n      0x6c697374696e672070726963652e000000000000000000000000000000000000\n        /* \"#utility.yul\":10390:10392   */\n      0x20\n        /* \"#utility.yul\":10385:10388   */\n      dup4\n        /* \"#utility.yul\":10381:10393   */\n      add\n        /* \"#utility.yul\":10374:10412   */\n      mstore\n        /* \"#utility.yul\":10438:10440   */\n      0x40\n        /* \"#utility.yul\":10433:10436   */\n      dup3\n        /* \"#utility.yul\":10429:10441   */\n      add\n        /* \"#utility.yul\":10422:10441   */\n      swap1\n      pop\n        /* \"#utility.yul\":10215:10447   */\n      swap2\n      swap1\n      pop\n      jump\t// out\n        /* \"#utility.yul\":10453:10767   */\n    tag_488:\n      0x00\n        /* \"#utility.yul\":10616:10683   */\n      tag_490\n        /* \"#utility.yul\":10680:10682   */\n      0x10\n        /* \"#utility.yul\":10675:10678   */\n      dup4\n        /* \"#utility.yul\":10616:10683   */\n      tag_469\n      jump\t// in\n    tag_490:\n        /* \"#utility.yul\":10609:10683   */\n      swap2\n      pop\n        /* \"#utility.yul\":10713:10731   */\n      0x5061757361626c653a2070617573656400000000000000000000000000000000\n        /* \"#utility.yul\":10709:10710   */\n      0x00\n        /* \"#utility.yul\":10704:10707   */\n      dup4\n        /* \"#utility.yul\":10700:10711   */\n      add\n        /* \"#utility.yul\":10693:10732   */\n      mstore\n        /* \"#utility.yul\":10758:10760   */\n      0x20\n        /* \"#utility.yul\":10753:10756   */\n      dup3\n        /* \"#utility.yul\":10749:10761   */\n      add\n        /* \"#utility.yul\":10742:10761   */\n      swap1\n      pop\n        /* \"#utility.yul\":10599:10767   */\n      swap2\n      swap1\n      pop\n      jump\t// out\n        /* \"#utility.yul\":10773:11098   */\n    tag_491:\n      0x00\n        /* \"#utility.yul\":10936:11003   */\n      tag_493\n        /* \"#utility.yul\":11000:11002   */\n      0x1b\n        /* \"#utility.yul\":10995:10998   */\n      dup4\n        /* \"#utility.yul\":10936:11003   */\n      tag_469\n      jump\t// in\n    tag_493:\n        /* \"#utility.yul\":10929:11003   */\n      swap2\n      pop\n        /* \"#utility.yul\":11033:11062   */\n      0x4d757374206c697374206174206c65617374206f6e65204e46542e0000000000\n        /* \"#utility.yul\":11029:11030   */\n      0x00\n        /* \"#utility.yul\":11024:11027   */\n      dup4\n        /* \"#utility.yul\":11020:11031   */\n      add\n        /* \"#utility.yul\":11013:11063   */\n      mstore\n        /* \"#utility.yul\":11089:11091   */\n      0x20\n        /* \"#utility.yul\":11084:11087   */\n      dup3\n        /* \"#utility.yul\":11080:11092   */\n      add\n        /* \"#utility.yul\":11073:11092   */\n      swap1\n      pop\n        /* \"#utility.yul\":10919:11098   */\n      swap2\n      swap1\n      pop\n      jump\t// out\n        /* \"#utility.yul\":11104:11473   */\n    tag_494:\n      0x00\n        /* \"#utility.yul\":11267:11334   */\n      tag_496\n        /* \"#utility.yul\":11331:11333   */\n      0x25\n        /* \"#utility.yul\":11326:11329   */\n      dup4\n        /* \"#utility.yul\":11267:11334   */\n      tag_469\n      jump\t// in\n    tag_496:\n        /* \"#utility.yul\":11260:11334   */\n      swap2\n      pop\n        /* \"#utility.yul\":11364:11398   */\n      0x4f6e6c7920746865206c697374696e67206f776e65722063616e2063616e6365\n        /* \"#utility.yul\":11360:11361   */\n      0x00\n        /* \"#utility.yul\":11355:11358   */\n      dup4\n        /* \"#utility.yul\":11351:11362   */\n      add\n        /* \"#utility.yul\":11344:11399   */\n      mstore\n        /* \"#utility.yul\":11430:11437   */\n      0x6c2069742e000000000000000000000000000000000000000000000000000000\n        /* \"#utility.yul\":11425:11427   */\n      0x20\n        /* \"#utility.yul\":11420:11423   */\n      dup4\n        /* \"#utility.yul\":11416:11428   */\n      add\n        /* \"#utility.yul\":11409:11438   */\n      mstore\n        /* \"#utility.yul\":11464:11466   */\n      0x40\n        /* \"#utility.yul\":11459:11462   */\n      dup3\n        /* \"#utility.yul\":11455:11467   */\n      add\n        /* \"#utility.yul\":11448:11467   */\n      swap1\n      pop\n        /* \"#utility.yul\":11250:11473   */\n      swap2\n      swap1\n      pop\n      jump\t// out\n        /* \"#utility.yul\":11479:11800   */\n    tag_497:\n      0x00\n        /* \"#utility.yul\":11642:11709   */\n      tag_499\n        /* \"#utility.yul\":11706:11708   */\n      0x17\n        /* \"#utility.yul\":11701:11704   */\n      dup4\n        /* \"#utility.yul\":11642:11709   */\n      tag_469\n      jump\t// in\n    tag_499:\n        /* \"#utility.yul\":11635:11709   */\n      swap2\n      pop\n        /* \"#utility.yul\":11739:11764   */\n      0x4c697374696e6720646f6573206e6f742065786973742e000000000000000000\n        /* \"#utility.yul\":11735:11736   */\n      0x00\n        /* \"#utility.yul\":11730:11733   */\n      dup4\n        /* \"#utility.yul\":11726:11737   */\n      add\n        /* \"#utility.yul\":11719:11765   */\n      mstore\n        /* \"#utility.yul\":11791:11793   */\n      0x20\n        /* \"#utility.yul\":11786:11789   */\n      dup3\n        /* \"#utility.yul\":11782:11794   */\n      add\n        /* \"#utility.yul\":11775:11794   */\n      swap1\n      pop\n        /* \"#utility.yul\":11625:11800   */\n      swap2\n      swap1\n      pop\n      jump\t// out\n        /* \"#utility.yul\":11806:12136   */\n    tag_500:\n      0x00\n        /* \"#utility.yul\":11969:12036   */\n      tag_502\n        /* \"#utility.yul\":12033:12035   */\n      0x20\n        /* \"#utility.yul\":12028:12031   */\n      dup4\n        /* \"#utility.yul\":11969:12036   */\n      tag_469\n      jump\t// in\n    tag_502:\n        /* \"#utility.yul\":11962:12036   */\n      swap2\n      pop\n        /* \"#utility.yul\":12066:12100   */\n      0x4f776e61626c653a2063616c6c6572206973206e6f7420746865206f776e6572\n        /* \"#utility.yul\":12062:12063   */\n      0x00\n        /* \"#utility.yul\":12057:12060   */\n      dup4\n        /* \"#utility.yul\":12053:12064   */\n      add\n        /* \"#utility.yul\":12046:12101   */\n      mstore\n        /* \"#utility.yul\":12127:12129   */\n      0x20\n        /* \"#utility.yul\":12122:12125   */\n      dup3\n        /* \"#utility.yul\":12118:12130   */\n      add\n        /* \"#utility.yul\":12111:12130   */\n      swap1\n      pop\n        /* \"#utility.yul\":11952:12136   */\n      swap2\n      swap1\n      pop\n      jump\t// out\n        /* \"#utility.yul\":12142:12509   */\n    tag_503:\n      0x00\n        /* \"#utility.yul\":12305:12372   */\n      tag_505\n        /* \"#utility.yul\":12369:12371   */\n      0x23\n        /* \"#utility.yul\":12364:12367   */\n      dup4\n        /* \"#utility.yul\":12305:12372   */\n      tag_469\n      jump\t// in\n    tag_505:\n        /* \"#utility.yul\":12298:12372   */\n      swap2\n      pop\n        /* \"#utility.yul\":12402:12436   */\n      0x446561646c696e65206d7573742062652067726561746572207468616e207a65\n        /* \"#utility.yul\":12398:12399   */\n      0x00\n        /* \"#utility.yul\":12393:12396   */\n      dup4\n        /* \"#utility.yul\":12389:12400   */\n      add\n        /* \"#utility.yul\":12382:12437   */\n      mstore\n        /* \"#utility.yul\":12468:12473   */\n      0x726f2e0000000000000000000000000000000000000000000000000000000000\n        /* \"#utility.yul\":12463:12465   */\n      0x20\n        /* \"#utility.yul\":12458:12461   */\n      dup4\n        /* \"#utility.yul\":12454:12466   */\n      add\n        /* \"#utility.yul\":12447:12474   */\n      mstore\n        /* \"#utility.yul\":12500:12502   */\n      0x40\n        /* \"#utility.yul\":12495:12498   */\n      dup3\n        /* \"#utility.yul\":12491:12503   */\n      add\n        /* \"#utility.yul\":12484:12503   */\n      swap1\n      pop\n        /* \"#utility.yul\":12288:12509   */\n      swap2\n      swap1\n      pop\n      jump\t// out\n        /* \"#utility.yul\":12515:12845   */\n    tag_506:\n      0x00\n        /* \"#utility.yul\":12678:12745   */\n      tag_508\n        /* \"#utility.yul\":12742:12744   */\n      0x20\n        /* \"#utility.yul\":12737:12740   */\n      dup4\n        /* \"#utility.yul\":12678:12745   */\n      tag_469\n      jump\t// in\n    tag_508:\n        /* \"#utility.yul\":12671:12745   */\n      swap2\n      pop\n        /* \"#utility.yul\":12775:12809   */\n      0x5072696365206d7573742062652067726561746572207468616e207a65726f2e\n        /* \"#utility.yul\":12771:12772   */\n      0x00\n        /* \"#utility.yul\":12766:12769   */\n      dup4\n        /* \"#utility.yul\":12762:12773   */\n      add\n        /* \"#utility.yul\":12755:12810   */\n      mstore\n        /* \"#utility.yul\":12836:12838   */\n      0x20\n        /* \"#utility.yul\":12831:12834   */\n      dup3\n        /* \"#utility.yul\":12827:12839   */\n      add\n        /* \"#utility.yul\":12820:12839   */\n      swap1\n      pop\n        /* \"#utility.yul\":12661:12845   */\n      swap2\n      swap1\n      pop\n      jump\t// out\n        /* \"#utility.yul\":12851:13220   */\n    tag_509:\n      0x00\n        /* \"#utility.yul\":13014:13081   */\n      tag_511\n        /* \"#utility.yul\":13078:13080   */\n      0x25\n        /* \"#utility.yul\":13073:13076   */\n      dup4\n        /* \"#utility.yul\":13014:13081   */\n      tag_469\n      jump\t// in\n    tag_511:\n        /* \"#utility.yul\":13007:13081   */\n      swap2\n      pop\n        /* \"#utility.yul\":13111:13145   */\n      0x53656e742076616c7565206d7573742062652067726561746572207468616e20\n        /* \"#utility.yul\":13107:13108   */\n      0x00\n        /* \"#utility.yul\":13102:13105   */\n      dup4\n        /* \"#utility.yul\":13098:13109   */\n      add\n        /* \"#utility.yul\":13091:13146   */\n      mstore\n        /* \"#utility.yul\":13177:13184   */\n      0x7a65726f2e000000000000000000000000000000000000000000000000000000\n        /* \"#utility.yul\":13172:13174   */\n      0x20\n        /* \"#utility.yul\":13167:13170   */\n      dup4\n        /* \"#utility.yul\":13163:13175   */\n      add\n        /* \"#utility.yul\":13156:13185   */\n      mstore\n        /* \"#utility.yul\":13211:13213   */\n      0x40\n        /* \"#utility.yul\":13206:13209   */\n      dup3\n        /* \"#utility.yul\":13202:13214   */\n      add\n        /* \"#utility.yul\":13195:13214   */\n      swap1\n      pop\n        /* \"#utility.yul\":12997:13220   */\n      swap2\n      swap1\n      pop\n      jump\t// out\n        /* \"#utility.yul\":13226:13555   */\n    tag_512:\n      0x00\n        /* \"#utility.yul\":13389:13456   */\n      tag_514\n        /* \"#utility.yul\":13453:13455   */\n      0x1f\n        /* \"#utility.yul\":13448:13451   */\n      dup4\n        /* \"#utility.yul\":13389:13456   */\n      tag_469\n      jump\t// in\n    tag_514:\n        /* \"#utility.yul\":13382:13456   */\n      swap2\n      pop\n        /* \"#utility.yul\":13486:13519   */\n      0x5265656e7472616e637947756172643a207265656e7472616e742063616c6c00\n        /* \"#utility.yul\":13482:13483   */\n      0x00\n        /* \"#utility.yul\":13477:13480   */\n      dup4\n        /* \"#utility.yul\":13473:13484   */\n      add\n        /* \"#utility.yul\":13466:13520   */\n      mstore\n        /* \"#utility.yul\":13546:13548   */\n      0x20\n        /* \"#utility.yul\":13541:13544   */\n      dup3\n        /* \"#utility.yul\":13537:13549   */\n      add\n        /* \"#utility.yul\":13530:13549   */\n      swap1\n      pop\n        /* \"#utility.yul\":13372:13555   */\n      swap2\n      swap1\n      pop\n      jump\t// out\n        /* \"#utility.yul\":13645:14254   */\n    tag_416:\n      0x00\n        /* \"#utility.yul\":13792:13796   */\n      0x40\n        /* \"#utility.yul\":13787:13790   */\n      dup4\n        /* \"#utility.yul\":13783:13797   */\n      add\n        /* \"#utility.yul\":13882:13886   */\n      0x00\n        /* \"#utility.yul\":13875:13880   */\n      dup4\n        /* \"#utility.yul\":13871:13887   */\n      add\n        /* \"#utility.yul\":13865:13888   */\n      mload\n        /* \"#utility.yul\":13901:13964   */\n      tag_516\n        /* \"#utility.yul\":13958:13962   */\n      0x00\n        /* \"#utility.yul\":13953:13956   */\n      dup7\n        /* \"#utility.yul\":13949:13963   */\n      add\n        /* \"#utility.yul\":13935:13947   */\n      dup3\n        /* \"#utility.yul\":13901:13964   */\n      tag_420\n      jump\t// in\n    tag_516:\n        /* \"#utility.yul\":13807:13974   */\n      pop\n        /* \"#utility.yul\":14064:14068   */\n      0x20\n        /* \"#utility.yul\":14057:14062   */\n      dup4\n        /* \"#utility.yul\":14053:14069   */\n      add\n        /* \"#utility.yul\":14047:14070   */\n      mload\n        /* \"#utility.yul\":14117:14120   */\n      dup5\n        /* \"#utility.yul\":14111:14115   */\n      dup3\n        /* \"#utility.yul\":14107:14121   */\n      sub\n        /* \"#utility.yul\":14100:14104   */\n      0x20\n        /* \"#utility.yul\":14095:14098   */\n      dup7\n        /* \"#utility.yul\":14091:14105   */\n      add\n        /* \"#utility.yul\":14084:14122   */\n      mstore\n        /* \"#utility.yul\":14143:14216   */\n      tag_517\n        /* \"#utility.yul\":14211:14215   */\n      dup3\n        /* \"#utility.yul\":14197:14209   */\n      dup3\n        /* \"#utility.yul\":14143:14216   */\n      tag_457\n      jump\t// in\n    tag_517:\n        /* \"#utility.yul\":14135:14216   */\n      swap2\n      pop\n        /* \"#utility.yul\":13984:14227   */\n      pop\n        /* \"#utility.yul\":14244:14248   */\n      dup1\n        /* \"#utility.yul\":14237:14248   */\n      swap2\n      pop\n        /* \"#utility.yul\":13761:14254   */\n      pop\n      swap3\n      swap2\n      pop\n      pop\n      jump\t// out\n        /* \"#utility.yul\":14260:14368   */\n    tag_420:\n        /* \"#utility.yul\":14337:14361   */\n      tag_519\n        /* \"#utility.yul\":14355:14360   */\n      dup2\n        /* \"#utility.yul\":14337:14361   */\n      tag_520\n      jump\t// in\n    tag_519:\n        /* \"#utility.yul\":14332:14335   */\n      dup3\n        /* \"#utility.yul\":14325:14362   */\n      mstore\n        /* \"#utility.yul\":14315:14368   */\n      pop\n      pop\n      jump\t// out\n        /* \"#utility.yul\":14374:14492   */\n    tag_521:\n        /* \"#utility.yul\":14461:14485   */\n      tag_523\n        /* \"#utility.yul\":14479:14484   */\n      dup2\n        /* \"#utility.yul\":14461:14485   */\n      tag_520\n      jump\t// in\n    tag_523:\n        /* \"#utility.yul\":14456:14459   */\n      dup3\n        /* \"#utility.yul\":14449:14486   */\n      mstore\n        /* \"#utility.yul\":14439:14492   */\n      pop\n      pop\n      jump\t// out\n        /* \"#utility.yul\":14498:14720   */\n    tag_65:\n      0x00\n        /* \"#utility.yul\":14629:14631   */\n      0x20\n        /* \"#utility.yul\":14618:14627   */\n      dup3\n        /* \"#utility.yul\":14614:14632   */\n      add\n        /* \"#utility.yul\":14606:14632   */\n      swap1\n      pop\n        /* \"#utility.yul\":14642:14713   */\n      tag_525\n        /* \"#utility.yul\":14710:14711   */\n      0x00\n        /* \"#utility.yul\":14699:14708   */\n      dup4\n        /* \"#utility.yul\":14695:14712   */\n      add\n        /* \"#utility.yul\":14686:14692   */\n      dup5\n        /* \"#utility.yul\":14642:14713   */\n      tag_421\n      jump\t// in\n    tag_525:\n        /* \"#utility.yul\":14596:14720   */\n      swap3\n      swap2\n      pop\n      pop\n      jump\t// out\n        /* \"#utility.yul\":14726:15168   */\n    tag_221:\n      0x00\n        /* \"#utility.yul\":14913:14915   */\n      0x60\n        /* \"#utility.yul\":14902:14911   */\n      dup3\n        /* \"#utility.yul\":14898:14916   */\n      add\n        /* \"#utility.yul\":14890:14916   */\n      swap1\n      pop\n        /* \"#utility.yul\":14926:14997   */\n      tag_527\n        /* \"#utility.yul\":14994:14995   */\n      0x00\n        /* \"#utility.yul\":14983:14992   */\n      dup4\n        /* \"#utility.yul\":14979:14996   */\n      add\n        /* \"#utility.yul\":14970:14976   */\n      dup7\n        /* \"#utility.yul\":14926:14997   */\n      tag_421\n      jump\t// in\n    tag_527:\n        /* \"#utility.yul\":15007:15079   */\n      tag_528\n        /* \"#utility.yul\":15075:15077   */\n      0x20\n        /* \"#utility.yul\":15064:15073   */\n      dup4\n        /* \"#utility.yul\":15060:15078   */\n      add\n        /* \"#utility.yul\":15051:15057   */\n      dup6\n        /* \"#utility.yul\":15007:15079   */\n      tag_421\n      jump\t// in\n    tag_528:\n        /* \"#utility.yul\":15089:15161   */\n      tag_529\n        /* \"#utility.yul\":15157:15159   */\n      0x40\n        /* \"#utility.yul\":15146:15155   */\n      dup4\n        /* \"#utility.yul\":15142:15160   */\n      add\n        /* \"#utility.yul\":15133:15139   */\n      dup5\n        /* \"#utility.yul\":15089:15161   */\n      tag_521\n      jump\t// in\n    tag_529:\n        /* \"#utility.yul\":14880:15168   */\n      swap5\n      swap4\n      pop\n      pop\n      pop\n      pop\n      jump\t// out\n        /* \"#utility.yul\":15174:15727   */\n    tag_106:\n      0x00\n        /* \"#utility.yul\":15389:15392   */\n      0x80\n        /* \"#utility.yul\":15378:15387   */\n      dup3\n        /* \"#utility.yul\":15374:15393   */\n      add\n        /* \"#utility.yul\":15366:15393   */\n      swap1\n      pop\n        /* \"#utility.yul\":15403:15474   */\n      tag_531\n        /* \"#utility.yul\":15471:15472   */\n      0x00\n        /* \"#utility.yul\":15460:15469   */\n      dup4\n        /* \"#utility.yul\":15456:15473   */\n      add\n        /* \"#utility.yul\":15447:15453   */\n      dup8\n        /* \"#utility.yul\":15403:15474   */\n      tag_421\n      jump\t// in\n    tag_531:\n        /* \"#utility.yul\":15484:15556   */\n      tag_532\n        /* \"#utility.yul\":15552:15554   */\n      0x20\n        /* \"#utility.yul\":15541:15550   */\n      dup4\n        /* \"#utility.yul\":15537:15555   */\n      add\n        /* \"#utility.yul\":15528:15534   */\n      dup7\n        /* \"#utility.yul\":15484:15556   */\n      tag_421\n      jump\t// in\n    tag_532:\n        /* \"#utility.yul\":15566:15638   */\n      tag_533\n        /* \"#utility.yul\":15634:15636   */\n      0x40\n        /* \"#utility.yul\":15623:15632   */\n      dup4\n        /* \"#utility.yul\":15619:15637   */\n      add\n        /* \"#utility.yul\":15610:15616   */\n      dup6\n        /* \"#utility.yul\":15566:15638   */\n      tag_521\n      jump\t// in\n    tag_533:\n        /* \"#utility.yul\":15648:15720   */\n      tag_534\n        /* \"#utility.yul\":15716:15718   */\n      0x60\n        /* \"#utility.yul\":15705:15714   */\n      dup4\n        /* \"#utility.yul\":15701:15719   */\n      add\n        /* \"#utility.yul\":15692:15698   */\n      dup5\n        /* \"#utility.yul\":15648:15720   */\n      tag_521\n      jump\t// in\n    tag_534:\n        /* \"#utility.yul\":15356:15727   */\n      swap6\n      swap5\n      pop\n      pop\n      pop\n      pop\n      pop\n      jump\t// out\n        /* \"#utility.yul\":15733:16210   */\n    tag_96:\n      0x00\n        /* \"#utility.yul\":15966:15968   */\n      0x20\n        /* \"#utility.yul\":15955:15964   */\n      dup3\n        /* \"#utility.yul\":15951:15969   */\n      add\n        /* \"#utility.yul\":15943:15969   */\n      swap1\n      pop\n        /* \"#utility.yul\":16015:16024   */\n      dup2\n        /* \"#utility.yul\":16009:16013   */\n      dup2\n        /* \"#utility.yul\":16005:16025   */\n      sub\n        /* \"#utility.yul\":16001:16002   */\n      0x00\n        /* \"#utility.yul\":15990:15999   */\n      dup4\n        /* \"#utility.yul\":15986:16003   */\n      add\n        /* \"#utility.yul\":15979:16026   */\n      mstore\n        /* \"#utility.yul\":16043:16203   */\n      tag_536\n        /* \"#utility.yul\":16198:16202   */\n      dup2\n        /* \"#utility.yul\":16189:16195   */\n      dup5\n        /* \"#utility.yul\":16043:16203   */\n      tag_425\n      jump\t// in\n    tag_536:\n        /* \"#utility.yul\":16035:16203   */\n      swap1\n      pop\n        /* \"#utility.yul\":15933:16210   */\n      swap3\n      swap2\n      pop\n      pop\n      jump\t// out\n        /* \"#utility.yul\":16216:16589   */\n    tag_73:\n      0x00\n        /* \"#utility.yul\":16397:16399   */\n      0x20\n        /* \"#utility.yul\":16386:16395   */\n      dup3\n        /* \"#utility.yul\":16382:16400   */\n      add\n        /* \"#utility.yul\":16374:16400   */\n      swap1\n      pop\n        /* \"#utility.yul\":16446:16455   */\n      dup2\n        /* \"#utility.yul\":16440:16444   */\n      dup2\n        /* \"#utility.yul\":16436:16456   */\n      sub\n        /* \"#utility.yul\":16432:16433   */\n      0x00\n        /* \"#utility.yul\":16421:16430   */\n      dup4\n        /* \"#utility.yul\":16417:16434   */\n      add\n        /* \"#utility.yul\":16410:16457   */\n      mstore\n        /* \"#utility.yul\":16474:16582   */\n      tag_538\n        /* \"#utility.yul\":16577:16581   */\n      dup2\n        /* \"#utility.yul\":16568:16574   */\n      dup5\n        /* \"#utility.yul\":16474:16582   */\n      tag_439\n      jump\t// in\n    tag_538:\n        /* \"#utility.yul\":16466:16582   */\n      swap1\n      pop\n        /* \"#utility.yul\":16364:16589   */\n      swap3\n      swap2\n      pop\n      pop\n      jump\t// out\n        /* \"#utility.yul\":16595:17188   */\n    tag_178:\n      0x00\n        /* \"#utility.yul\":16832:16834   */\n      0x60\n        /* \"#utility.yul\":16821:16830   */\n      dup3\n        /* \"#utility.yul\":16817:16835   */\n      add\n        /* \"#utility.yul\":16809:16835   */\n      swap1\n      pop\n        /* \"#utility.yul\":16881:16890   */\n      dup2\n        /* \"#utility.yul\":16875:16879   */\n      dup2\n        /* \"#utility.yul\":16871:16891   */\n      sub\n        /* \"#utility.yul\":16867:16868   */\n      0x00\n        /* \"#utility.yul\":16856:16865   */\n      dup4\n        /* \"#utility.yul\":16852:16869   */\n      add\n        /* \"#utility.yul\":16845:16892   */\n      mstore\n        /* \"#utility.yul\":16909:17017   */\n      tag_540\n        /* \"#utility.yul\":17012:17016   */\n      dup2\n        /* \"#utility.yul\":17003:17009   */\n      dup7\n        /* \"#utility.yul\":16909:17017   */\n      tag_439\n      jump\t// in\n    tag_540:\n        /* \"#utility.yul\":16901:17017   */\n      swap1\n      pop\n        /* \"#utility.yul\":17027:17099   */\n      tag_541\n        /* \"#utility.yul\":17095:17097   */\n      0x20\n        /* \"#utility.yul\":17084:17093   */\n      dup4\n        /* \"#utility.yul\":17080:17098   */\n      add\n        /* \"#utility.yul\":17071:17077   */\n      dup6\n        /* \"#utility.yul\":17027:17099   */\n      tag_521\n      jump\t// in\n    tag_541:\n        /* \"#utility.yul\":17109:17181   */\n      tag_542\n        /* \"#utility.yul\":17177:17179   */\n      0x40\n        /* \"#utility.yul\":17166:17175   */\n      dup4\n        /* \"#utility.yul\":17162:17180   */\n      add\n        /* \"#utility.yul\":17153:17159   */\n      dup5\n        /* \"#utility.yul\":17109:17181   */\n      tag_521\n      jump\t// in\n    tag_542:\n        /* \"#utility.yul\":16799:17188   */\n      swap5\n      swap4\n      pop\n      pop\n      pop\n      pop\n      jump\t// out\n        /* \"#utility.yul\":17194:17404   */\n    tag_46:\n      0x00\n        /* \"#utility.yul\":17319:17321   */\n      0x20\n        /* \"#utility.yul\":17308:17317   */\n      dup3\n        /* \"#utility.yul\":17304:17322   */\n      add\n        /* \"#utility.yul\":17296:17322   */\n      swap1\n      pop\n        /* \"#utility.yul\":17332:17397   */\n      tag_544\n        /* \"#utility.yul\":17394:17395   */\n      0x00\n        /* \"#utility.yul\":17383:17392   */\n      dup4\n        /* \"#utility.yul\":17379:17396   */\n      add\n        /* \"#utility.yul\":17370:17376   */\n      dup5\n        /* \"#utility.yul\":17332:17397   */\n      tag_453\n      jump\t// in\n    tag_544:\n        /* \"#utility.yul\":17286:17404   */\n      swap3\n      swap2\n      pop\n      pop\n      jump\t// out\n        /* \"#utility.yul\":17410:17829   */\n    tag_336:\n      0x00\n        /* \"#utility.yul\":17614:17616   */\n      0x20\n        /* \"#utility.yul\":17603:17612   */\n      dup3\n        /* \"#utility.yul\":17599:17617   */\n      add\n        /* \"#utility.yul\":17591:17617   */\n      swap1\n      pop\n        /* \"#utility.yul\":17663:17672   */\n      dup2\n        /* \"#utility.yul\":17657:17661   */\n      dup2\n        /* \"#utility.yul\":17653:17673   */\n      sub\n        /* \"#utility.yul\":17649:17650   */\n      0x00\n        /* \"#utility.yul\":17638:17647   */\n      dup4\n        /* \"#utility.yul\":17634:17651   */\n      add\n        /* \"#utility.yul\":17627:17674   */\n      mstore\n        /* \"#utility.yul\":17691:17822   */\n      tag_546\n        /* \"#utility.yul\":17817:17821   */\n      dup2\n        /* \"#utility.yul\":17691:17822   */\n      tag_466\n      jump\t// in\n    tag_546:\n        /* \"#utility.yul\":17683:17822   */\n      swap1\n      pop\n        /* \"#utility.yul\":17581:17829   */\n      swap2\n      swap1\n      pop\n      jump\t// out\n        /* \"#utility.yul\":17835:18254   */\n    tag_219:\n      0x00\n        /* \"#utility.yul\":18039:18041   */\n      0x20\n        /* \"#utility.yul\":18028:18037   */\n      dup3\n        /* \"#utility.yul\":18024:18042   */\n      add\n        /* \"#utility.yul\":18016:18042   */\n      swap1\n      pop\n        /* \"#utility.yul\":18088:18097   */\n      dup2\n        /* \"#utility.yul\":18082:18086   */\n      dup2\n        /* \"#utility.yul\":18078:18098   */\n      sub\n        /* \"#utility.yul\":18074:18075   */\n      0x00\n        /* \"#utility.yul\":18063:18072   */\n      dup4\n        /* \"#utility.yul\":18059:18076   */\n      add\n        /* \"#utility.yul\":18052:18099   */\n      mstore\n        /* \"#utility.yul\":18116:18247   */\n      tag_548\n        /* \"#utility.yul\":18242:18246   */\n      dup2\n        /* \"#utility.yul\":18116:18247   */\n      tag_470\n      jump\t// in\n    tag_548:\n        /* \"#utility.yul\":18108:18247   */\n      swap1\n      pop\n        /* \"#utility.yul\":18006:18254   */\n      swap2\n      swap1\n      pop\n      jump\t// out\n        /* \"#utility.yul\":18260:18679   */\n    tag_300:\n      0x00\n        /* \"#utility.yul\":18464:18466   */\n      0x20\n        /* \"#utility.yul\":18453:18462   */\n      dup3\n        /* \"#utility.yul\":18449:18467   */\n      add\n        /* \"#utility.yul\":18441:18467   */\n      swap1\n      pop\n        /* \"#utility.yul\":18513:18522   */\n      dup2\n        /* \"#utility.yul\":18507:18511   */\n      dup2\n        /* \"#utility.yul\":18503:18523   */\n      sub\n        /* \"#utility.yul\":18499:18500   */\n      0x00\n        /* \"#utility.yul\":18488:18497   */\n      dup4\n        /* \"#utility.yul\":18484:18501   */\n      add\n        /* \"#utility.yul\":18477:18524   */\n      mstore\n        /* \"#utility.yul\":18541:18672   */\n      tag_550\n        /* \"#utility.yul\":18667:18671   */\n      dup2\n        /* \"#utility.yul\":18541:18672   */\n      tag_473\n      jump\t// in\n    tag_550:\n        /* \"#utility.yul\":18533:18672   */\n      swap1\n      pop\n        /* \"#utility.yul\":18431:18679   */\n      swap2\n      swap1\n      pop\n      jump\t// out\n        /* \"#utility.yul\":18685:19104   */\n    tag_168:\n      0x00\n        /* \"#utility.yul\":18889:18891   */\n      0x20\n        /* \"#utility.yul\":18878:18887   */\n      dup3\n        /* \"#utility.yul\":18874:18892   */\n      add\n        /* \"#utility.yul\":18866:18892   */\n      swap1\n      pop\n        /* \"#utility.yul\":18938:18947   */\n      dup2\n        /* \"#utility.yul\":18932:18936   */\n      dup2\n        /* \"#utility.yul\":18928:18948   */\n      sub\n        /* \"#utility.yul\":18924:18925   */\n      0x00\n        /* \"#utility.yul\":18913:18922   */\n      dup4\n        /* \"#utility.yul\":18909:18926   */\n      add\n        /* \"#utility.yul\":18902:18949   */\n      mstore\n        /* \"#utility.yul\":18966:19097   */\n      tag_552\n        /* \"#utility.yul\":19092:19096   */\n      dup2\n        /* \"#utility.yul\":18966:19097   */\n      tag_476\n      jump\t// in\n    tag_552:\n        /* \"#utility.yul\":18958:19097   */\n      swap1\n      pop\n        /* \"#utility.yul\":18856:19104   */\n      swap2\n      swap1\n      pop\n      jump\t// out\n        /* \"#utility.yul\":19110:19529   */\n    tag_244:\n      0x00\n        /* \"#utility.yul\":19314:19316   */\n      0x20\n        /* \"#utility.yul\":19303:19312   */\n      dup3\n        /* \"#utility.yul\":19299:19317   */\n      add\n        /* \"#utility.yul\":19291:19317   */\n      swap1\n      pop\n        /* \"#utility.yul\":19363:19372   */\n      dup2\n        /* \"#utility.yul\":19357:19361   */\n      dup2\n        /* \"#utility.yul\":19353:19373   */\n      sub\n        /* \"#utility.yul\":19349:19350   */\n      0x00\n        /* \"#utility.yul\":19338:19347   */\n      dup4\n        /* \"#utility.yul\":19334:19351   */\n      add\n        /* \"#utility.yul\":19327:19374   */\n      mstore\n        /* \"#utility.yul\":19391:19522   */\n      tag_554\n        /* \"#utility.yul\":19517:19521   */\n      dup2\n        /* \"#utility.yul\":19391:19522   */\n      tag_479\n      jump\t// in\n    tag_554:\n        /* \"#utility.yul\":19383:19522   */\n      swap1\n      pop\n        /* \"#utility.yul\":19281:19529   */\n      swap2\n      swap1\n      pop\n      jump\t// out\n        /* \"#utility.yul\":19535:19954   */\n    tag_194:\n      0x00\n        /* \"#utility.yul\":19739:19741   */\n      0x20\n        /* \"#utility.yul\":19728:19737   */\n      dup3\n        /* \"#utility.yul\":19724:19742   */\n      add\n        /* \"#utility.yul\":19716:19742   */\n      swap1\n      pop\n        /* \"#utility.yul\":19788:19797   */\n      dup2\n        /* \"#utility.yul\":19782:19786   */\n      dup2\n        /* \"#utility.yul\":19778:19798   */\n      sub\n        /* \"#utility.yul\":19774:19775   */\n      0x00\n        /* \"#utility.yul\":19763:19772   */\n      dup4\n        /* \"#utility.yul\":19759:19776   */\n      add\n        /* \"#utility.yul\":19752:19799   */\n      mstore\n        /* \"#utility.yul\":19816:19947   */\n      tag_556\n        /* \"#utility.yul\":19942:19946   */\n      dup2\n        /* \"#utility.yul\":19816:19947   */\n      tag_482\n      jump\t// in\n    tag_556:\n        /* \"#utility.yul\":19808:19947   */\n      swap1\n      pop\n        /* \"#utility.yul\":19706:19954   */\n      swap2\n      swap1\n      pop\n      jump\t// out\n        /* \"#utility.yul\":19960:20379   */\n    tag_197:\n      0x00\n        /* \"#utility.yul\":20164:20166   */\n      0x20\n        /* \"#utility.yul\":20153:20162   */\n      dup3\n        /* \"#utility.yul\":20149:20167   */\n      add\n        /* \"#utility.yul\":20141:20167   */\n      swap1\n      pop\n        /* \"#utility.yul\":20213:20222   */\n      dup2\n        /* \"#utility.yul\":20207:20211   */\n      dup2\n        /* \"#utility.yul\":20203:20223   */\n      sub\n        /* \"#utility.yul\":20199:20200   */\n      0x00\n        /* \"#utility.yul\":20188:20197   */\n      dup4\n        /* \"#utility.yul\":20184:20201   */\n      add\n        /* \"#utility.yul\":20177:20224   */\n      mstore\n        /* \"#utility.yul\":20241:20372   */\n      tag_558\n        /* \"#utility.yul\":20367:20371   */\n      dup2\n        /* \"#utility.yul\":20241:20372   */\n      tag_485\n      jump\t// in\n    tag_558:\n        /* \"#utility.yul\":20233:20372   */\n      swap1\n      pop\n        /* \"#utility.yul\":20131:20379   */\n      swap2\n      swap1\n      pop\n      jump\t// out\n        /* \"#utility.yul\":20385:20804   */\n    tag_324:\n      0x00\n        /* \"#utility.yul\":20589:20591   */\n      0x20\n        /* \"#utility.yul\":20578:20587   */\n      dup3\n        /* \"#utility.yul\":20574:20592   */\n      add\n        /* \"#utility.yul\":20566:20592   */\n      swap1\n      pop\n        /* \"#utility.yul\":20638:20647   */\n      dup2\n        /* \"#utility.yul\":20632:20636   */\n      dup2\n        /* \"#utility.yul\":20628:20648   */\n      sub\n        /* \"#utility.yul\":20624:20625   */\n      0x00\n        /* \"#utility.yul\":20613:20622   */\n      dup4\n        /* \"#utility.yul\":20609:20626   */\n      add\n        /* \"#utility.yul\":20602:20649   */\n      mstore\n        /* \"#utility.yul\":20666:20797   */\n      tag_560\n        /* \"#utility.yul\":20792:20796   */\n      dup2\n        /* \"#utility.yul\":20666:20797   */\n      tag_488\n      jump\t// in\n    tag_560:\n        /* \"#utility.yul\":20658:20797   */\n      swap1\n      pop\n        /* \"#utility.yul\":20556:20804   */\n      swap2\n      swap1\n      pop\n      jump\t// out\n        /* \"#utility.yul\":20810:21229   */\n    tag_155:\n      0x00\n        /* \"#utility.yul\":21014:21016   */\n      0x20\n        /* \"#utility.yul\":21003:21012   */\n      dup3\n        /* \"#utility.yul\":20999:21017   */\n      add\n        /* \"#utility.yul\":20991:21017   */\n      swap1\n      pop\n        /* \"#utility.yul\":21063:21072   */\n      dup2\n        /* \"#utility.yul\":21057:21061   */\n      dup2\n        /* \"#utility.yul\":21053:21073   */\n      sub\n        /* \"#utility.yul\":21049:21050   */\n      0x00\n        /* \"#utility.yul\":21038:21047   */\n      dup4\n        /* \"#utility.yul\":21034:21051   */\n      add\n        /* \"#utility.yul\":21027:21074   */\n      mstore\n        /* \"#utility.yul\":21091:21222   */\n      tag_562\n        /* \"#utility.yul\":21217:21221   */\n      dup2\n        /* \"#utility.yul\":21091:21222   */\n      tag_491\n      jump\t// in\n    tag_562:\n        /* \"#utility.yul\":21083:21222   */\n      swap1\n      pop\n        /* \"#utility.yul\":20981:21229   */\n      swap2\n      swap1\n      pop\n      jump\t// out\n        /* \"#utility.yul\":21235:21654   */\n    tag_127:\n      0x00\n        /* \"#utility.yul\":21439:21441   */\n      0x20\n        /* \"#utility.yul\":21428:21437   */\n      dup3\n        /* \"#utility.yul\":21424:21442   */\n      add\n        /* \"#utility.yul\":21416:21442   */\n      swap1\n      pop\n        /* \"#utility.yul\":21488:21497   */\n      dup2\n        /* \"#utility.yul\":21482:21486   */\n      dup2\n        /* \"#utility.yul\":21478:21498   */\n      sub\n        /* \"#utility.yul\":21474:21475   */\n      0x00\n        /* \"#utility.yul\":21463:21472   */\n      dup4\n        /* \"#utility.yul\":21459:21476   */\n      add\n        /* \"#utility.yul\":21452:21499   */\n      mstore\n        /* \"#utility.yul\":21516:21647   */\n      tag_564\n        /* \"#utility.yul\":21642:21646   */\n      dup2\n        /* \"#utility.yul\":21516:21647   */\n      tag_494\n      jump\t// in\n    tag_564:\n        /* \"#utility.yul\":21508:21647   */\n      swap1\n      pop\n        /* \"#utility.yul\":21406:21654   */\n      swap2\n      swap1\n      pop\n      jump\t// out\n        /* \"#utility.yul\":21660:22079   */\n    tag_191:\n      0x00\n        /* \"#utility.yul\":21864:21866   */\n      0x20\n        /* \"#utility.yul\":21853:21862   */\n      dup3\n        /* \"#utility.yul\":21849:21867   */\n      add\n        /* \"#utility.yul\":21841:21867   */\n      swap1\n      pop\n        /* \"#utility.yul\":21913:21922   */\n      dup2\n        /* \"#utility.yul\":21907:21911   */\n      dup2\n        /* \"#utility.yul\":21903:21923   */\n      sub\n        /* \"#utility.yul\":21899:21900   */\n      0x00\n        /* \"#utility.yul\":21888:21897   */\n      dup4\n        /* \"#utility.yul\":21884:21901   */\n      add\n        /* \"#utility.yul\":21877:21924   */\n      mstore\n        /* \"#utility.yul\":21941:22072   */\n      tag_566\n        /* \"#utility.yul\":22067:22071   */\n      dup2\n        /* \"#utility.yul\":21941:22072   */\n      tag_497\n      jump\t// in\n    tag_566:\n        /* \"#utility.yul\":21933:22072   */\n      swap1\n      pop\n        /* \"#utility.yul\":21831:22079   */\n      swap2\n      swap1\n      pop\n      jump\t// out\n        /* \"#utility.yul\":22085:22504   */\n    tag_313:\n      0x00\n        /* \"#utility.yul\":22289:22291   */\n      0x20\n        /* \"#utility.yul\":22278:22287   */\n      dup3\n        /* \"#utility.yul\":22274:22292   */\n      add\n        /* \"#utility.yul\":22266:22292   */\n      swap1\n      pop\n        /* \"#utility.yul\":22338:22347   */\n      dup2\n        /* \"#utility.yul\":22332:22336   */\n      dup2\n        /* \"#utility.yul\":22328:22348   */\n      sub\n        /* \"#utility.yul\":22324:22325   */\n      0x00\n        /* \"#utility.yul\":22313:22322   */\n      dup4\n        /* \"#utility.yul\":22309:22326   */\n      add\n        /* \"#utility.yul\":22302:22349   */\n      mstore\n        /* \"#utility.yul\":22366:22497   */\n      tag_568\n        /* \"#utility.yul\":22492:22496   */\n      dup2\n        /* \"#utility.yul\":22366:22497   */\n      tag_500\n      jump\t// in\n    tag_568:\n        /* \"#utility.yul\":22358:22497   */\n      swap1\n      pop\n        /* \"#utility.yul\":22256:22504   */\n      swap2\n      swap1\n      pop\n      jump\t// out\n        /* \"#utility.yul\":22510:22929   */\n    tag_152:\n      0x00\n        /* \"#utility.yul\":22714:22716   */\n      0x20\n        /* \"#utility.yul\":22703:22712   */\n      dup3\n        /* \"#utility.yul\":22699:22717   */\n      add\n        /* \"#utility.yul\":22691:22717   */\n      swap1\n      pop\n        /* \"#utility.yul\":22763:22772   */\n      dup2\n        /* \"#utility.yul\":22757:22761   */\n      dup2\n        /* \"#utility.yul\":22753:22773   */\n      sub\n        /* \"#utility.yul\":22749:22750   */\n      0x00\n        /* \"#utility.yul\":22738:22747   */\n      dup4\n        /* \"#utility.yul\":22734:22751   */\n      add\n        /* \"#utility.yul\":22727:22774   */\n      mstore\n        /* \"#utility.yul\":22791:22922   */\n      tag_570\n        /* \"#utility.yul\":22917:22921   */\n      dup2\n        /* \"#utility.yul\":22791:22922   */\n      tag_503\n      jump\t// in\n    tag_570:\n        /* \"#utility.yul\":22783:22922   */\n      swap1\n      pop\n        /* \"#utility.yul\":22681:22929   */\n      swap2\n      swap1\n      pop\n      jump\t// out\n        /* \"#utility.yul\":22935:23354   */\n    tag_149:\n      0x00\n        /* \"#utility.yul\":23139:23141   */\n      0x20\n        /* \"#utility.yul\":23128:23137   */\n      dup3\n        /* \"#utility.yul\":23124:23142   */\n      add\n        /* \"#utility.yul\":23116:23142   */\n      swap1\n      pop\n        /* \"#utility.yul\":23188:23197   */\n      dup2\n        /* \"#utility.yul\":23182:23186   */\n      dup2\n        /* \"#utility.yul\":23178:23198   */\n      sub\n        /* \"#utility.yul\":23174:23175   */\n      0x00\n        /* \"#utility.yul\":23163:23172   */\n      dup4\n        /* \"#utility.yul\":23159:23176   */\n      add\n        /* \"#utility.yul\":23152:23199   */\n      mstore\n        /* \"#utility.yul\":23216:23347   */\n      tag_572\n        /* \"#utility.yul\":23342:23346   */\n      dup2\n        /* \"#utility.yul\":23216:23347   */\n      tag_506\n      jump\t// in\n    tag_572:\n        /* \"#utility.yul\":23208:23347   */\n      swap1\n      pop\n        /* \"#utility.yul\":23106:23354   */\n      swap2\n      swap1\n      pop\n      jump\t// out\n        /* \"#utility.yul\":23360:23779   */\n    tag_188:\n      0x00\n        /* \"#utility.yul\":23564:23566   */\n      0x20\n        /* \"#utility.yul\":23553:23562   */\n      dup3\n        /* \"#utility.yul\":23549:23567   */\n      add\n        /* \"#utility.yul\":23541:23567   */\n      swap1\n      pop\n        /* \"#utility.yul\":23613:23622   */\n      dup2\n        /* \"#utility.yul\":23607:23611   */\n      dup2\n        /* \"#utility.yul\":23603:23623   */\n      sub\n        /* \"#utility.yul\":23599:23600   */\n      0x00\n        /* \"#utility.yul\":23588:23597   */\n      dup4\n        /* \"#utility.yul\":23584:23601   */\n      add\n        /* \"#utility.yul\":23577:23624   */\n      mstore\n        /* \"#utility.yul\":23641:23772   */\n      tag_574\n        /* \"#utility.yul\":23767:23771   */\n      dup2\n        /* \"#utility.yul\":23641:23772   */\n      tag_509\n      jump\t// in\n    tag_574:\n        /* \"#utility.yul\":23633:23772   */\n      swap1\n      pop\n        /* \"#utility.yul\":23531:23779   */\n      swap2\n      swap1\n      pop\n      jump\t// out\n        /* \"#utility.yul\":23785:24204   */\n    tag_305:\n      0x00\n        /* \"#utility.yul\":23989:23991   */\n      0x20\n        /* \"#utility.yul\":23978:23987   */\n      dup3\n        /* \"#utility.yul\":23974:23992   */\n      add\n        /* \"#utility.yul\":23966:23992   */\n      swap1\n      pop\n        /* \"#utility.yul\":24038:24047   */\n      dup2\n        /* \"#utility.yul\":24032:24036   */\n      dup2\n        /* \"#utility.yul\":24028:24048   */\n      sub\n        /* \"#utility.yul\":24024:24025   */\n      0x00\n        /* \"#utility.yul\":24013:24022   */\n      dup4\n        /* \"#utility.yul\":24009:24026   */\n      add\n        /* \"#utility.yul\":24002:24049   */\n      mstore\n        /* \"#utility.yul\":24066:24197   */\n      tag_576\n        /* \"#utility.yul\":24192:24196   */\n      dup2\n        /* \"#utility.yul\":24066:24197   */\n      tag_512\n      jump\t// in\n    tag_576:\n        /* \"#utility.yul\":24058:24197   */\n      swap1\n      pop\n        /* \"#utility.yul\":23956:24204   */\n      swap2\n      swap1\n      pop\n      jump\t// out\n        /* \"#utility.yul\":24210:24432   */\n    tag_78:\n      0x00\n        /* \"#utility.yul\":24341:24343   */\n      0x20\n        /* \"#utility.yul\":24330:24339   */\n      dup3\n        /* \"#utility.yul\":24326:24344   */\n      add\n        /* \"#utility.yul\":24318:24344   */\n      swap1\n      pop\n        /* \"#utility.yul\":24354:24425   */\n      tag_578\n        /* \"#utility.yul\":24422:24423   */\n      0x00\n        /* \"#utility.yul\":24411:24420   */\n      dup4\n        /* \"#utility.yul\":24407:24424   */\n      add\n        /* \"#utility.yul\":24398:24404   */\n      dup5\n        /* \"#utility.yul\":24354:24425   */\n      tag_521\n      jump\t// in\n    tag_578:\n        /* \"#utility.yul\":24308:24432   */\n      swap3\n      swap2\n      pop\n      pop\n      jump\t// out\n        /* \"#utility.yul\":24438:24721   */\n    tag_352:\n      0x00\n        /* \"#utility.yul\":24504:24506   */\n      0x40\n        /* \"#utility.yul\":24498:24507   */\n      mload\n        /* \"#utility.yul\":24488:24507   */\n      swap1\n      pop\n        /* \"#utility.yul\":24546:24550   */\n      dup2\n        /* \"#utility.yul\":24538:24544   */\n      dup2\n        /* \"#utility.yul\":24534:24551   */\n      add\n        /* \"#utility.yul\":24653:24659   */\n      dup2\n        /* \"#utility.yul\":24641:24651   */\n      dup2\n        /* \"#utility.yul\":24638:24660   */\n      lt\n        /* \"#utility.yul\":24617:24635   */\n      0xffffffffffffffff\n        /* \"#utility.yul\":24605:24615   */\n      dup3\n        /* \"#utility.yul\":24602:24636   */\n      gt\n        /* \"#utility.yul\":24599:24661   */\n      or\n        /* \"#utility.yul\":24596:24598   */\n      iszero\n      tag_580\n      jumpi\n        /* \"#utility.yul\":24664:24682   */\n      tag_581\n      tag_582\n      jump\t// in\n    tag_581:\n        /* \"#utility.yul\":24596:24598   */\n    tag_580:\n        /* \"#utility.yul\":24704:24714   */\n      dup1\n        /* \"#utility.yul\":24700:24702   */\n      0x40\n        /* \"#utility.yul\":24693:24715   */\n      mstore\n        /* \"#utility.yul\":24478:24721   */\n      pop\n      swap2\n      swap1\n      pop\n      jump\t// out\n        /* \"#utility.yul\":24727:25038   */\n    tag_351:\n      0x00\n        /* \"#utility.yul\":24894:24912   */\n      0xffffffffffffffff\n        /* \"#utility.yul\":24886:24892   */\n      dup3\n        /* \"#utility.yul\":24883:24913   */\n      gt\n        /* \"#utility.yul\":24880:24882   */\n      iszero\n      tag_584\n      jumpi\n        /* \"#utility.yul\":24916:24934   */\n      tag_585\n      tag_582\n      jump\t// in\n    tag_585:\n        /* \"#utility.yul\":24880:24882   */\n    tag_584:\n        /* \"#utility.yul\":24966:24970   */\n      0x20\n        /* \"#utility.yul\":24958:24964   */\n      dup3\n        /* \"#utility.yul\":24954:24971   */\n      mul\n        /* \"#utility.yul\":24946:24971   */\n      swap1\n      pop\n        /* \"#utility.yul\":25026:25030   */\n      0x20\n        /* \"#utility.yul\":25020:25024   */\n      dup2\n        /* \"#utility.yul\":25016:25031   */\n      add\n        /* \"#utility.yul\":25008:25031   */\n      swap1\n      pop\n        /* \"#utility.yul\":24809:25038   */\n      swap2\n      swap1\n      pop\n      jump\t// out\n        /* \"#utility.yul\":25044:25376   */\n    tag_363:\n      0x00\n        /* \"#utility.yul\":25196:25214   */\n      0xffffffffffffffff\n        /* \"#utility.yul\":25188:25194   */\n      dup3\n        /* \"#utility.yul\":25185:25215   */\n      gt\n        /* \"#utility.yul\":25182:25184   */\n      iszero\n      tag_587\n      jumpi\n        /* \"#utility.yul\":25218:25236   */\n      tag_588\n      tag_582\n      jump\t// in\n    tag_588:\n        /* \"#utility.yul\":25182:25184   */\n    tag_587:\n        /* \"#utility.yul\":25303:25307   */\n      0x1f\n        /* \"#utility.yul\":25299:25308   */\n      not\n        /* \"#utility.yul\":25292:25296   */\n      0x1f\n        /* \"#utility.yul\":25284:25290   */\n      dup4\n        /* \"#utility.yul\":25280:25297   */\n      add\n        /* \"#utility.yul\":25276:25309   */\n      and\n        /* \"#utility.yul\":25268:25309   */\n      swap1\n      pop\n        /* \"#utility.yul\":25364:25368   */\n      0x20\n        /* \"#utility.yul\":25358:25362   */\n      dup2\n        /* \"#utility.yul\":25354:25369   */\n      add\n        /* \"#utility.yul\":25346:25369   */\n      swap1\n      pop\n        /* \"#utility.yul\":25111:25376   */\n      swap2\n      swap1\n      pop\n      jump\t// out\n        /* \"#utility.yul\":25382:25540   */\n    tag_432:\n      0x00\n        /* \"#utility.yul\":25498:25501   */\n      dup2\n        /* \"#utility.yul\":25490:25501   */\n      swap1\n      pop\n        /* \"#utility.yul\":25528:25532   */\n      0x20\n        /* \"#utility.yul\":25523:25526   */\n      dup3\n        /* \"#utility.yul\":25519:25533   */\n      add\n        /* \"#utility.yul\":25511:25533   */\n      swap1\n      pop\n        /* \"#utility.yul\":25480:25540   */\n      swap2\n      swap1\n      pop\n      jump\t// out\n        /* \"#utility.yul\":25546:25678   */\n    tag_446:\n      0x00\n        /* \"#utility.yul\":25636:25639   */\n      dup2\n        /* \"#utility.yul\":25628:25639   */\n      swap1\n      pop\n        /* \"#utility.yul\":25666:25670   */\n      0x20\n        /* \"#utility.yul\":25661:25664   */\n      dup3\n        /* \"#utility.yul\":25657:25671   */\n      add\n        /* \"#utility.yul\":25649:25671   */\n      swap1\n      pop\n        /* \"#utility.yul\":25618:25678   */\n      swap2\n      swap1\n      pop\n      jump\t// out\n        /* \"#utility.yul\":25684:25824   */\n    tag_428:\n      0x00\n        /* \"#utility.yul\":25811:25816   */\n      dup2\n        /* \"#utility.yul\":25805:25817   */\n      mload\n        /* \"#utility.yul\":25795:25817   */\n      swap1\n      pop\n        /* \"#utility.yul\":25784:25824   */\n      swap2\n      swap1\n      pop\n      jump\t// out\n        /* \"#utility.yul\":25830:25944   */\n    tag_442:\n      0x00\n        /* \"#utility.yul\":25931:25936   */\n      dup2\n        /* \"#utility.yul\":25925:25937   */\n      mload\n        /* \"#utility.yul\":25915:25937   */\n      swap1\n      pop\n        /* \"#utility.yul\":25904:25944   */\n      swap2\n      swap1\n      pop\n      jump\t// out\n        /* \"#utility.yul\":25950:26049   */\n    tag_460:\n      0x00\n        /* \"#utility.yul\":26036:26041   */\n      dup2\n        /* \"#utility.yul\":26030:26042   */\n      mload\n        /* \"#utility.yul\":26020:26042   */\n      swap1\n      pop\n        /* \"#utility.yul\":26009:26049   */\n      swap2\n      swap1\n      pop\n      jump\t// out\n        /* \"#utility.yul\":26055:26194   */\n    tag_438:\n      0x00\n        /* \"#utility.yul\":26183:26187   */\n      0x20\n        /* \"#utility.yul\":26178:26181   */\n      dup3\n        /* \"#utility.yul\":26174:26188   */\n      add\n        /* \"#utility.yul\":26166:26188   */\n      swap1\n      pop\n        /* \"#utility.yul\":26156:26194   */\n      swap2\n      swap1\n      pop\n      jump\t// out\n        /* \"#utility.yul\":26200:26313   */\n    tag_452:\n      0x00\n        /* \"#utility.yul\":26302:26306   */\n      0x20\n        /* \"#utility.yul\":26297:26300   */\n      dup3\n        /* \"#utility.yul\":26293:26307   */\n      add\n        /* \"#utility.yul\":26285:26307   */\n      swap1\n      pop\n        /* \"#utility.yul\":26275:26313   */\n      swap2\n      swap1\n      pop\n      jump\t// out\n        /* \"#utility.yul\":26319:26529   */\n    tag_430:\n      0x00\n        /* \"#utility.yul\":26478:26484   */\n      dup3\n        /* \"#utility.yul\":26473:26476   */\n      dup3\n        /* \"#utility.yul\":26466:26485   */\n      mstore\n        /* \"#utility.yul\":26518:26522   */\n      0x20\n        /* \"#utility.yul\":26513:26516   */\n      dup3\n        /* \"#utility.yul\":26509:26523   */\n      add\n        /* \"#utility.yul\":26494:26523   */\n      swap1\n      pop\n        /* \"#utility.yul\":26456:26529   */\n      swap3\n      swap2\n      pop\n      pop\n      jump\t// out\n        /* \"#utility.yul\":26535:26719   */\n    tag_444:\n      0x00\n        /* \"#utility.yul\":26668:26674   */\n      dup3\n        /* \"#utility.yul\":26663:26666   */\n      dup3\n        /* \"#utility.yul\":26656:26675   */\n      mstore\n        /* \"#utility.yul\":26708:26712   */\n      0x20\n        /* \"#utility.yul\":26703:26706   */\n      dup3\n        /* \"#utility.yul\":26699:26713   */\n      add\n        /* \"#utility.yul\":26684:26713   */\n      swap1\n      pop\n        /* \"#utility.yul\":26646:26719   */\n      swap3\n      swap2\n      pop\n      pop\n      jump\t// out\n        /* \"#utility.yul\":26725:26884   */\n    tag_462:\n      0x00\n        /* \"#utility.yul\":26833:26839   */\n      dup3\n        /* \"#utility.yul\":26828:26831   */\n      dup3\n        /* \"#utility.yul\":26821:26840   */\n      mstore\n        /* \"#utility.yul\":26873:26877   */\n      0x20\n        /* \"#utility.yul\":26868:26871   */\n      dup3\n        /* \"#utility.yul\":26864:26878   */\n      add\n        /* \"#utility.yul\":26849:26878   */\n      swap1\n      pop\n        /* \"#utility.yul\":26811:26884   */\n      swap3\n      swap2\n      pop\n      pop\n      jump\t// out\n        /* \"#utility.yul\":26890:27059   */\n    tag_469:\n      0x00\n        /* \"#utility.yul\":27008:27014   */\n      dup3\n        /* \"#utility.yul\":27003:27006   */\n      dup3\n        /* \"#utility.yul\":26996:27015   */\n      mstore\n        /* \"#utility.yul\":27048:27052   */\n      0x20\n        /* \"#utility.yul\":27043:27046   */\n      dup3\n        /* \"#utility.yul\":27039:27053   */\n      add\n        /* \"#utility.yul\":27024:27053   */\n      swap1\n      pop\n        /* \"#utility.yul\":26986:27059   */\n      swap3\n      swap2\n      pop\n      pop\n      jump\t// out\n        /* \"#utility.yul\":27065:27370   */\n    tag_172:\n      0x00\n        /* \"#utility.yul\":27124:27144   */\n      tag_601\n        /* \"#utility.yul\":27142:27143   */\n      dup3\n        /* \"#utility.yul\":27124:27144   */\n      tag_520\n      jump\t// in\n    tag_601:\n        /* \"#utility.yul\":27119:27144   */\n      swap2\n      pop\n        /* \"#utility.yul\":27158:27178   */\n      tag_602\n        /* \"#utility.yul\":27176:27177   */\n      dup4\n        /* \"#utility.yul\":27158:27178   */\n      tag_520\n      jump\t// in\n    tag_602:\n        /* \"#utility.yul\":27153:27178   */\n      swap3\n      pop\n        /* \"#utility.yul\":27312:27313   */\n      dup3\n        /* \"#utility.yul\":27244:27310   */\n      0xffffffffffffffffffffffffffffffffffffffffffffffffffffffffffffffff\n        /* \"#utility.yul\":27240:27314   */\n      sub\n        /* \"#utility.yul\":27237:27238   */\n      dup3\n        /* \"#utility.yul\":27234:27315   */\n      gt\n        /* \"#utility.yul\":27231:27233   */\n      iszero\n      tag_603\n      jumpi\n        /* \"#utility.yul\":27318:27336   */\n      tag_604\n      tag_605\n      jump\t// in\n    tag_604:\n        /* \"#utility.yul\":27231:27233   */\n    tag_603:\n        /* \"#utility.yul\":27362:27363   */\n      dup3\n        /* \"#utility.yul\":27359:27360   */\n      dup3\n        /* \"#utility.yul\":27355:27364   */\n      add\n        /* \"#utility.yul\":27348:27364   */\n      swap1\n      pop\n        /* \"#utility.yul\":27109:27370   */\n      swap3\n      swap2\n      pop\n      pop\n      jump\t// out\n        /* \"#utility.yul\":27376:27561   */\n    tag_201:\n      0x00\n        /* \"#utility.yul\":27433:27453   */\n      tag_607\n        /* \"#utility.yul\":27451:27452   */\n      dup3\n        /* \"#utility.yul\":27433:27453   */\n      tag_520\n      jump\t// in\n    tag_607:\n        /* \"#utility.yul\":27428:27453   */\n      swap2\n      pop\n        /* \"#utility.yul\":27467:27487   */\n      tag_608\n        /* \"#utility.yul\":27485:27486   */\n      dup4\n        /* \"#utility.yul\":27467:27487   */\n      tag_520\n      jump\t// in\n    tag_608:\n        /* \"#utility.yul\":27462:27487   */\n      swap3\n      pop\n        /* \"#utility.yul\":27506:27507   */\n      dup3\n        /* \"#utility.yul\":27496:27498   */\n      tag_609\n      jumpi\n        /* \"#utility.yul\":27511:27529   */\n      tag_610\n      tag_611\n      jump\t// in\n    tag_610:\n        /* \"#utility.yul\":27496:27498   */\n    tag_609:\n        /* \"#utility.yul\":27553:27554   */\n      dup3\n        /* \"#utility.yul\":27550:27551   */\n      dup3\n        /* \"#utility.yul\":27546:27555   */\n      div\n        /* \"#utility.yul\":27541:27555   */\n      swap1\n      pop\n        /* \"#utility.yul\":27418:27561   */\n      swap3\n      swap2\n      pop\n      pop\n      jump\t// out\n        /* \"#utility.yul\":27567:27915   */\n    tag_199:\n      0x00\n        /* \"#utility.yul\":27630:27650   */\n      tag_613\n        /* \"#utility.yul\":27648:27649   */\n      dup3\n        /* \"#utility.yul\":27630:27650   */\n      tag_520\n      jump\t// in\n    tag_613:\n        /* \"#utility.yul\":27625:27650   */\n      swap2\n      pop\n        /* \"#utility.yul\":27664:27684   */\n      tag_614\n        /* \"#utility.yul\":27682:27683   */\n      dup4\n        /* \"#utility.yul\":27664:27684   */\n      tag_520\n      jump\t// in\n    tag_614:\n        /* \"#utility.yul\":27659:27684   */\n      swap3\n      pop\n        /* \"#utility.yul\":27852:27853   */\n      dup2\n        /* \"#utility.yul\":27784:27850   */\n      0xffffffffffffffffffffffffffffffffffffffffffffffffffffffffffffffff\n        /* \"#utility.yul\":27780:27854   */\n      div\n        /* \"#utility.yul\":27777:27778   */\n      dup4\n        /* \"#utility.yul\":27774:27855   */\n      gt\n        /* \"#utility.yul\":27769:27770   */\n      dup3\n        /* \"#utility.yul\":27762:27771   */\n      iszero\n        /* \"#utility.yul\":27755:27772   */\n      iszero\n        /* \"#utility.yul\":27751:27856   */\n      and\n        /* \"#utility.yul\":27748:27750   */\n      iszero\n      tag_615\n      jumpi\n        /* \"#utility.yul\":27859:27877   */\n      tag_616\n      tag_605\n      jump\t// in\n    tag_616:\n        /* \"#utility.yul\":27748:27750   */\n    tag_615:\n        /* \"#utility.yul\":27907:27908   */\n      dup3\n        /* \"#utility.yul\":27904:27905   */\n      dup3\n        /* \"#utility.yul\":27900:27909   */\n      mul\n        /* \"#utility.yul\":27889:27909   */\n      swap1\n      pop\n        /* \"#utility.yul\":27615:27915   */\n      swap3\n      swap2\n      pop\n      pop\n      jump\t// out\n        /* \"#utility.yul\":27921:28112   */\n    tag_205:\n      0x00\n        /* \"#utility.yul\":27981:28001   */\n      tag_618\n        /* \"#utility.yul\":27999:28000   */\n      dup3\n        /* \"#utility.yul\":27981:28001   */\n      tag_520\n      jump\t// in\n    tag_618:\n        /* \"#utility.yul\":27976:28001   */\n      swap2\n      pop\n        /* \"#utility.yul\":28015:28035   */\n      tag_619\n        /* \"#utility.yul\":28033:28034   */\n      dup4\n        /* \"#utility.yul\":28015:28035   */\n      tag_520\n      jump\t// in\n    tag_619:\n        /* \"#utility.yul\":28010:28035   */\n      swap3\n      pop\n        /* \"#utility.yul\":28054:28055   */\n      dup3\n        /* \"#utility.yul\":28051:28052   */\n      dup3\n        /* \"#utility.yul\":28048:28056   */\n      lt\n        /* \"#utility.yul\":28045:28047   */\n      iszero\n      tag_620\n      jumpi\n        /* \"#utility.yul\":28059:28077   */\n      tag_621\n      tag_605\n      jump\t// in\n    tag_621:\n        /* \"#utility.yul\":28045:28047   */\n    tag_620:\n        /* \"#utility.yul\":28104:28105   */\n      dup3\n        /* \"#utility.yul\":28101:28102   */\n      dup3\n        /* \"#utility.yul\":28097:28106   */\n      sub\n        /* \"#utility.yul\":28089:28106   */\n      swap1\n      pop\n        /* \"#utility.yul\":27966:28112   */\n      swap3\n      swap2\n      pop\n      pop\n      jump\t// out\n        /* \"#utility.yul\":28118:28214   */\n    tag_424:\n      0x00\n        /* \"#utility.yul\":28184:28208   */\n      tag_623\n        /* \"#utility.yul\":28202:28207   */\n      dup3\n        /* \"#utility.yul\":28184:28208   */\n      tag_624\n      jump\t// in\n    tag_623:\n        /* \"#utility.yul\":28173:28208   */\n      swap1\n      pop\n        /* \"#utility.yul\":28163:28214   */\n      swap2\n      swap1\n      pop\n      jump\t// out\n        /* \"#utility.yul\":28220:28310   */\n    tag_456:\n      0x00\n        /* \"#utility.yul\":28297:28302   */\n      dup2\n        /* \"#utility.yul\":28290:28303   */\n      iszero\n        /* \"#utility.yul\":28283:28304   */\n      iszero\n        /* \"#utility.yul\":28272:28304   */\n      swap1\n      pop\n        /* \"#utility.yul\":28262:28310   */\n      swap2\n      swap1\n      pop\n      jump\t// out\n        /* \"#utility.yul\":28316:28442   */\n    tag_624:\n      0x00\n        /* \"#utility.yul\":28393:28435   */\n      0xffffffffffffffffffffffffffffffffffffffff\n        /* \"#utility.yul\":28386:28391   */\n      dup3\n        /* \"#utility.yul\":28382:28436   */\n      and\n        /* \"#utility.yul\":28371:28436   */\n      swap1\n      pop\n        /* \"#utility.yul\":28361:28442   */\n      swap2\n      swap1\n      pop\n      jump\t// out\n        /* \"#utility.yul\":28448:28525   */\n    tag_520:\n      0x00\n        /* \"#utility.yul\":28514:28519   */\n      dup2\n        /* \"#utility.yul\":28503:28519   */\n      swap1\n      pop\n        /* \"#utility.yul\":28493:28525   */\n      swap2\n      swap1\n      pop\n      jump\t// out\n        /* \"#utility.yul\":28531:28838   */\n    tag_366:\n        /* \"#utility.yul\":28599:28600   */\n      0x00\n        /* \"#utility.yul\":28609:28722   */\n    tag_629:\n        /* \"#utility.yul\":28623:28629   */\n      dup4\n        /* \"#utility.yul\":28620:28621   */\n      dup2\n        /* \"#utility.yul\":28617:28630   */\n      lt\n        /* \"#utility.yul\":28609:28722   */\n      iszero\n      tag_631\n      jumpi\n        /* \"#utility.yul\":28708:28709   */\n      dup1\n        /* \"#utility.yul\":28703:28706   */\n      dup3\n        /* \"#utility.yul\":28699:28710   */\n      add\n        /* \"#utility.yul\":28693:28711   */\n      mload\n        /* \"#utility.yul\":28689:28690   */\n      dup2\n        /* \"#utility.yul\":28684:28687   */\n      dup5\n        /* \"#utility.yul\":28680:28691   */\n      add\n        /* \"#utility.yul\":28673:28712   */\n      mstore\n        /* \"#utility.yul\":28645:28647   */\n      0x20\n        /* \"#utility.yul\":28642:28643   */\n      dup2\n        /* \"#utility.yul\":28638:28648   */\n      add\n        /* \"#utility.yul\":28633:28648   */\n      swap1\n      pop\n        /* \"#utility.yul\":28609:28722   */\n      jump(tag_629)\n    tag_631:\n        /* \"#utility.yul\":28740:28746   */\n      dup4\n        /* \"#utility.yul\":28737:28738   */\n      dup2\n        /* \"#utility.yul\":28734:28747   */\n      gt\n        /* \"#utility.yul\":28731:28733   */\n      iszero\n      tag_632\n      jumpi\n        /* \"#utility.yul\":28820:28821   */\n      0x00\n        /* \"#utility.yul\":28811:28817   */\n      dup5\n        /* \"#utility.yul\":28806:28809   */\n      dup5\n        /* \"#utility.yul\":28802:28818   */\n      add\n        /* \"#utility.yul\":28795:28822   */\n      mstore\n        /* \"#utility.yul\":28731:28733   */\n    tag_632:\n        /* \"#utility.yul\":28580:28838   */\n      pop\n      pop\n      pop\n      pop\n      jump\t// out\n        /* \"#utility.yul\":28844:29077   */\n    tag_170:\n      0x00\n        /* \"#utility.yul\":28906:28930   */\n      tag_634\n        /* \"#utility.yul\":28924:28929   */\n      dup3\n        /* \"#utility.yul\":28906:28930   */\n      tag_520\n      jump\t// in\n    tag_634:\n        /* \"#utility.yul\":28897:28930   */\n      swap2\n      pop\n        /* \"#utility.yul\":28952:29018   */\n      0xffffffffffffffffffffffffffffffffffffffffffffffffffffffffffffffff\n        /* \"#utility.yul\":28945:28950   */\n      dup3\n        /* \"#utility.yul\":28942:29019   */\n      eq\n        /* \"#utility.yul\":28939:28941   */\n      iszero\n      tag_635\n      jumpi\n        /* \"#utility.yul\":29022:29040   */\n      tag_636\n      tag_605\n      jump\t// in\n    tag_636:\n        /* \"#utility.yul\":28939:28941   */\n    tag_635:\n        /* \"#utility.yul\":29069:29070   */\n      0x01\n        /* \"#utility.yul\":29062:29067   */\n      dup3\n        /* \"#utility.yul\":29058:29071   */\n      add\n        /* \"#utility.yul\":29051:29071   */\n      swap1\n      pop\n        /* \"#utility.yul\":28887:29077   */\n      swap2\n      swap1\n      pop\n      jump\t// out\n        /* \"#utility.yul\":29083:29263   */\n    tag_605:\n        /* \"#utility.yul\":29131:29208   */\n      0x4e487b7100000000000000000000000000000000000000000000000000000000\n        /* \"#utility.yul\":29128:29129   */\n      0x00\n        /* \"#utility.yul\":29121:29209   */\n      mstore\n        /* \"#utility.yul\":29228:29232   */\n      0x11\n        /* \"#utility.yul\":29225:29226   */\n      0x04\n        /* \"#utility.yul\":29218:29233   */\n      mstore\n        /* \"#utility.yul\":29252:29256   */\n      0x24\n        /* \"#utility.yul\":29249:29250   */\n      0x00\n        /* \"#utility.yul\":29242:29257   */\n      revert\n        /* \"#utility.yul\":29269:29449   */\n    tag_611:\n        /* \"#utility.yul\":29317:29394   */\n      0x4e487b7100000000000000000000000000000000000000000000000000000000\n        /* \"#utility.yul\":29314:29315   */\n      0x00\n        /* \"#utility.yul\":29307:29395   */\n      mstore\n        /* \"#utility.yul\":29414:29418   */\n      0x12\n        /* \"#utility.yul\":29411:29412   */\n      0x04\n        /* \"#utility.yul\":29404:29419   */\n      mstore\n        /* \"#utility.yul\":29438:29442   */\n      0x24\n        /* \"#utility.yul\":29435:29436   */\n      0x00\n        /* \"#utility.yul\":29428:29443   */\n      revert\n        /* \"#utility.yul\":29455:29635   */\n    tag_582:\n        /* \"#utility.yul\":29503:29580   */\n      0x4e487b7100000000000000000000000000000000000000000000000000000000\n        /* \"#utility.yul\":29500:29501   */\n      0x00\n        /* \"#utility.yul\":29493:29581   */\n      mstore\n        /* \"#utility.yul\":29600:29604   */\n      0x41\n        /* \"#utility.yul\":29597:29598   */\n      0x04\n        /* \"#utility.yul\":29590:29605   */\n      mstore\n        /* \"#utility.yul\":29624:29628   */\n      0x24\n        /* \"#utility.yul\":29621:29622   */\n      0x00\n        /* \"#utility.yul\":29614:29629   */\n      revert\n        /* \"#utility.yul\":29641:29743   */\n    tag_465:\n      0x00\n        /* \"#utility.yul\":29733:29735   */\n      0x1f\n        /* \"#utility.yul\":29729:29736   */\n      not\n        /* \"#utility.yul\":29724:29726   */\n      0x1f\n        /* \"#utility.yul\":29717:29722   */\n      dup4\n        /* \"#utility.yul\":29713:29727   */\n      add\n        /* \"#utility.yul\":29709:29737   */\n      and\n        /* \"#utility.yul\":29699:29737   */\n      swap1\n      pop\n        /* \"#utility.yul\":29689:29743   */\n      swap2\n      swap1\n      pop\n      jump\t// out\n        /* \"#utility.yul\":29749:29871   */\n    tag_370:\n        /* \"#utility.yul\":29822:29846   */\n      tag_642\n        /* \"#utility.yul\":29840:29845   */\n      dup2\n        /* \"#utility.yul\":29822:29846   */\n      tag_424\n      jump\t// in\n    tag_642:\n        /* \"#utility.yul\":29815:29820   */\n      dup2\n        /* \"#utility.yul\":29812:29847   */\n      eq\n        /* \"#utility.yul\":29802:29804   */\n      tag_643\n      jumpi\n        /* \"#utility.yul\":29861:29862   */\n      0x00\n        /* \"#utility.yul\":29858:29859   */\n      dup1\n        /* \"#utility.yul\":29851:29863   */\n      revert\n        /* \"#utility.yul\":29802:29804   */\n    tag_643:\n        /* \"#utility.yul\":29792:29871   */\n      pop\n      jump\t// out\n        /* \"#utility.yul\":29877:29999   */\n    tag_384:\n        /* \"#utility.yul\":29950:29974   */\n      tag_645\n        /* \"#utility.yul\":29968:29973   */\n      dup2\n        /* \"#utility.yul\":29950:29974   */\n      tag_520\n      jump\t// in\n    tag_645:\n        /* \"#utility.yul\":29943:29948   */\n      dup2\n        /* \"#utility.yul\":29940:29975   */\n      eq\n        /* \"#utility.yul\":29930:29932   */\n      tag_646\n      jumpi\n        /* \"#utility.yul\":29989:29990   */\n      0x00\n        /* \"#utility.yul\":29986:29987   */\n      dup1\n        /* \"#utility.yul\":29979:29991   */\n      revert\n        /* \"#utility.yul\":29930:29932   */\n    tag_646:\n        /* \"#utility.yul\":29920:29999   */\n      pop\n      jump\t// out\n\n    auxdata: 0xa2646970667358221220b7ed458e0e83a8832acbc2706badc44a896bf752db5498737425649cb2bb5fb964736f6c63430008000033\n}\n",
				"bytecode": {
					"linkReferences": {},
					"object": "60806040526001600a553480156200001657600080fd5b506040516200311a3803806200311a83398181016040528101906200003c9190620002bf565b6200005c62000050620001c560201b60201c565b620001cd60201b60201c565b600180819055506000600260006101000a81548160ff021916908315150217905550600073ffffffffffffffffffffffffffffffffffffffff168273ffffffffffffffffffffffffffffffffffffffff1614158015620000e95750600073ffffffffffffffffffffffffffffffffffffffff168173ffffffffffffffffffffffffffffffffffffffff1614155b6200012b576040517f08c379a000000000000000000000000000000000000000000000000000000000815260040162000122906200036d565b60405180910390fd5b836004819055508260058190555081600660006101000a81548173ffffffffffffffffffffffffffffffffffffffff021916908373ffffffffffffffffffffffffffffffffffffffff16021790555080600760006101000a81548173ffffffffffffffffffffffffffffffffffffffff021916908373ffffffffffffffffffffffffffffffffffffffff1602179055505050505062000412565b600033905090565b60008060009054906101000a900473ffffffffffffffffffffffffffffffffffffffff169050816000806101000a81548173ffffffffffffffffffffffffffffffffffffffff021916908373ffffffffffffffffffffffffffffffffffffffff1602179055508173ffffffffffffffffffffffffffffffffffffffff168173ffffffffffffffffffffffffffffffffffffffff167f8be0079c531659141344cd1fd0a4f28419497f9722a3daafe3b4186f6b6457e060405160405180910390a35050565b600081519050620002a281620003de565b92915050565b600081519050620002b981620003f8565b92915050565b60008060008060808587031215620002d657600080fd5b6000620002e687828801620002a8565b9450506020620002f987828801620002a8565b93505060406200030c8782880162000291565b92505060606200031f8782880162000291565b91505092959194509250565b60006200033a6018836200038f565b91507f4164647265737365732063616e6e6f74206265207a65726f00000000000000006000830152602082019050919050565b6000602082019050818103600083015262000388816200032b565b9050919050565b600082825260208201905092915050565b6000620003ad82620003b4565b9050919050565b600073ffffffffffffffffffffffffffffffffffffffff82169050919050565b6000819050919050565b620003e981620003a0565b8114620003f557600080fd5b50565b6200040381620003d4565b81146200040f57600080fd5b50565b612cf880620004226000396000f3fe60806040526004361061012a5760003560e01c806385dd3008116100ab578063b93141351161006f578063b931413514610373578063cdd78cfc146103b0578063de74e57b146103db578063e3b6a1f61461041b578063ed14834f14610458578063f2fde38b146104835761012a565b806385dd30081461029c5780638a71bb2d146102c75780638da5cb5b146102f2578063aaccf1ec1461031d578063ad2f852a146103485761012a565b80635e4e8d65116100f25780635e4e8d65146101df578063715018a61461020857806378578bb31461021f5780637bdaceef146102485780638456cb59146102855761012a565b8063305a67a81461012f5780633f4ba83a146101585780634e3137961461016f57806351ed8288146101985780635c975abb146101b4575b600080fd5b34801561013b57600080fd5b5061015660048036038101906101519190611ea8565b6104ac565b005b34801561016457600080fd5b5061016d610647565b005b34801561017b57600080fd5b5061019660048036038101906101919190611dec565b610669565b005b6101b260048036038101906101ad9190611ea8565b610af6565b005b3480156101c057600080fd5b506101c96111c3565b6040516101d691906126bb565b60405180910390f35b3480156101eb57600080fd5b5061020660048036038101906102019190611db0565b6111da565b005b34801561021457600080fd5b5061021d611321565b005b34801561022b57600080fd5b5061024660048036038101906102419190611ed1565b611335565b005b34801561025457600080fd5b5061026f600480360381019061026a9190611ea8565b61135f565b60405161027c91906125a2565b60405180910390f35b34801561029157600080fd5b5061029a611392565b005b3480156102a857600080fd5b506102b16113b4565b6040516102be919061265b565b60405180910390f35b3480156102d357600080fd5b506102dc61140c565b6040516102e991906128d6565b60405180910390f35b3480156102fe57600080fd5b50610307611412565b60405161031491906125a2565b60405180910390f35b34801561032957600080fd5b5061033261143b565b60405161033f91906128d6565b60405180910390f35b34801561035457600080fd5b5061035d611441565b60405161036a91906125a2565b60405180910390f35b34801561037f57600080fd5b5061039a60048036038101906103959190611ea8565b611467565b6040516103a79190612639565b60405180910390f35b3480156103bc57600080fd5b506103c561173c565b6040516103d291906128d6565b60405180910390f35b3480156103e757600080fd5b5061040260048036038101906103fd9190611ea8565b611742565b60405161041294939291906125f4565b60405180910390f35b34801561042757600080fd5b50610442600480360381019061043d9190611ea8565b6117b2565b60405161044f91906128d6565b60405180910390f35b34801561046457600080fd5b5061046d6117d6565b60405161047a91906125a2565b60405180910390f35b34801561048f57600080fd5b506104aa60048036038101906104a59190611d5e565b6117fc565b005b6104b4611880565b3373ffffffffffffffffffffffffffffffffffffffff166009600083815260200190815260200160002060009054906101000a900473ffffffffffffffffffffffffffffffffffffffff1673ffffffffffffffffffffffffffffffffffffffff1614610555576040517f08c379a000000000000000000000000000000000000000000000000000000000815260040161054c906127f6565b60405180910390fd5b60086000828152602001908152602001600020600080820160006101000a81549073ffffffffffffffffffffffffffffffffffffffff02191690556001820160006105a09190611b7c565b6002820160006101000a81549073ffffffffffffffffffffffffffffffffffffffff02191690556003820160009055600482016000905550506009600082815260200190815260200160002060006101000a81549073ffffffffffffffffffffffffffffffffffffffff0219169055807fc0c55a6edead4433d18cb1e287a0a20a2fa003a6f483bc9823d2e504d70d1c6760405160405180910390a26106446118d0565b50565b61064f6118d9565b610657611880565b61065f611957565b6106676118d0565b565b6106716119ba565b610679611880565b600082116106bc576040517f08c379a00000000000000000000000000000000000000000000000000000000081526004016106b390612876565b60405180910390fd5b600081116106ff576040517f08c379a00000000000000000000000000000000000000000000000000000000081526004016106f690612856565b60405180910390fd5b6000835111610743576040517f08c379a000000000000000000000000000000000000000000000000000000000815260040161073a906127d6565b60405180910390fd5b600084905060005b84518110156108a357600085828151811061078f577f4e487b7100000000000000000000000000000000000000000000000000000000600052603260045260246000fd5b602002602001015190503373ffffffffffffffffffffffffffffffffffffffff168373ffffffffffffffffffffffffffffffffffffffff16636352211e836040518263ffffffff1660e01b81526004016107e991906128d6565b60206040518083038186803b15801561080157600080fd5b505afa158015610815573d6000803e3d6000fd5b505050506040513d601f19601f820116820180604052508101906108399190611d87565b73ffffffffffffffffffffffffffffffffffffffff161461088f576040517f08c379a000000000000000000000000000000000000000000000000000000000815260040161088690612736565b60405180910390fd5b50808061089b90612bad565b91505061074b565b506040518060a001604052808673ffffffffffffffffffffffffffffffffffffffff1681526020018581526020013373ffffffffffffffffffffffffffffffffffffffff16815260200184815260200183426108ff9190612a1d565b81525060086000600a54815260200190815260200160002060008201518160000160006101000a81548173ffffffffffffffffffffffffffffffffffffffff021916908373ffffffffffffffffffffffffffffffffffffffff160217905550602082015181600101908051906020019061097a929190611b9d565b5060408201518160020160006101000a81548173ffffffffffffffffffffffffffffffffffffffff021916908373ffffffffffffffffffffffffffffffffffffffff16021790555060608201518160030155608082015181600401559050503360096000600a54815260200190815260200160002060006101000a81548173ffffffffffffffffffffffffffffffffffffffff021916908373ffffffffffffffffffffffffffffffffffffffff1602179055506003600a5490806001815401808255809150506001900390600052602060002001600090919091909150558473ffffffffffffffffffffffffffffffffffffffff163373ffffffffffffffffffffffffffffffffffffffff16600a547fb135ab5d6fb2741efa75bf597e471845ca0a87fc756c5ab2a23f77639e3a894187878742610ab89190612a1d565b604051610ac79392919061267d565b60405180910390a4600a6000815480929190610ae290612bad565b919050555050610af06118d0565b50505050565b610afe6119ba565b610b06611880565b60003411610b49576040517f08c379a0000000000000000000000000000000000000000000000000000000008152600401610b4090612896565b60405180910390fd5b6000600860008381526020019081526020016000209050600073ffffffffffffffffffffffffffffffffffffffff168160020160009054906101000a900473ffffffffffffffffffffffffffffffffffffffff1673ffffffffffffffffffffffffffffffffffffffff161415610bf4576040517f08c379a0000000000000000000000000000000000000000000000000000000008152600401610beb90612816565b60405180910390fd5b8060040154421115610c3b576040517f08c379a0000000000000000000000000000000000000000000000000000000008152600401610c3290612776565b60405180910390fd5b80600301543414610c81576040517f08c379a0000000000000000000000000000000000000000000000000000000008152600401610c7890612796565b60405180910390fd5b60006127106004548360030154610c989190612aa4565b610ca29190612a73565b905060006127106005548460030154610cbb9190612aa4565b610cc59190612a73565b9050600081838560030154610cda9190612afe565b610ce49190612afe565b905060008460000160009054906101000a900473ffffffffffffffffffffffffffffffffffffffff16905060005b8560010180549050811015610f2d576000866001018281548110610d5f577f4e487b7100000000000000000000000000000000000000000000000000000000600052603260045260246000fd5b906000526020600020015490508660020160009054906101000a900473ffffffffffffffffffffffffffffffffffffffff1673ffffffffffffffffffffffffffffffffffffffff168373ffffffffffffffffffffffffffffffffffffffff16636352211e836040518263ffffffff1660e01b8152600401610de091906128d6565b60206040518083038186803b158015610df857600080fd5b505afa158015610e0c573d6000803e3d6000fd5b505050506040513d601f19601f82011682018060405250810190610e309190611d87565b73ffffffffffffffffffffffffffffffffffffffff1614610e86576040517f08c379a0000000000000000000000000000000000000000000000000000000008152600401610e7d906126f6565b60405180910390fd5b8273ffffffffffffffffffffffffffffffffffffffff166342842e0e8860020160009054906101000a900473ffffffffffffffffffffffffffffffffffffffff1633846040518463ffffffff1660e01b8152600401610ee7939291906125bd565b600060405180830381600087803b158015610f0157600080fd5b505af1158015610f15573d6000803e3d6000fd5b50505050508080610f2590612bad565b915050610d12565b508460020160009054906101000a900473ffffffffffffffffffffffffffffffffffffffff1673ffffffffffffffffffffffffffffffffffffffff166108fc839081150290604051600060405180830381858888f19350505050158015610f98573d6000803e3d6000fd5b50600660009054906101000a900473ffffffffffffffffffffffffffffffffffffffff1673ffffffffffffffffffffffffffffffffffffffff166108fc859081150290604051600060405180830381858888f19350505050158015611001573d6000803e3d6000fd5b50600760009054906101000a900473ffffffffffffffffffffffffffffffffffffffff1673ffffffffffffffffffffffffffffffffffffffff166108fc849081150290604051600060405180830381858888f1935050505015801561106a573d6000803e3d6000fd5b503373ffffffffffffffffffffffffffffffffffffffff168560020160009054906101000a900473ffffffffffffffffffffffffffffffffffffffff1673ffffffffffffffffffffffffffffffffffffffff16877f8562eb94748e30bb0071e932744ce902b460c683474fcb3bfd567ffa16b1afb288600301546040516110f191906128d6565b60405180910390a460086000878152602001908152602001600020600080820160006101000a81549073ffffffffffffffffffffffffffffffffffffffff02191690556001820160006111449190611b7c565b6002820160006101000a81549073ffffffffffffffffffffffffffffffffffffffff02191690556003820160009055600482016000905550506009600087815260200190815260200160002060006101000a81549073ffffffffffffffffffffffffffffffffffffffff021916905550505050506111c06118d0565b50565b6000600260009054906101000a900460ff16905090565b6111e26118d9565b6111ea611880565b600073ffffffffffffffffffffffffffffffffffffffff168273ffffffffffffffffffffffffffffffffffffffff16141580156112545750600073ffffffffffffffffffffffffffffffffffffffff168173ffffffffffffffffffffffffffffffffffffffff1614155b611293576040517f08c379a000000000000000000000000000000000000000000000000000000000815260040161128a90612756565b60405180910390fd5b81600660006101000a81548173ffffffffffffffffffffffffffffffffffffffff021916908373ffffffffffffffffffffffffffffffffffffffff16021790555080600760006101000a81548173ffffffffffffffffffffffffffffffffffffffff021916908373ffffffffffffffffffffffffffffffffffffffff16021790555061131d6118d0565b5050565b6113296118d9565b6113336000611a04565b565b61133d6118d9565b611345611880565b816004819055508060058190555061135b6118d0565b5050565b60096020528060005260406000206000915054906101000a900473ffffffffffffffffffffffffffffffffffffffff1681565b61139a6118d9565b6113a2611880565b6113aa611ac8565b6113b26118d0565b565b6060600380548060200260200160405190810160405280929190818152602001828054801561140257602002820191906000526020600020905b8154815260200190600101908083116113ee575b5050505050905090565b60045481565b60008060009054906101000a900473ffffffffffffffffffffffffffffffffffffffff16905090565b600a5481565b600660009054906101000a900473ffffffffffffffffffffffffffffffffffffffff1681565b60606000600860008481526020019081526020016000209050600073ffffffffffffffffffffffffffffffffffffffff168160020160009054906101000a900473ffffffffffffffffffffffffffffffffffffffff1673ffffffffffffffffffffffffffffffffffffffff161415611514576040517f08c379a000000000000000000000000000000000000000000000000000000000815260040161150b90612816565b60405180910390fd5b6000816001018054905067ffffffffffffffff81111561155d577f4e487b7100000000000000000000000000000000000000000000000000000000600052604160045260246000fd5b60405190808252806020026020018201604052801561159657816020015b611583611bea565b81526020019060019003908161157b5790505b50905060005b82600101805490508110156117315760008360010182815481106115e9577f4e487b7100000000000000000000000000000000000000000000000000000000600052603260045260246000fd5b9060005260206000200154905060006040518060200160405280600081525090508460000160009054906101000a900473ffffffffffffffffffffffffffffffffffffffff1673ffffffffffffffffffffffffffffffffffffffff1663c87b56dd836040518263ffffffff1660e01b815260040161166791906128d6565b60006040518083038186803b15801561167f57600080fd5b505afa9250505080156116b557506040513d6000823e3d601f19601f820116820180604052508101906116b29190611e67565b60015b6116be576116c3565b809150505b604051806040016040528083815260200182815250848481518110611711577f4e487b7100000000000000000000000000000000000000000000000000000000600052603260045260246000fd5b60200260200101819052505050808061172990612bad565b91505061159c565b508092505050919050565b60055481565b60086020528060005260406000206000915090508060000160009054906101000a900473ffffffffffffffffffffffffffffffffffffffff16908060020160009054906101000a900473ffffffffffffffffffffffffffffffffffffffff16908060030154908060040154905084565b600381815481106117c257600080fd5b906000526020600020016000915090505481565b600760009054906101000a900473ffffffffffffffffffffffffffffffffffffffff1681565b6118046118d9565b600073ffffffffffffffffffffffffffffffffffffffff168173ffffffffffffffffffffffffffffffffffffffff161415611874576040517f08c379a000000000000000000000000000000000000000000000000000000000815260040161186b90612716565b60405180910390fd5b61187d81611a04565b50565b600260015414156118c6576040517f08c379a00000000000000000000000000000000000000000000000000000000081526004016118bd906128b6565b60405180910390fd5b6002600181905550565b60018081905550565b6118e1611b2b565b73ffffffffffffffffffffffffffffffffffffffff166118ff611412565b73ffffffffffffffffffffffffffffffffffffffff1614611955576040517f08c379a000000000000000000000000000000000000000000000000000000000815260040161194c90612836565b60405180910390fd5b565b61195f611b33565b6000600260006101000a81548160ff0219169083151502179055507f5db9ee0a495bf2e6ff9c91a7834c1ba4fdd244a5e8aa4e537bd38aeae4b073aa6119a3611b2b565b6040516119b091906125a2565b60405180910390a1565b6119c26111c3565b15611a02576040517f08c379a00000000000000000000000000000000000000000000000000000000081526004016119f9906127b6565b60405180910390fd5b565b60008060009054906101000a900473ffffffffffffffffffffffffffffffffffffffff169050816000806101000a81548173ffffffffffffffffffffffffffffffffffffffff021916908373ffffffffffffffffffffffffffffffffffffffff1602179055508173ffffffffffffffffffffffffffffffffffffffff168173ffffffffffffffffffffffffffffffffffffffff167f8be0079c531659141344cd1fd0a4f28419497f9722a3daafe3b4186f6b6457e060405160405180910390a35050565b611ad06119ba565b6001600260006101000a81548160ff0219169083151502179055507f62e78cea01bee320cd4e420270b5ea74000d11b0c9f74754ebdbfc544b05a258611b14611b2b565b604051611b2191906125a2565b60405180910390a1565b600033905090565b611b3b6111c3565b611b7a576040517f08c379a0000000000000000000000000000000000000000000000000000000008152600401611b71906126d6565b60405180910390fd5b565b5080546000825590600052602060002090810190611b9a9190611c04565b50565b828054828255906000526020600020908101928215611bd9579160200282015b82811115611bd8578251825591602001919060010190611bbd565b5b509050611be69190611c04565b5090565b604051806040016040528060008152602001606081525090565b5b80821115611c1d576000816000905550600101611c05565b5090565b6000611c34611c2f84612922565b6128f1565b90508083825260208201905082856020860282011115611c5357600080fd5b60005b85811015611c835781611c698882611d49565b845260208401935060208301925050600181019050611c56565b5050509392505050565b6000611ca0611c9b8461294e565b6128f1565b905082815260208101848484011115611cb857600080fd5b611cc3848285612b7a565b509392505050565b600081359050611cda81612c94565b92915050565b600081519050611cef81612c94565b92915050565b600082601f830112611d0657600080fd5b8135611d16848260208601611c21565b91505092915050565b600082601f830112611d3057600080fd5b8151611d40848260208601611c8d565b91505092915050565b600081359050611d5881612cab565b92915050565b600060208284031215611d7057600080fd5b6000611d7e84828501611ccb565b91505092915050565b600060208284031215611d9957600080fd5b6000611da784828501611ce0565b91505092915050565b60008060408385031215611dc357600080fd5b6000611dd185828601611ccb565b9250506020611de285828601611ccb565b9150509250929050565b60008060008060808587031215611e0257600080fd5b6000611e1087828801611ccb565b945050602085013567ffffffffffffffff811115611e2d57600080fd5b611e3987828801611cf5565b9350506040611e4a87828801611d49565b9250506060611e5b87828801611d49565b91505092959194509250565b600060208284031215611e7957600080fd5b600082015167ffffffffffffffff811115611e9357600080fd5b611e9f84828501611d1f565b91505092915050565b600060208284031215611eba57600080fd5b6000611ec884828501611d49565b91505092915050565b60008060408385031215611ee457600080fd5b6000611ef285828601611d49565b9250506020611f0385828601611d49565b9150509250929050565b6000611f198383612547565b905092915050565b6000611f2d8383612584565b60208301905092915050565b611f4281612b32565b82525050565b6000611f538261299e565b611f5d81856129d9565b935083602082028501611f6f8561297e565b8060005b85811015611fab5784840389528151611f8c8582611f0d565b9450611f97836129bf565b925060208a01995050600181019050611f73565b50829750879550505050505092915050565b6000611fc8826129a9565b611fd281856129ea565b9350611fdd8361298e565b8060005b8381101561200e578151611ff58882611f21565b9750612000836129cc565b925050600181019050611fe1565b5085935050505092915050565b61202481612b44565b82525050565b6000612035826129b4565b61203f81856129fb565b935061204f818560208601612b7a565b61205881612c83565b840191505092915050565b6000612070601483612a0c565b91507f5061757361626c653a206e6f74207061757365640000000000000000000000006000830152602082019050919050565b60006120b0602683612a0c565b91507f53656c6c6572206e6f206c6f6e676572206f776e73206f6e65206f662074686560008301527f204e4654732e00000000000000000000000000000000000000000000000000006020830152604082019050919050565b6000612116602683612a0c565b91507f4f776e61626c653a206e6577206f776e657220697320746865207a65726f206160008301527f64647265737300000000000000000000000000000000000000000000000000006020830152604082019050919050565b600061217c602083612a0c565b91507f596f75206d757374206f776e20746865204e465420746f206c6973742069742e6000830152602082019050919050565b60006121bc601883612a0c565b91507f4164647265737365732063616e6e6f74206265207a65726f00000000000000006000830152602082019050919050565b60006121fc601983612a0c565b91507f54686973206c697374696e672068617320657870697265642e000000000000006000830152602082019050919050565b600061223c602e83612a0c565b91507f53656e742076616c7565206d75737420626520657175616c20746f207468652060008301527f6c697374696e672070726963652e0000000000000000000000000000000000006020830152604082019050919050565b60006122a2601083612a0c565b91507f5061757361626c653a20706175736564000000000000000000000000000000006000830152602082019050919050565b60006122e2601b83612a0c565b91507f4d757374206c697374206174206c65617374206f6e65204e46542e00000000006000830152602082019050919050565b6000612322602583612a0c565b91507f4f6e6c7920746865206c697374696e67206f776e65722063616e2063616e636560008301527f6c2069742e0000000000000000000000000000000000000000000000000000006020830152604082019050919050565b6000612388601783612a0c565b91507f4c697374696e6720646f6573206e6f742065786973742e0000000000000000006000830152602082019050919050565b60006123c8602083612a0c565b91507f4f776e61626c653a2063616c6c6572206973206e6f7420746865206f776e65726000830152602082019050919050565b6000612408602383612a0c565b91507f446561646c696e65206d7573742062652067726561746572207468616e207a6560008301527f726f2e00000000000000000000000000000000000000000000000000000000006020830152604082019050919050565b600061246e602083612a0c565b91507f5072696365206d7573742062652067726561746572207468616e207a65726f2e6000830152602082019050919050565b60006124ae602583612a0c565b91507f53656e742076616c7565206d7573742062652067726561746572207468616e2060008301527f7a65726f2e0000000000000000000000000000000000000000000000000000006020830152604082019050919050565b6000612514601f83612a0c565b91507f5265656e7472616e637947756172643a207265656e7472616e742063616c6c006000830152602082019050919050565b600060408301600083015161255f6000860182612584565b5060208301518482036020860152612577828261202a565b9150508091505092915050565b61258d81612b70565b82525050565b61259c81612b70565b82525050565b60006020820190506125b76000830184611f39565b92915050565b60006060820190506125d26000830186611f39565b6125df6020830185611f39565b6125ec6040830184612593565b949350505050565b60006080820190506126096000830187611f39565b6126166020830186611f39565b6126236040830185612593565b6126306060830184612593565b95945050505050565b600060208201905081810360008301526126538184611f48565b905092915050565b600060208201905081810360008301526126758184611fbd565b905092915050565b600060608201905081810360008301526126978186611fbd565b90506126a66020830185612593565b6126b36040830184612593565b949350505050565b60006020820190506126d0600083018461201b565b92915050565b600060208201905081810360008301526126ef81612063565b9050919050565b6000602082019050818103600083015261270f816120a3565b9050919050565b6000602082019050818103600083015261272f81612109565b9050919050565b6000602082019050818103600083015261274f8161216f565b9050919050565b6000602082019050818103600083015261276f816121af565b9050919050565b6000602082019050818103600083015261278f816121ef565b9050919050565b600060208201905081810360008301526127af8161222f565b9050919050565b600060208201905081810360008301526127cf81612295565b9050919050565b600060208201905081810360008301526127ef816122d5565b9050919050565b6000602082019050818103600083015261280f81612315565b9050919050565b6000602082019050818103600083015261282f8161237b565b9050919050565b6000602082019050818103600083015261284f816123bb565b9050919050565b6000602082019050818103600083015261286f816123fb565b9050919050565b6000602082019050818103600083015261288f81612461565b9050919050565b600060208201905081810360008301526128af816124a1565b9050919050565b600060208201905081810360008301526128cf81612507565b9050919050565b60006020820190506128eb6000830184612593565b92915050565b6000604051905081810181811067ffffffffffffffff8211171561291857612917612c54565b5b8060405250919050565b600067ffffffffffffffff82111561293d5761293c612c54565b5b602082029050602081019050919050565b600067ffffffffffffffff82111561296957612968612c54565b5b601f19601f8301169050602081019050919050565b6000819050602082019050919050565b6000819050602082019050919050565b600081519050919050565b600081519050919050565b600081519050919050565b6000602082019050919050565b6000602082019050919050565b600082825260208201905092915050565b600082825260208201905092915050565b600082825260208201905092915050565b600082825260208201905092915050565b6000612a2882612b70565b9150612a3383612b70565b9250827fffffffffffffffffffffffffffffffffffffffffffffffffffffffffffffffff03821115612a6857612a67612bf6565b5b828201905092915050565b6000612a7e82612b70565b9150612a8983612b70565b925082612a9957612a98612c25565b5b828204905092915050565b6000612aaf82612b70565b9150612aba83612b70565b9250817fffffffffffffffffffffffffffffffffffffffffffffffffffffffffffffffff0483118215151615612af357612af2612bf6565b5b828202905092915050565b6000612b0982612b70565b9150612b1483612b70565b925082821015612b2757612b26612bf6565b5b828203905092915050565b6000612b3d82612b50565b9050919050565b60008115159050919050565b600073ffffffffffffffffffffffffffffffffffffffff82169050919050565b6000819050919050565b60005b83811015612b98578082015181840152602081019050612b7d565b83811115612ba7576000848401525b50505050565b6000612bb882612b70565b91507fffffffffffffffffffffffffffffffffffffffffffffffffffffffffffffffff821415612beb57612bea612bf6565b5b600182019050919050565b7f4e487b7100000000000000000000000000000000000000000000000000000000600052601160045260246000fd5b7f4e487b7100000000000000000000000000000000000000000000000000000000600052601260045260246000fd5b7f4e487b7100000000000000000000000000000000000000000000000000000000600052604160045260246000fd5b6000601f19601f8301169050919050565b612c9d81612b32565b8114612ca857600080fd5b50565b612cb481612b70565b8114612cbf57600080fd5b5056fea2646970667358221220b7ed458e0e83a8832acbc2706badc44a896bf752db5498737425649cb2bb5fb964736f6c63430008000033",
					"opcodes": "PUSH1 0x80 PUSH1 0x40 MSTORE PUSH1 0x1 PUSH1 0xA SSTORE CALLVALUE DUP1 ISZERO PUSH3 0x16 JUMPI PUSH1 0x0 DUP1 REVERT JUMPDEST POP PUSH1 0x40 MLOAD PUSH3 0x311A CODESIZE SUB DUP1 PUSH3 0x311A DUP4 CODECOPY DUP2 DUP2 ADD PUSH1 0x40 MSTORE DUP2 ADD SWAP1 PUSH3 0x3C SWAP2 SWAP1 PUSH3 0x2BF JUMP JUMPDEST PUSH3 0x5C PUSH3 0x50 PUSH3 0x1C5 PUSH1 0x20 SHL PUSH1 0x20 SHR JUMP JUMPDEST PUSH3 0x1CD PUSH1 0x20 SHL PUSH1 0x20 SHR JUMP JUMPDEST PUSH1 0x1 DUP1 DUP2 SWAP1 SSTORE POP PUSH1 0x0 PUSH1 0x2 PUSH1 0x0 PUSH2 0x100 EXP DUP2 SLOAD DUP2 PUSH1 0xFF MUL NOT AND SWAP1 DUP4 ISZERO ISZERO MUL OR SWAP1 SSTORE POP PUSH1 0x0 PUSH20 0xFFFFFFFFFFFFFFFFFFFFFFFFFFFFFFFFFFFFFFFF AND DUP3 PUSH20 0xFFFFFFFFFFFFFFFFFFFFFFFFFFFFFFFFFFFFFFFF AND EQ ISZERO DUP1 ISZERO PUSH3 0xE9 JUMPI POP PUSH1 0x0 PUSH20 0xFFFFFFFFFFFFFFFFFFFFFFFFFFFFFFFFFFFFFFFF AND DUP2 PUSH20 0xFFFFFFFFFFFFFFFFFFFFFFFFFFFFFFFFFFFFFFFF AND EQ ISZERO JUMPDEST PUSH3 0x12B JUMPI PUSH1 0x40 MLOAD PUSH32 0x8C379A000000000000000000000000000000000000000000000000000000000 DUP2 MSTORE PUSH1 0x4 ADD PUSH3 0x122 SWAP1 PUSH3 0x36D JUMP JUMPDEST PUSH1 0x40 MLOAD DUP1 SWAP2 SUB SWAP1 REVERT JUMPDEST DUP4 PUSH1 0x4 DUP2 SWAP1 SSTORE POP DUP3 PUSH1 0x5 DUP2 SWAP1 SSTORE POP DUP2 PUSH1 0x6 PUSH1 0x0 PUSH2 0x100 EXP DUP2 SLOAD DUP2 PUSH20 0xFFFFFFFFFFFFFFFFFFFFFFFFFFFFFFFFFFFFFFFF MUL NOT AND SWAP1 DUP4 PUSH20 0xFFFFFFFFFFFFFFFFFFFFFFFFFFFFFFFFFFFFFFFF AND MUL OR SWAP1 SSTORE POP DUP1 PUSH1 0x7 PUSH1 0x0 PUSH2 0x100 EXP DUP2 SLOAD DUP2 PUSH20 0xFFFFFFFFFFFFFFFFFFFFFFFFFFFFFFFFFFFFFFFF MUL NOT AND SWAP1 DUP4 PUSH20 0xFFFFFFFFFFFFFFFFFFFFFFFFFFFFFFFFFFFFFFFF AND MUL OR SWAP1 SSTORE POP POP POP POP POP PUSH3 0x412 JUMP JUMPDEST PUSH1 0x0 CALLER SWAP1 POP SWAP1 JUMP JUMPDEST PUSH1 0x0 DUP1 PUSH1 0x0 SWAP1 SLOAD SWAP1 PUSH2 0x100 EXP SWAP1 DIV PUSH20 0xFFFFFFFFFFFFFFFFFFFFFFFFFFFFFFFFFFFFFFFF AND SWAP1 POP DUP2 PUSH1 0x0 DUP1 PUSH2 0x100 EXP DUP2 SLOAD DUP2 PUSH20 0xFFFFFFFFFFFFFFFFFFFFFFFFFFFFFFFFFFFFFFFF MUL NOT AND SWAP1 DUP4 PUSH20 0xFFFFFFFFFFFFFFFFFFFFFFFFFFFFFFFFFFFFFFFF AND MUL OR SWAP1 SSTORE POP DUP2 PUSH20 0xFFFFFFFFFFFFFFFFFFFFFFFFFFFFFFFFFFFFFFFF AND DUP2 PUSH20 0xFFFFFFFFFFFFFFFFFFFFFFFFFFFFFFFFFFFFFFFF AND PUSH32 0x8BE0079C531659141344CD1FD0A4F28419497F9722A3DAAFE3B4186F6B6457E0 PUSH1 0x40 MLOAD PUSH1 0x40 MLOAD DUP1 SWAP2 SUB SWAP1 LOG3 POP POP JUMP JUMPDEST PUSH1 0x0 DUP2 MLOAD SWAP1 POP PUSH3 0x2A2 DUP2 PUSH3 0x3DE JUMP JUMPDEST SWAP3 SWAP2 POP POP JUMP JUMPDEST PUSH1 0x0 DUP2 MLOAD SWAP1 POP PUSH3 0x2B9 DUP2 PUSH3 0x3F8 JUMP JUMPDEST SWAP3 SWAP2 POP POP JUMP JUMPDEST PUSH1 0x0 DUP1 PUSH1 0x0 DUP1 PUSH1 0x80 DUP6 DUP8 SUB SLT ISZERO PUSH3 0x2D6 JUMPI PUSH1 0x0 DUP1 REVERT JUMPDEST PUSH1 0x0 PUSH3 0x2E6 DUP8 DUP3 DUP9 ADD PUSH3 0x2A8 JUMP JUMPDEST SWAP5 POP POP PUSH1 0x20 PUSH3 0x2F9 DUP8 DUP3 DUP9 ADD PUSH3 0x2A8 JUMP JUMPDEST SWAP4 POP POP PUSH1 0x40 PUSH3 0x30C DUP8 DUP3 DUP9 ADD PUSH3 0x291 JUMP JUMPDEST SWAP3 POP POP PUSH1 0x60 PUSH3 0x31F DUP8 DUP3 DUP9 ADD PUSH3 0x291 JUMP JUMPDEST SWAP2 POP POP SWAP3 SWAP6 SWAP2 SWAP5 POP SWAP3 POP JUMP JUMPDEST PUSH1 0x0 PUSH3 0x33A PUSH1 0x18 DUP4 PUSH3 0x38F JUMP JUMPDEST SWAP2 POP PUSH32 0x4164647265737365732063616E6E6F74206265207A65726F0000000000000000 PUSH1 0x0 DUP4 ADD MSTORE PUSH1 0x20 DUP3 ADD SWAP1 POP SWAP2 SWAP1 POP JUMP JUMPDEST PUSH1 0x0 PUSH1 0x20 DUP3 ADD SWAP1 POP DUP2 DUP2 SUB PUSH1 0x0 DUP4 ADD MSTORE PUSH3 0x388 DUP2 PUSH3 0x32B JUMP JUMPDEST SWAP1 POP SWAP2 SWAP1 POP JUMP JUMPDEST PUSH1 0x0 DUP3 DUP3 MSTORE PUSH1 0x20 DUP3 ADD SWAP1 POP SWAP3 SWAP2 POP POP JUMP JUMPDEST PUSH1 0x0 PUSH3 0x3AD DUP3 PUSH3 0x3B4 JUMP JUMPDEST SWAP1 POP SWAP2 SWAP1 POP JUMP JUMPDEST PUSH1 0x0 PUSH20 0xFFFFFFFFFFFFFFFFFFFFFFFFFFFFFFFFFFFFFFFF DUP3 AND SWAP1 POP SWAP2 SWAP1 POP JUMP JUMPDEST PUSH1 0x0 DUP2 SWAP1 POP SWAP2 SWAP1 POP JUMP JUMPDEST PUSH3 0x3E9 DUP2 PUSH3 0x3A0 JUMP JUMPDEST DUP2 EQ PUSH3 0x3F5 JUMPI PUSH1 0x0 DUP1 REVERT JUMPDEST POP JUMP JUMPDEST PUSH3 0x403 DUP2 PUSH3 0x3D4 JUMP JUMPDEST DUP2 EQ PUSH3 0x40F JUMPI PUSH1 0x0 DUP1 REVERT JUMPDEST POP JUMP JUMPDEST PUSH2 0x2CF8 DUP1 PUSH3 0x422 PUSH1 0x0 CODECOPY PUSH1 0x0 RETURN INVALID PUSH1 0x80 PUSH1 0x40 MSTORE PUSH1 0x4 CALLDATASIZE LT PUSH2 0x12A JUMPI PUSH1 0x0 CALLDATALOAD PUSH1 0xE0 SHR DUP1 PUSH4 0x85DD3008 GT PUSH2 0xAB JUMPI DUP1 PUSH4 0xB9314135 GT PUSH2 0x6F JUMPI DUP1 PUSH4 0xB9314135 EQ PUSH2 0x373 JUMPI DUP1 PUSH4 0xCDD78CFC EQ PUSH2 0x3B0 JUMPI DUP1 PUSH4 0xDE74E57B EQ PUSH2 0x3DB JUMPI DUP1 PUSH4 0xE3B6A1F6 EQ PUSH2 0x41B JUMPI DUP1 PUSH4 0xED14834F EQ PUSH2 0x458 JUMPI DUP1 PUSH4 0xF2FDE38B EQ PUSH2 0x483 JUMPI PUSH2 0x12A JUMP JUMPDEST DUP1 PUSH4 0x85DD3008 EQ PUSH2 0x29C JUMPI DUP1 PUSH4 0x8A71BB2D EQ PUSH2 0x2C7 JUMPI DUP1 PUSH4 0x8DA5CB5B EQ PUSH2 0x2F2 JUMPI DUP1 PUSH4 0xAACCF1EC EQ PUSH2 0x31D JUMPI DUP1 PUSH4 0xAD2F852A EQ PUSH2 0x348 JUMPI PUSH2 0x12A JUMP JUMPDEST DUP1 PUSH4 0x5E4E8D65 GT PUSH2 0xF2 JUMPI DUP1 PUSH4 0x5E4E8D65 EQ PUSH2 0x1DF JUMPI DUP1 PUSH4 0x715018A6 EQ PUSH2 0x208 JUMPI DUP1 PUSH4 0x78578BB3 EQ PUSH2 0x21F JUMPI DUP1 PUSH4 0x7BDACEEF EQ PUSH2 0x248 JUMPI DUP1 PUSH4 0x8456CB59 EQ PUSH2 0x285 JUMPI PUSH2 0x12A JUMP JUMPDEST DUP1 PUSH4 0x305A67A8 EQ PUSH2 0x12F JUMPI DUP1 PUSH4 0x3F4BA83A EQ PUSH2 0x158 JUMPI DUP1 PUSH4 0x4E313796 EQ PUSH2 0x16F JUMPI DUP1 PUSH4 0x51ED8288 EQ PUSH2 0x198 JUMPI DUP1 PUSH4 0x5C975ABB EQ PUSH2 0x1B4 JUMPI JUMPDEST PUSH1 0x0 DUP1 REVERT JUMPDEST CALLVALUE DUP1 ISZERO PUSH2 0x13B JUMPI PUSH1 0x0 DUP1 REVERT JUMPDEST POP PUSH2 0x156 PUSH1 0x4 DUP1 CALLDATASIZE SUB DUP2 ADD SWAP1 PUSH2 0x151 SWAP2 SWAP1 PUSH2 0x1EA8 JUMP JUMPDEST PUSH2 0x4AC JUMP JUMPDEST STOP JUMPDEST CALLVALUE DUP1 ISZERO PUSH2 0x164 JUMPI PUSH1 0x0 DUP1 REVERT JUMPDEST POP PUSH2 0x16D PUSH2 0x647 JUMP JUMPDEST STOP JUMPDEST CALLVALUE DUP1 ISZERO PUSH2 0x17B JUMPI PUSH1 0x0 DUP1 REVERT JUMPDEST POP PUSH2 0x196 PUSH1 0x4 DUP1 CALLDATASIZE SUB DUP2 ADD SWAP1 PUSH2 0x191 SWAP2 SWAP1 PUSH2 0x1DEC JUMP JUMPDEST PUSH2 0x669 JUMP JUMPDEST STOP JUMPDEST PUSH2 0x1B2 PUSH1 0x4 DUP1 CALLDATASIZE SUB DUP2 ADD SWAP1 PUSH2 0x1AD SWAP2 SWAP1 PUSH2 0x1EA8 JUMP JUMPDEST PUSH2 0xAF6 JUMP JUMPDEST STOP JUMPDEST CALLVALUE DUP1 ISZERO PUSH2 0x1C0 JUMPI PUSH1 0x0 DUP1 REVERT JUMPDEST POP PUSH2 0x1C9 PUSH2 0x11C3 JUMP JUMPDEST PUSH1 0x40 MLOAD PUSH2 0x1D6 SWAP2 SWAP1 PUSH2 0x26BB JUMP JUMPDEST PUSH1 0x40 MLOAD DUP1 SWAP2 SUB SWAP1 RETURN JUMPDEST CALLVALUE DUP1 ISZERO PUSH2 0x1EB JUMPI PUSH1 0x0 DUP1 REVERT JUMPDEST POP PUSH2 0x206 PUSH1 0x4 DUP1 CALLDATASIZE SUB DUP2 ADD SWAP1 PUSH2 0x201 SWAP2 SWAP1 PUSH2 0x1DB0 JUMP JUMPDEST PUSH2 0x11DA JUMP JUMPDEST STOP JUMPDEST CALLVALUE DUP1 ISZERO PUSH2 0x214 JUMPI PUSH1 0x0 DUP1 REVERT JUMPDEST POP PUSH2 0x21D PUSH2 0x1321 JUMP JUMPDEST STOP JUMPDEST CALLVALUE DUP1 ISZERO PUSH2 0x22B JUMPI PUSH1 0x0 DUP1 REVERT JUMPDEST POP PUSH2 0x246 PUSH1 0x4 DUP1 CALLDATASIZE SUB DUP2 ADD SWAP1 PUSH2 0x241 SWAP2 SWAP1 PUSH2 0x1ED1 JUMP JUMPDEST PUSH2 0x1335 JUMP JUMPDEST STOP JUMPDEST CALLVALUE DUP1 ISZERO PUSH2 0x254 JUMPI PUSH1 0x0 DUP1 REVERT JUMPDEST POP PUSH2 0x26F PUSH1 0x4 DUP1 CALLDATASIZE SUB DUP2 ADD SWAP1 PUSH2 0x26A SWAP2 SWAP1 PUSH2 0x1EA8 JUMP JUMPDEST PUSH2 0x135F JUMP JUMPDEST PUSH1 0x40 MLOAD PUSH2 0x27C SWAP2 SWAP1 PUSH2 0x25A2 JUMP JUMPDEST PUSH1 0x40 MLOAD DUP1 SWAP2 SUB SWAP1 RETURN JUMPDEST CALLVALUE DUP1 ISZERO PUSH2 0x291 JUMPI PUSH1 0x0 DUP1 REVERT JUMPDEST POP PUSH2 0x29A PUSH2 0x1392 JUMP JUMPDEST STOP JUMPDEST CALLVALUE DUP1 ISZERO PUSH2 0x2A8 JUMPI PUSH1 0x0 DUP1 REVERT JUMPDEST POP PUSH2 0x2B1 PUSH2 0x13B4 JUMP JUMPDEST PUSH1 0x40 MLOAD PUSH2 0x2BE SWAP2 SWAP1 PUSH2 0x265B JUMP JUMPDEST PUSH1 0x40 MLOAD DUP1 SWAP2 SUB SWAP1 RETURN JUMPDEST CALLVALUE DUP1 ISZERO PUSH2 0x2D3 JUMPI PUSH1 0x0 DUP1 REVERT JUMPDEST POP PUSH2 0x2DC PUSH2 0x140C JUMP JUMPDEST PUSH1 0x40 MLOAD PUSH2 0x2E9 SWAP2 SWAP1 PUSH2 0x28D6 JUMP JUMPDEST PUSH1 0x40 MLOAD DUP1 SWAP2 SUB SWAP1 RETURN JUMPDEST CALLVALUE DUP1 ISZERO PUSH2 0x2FE JUMPI PUSH1 0x0 DUP1 REVERT JUMPDEST POP PUSH2 0x307 PUSH2 0x1412 JUMP JUMPDEST PUSH1 0x40 MLOAD PUSH2 0x314 SWAP2 SWAP1 PUSH2 0x25A2 JUMP JUMPDEST PUSH1 0x40 MLOAD DUP1 SWAP2 SUB SWAP1 RETURN JUMPDEST CALLVALUE DUP1 ISZERO PUSH2 0x329 JUMPI PUSH1 0x0 DUP1 REVERT JUMPDEST POP PUSH2 0x332 PUSH2 0x143B JUMP JUMPDEST PUSH1 0x40 MLOAD PUSH2 0x33F SWAP2 SWAP1 PUSH2 0x28D6 JUMP JUMPDEST PUSH1 0x40 MLOAD DUP1 SWAP2 SUB SWAP1 RETURN JUMPDEST CALLVALUE DUP1 ISZERO PUSH2 0x354 JUMPI PUSH1 0x0 DUP1 REVERT JUMPDEST POP PUSH2 0x35D PUSH2 0x1441 JUMP JUMPDEST PUSH1 0x40 MLOAD PUSH2 0x36A SWAP2 SWAP1 PUSH2 0x25A2 JUMP JUMPDEST PUSH1 0x40 MLOAD DUP1 SWAP2 SUB SWAP1 RETURN JUMPDEST CALLVALUE DUP1 ISZERO PUSH2 0x37F JUMPI PUSH1 0x0 DUP1 REVERT JUMPDEST POP PUSH2 0x39A PUSH1 0x4 DUP1 CALLDATASIZE SUB DUP2 ADD SWAP1 PUSH2 0x395 SWAP2 SWAP1 PUSH2 0x1EA8 JUMP JUMPDEST PUSH2 0x1467 JUMP JUMPDEST PUSH1 0x40 MLOAD PUSH2 0x3A7 SWAP2 SWAP1 PUSH2 0x2639 JUMP JUMPDEST PUSH1 0x40 MLOAD DUP1 SWAP2 SUB SWAP1 RETURN JUMPDEST CALLVALUE DUP1 ISZERO PUSH2 0x3BC JUMPI PUSH1 0x0 DUP1 REVERT JUMPDEST POP PUSH2 0x3C5 PUSH2 0x173C JUMP JUMPDEST PUSH1 0x40 MLOAD PUSH2 0x3D2 SWAP2 SWAP1 PUSH2 0x28D6 JUMP JUMPDEST PUSH1 0x40 MLOAD DUP1 SWAP2 SUB SWAP1 RETURN JUMPDEST CALLVALUE DUP1 ISZERO PUSH2 0x3E7 JUMPI PUSH1 0x0 DUP1 REVERT JUMPDEST POP PUSH2 0x402 PUSH1 0x4 DUP1 CALLDATASIZE SUB DUP2 ADD SWAP1 PUSH2 0x3FD SWAP2 SWAP1 PUSH2 0x1EA8 JUMP JUMPDEST PUSH2 0x1742 JUMP JUMPDEST PUSH1 0x40 MLOAD PUSH2 0x412 SWAP5 SWAP4 SWAP3 SWAP2 SWAP1 PUSH2 0x25F4 JUMP JUMPDEST PUSH1 0x40 MLOAD DUP1 SWAP2 SUB SWAP1 RETURN JUMPDEST CALLVALUE DUP1 ISZERO PUSH2 0x427 JUMPI PUSH1 0x0 DUP1 REVERT JUMPDEST POP PUSH2 0x442 PUSH1 0x4 DUP1 CALLDATASIZE SUB DUP2 ADD SWAP1 PUSH2 0x43D SWAP2 SWAP1 PUSH2 0x1EA8 JUMP JUMPDEST PUSH2 0x17B2 JUMP JUMPDEST PUSH1 0x40 MLOAD PUSH2 0x44F SWAP2 SWAP1 PUSH2 0x28D6 JUMP JUMPDEST PUSH1 0x40 MLOAD DUP1 SWAP2 SUB SWAP1 RETURN JUMPDEST CALLVALUE DUP1 ISZERO PUSH2 0x464 JUMPI PUSH1 0x0 DUP1 REVERT JUMPDEST POP PUSH2 0x46D PUSH2 0x17D6 JUMP JUMPDEST PUSH1 0x40 MLOAD PUSH2 0x47A SWAP2 SWAP1 PUSH2 0x25A2 JUMP JUMPDEST PUSH1 0x40 MLOAD DUP1 SWAP2 SUB SWAP1 RETURN JUMPDEST CALLVALUE DUP1 ISZERO PUSH2 0x48F JUMPI PUSH1 0x0 DUP1 REVERT JUMPDEST POP PUSH2 0x4AA PUSH1 0x4 DUP1 CALLDATASIZE SUB DUP2 ADD SWAP1 PUSH2 0x4A5 SWAP2 SWAP1 PUSH2 0x1D5E JUMP JUMPDEST PUSH2 0x17FC JUMP JUMPDEST STOP JUMPDEST PUSH2 0x4B4 PUSH2 0x1880 JUMP JUMPDEST CALLER PUSH20 0xFFFFFFFFFFFFFFFFFFFFFFFFFFFFFFFFFFFFFFFF AND PUSH1 0x9 PUSH1 0x0 DUP4 DUP2 MSTORE PUSH1 0x20 ADD SWAP1 DUP2 MSTORE PUSH1 0x20 ADD PUSH1 0x0 KECCAK256 PUSH1 0x0 SWAP1 SLOAD SWAP1 PUSH2 0x100 EXP SWAP1 DIV PUSH20 0xFFFFFFFFFFFFFFFFFFFFFFFFFFFFFFFFFFFFFFFF AND PUSH20 0xFFFFFFFFFFFFFFFFFFFFFFFFFFFFFFFFFFFFFFFF AND EQ PUSH2 0x555 JUMPI PUSH1 0x40 MLOAD PUSH32 0x8C379A000000000000000000000000000000000000000000000000000000000 DUP2 MSTORE PUSH1 0x4 ADD PUSH2 0x54C SWAP1 PUSH2 0x27F6 JUMP JUMPDEST PUSH1 0x40 MLOAD DUP1 SWAP2 SUB SWAP1 REVERT JUMPDEST PUSH1 0x8 PUSH1 0x0 DUP3 DUP2 MSTORE PUSH1 0x20 ADD SWAP1 DUP2 MSTORE PUSH1 0x20 ADD PUSH1 0x0 KECCAK256 PUSH1 0x0 DUP1 DUP3 ADD PUSH1 0x0 PUSH2 0x100 EXP DUP2 SLOAD SWAP1 PUSH20 0xFFFFFFFFFFFFFFFFFFFFFFFFFFFFFFFFFFFFFFFF MUL NOT AND SWAP1 SSTORE PUSH1 0x1 DUP3 ADD PUSH1 0x0 PUSH2 0x5A0 SWAP2 SWAP1 PUSH2 0x1B7C JUMP JUMPDEST PUSH1 0x2 DUP3 ADD PUSH1 0x0 PUSH2 0x100 EXP DUP2 SLOAD SWAP1 PUSH20 0xFFFFFFFFFFFFFFFFFFFFFFFFFFFFFFFFFFFFFFFF MUL NOT AND SWAP1 SSTORE PUSH1 0x3 DUP3 ADD PUSH1 0x0 SWAP1 SSTORE PUSH1 0x4 DUP3 ADD PUSH1 0x0 SWAP1 SSTORE POP POP PUSH1 0x9 PUSH1 0x0 DUP3 DUP2 MSTORE PUSH1 0x20 ADD SWAP1 DUP2 MSTORE PUSH1 0x20 ADD PUSH1 0x0 KECCAK256 PUSH1 0x0 PUSH2 0x100 EXP DUP2 SLOAD SWAP1 PUSH20 0xFFFFFFFFFFFFFFFFFFFFFFFFFFFFFFFFFFFFFFFF MUL NOT AND SWAP1 SSTORE DUP1 PUSH32 0xC0C55A6EDEAD4433D18CB1E287A0A20A2FA003A6F483BC9823D2E504D70D1C67 PUSH1 0x40 MLOAD PUSH1 0x40 MLOAD DUP1 SWAP2 SUB SWAP1 LOG2 PUSH2 0x644 PUSH2 0x18D0 JUMP JUMPDEST POP JUMP JUMPDEST PUSH2 0x64F PUSH2 0x18D9 JUMP JUMPDEST PUSH2 0x657 PUSH2 0x1880 JUMP JUMPDEST PUSH2 0x65F PUSH2 0x1957 JUMP JUMPDEST PUSH2 0x667 PUSH2 0x18D0 JUMP JUMPDEST JUMP JUMPDEST PUSH2 0x671 PUSH2 0x19BA JUMP JUMPDEST PUSH2 0x679 PUSH2 0x1880 JUMP JUMPDEST PUSH1 0x0 DUP3 GT PUSH2 0x6BC JUMPI PUSH1 0x40 MLOAD PUSH32 0x8C379A000000000000000000000000000000000000000000000000000000000 DUP2 MSTORE PUSH1 0x4 ADD PUSH2 0x6B3 SWAP1 PUSH2 0x2876 JUMP JUMPDEST PUSH1 0x40 MLOAD DUP1 SWAP2 SUB SWAP1 REVERT JUMPDEST PUSH1 0x0 DUP2 GT PUSH2 0x6FF JUMPI PUSH1 0x40 MLOAD PUSH32 0x8C379A000000000000000000000000000000000000000000000000000000000 DUP2 MSTORE PUSH1 0x4 ADD PUSH2 0x6F6 SWAP1 PUSH2 0x2856 JUMP JUMPDEST PUSH1 0x40 MLOAD DUP1 SWAP2 SUB SWAP1 REVERT JUMPDEST PUSH1 0x0 DUP4 MLOAD GT PUSH2 0x743 JUMPI PUSH1 0x40 MLOAD PUSH32 0x8C379A000000000000000000000000000000000000000000000000000000000 DUP2 MSTORE PUSH1 0x4 ADD PUSH2 0x73A SWAP1 PUSH2 0x27D6 JUMP JUMPDEST PUSH1 0x40 MLOAD DUP1 SWAP2 SUB SWAP1 REVERT JUMPDEST PUSH1 0x0 DUP5 SWAP1 POP PUSH1 0x0 JUMPDEST DUP5 MLOAD DUP2 LT ISZERO PUSH2 0x8A3 JUMPI PUSH1 0x0 DUP6 DUP3 DUP2 MLOAD DUP2 LT PUSH2 0x78F JUMPI PUSH32 0x4E487B7100000000000000000000000000000000000000000000000000000000 PUSH1 0x0 MSTORE PUSH1 0x32 PUSH1 0x4 MSTORE PUSH1 0x24 PUSH1 0x0 REVERT JUMPDEST PUSH1 0x20 MUL PUSH1 0x20 ADD ADD MLOAD SWAP1 POP CALLER PUSH20 0xFFFFFFFFFFFFFFFFFFFFFFFFFFFFFFFFFFFFFFFF AND DUP4 PUSH20 0xFFFFFFFFFFFFFFFFFFFFFFFFFFFFFFFFFFFFFFFF AND PUSH4 0x6352211E DUP4 PUSH1 0x40 MLOAD DUP3 PUSH4 0xFFFFFFFF AND PUSH1 0xE0 SHL DUP2 MSTORE PUSH1 0x4 ADD PUSH2 0x7E9 SWAP2 SWAP1 PUSH2 0x28D6 JUMP JUMPDEST PUSH1 0x20 PUSH1 0x40 MLOAD DUP1 DUP4 SUB DUP2 DUP7 DUP1 EXTCODESIZE ISZERO DUP1 ISZERO PUSH2 0x801 JUMPI PUSH1 0x0 DUP1 REVERT JUMPDEST POP GAS STATICCALL ISZERO DUP1 ISZERO PUSH2 0x815 JUMPI RETURNDATASIZE PUSH1 0x0 DUP1 RETURNDATACOPY RETURNDATASIZE PUSH1 0x0 REVERT JUMPDEST POP POP POP POP PUSH1 0x40 MLOAD RETURNDATASIZE PUSH1 0x1F NOT PUSH1 0x1F DUP3 ADD AND DUP3 ADD DUP1 PUSH1 0x40 MSTORE POP DUP2 ADD SWAP1 PUSH2 0x839 SWAP2 SWAP1 PUSH2 0x1D87 JUMP JUMPDEST PUSH20 0xFFFFFFFFFFFFFFFFFFFFFFFFFFFFFFFFFFFFFFFF AND EQ PUSH2 0x88F JUMPI PUSH1 0x40 MLOAD PUSH32 0x8C379A000000000000000000000000000000000000000000000000000000000 DUP2 MSTORE PUSH1 0x4 ADD PUSH2 0x886 SWAP1 PUSH2 0x2736 JUMP JUMPDEST PUSH1 0x40 MLOAD DUP1 SWAP2 SUB SWAP1 REVERT JUMPDEST POP DUP1 DUP1 PUSH2 0x89B SWAP1 PUSH2 0x2BAD JUMP JUMPDEST SWAP2 POP POP PUSH2 0x74B JUMP JUMPDEST POP PUSH1 0x40 MLOAD DUP1 PUSH1 0xA0 ADD PUSH1 0x40 MSTORE DUP1 DUP7 PUSH20 0xFFFFFFFFFFFFFFFFFFFFFFFFFFFFFFFFFFFFFFFF AND DUP2 MSTORE PUSH1 0x20 ADD DUP6 DUP2 MSTORE PUSH1 0x20 ADD CALLER PUSH20 0xFFFFFFFFFFFFFFFFFFFFFFFFFFFFFFFFFFFFFFFF AND DUP2 MSTORE PUSH1 0x20 ADD DUP5 DUP2 MSTORE PUSH1 0x20 ADD DUP4 TIMESTAMP PUSH2 0x8FF SWAP2 SWAP1 PUSH2 0x2A1D JUMP JUMPDEST DUP2 MSTORE POP PUSH1 0x8 PUSH1 0x0 PUSH1 0xA SLOAD DUP2 MSTORE PUSH1 0x20 ADD SWAP1 DUP2 MSTORE PUSH1 0x20 ADD PUSH1 0x0 KECCAK256 PUSH1 0x0 DUP3 ADD MLOAD DUP2 PUSH1 0x0 ADD PUSH1 0x0 PUSH2 0x100 EXP DUP2 SLOAD DUP2 PUSH20 0xFFFFFFFFFFFFFFFFFFFFFFFFFFFFFFFFFFFFFFFF MUL NOT AND SWAP1 DUP4 PUSH20 0xFFFFFFFFFFFFFFFFFFFFFFFFFFFFFFFFFFFFFFFF AND MUL OR SWAP1 SSTORE POP PUSH1 0x20 DUP3 ADD MLOAD DUP2 PUSH1 0x1 ADD SWAP1 DUP1 MLOAD SWAP1 PUSH1 0x20 ADD SWAP1 PUSH2 0x97A SWAP3 SWAP2 SWAP1 PUSH2 0x1B9D JUMP JUMPDEST POP PUSH1 0x40 DUP3 ADD MLOAD DUP2 PUSH1 0x2 ADD PUSH1 0x0 PUSH2 0x100 EXP DUP2 SLOAD DUP2 PUSH20 0xFFFFFFFFFFFFFFFFFFFFFFFFFFFFFFFFFFFFFFFF MUL NOT AND SWAP1 DUP4 PUSH20 0xFFFFFFFFFFFFFFFFFFFFFFFFFFFFFFFFFFFFFFFF AND MUL OR SWAP1 SSTORE POP PUSH1 0x60 DUP3 ADD MLOAD DUP2 PUSH1 0x3 ADD SSTORE PUSH1 0x80 DUP3 ADD MLOAD DUP2 PUSH1 0x4 ADD SSTORE SWAP1 POP POP CALLER PUSH1 0x9 PUSH1 0x0 PUSH1 0xA SLOAD DUP2 MSTORE PUSH1 0x20 ADD SWAP1 DUP2 MSTORE PUSH1 0x20 ADD PUSH1 0x0 KECCAK256 PUSH1 0x0 PUSH2 0x100 EXP DUP2 SLOAD DUP2 PUSH20 0xFFFFFFFFFFFFFFFFFFFFFFFFFFFFFFFFFFFFFFFF MUL NOT AND SWAP1 DUP4 PUSH20 0xFFFFFFFFFFFFFFFFFFFFFFFFFFFFFFFFFFFFFFFF AND MUL OR SWAP1 SSTORE POP PUSH1 0x3 PUSH1 0xA SLOAD SWAP1 DUP1 PUSH1 0x1 DUP2 SLOAD ADD DUP1 DUP3 SSTORE DUP1 SWAP2 POP POP PUSH1 0x1 SWAP1 SUB SWAP1 PUSH1 0x0 MSTORE PUSH1 0x20 PUSH1 0x0 KECCAK256 ADD PUSH1 0x0 SWAP1 SWAP2 SWAP1 SWAP2 SWAP1 SWAP2 POP SSTORE DUP5 PUSH20 0xFFFFFFFFFFFFFFFFFFFFFFFFFFFFFFFFFFFFFFFF AND CALLER PUSH20 0xFFFFFFFFFFFFFFFFFFFFFFFFFFFFFFFFFFFFFFFF AND PUSH1 0xA SLOAD PUSH32 0xB135AB5D6FB2741EFA75BF597E471845CA0A87FC756C5AB2A23F77639E3A8941 DUP8 DUP8 DUP8 TIMESTAMP PUSH2 0xAB8 SWAP2 SWAP1 PUSH2 0x2A1D JUMP JUMPDEST PUSH1 0x40 MLOAD PUSH2 0xAC7 SWAP4 SWAP3 SWAP2 SWAP1 PUSH2 0x267D JUMP JUMPDEST PUSH1 0x40 MLOAD DUP1 SWAP2 SUB SWAP1 LOG4 PUSH1 0xA PUSH1 0x0 DUP2 SLOAD DUP1 SWAP3 SWAP2 SWAP1 PUSH2 0xAE2 SWAP1 PUSH2 0x2BAD JUMP JUMPDEST SWAP2 SWAP1 POP SSTORE POP POP PUSH2 0xAF0 PUSH2 0x18D0 JUMP JUMPDEST POP POP POP POP JUMP JUMPDEST PUSH2 0xAFE PUSH2 0x19BA JUMP JUMPDEST PUSH2 0xB06 PUSH2 0x1880 JUMP JUMPDEST PUSH1 0x0 CALLVALUE GT PUSH2 0xB49 JUMPI PUSH1 0x40 MLOAD PUSH32 0x8C379A000000000000000000000000000000000000000000000000000000000 DUP2 MSTORE PUSH1 0x4 ADD PUSH2 0xB40 SWAP1 PUSH2 0x2896 JUMP JUMPDEST PUSH1 0x40 MLOAD DUP1 SWAP2 SUB SWAP1 REVERT JUMPDEST PUSH1 0x0 PUSH1 0x8 PUSH1 0x0 DUP4 DUP2 MSTORE PUSH1 0x20 ADD SWAP1 DUP2 MSTORE PUSH1 0x20 ADD PUSH1 0x0 KECCAK256 SWAP1 POP PUSH1 0x0 PUSH20 0xFFFFFFFFFFFFFFFFFFFFFFFFFFFFFFFFFFFFFFFF AND DUP2 PUSH1 0x2 ADD PUSH1 0x0 SWAP1 SLOAD SWAP1 PUSH2 0x100 EXP SWAP1 DIV PUSH20 0xFFFFFFFFFFFFFFFFFFFFFFFFFFFFFFFFFFFFFFFF AND PUSH20 0xFFFFFFFFFFFFFFFFFFFFFFFFFFFFFFFFFFFFFFFF AND EQ ISZERO PUSH2 0xBF4 JUMPI PUSH1 0x40 MLOAD PUSH32 0x8C379A000000000000000000000000000000000000000000000000000000000 DUP2 MSTORE PUSH1 0x4 ADD PUSH2 0xBEB SWAP1 PUSH2 0x2816 JUMP JUMPDEST PUSH1 0x40 MLOAD DUP1 SWAP2 SUB SWAP1 REVERT JUMPDEST DUP1 PUSH1 0x4 ADD SLOAD TIMESTAMP GT ISZERO PUSH2 0xC3B JUMPI PUSH1 0x40 MLOAD PUSH32 0x8C379A000000000000000000000000000000000000000000000000000000000 DUP2 MSTORE PUSH1 0x4 ADD PUSH2 0xC32 SWAP1 PUSH2 0x2776 JUMP JUMPDEST PUSH1 0x40 MLOAD DUP1 SWAP2 SUB SWAP1 REVERT JUMPDEST DUP1 PUSH1 0x3 ADD SLOAD CALLVALUE EQ PUSH2 0xC81 JUMPI PUSH1 0x40 MLOAD PUSH32 0x8C379A000000000000000000000000000000000000000000000000000000000 DUP2 MSTORE PUSH1 0x4 ADD PUSH2 0xC78 SWAP1 PUSH2 0x2796 JUMP JUMPDEST PUSH1 0x40 MLOAD DUP1 SWAP2 SUB SWAP1 REVERT JUMPDEST PUSH1 0x0 PUSH2 0x2710 PUSH1 0x4 SLOAD DUP4 PUSH1 0x3 ADD SLOAD PUSH2 0xC98 SWAP2 SWAP1 PUSH2 0x2AA4 JUMP JUMPDEST PUSH2 0xCA2 SWAP2 SWAP1 PUSH2 0x2A73 JUMP JUMPDEST SWAP1 POP PUSH1 0x0 PUSH2 0x2710 PUSH1 0x5 SLOAD DUP5 PUSH1 0x3 ADD SLOAD PUSH2 0xCBB SWAP2 SWAP1 PUSH2 0x2AA4 JUMP JUMPDEST PUSH2 0xCC5 SWAP2 SWAP1 PUSH2 0x2A73 JUMP JUMPDEST SWAP1 POP PUSH1 0x0 DUP2 DUP4 DUP6 PUSH1 0x3 ADD SLOAD PUSH2 0xCDA SWAP2 SWAP1 PUSH2 0x2AFE JUMP JUMPDEST PUSH2 0xCE4 SWAP2 SWAP1 PUSH2 0x2AFE JUMP JUMPDEST SWAP1 POP PUSH1 0x0 DUP5 PUSH1 0x0 ADD PUSH1 0x0 SWAP1 SLOAD SWAP1 PUSH2 0x100 EXP SWAP1 DIV PUSH20 0xFFFFFFFFFFFFFFFFFFFFFFFFFFFFFFFFFFFFFFFF AND SWAP1 POP PUSH1 0x0 JUMPDEST DUP6 PUSH1 0x1 ADD DUP1 SLOAD SWAP1 POP DUP2 LT ISZERO PUSH2 0xF2D JUMPI PUSH1 0x0 DUP7 PUSH1 0x1 ADD DUP3 DUP2 SLOAD DUP2 LT PUSH2 0xD5F JUMPI PUSH32 0x4E487B7100000000000000000000000000000000000000000000000000000000 PUSH1 0x0 MSTORE PUSH1 0x32 PUSH1 0x4 MSTORE PUSH1 0x24 PUSH1 0x0 REVERT JUMPDEST SWAP1 PUSH1 0x0 MSTORE PUSH1 0x20 PUSH1 0x0 KECCAK256 ADD SLOAD SWAP1 POP DUP7 PUSH1 0x2 ADD PUSH1 0x0 SWAP1 SLOAD SWAP1 PUSH2 0x100 EXP SWAP1 DIV PUSH20 0xFFFFFFFFFFFFFFFFFFFFFFFFFFFFFFFFFFFFFFFF AND PUSH20 0xFFFFFFFFFFFFFFFFFFFFFFFFFFFFFFFFFFFFFFFF AND DUP4 PUSH20 0xFFFFFFFFFFFFFFFFFFFFFFFFFFFFFFFFFFFFFFFF AND PUSH4 0x6352211E DUP4 PUSH1 0x40 MLOAD DUP3 PUSH4 0xFFFFFFFF AND PUSH1 0xE0 SHL DUP2 MSTORE PUSH1 0x4 ADD PUSH2 0xDE0 SWAP2 SWAP1 PUSH2 0x28D6 JUMP JUMPDEST PUSH1 0x20 PUSH1 0x40 MLOAD DUP1 DUP4 SUB DUP2 DUP7 DUP1 EXTCODESIZE ISZERO DUP1 ISZERO PUSH2 0xDF8 JUMPI PUSH1 0x0 DUP1 REVERT JUMPDEST POP GAS STATICCALL ISZERO DUP1 ISZERO PUSH2 0xE0C JUMPI RETURNDATASIZE PUSH1 0x0 DUP1 RETURNDATACOPY RETURNDATASIZE PUSH1 0x0 REVERT JUMPDEST POP POP POP POP PUSH1 0x40 MLOAD RETURNDATASIZE PUSH1 0x1F NOT PUSH1 0x1F DUP3 ADD AND DUP3 ADD DUP1 PUSH1 0x40 MSTORE POP DUP2 ADD SWAP1 PUSH2 0xE30 SWAP2 SWAP1 PUSH2 0x1D87 JUMP JUMPDEST PUSH20 0xFFFFFFFFFFFFFFFFFFFFFFFFFFFFFFFFFFFFFFFF AND EQ PUSH2 0xE86 JUMPI PUSH1 0x40 MLOAD PUSH32 0x8C379A000000000000000000000000000000000000000000000000000000000 DUP2 MSTORE PUSH1 0x4 ADD PUSH2 0xE7D SWAP1 PUSH2 0x26F6 JUMP JUMPDEST PUSH1 0x40 MLOAD DUP1 SWAP2 SUB SWAP1 REVERT JUMPDEST DUP3 PUSH20 0xFFFFFFFFFFFFFFFFFFFFFFFFFFFFFFFFFFFFFFFF AND PUSH4 0x42842E0E DUP9 PUSH1 0x2 ADD PUSH1 0x0 SWAP1 SLOAD SWAP1 PUSH2 0x100 EXP SWAP1 DIV PUSH20 0xFFFFFFFFFFFFFFFFFFFFFFFFFFFFFFFFFFFFFFFF AND CALLER DUP5 PUSH1 0x40 MLOAD DUP5 PUSH4 0xFFFFFFFF AND PUSH1 0xE0 SHL DUP2 MSTORE PUSH1 0x4 ADD PUSH2 0xEE7 SWAP4 SWAP3 SWAP2 SWAP1 PUSH2 0x25BD JUMP JUMPDEST PUSH1 0x0 PUSH1 0x40 MLOAD DUP1 DUP4 SUB DUP2 PUSH1 0x0 DUP8 DUP1 EXTCODESIZE ISZERO DUP1 ISZERO PUSH2 0xF01 JUMPI PUSH1 0x0 DUP1 REVERT JUMPDEST POP GAS CALL ISZERO DUP1 ISZERO PUSH2 0xF15 JUMPI RETURNDATASIZE PUSH1 0x0 DUP1 RETURNDATACOPY RETURNDATASIZE PUSH1 0x0 REVERT JUMPDEST POP POP POP POP POP DUP1 DUP1 PUSH2 0xF25 SWAP1 PUSH2 0x2BAD JUMP JUMPDEST SWAP2 POP POP PUSH2 0xD12 JUMP JUMPDEST POP DUP5 PUSH1 0x2 ADD PUSH1 0x0 SWAP1 SLOAD SWAP1 PUSH2 0x100 EXP SWAP1 DIV PUSH20 0xFFFFFFFFFFFFFFFFFFFFFFFFFFFFFFFFFFFFFFFF AND PUSH20 0xFFFFFFFFFFFFFFFFFFFFFFFFFFFFFFFFFFFFFFFF AND PUSH2 0x8FC DUP4 SWAP1 DUP2 ISZERO MUL SWAP1 PUSH1 0x40 MLOAD PUSH1 0x0 PUSH1 0x40 MLOAD DUP1 DUP4 SUB DUP2 DUP6 DUP9 DUP9 CALL SWAP4 POP POP POP POP ISZERO DUP1 ISZERO PUSH2 0xF98 JUMPI RETURNDATASIZE PUSH1 0x0 DUP1 RETURNDATACOPY RETURNDATASIZE PUSH1 0x0 REVERT JUMPDEST POP PUSH1 0x6 PUSH1 0x0 SWAP1 SLOAD SWAP1 PUSH2 0x100 EXP SWAP1 DIV PUSH20 0xFFFFFFFFFFFFFFFFFFFFFFFFFFFFFFFFFFFFFFFF AND PUSH20 0xFFFFFFFFFFFFFFFFFFFFFFFFFFFFFFFFFFFFFFFF AND PUSH2 0x8FC DUP6 SWAP1 DUP2 ISZERO MUL SWAP1 PUSH1 0x40 MLOAD PUSH1 0x0 PUSH1 0x40 MLOAD DUP1 DUP4 SUB DUP2 DUP6 DUP9 DUP9 CALL SWAP4 POP POP POP POP ISZERO DUP1 ISZERO PUSH2 0x1001 JUMPI RETURNDATASIZE PUSH1 0x0 DUP1 RETURNDATACOPY RETURNDATASIZE PUSH1 0x0 REVERT JUMPDEST POP PUSH1 0x7 PUSH1 0x0 SWAP1 SLOAD SWAP1 PUSH2 0x100 EXP SWAP1 DIV PUSH20 0xFFFFFFFFFFFFFFFFFFFFFFFFFFFFFFFFFFFFFFFF AND PUSH20 0xFFFFFFFFFFFFFFFFFFFFFFFFFFFFFFFFFFFFFFFF AND PUSH2 0x8FC DUP5 SWAP1 DUP2 ISZERO MUL SWAP1 PUSH1 0x40 MLOAD PUSH1 0x0 PUSH1 0x40 MLOAD DUP1 DUP4 SUB DUP2 DUP6 DUP9 DUP9 CALL SWAP4 POP POP POP POP ISZERO DUP1 ISZERO PUSH2 0x106A JUMPI RETURNDATASIZE PUSH1 0x0 DUP1 RETURNDATACOPY RETURNDATASIZE PUSH1 0x0 REVERT JUMPDEST POP CALLER PUSH20 0xFFFFFFFFFFFFFFFFFFFFFFFFFFFFFFFFFFFFFFFF AND DUP6 PUSH1 0x2 ADD PUSH1 0x0 SWAP1 SLOAD SWAP1 PUSH2 0x100 EXP SWAP1 DIV PUSH20 0xFFFFFFFFFFFFFFFFFFFFFFFFFFFFFFFFFFFFFFFF AND PUSH20 0xFFFFFFFFFFFFFFFFFFFFFFFFFFFFFFFFFFFFFFFF AND DUP8 PUSH32 0x8562EB94748E30BB0071E932744CE902B460C683474FCB3BFD567FFA16B1AFB2 DUP9 PUSH1 0x3 ADD SLOAD PUSH1 0x40 MLOAD PUSH2 0x10F1 SWAP2 SWAP1 PUSH2 0x28D6 JUMP JUMPDEST PUSH1 0x40 MLOAD DUP1 SWAP2 SUB SWAP1 LOG4 PUSH1 0x8 PUSH1 0x0 DUP8 DUP2 MSTORE PUSH1 0x20 ADD SWAP1 DUP2 MSTORE PUSH1 0x20 ADD PUSH1 0x0 KECCAK256 PUSH1 0x0 DUP1 DUP3 ADD PUSH1 0x0 PUSH2 0x100 EXP DUP2 SLOAD SWAP1 PUSH20 0xFFFFFFFFFFFFFFFFFFFFFFFFFFFFFFFFFFFFFFFF MUL NOT AND SWAP1 SSTORE PUSH1 0x1 DUP3 ADD PUSH1 0x0 PUSH2 0x1144 SWAP2 SWAP1 PUSH2 0x1B7C JUMP JUMPDEST PUSH1 0x2 DUP3 ADD PUSH1 0x0 PUSH2 0x100 EXP DUP2 SLOAD SWAP1 PUSH20 0xFFFFFFFFFFFFFFFFFFFFFFFFFFFFFFFFFFFFFFFF MUL NOT AND SWAP1 SSTORE PUSH1 0x3 DUP3 ADD PUSH1 0x0 SWAP1 SSTORE PUSH1 0x4 DUP3 ADD PUSH1 0x0 SWAP1 SSTORE POP POP PUSH1 0x9 PUSH1 0x0 DUP8 DUP2 MSTORE PUSH1 0x20 ADD SWAP1 DUP2 MSTORE PUSH1 0x20 ADD PUSH1 0x0 KECCAK256 PUSH1 0x0 PUSH2 0x100 EXP DUP2 SLOAD SWAP1 PUSH20 0xFFFFFFFFFFFFFFFFFFFFFFFFFFFFFFFFFFFFFFFF MUL NOT AND SWAP1 SSTORE POP POP POP POP POP PUSH2 0x11C0 PUSH2 0x18D0 JUMP JUMPDEST POP JUMP JUMPDEST PUSH1 0x0 PUSH1 0x2 PUSH1 0x0 SWAP1 SLOAD SWAP1 PUSH2 0x100 EXP SWAP1 DIV PUSH1 0xFF AND SWAP1 POP SWAP1 JUMP JUMPDEST PUSH2 0x11E2 PUSH2 0x18D9 JUMP JUMPDEST PUSH2 0x11EA PUSH2 0x1880 JUMP JUMPDEST PUSH1 0x0 PUSH20 0xFFFFFFFFFFFFFFFFFFFFFFFFFFFFFFFFFFFFFFFF AND DUP3 PUSH20 0xFFFFFFFFFFFFFFFFFFFFFFFFFFFFFFFFFFFFFFFF AND EQ ISZERO DUP1 ISZERO PUSH2 0x1254 JUMPI POP PUSH1 0x0 PUSH20 0xFFFFFFFFFFFFFFFFFFFFFFFFFFFFFFFFFFFFFFFF AND DUP2 PUSH20 0xFFFFFFFFFFFFFFFFFFFFFFFFFFFFFFFFFFFFFFFF AND EQ ISZERO JUMPDEST PUSH2 0x1293 JUMPI PUSH1 0x40 MLOAD PUSH32 0x8C379A000000000000000000000000000000000000000000000000000000000 DUP2 MSTORE PUSH1 0x4 ADD PUSH2 0x128A SWAP1 PUSH2 0x2756 JUMP JUMPDEST PUSH1 0x40 MLOAD DUP1 SWAP2 SUB SWAP1 REVERT JUMPDEST DUP2 PUSH1 0x6 PUSH1 0x0 PUSH2 0x100 EXP DUP2 SLOAD DUP2 PUSH20 0xFFFFFFFFFFFFFFFFFFFFFFFFFFFFFFFFFFFFFFFF MUL NOT AND SWAP1 DUP4 PUSH20 0xFFFFFFFFFFFFFFFFFFFFFFFFFFFFFFFFFFFFFFFF AND MUL OR SWAP1 SSTORE POP DUP1 PUSH1 0x7 PUSH1 0x0 PUSH2 0x100 EXP DUP2 SLOAD DUP2 PUSH20 0xFFFFFFFFFFFFFFFFFFFFFFFFFFFFFFFFFFFFFFFF MUL NOT AND SWAP1 DUP4 PUSH20 0xFFFFFFFFFFFFFFFFFFFFFFFFFFFFFFFFFFFFFFFF AND MUL OR SWAP1 SSTORE POP PUSH2 0x131D PUSH2 0x18D0 JUMP JUMPDEST POP POP JUMP JUMPDEST PUSH2 0x1329 PUSH2 0x18D9 JUMP JUMPDEST PUSH2 0x1333 PUSH1 0x0 PUSH2 0x1A04 JUMP JUMPDEST JUMP JUMPDEST PUSH2 0x133D PUSH2 0x18D9 JUMP JUMPDEST PUSH2 0x1345 PUSH2 0x1880 JUMP JUMPDEST DUP2 PUSH1 0x4 DUP2 SWAP1 SSTORE POP DUP1 PUSH1 0x5 DUP2 SWAP1 SSTORE POP PUSH2 0x135B PUSH2 0x18D0 JUMP JUMPDEST POP POP JUMP JUMPDEST PUSH1 0x9 PUSH1 0x20 MSTORE DUP1 PUSH1 0x0 MSTORE PUSH1 0x40 PUSH1 0x0 KECCAK256 PUSH1 0x0 SWAP2 POP SLOAD SWAP1 PUSH2 0x100 EXP SWAP1 DIV PUSH20 0xFFFFFFFFFFFFFFFFFFFFFFFFFFFFFFFFFFFFFFFF AND DUP2 JUMP JUMPDEST PUSH2 0x139A PUSH2 0x18D9 JUMP JUMPDEST PUSH2 0x13A2 PUSH2 0x1880 JUMP JUMPDEST PUSH2 0x13AA PUSH2 0x1AC8 JUMP JUMPDEST PUSH2 0x13B2 PUSH2 0x18D0 JUMP JUMPDEST JUMP JUMPDEST PUSH1 0x60 PUSH1 0x3 DUP1 SLOAD DUP1 PUSH1 0x20 MUL PUSH1 0x20 ADD PUSH1 0x40 MLOAD SWAP1 DUP2 ADD PUSH1 0x40 MSTORE DUP1 SWAP3 SWAP2 SWAP1 DUP2 DUP2 MSTORE PUSH1 0x20 ADD DUP3 DUP1 SLOAD DUP1 ISZERO PUSH2 0x1402 JUMPI PUSH1 0x20 MUL DUP3 ADD SWAP2 SWAP1 PUSH1 0x0 MSTORE PUSH1 0x20 PUSH1 0x0 KECCAK256 SWAP1 JUMPDEST DUP2 SLOAD DUP2 MSTORE PUSH1 0x20 ADD SWAP1 PUSH1 0x1 ADD SWAP1 DUP1 DUP4 GT PUSH2 0x13EE JUMPI JUMPDEST POP POP POP POP POP SWAP1 POP SWAP1 JUMP JUMPDEST PUSH1 0x4 SLOAD DUP2 JUMP JUMPDEST PUSH1 0x0 DUP1 PUSH1 0x0 SWAP1 SLOAD SWAP1 PUSH2 0x100 EXP SWAP1 DIV PUSH20 0xFFFFFFFFFFFFFFFFFFFFFFFFFFFFFFFFFFFFFFFF AND SWAP1 POP SWAP1 JUMP JUMPDEST PUSH1 0xA SLOAD DUP2 JUMP JUMPDEST PUSH1 0x6 PUSH1 0x0 SWAP1 SLOAD SWAP1 PUSH2 0x100 EXP SWAP1 DIV PUSH20 0xFFFFFFFFFFFFFFFFFFFFFFFFFFFFFFFFFFFFFFFF AND DUP2 JUMP JUMPDEST PUSH1 0x60 PUSH1 0x0 PUSH1 0x8 PUSH1 0x0 DUP5 DUP2 MSTORE PUSH1 0x20 ADD SWAP1 DUP2 MSTORE PUSH1 0x20 ADD PUSH1 0x0 KECCAK256 SWAP1 POP PUSH1 0x0 PUSH20 0xFFFFFFFFFFFFFFFFFFFFFFFFFFFFFFFFFFFFFFFF AND DUP2 PUSH1 0x2 ADD PUSH1 0x0 SWAP1 SLOAD SWAP1 PUSH2 0x100 EXP SWAP1 DIV PUSH20 0xFFFFFFFFFFFFFFFFFFFFFFFFFFFFFFFFFFFFFFFF AND PUSH20 0xFFFFFFFFFFFFFFFFFFFFFFFFFFFFFFFFFFFFFFFF AND EQ ISZERO PUSH2 0x1514 JUMPI PUSH1 0x40 MLOAD PUSH32 0x8C379A000000000000000000000000000000000000000000000000000000000 DUP2 MSTORE PUSH1 0x4 ADD PUSH2 0x150B SWAP1 PUSH2 0x2816 JUMP JUMPDEST PUSH1 0x40 MLOAD DUP1 SWAP2 SUB SWAP1 REVERT JUMPDEST PUSH1 0x0 DUP2 PUSH1 0x1 ADD DUP1 SLOAD SWAP1 POP PUSH8 0xFFFFFFFFFFFFFFFF DUP2 GT ISZERO PUSH2 0x155D JUMPI PUSH32 0x4E487B7100000000000000000000000000000000000000000000000000000000 PUSH1 0x0 MSTORE PUSH1 0x41 PUSH1 0x4 MSTORE PUSH1 0x24 PUSH1 0x0 REVERT JUMPDEST PUSH1 0x40 MLOAD SWAP1 DUP1 DUP3 MSTORE DUP1 PUSH1 0x20 MUL PUSH1 0x20 ADD DUP3 ADD PUSH1 0x40 MSTORE DUP1 ISZERO PUSH2 0x1596 JUMPI DUP2 PUSH1 0x20 ADD JUMPDEST PUSH2 0x1583 PUSH2 0x1BEA JUMP JUMPDEST DUP2 MSTORE PUSH1 0x20 ADD SWAP1 PUSH1 0x1 SWAP1 SUB SWAP1 DUP2 PUSH2 0x157B JUMPI SWAP1 POP JUMPDEST POP SWAP1 POP PUSH1 0x0 JUMPDEST DUP3 PUSH1 0x1 ADD DUP1 SLOAD SWAP1 POP DUP2 LT ISZERO PUSH2 0x1731 JUMPI PUSH1 0x0 DUP4 PUSH1 0x1 ADD DUP3 DUP2 SLOAD DUP2 LT PUSH2 0x15E9 JUMPI PUSH32 0x4E487B7100000000000000000000000000000000000000000000000000000000 PUSH1 0x0 MSTORE PUSH1 0x32 PUSH1 0x4 MSTORE PUSH1 0x24 PUSH1 0x0 REVERT JUMPDEST SWAP1 PUSH1 0x0 MSTORE PUSH1 0x20 PUSH1 0x0 KECCAK256 ADD SLOAD SWAP1 POP PUSH1 0x0 PUSH1 0x40 MLOAD DUP1 PUSH1 0x20 ADD PUSH1 0x40 MSTORE DUP1 PUSH1 0x0 DUP2 MSTORE POP SWAP1 POP DUP5 PUSH1 0x0 ADD PUSH1 0x0 SWAP1 SLOAD SWAP1 PUSH2 0x100 EXP SWAP1 DIV PUSH20 0xFFFFFFFFFFFFFFFFFFFFFFFFFFFFFFFFFFFFFFFF AND PUSH20 0xFFFFFFFFFFFFFFFFFFFFFFFFFFFFFFFFFFFFFFFF AND PUSH4 0xC87B56DD DUP4 PUSH1 0x40 MLOAD DUP3 PUSH4 0xFFFFFFFF AND PUSH1 0xE0 SHL DUP2 MSTORE PUSH1 0x4 ADD PUSH2 0x1667 SWAP2 SWAP1 PUSH2 0x28D6 JUMP JUMPDEST PUSH1 0x0 PUSH1 0x40 MLOAD DUP1 DUP4 SUB DUP2 DUP7 DUP1 EXTCODESIZE ISZERO DUP1 ISZERO PUSH2 0x167F JUMPI PUSH1 0x0 DUP1 REVERT JUMPDEST POP GAS STATICCALL SWAP3 POP POP POP DUP1 ISZERO PUSH2 0x16B5 JUMPI POP PUSH1 0x40 MLOAD RETURNDATASIZE PUSH1 0x0 DUP3 RETURNDATACOPY RETURNDATASIZE PUSH1 0x1F NOT PUSH1 0x1F DUP3 ADD AND DUP3 ADD DUP1 PUSH1 0x40 MSTORE POP DUP2 ADD SWAP1 PUSH2 0x16B2 SWAP2 SWAP1 PUSH2 0x1E67 JUMP JUMPDEST PUSH1 0x1 JUMPDEST PUSH2 0x16BE JUMPI PUSH2 0x16C3 JUMP JUMPDEST DUP1 SWAP2 POP POP JUMPDEST PUSH1 0x40 MLOAD DUP1 PUSH1 0x40 ADD PUSH1 0x40 MSTORE DUP1 DUP4 DUP2 MSTORE PUSH1 0x20 ADD DUP3 DUP2 MSTORE POP DUP5 DUP5 DUP2 MLOAD DUP2 LT PUSH2 0x1711 JUMPI PUSH32 0x4E487B7100000000000000000000000000000000000000000000000000000000 PUSH1 0x0 MSTORE PUSH1 0x32 PUSH1 0x4 MSTORE PUSH1 0x24 PUSH1 0x0 REVERT JUMPDEST PUSH1 0x20 MUL PUSH1 0x20 ADD ADD DUP2 SWAP1 MSTORE POP POP POP DUP1 DUP1 PUSH2 0x1729 SWAP1 PUSH2 0x2BAD JUMP JUMPDEST SWAP2 POP POP PUSH2 0x159C JUMP JUMPDEST POP DUP1 SWAP3 POP POP POP SWAP2 SWAP1 POP JUMP JUMPDEST PUSH1 0x5 SLOAD DUP2 JUMP JUMPDEST PUSH1 0x8 PUSH1 0x20 MSTORE DUP1 PUSH1 0x0 MSTORE PUSH1 0x40 PUSH1 0x0 KECCAK256 PUSH1 0x0 SWAP2 POP SWAP1 POP DUP1 PUSH1 0x0 ADD PUSH1 0x0 SWAP1 SLOAD SWAP1 PUSH2 0x100 EXP SWAP1 DIV PUSH20 0xFFFFFFFFFFFFFFFFFFFFFFFFFFFFFFFFFFFFFFFF AND SWAP1 DUP1 PUSH1 0x2 ADD PUSH1 0x0 SWAP1 SLOAD SWAP1 PUSH2 0x100 EXP SWAP1 DIV PUSH20 0xFFFFFFFFFFFFFFFFFFFFFFFFFFFFFFFFFFFFFFFF AND SWAP1 DUP1 PUSH1 0x3 ADD SLOAD SWAP1 DUP1 PUSH1 0x4 ADD SLOAD SWAP1 POP DUP5 JUMP JUMPDEST PUSH1 0x3 DUP2 DUP2 SLOAD DUP2 LT PUSH2 0x17C2 JUMPI PUSH1 0x0 DUP1 REVERT JUMPDEST SWAP1 PUSH1 0x0 MSTORE PUSH1 0x20 PUSH1 0x0 KECCAK256 ADD PUSH1 0x0 SWAP2 POP SWAP1 POP SLOAD DUP2 JUMP JUMPDEST PUSH1 0x7 PUSH1 0x0 SWAP1 SLOAD SWAP1 PUSH2 0x100 EXP SWAP1 DIV PUSH20 0xFFFFFFFFFFFFFFFFFFFFFFFFFFFFFFFFFFFFFFFF AND DUP2 JUMP JUMPDEST PUSH2 0x1804 PUSH2 0x18D9 JUMP JUMPDEST PUSH1 0x0 PUSH20 0xFFFFFFFFFFFFFFFFFFFFFFFFFFFFFFFFFFFFFFFF AND DUP2 PUSH20 0xFFFFFFFFFFFFFFFFFFFFFFFFFFFFFFFFFFFFFFFF AND EQ ISZERO PUSH2 0x1874 JUMPI PUSH1 0x40 MLOAD PUSH32 0x8C379A000000000000000000000000000000000000000000000000000000000 DUP2 MSTORE PUSH1 0x4 ADD PUSH2 0x186B SWAP1 PUSH2 0x2716 JUMP JUMPDEST PUSH1 0x40 MLOAD DUP1 SWAP2 SUB SWAP1 REVERT JUMPDEST PUSH2 0x187D DUP2 PUSH2 0x1A04 JUMP JUMPDEST POP JUMP JUMPDEST PUSH1 0x2 PUSH1 0x1 SLOAD EQ ISZERO PUSH2 0x18C6 JUMPI PUSH1 0x40 MLOAD PUSH32 0x8C379A000000000000000000000000000000000000000000000000000000000 DUP2 MSTORE PUSH1 0x4 ADD PUSH2 0x18BD SWAP1 PUSH2 0x28B6 JUMP JUMPDEST PUSH1 0x40 MLOAD DUP1 SWAP2 SUB SWAP1 REVERT JUMPDEST PUSH1 0x2 PUSH1 0x1 DUP2 SWAP1 SSTORE POP JUMP JUMPDEST PUSH1 0x1 DUP1 DUP2 SWAP1 SSTORE POP JUMP JUMPDEST PUSH2 0x18E1 PUSH2 0x1B2B JUMP JUMPDEST PUSH20 0xFFFFFFFFFFFFFFFFFFFFFFFFFFFFFFFFFFFFFFFF AND PUSH2 0x18FF PUSH2 0x1412 JUMP JUMPDEST PUSH20 0xFFFFFFFFFFFFFFFFFFFFFFFFFFFFFFFFFFFFFFFF AND EQ PUSH2 0x1955 JUMPI PUSH1 0x40 MLOAD PUSH32 0x8C379A000000000000000000000000000000000000000000000000000000000 DUP2 MSTORE PUSH1 0x4 ADD PUSH2 0x194C SWAP1 PUSH2 0x2836 JUMP JUMPDEST PUSH1 0x40 MLOAD DUP1 SWAP2 SUB SWAP1 REVERT JUMPDEST JUMP JUMPDEST PUSH2 0x195F PUSH2 0x1B33 JUMP JUMPDEST PUSH1 0x0 PUSH1 0x2 PUSH1 0x0 PUSH2 0x100 EXP DUP2 SLOAD DUP2 PUSH1 0xFF MUL NOT AND SWAP1 DUP4 ISZERO ISZERO MUL OR SWAP1 SSTORE POP PUSH32 0x5DB9EE0A495BF2E6FF9C91A7834C1BA4FDD244A5E8AA4E537BD38AEAE4B073AA PUSH2 0x19A3 PUSH2 0x1B2B JUMP JUMPDEST PUSH1 0x40 MLOAD PUSH2 0x19B0 SWAP2 SWAP1 PUSH2 0x25A2 JUMP JUMPDEST PUSH1 0x40 MLOAD DUP1 SWAP2 SUB SWAP1 LOG1 JUMP JUMPDEST PUSH2 0x19C2 PUSH2 0x11C3 JUMP JUMPDEST ISZERO PUSH2 0x1A02 JUMPI PUSH1 0x40 MLOAD PUSH32 0x8C379A000000000000000000000000000000000000000000000000000000000 DUP2 MSTORE PUSH1 0x4 ADD PUSH2 0x19F9 SWAP1 PUSH2 0x27B6 JUMP JUMPDEST PUSH1 0x40 MLOAD DUP1 SWAP2 SUB SWAP1 REVERT JUMPDEST JUMP JUMPDEST PUSH1 0x0 DUP1 PUSH1 0x0 SWAP1 SLOAD SWAP1 PUSH2 0x100 EXP SWAP1 DIV PUSH20 0xFFFFFFFFFFFFFFFFFFFFFFFFFFFFFFFFFFFFFFFF AND SWAP1 POP DUP2 PUSH1 0x0 DUP1 PUSH2 0x100 EXP DUP2 SLOAD DUP2 PUSH20 0xFFFFFFFFFFFFFFFFFFFFFFFFFFFFFFFFFFFFFFFF MUL NOT AND SWAP1 DUP4 PUSH20 0xFFFFFFFFFFFFFFFFFFFFFFFFFFFFFFFFFFFFFFFF AND MUL OR SWAP1 SSTORE POP DUP2 PUSH20 0xFFFFFFFFFFFFFFFFFFFFFFFFFFFFFFFFFFFFFFFF AND DUP2 PUSH20 0xFFFFFFFFFFFFFFFFFFFFFFFFFFFFFFFFFFFFFFFF AND PUSH32 0x8BE0079C531659141344CD1FD0A4F28419497F9722A3DAAFE3B4186F6B6457E0 PUSH1 0x40 MLOAD PUSH1 0x40 MLOAD DUP1 SWAP2 SUB SWAP1 LOG3 POP POP JUMP JUMPDEST PUSH2 0x1AD0 PUSH2 0x19BA JUMP JUMPDEST PUSH1 0x1 PUSH1 0x2 PUSH1 0x0 PUSH2 0x100 EXP DUP2 SLOAD DUP2 PUSH1 0xFF MUL NOT AND SWAP1 DUP4 ISZERO ISZERO MUL OR SWAP1 SSTORE POP PUSH32 0x62E78CEA01BEE320CD4E420270B5EA74000D11B0C9F74754EBDBFC544B05A258 PUSH2 0x1B14 PUSH2 0x1B2B JUMP JUMPDEST PUSH1 0x40 MLOAD PUSH2 0x1B21 SWAP2 SWAP1 PUSH2 0x25A2 JUMP JUMPDEST PUSH1 0x40 MLOAD DUP1 SWAP2 SUB SWAP1 LOG1 JUMP JUMPDEST PUSH1 0x0 CALLER SWAP1 POP SWAP1 JUMP JUMPDEST PUSH2 0x1B3B PUSH2 0x11C3 JUMP JUMPDEST PUSH2 0x1B7A JUMPI PUSH1 0x40 MLOAD PUSH32 0x8C379A000000000000000000000000000000000000000000000000000000000 DUP2 MSTORE PUSH1 0x4 ADD PUSH2 0x1B71 SWAP1 PUSH2 0x26D6 JUMP JUMPDEST PUSH1 0x40 MLOAD DUP1 SWAP2 SUB SWAP1 REVERT JUMPDEST JUMP JUMPDEST POP DUP1 SLOAD PUSH1 0x0 DUP3 SSTORE SWAP1 PUSH1 0x0 MSTORE PUSH1 0x20 PUSH1 0x0 KECCAK256 SWAP1 DUP2 ADD SWAP1 PUSH2 0x1B9A SWAP2 SWAP1 PUSH2 0x1C04 JUMP JUMPDEST POP JUMP JUMPDEST DUP3 DUP1 SLOAD DUP3 DUP3 SSTORE SWAP1 PUSH1 0x0 MSTORE PUSH1 0x20 PUSH1 0x0 KECCAK256 SWAP1 DUP2 ADD SWAP3 DUP3 ISZERO PUSH2 0x1BD9 JUMPI SWAP2 PUSH1 0x20 MUL DUP3 ADD JUMPDEST DUP3 DUP2 GT ISZERO PUSH2 0x1BD8 JUMPI DUP3 MLOAD DUP3 SSTORE SWAP2 PUSH1 0x20 ADD SWAP2 SWAP1 PUSH1 0x1 ADD SWAP1 PUSH2 0x1BBD JUMP JUMPDEST JUMPDEST POP SWAP1 POP PUSH2 0x1BE6 SWAP2 SWAP1 PUSH2 0x1C04 JUMP JUMPDEST POP SWAP1 JUMP JUMPDEST PUSH1 0x40 MLOAD DUP1 PUSH1 0x40 ADD PUSH1 0x40 MSTORE DUP1 PUSH1 0x0 DUP2 MSTORE PUSH1 0x20 ADD PUSH1 0x60 DUP2 MSTORE POP SWAP1 JUMP JUMPDEST JUMPDEST DUP1 DUP3 GT ISZERO PUSH2 0x1C1D JUMPI PUSH1 0x0 DUP2 PUSH1 0x0 SWAP1 SSTORE POP PUSH1 0x1 ADD PUSH2 0x1C05 JUMP JUMPDEST POP SWAP1 JUMP JUMPDEST PUSH1 0x0 PUSH2 0x1C34 PUSH2 0x1C2F DUP5 PUSH2 0x2922 JUMP JUMPDEST PUSH2 0x28F1 JUMP JUMPDEST SWAP1 POP DUP1 DUP4 DUP3 MSTORE PUSH1 0x20 DUP3 ADD SWAP1 POP DUP3 DUP6 PUSH1 0x20 DUP7 MUL DUP3 ADD GT ISZERO PUSH2 0x1C53 JUMPI PUSH1 0x0 DUP1 REVERT JUMPDEST PUSH1 0x0 JUMPDEST DUP6 DUP2 LT ISZERO PUSH2 0x1C83 JUMPI DUP2 PUSH2 0x1C69 DUP9 DUP3 PUSH2 0x1D49 JUMP JUMPDEST DUP5 MSTORE PUSH1 0x20 DUP5 ADD SWAP4 POP PUSH1 0x20 DUP4 ADD SWAP3 POP POP PUSH1 0x1 DUP2 ADD SWAP1 POP PUSH2 0x1C56 JUMP JUMPDEST POP POP POP SWAP4 SWAP3 POP POP POP JUMP JUMPDEST PUSH1 0x0 PUSH2 0x1CA0 PUSH2 0x1C9B DUP5 PUSH2 0x294E JUMP JUMPDEST PUSH2 0x28F1 JUMP JUMPDEST SWAP1 POP DUP3 DUP2 MSTORE PUSH1 0x20 DUP2 ADD DUP5 DUP5 DUP5 ADD GT ISZERO PUSH2 0x1CB8 JUMPI PUSH1 0x0 DUP1 REVERT JUMPDEST PUSH2 0x1CC3 DUP5 DUP3 DUP6 PUSH2 0x2B7A JUMP JUMPDEST POP SWAP4 SWAP3 POP POP POP JUMP JUMPDEST PUSH1 0x0 DUP2 CALLDATALOAD SWAP1 POP PUSH2 0x1CDA DUP2 PUSH2 0x2C94 JUMP JUMPDEST SWAP3 SWAP2 POP POP JUMP JUMPDEST PUSH1 0x0 DUP2 MLOAD SWAP1 POP PUSH2 0x1CEF DUP2 PUSH2 0x2C94 JUMP JUMPDEST SWAP3 SWAP2 POP POP JUMP JUMPDEST PUSH1 0x0 DUP3 PUSH1 0x1F DUP4 ADD SLT PUSH2 0x1D06 JUMPI PUSH1 0x0 DUP1 REVERT JUMPDEST DUP2 CALLDATALOAD PUSH2 0x1D16 DUP5 DUP3 PUSH1 0x20 DUP7 ADD PUSH2 0x1C21 JUMP JUMPDEST SWAP2 POP POP SWAP3 SWAP2 POP POP JUMP JUMPDEST PUSH1 0x0 DUP3 PUSH1 0x1F DUP4 ADD SLT PUSH2 0x1D30 JUMPI PUSH1 0x0 DUP1 REVERT JUMPDEST DUP2 MLOAD PUSH2 0x1D40 DUP5 DUP3 PUSH1 0x20 DUP7 ADD PUSH2 0x1C8D JUMP JUMPDEST SWAP2 POP POP SWAP3 SWAP2 POP POP JUMP JUMPDEST PUSH1 0x0 DUP2 CALLDATALOAD SWAP1 POP PUSH2 0x1D58 DUP2 PUSH2 0x2CAB JUMP JUMPDEST SWAP3 SWAP2 POP POP JUMP JUMPDEST PUSH1 0x0 PUSH1 0x20 DUP3 DUP5 SUB SLT ISZERO PUSH2 0x1D70 JUMPI PUSH1 0x0 DUP1 REVERT JUMPDEST PUSH1 0x0 PUSH2 0x1D7E DUP5 DUP3 DUP6 ADD PUSH2 0x1CCB JUMP JUMPDEST SWAP2 POP POP SWAP3 SWAP2 POP POP JUMP JUMPDEST PUSH1 0x0 PUSH1 0x20 DUP3 DUP5 SUB SLT ISZERO PUSH2 0x1D99 JUMPI PUSH1 0x0 DUP1 REVERT JUMPDEST PUSH1 0x0 PUSH2 0x1DA7 DUP5 DUP3 DUP6 ADD PUSH2 0x1CE0 JUMP JUMPDEST SWAP2 POP POP SWAP3 SWAP2 POP POP JUMP JUMPDEST PUSH1 0x0 DUP1 PUSH1 0x40 DUP4 DUP6 SUB SLT ISZERO PUSH2 0x1DC3 JUMPI PUSH1 0x0 DUP1 REVERT JUMPDEST PUSH1 0x0 PUSH2 0x1DD1 DUP6 DUP3 DUP7 ADD PUSH2 0x1CCB JUMP JUMPDEST SWAP3 POP POP PUSH1 0x20 PUSH2 0x1DE2 DUP6 DUP3 DUP7 ADD PUSH2 0x1CCB JUMP JUMPDEST SWAP2 POP POP SWAP3 POP SWAP3 SWAP1 POP JUMP JUMPDEST PUSH1 0x0 DUP1 PUSH1 0x0 DUP1 PUSH1 0x80 DUP6 DUP8 SUB SLT ISZERO PUSH2 0x1E02 JUMPI PUSH1 0x0 DUP1 REVERT JUMPDEST PUSH1 0x0 PUSH2 0x1E10 DUP8 DUP3 DUP9 ADD PUSH2 0x1CCB JUMP JUMPDEST SWAP5 POP POP PUSH1 0x20 DUP6 ADD CALLDATALOAD PUSH8 0xFFFFFFFFFFFFFFFF DUP2 GT ISZERO PUSH2 0x1E2D JUMPI PUSH1 0x0 DUP1 REVERT JUMPDEST PUSH2 0x1E39 DUP8 DUP3 DUP9 ADD PUSH2 0x1CF5 JUMP JUMPDEST SWAP4 POP POP PUSH1 0x40 PUSH2 0x1E4A DUP8 DUP3 DUP9 ADD PUSH2 0x1D49 JUMP JUMPDEST SWAP3 POP POP PUSH1 0x60 PUSH2 0x1E5B DUP8 DUP3 DUP9 ADD PUSH2 0x1D49 JUMP JUMPDEST SWAP2 POP POP SWAP3 SWAP6 SWAP2 SWAP5 POP SWAP3 POP JUMP JUMPDEST PUSH1 0x0 PUSH1 0x20 DUP3 DUP5 SUB SLT ISZERO PUSH2 0x1E79 JUMPI PUSH1 0x0 DUP1 REVERT JUMPDEST PUSH1 0x0 DUP3 ADD MLOAD PUSH8 0xFFFFFFFFFFFFFFFF DUP2 GT ISZERO PUSH2 0x1E93 JUMPI PUSH1 0x0 DUP1 REVERT JUMPDEST PUSH2 0x1E9F DUP5 DUP3 DUP6 ADD PUSH2 0x1D1F JUMP JUMPDEST SWAP2 POP POP SWAP3 SWAP2 POP POP JUMP JUMPDEST PUSH1 0x0 PUSH1 0x20 DUP3 DUP5 SUB SLT ISZERO PUSH2 0x1EBA JUMPI PUSH1 0x0 DUP1 REVERT JUMPDEST PUSH1 0x0 PUSH2 0x1EC8 DUP5 DUP3 DUP6 ADD PUSH2 0x1D49 JUMP JUMPDEST SWAP2 POP POP SWAP3 SWAP2 POP POP JUMP JUMPDEST PUSH1 0x0 DUP1 PUSH1 0x40 DUP4 DUP6 SUB SLT ISZERO PUSH2 0x1EE4 JUMPI PUSH1 0x0 DUP1 REVERT JUMPDEST PUSH1 0x0 PUSH2 0x1EF2 DUP6 DUP3 DUP7 ADD PUSH2 0x1D49 JUMP JUMPDEST SWAP3 POP POP PUSH1 0x20 PUSH2 0x1F03 DUP6 DUP3 DUP7 ADD PUSH2 0x1D49 JUMP JUMPDEST SWAP2 POP POP SWAP3 POP SWAP3 SWAP1 POP JUMP JUMPDEST PUSH1 0x0 PUSH2 0x1F19 DUP4 DUP4 PUSH2 0x2547 JUMP JUMPDEST SWAP1 POP SWAP3 SWAP2 POP POP JUMP JUMPDEST PUSH1 0x0 PUSH2 0x1F2D DUP4 DUP4 PUSH2 0x2584 JUMP JUMPDEST PUSH1 0x20 DUP4 ADD SWAP1 POP SWAP3 SWAP2 POP POP JUMP JUMPDEST PUSH2 0x1F42 DUP2 PUSH2 0x2B32 JUMP JUMPDEST DUP3 MSTORE POP POP JUMP JUMPDEST PUSH1 0x0 PUSH2 0x1F53 DUP3 PUSH2 0x299E JUMP JUMPDEST PUSH2 0x1F5D DUP2 DUP6 PUSH2 0x29D9 JUMP JUMPDEST SWAP4 POP DUP4 PUSH1 0x20 DUP3 MUL DUP6 ADD PUSH2 0x1F6F DUP6 PUSH2 0x297E JUMP JUMPDEST DUP1 PUSH1 0x0 JUMPDEST DUP6 DUP2 LT ISZERO PUSH2 0x1FAB JUMPI DUP5 DUP5 SUB DUP10 MSTORE DUP2 MLOAD PUSH2 0x1F8C DUP6 DUP3 PUSH2 0x1F0D JUMP JUMPDEST SWAP5 POP PUSH2 0x1F97 DUP4 PUSH2 0x29BF JUMP JUMPDEST SWAP3 POP PUSH1 0x20 DUP11 ADD SWAP10 POP POP PUSH1 0x1 DUP2 ADD SWAP1 POP PUSH2 0x1F73 JUMP JUMPDEST POP DUP3 SWAP8 POP DUP8 SWAP6 POP POP POP POP POP POP SWAP3 SWAP2 POP POP JUMP JUMPDEST PUSH1 0x0 PUSH2 0x1FC8 DUP3 PUSH2 0x29A9 JUMP JUMPDEST PUSH2 0x1FD2 DUP2 DUP6 PUSH2 0x29EA JUMP JUMPDEST SWAP4 POP PUSH2 0x1FDD DUP4 PUSH2 0x298E JUMP JUMPDEST DUP1 PUSH1 0x0 JUMPDEST DUP4 DUP2 LT ISZERO PUSH2 0x200E JUMPI DUP2 MLOAD PUSH2 0x1FF5 DUP9 DUP3 PUSH2 0x1F21 JUMP JUMPDEST SWAP8 POP PUSH2 0x2000 DUP4 PUSH2 0x29CC JUMP JUMPDEST SWAP3 POP POP PUSH1 0x1 DUP2 ADD SWAP1 POP PUSH2 0x1FE1 JUMP JUMPDEST POP DUP6 SWAP4 POP POP POP POP SWAP3 SWAP2 POP POP JUMP JUMPDEST PUSH2 0x2024 DUP2 PUSH2 0x2B44 JUMP JUMPDEST DUP3 MSTORE POP POP JUMP JUMPDEST PUSH1 0x0 PUSH2 0x2035 DUP3 PUSH2 0x29B4 JUMP JUMPDEST PUSH2 0x203F DUP2 DUP6 PUSH2 0x29FB JUMP JUMPDEST SWAP4 POP PUSH2 0x204F DUP2 DUP6 PUSH1 0x20 DUP7 ADD PUSH2 0x2B7A JUMP JUMPDEST PUSH2 0x2058 DUP2 PUSH2 0x2C83 JUMP JUMPDEST DUP5 ADD SWAP2 POP POP SWAP3 SWAP2 POP POP JUMP JUMPDEST PUSH1 0x0 PUSH2 0x2070 PUSH1 0x14 DUP4 PUSH2 0x2A0C JUMP JUMPDEST SWAP2 POP PUSH32 0x5061757361626C653A206E6F7420706175736564000000000000000000000000 PUSH1 0x0 DUP4 ADD MSTORE PUSH1 0x20 DUP3 ADD SWAP1 POP SWAP2 SWAP1 POP JUMP JUMPDEST PUSH1 0x0 PUSH2 0x20B0 PUSH1 0x26 DUP4 PUSH2 0x2A0C JUMP JUMPDEST SWAP2 POP PUSH32 0x53656C6C6572206E6F206C6F6E676572206F776E73206F6E65206F6620746865 PUSH1 0x0 DUP4 ADD MSTORE PUSH32 0x204E4654732E0000000000000000000000000000000000000000000000000000 PUSH1 0x20 DUP4 ADD MSTORE PUSH1 0x40 DUP3 ADD SWAP1 POP SWAP2 SWAP1 POP JUMP JUMPDEST PUSH1 0x0 PUSH2 0x2116 PUSH1 0x26 DUP4 PUSH2 0x2A0C JUMP JUMPDEST SWAP2 POP PUSH32 0x4F776E61626C653A206E6577206F776E657220697320746865207A65726F2061 PUSH1 0x0 DUP4 ADD MSTORE PUSH32 0x6464726573730000000000000000000000000000000000000000000000000000 PUSH1 0x20 DUP4 ADD MSTORE PUSH1 0x40 DUP3 ADD SWAP1 POP SWAP2 SWAP1 POP JUMP JUMPDEST PUSH1 0x0 PUSH2 0x217C PUSH1 0x20 DUP4 PUSH2 0x2A0C JUMP JUMPDEST SWAP2 POP PUSH32 0x596F75206D757374206F776E20746865204E465420746F206C6973742069742E PUSH1 0x0 DUP4 ADD MSTORE PUSH1 0x20 DUP3 ADD SWAP1 POP SWAP2 SWAP1 POP JUMP JUMPDEST PUSH1 0x0 PUSH2 0x21BC PUSH1 0x18 DUP4 PUSH2 0x2A0C JUMP JUMPDEST SWAP2 POP PUSH32 0x4164647265737365732063616E6E6F74206265207A65726F0000000000000000 PUSH1 0x0 DUP4 ADD MSTORE PUSH1 0x20 DUP3 ADD SWAP1 POP SWAP2 SWAP1 POP JUMP JUMPDEST PUSH1 0x0 PUSH2 0x21FC PUSH1 0x19 DUP4 PUSH2 0x2A0C JUMP JUMPDEST SWAP2 POP PUSH32 0x54686973206C697374696E672068617320657870697265642E00000000000000 PUSH1 0x0 DUP4 ADD MSTORE PUSH1 0x20 DUP3 ADD SWAP1 POP SWAP2 SWAP1 POP JUMP JUMPDEST PUSH1 0x0 PUSH2 0x223C PUSH1 0x2E DUP4 PUSH2 0x2A0C JUMP JUMPDEST SWAP2 POP PUSH32 0x53656E742076616C7565206D75737420626520657175616C20746F2074686520 PUSH1 0x0 DUP4 ADD MSTORE PUSH32 0x6C697374696E672070726963652E000000000000000000000000000000000000 PUSH1 0x20 DUP4 ADD MSTORE PUSH1 0x40 DUP3 ADD SWAP1 POP SWAP2 SWAP1 POP JUMP JUMPDEST PUSH1 0x0 PUSH2 0x22A2 PUSH1 0x10 DUP4 PUSH2 0x2A0C JUMP JUMPDEST SWAP2 POP PUSH32 0x5061757361626C653A2070617573656400000000000000000000000000000000 PUSH1 0x0 DUP4 ADD MSTORE PUSH1 0x20 DUP3 ADD SWAP1 POP SWAP2 SWAP1 POP JUMP JUMPDEST PUSH1 0x0 PUSH2 0x22E2 PUSH1 0x1B DUP4 PUSH2 0x2A0C JUMP JUMPDEST SWAP2 POP PUSH32 0x4D757374206C697374206174206C65617374206F6E65204E46542E0000000000 PUSH1 0x0 DUP4 ADD MSTORE PUSH1 0x20 DUP3 ADD SWAP1 POP SWAP2 SWAP1 POP JUMP JUMPDEST PUSH1 0x0 PUSH2 0x2322 PUSH1 0x25 DUP4 PUSH2 0x2A0C JUMP JUMPDEST SWAP2 POP PUSH32 0x4F6E6C7920746865206C697374696E67206F776E65722063616E2063616E6365 PUSH1 0x0 DUP4 ADD MSTORE PUSH32 0x6C2069742E000000000000000000000000000000000000000000000000000000 PUSH1 0x20 DUP4 ADD MSTORE PUSH1 0x40 DUP3 ADD SWAP1 POP SWAP2 SWAP1 POP JUMP JUMPDEST PUSH1 0x0 PUSH2 0x2388 PUSH1 0x17 DUP4 PUSH2 0x2A0C JUMP JUMPDEST SWAP2 POP PUSH32 0x4C697374696E6720646F6573206E6F742065786973742E000000000000000000 PUSH1 0x0 DUP4 ADD MSTORE PUSH1 0x20 DUP3 ADD SWAP1 POP SWAP2 SWAP1 POP JUMP JUMPDEST PUSH1 0x0 PUSH2 0x23C8 PUSH1 0x20 DUP4 PUSH2 0x2A0C JUMP JUMPDEST SWAP2 POP PUSH32 0x4F776E61626C653A2063616C6C6572206973206E6F7420746865206F776E6572 PUSH1 0x0 DUP4 ADD MSTORE PUSH1 0x20 DUP3 ADD SWAP1 POP SWAP2 SWAP1 POP JUMP JUMPDEST PUSH1 0x0 PUSH2 0x2408 PUSH1 0x23 DUP4 PUSH2 0x2A0C JUMP JUMPDEST SWAP2 POP PUSH32 0x446561646C696E65206D7573742062652067726561746572207468616E207A65 PUSH1 0x0 DUP4 ADD MSTORE PUSH32 0x726F2E0000000000000000000000000000000000000000000000000000000000 PUSH1 0x20 DUP4 ADD MSTORE PUSH1 0x40 DUP3 ADD SWAP1 POP SWAP2 SWAP1 POP JUMP JUMPDEST PUSH1 0x0 PUSH2 0x246E PUSH1 0x20 DUP4 PUSH2 0x2A0C JUMP JUMPDEST SWAP2 POP PUSH32 0x5072696365206D7573742062652067726561746572207468616E207A65726F2E PUSH1 0x0 DUP4 ADD MSTORE PUSH1 0x20 DUP3 ADD SWAP1 POP SWAP2 SWAP1 POP JUMP JUMPDEST PUSH1 0x0 PUSH2 0x24AE PUSH1 0x25 DUP4 PUSH2 0x2A0C JUMP JUMPDEST SWAP2 POP PUSH32 0x53656E742076616C7565206D7573742062652067726561746572207468616E20 PUSH1 0x0 DUP4 ADD MSTORE PUSH32 0x7A65726F2E000000000000000000000000000000000000000000000000000000 PUSH1 0x20 DUP4 ADD MSTORE PUSH1 0x40 DUP3 ADD SWAP1 POP SWAP2 SWAP1 POP JUMP JUMPDEST PUSH1 0x0 PUSH2 0x2514 PUSH1 0x1F DUP4 PUSH2 0x2A0C JUMP JUMPDEST SWAP2 POP PUSH32 0x5265656E7472616E637947756172643A207265656E7472616E742063616C6C00 PUSH1 0x0 DUP4 ADD MSTORE PUSH1 0x20 DUP3 ADD SWAP1 POP SWAP2 SWAP1 POP JUMP JUMPDEST PUSH1 0x0 PUSH1 0x40 DUP4 ADD PUSH1 0x0 DUP4 ADD MLOAD PUSH2 0x255F PUSH1 0x0 DUP7 ADD DUP3 PUSH2 0x2584 JUMP JUMPDEST POP PUSH1 0x20 DUP4 ADD MLOAD DUP5 DUP3 SUB PUSH1 0x20 DUP7 ADD MSTORE PUSH2 0x2577 DUP3 DUP3 PUSH2 0x202A JUMP JUMPDEST SWAP2 POP POP DUP1 SWAP2 POP POP SWAP3 SWAP2 POP POP JUMP JUMPDEST PUSH2 0x258D DUP2 PUSH2 0x2B70 JUMP JUMPDEST DUP3 MSTORE POP POP JUMP JUMPDEST PUSH2 0x259C DUP2 PUSH2 0x2B70 JUMP JUMPDEST DUP3 MSTORE POP POP JUMP JUMPDEST PUSH1 0x0 PUSH1 0x20 DUP3 ADD SWAP1 POP PUSH2 0x25B7 PUSH1 0x0 DUP4 ADD DUP5 PUSH2 0x1F39 JUMP JUMPDEST SWAP3 SWAP2 POP POP JUMP JUMPDEST PUSH1 0x0 PUSH1 0x60 DUP3 ADD SWAP1 POP PUSH2 0x25D2 PUSH1 0x0 DUP4 ADD DUP7 PUSH2 0x1F39 JUMP JUMPDEST PUSH2 0x25DF PUSH1 0x20 DUP4 ADD DUP6 PUSH2 0x1F39 JUMP JUMPDEST PUSH2 0x25EC PUSH1 0x40 DUP4 ADD DUP5 PUSH2 0x2593 JUMP JUMPDEST SWAP5 SWAP4 POP POP POP POP JUMP JUMPDEST PUSH1 0x0 PUSH1 0x80 DUP3 ADD SWAP1 POP PUSH2 0x2609 PUSH1 0x0 DUP4 ADD DUP8 PUSH2 0x1F39 JUMP JUMPDEST PUSH2 0x2616 PUSH1 0x20 DUP4 ADD DUP7 PUSH2 0x1F39 JUMP JUMPDEST PUSH2 0x2623 PUSH1 0x40 DUP4 ADD DUP6 PUSH2 0x2593 JUMP JUMPDEST PUSH2 0x2630 PUSH1 0x60 DUP4 ADD DUP5 PUSH2 0x2593 JUMP JUMPDEST SWAP6 SWAP5 POP POP POP POP POP JUMP JUMPDEST PUSH1 0x0 PUSH1 0x20 DUP3 ADD SWAP1 POP DUP2 DUP2 SUB PUSH1 0x0 DUP4 ADD MSTORE PUSH2 0x2653 DUP2 DUP5 PUSH2 0x1F48 JUMP JUMPDEST SWAP1 POP SWAP3 SWAP2 POP POP JUMP JUMPDEST PUSH1 0x0 PUSH1 0x20 DUP3 ADD SWAP1 POP DUP2 DUP2 SUB PUSH1 0x0 DUP4 ADD MSTORE PUSH2 0x2675 DUP2 DUP5 PUSH2 0x1FBD JUMP JUMPDEST SWAP1 POP SWAP3 SWAP2 POP POP JUMP JUMPDEST PUSH1 0x0 PUSH1 0x60 DUP3 ADD SWAP1 POP DUP2 DUP2 SUB PUSH1 0x0 DUP4 ADD MSTORE PUSH2 0x2697 DUP2 DUP7 PUSH2 0x1FBD JUMP JUMPDEST SWAP1 POP PUSH2 0x26A6 PUSH1 0x20 DUP4 ADD DUP6 PUSH2 0x2593 JUMP JUMPDEST PUSH2 0x26B3 PUSH1 0x40 DUP4 ADD DUP5 PUSH2 0x2593 JUMP JUMPDEST SWAP5 SWAP4 POP POP POP POP JUMP JUMPDEST PUSH1 0x0 PUSH1 0x20 DUP3 ADD SWAP1 POP PUSH2 0x26D0 PUSH1 0x0 DUP4 ADD DUP5 PUSH2 0x201B JUMP JUMPDEST SWAP3 SWAP2 POP POP JUMP JUMPDEST PUSH1 0x0 PUSH1 0x20 DUP3 ADD SWAP1 POP DUP2 DUP2 SUB PUSH1 0x0 DUP4 ADD MSTORE PUSH2 0x26EF DUP2 PUSH2 0x2063 JUMP JUMPDEST SWAP1 POP SWAP2 SWAP1 POP JUMP JUMPDEST PUSH1 0x0 PUSH1 0x20 DUP3 ADD SWAP1 POP DUP2 DUP2 SUB PUSH1 0x0 DUP4 ADD MSTORE PUSH2 0x270F DUP2 PUSH2 0x20A3 JUMP JUMPDEST SWAP1 POP SWAP2 SWAP1 POP JUMP JUMPDEST PUSH1 0x0 PUSH1 0x20 DUP3 ADD SWAP1 POP DUP2 DUP2 SUB PUSH1 0x0 DUP4 ADD MSTORE PUSH2 0x272F DUP2 PUSH2 0x2109 JUMP JUMPDEST SWAP1 POP SWAP2 SWAP1 POP JUMP JUMPDEST PUSH1 0x0 PUSH1 0x20 DUP3 ADD SWAP1 POP DUP2 DUP2 SUB PUSH1 0x0 DUP4 ADD MSTORE PUSH2 0x274F DUP2 PUSH2 0x216F JUMP JUMPDEST SWAP1 POP SWAP2 SWAP1 POP JUMP JUMPDEST PUSH1 0x0 PUSH1 0x20 DUP3 ADD SWAP1 POP DUP2 DUP2 SUB PUSH1 0x0 DUP4 ADD MSTORE PUSH2 0x276F DUP2 PUSH2 0x21AF JUMP JUMPDEST SWAP1 POP SWAP2 SWAP1 POP JUMP JUMPDEST PUSH1 0x0 PUSH1 0x20 DUP3 ADD SWAP1 POP DUP2 DUP2 SUB PUSH1 0x0 DUP4 ADD MSTORE PUSH2 0x278F DUP2 PUSH2 0x21EF JUMP JUMPDEST SWAP1 POP SWAP2 SWAP1 POP JUMP JUMPDEST PUSH1 0x0 PUSH1 0x20 DUP3 ADD SWAP1 POP DUP2 DUP2 SUB PUSH1 0x0 DUP4 ADD MSTORE PUSH2 0x27AF DUP2 PUSH2 0x222F JUMP JUMPDEST SWAP1 POP SWAP2 SWAP1 POP JUMP JUMPDEST PUSH1 0x0 PUSH1 0x20 DUP3 ADD SWAP1 POP DUP2 DUP2 SUB PUSH1 0x0 DUP4 ADD MSTORE PUSH2 0x27CF DUP2 PUSH2 0x2295 JUMP JUMPDEST SWAP1 POP SWAP2 SWAP1 POP JUMP JUMPDEST PUSH1 0x0 PUSH1 0x20 DUP3 ADD SWAP1 POP DUP2 DUP2 SUB PUSH1 0x0 DUP4 ADD MSTORE PUSH2 0x27EF DUP2 PUSH2 0x22D5 JUMP JUMPDEST SWAP1 POP SWAP2 SWAP1 POP JUMP JUMPDEST PUSH1 0x0 PUSH1 0x20 DUP3 ADD SWAP1 POP DUP2 DUP2 SUB PUSH1 0x0 DUP4 ADD MSTORE PUSH2 0x280F DUP2 PUSH2 0x2315 JUMP JUMPDEST SWAP1 POP SWAP2 SWAP1 POP JUMP JUMPDEST PUSH1 0x0 PUSH1 0x20 DUP3 ADD SWAP1 POP DUP2 DUP2 SUB PUSH1 0x0 DUP4 ADD MSTORE PUSH2 0x282F DUP2 PUSH2 0x237B JUMP JUMPDEST SWAP1 POP SWAP2 SWAP1 POP JUMP JUMPDEST PUSH1 0x0 PUSH1 0x20 DUP3 ADD SWAP1 POP DUP2 DUP2 SUB PUSH1 0x0 DUP4 ADD MSTORE PUSH2 0x284F DUP2 PUSH2 0x23BB JUMP JUMPDEST SWAP1 POP SWAP2 SWAP1 POP JUMP JUMPDEST PUSH1 0x0 PUSH1 0x20 DUP3 ADD SWAP1 POP DUP2 DUP2 SUB PUSH1 0x0 DUP4 ADD MSTORE PUSH2 0x286F DUP2 PUSH2 0x23FB JUMP JUMPDEST SWAP1 POP SWAP2 SWAP1 POP JUMP JUMPDEST PUSH1 0x0 PUSH1 0x20 DUP3 ADD SWAP1 POP DUP2 DUP2 SUB PUSH1 0x0 DUP4 ADD MSTORE PUSH2 0x288F DUP2 PUSH2 0x2461 JUMP JUMPDEST SWAP1 POP SWAP2 SWAP1 POP JUMP JUMPDEST PUSH1 0x0 PUSH1 0x20 DUP3 ADD SWAP1 POP DUP2 DUP2 SUB PUSH1 0x0 DUP4 ADD MSTORE PUSH2 0x28AF DUP2 PUSH2 0x24A1 JUMP JUMPDEST SWAP1 POP SWAP2 SWAP1 POP JUMP JUMPDEST PUSH1 0x0 PUSH1 0x20 DUP3 ADD SWAP1 POP DUP2 DUP2 SUB PUSH1 0x0 DUP4 ADD MSTORE PUSH2 0x28CF DUP2 PUSH2 0x2507 JUMP JUMPDEST SWAP1 POP SWAP2 SWAP1 POP JUMP JUMPDEST PUSH1 0x0 PUSH1 0x20 DUP3 ADD SWAP1 POP PUSH2 0x28EB PUSH1 0x0 DUP4 ADD DUP5 PUSH2 0x2593 JUMP JUMPDEST SWAP3 SWAP2 POP POP JUMP JUMPDEST PUSH1 0x0 PUSH1 0x40 MLOAD SWAP1 POP DUP2 DUP2 ADD DUP2 DUP2 LT PUSH8 0xFFFFFFFFFFFFFFFF DUP3 GT OR ISZERO PUSH2 0x2918 JUMPI PUSH2 0x2917 PUSH2 0x2C54 JUMP JUMPDEST JUMPDEST DUP1 PUSH1 0x40 MSTORE POP SWAP2 SWAP1 POP JUMP JUMPDEST PUSH1 0x0 PUSH8 0xFFFFFFFFFFFFFFFF DUP3 GT ISZERO PUSH2 0x293D JUMPI PUSH2 0x293C PUSH2 0x2C54 JUMP JUMPDEST JUMPDEST PUSH1 0x20 DUP3 MUL SWAP1 POP PUSH1 0x20 DUP2 ADD SWAP1 POP SWAP2 SWAP1 POP JUMP JUMPDEST PUSH1 0x0 PUSH8 0xFFFFFFFFFFFFFFFF DUP3 GT ISZERO PUSH2 0x2969 JUMPI PUSH2 0x2968 PUSH2 0x2C54 JUMP JUMPDEST JUMPDEST PUSH1 0x1F NOT PUSH1 0x1F DUP4 ADD AND SWAP1 POP PUSH1 0x20 DUP2 ADD SWAP1 POP SWAP2 SWAP1 POP JUMP JUMPDEST PUSH1 0x0 DUP2 SWAP1 POP PUSH1 0x20 DUP3 ADD SWAP1 POP SWAP2 SWAP1 POP JUMP JUMPDEST PUSH1 0x0 DUP2 SWAP1 POP PUSH1 0x20 DUP3 ADD SWAP1 POP SWAP2 SWAP1 POP JUMP JUMPDEST PUSH1 0x0 DUP2 MLOAD SWAP1 POP SWAP2 SWAP1 POP JUMP JUMPDEST PUSH1 0x0 DUP2 MLOAD SWAP1 POP SWAP2 SWAP1 POP JUMP JUMPDEST PUSH1 0x0 DUP2 MLOAD SWAP1 POP SWAP2 SWAP1 POP JUMP JUMPDEST PUSH1 0x0 PUSH1 0x20 DUP3 ADD SWAP1 POP SWAP2 SWAP1 POP JUMP JUMPDEST PUSH1 0x0 PUSH1 0x20 DUP3 ADD SWAP1 POP SWAP2 SWAP1 POP JUMP JUMPDEST PUSH1 0x0 DUP3 DUP3 MSTORE PUSH1 0x20 DUP3 ADD SWAP1 POP SWAP3 SWAP2 POP POP JUMP JUMPDEST PUSH1 0x0 DUP3 DUP3 MSTORE PUSH1 0x20 DUP3 ADD SWAP1 POP SWAP3 SWAP2 POP POP JUMP JUMPDEST PUSH1 0x0 DUP3 DUP3 MSTORE PUSH1 0x20 DUP3 ADD SWAP1 POP SWAP3 SWAP2 POP POP JUMP JUMPDEST PUSH1 0x0 DUP3 DUP3 MSTORE PUSH1 0x20 DUP3 ADD SWAP1 POP SWAP3 SWAP2 POP POP JUMP JUMPDEST PUSH1 0x0 PUSH2 0x2A28 DUP3 PUSH2 0x2B70 JUMP JUMPDEST SWAP2 POP PUSH2 0x2A33 DUP4 PUSH2 0x2B70 JUMP JUMPDEST SWAP3 POP DUP3 PUSH32 0xFFFFFFFFFFFFFFFFFFFFFFFFFFFFFFFFFFFFFFFFFFFFFFFFFFFFFFFFFFFFFFFF SUB DUP3 GT ISZERO PUSH2 0x2A68 JUMPI PUSH2 0x2A67 PUSH2 0x2BF6 JUMP JUMPDEST JUMPDEST DUP3 DUP3 ADD SWAP1 POP SWAP3 SWAP2 POP POP JUMP JUMPDEST PUSH1 0x0 PUSH2 0x2A7E DUP3 PUSH2 0x2B70 JUMP JUMPDEST SWAP2 POP PUSH2 0x2A89 DUP4 PUSH2 0x2B70 JUMP JUMPDEST SWAP3 POP DUP3 PUSH2 0x2A99 JUMPI PUSH2 0x2A98 PUSH2 0x2C25 JUMP JUMPDEST JUMPDEST DUP3 DUP3 DIV SWAP1 POP SWAP3 SWAP2 POP POP JUMP JUMPDEST PUSH1 0x0 PUSH2 0x2AAF DUP3 PUSH2 0x2B70 JUMP JUMPDEST SWAP2 POP PUSH2 0x2ABA DUP4 PUSH2 0x2B70 JUMP JUMPDEST SWAP3 POP DUP2 PUSH32 0xFFFFFFFFFFFFFFFFFFFFFFFFFFFFFFFFFFFFFFFFFFFFFFFFFFFFFFFFFFFFFFFF DIV DUP4 GT DUP3 ISZERO ISZERO AND ISZERO PUSH2 0x2AF3 JUMPI PUSH2 0x2AF2 PUSH2 0x2BF6 JUMP JUMPDEST JUMPDEST DUP3 DUP3 MUL SWAP1 POP SWAP3 SWAP2 POP POP JUMP JUMPDEST PUSH1 0x0 PUSH2 0x2B09 DUP3 PUSH2 0x2B70 JUMP JUMPDEST SWAP2 POP PUSH2 0x2B14 DUP4 PUSH2 0x2B70 JUMP JUMPDEST SWAP3 POP DUP3 DUP3 LT ISZERO PUSH2 0x2B27 JUMPI PUSH2 0x2B26 PUSH2 0x2BF6 JUMP JUMPDEST JUMPDEST DUP3 DUP3 SUB SWAP1 POP SWAP3 SWAP2 POP POP JUMP JUMPDEST PUSH1 0x0 PUSH2 0x2B3D DUP3 PUSH2 0x2B50 JUMP JUMPDEST SWAP1 POP SWAP2 SWAP1 POP JUMP JUMPDEST PUSH1 0x0 DUP2 ISZERO ISZERO SWAP1 POP SWAP2 SWAP1 POP JUMP JUMPDEST PUSH1 0x0 PUSH20 0xFFFFFFFFFFFFFFFFFFFFFFFFFFFFFFFFFFFFFFFF DUP3 AND SWAP1 POP SWAP2 SWAP1 POP JUMP JUMPDEST PUSH1 0x0 DUP2 SWAP1 POP SWAP2 SWAP1 POP JUMP JUMPDEST PUSH1 0x0 JUMPDEST DUP4 DUP2 LT ISZERO PUSH2 0x2B98 JUMPI DUP1 DUP3 ADD MLOAD DUP2 DUP5 ADD MSTORE PUSH1 0x20 DUP2 ADD SWAP1 POP PUSH2 0x2B7D JUMP JUMPDEST DUP4 DUP2 GT ISZERO PUSH2 0x2BA7 JUMPI PUSH1 0x0 DUP5 DUP5 ADD MSTORE JUMPDEST POP POP POP POP JUMP JUMPDEST PUSH1 0x0 PUSH2 0x2BB8 DUP3 PUSH2 0x2B70 JUMP JUMPDEST SWAP2 POP PUSH32 0xFFFFFFFFFFFFFFFFFFFFFFFFFFFFFFFFFFFFFFFFFFFFFFFFFFFFFFFFFFFFFFFF DUP3 EQ ISZERO PUSH2 0x2BEB JUMPI PUSH2 0x2BEA PUSH2 0x2BF6 JUMP JUMPDEST JUMPDEST PUSH1 0x1 DUP3 ADD SWAP1 POP SWAP2 SWAP1 POP JUMP JUMPDEST PUSH32 0x4E487B7100000000000000000000000000000000000000000000000000000000 PUSH1 0x0 MSTORE PUSH1 0x11 PUSH1 0x4 MSTORE PUSH1 0x24 PUSH1 0x0 REVERT JUMPDEST PUSH32 0x4E487B7100000000000000000000000000000000000000000000000000000000 PUSH1 0x0 MSTORE PUSH1 0x12 PUSH1 0x4 MSTORE PUSH1 0x24 PUSH1 0x0 REVERT JUMPDEST PUSH32 0x4E487B7100000000000000000000000000000000000000000000000000000000 PUSH1 0x0 MSTORE PUSH1 0x41 PUSH1 0x4 MSTORE PUSH1 0x24 PUSH1 0x0 REVERT JUMPDEST PUSH1 0x0 PUSH1 0x1F NOT PUSH1 0x1F DUP4 ADD AND SWAP1 POP SWAP2 SWAP1 POP JUMP JUMPDEST PUSH2 0x2C9D DUP2 PUSH2 0x2B32 JUMP JUMPDEST DUP2 EQ PUSH2 0x2CA8 JUMPI PUSH1 0x0 DUP1 REVERT JUMPDEST POP JUMP JUMPDEST PUSH2 0x2CB4 DUP2 PUSH2 0x2B70 JUMP JUMPDEST DUP2 EQ PUSH2 0x2CBF JUMPI PUSH1 0x0 DUP1 REVERT JUMPDEST POP JUMP INVALID LOG2 PUSH5 0x6970667358 0x22 SLT KECCAK256 0xB7 0xED GASLIMIT DUP15 0xE DUP4 0xA8 DUP4 0x2A 0xCB 0xC2 PUSH17 0x6BADC44A896BF752DB5498737425649CB2 0xBB 0x5F 0xB9 PUSH5 0x736F6C6343 STOP ADDMOD STOP STOP CALLER "
				},
				"gasEstimates": {
					"creation": {
						"codeDepositCost": "2302400",
						"executionCost": "infinite",
						"totalCost": "infinite"
					},
					"external": {
						"activeListingIds(uint256)": "infinite",
						"buyNFT(uint256)": "infinite",
						"cancelListing(uint256)": "infinite",
						"getAllListingIds()": "infinite",
						"getListingInfo(uint256)": "infinite",
						"listNFT(address,uint256[],uint256,uint256)": "infinite",
						"listingOwners(uint256)": "1628",
						"listings(uint256)": "infinite",
						"nextListingId()": "1218",
						"owner()": "1289",
						"pause()": "infinite",
						"paused()": "1291",
						"platformFeeAddress()": "1324",
						"platformFeePercentage()": "1173",
						"renounceOwnership()": "24443",
						"royaltyAddress()": "1325",
						"royaltyPercentage()": "1174",
						"transferOwnership(address)": "24879",
						"unpause()": "infinite",
						"updateFeeAddresses(address,address)": "infinite",
						"updateFeePercentages(uint256,uint256)": "infinite"
					}
				},
				"methodIdentifiers": {
					"activeListingIds(uint256)": "e3b6a1f6",
					"buyNFT(uint256)": "51ed8288",
					"cancelListing(uint256)": "305a67a8",
					"getAllListingIds()": "85dd3008",
					"getListingInfo(uint256)": "b9314135",
					"listNFT(address,uint256[],uint256,uint256)": "4e313796",
					"listingOwners(uint256)": "7bdaceef",
					"listings(uint256)": "de74e57b",
					"nextListingId()": "aaccf1ec",
					"owner()": "8da5cb5b",
					"pause()": "8456cb59",
					"paused()": "5c975abb",
					"platformFeeAddress()": "ed14834f",
					"platformFeePercentage()": "cdd78cfc",
					"renounceOwnership()": "715018a6",
					"royaltyAddress()": "ad2f852a",
					"royaltyPercentage()": "8a71bb2d",
					"transferOwnership(address)": "f2fde38b",
					"unpause()": "3f4ba83a",
					"updateFeeAddresses(address,address)": "5e4e8d65",
					"updateFeePercentages(uint256,uint256)": "78578bb3"
				}
			},
			"storageLayout": {
				"storage": [
					{
						"astId": 7,
						"contract": "venda-multipla.sol:GotasNFTMarketplace",
						"label": "_owner",
						"offset": 0,
						"slot": "0",
						"type": "t_address"
					},
					{
						"astId": 231,
						"contract": "venda-multipla.sol:GotasNFTMarketplace",
						"label": "_status",
						"offset": 0,
						"slot": "1",
						"type": "t_uint256"
					},
					{
						"astId": 130,
						"contract": "venda-multipla.sol:GotasNFTMarketplace",
						"label": "_paused",
						"offset": 0,
						"slot": "2",
						"type": "t_bool"
					},
					{
						"astId": 495,
						"contract": "venda-multipla.sol:GotasNFTMarketplace",
						"label": "activeListingIds",
						"offset": 0,
						"slot": "3",
						"type": "t_array(t_uint256)dyn_storage"
					},
					{
						"astId": 497,
						"contract": "venda-multipla.sol:GotasNFTMarketplace",
						"label": "royaltyPercentage",
						"offset": 0,
						"slot": "4",
						"type": "t_uint256"
					},
					{
						"astId": 499,
						"contract": "venda-multipla.sol:GotasNFTMarketplace",
						"label": "platformFeePercentage",
						"offset": 0,
						"slot": "5",
						"type": "t_uint256"
					},
					{
						"astId": 501,
						"contract": "venda-multipla.sol:GotasNFTMarketplace",
						"label": "royaltyAddress",
						"offset": 0,
						"slot": "6",
						"type": "t_address"
					},
					{
						"astId": 503,
						"contract": "venda-multipla.sol:GotasNFTMarketplace",
						"label": "platformFeeAddress",
						"offset": 0,
						"slot": "7",
						"type": "t_address"
					},
					{
						"astId": 508,
						"contract": "venda-multipla.sol:GotasNFTMarketplace",
						"label": "listings",
						"offset": 0,
						"slot": "8",
						"type": "t_mapping(t_uint256,t_struct(Listing)487_storage)"
					},
					{
						"astId": 512,
						"contract": "venda-multipla.sol:GotasNFTMarketplace",
						"label": "listingOwners",
						"offset": 0,
						"slot": "9",
						"type": "t_mapping(t_uint256,t_address)"
					},
					{
						"astId": 515,
						"contract": "venda-multipla.sol:GotasNFTMarketplace",
						"label": "nextListingId",
						"offset": 0,
						"slot": "10",
						"type": "t_uint256"
					}
				],
				"types": {
					"t_address": {
						"encoding": "inplace",
						"label": "address",
						"numberOfBytes": "20"
					},
					"t_array(t_uint256)dyn_storage": {
						"base": "t_uint256",
						"encoding": "dynamic_array",
						"label": "uint256[]",
						"numberOfBytes": "32"
					},
					"t_bool": {
						"encoding": "inplace",
						"label": "bool",
						"numberOfBytes": "1"
					},
					"t_mapping(t_uint256,t_address)": {
						"encoding": "mapping",
						"key": "t_uint256",
						"label": "mapping(uint256 => address)",
						"numberOfBytes": "32",
						"value": "t_address"
					},
					"t_mapping(t_uint256,t_struct(Listing)487_storage)": {
						"encoding": "mapping",
						"key": "t_uint256",
						"label": "mapping(uint256 => struct GotasNFTMarketplace.Listing)",
						"numberOfBytes": "32",
						"value": "t_struct(Listing)487_storage"
					},
					"t_struct(Listing)487_storage": {
						"encoding": "inplace",
						"label": "struct GotasNFTMarketplace.Listing",
						"members": [
							{
								"astId": 477,
								"contract": "venda-multipla.sol:GotasNFTMarketplace",
								"label": "nftContractAddress",
								"offset": 0,
								"slot": "0",
								"type": "t_address"
							},
							{
								"astId": 480,
								"contract": "venda-multipla.sol:GotasNFTMarketplace",
								"label": "nftIds",
								"offset": 0,
								"slot": "1",
								"type": "t_array(t_uint256)dyn_storage"
							},
							{
								"astId": 482,
								"contract": "venda-multipla.sol:GotasNFTMarketplace",
								"label": "seller",
								"offset": 0,
								"slot": "2",
								"type": "t_address"
							},
							{
								"astId": 484,
								"contract": "venda-multipla.sol:GotasNFTMarketplace",
								"label": "price",
								"offset": 0,
								"slot": "3",
								"type": "t_uint256"
							},
							{
								"astId": 486,
								"contract": "venda-multipla.sol:GotasNFTMarketplace",
								"label": "deadline",
								"offset": 0,
								"slot": "4",
								"type": "t_uint256"
							}
						],
						"numberOfBytes": "160"
					},
					"t_uint256": {
						"encoding": "inplace",
						"label": "uint256",
						"numberOfBytes": "32"
					}
				}
			},
			"userdoc": {
				"kind": "user",
				"methods": {},
				"version": 1
			}
		}
	}
}