{
	"mercado_gotas_multiplos_nfts.sol": {
		"GotasNFTMarketplace": {
			"abi": [
				{
					"inputs": [
						{
							"internalType": "uint256",
							"name": "_royaltyPercentage",
							"type": "uint256"
						},
						{
							"internalType": "uint256",
							"name": "_platformFeePercentage",
							"type": "uint256"
						},
						{
							"internalType": "address",
							"name": "_royaltyAddress",
							"type": "address"
						},
						{
							"internalType": "address",
							"name": "_platformFeeAddress",
							"type": "address"
						}
					],
					"stateMutability": "nonpayable",
					"type": "constructor"
				},
				{
					"anonymous": false,
					"inputs": [
						{
							"indexed": true,
							"internalType": "uint256",
							"name": "listingId",
							"type": "uint256"
						}
					],
					"name": "NFTDelisted",
					"type": "event"
				},
				{
					"anonymous": false,
					"inputs": [
						{
							"indexed": true,
							"internalType": "uint256",
							"name": "listingId",
							"type": "uint256"
						},
						{
							"indexed": true,
							"internalType": "address",
							"name": "seller",
							"type": "address"
						},
						{
							"indexed": true,
							"internalType": "address",
							"name": "nftContract",
							"type": "address"
						},
						{
							"indexed": false,
							"internalType": "uint256[]",
							"name": "nftIds",
							"type": "uint256[]"
						},
						{
							"indexed": false,
							"internalType": "uint256[]",
							"name": "prices",
							"type": "uint256[]"
						},
						{
							"indexed": false,
							"internalType": "uint256",
							"name": "deadline",
							"type": "uint256"
						}
					],
					"name": "NFTListed",
					"type": "event"
				},
				{
					"anonymous": false,
					"inputs": [
						{
							"indexed": true,
							"internalType": "uint256",
							"name": "listingId",
							"type": "uint256"
						},
						{
							"indexed": true,
							"internalType": "address",
							"name": "seller",
							"type": "address"
						},
						{
							"indexed": true,
							"internalType": "address",
							"name": "buyer",
							"type": "address"
						},
						{
							"indexed": false,
							"internalType": "uint256[]",
							"name": "nftIds",
							"type": "uint256[]"
						},
						{
							"indexed": false,
							"internalType": "uint256",
							"name": "totalPrice",
							"type": "uint256"
						}
					],
					"name": "NFTSold",
					"type": "event"
				},
				{
					"anonymous": false,
					"inputs": [
						{
							"indexed": true,
							"internalType": "address",
							"name": "previousOwner",
							"type": "address"
						},
						{
							"indexed": true,
							"internalType": "address",
							"name": "newOwner",
							"type": "address"
						}
					],
					"name": "OwnershipTransferred",
					"type": "event"
				},
				{
					"anonymous": false,
					"inputs": [
						{
							"indexed": false,
							"internalType": "address",
							"name": "account",
							"type": "address"
						}
					],
					"name": "Paused",
					"type": "event"
				},
				{
					"anonymous": false,
					"inputs": [
						{
							"indexed": false,
							"internalType": "address",
							"name": "account",
							"type": "address"
						}
					],
					"name": "Unpaused",
					"type": "event"
				},
				{
					"inputs": [
						{
							"internalType": "uint256",
							"name": "",
							"type": "uint256"
						}
					],
					"name": "activeListingIds",
					"outputs": [
						{
							"internalType": "uint256",
							"name": "",
							"type": "uint256"
						}
					],
					"stateMutability": "view",
					"type": "function"
				},
				{
					"inputs": [
						{
							"internalType": "uint256",
							"name": "_listingId",
							"type": "uint256"
						}
					],
					"name": "buyNFT",
					"outputs": [],
					"stateMutability": "payable",
					"type": "function"
				},
				{
					"inputs": [
						{
							"internalType": "uint256",
							"name": "_listingId",
							"type": "uint256"
						}
					],
					"name": "cancelListing",
					"outputs": [],
					"stateMutability": "nonpayable",
					"type": "function"
				},
				{
					"inputs": [],
					"name": "getAllListingInfo",
					"outputs": [
						{
							"components": [
								{
									"internalType": "uint256",
									"name": "listingId",
									"type": "uint256"
								},
								{
									"internalType": "uint256[]",
									"name": "nftIds",
									"type": "uint256[]"
								},
								{
									"internalType": "string",
									"name": "tokenMetadataLink",
									"type": "string"
								}
							],
							"internalType": "struct GotasNFTMarketplace.ListingInfo[]",
							"name": "",
							"type": "tuple[]"
						}
					],
					"stateMutability": "view",
					"type": "function"
				},
				{
					"inputs": [
						{
							"internalType": "address",
							"name": "_nftContractAddress",
							"type": "address"
						},
						{
							"internalType": "uint256[]",
							"name": "_nftIds",
							"type": "uint256[]"
						},
						{
							"internalType": "uint256[]",
							"name": "_prices",
							"type": "uint256[]"
						},
						{
							"internalType": "uint256",
							"name": "_deadline",
							"type": "uint256"
						}
					],
					"name": "listNFT",
					"outputs": [],
					"stateMutability": "nonpayable",
					"type": "function"
				},
				{
					"inputs": [
						{
							"internalType": "uint256",
							"name": "",
							"type": "uint256"
						}
					],
					"name": "listingOwners",
					"outputs": [
						{
							"internalType": "address",
							"name": "",
							"type": "address"
						}
					],
					"stateMutability": "view",
					"type": "function"
				},
				{
					"inputs": [
						{
							"internalType": "uint256",
							"name": "",
							"type": "uint256"
						}
					],
					"name": "listings",
					"outputs": [
						{
							"internalType": "address",
							"name": "nftContractAddress",
							"type": "address"
						},
						{
							"internalType": "address",
							"name": "seller",
							"type": "address"
						},
						{
							"internalType": "uint256",
							"name": "deadline",
							"type": "uint256"
						}
					],
					"stateMutability": "view",
					"type": "function"
				},
				{
					"inputs": [],
					"name": "nextListingId",
					"outputs": [
						{
							"internalType": "uint256",
							"name": "",
							"type": "uint256"
						}
					],
					"stateMutability": "view",
					"type": "function"
				},
				{
					"inputs": [],
					"name": "owner",
					"outputs": [
						{
							"internalType": "address",
							"name": "",
							"type": "address"
						}
					],
					"stateMutability": "view",
					"type": "function"
				},
				{
					"inputs": [],
					"name": "pause",
					"outputs": [],
					"stateMutability": "nonpayable",
					"type": "function"
				},
				{
					"inputs": [],
					"name": "paused",
					"outputs": [
						{
							"internalType": "bool",
							"name": "",
							"type": "bool"
						}
					],
					"stateMutability": "view",
					"type": "function"
				},
				{
					"inputs": [],
					"name": "platformFeeAddress",
					"outputs": [
						{
							"internalType": "address",
							"name": "",
							"type": "address"
						}
					],
					"stateMutability": "view",
					"type": "function"
				},
				{
					"inputs": [],
					"name": "platformFeePercentage",
					"outputs": [
						{
							"internalType": "uint256",
							"name": "",
							"type": "uint256"
						}
					],
					"stateMutability": "view",
					"type": "function"
				},
				{
					"inputs": [],
					"name": "renounceOwnership",
					"outputs": [],
					"stateMutability": "nonpayable",
					"type": "function"
				},
				{
					"inputs": [],
					"name": "royaltyAddress",
					"outputs": [
						{
							"internalType": "address",
							"name": "",
							"type": "address"
						}
					],
					"stateMutability": "view",
					"type": "function"
				},
				{
					"inputs": [],
					"name": "royaltyPercentage",
					"outputs": [
						{
							"internalType": "uint256",
							"name": "",
							"type": "uint256"
						}
					],
					"stateMutability": "view",
					"type": "function"
				},
				{
					"inputs": [
						{
							"internalType": "address",
							"name": "newOwner",
							"type": "address"
						}
					],
					"name": "transferOwnership",
					"outputs": [],
					"stateMutability": "nonpayable",
					"type": "function"
				},
				{
					"inputs": [],
					"name": "unpause",
					"outputs": [],
					"stateMutability": "nonpayable",
					"type": "function"
				},
				{
					"inputs": [
						{
							"internalType": "address",
							"name": "_newRoyaltyAddress",
							"type": "address"
						},
						{
							"internalType": "address",
							"name": "_newPlatformFeeAddress",
							"type": "address"
						}
					],
					"name": "updateFeeAddresses",
					"outputs": [],
					"stateMutability": "nonpayable",
					"type": "function"
				},
				{
					"inputs": [
						{
							"internalType": "uint256",
							"name": "_newRoyaltyPercentage",
							"type": "uint256"
						},
						{
							"internalType": "uint256",
							"name": "_newPlatformFeePercentage",
							"type": "uint256"
						}
					],
					"name": "updateFeePercentages",
					"outputs": [],
					"stateMutability": "nonpayable",
					"type": "function"
				}
			],
			"devdoc": {
				"kind": "dev",
				"methods": {
					"owner()": {
						"details": "Returns the address of the current owner."
					},
					"paused()": {
						"details": "Returns true if the contract is paused, and false otherwise."
					},
					"renounceOwnership()": {
						"details": "Leaves the contract without owner. It will not be possible to call `onlyOwner` functions. Can only be called by the current owner. NOTE: Renouncing ownership will leave the contract without an owner, thereby disabling any functionality that is only available to the owner."
					},
					"transferOwnership(address)": {
						"details": "Transfers ownership of the contract to a new account (`newOwner`). Can only be called by the current owner."
					}
				},
				"version": 1
			},
			"evm": {
				"assembly": "    /* \"mercado_gotas_multiplos_nfts.sol\":406:6707  contract GotasNFTMarketplace is Ownable, ReentrancyGuard, Pausable {... */\n  mstore(0x40, 0x80)\n    /* \"mercado_gotas_multiplos_nfts.sol\":1156:1157  1 */\n  0x01\n    /* \"mercado_gotas_multiplos_nfts.sol\":1125:1157  uint256 public nextListingId = 1 */\n  0x0a\n  sstore\n    /* \"mercado_gotas_multiplos_nfts.sol\":1501:1943  constructor(uint256 _royaltyPercentage, uint256 _platformFeePercentage, address _royaltyAddress, address _platformFeeAddress) {... */\n  callvalue\n  dup1\n  iszero\n  tag_1\n  jumpi\n  0x00\n  dup1\n  revert\ntag_1:\n  pop\n  mload(0x40)\n  sub(codesize, bytecodeSize)\n  dup1\n  bytecodeSize\n  dup4\n  codecopy\n  dup2\n  dup2\n  add\n  0x40\n  mstore\n  dup2\n  add\n  swap1\n  tag_2\n  swap2\n  swap1\n  tag_3\n  jump\t// in\ntag_2:\n    /* \"@openzeppelin/contracts/access/Ownable.sol\":936:968  _transferOwnership(_msgSender()) */\n  tag_9\n    /* \"@openzeppelin/contracts/access/Ownable.sol\":955:967  _msgSender() */\n  tag_10\n    /* \"@openzeppelin/contracts/access/Ownable.sol\":955:965  _msgSender */\n  shl(0x20, tag_11)\n    /* \"@openzeppelin/contracts/access/Ownable.sol\":955:967  _msgSender() */\n  0x20\n  shr\n  jump\t// in\ntag_10:\n    /* \"@openzeppelin/contracts/access/Ownable.sol\":936:954  _transferOwnership */\n  shl(0x20, tag_12)\n    /* \"@openzeppelin/contracts/access/Ownable.sol\":936:968  _transferOwnership(_msgSender()) */\n  0x20\n  shr\n  jump\t// in\ntag_9:\n    /* \"@openzeppelin/contracts/security/ReentrancyGuard.sol\":1716:1717  1 */\n  0x01\n    /* \"@openzeppelin/contracts/security/ReentrancyGuard.sol\":1821:1828  _status */\n  dup1\n    /* \"@openzeppelin/contracts/security/ReentrancyGuard.sol\":1821:1843  _status = _NOT_ENTERED */\n  dup2\n  swap1\n  sstore\n  pop\n    /* \"@openzeppelin/contracts/security/Pausable.sol\":1006:1011  false */\n  0x00\n    /* \"@openzeppelin/contracts/security/Pausable.sol\":996:1003  _paused */\n  0x02\n  0x00\n    /* \"@openzeppelin/contracts/security/Pausable.sol\":996:1011  _paused = false */\n  0x0100\n  exp\n  dup2\n  sload\n  dup2\n  0xff\n  mul\n  not\n  and\n  swap1\n  dup4\n  iszero\n  iszero\n  mul\n  or\n  swap1\n  sstore\n  pop\n    /* \"mercado_gotas_multiplos_nfts.sol\":1672:1673  0 */\n  0x00\n    /* \"mercado_gotas_multiplos_nfts.sol\":1645:1674  _royaltyAddress != address(0) */\n  0xffffffffffffffffffffffffffffffffffffffff\n  and\n    /* \"mercado_gotas_multiplos_nfts.sol\":1645:1660  _royaltyAddress */\n  dup3\n    /* \"mercado_gotas_multiplos_nfts.sol\":1645:1674  _royaltyAddress != address(0) */\n  0xffffffffffffffffffffffffffffffffffffffff\n  and\n  eq\n  iszero\n    /* \"mercado_gotas_multiplos_nfts.sol\":1645:1711  _royaltyAddress != address(0) && _platformFeeAddress != address(0) */\n  dup1\n  iszero\n  tag_16\n  jumpi\n  pop\n    /* \"mercado_gotas_multiplos_nfts.sol\":1709:1710  0 */\n  0x00\n    /* \"mercado_gotas_multiplos_nfts.sol\":1678:1711  _platformFeeAddress != address(0) */\n  0xffffffffffffffffffffffffffffffffffffffff\n  and\n    /* \"mercado_gotas_multiplos_nfts.sol\":1678:1697  _platformFeeAddress */\n  dup2\n    /* \"mercado_gotas_multiplos_nfts.sol\":1678:1711  _platformFeeAddress != address(0) */\n  0xffffffffffffffffffffffffffffffffffffffff\n  and\n  eq\n  iszero\n    /* \"mercado_gotas_multiplos_nfts.sol\":1645:1711  _royaltyAddress != address(0) && _platformFeeAddress != address(0) */\ntag_16:\n    /* \"mercado_gotas_multiplos_nfts.sol\":1637:1740  require(_royaltyAddress != address(0) && _platformFeeAddress != address(0), \"Addresses cannot be zero\") */\n  tag_17\n  jumpi\n  mload(0x40)\n  0x08c379a000000000000000000000000000000000000000000000000000000000\n  dup2\n  mstore\n  0x04\n  add\n  tag_18\n  swap1\n  tag_19\n  jump\t// in\ntag_18:\n  mload(0x40)\n  dup1\n  swap2\n  sub\n  swap1\n  revert\ntag_17:\n    /* \"mercado_gotas_multiplos_nfts.sol\":1770:1788  _royaltyPercentage */\n  dup4\n    /* \"mercado_gotas_multiplos_nfts.sol\":1750:1767  royaltyPercentage */\n  0x04\n    /* \"mercado_gotas_multiplos_nfts.sol\":1750:1788  royaltyPercentage = _royaltyPercentage */\n  dup2\n  swap1\n  sstore\n  pop\n    /* \"mercado_gotas_multiplos_nfts.sol\":1822:1844  _platformFeePercentage */\n  dup3\n    /* \"mercado_gotas_multiplos_nfts.sol\":1798:1819  platformFeePercentage */\n  0x05\n    /* \"mercado_gotas_multiplos_nfts.sol\":1798:1844  platformFeePercentage = _platformFeePercentage */\n  dup2\n  swap1\n  sstore\n  pop\n    /* \"mercado_gotas_multiplos_nfts.sol\":1871:1886  _royaltyAddress */\n  dup2\n    /* \"mercado_gotas_multiplos_nfts.sol\":1854:1868  royaltyAddress */\n  0x06\n  0x00\n    /* \"mercado_gotas_multiplos_nfts.sol\":1854:1886  royaltyAddress = _royaltyAddress */\n  0x0100\n  exp\n  dup2\n  sload\n  dup2\n  0xffffffffffffffffffffffffffffffffffffffff\n  mul\n  not\n  and\n  swap1\n  dup4\n  0xffffffffffffffffffffffffffffffffffffffff\n  and\n  mul\n  or\n  swap1\n  sstore\n  pop\n    /* \"mercado_gotas_multiplos_nfts.sol\":1917:1936  _platformFeeAddress */\n  dup1\n    /* \"mercado_gotas_multiplos_nfts.sol\":1896:1914  platformFeeAddress */\n  0x07\n  0x00\n    /* \"mercado_gotas_multiplos_nfts.sol\":1896:1936  platformFeeAddress = _platformFeeAddress */\n  0x0100\n  exp\n  dup2\n  sload\n  dup2\n  0xffffffffffffffffffffffffffffffffffffffff\n  mul\n  not\n  and\n  swap1\n  dup4\n  0xffffffffffffffffffffffffffffffffffffffff\n  and\n  mul\n  or\n  swap1\n  sstore\n  pop\n    /* \"mercado_gotas_multiplos_nfts.sol\":1501:1943  constructor(uint256 _royaltyPercentage, uint256 _platformFeePercentage, address _royaltyAddress, address _platformFeeAddress) {... */\n  pop\n  pop\n  pop\n  pop\n    /* \"mercado_gotas_multiplos_nfts.sol\":406:6707  contract GotasNFTMarketplace is Ownable, ReentrancyGuard, Pausable {... */\n  jump(tag_20)\n    /* \"@openzeppelin/contracts/utils/Context.sol\":640:736  function _msgSender() internal view virtual returns (address) {... */\ntag_11:\n    /* \"@openzeppelin/contracts/utils/Context.sol\":693:700  address */\n  0x00\n    /* \"@openzeppelin/contracts/utils/Context.sol\":719:729  msg.sender */\n  caller\n    /* \"@openzeppelin/contracts/utils/Context.sol\":712:729  return msg.sender */\n  swap1\n  pop\n    /* \"@openzeppelin/contracts/utils/Context.sol\":640:736  function _msgSender() internal view virtual returns (address) {... */\n  swap1\n  jump\t// out\n    /* \"@openzeppelin/contracts/access/Ownable.sol\":2426:2613  function _transferOwnership(address newOwner) internal virtual {... */\ntag_12:\n    /* \"@openzeppelin/contracts/access/Ownable.sol\":2499:2515  address oldOwner */\n  0x00\n    /* \"@openzeppelin/contracts/access/Ownable.sol\":2518:2524  _owner */\n  dup1\n  0x00\n  swap1\n  sload\n  swap1\n  0x0100\n  exp\n  swap1\n  div\n  0xffffffffffffffffffffffffffffffffffffffff\n  and\n    /* \"@openzeppelin/contracts/access/Ownable.sol\":2499:2524  address oldOwner = _owner */\n  swap1\n  pop\n    /* \"@openzeppelin/contracts/access/Ownable.sol\":2543:2551  newOwner */\n  dup2\n    /* \"@openzeppelin/contracts/access/Ownable.sol\":2534:2540  _owner */\n  0x00\n  dup1\n    /* \"@openzeppelin/contracts/access/Ownable.sol\":2534:2551  _owner = newOwner */\n  0x0100\n  exp\n  dup2\n  sload\n  dup2\n  0xffffffffffffffffffffffffffffffffffffffff\n  mul\n  not\n  and\n  swap1\n  dup4\n  0xffffffffffffffffffffffffffffffffffffffff\n  and\n  mul\n  or\n  swap1\n  sstore\n  pop\n    /* \"@openzeppelin/contracts/access/Ownable.sol\":2597:2605  newOwner */\n  dup2\n    /* \"@openzeppelin/contracts/access/Ownable.sol\":2566:2606  OwnershipTransferred(oldOwner, newOwner) */\n  0xffffffffffffffffffffffffffffffffffffffff\n  and\n    /* \"@openzeppelin/contracts/access/Ownable.sol\":2587:2595  oldOwner */\n  dup2\n    /* \"@openzeppelin/contracts/access/Ownable.sol\":2566:2606  OwnershipTransferred(oldOwner, newOwner) */\n  0xffffffffffffffffffffffffffffffffffffffff\n  and\n  0x8be0079c531659141344cd1fd0a4f28419497f9722a3daafe3b4186f6b6457e0\n  mload(0x40)\n  mload(0x40)\n  dup1\n  swap2\n  sub\n  swap1\n  log3\n    /* \"@openzeppelin/contracts/access/Ownable.sol\":2426:2613  function _transferOwnership(address newOwner) internal virtual {... */\n  pop\n  pop\n  jump\t// out\n    /* \"#utility.yul\":7:150   */\ntag_24:\n  0x00\n    /* \"#utility.yul\":95:101   */\n  dup2\n    /* \"#utility.yul\":89:102   */\n  mload\n    /* \"#utility.yul\":80:102   */\n  swap1\n  pop\n    /* \"#utility.yul\":111:144   */\n  tag_26\n    /* \"#utility.yul\":138:143   */\n  dup2\n    /* \"#utility.yul\":111:144   */\n  tag_27\n  jump\t// in\ntag_26:\n    /* \"#utility.yul\":70:150   */\n  swap3\n  swap2\n  pop\n  pop\n  jump\t// out\n    /* \"#utility.yul\":156:299   */\ntag_28:\n  0x00\n    /* \"#utility.yul\":244:250   */\n  dup2\n    /* \"#utility.yul\":238:251   */\n  mload\n    /* \"#utility.yul\":229:251   */\n  swap1\n  pop\n    /* \"#utility.yul\":260:293   */\n  tag_30\n    /* \"#utility.yul\":287:292   */\n  dup2\n    /* \"#utility.yul\":260:293   */\n  tag_31\n  jump\t// in\ntag_30:\n    /* \"#utility.yul\":219:299   */\n  swap3\n  swap2\n  pop\n  pop\n  jump\t// out\n    /* \"#utility.yul\":305:1058   */\ntag_3:\n  0x00\n  dup1\n  0x00\n  dup1\n    /* \"#utility.yul\":475:478   */\n  0x80\n    /* \"#utility.yul\":463:472   */\n  dup6\n    /* \"#utility.yul\":454:461   */\n  dup8\n    /* \"#utility.yul\":450:473   */\n  sub\n    /* \"#utility.yul\":446:479   */\n  slt\n    /* \"#utility.yul\":443:445   */\n  iszero\n  tag_33\n  jumpi\n    /* \"#utility.yul\":492:493   */\n  0x00\n    /* \"#utility.yul\":489:490   */\n  dup1\n    /* \"#utility.yul\":482:494   */\n  revert\n    /* \"#utility.yul\":443:445   */\ntag_33:\n    /* \"#utility.yul\":535:536   */\n  0x00\n    /* \"#utility.yul\":560:624   */\n  tag_34\n    /* \"#utility.yul\":616:623   */\n  dup8\n    /* \"#utility.yul\":607:613   */\n  dup3\n    /* \"#utility.yul\":596:605   */\n  dup9\n    /* \"#utility.yul\":592:614   */\n  add\n    /* \"#utility.yul\":560:624   */\n  tag_28\n  jump\t// in\ntag_34:\n    /* \"#utility.yul\":550:624   */\n  swap5\n  pop\n    /* \"#utility.yul\":506:634   */\n  pop\n    /* \"#utility.yul\":673:675   */\n  0x20\n    /* \"#utility.yul\":699:763   */\n  tag_35\n    /* \"#utility.yul\":755:762   */\n  dup8\n    /* \"#utility.yul\":746:752   */\n  dup3\n    /* \"#utility.yul\":735:744   */\n  dup9\n    /* \"#utility.yul\":731:753   */\n  add\n    /* \"#utility.yul\":699:763   */\n  tag_28\n  jump\t// in\ntag_35:\n    /* \"#utility.yul\":689:763   */\n  swap4\n  pop\n    /* \"#utility.yul\":644:773   */\n  pop\n    /* \"#utility.yul\":812:814   */\n  0x40\n    /* \"#utility.yul\":838:902   */\n  tag_36\n    /* \"#utility.yul\":894:901   */\n  dup8\n    /* \"#utility.yul\":885:891   */\n  dup3\n    /* \"#utility.yul\":874:883   */\n  dup9\n    /* \"#utility.yul\":870:892   */\n  add\n    /* \"#utility.yul\":838:902   */\n  tag_24\n  jump\t// in\ntag_36:\n    /* \"#utility.yul\":828:902   */\n  swap3\n  pop\n    /* \"#utility.yul\":783:912   */\n  pop\n    /* \"#utility.yul\":951:953   */\n  0x60\n    /* \"#utility.yul\":977:1041   */\n  tag_37\n    /* \"#utility.yul\":1033:1040   */\n  dup8\n    /* \"#utility.yul\":1024:1030   */\n  dup3\n    /* \"#utility.yul\":1013:1022   */\n  dup9\n    /* \"#utility.yul\":1009:1031   */\n  add\n    /* \"#utility.yul\":977:1041   */\n  tag_24\n  jump\t// in\ntag_37:\n    /* \"#utility.yul\":967:1041   */\n  swap2\n  pop\n    /* \"#utility.yul\":922:1051   */\n  pop\n    /* \"#utility.yul\":433:1058   */\n  swap3\n  swap6\n  swap2\n  swap5\n  pop\n  swap3\n  pop\n  jump\t// out\n    /* \"#utility.yul\":1064:1386   */\ntag_38:\n  0x00\n    /* \"#utility.yul\":1227:1294   */\n  tag_40\n    /* \"#utility.yul\":1291:1293   */\n  0x18\n    /* \"#utility.yul\":1286:1289   */\n  dup4\n    /* \"#utility.yul\":1227:1294   */\n  tag_41\n  jump\t// in\ntag_40:\n    /* \"#utility.yul\":1220:1294   */\n  swap2\n  pop\n    /* \"#utility.yul\":1324:1350   */\n  0x4164647265737365732063616e6e6f74206265207a65726f0000000000000000\n    /* \"#utility.yul\":1320:1321   */\n  0x00\n    /* \"#utility.yul\":1315:1318   */\n  dup4\n    /* \"#utility.yul\":1311:1322   */\n  add\n    /* \"#utility.yul\":1304:1351   */\n  mstore\n    /* \"#utility.yul\":1377:1379   */\n  0x20\n    /* \"#utility.yul\":1372:1375   */\n  dup3\n    /* \"#utility.yul\":1368:1380   */\n  add\n    /* \"#utility.yul\":1361:1380   */\n  swap1\n  pop\n    /* \"#utility.yul\":1210:1386   */\n  swap2\n  swap1\n  pop\n  jump\t// out\n    /* \"#utility.yul\":1392:1811   */\ntag_19:\n  0x00\n    /* \"#utility.yul\":1596:1598   */\n  0x20\n    /* \"#utility.yul\":1585:1594   */\n  dup3\n    /* \"#utility.yul\":1581:1599   */\n  add\n    /* \"#utility.yul\":1573:1599   */\n  swap1\n  pop\n    /* \"#utility.yul\":1645:1654   */\n  dup2\n    /* \"#utility.yul\":1639:1643   */\n  dup2\n    /* \"#utility.yul\":1635:1655   */\n  sub\n    /* \"#utility.yul\":1631:1632   */\n  0x00\n    /* \"#utility.yul\":1620:1629   */\n  dup4\n    /* \"#utility.yul\":1616:1633   */\n  add\n    /* \"#utility.yul\":1609:1656   */\n  mstore\n    /* \"#utility.yul\":1673:1804   */\n  tag_43\n    /* \"#utility.yul\":1799:1803   */\n  dup2\n    /* \"#utility.yul\":1673:1804   */\n  tag_38\n  jump\t// in\ntag_43:\n    /* \"#utility.yul\":1665:1804   */\n  swap1\n  pop\n    /* \"#utility.yul\":1563:1811   */\n  swap2\n  swap1\n  pop\n  jump\t// out\n    /* \"#utility.yul\":1817:1986   */\ntag_41:\n  0x00\n    /* \"#utility.yul\":1935:1941   */\n  dup3\n    /* \"#utility.yul\":1930:1933   */\n  dup3\n    /* \"#utility.yul\":1923:1942   */\n  mstore\n    /* \"#utility.yul\":1975:1979   */\n  0x20\n    /* \"#utility.yul\":1970:1973   */\n  dup3\n    /* \"#utility.yul\":1966:1980   */\n  add\n    /* \"#utility.yul\":1951:1980   */\n  swap1\n  pop\n    /* \"#utility.yul\":1913:1986   */\n  swap3\n  swap2\n  pop\n  pop\n  jump\t// out\n    /* \"#utility.yul\":1992:2088   */\ntag_45:\n  0x00\n    /* \"#utility.yul\":2058:2082   */\n  tag_47\n    /* \"#utility.yul\":2076:2081   */\n  dup3\n    /* \"#utility.yul\":2058:2082   */\n  tag_48\n  jump\t// in\ntag_47:\n    /* \"#utility.yul\":2047:2082   */\n  swap1\n  pop\n    /* \"#utility.yul\":2037:2088   */\n  swap2\n  swap1\n  pop\n  jump\t// out\n    /* \"#utility.yul\":2094:2220   */\ntag_48:\n  0x00\n    /* \"#utility.yul\":2171:2213   */\n  0xffffffffffffffffffffffffffffffffffffffff\n    /* \"#utility.yul\":2164:2169   */\n  dup3\n    /* \"#utility.yul\":2160:2214   */\n  and\n    /* \"#utility.yul\":2149:2214   */\n  swap1\n  pop\n    /* \"#utility.yul\":2139:2220   */\n  swap2\n  swap1\n  pop\n  jump\t// out\n    /* \"#utility.yul\":2226:2303   */\ntag_50:\n  0x00\n    /* \"#utility.yul\":2292:2297   */\n  dup2\n    /* \"#utility.yul\":2281:2297   */\n  swap1\n  pop\n    /* \"#utility.yul\":2271:2303   */\n  swap2\n  swap1\n  pop\n  jump\t// out\n    /* \"#utility.yul\":2309:2431   */\ntag_27:\n    /* \"#utility.yul\":2382:2406   */\n  tag_53\n    /* \"#utility.yul\":2400:2405   */\n  dup2\n    /* \"#utility.yul\":2382:2406   */\n  tag_45\n  jump\t// in\ntag_53:\n    /* \"#utility.yul\":2375:2380   */\n  dup2\n    /* \"#utility.yul\":2372:2407   */\n  eq\n    /* \"#utility.yul\":2362:2364   */\n  tag_54\n  jumpi\n    /* \"#utility.yul\":2421:2422   */\n  0x00\n    /* \"#utility.yul\":2418:2419   */\n  dup1\n    /* \"#utility.yul\":2411:2423   */\n  revert\n    /* \"#utility.yul\":2362:2364   */\ntag_54:\n    /* \"#utility.yul\":2352:2431   */\n  pop\n  jump\t// out\n    /* \"#utility.yul\":2437:2559   */\ntag_31:\n    /* \"#utility.yul\":2510:2534   */\n  tag_56\n    /* \"#utility.yul\":2528:2533   */\n  dup2\n    /* \"#utility.yul\":2510:2534   */\n  tag_50\n  jump\t// in\ntag_56:\n    /* \"#utility.yul\":2503:2508   */\n  dup2\n    /* \"#utility.yul\":2500:2535   */\n  eq\n    /* \"#utility.yul\":2490:2492   */\n  tag_57\n  jumpi\n    /* \"#utility.yul\":2549:2550   */\n  0x00\n    /* \"#utility.yul\":2546:2547   */\n  dup1\n    /* \"#utility.yul\":2539:2551   */\n  revert\n    /* \"#utility.yul\":2490:2492   */\ntag_57:\n    /* \"#utility.yul\":2480:2559   */\n  pop\n  jump\t// out\n    /* \"mercado_gotas_multiplos_nfts.sol\":406:6707  contract GotasNFTMarketplace is Ownable, ReentrancyGuard, Pausable {... */\ntag_20:\n  dataSize(sub_0)\n  dup1\n  dataOffset(sub_0)\n  0x00\n  codecopy\n  0x00\n  return\nstop\n\nsub_0: assembly {\n        /* \"mercado_gotas_multiplos_nfts.sol\":406:6707  contract GotasNFTMarketplace is Ownable, ReentrancyGuard, Pausable {... */\n      mstore(0x40, 0x80)\n      jumpi(tag_1, lt(calldatasize, 0x04))\n      shr(0xe0, calldataload(0x00))\n      dup1\n      0x8456cb59\n      gt\n      tag_22\n      jumpi\n      dup1\n      0xcdd78cfc\n      gt\n      tag_23\n      jumpi\n      dup1\n      0xcdd78cfc\n      eq\n      tag_17\n      jumpi\n      dup1\n      0xde74e57b\n      eq\n      tag_18\n      jumpi\n      dup1\n      0xe3b6a1f6\n      eq\n      tag_19\n      jumpi\n      dup1\n      0xed14834f\n      eq\n      tag_20\n      jumpi\n      dup1\n      0xf2fde38b\n      eq\n      tag_21\n      jumpi\n      jump(tag_1)\n    tag_23:\n      dup1\n      0x8456cb59\n      eq\n      tag_12\n      jumpi\n      dup1\n      0x8a71bb2d\n      eq\n      tag_13\n      jumpi\n      dup1\n      0x8da5cb5b\n      eq\n      tag_14\n      jumpi\n      dup1\n      0xaaccf1ec\n      eq\n      tag_15\n      jumpi\n      dup1\n      0xad2f852a\n      eq\n      tag_16\n      jumpi\n      jump(tag_1)\n    tag_22:\n      dup1\n      0x5c975abb\n      gt\n      tag_24\n      jumpi\n      dup1\n      0x5c975abb\n      eq\n      tag_7\n      jumpi\n      dup1\n      0x5e4e8d65\n      eq\n      tag_8\n      jumpi\n      dup1\n      0x715018a6\n      eq\n      tag_9\n      jumpi\n      dup1\n      0x78578bb3\n      eq\n      tag_10\n      jumpi\n      dup1\n      0x7bdaceef\n      eq\n      tag_11\n      jumpi\n      jump(tag_1)\n    tag_24:\n      dup1\n      0x305a67a8\n      eq\n      tag_2\n      jumpi\n      dup1\n      0x3558ce0c\n      eq\n      tag_3\n      jumpi\n      dup1\n      0x3f4ba83a\n      eq\n      tag_4\n      jumpi\n      dup1\n      0x51ed8288\n      eq\n      tag_5\n      jumpi\n      dup1\n      0x5865fe5a\n      eq\n      tag_6\n      jumpi\n    tag_1:\n      0x00\n      dup1\n      revert\n        /* \"mercado_gotas_multiplos_nfts.sol\":4802:5100  function cancelListing(uint256 _listingId) external nonReentrant {... */\n    tag_2:\n      callvalue\n      dup1\n      iszero\n      tag_25\n      jumpi\n      0x00\n      dup1\n      revert\n    tag_25:\n      pop\n      tag_26\n      0x04\n      dup1\n      calldatasize\n      sub\n      dup2\n      add\n      swap1\n      tag_27\n      swap2\n      swap1\n      tag_28\n      jump\t// in\n    tag_27:\n      tag_29\n      jump\t// in\n    tag_26:\n      stop\n        /* \"mercado_gotas_multiplos_nfts.sol\":5871:6705  function getAllListingInfo() external view returns (ListingInfo[] memory) {... */\n    tag_3:\n      callvalue\n      dup1\n      iszero\n      tag_30\n      jumpi\n      0x00\n      dup1\n      revert\n    tag_30:\n      pop\n      tag_31\n      tag_32\n      jump\t// in\n    tag_31:\n      mload(0x40)\n      tag_33\n      swap2\n      swap1\n      tag_34\n      jump\t// in\n    tag_33:\n      mload(0x40)\n      dup1\n      swap2\n      sub\n      swap1\n      return\n        /* \"mercado_gotas_multiplos_nfts.sol\":5186:5264  function unpause() external onlyOwner nonReentrant {... */\n    tag_4:\n      callvalue\n      dup1\n      iszero\n      tag_35\n      jumpi\n      0x00\n      dup1\n      revert\n    tag_35:\n      pop\n      tag_36\n      tag_37\n      jump\t// in\n    tag_36:\n      stop\n        /* \"mercado_gotas_multiplos_nfts.sol\":3226:4796  function buyNFT(uint256 _listingId) external payable whenNotPaused nonReentrant {... */\n    tag_5:\n      tag_38\n      0x04\n      dup1\n      calldatasize\n      sub\n      dup2\n      add\n      swap1\n      tag_39\n      swap2\n      swap1\n      tag_28\n      jump\t// in\n    tag_39:\n      tag_40\n      jump\t// in\n    tag_38:\n      stop\n        /* \"mercado_gotas_multiplos_nfts.sol\":1949:3220  function listNFT(address _nftContractAddress, uint256[] memory _nftIds, uint256[] memory _prices, uint256 _deadline) external whenNotPaused nonReentrant {... */\n    tag_6:\n      callvalue\n      dup1\n      iszero\n      tag_41\n      jumpi\n      0x00\n      dup1\n      revert\n    tag_41:\n      pop\n      tag_42\n      0x04\n      dup1\n      calldatasize\n      sub\n      dup2\n      add\n      swap1\n      tag_43\n      swap2\n      swap1\n      tag_44\n      jump\t// in\n    tag_43:\n      tag_45\n      jump\t// in\n    tag_42:\n      stop\n        /* \"@openzeppelin/contracts/security/Pausable.sol\":1615:1699  function paused() public view virtual returns (bool) {... */\n    tag_7:\n      callvalue\n      dup1\n      iszero\n      tag_46\n      jumpi\n      0x00\n      dup1\n      revert\n    tag_46:\n      pop\n      tag_47\n      tag_48\n      jump\t// in\n    tag_47:\n      mload(0x40)\n      tag_49\n      swap2\n      swap1\n      tag_50\n      jump\t// in\n    tag_49:\n      mload(0x40)\n      dup1\n      swap2\n      sub\n      swap1\n      return\n        /* \"mercado_gotas_multiplos_nfts.sol\":5270:5614  function updateFeeAddresses(address _newRoyaltyAddress, address _newPlatformFeeAddress) external onlyOwner nonReentrant {... */\n    tag_8:\n      callvalue\n      dup1\n      iszero\n      tag_51\n      jumpi\n      0x00\n      dup1\n      revert\n    tag_51:\n      pop\n      tag_52\n      0x04\n      dup1\n      calldatasize\n      sub\n      dup2\n      add\n      swap1\n      tag_53\n      swap2\n      swap1\n      tag_54\n      jump\t// in\n    tag_53:\n      tag_55\n      jump\t// in\n    tag_52:\n      stop\n        /* \"@openzeppelin/contracts/access/Ownable.sol\":1824:1925  function renounceOwnership() public virtual onlyOwner {... */\n    tag_9:\n      callvalue\n      dup1\n      iszero\n      tag_56\n      jumpi\n      0x00\n      dup1\n      revert\n    tag_56:\n      pop\n      tag_57\n      tag_58\n      jump\t// in\n    tag_57:\n      stop\n        /* \"mercado_gotas_multiplos_nfts.sol\":5620:5865  function updateFeePercentages(uint256 _newRoyaltyPercentage, uint256 _newPlatformFeePercentage) external onlyOwner nonReentrant {... */\n    tag_10:\n      callvalue\n      dup1\n      iszero\n      tag_59\n      jumpi\n      0x00\n      dup1\n      revert\n    tag_59:\n      pop\n      tag_60\n      0x04\n      dup1\n      calldatasize\n      sub\n      dup2\n      add\n      swap1\n      tag_61\n      swap2\n      swap1\n      tag_62\n      jump\t// in\n    tag_61:\n      tag_63\n      jump\t// in\n    tag_60:\n      stop\n        /* \"mercado_gotas_multiplos_nfts.sol\":1070:1118  mapping(uint256 => address) public listingOwners */\n    tag_11:\n      callvalue\n      dup1\n      iszero\n      tag_64\n      jumpi\n      0x00\n      dup1\n      revert\n    tag_64:\n      pop\n      tag_65\n      0x04\n      dup1\n      calldatasize\n      sub\n      dup2\n      add\n      swap1\n      tag_66\n      swap2\n      swap1\n      tag_28\n      jump\t// in\n    tag_66:\n      tag_67\n      jump\t// in\n    tag_65:\n      mload(0x40)\n      tag_68\n      swap2\n      swap1\n      tag_69\n      jump\t// in\n    tag_68:\n      mload(0x40)\n      dup1\n      swap2\n      sub\n      swap1\n      return\n        /* \"mercado_gotas_multiplos_nfts.sol\":5106:5180  function pause() external onlyOwner nonReentrant {... */\n    tag_12:\n      callvalue\n      dup1\n      iszero\n      tag_70\n      jumpi\n      0x00\n      dup1\n      revert\n    tag_70:\n      pop\n      tag_71\n      tag_72\n      jump\t// in\n    tag_71:\n      stop\n        /* \"mercado_gotas_multiplos_nfts.sol\":865:897  uint256 public royaltyPercentage */\n    tag_13:\n      callvalue\n      dup1\n      iszero\n      tag_73\n      jumpi\n      0x00\n      dup1\n      revert\n    tag_73:\n      pop\n      tag_74\n      tag_75\n      jump\t// in\n    tag_74:\n      mload(0x40)\n      tag_76\n      swap2\n      swap1\n      tag_77\n      jump\t// in\n    tag_76:\n      mload(0x40)\n      dup1\n      swap2\n      sub\n      swap1\n      return\n        /* \"@openzeppelin/contracts/access/Ownable.sol\":1201:1286  function owner() public view virtual returns (address) {... */\n    tag_14:\n      callvalue\n      dup1\n      iszero\n      tag_78\n      jumpi\n      0x00\n      dup1\n      revert\n    tag_78:\n      pop\n      tag_79\n      tag_80\n      jump\t// in\n    tag_79:\n      mload(0x40)\n      tag_81\n      swap2\n      swap1\n      tag_69\n      jump\t// in\n    tag_81:\n      mload(0x40)\n      dup1\n      swap2\n      sub\n      swap1\n      return\n        /* \"mercado_gotas_multiplos_nfts.sol\":1125:1157  uint256 public nextListingId = 1 */\n    tag_15:\n      callvalue\n      dup1\n      iszero\n      tag_82\n      jumpi\n      0x00\n      dup1\n      revert\n    tag_82:\n      pop\n      tag_83\n      tag_84\n      jump\t// in\n    tag_83:\n      mload(0x40)\n      tag_85\n      swap2\n      swap1\n      tag_77\n      jump\t// in\n    tag_85:\n      mload(0x40)\n      dup1\n      swap2\n      sub\n      swap1\n      return\n        /* \"mercado_gotas_multiplos_nfts.sol\":946:975  address public royaltyAddress */\n    tag_16:\n      callvalue\n      dup1\n      iszero\n      tag_86\n      jumpi\n      0x00\n      dup1\n      revert\n    tag_86:\n      pop\n      tag_87\n      tag_88\n      jump\t// in\n    tag_87:\n      mload(0x40)\n      tag_89\n      swap2\n      swap1\n      tag_69\n      jump\t// in\n    tag_89:\n      mload(0x40)\n      dup1\n      swap2\n      sub\n      swap1\n      return\n        /* \"mercado_gotas_multiplos_nfts.sol\":903:939  uint256 public platformFeePercentage */\n    tag_17:\n      callvalue\n      dup1\n      iszero\n      tag_90\n      jumpi\n      0x00\n      dup1\n      revert\n    tag_90:\n      pop\n      tag_91\n      tag_92\n      jump\t// in\n    tag_91:\n      mload(0x40)\n      tag_93\n      swap2\n      swap1\n      tag_77\n      jump\t// in\n    tag_93:\n      mload(0x40)\n      dup1\n      swap2\n      sub\n      swap1\n      return\n        /* \"mercado_gotas_multiplos_nfts.sol\":1021:1064  mapping(uint256 => Listing) public listings */\n    tag_18:\n      callvalue\n      dup1\n      iszero\n      tag_94\n      jumpi\n      0x00\n      dup1\n      revert\n    tag_94:\n      pop\n      tag_95\n      0x04\n      dup1\n      calldatasize\n      sub\n      dup2\n      add\n      swap1\n      tag_96\n      swap2\n      swap1\n      tag_28\n      jump\t// in\n    tag_96:\n      tag_97\n      jump\t// in\n    tag_95:\n      mload(0x40)\n      tag_98\n      swap4\n      swap3\n      swap2\n      swap1\n      tag_99\n      jump\t// in\n    tag_98:\n      mload(0x40)\n      dup1\n      swap2\n      sub\n      swap1\n      return\n        /* \"mercado_gotas_multiplos_nfts.sol\":826:859  uint256[] public activeListingIds */\n    tag_19:\n      callvalue\n      dup1\n      iszero\n      tag_100\n      jumpi\n      0x00\n      dup1\n      revert\n    tag_100:\n      pop\n      tag_101\n      0x04\n      dup1\n      calldatasize\n      sub\n      dup2\n      add\n      swap1\n      tag_102\n      swap2\n      swap1\n      tag_28\n      jump\t// in\n    tag_102:\n      tag_103\n      jump\t// in\n    tag_101:\n      mload(0x40)\n      tag_104\n      swap2\n      swap1\n      tag_77\n      jump\t// in\n    tag_104:\n      mload(0x40)\n      dup1\n      swap2\n      sub\n      swap1\n      return\n        /* \"mercado_gotas_multiplos_nfts.sol\":981:1014  address public platformFeeAddress */\n    tag_20:\n      callvalue\n      dup1\n      iszero\n      tag_105\n      jumpi\n      0x00\n      dup1\n      revert\n    tag_105:\n      pop\n      tag_106\n      tag_107\n      jump\t// in\n    tag_106:\n      mload(0x40)\n      tag_108\n      swap2\n      swap1\n      tag_69\n      jump\t// in\n    tag_108:\n      mload(0x40)\n      dup1\n      swap2\n      sub\n      swap1\n      return\n        /* \"@openzeppelin/contracts/access/Ownable.sol\":2074:2272  function transferOwnership(address newOwner) public virtual onlyOwner {... */\n    tag_21:\n      callvalue\n      dup1\n      iszero\n      tag_109\n      jumpi\n      0x00\n      dup1\n      revert\n    tag_109:\n      pop\n      tag_110\n      0x04\n      dup1\n      calldatasize\n      sub\n      dup2\n      add\n      swap1\n      tag_111\n      swap2\n      swap1\n      tag_112\n      jump\t// in\n    tag_111:\n      tag_113\n      jump\t// in\n    tag_110:\n      stop\n        /* \"mercado_gotas_multiplos_nfts.sol\":4802:5100  function cancelListing(uint256 _listingId) external nonReentrant {... */\n    tag_29:\n        /* \"@openzeppelin/contracts/security/ReentrancyGuard.sol\":2261:2282  _nonReentrantBefore() */\n      tag_115\n        /* \"@openzeppelin/contracts/security/ReentrancyGuard.sol\":2261:2280  _nonReentrantBefore */\n      tag_116\n        /* \"@openzeppelin/contracts/security/ReentrancyGuard.sol\":2261:2282  _nonReentrantBefore() */\n      jump\t// in\n    tag_115:\n        /* \"mercado_gotas_multiplos_nfts.sol\":4914:4924  msg.sender */\n      caller\n        /* \"mercado_gotas_multiplos_nfts.sol\":4885:4924  listingOwners[_listingId] == msg.sender */\n      0xffffffffffffffffffffffffffffffffffffffff\n      and\n        /* \"mercado_gotas_multiplos_nfts.sol\":4885:4898  listingOwners */\n      0x09\n        /* \"mercado_gotas_multiplos_nfts.sol\":4885:4910  listingOwners[_listingId] */\n      0x00\n        /* \"mercado_gotas_multiplos_nfts.sol\":4899:4909  _listingId */\n      dup4\n        /* \"mercado_gotas_multiplos_nfts.sol\":4885:4910  listingOwners[_listingId] */\n      dup2\n      mstore\n      0x20\n      add\n      swap1\n      dup2\n      mstore\n      0x20\n      add\n      0x00\n      keccak256\n      0x00\n      swap1\n      sload\n      swap1\n      0x0100\n      exp\n      swap1\n      div\n      0xffffffffffffffffffffffffffffffffffffffff\n      and\n        /* \"mercado_gotas_multiplos_nfts.sol\":4885:4924  listingOwners[_listingId] == msg.sender */\n      0xffffffffffffffffffffffffffffffffffffffff\n      and\n      eq\n        /* \"mercado_gotas_multiplos_nfts.sol\":4877:4966  require(listingOwners[_listingId] == msg.sender, \"Only the listing owner can cancel it.\") */\n      tag_118\n      jumpi\n      mload(0x40)\n      0x08c379a000000000000000000000000000000000000000000000000000000000\n      dup2\n      mstore\n      0x04\n      add\n      tag_119\n      swap1\n      tag_120\n      jump\t// in\n    tag_119:\n      mload(0x40)\n      dup1\n      swap2\n      sub\n      swap1\n      revert\n    tag_118:\n        /* \"mercado_gotas_multiplos_nfts.sol\":4992:5000  listings */\n      0x08\n        /* \"mercado_gotas_multiplos_nfts.sol\":4992:5012  listings[_listingId] */\n      0x00\n        /* \"mercado_gotas_multiplos_nfts.sol\":5001:5011  _listingId */\n      dup3\n        /* \"mercado_gotas_multiplos_nfts.sol\":4992:5012  listings[_listingId] */\n      dup2\n      mstore\n      0x20\n      add\n      swap1\n      dup2\n      mstore\n      0x20\n      add\n      0x00\n      keccak256\n      0x00\n        /* \"mercado_gotas_multiplos_nfts.sol\":4985:5012  delete listings[_listingId] */\n      dup1\n      dup3\n      add\n      exp(0x0100, 0x00)\n      dup2\n      sload\n      swap1\n      0xffffffffffffffffffffffffffffffffffffffff\n      mul\n      not\n      and\n      swap1\n      sstore\n      0x01\n      dup3\n      add\n      0x00\n      tag_121\n      swap2\n      swap1\n      tag_122\n      jump\t// in\n    tag_121:\n      0x02\n      dup3\n      add\n      exp(0x0100, 0x00)\n      dup2\n      sload\n      swap1\n      0xffffffffffffffffffffffffffffffffffffffff\n      mul\n      not\n      and\n      swap1\n      sstore\n      0x03\n      dup3\n      add\n      0x00\n      tag_123\n      swap2\n      swap1\n      tag_122\n      jump\t// in\n    tag_123:\n      0x04\n      dup3\n      add\n      0x00\n      swap1\n      sstore\n      pop\n      pop\n        /* \"mercado_gotas_multiplos_nfts.sol\":5029:5042  listingOwners */\n      0x09\n        /* \"mercado_gotas_multiplos_nfts.sol\":5029:5054  listingOwners[_listingId] */\n      0x00\n        /* \"mercado_gotas_multiplos_nfts.sol\":5043:5053  _listingId */\n      dup3\n        /* \"mercado_gotas_multiplos_nfts.sol\":5029:5054  listingOwners[_listingId] */\n      dup2\n      mstore\n      0x20\n      add\n      swap1\n      dup2\n      mstore\n      0x20\n      add\n      0x00\n      keccak256\n      0x00\n        /* \"mercado_gotas_multiplos_nfts.sol\":5022:5054  delete listingOwners[_listingId] */\n      0x0100\n      exp\n      dup2\n      sload\n      swap1\n      0xffffffffffffffffffffffffffffffffffffffff\n      mul\n      not\n      and\n      swap1\n      sstore\n        /* \"mercado_gotas_multiplos_nfts.sol\":5082:5092  _listingId */\n      dup1\n        /* \"mercado_gotas_multiplos_nfts.sol\":5070:5093  NFTDelisted(_listingId) */\n      0xc0c55a6edead4433d18cb1e287a0a20a2fa003a6f483bc9823d2e504d70d1c67\n      mload(0x40)\n      mload(0x40)\n      dup1\n      swap2\n      sub\n      swap1\n      log2\n        /* \"@openzeppelin/contracts/security/ReentrancyGuard.sol\":2303:2323  _nonReentrantAfter() */\n      tag_124\n        /* \"@openzeppelin/contracts/security/ReentrancyGuard.sol\":2303:2321  _nonReentrantAfter */\n      tag_125\n        /* \"@openzeppelin/contracts/security/ReentrancyGuard.sol\":2303:2323  _nonReentrantAfter() */\n      jump\t// in\n    tag_124:\n        /* \"mercado_gotas_multiplos_nfts.sol\":4802:5100  function cancelListing(uint256 _listingId) external nonReentrant {... */\n      pop\n      jump\t// out\n        /* \"mercado_gotas_multiplos_nfts.sol\":5871:6705  function getAllListingInfo() external view returns (ListingInfo[] memory) {... */\n    tag_32:\n        /* \"mercado_gotas_multiplos_nfts.sol\":5923:5943  ListingInfo[] memory */\n      0x60\n        /* \"mercado_gotas_multiplos_nfts.sol\":5955:5990  ListingInfo[] memory allListingInfo */\n      0x00\n        /* \"mercado_gotas_multiplos_nfts.sol\":6011:6027  activeListingIds */\n      0x03\n        /* \"mercado_gotas_multiplos_nfts.sol\":6011:6034  activeListingIds.length */\n      dup1\n      sload\n      swap1\n      pop\n        /* \"mercado_gotas_multiplos_nfts.sol\":5993:6035  new ListingInfo[](activeListingIds.length) */\n      0xffffffffffffffff\n      dup2\n      gt\n      iszero\n      tag_127\n      jumpi\n      mstore(0x00, 0x4e487b7100000000000000000000000000000000000000000000000000000000)\n      mstore(0x04, 0x41)\n      revert(0x00, 0x24)\n    tag_127:\n      mload(0x40)\n      swap1\n      dup1\n      dup3\n      mstore\n      dup1\n      0x20\n      mul\n      0x20\n      add\n      dup3\n      add\n      0x40\n      mstore\n      dup1\n      iszero\n      tag_128\n      jumpi\n      dup2\n      0x20\n      add\n    tag_129:\n      tag_130\n      tag_131\n      jump\t// in\n    tag_130:\n      dup2\n      mstore\n      0x20\n      add\n      swap1\n      0x01\n      swap1\n      sub\n      swap1\n      dup2\n      tag_129\n      jumpi\n      swap1\n      pop\n    tag_128:\n      pop\n        /* \"mercado_gotas_multiplos_nfts.sol\":5955:6035  ListingInfo[] memory allListingInfo = new ListingInfo[](activeListingIds.length) */\n      swap1\n      pop\n        /* \"mercado_gotas_multiplos_nfts.sol\":6050:6059  uint256 i */\n      0x00\n        /* \"mercado_gotas_multiplos_nfts.sol\":6045:6668  for (uint256 i = 0; i < activeListingIds.length; i++) {... */\n    tag_132:\n        /* \"mercado_gotas_multiplos_nfts.sol\":6069:6085  activeListingIds */\n      0x03\n        /* \"mercado_gotas_multiplos_nfts.sol\":6069:6092  activeListingIds.length */\n      dup1\n      sload\n      swap1\n      pop\n        /* \"mercado_gotas_multiplos_nfts.sol\":6065:6066  i */\n      dup2\n        /* \"mercado_gotas_multiplos_nfts.sol\":6065:6092  i < activeListingIds.length */\n      lt\n        /* \"mercado_gotas_multiplos_nfts.sol\":6045:6668  for (uint256 i = 0; i < activeListingIds.length; i++) {... */\n      iszero\n      tag_133\n      jumpi\n        /* \"mercado_gotas_multiplos_nfts.sol\":6113:6130  uint256 listingId */\n      0x00\n        /* \"mercado_gotas_multiplos_nfts.sol\":6133:6149  activeListingIds */\n      0x03\n        /* \"mercado_gotas_multiplos_nfts.sol\":6150:6151  i */\n      dup3\n        /* \"mercado_gotas_multiplos_nfts.sol\":6133:6152  activeListingIds[i] */\n      dup2\n      sload\n      dup2\n      lt\n      tag_135\n      jumpi\n      mstore(0x00, 0x4e487b7100000000000000000000000000000000000000000000000000000000)\n      mstore(0x04, 0x32)\n      revert(0x00, 0x24)\n    tag_135:\n      swap1\n      0x00\n      mstore\n      keccak256(0x00, 0x20)\n      add\n      sload\n        /* \"mercado_gotas_multiplos_nfts.sol\":6113:6152  uint256 listingId = activeListingIds[i] */\n      swap1\n      pop\n        /* \"mercado_gotas_multiplos_nfts.sol\":6166:6189  Listing storage listing */\n      0x00\n        /* \"mercado_gotas_multiplos_nfts.sol\":6192:6200  listings */\n      0x08\n        /* \"mercado_gotas_multiplos_nfts.sol\":6192:6211  listings[listingId] */\n      0x00\n        /* \"mercado_gotas_multiplos_nfts.sol\":6201:6210  listingId */\n      dup4\n        /* \"mercado_gotas_multiplos_nfts.sol\":6192:6211  listings[listingId] */\n      dup2\n      mstore\n      0x20\n      add\n      swap1\n      dup2\n      mstore\n      0x20\n      add\n      0x00\n      keccak256\n        /* \"mercado_gotas_multiplos_nfts.sol\":6166:6211  Listing storage listing = listings[listingId] */\n      swap1\n      pop\n        /* \"mercado_gotas_multiplos_nfts.sol\":6226:6257  string memory tokenMetadataLink */\n      0x00\n        /* \"mercado_gotas_multiplos_nfts.sol\":6226:6262  string memory tokenMetadataLink = \"\" */\n      mload(0x40)\n      dup1\n      0x20\n      add\n      0x40\n      mstore\n      dup1\n      0x00\n      dup2\n      mstore\n      pop\n      swap1\n      pop\n        /* \"mercado_gotas_multiplos_nfts.sol\":6297:6304  listing */\n      dup2\n        /* \"mercado_gotas_multiplos_nfts.sol\":6297:6323  listing.nftContractAddress */\n      0x00\n      add\n      0x00\n      swap1\n      sload\n      swap1\n      0x0100\n      exp\n      swap1\n      div\n      0xffffffffffffffffffffffffffffffffffffffff\n      and\n        /* \"mercado_gotas_multiplos_nfts.sol\":6281:6333  IERC721Metadata(listing.nftContractAddress).tokenURI */\n      0xffffffffffffffffffffffffffffffffffffffff\n      and\n      0xc87b56dd\n        /* \"mercado_gotas_multiplos_nfts.sol\":6334:6341  listing */\n      dup4\n        /* \"mercado_gotas_multiplos_nfts.sol\":6334:6348  listing.nftIds */\n      0x01\n      add\n        /* \"mercado_gotas_multiplos_nfts.sol\":6349:6350  0 */\n      0x00\n        /* \"mercado_gotas_multiplos_nfts.sol\":6334:6351  listing.nftIds[0] */\n      dup2\n      sload\n      dup2\n      lt\n      tag_137\n      jumpi\n      mstore(0x00, 0x4e487b7100000000000000000000000000000000000000000000000000000000)\n      mstore(0x04, 0x32)\n      revert(0x00, 0x24)\n    tag_137:\n      swap1\n      0x00\n      mstore\n      keccak256(0x00, 0x20)\n      add\n      sload\n        /* \"mercado_gotas_multiplos_nfts.sol\":6281:6352  IERC721Metadata(listing.nftContractAddress).tokenURI(listing.nftIds[0]) */\n      mload(0x40)\n      dup3\n      0xffffffff\n      and\n      0xe0\n      shl\n      dup2\n      mstore\n      0x04\n      add\n      tag_139\n      swap2\n      swap1\n      tag_77\n      jump\t// in\n    tag_139:\n      0x00\n      mload(0x40)\n      dup1\n      dup4\n      sub\n      dup2\n      dup7\n      dup1\n      extcodesize\n      iszero\n      dup1\n      iszero\n      tag_140\n      jumpi\n      0x00\n      dup1\n      revert\n    tag_140:\n      pop\n      gas\n      staticcall\n      swap3\n      pop\n      pop\n      pop\n      dup1\n      iszero\n      tag_141\n      jumpi\n      pop\n      mload(0x40)\n      returndatasize\n      0x00\n      dup3\n      returndatacopy\n      returndatasize\n      not(0x1f)\n      0x1f\n      dup3\n      add\n      and\n      dup3\n      add\n      dup1\n      0x40\n      mstore\n      pop\n      dup2\n      add\n      swap1\n      tag_142\n      swap2\n      swap1\n      tag_143\n      jump\t// in\n    tag_142:\n      0x01\n    tag_141:\n        /* \"mercado_gotas_multiplos_nfts.sol\":6277:6464  try IERC721Metadata(listing.nftContractAddress).tokenURI(listing.nftIds[0]) returns (string memory metadataLink) {... */\n      tag_144\n      jumpi\n      jump(tag_147)\n    tag_144:\n        /* \"mercado_gotas_multiplos_nfts.sol\":6428:6440  metadataLink */\n      dup1\n        /* \"mercado_gotas_multiplos_nfts.sol\":6408:6440  tokenMetadataLink = metadataLink */\n      swap2\n      pop\n        /* \"mercado_gotas_multiplos_nfts.sol\":6353:6455  returns (string memory metadataLink) {... */\n      pop\n        /* \"mercado_gotas_multiplos_nfts.sol\":6277:6464  try IERC721Metadata(listing.nftContractAddress).tokenURI(listing.nftIds[0]) returns (string memory metadataLink) {... */\n    tag_147:\n        /* \"mercado_gotas_multiplos_nfts.sol\":6498:6657  ListingInfo({... */\n      mload(0x40)\n      dup1\n      0x60\n      add\n      0x40\n      mstore\n      dup1\n        /* \"mercado_gotas_multiplos_nfts.sol\":6539:6548  listingId */\n      dup5\n        /* \"mercado_gotas_multiplos_nfts.sol\":6498:6657  ListingInfo({... */\n      dup2\n      mstore\n      0x20\n      add\n        /* \"mercado_gotas_multiplos_nfts.sol\":6574:6581  listing */\n      dup4\n        /* \"mercado_gotas_multiplos_nfts.sol\":6574:6588  listing.nftIds */\n      0x01\n      add\n        /* \"mercado_gotas_multiplos_nfts.sol\":6498:6657  ListingInfo({... */\n      dup1\n      sload\n      dup1\n      0x20\n      mul\n      0x20\n      add\n      mload(0x40)\n      swap1\n      dup2\n      add\n      0x40\n      mstore\n      dup1\n      swap3\n      swap2\n      swap1\n      dup2\n      dup2\n      mstore\n      0x20\n      add\n      dup3\n      dup1\n      sload\n      dup1\n      iszero\n      tag_148\n      jumpi\n      0x20\n      mul\n      dup3\n      add\n      swap2\n      swap1\n      0x00\n      mstore\n      keccak256(0x00, 0x20)\n      swap1\n    tag_149:\n      dup2\n      sload\n      dup2\n      mstore\n      0x20\n      add\n      swap1\n      0x01\n      add\n      swap1\n      dup1\n      dup4\n      gt\n      tag_149\n      jumpi\n    tag_148:\n      pop\n      pop\n      pop\n      pop\n      pop\n      dup2\n      mstore\n      0x20\n      add\n        /* \"mercado_gotas_multiplos_nfts.sol\":6625:6642  tokenMetadataLink */\n      dup3\n        /* \"mercado_gotas_multiplos_nfts.sol\":6498:6657  ListingInfo({... */\n      dup2\n      mstore\n      pop\n        /* \"mercado_gotas_multiplos_nfts.sol\":6478:6492  allListingInfo */\n      dup6\n        /* \"mercado_gotas_multiplos_nfts.sol\":6493:6494  i */\n      dup6\n        /* \"mercado_gotas_multiplos_nfts.sol\":6478:6495  allListingInfo[i] */\n      dup2\n      mload\n      dup2\n      lt\n      tag_150\n      jumpi\n      mstore(0x00, 0x4e487b7100000000000000000000000000000000000000000000000000000000)\n      mstore(0x04, 0x32)\n      revert(0x00, 0x24)\n    tag_150:\n      0x20\n      mul\n      0x20\n      add\n      add\n        /* \"mercado_gotas_multiplos_nfts.sol\":6478:6657  allListingInfo[i] = ListingInfo({... */\n      dup2\n      swap1\n      mstore\n      pop\n        /* \"mercado_gotas_multiplos_nfts.sol\":6045:6668  for (uint256 i = 0; i < activeListingIds.length; i++) {... */\n      pop\n      pop\n      pop\n        /* \"mercado_gotas_multiplos_nfts.sol\":6094:6097  i++ */\n      dup1\n      dup1\n      tag_151\n      swap1\n      tag_152\n      jump\t// in\n    tag_151:\n      swap2\n      pop\n      pop\n        /* \"mercado_gotas_multiplos_nfts.sol\":6045:6668  for (uint256 i = 0; i < activeListingIds.length; i++) {... */\n      jump(tag_132)\n    tag_133:\n      pop\n        /* \"mercado_gotas_multiplos_nfts.sol\":6684:6698  allListingInfo */\n      dup1\n        /* \"mercado_gotas_multiplos_nfts.sol\":6677:6698  return allListingInfo */\n      swap2\n      pop\n      pop\n        /* \"mercado_gotas_multiplos_nfts.sol\":5871:6705  function getAllListingInfo() external view returns (ListingInfo[] memory) {... */\n      swap1\n      jump\t// out\n        /* \"mercado_gotas_multiplos_nfts.sol\":5186:5264  function unpause() external onlyOwner nonReentrant {... */\n    tag_37:\n        /* \"@openzeppelin/contracts/access/Ownable.sol\":1094:1107  _checkOwner() */\n      tag_154\n        /* \"@openzeppelin/contracts/access/Ownable.sol\":1094:1105  _checkOwner */\n      tag_155\n        /* \"@openzeppelin/contracts/access/Ownable.sol\":1094:1107  _checkOwner() */\n      jump\t// in\n    tag_154:\n        /* \"@openzeppelin/contracts/security/ReentrancyGuard.sol\":2261:2282  _nonReentrantBefore() */\n      tag_157\n        /* \"@openzeppelin/contracts/security/ReentrancyGuard.sol\":2261:2280  _nonReentrantBefore */\n      tag_116\n        /* \"@openzeppelin/contracts/security/ReentrancyGuard.sol\":2261:2282  _nonReentrantBefore() */\n      jump\t// in\n    tag_157:\n        /* \"mercado_gotas_multiplos_nfts.sol\":5247:5257  _unpause() */\n      tag_159\n        /* \"mercado_gotas_multiplos_nfts.sol\":5247:5255  _unpause */\n      tag_160\n        /* \"mercado_gotas_multiplos_nfts.sol\":5247:5257  _unpause() */\n      jump\t// in\n    tag_159:\n        /* \"@openzeppelin/contracts/security/ReentrancyGuard.sol\":2303:2323  _nonReentrantAfter() */\n      tag_161\n        /* \"@openzeppelin/contracts/security/ReentrancyGuard.sol\":2303:2321  _nonReentrantAfter */\n      tag_125\n        /* \"@openzeppelin/contracts/security/ReentrancyGuard.sol\":2303:2323  _nonReentrantAfter() */\n      jump\t// in\n    tag_161:\n        /* \"mercado_gotas_multiplos_nfts.sol\":5186:5264  function unpause() external onlyOwner nonReentrant {... */\n      jump\t// out\n        /* \"mercado_gotas_multiplos_nfts.sol\":3226:4796  function buyNFT(uint256 _listingId) external payable whenNotPaused nonReentrant {... */\n    tag_40:\n        /* \"@openzeppelin/contracts/security/Pausable.sol\":1239:1258  _requireNotPaused() */\n      tag_163\n        /* \"@openzeppelin/contracts/security/Pausable.sol\":1239:1256  _requireNotPaused */\n      tag_164\n        /* \"@openzeppelin/contracts/security/Pausable.sol\":1239:1258  _requireNotPaused() */\n      jump\t// in\n    tag_163:\n        /* \"@openzeppelin/contracts/security/ReentrancyGuard.sol\":2261:2282  _nonReentrantBefore() */\n      tag_166\n        /* \"@openzeppelin/contracts/security/ReentrancyGuard.sol\":2261:2280  _nonReentrantBefore */\n      tag_116\n        /* \"@openzeppelin/contracts/security/ReentrancyGuard.sol\":2261:2282  _nonReentrantBefore() */\n      jump\t// in\n    tag_166:\n        /* \"mercado_gotas_multiplos_nfts.sol\":3336:3337  0 */\n      0x00\n        /* \"mercado_gotas_multiplos_nfts.sol\":3324:3333  msg.value */\n      callvalue\n        /* \"mercado_gotas_multiplos_nfts.sol\":3324:3337  msg.value > 0 */\n      gt\n        /* \"mercado_gotas_multiplos_nfts.sol\":3316:3379  require(msg.value > 0, \"Sent value must be greater than zero.\") */\n      tag_168\n      jumpi\n      mload(0x40)\n      0x08c379a000000000000000000000000000000000000000000000000000000000\n      dup2\n      mstore\n      0x04\n      add\n      tag_169\n      swap1\n      tag_170\n      jump\t// in\n    tag_169:\n      mload(0x40)\n      dup1\n      swap2\n      sub\n      swap1\n      revert\n    tag_168:\n        /* \"mercado_gotas_multiplos_nfts.sol\":3390:3413  Listing storage listing */\n      0x00\n        /* \"mercado_gotas_multiplos_nfts.sol\":3416:3424  listings */\n      0x08\n        /* \"mercado_gotas_multiplos_nfts.sol\":3416:3436  listings[_listingId] */\n      0x00\n        /* \"mercado_gotas_multiplos_nfts.sol\":3425:3435  _listingId */\n      dup4\n        /* \"mercado_gotas_multiplos_nfts.sol\":3416:3436  listings[_listingId] */\n      dup2\n      mstore\n      0x20\n      add\n      swap1\n      dup2\n      mstore\n      0x20\n      add\n      0x00\n      keccak256\n        /* \"mercado_gotas_multiplos_nfts.sol\":3390:3436  Listing storage listing = listings[_listingId] */\n      swap1\n      pop\n        /* \"mercado_gotas_multiplos_nfts.sol\":3480:3481  0 */\n      0x00\n        /* \"mercado_gotas_multiplos_nfts.sol\":3454:3482  listing.seller != address(0) */\n      0xffffffffffffffffffffffffffffffffffffffff\n      and\n        /* \"mercado_gotas_multiplos_nfts.sol\":3454:3461  listing */\n      dup2\n        /* \"mercado_gotas_multiplos_nfts.sol\":3454:3468  listing.seller */\n      0x02\n      add\n      0x00\n      swap1\n      sload\n      swap1\n      0x0100\n      exp\n      swap1\n      div\n      0xffffffffffffffffffffffffffffffffffffffff\n      and\n        /* \"mercado_gotas_multiplos_nfts.sol\":3454:3482  listing.seller != address(0) */\n      0xffffffffffffffffffffffffffffffffffffffff\n      and\n      eq\n      iszero\n        /* \"mercado_gotas_multiplos_nfts.sol\":3446:3510  require(listing.seller != address(0), \"Listing does not exist.\") */\n      tag_171\n      jumpi\n      mload(0x40)\n      0x08c379a000000000000000000000000000000000000000000000000000000000\n      dup2\n      mstore\n      0x04\n      add\n      tag_172\n      swap1\n      tag_173\n      jump\t// in\n    tag_172:\n      mload(0x40)\n      dup1\n      swap2\n      sub\n      swap1\n      revert\n    tag_171:\n        /* \"mercado_gotas_multiplos_nfts.sol\":3547:3554  listing */\n      dup1\n        /* \"mercado_gotas_multiplos_nfts.sol\":3547:3563  listing.deadline */\n      0x04\n      add\n      sload\n        /* \"mercado_gotas_multiplos_nfts.sol\":3528:3543  block.timestamp */\n      timestamp\n        /* \"mercado_gotas_multiplos_nfts.sol\":3528:3563  block.timestamp <= listing.deadline */\n      gt\n      iszero\n        /* \"mercado_gotas_multiplos_nfts.sol\":3520:3593  require(block.timestamp <= listing.deadline, \"This listing has expired.\") */\n      tag_174\n      jumpi\n      mload(0x40)\n      0x08c379a000000000000000000000000000000000000000000000000000000000\n      dup2\n      mstore\n      0x04\n      add\n      tag_175\n      swap1\n      tag_176\n      jump\t// in\n    tag_175:\n      mload(0x40)\n      dup1\n      swap2\n      sub\n      swap1\n      revert\n    tag_174:\n        /* \"mercado_gotas_multiplos_nfts.sol\":3604:3622  uint256 totalPrice */\n      0x00\n        /* \"mercado_gotas_multiplos_nfts.sol\":3641:3650  uint256 i */\n      dup1\n        /* \"mercado_gotas_multiplos_nfts.sol\":3636:4131  for (uint256 i = 0; i < listing.nftIds.length; i++) {... */\n    tag_177:\n        /* \"mercado_gotas_multiplos_nfts.sol\":3660:3667  listing */\n      dup3\n        /* \"mercado_gotas_multiplos_nfts.sol\":3660:3674  listing.nftIds */\n      0x01\n      add\n        /* \"mercado_gotas_multiplos_nfts.sol\":3660:3681  listing.nftIds.length */\n      dup1\n      sload\n      swap1\n      pop\n        /* \"mercado_gotas_multiplos_nfts.sol\":3656:3657  i */\n      dup2\n        /* \"mercado_gotas_multiplos_nfts.sol\":3656:3681  i < listing.nftIds.length */\n      lt\n        /* \"mercado_gotas_multiplos_nfts.sol\":3636:4131  for (uint256 i = 0; i < listing.nftIds.length; i++) {... */\n      iszero\n      tag_178\n      jumpi\n        /* \"mercado_gotas_multiplos_nfts.sol\":3702:3715  uint256 nftId */\n      0x00\n        /* \"mercado_gotas_multiplos_nfts.sol\":3718:3725  listing */\n      dup4\n        /* \"mercado_gotas_multiplos_nfts.sol\":3718:3732  listing.nftIds */\n      0x01\n      add\n        /* \"mercado_gotas_multiplos_nfts.sol\":3733:3734  i */\n      dup3\n        /* \"mercado_gotas_multiplos_nfts.sol\":3718:3735  listing.nftIds[i] */\n      dup2\n      sload\n      dup2\n      lt\n      tag_180\n      jumpi\n      mstore(0x00, 0x4e487b7100000000000000000000000000000000000000000000000000000000)\n      mstore(0x04, 0x32)\n      revert(0x00, 0x24)\n    tag_180:\n      swap1\n      0x00\n      mstore\n      keccak256(0x00, 0x20)\n      add\n      sload\n        /* \"mercado_gotas_multiplos_nfts.sol\":3702:3735  uint256 nftId = listing.nftIds[i] */\n      swap1\n      pop\n        /* \"mercado_gotas_multiplos_nfts.sol\":3763:3770  listing */\n      dup4\n        /* \"mercado_gotas_multiplos_nfts.sol\":3763:3777  listing.prices */\n      0x03\n      add\n        /* \"mercado_gotas_multiplos_nfts.sol\":3778:3779  i */\n      dup3\n        /* \"mercado_gotas_multiplos_nfts.sol\":3763:3780  listing.prices[i] */\n      dup2\n      sload\n      dup2\n      lt\n      tag_182\n      jumpi\n      mstore(0x00, 0x4e487b7100000000000000000000000000000000000000000000000000000000)\n      mstore(0x04, 0x32)\n      revert(0x00, 0x24)\n    tag_182:\n      swap1\n      0x00\n      mstore\n      keccak256(0x00, 0x20)\n      add\n      sload\n        /* \"mercado_gotas_multiplos_nfts.sol\":3749:3780  totalPrice += listing.prices[i] */\n      dup4\n      tag_184\n      swap2\n      swap1\n      tag_185\n      jump\t// in\n    tag_184:\n      swap3\n      pop\n        /* \"mercado_gotas_multiplos_nfts.sol\":3817:3824  listing */\n      dup4\n        /* \"mercado_gotas_multiplos_nfts.sol\":3817:3831  listing.seller */\n      0x02\n      add\n      0x00\n      swap1\n      sload\n      swap1\n      0x0100\n      exp\n      swap1\n      div\n      0xffffffffffffffffffffffffffffffffffffffff\n      and\n        /* \"mercado_gotas_multiplos_nfts.sol\":3803:3831  msg.sender != listing.seller */\n      0xffffffffffffffffffffffffffffffffffffffff\n      and\n        /* \"mercado_gotas_multiplos_nfts.sol\":3803:3813  msg.sender */\n      caller\n        /* \"mercado_gotas_multiplos_nfts.sol\":3803:3831  msg.sender != listing.seller */\n      0xffffffffffffffffffffffffffffffffffffffff\n      and\n      eq\n      iszero\n        /* \"mercado_gotas_multiplos_nfts.sol\":3795:3869  require(msg.sender != listing.seller, \"You cannot buy your own listings.\") */\n      tag_186\n      jumpi\n      mload(0x40)\n      0x08c379a000000000000000000000000000000000000000000000000000000000\n      dup2\n      mstore\n      0x04\n      add\n      tag_187\n      swap1\n      tag_188\n      jump\t// in\n    tag_187:\n      mload(0x40)\n      dup1\n      swap2\n      sub\n      swap1\n      revert\n    tag_186:\n        /* \"mercado_gotas_multiplos_nfts.sol\":3884:3903  IERC721 nftContract */\n      0x00\n        /* \"mercado_gotas_multiplos_nfts.sol\":3914:3921  listing */\n      dup5\n        /* \"mercado_gotas_multiplos_nfts.sol\":3914:3940  listing.nftContractAddress */\n      0x00\n      add\n      0x00\n      swap1\n      sload\n      swap1\n      0x0100\n      exp\n      swap1\n      div\n      0xffffffffffffffffffffffffffffffffffffffff\n      and\n        /* \"mercado_gotas_multiplos_nfts.sol\":3884:3941  IERC721 nftContract = IERC721(listing.nftContractAddress) */\n      swap1\n      pop\n        /* \"mercado_gotas_multiplos_nfts.sol\":3993:4000  listing */\n      dup5\n        /* \"mercado_gotas_multiplos_nfts.sol\":3993:4007  listing.seller */\n      0x02\n      add\n      0x00\n      swap1\n      sload\n      swap1\n      0x0100\n      exp\n      swap1\n      div\n      0xffffffffffffffffffffffffffffffffffffffff\n      and\n        /* \"mercado_gotas_multiplos_nfts.sol\":3963:4007  nftContract.ownerOf(nftId) == listing.seller */\n      0xffffffffffffffffffffffffffffffffffffffff\n      and\n        /* \"mercado_gotas_multiplos_nfts.sol\":3963:3974  nftContract */\n      dup2\n        /* \"mercado_gotas_multiplos_nfts.sol\":3963:3982  nftContract.ownerOf */\n      0xffffffffffffffffffffffffffffffffffffffff\n      and\n      0x6352211e\n        /* \"mercado_gotas_multiplos_nfts.sol\":3983:3988  nftId */\n      dup5\n        /* \"mercado_gotas_multiplos_nfts.sol\":3963:3989  nftContract.ownerOf(nftId) */\n      mload(0x40)\n      dup3\n      0xffffffff\n      and\n      0xe0\n      shl\n      dup2\n      mstore\n      0x04\n      add\n      tag_189\n      swap2\n      swap1\n      tag_77\n      jump\t// in\n    tag_189:\n      0x20\n      mload(0x40)\n      dup1\n      dup4\n      sub\n      dup2\n      dup7\n      dup1\n      extcodesize\n      iszero\n      dup1\n      iszero\n      tag_190\n      jumpi\n      0x00\n      dup1\n      revert\n    tag_190:\n      pop\n      gas\n      staticcall\n      iszero\n      dup1\n      iszero\n      tag_192\n      jumpi\n      returndatasize\n      0x00\n      dup1\n      returndatacopy\n      revert(0x00, returndatasize)\n    tag_192:\n      pop\n      pop\n      pop\n      pop\n      mload(0x40)\n      returndatasize\n      not(0x1f)\n      0x1f\n      dup3\n      add\n      and\n      dup3\n      add\n      dup1\n      0x40\n      mstore\n      pop\n      dup2\n      add\n      swap1\n      tag_193\n      swap2\n      swap1\n      tag_194\n      jump\t// in\n    tag_193:\n        /* \"mercado_gotas_multiplos_nfts.sol\":3963:4007  nftContract.ownerOf(nftId) == listing.seller */\n      0xffffffffffffffffffffffffffffffffffffffff\n      and\n      eq\n        /* \"mercado_gotas_multiplos_nfts.sol\":3955:4042  require(nftContract.ownerOf(nftId) == listing.seller, \"Seller no longer owns the NFT.\") */\n      tag_195\n      jumpi\n      mload(0x40)\n      0x08c379a000000000000000000000000000000000000000000000000000000000\n      dup2\n      mstore\n      0x04\n      add\n      tag_196\n      swap1\n      tag_197\n      jump\t// in\n    tag_196:\n      mload(0x40)\n      dup1\n      swap2\n      sub\n      swap1\n      revert\n    tag_195:\n        /* \"mercado_gotas_multiplos_nfts.sol\":4057:4068  nftContract */\n      dup1\n        /* \"mercado_gotas_multiplos_nfts.sol\":4057:4085  nftContract.safeTransferFrom */\n      0xffffffffffffffffffffffffffffffffffffffff\n      and\n      0x42842e0e\n        /* \"mercado_gotas_multiplos_nfts.sol\":4086:4093  listing */\n      dup7\n        /* \"mercado_gotas_multiplos_nfts.sol\":4086:4100  listing.seller */\n      0x02\n      add\n      0x00\n      swap1\n      sload\n      swap1\n      0x0100\n      exp\n      swap1\n      div\n      0xffffffffffffffffffffffffffffffffffffffff\n      and\n        /* \"mercado_gotas_multiplos_nfts.sol\":4102:4112  msg.sender */\n      caller\n        /* \"mercado_gotas_multiplos_nfts.sol\":4114:4119  nftId */\n      dup6\n        /* \"mercado_gotas_multiplos_nfts.sol\":4057:4120  nftContract.safeTransferFrom(listing.seller, msg.sender, nftId) */\n      mload(0x40)\n      dup5\n      0xffffffff\n      and\n      0xe0\n      shl\n      dup2\n      mstore\n      0x04\n      add\n      tag_198\n      swap4\n      swap3\n      swap2\n      swap1\n      tag_99\n      jump\t// in\n    tag_198:\n      0x00\n      mload(0x40)\n      dup1\n      dup4\n      sub\n      dup2\n      0x00\n      dup8\n      dup1\n      extcodesize\n      iszero\n      dup1\n      iszero\n      tag_199\n      jumpi\n      0x00\n      dup1\n      revert\n    tag_199:\n      pop\n      gas\n      call\n      iszero\n      dup1\n      iszero\n      tag_201\n      jumpi\n      returndatasize\n      0x00\n      dup1\n      returndatacopy\n      revert(0x00, returndatasize)\n    tag_201:\n      pop\n      pop\n      pop\n      pop\n        /* \"mercado_gotas_multiplos_nfts.sol\":3636:4131  for (uint256 i = 0; i < listing.nftIds.length; i++) {... */\n      pop\n      pop\n        /* \"mercado_gotas_multiplos_nfts.sol\":3683:3686  i++ */\n      dup1\n      dup1\n      tag_202\n      swap1\n      tag_152\n      jump\t// in\n    tag_202:\n      swap2\n      pop\n      pop\n        /* \"mercado_gotas_multiplos_nfts.sol\":3636:4131  for (uint256 i = 0; i < listing.nftIds.length; i++) {... */\n      jump(tag_177)\n    tag_178:\n      pop\n        /* \"mercado_gotas_multiplos_nfts.sol\":4162:4172  totalPrice */\n      dup1\n        /* \"mercado_gotas_multiplos_nfts.sol\":4149:4158  msg.value */\n      callvalue\n        /* \"mercado_gotas_multiplos_nfts.sol\":4149:4172  msg.value == totalPrice */\n      eq\n        /* \"mercado_gotas_multiplos_nfts.sol\":4141:4221  require(msg.value == totalPrice, \"Sent value must be equal to the total price.\") */\n      tag_203\n      jumpi\n      mload(0x40)\n      0x08c379a000000000000000000000000000000000000000000000000000000000\n      dup2\n      mstore\n      0x04\n      add\n      tag_204\n      swap1\n      tag_205\n      jump\t// in\n    tag_204:\n      mload(0x40)\n      dup1\n      swap2\n      sub\n      swap1\n      revert\n    tag_203:\n        /* \"mercado_gotas_multiplos_nfts.sol\":4232:4253  uint256 royaltyAmount */\n      0x00\n        /* \"mercado_gotas_multiplos_nfts.sol\":4291:4296  10000 */\n      0x2710\n        /* \"mercado_gotas_multiplos_nfts.sol\":4270:4287  royaltyPercentage */\n      sload(0x04)\n        /* \"mercado_gotas_multiplos_nfts.sol\":4257:4267  totalPrice */\n      dup4\n        /* \"mercado_gotas_multiplos_nfts.sol\":4257:4287  totalPrice * royaltyPercentage */\n      tag_206\n      swap2\n      swap1\n      tag_207\n      jump\t// in\n    tag_206:\n        /* \"mercado_gotas_multiplos_nfts.sol\":4256:4296  (totalPrice * royaltyPercentage) / 10000 */\n      tag_208\n      swap2\n      swap1\n      tag_209\n      jump\t// in\n    tag_208:\n        /* \"mercado_gotas_multiplos_nfts.sol\":4232:4296  uint256 royaltyAmount = (totalPrice * royaltyPercentage) / 10000 */\n      swap1\n      pop\n        /* \"mercado_gotas_multiplos_nfts.sol\":4306:4325  uint256 platformFee */\n      0x00\n        /* \"mercado_gotas_multiplos_nfts.sol\":4367:4372  10000 */\n      0x2710\n        /* \"mercado_gotas_multiplos_nfts.sol\":4342:4363  platformFeePercentage */\n      sload(0x05)\n        /* \"mercado_gotas_multiplos_nfts.sol\":4329:4339  totalPrice */\n      dup5\n        /* \"mercado_gotas_multiplos_nfts.sol\":4329:4363  totalPrice * platformFeePercentage */\n      tag_210\n      swap2\n      swap1\n      tag_207\n      jump\t// in\n    tag_210:\n        /* \"mercado_gotas_multiplos_nfts.sol\":4328:4372  (totalPrice * platformFeePercentage) / 10000 */\n      tag_211\n      swap2\n      swap1\n      tag_209\n      jump\t// in\n    tag_211:\n        /* \"mercado_gotas_multiplos_nfts.sol\":4306:4372  uint256 platformFee = (totalPrice * platformFeePercentage) / 10000 */\n      swap1\n      pop\n        /* \"mercado_gotas_multiplos_nfts.sol\":4382:4402  uint256 sellerAmount */\n      0x00\n        /* \"mercado_gotas_multiplos_nfts.sol\":4434:4445  platformFee */\n      dup2\n        /* \"mercado_gotas_multiplos_nfts.sol\":4418:4431  royaltyAmount */\n      dup4\n        /* \"mercado_gotas_multiplos_nfts.sol\":4405:4415  totalPrice */\n      dup6\n        /* \"mercado_gotas_multiplos_nfts.sol\":4405:4431  totalPrice - royaltyAmount */\n      tag_212\n      swap2\n      swap1\n      tag_213\n      jump\t// in\n    tag_212:\n        /* \"mercado_gotas_multiplos_nfts.sol\":4405:4445  totalPrice - royaltyAmount - platformFee */\n      tag_214\n      swap2\n      swap1\n      tag_213\n      jump\t// in\n    tag_214:\n        /* \"mercado_gotas_multiplos_nfts.sol\":4382:4445  uint256 sellerAmount = totalPrice - royaltyAmount - platformFee */\n      swap1\n      pop\n        /* \"mercado_gotas_multiplos_nfts.sol\":4464:4471  listing */\n      dup5\n        /* \"mercado_gotas_multiplos_nfts.sol\":4464:4478  listing.seller */\n      0x02\n      add\n      0x00\n      swap1\n      sload\n      swap1\n      0x0100\n      exp\n      swap1\n      div\n      0xffffffffffffffffffffffffffffffffffffffff\n      and\n        /* \"mercado_gotas_multiplos_nfts.sol\":4456:4488  payable(listing.seller).transfer */\n      0xffffffffffffffffffffffffffffffffffffffff\n      and\n        /* \"mercado_gotas_multiplos_nfts.sol\":4456:4502  payable(listing.seller).transfer(sellerAmount) */\n      0x08fc\n        /* \"mercado_gotas_multiplos_nfts.sol\":4489:4501  sellerAmount */\n      dup3\n        /* \"mercado_gotas_multiplos_nfts.sol\":4456:4502  payable(listing.seller).transfer(sellerAmount) */\n      swap1\n      dup2\n      iszero\n      mul\n      swap1\n      mload(0x40)\n      0x00\n      mload(0x40)\n      dup1\n      dup4\n      sub\n      dup2\n      dup6\n      dup9\n      dup9\n      call\n      swap4\n      pop\n      pop\n      pop\n      pop\n      iszero\n      dup1\n      iszero\n      tag_216\n      jumpi\n      returndatasize\n      0x00\n      dup1\n      returndatacopy\n      revert(0x00, returndatasize)\n    tag_216:\n      pop\n        /* \"mercado_gotas_multiplos_nfts.sol\":4520:4534  royaltyAddress */\n      0x06\n      0x00\n      swap1\n      sload\n      swap1\n      0x0100\n      exp\n      swap1\n      div\n      0xffffffffffffffffffffffffffffffffffffffff\n      and\n        /* \"mercado_gotas_multiplos_nfts.sol\":4512:4544  payable(royaltyAddress).transfer */\n      0xffffffffffffffffffffffffffffffffffffffff\n      and\n        /* \"mercado_gotas_multiplos_nfts.sol\":4512:4559  payable(royaltyAddress).transfer(royaltyAmount) */\n      0x08fc\n        /* \"mercado_gotas_multiplos_nfts.sol\":4545:4558  royaltyAmount */\n      dup5\n        /* \"mercado_gotas_multiplos_nfts.sol\":4512:4559  payable(royaltyAddress).transfer(royaltyAmount) */\n      swap1\n      dup2\n      iszero\n      mul\n      swap1\n      mload(0x40)\n      0x00\n      mload(0x40)\n      dup1\n      dup4\n      sub\n      dup2\n      dup6\n      dup9\n      dup9\n      call\n      swap4\n      pop\n      pop\n      pop\n      pop\n      iszero\n      dup1\n      iszero\n      tag_218\n      jumpi\n      returndatasize\n      0x00\n      dup1\n      returndatacopy\n      revert(0x00, returndatasize)\n    tag_218:\n      pop\n        /* \"mercado_gotas_multiplos_nfts.sol\":4577:4595  platformFeeAddress */\n      0x07\n      0x00\n      swap1\n      sload\n      swap1\n      0x0100\n      exp\n      swap1\n      div\n      0xffffffffffffffffffffffffffffffffffffffff\n      and\n        /* \"mercado_gotas_multiplos_nfts.sol\":4569:4605  payable(platformFeeAddress).transfer */\n      0xffffffffffffffffffffffffffffffffffffffff\n      and\n        /* \"mercado_gotas_multiplos_nfts.sol\":4569:4618  payable(platformFeeAddress).transfer(platformFee) */\n      0x08fc\n        /* \"mercado_gotas_multiplos_nfts.sol\":4606:4617  platformFee */\n      dup4\n        /* \"mercado_gotas_multiplos_nfts.sol\":4569:4618  payable(platformFeeAddress).transfer(platformFee) */\n      swap1\n      dup2\n      iszero\n      mul\n      swap1\n      mload(0x40)\n      0x00\n      mload(0x40)\n      dup1\n      dup4\n      sub\n      dup2\n      dup6\n      dup9\n      dup9\n      call\n      swap4\n      pop\n      pop\n      pop\n      pop\n      iszero\n      dup1\n      iszero\n      tag_220\n      jumpi\n      returndatasize\n      0x00\n      dup1\n      returndatacopy\n      revert(0x00, returndatasize)\n    tag_220:\n      pop\n        /* \"mercado_gotas_multiplos_nfts.sol\":4670:4680  msg.sender */\n      caller\n        /* \"mercado_gotas_multiplos_nfts.sol\":4634:4709  NFTSold(_listingId, listing.seller, msg.sender, listing.nftIds, totalPrice) */\n      0xffffffffffffffffffffffffffffffffffffffff\n      and\n        /* \"mercado_gotas_multiplos_nfts.sol\":4654:4661  listing */\n      dup6\n        /* \"mercado_gotas_multiplos_nfts.sol\":4654:4668  listing.seller */\n      0x02\n      add\n      0x00\n      swap1\n      sload\n      swap1\n      0x0100\n      exp\n      swap1\n      div\n      0xffffffffffffffffffffffffffffffffffffffff\n      and\n        /* \"mercado_gotas_multiplos_nfts.sol\":4634:4709  NFTSold(_listingId, listing.seller, msg.sender, listing.nftIds, totalPrice) */\n      0xffffffffffffffffffffffffffffffffffffffff\n      and\n        /* \"mercado_gotas_multiplos_nfts.sol\":4642:4652  _listingId */\n      dup8\n        /* \"mercado_gotas_multiplos_nfts.sol\":4634:4709  NFTSold(_listingId, listing.seller, msg.sender, listing.nftIds, totalPrice) */\n      0x28c391ecfa2eeaf06de7f007def77e41a24ec631fe957aa7333dc692a567ebeb\n        /* \"mercado_gotas_multiplos_nfts.sol\":4682:4689  listing */\n      dup9\n        /* \"mercado_gotas_multiplos_nfts.sol\":4682:4696  listing.nftIds */\n      0x01\n      add\n        /* \"mercado_gotas_multiplos_nfts.sol\":4698:4708  totalPrice */\n      dup9\n        /* \"mercado_gotas_multiplos_nfts.sol\":4634:4709  NFTSold(_listingId, listing.seller, msg.sender, listing.nftIds, totalPrice) */\n      mload(0x40)\n      tag_221\n      swap3\n      swap2\n      swap1\n      tag_222\n      jump\t// in\n    tag_221:\n      mload(0x40)\n      dup1\n      swap2\n      sub\n      swap1\n      log4\n        /* \"mercado_gotas_multiplos_nfts.sol\":4727:4735  listings */\n      0x08\n        /* \"mercado_gotas_multiplos_nfts.sol\":4727:4747  listings[_listingId] */\n      0x00\n        /* \"mercado_gotas_multiplos_nfts.sol\":4736:4746  _listingId */\n      dup8\n        /* \"mercado_gotas_multiplos_nfts.sol\":4727:4747  listings[_listingId] */\n      dup2\n      mstore\n      0x20\n      add\n      swap1\n      dup2\n      mstore\n      0x20\n      add\n      0x00\n      keccak256\n      0x00\n        /* \"mercado_gotas_multiplos_nfts.sol\":4720:4747  delete listings[_listingId] */\n      dup1\n      dup3\n      add\n      exp(0x0100, 0x00)\n      dup2\n      sload\n      swap1\n      0xffffffffffffffffffffffffffffffffffffffff\n      mul\n      not\n      and\n      swap1\n      sstore\n      0x01\n      dup3\n      add\n      0x00\n      tag_223\n      swap2\n      swap1\n      tag_122\n      jump\t// in\n    tag_223:\n      0x02\n      dup3\n      add\n      exp(0x0100, 0x00)\n      dup2\n      sload\n      swap1\n      0xffffffffffffffffffffffffffffffffffffffff\n      mul\n      not\n      and\n      swap1\n      sstore\n      0x03\n      dup3\n      add\n      0x00\n      tag_224\n      swap2\n      swap1\n      tag_122\n      jump\t// in\n    tag_224:\n      0x04\n      dup3\n      add\n      0x00\n      swap1\n      sstore\n      pop\n      pop\n        /* \"mercado_gotas_multiplos_nfts.sol\":4764:4777  listingOwners */\n      0x09\n        /* \"mercado_gotas_multiplos_nfts.sol\":4764:4789  listingOwners[_listingId] */\n      0x00\n        /* \"mercado_gotas_multiplos_nfts.sol\":4778:4788  _listingId */\n      dup8\n        /* \"mercado_gotas_multiplos_nfts.sol\":4764:4789  listingOwners[_listingId] */\n      dup2\n      mstore\n      0x20\n      add\n      swap1\n      dup2\n      mstore\n      0x20\n      add\n      0x00\n      keccak256\n      0x00\n        /* \"mercado_gotas_multiplos_nfts.sol\":4757:4789  delete listingOwners[_listingId] */\n      0x0100\n      exp\n      dup2\n      sload\n      swap1\n      0xffffffffffffffffffffffffffffffffffffffff\n      mul\n      not\n      and\n      swap1\n      sstore\n        /* \"@openzeppelin/contracts/security/ReentrancyGuard.sol\":2292:2293  _ */\n      pop\n      pop\n      pop\n      pop\n      pop\n        /* \"@openzeppelin/contracts/security/ReentrancyGuard.sol\":2303:2323  _nonReentrantAfter() */\n      tag_225\n        /* \"@openzeppelin/contracts/security/ReentrancyGuard.sol\":2303:2321  _nonReentrantAfter */\n      tag_125\n        /* \"@openzeppelin/contracts/security/ReentrancyGuard.sol\":2303:2323  _nonReentrantAfter() */\n      jump\t// in\n    tag_225:\n        /* \"mercado_gotas_multiplos_nfts.sol\":3226:4796  function buyNFT(uint256 _listingId) external payable whenNotPaused nonReentrant {... */\n      pop\n      jump\t// out\n        /* \"mercado_gotas_multiplos_nfts.sol\":1949:3220  function listNFT(address _nftContractAddress, uint256[] memory _nftIds, uint256[] memory _prices, uint256 _deadline) external whenNotPaused nonReentrant {... */\n    tag_45:\n        /* \"@openzeppelin/contracts/security/Pausable.sol\":1239:1258  _requireNotPaused() */\n      tag_227\n        /* \"@openzeppelin/contracts/security/Pausable.sol\":1239:1256  _requireNotPaused */\n      tag_164\n        /* \"@openzeppelin/contracts/security/Pausable.sol\":1239:1258  _requireNotPaused() */\n      jump\t// in\n    tag_227:\n        /* \"@openzeppelin/contracts/security/ReentrancyGuard.sol\":2261:2282  _nonReentrantBefore() */\n      tag_229\n        /* \"@openzeppelin/contracts/security/ReentrancyGuard.sol\":2261:2280  _nonReentrantBefore */\n      tag_116\n        /* \"@openzeppelin/contracts/security/ReentrancyGuard.sol\":2261:2282  _nonReentrantBefore() */\n      jump\t// in\n    tag_229:\n        /* \"mercado_gotas_multiplos_nfts.sol\":2137:2138  0 */\n      0x00\n        /* \"mercado_gotas_multiplos_nfts.sol\":2120:2127  _nftIds */\n      dup4\n        /* \"mercado_gotas_multiplos_nfts.sol\":2120:2134  _nftIds.length */\n      mload\n        /* \"mercado_gotas_multiplos_nfts.sol\":2120:2138  _nftIds.length > 0 */\n      gt\n        /* \"mercado_gotas_multiplos_nfts.sol\":2112:2172  require(_nftIds.length > 0, \"Must list at least one token.\") */\n      tag_231\n      jumpi\n      mload(0x40)\n      0x08c379a000000000000000000000000000000000000000000000000000000000\n      dup2\n      mstore\n      0x04\n      add\n      tag_232\n      swap1\n      tag_233\n      jump\t// in\n    tag_232:\n      mload(0x40)\n      dup1\n      swap2\n      sub\n      swap1\n      revert\n    tag_231:\n        /* \"mercado_gotas_multiplos_nfts.sol\":2208:2215  _prices */\n      dup2\n        /* \"mercado_gotas_multiplos_nfts.sol\":2208:2222  _prices.length */\n      mload\n        /* \"mercado_gotas_multiplos_nfts.sol\":2190:2197  _nftIds */\n      dup4\n        /* \"mercado_gotas_multiplos_nfts.sol\":2190:2204  _nftIds.length */\n      mload\n        /* \"mercado_gotas_multiplos_nfts.sol\":2190:2222  _nftIds.length == _prices.length */\n      eq\n        /* \"mercado_gotas_multiplos_nfts.sol\":2182:2274  require(_nftIds.length == _prices.length, \"Token IDs and prices must have the same length.\") */\n      tag_234\n      jumpi\n      mload(0x40)\n      0x08c379a000000000000000000000000000000000000000000000000000000000\n      dup2\n      mstore\n      0x04\n      add\n      tag_235\n      swap1\n      tag_236\n      jump\t// in\n    tag_235:\n      mload(0x40)\n      dup1\n      swap2\n      sub\n      swap1\n      revert\n    tag_234:\n        /* \"mercado_gotas_multiplos_nfts.sol\":2304:2305  0 */\n      0x00\n        /* \"mercado_gotas_multiplos_nfts.sol\":2292:2301  _deadline */\n      dup2\n        /* \"mercado_gotas_multiplos_nfts.sol\":2292:2305  _deadline > 0 */\n      gt\n        /* \"mercado_gotas_multiplos_nfts.sol\":2284:2345  require(_deadline > 0, \"Deadline must be greater than zero.\") */\n      tag_237\n      jumpi\n      mload(0x40)\n      0x08c379a000000000000000000000000000000000000000000000000000000000\n      dup2\n      mstore\n      0x04\n      add\n      tag_238\n      swap1\n      tag_239\n      jump\t// in\n    tag_238:\n      mload(0x40)\n      dup1\n      swap2\n      sub\n      swap1\n      revert\n    tag_237:\n        /* \"mercado_gotas_multiplos_nfts.sol\":2356:2375  IERC721 nftContract */\n      0x00\n        /* \"mercado_gotas_multiplos_nfts.sol\":2386:2405  _nftContractAddress */\n      dup5\n        /* \"mercado_gotas_multiplos_nfts.sol\":2356:2406  IERC721 nftContract = IERC721(_nftContractAddress) */\n      swap1\n      pop\n        /* \"mercado_gotas_multiplos_nfts.sol\":2422:2431  uint256 i */\n      0x00\n        /* \"mercado_gotas_multiplos_nfts.sol\":2417:2720  for (uint256 i = 0; i < _nftIds.length; i++) {... */\n    tag_240:\n        /* \"mercado_gotas_multiplos_nfts.sol\":2441:2448  _nftIds */\n      dup5\n        /* \"mercado_gotas_multiplos_nfts.sol\":2441:2455  _nftIds.length */\n      mload\n        /* \"mercado_gotas_multiplos_nfts.sol\":2437:2438  i */\n      dup2\n        /* \"mercado_gotas_multiplos_nfts.sol\":2437:2455  i < _nftIds.length */\n      lt\n        /* \"mercado_gotas_multiplos_nfts.sol\":2417:2720  for (uint256 i = 0; i < _nftIds.length; i++) {... */\n      iszero\n      tag_241\n      jumpi\n        /* \"mercado_gotas_multiplos_nfts.sol\":2476:2489  uint256 nftId */\n      0x00\n        /* \"mercado_gotas_multiplos_nfts.sol\":2492:2499  _nftIds */\n      dup6\n        /* \"mercado_gotas_multiplos_nfts.sol\":2500:2501  i */\n      dup3\n        /* \"mercado_gotas_multiplos_nfts.sol\":2492:2502  _nftIds[i] */\n      dup2\n      mload\n      dup2\n      lt\n      tag_243\n      jumpi\n      mstore(0x00, 0x4e487b7100000000000000000000000000000000000000000000000000000000)\n      mstore(0x04, 0x32)\n      revert(0x00, 0x24)\n    tag_243:\n      0x20\n      mul\n      0x20\n      add\n      add\n      mload\n        /* \"mercado_gotas_multiplos_nfts.sol\":2476:2502  uint256 nftId = _nftIds[i] */\n      swap1\n      pop\n        /* \"mercado_gotas_multiplos_nfts.sol\":2516:2529  uint256 price */\n      0x00\n        /* \"mercado_gotas_multiplos_nfts.sol\":2532:2539  _prices */\n      dup6\n        /* \"mercado_gotas_multiplos_nfts.sol\":2540:2541  i */\n      dup4\n        /* \"mercado_gotas_multiplos_nfts.sol\":2532:2542  _prices[i] */\n      dup2\n      mload\n      dup2\n      lt\n      tag_244\n      jumpi\n      mstore(0x00, 0x4e487b7100000000000000000000000000000000000000000000000000000000)\n      mstore(0x04, 0x32)\n      revert(0x00, 0x24)\n    tag_244:\n      0x20\n      mul\n      0x20\n      add\n      add\n      mload\n        /* \"mercado_gotas_multiplos_nfts.sol\":2516:2542  uint256 price = _prices[i] */\n      swap1\n      pop\n        /* \"mercado_gotas_multiplos_nfts.sol\":2572:2573  0 */\n      0x00\n        /* \"mercado_gotas_multiplos_nfts.sol\":2564:2569  price */\n      dup2\n        /* \"mercado_gotas_multiplos_nfts.sol\":2564:2573  price > 0 */\n      gt\n        /* \"mercado_gotas_multiplos_nfts.sol\":2556:2610  require(price > 0, \"Price must be greater than zero.\") */\n      tag_245\n      jumpi\n      mload(0x40)\n      0x08c379a000000000000000000000000000000000000000000000000000000000\n      dup2\n      mstore\n      0x04\n      add\n      tag_246\n      swap1\n      tag_247\n      jump\t// in\n    tag_246:\n      mload(0x40)\n      dup1\n      swap2\n      sub\n      swap1\n      revert\n    tag_245:\n        /* \"mercado_gotas_multiplos_nfts.sol\":2662:2672  msg.sender */\n      caller\n        /* \"mercado_gotas_multiplos_nfts.sol\":2632:2672  nftContract.ownerOf(nftId) == msg.sender */\n      0xffffffffffffffffffffffffffffffffffffffff\n      and\n        /* \"mercado_gotas_multiplos_nfts.sol\":2632:2643  nftContract */\n      dup5\n        /* \"mercado_gotas_multiplos_nfts.sol\":2632:2651  nftContract.ownerOf */\n      0xffffffffffffffffffffffffffffffffffffffff\n      and\n      0x6352211e\n        /* \"mercado_gotas_multiplos_nfts.sol\":2652:2657  nftId */\n      dup5\n        /* \"mercado_gotas_multiplos_nfts.sol\":2632:2658  nftContract.ownerOf(nftId) */\n      mload(0x40)\n      dup3\n      0xffffffff\n      and\n      0xe0\n      shl\n      dup2\n      mstore\n      0x04\n      add\n      tag_248\n      swap2\n      swap1\n      tag_77\n      jump\t// in\n    tag_248:\n      0x20\n      mload(0x40)\n      dup1\n      dup4\n      sub\n      dup2\n      dup7\n      dup1\n      extcodesize\n      iszero\n      dup1\n      iszero\n      tag_249\n      jumpi\n      0x00\n      dup1\n      revert\n    tag_249:\n      pop\n      gas\n      staticcall\n      iszero\n      dup1\n      iszero\n      tag_251\n      jumpi\n      returndatasize\n      0x00\n      dup1\n      returndatacopy\n      revert(0x00, returndatasize)\n    tag_251:\n      pop\n      pop\n      pop\n      pop\n      mload(0x40)\n      returndatasize\n      not(0x1f)\n      0x1f\n      dup3\n      add\n      and\n      dup3\n      add\n      dup1\n      0x40\n      mstore\n      pop\n      dup2\n      add\n      swap1\n      tag_252\n      swap2\n      swap1\n      tag_194\n      jump\t// in\n    tag_252:\n        /* \"mercado_gotas_multiplos_nfts.sol\":2632:2672  nftContract.ownerOf(nftId) == msg.sender */\n      0xffffffffffffffffffffffffffffffffffffffff\n      and\n      eq\n        /* \"mercado_gotas_multiplos_nfts.sol\":2624:2709  require(nftContract.ownerOf(nftId) == msg.sender, \"You must own the NFT to list it.\") */\n      tag_253\n      jumpi\n      mload(0x40)\n      0x08c379a000000000000000000000000000000000000000000000000000000000\n      dup2\n      mstore\n      0x04\n      add\n      tag_254\n      swap1\n      tag_255\n      jump\t// in\n    tag_254:\n      mload(0x40)\n      dup1\n      swap2\n      sub\n      swap1\n      revert\n    tag_253:\n        /* \"mercado_gotas_multiplos_nfts.sol\":2417:2720  for (uint256 i = 0; i < _nftIds.length; i++) {... */\n      pop\n      pop\n        /* \"mercado_gotas_multiplos_nfts.sol\":2457:2460  i++ */\n      dup1\n      dup1\n      tag_256\n      swap1\n      tag_152\n      jump\t// in\n    tag_256:\n      swap2\n      pop\n      pop\n        /* \"mercado_gotas_multiplos_nfts.sol\":2417:2720  for (uint256 i = 0; i < _nftIds.length; i++) {... */\n      jump(tag_240)\n    tag_241:\n      pop\n        /* \"mercado_gotas_multiplos_nfts.sol\":2756:2969  Listing({... */\n      mload(0x40)\n      dup1\n      0xa0\n      add\n      0x40\n      mstore\n      dup1\n        /* \"mercado_gotas_multiplos_nfts.sol\":2798:2817  _nftContractAddress */\n      dup7\n        /* \"mercado_gotas_multiplos_nfts.sol\":2756:2969  Listing({... */\n      0xffffffffffffffffffffffffffffffffffffffff\n      and\n      dup2\n      mstore\n      0x20\n      add\n        /* \"mercado_gotas_multiplos_nfts.sol\":2839:2846  _nftIds */\n      dup6\n        /* \"mercado_gotas_multiplos_nfts.sol\":2756:2969  Listing({... */\n      dup2\n      mstore\n      0x20\n      add\n        /* \"mercado_gotas_multiplos_nfts.sol\":2868:2878  msg.sender */\n      caller\n        /* \"mercado_gotas_multiplos_nfts.sol\":2756:2969  Listing({... */\n      0xffffffffffffffffffffffffffffffffffffffff\n      and\n      dup2\n      mstore\n      0x20\n      add\n        /* \"mercado_gotas_multiplos_nfts.sol\":2900:2907  _prices */\n      dup5\n        /* \"mercado_gotas_multiplos_nfts.sol\":2756:2969  Listing({... */\n      dup2\n      mstore\n      0x20\n      add\n        /* \"mercado_gotas_multiplos_nfts.sol\":2949:2958  _deadline */\n      dup4\n        /* \"mercado_gotas_multiplos_nfts.sol\":2931:2946  block.timestamp */\n      timestamp\n        /* \"mercado_gotas_multiplos_nfts.sol\":2931:2958  block.timestamp + _deadline */\n      tag_257\n      swap2\n      swap1\n      tag_185\n      jump\t// in\n    tag_257:\n        /* \"mercado_gotas_multiplos_nfts.sol\":2756:2969  Listing({... */\n      dup2\n      mstore\n      pop\n        /* \"mercado_gotas_multiplos_nfts.sol\":2730:2738  listings */\n      0x08\n        /* \"mercado_gotas_multiplos_nfts.sol\":2730:2753  listings[nextListingId] */\n      0x00\n        /* \"mercado_gotas_multiplos_nfts.sol\":2739:2752  nextListingId */\n      sload(0x0a)\n        /* \"mercado_gotas_multiplos_nfts.sol\":2730:2753  listings[nextListingId] */\n      dup2\n      mstore\n      0x20\n      add\n      swap1\n      dup2\n      mstore\n      0x20\n      add\n      0x00\n      keccak256\n        /* \"mercado_gotas_multiplos_nfts.sol\":2730:2969  listings[nextListingId] = Listing({... */\n      0x00\n      dup3\n      add\n      mload\n      dup2\n      0x00\n      add\n      exp(0x0100, 0x00)\n      dup2\n      sload\n      dup2\n      0xffffffffffffffffffffffffffffffffffffffff\n      mul\n      not\n      and\n      swap1\n      dup4\n      0xffffffffffffffffffffffffffffffffffffffff\n      and\n      mul\n      or\n      swap1\n      sstore\n      pop\n      0x20\n      dup3\n      add\n      mload\n      dup2\n      0x01\n      add\n      swap1\n      dup1\n      mload\n      swap1\n      0x20\n      add\n      swap1\n      tag_258\n      swap3\n      swap2\n      swap1\n      tag_259\n      jump\t// in\n    tag_258:\n      pop\n      0x40\n      dup3\n      add\n      mload\n      dup2\n      0x02\n      add\n      exp(0x0100, 0x00)\n      dup2\n      sload\n      dup2\n      0xffffffffffffffffffffffffffffffffffffffff\n      mul\n      not\n      and\n      swap1\n      dup4\n      0xffffffffffffffffffffffffffffffffffffffff\n      and\n      mul\n      or\n      swap1\n      sstore\n      pop\n      0x60\n      dup3\n      add\n      mload\n      dup2\n      0x03\n      add\n      swap1\n      dup1\n      mload\n      swap1\n      0x20\n      add\n      swap1\n      tag_260\n      swap3\n      swap2\n      swap1\n      tag_259\n      jump\t// in\n    tag_260:\n      pop\n      0x80\n      dup3\n      add\n      mload\n      dup2\n      0x04\n      add\n      sstore\n      swap1\n      pop\n      pop\n        /* \"mercado_gotas_multiplos_nfts.sol\":3011:3021  msg.sender */\n      caller\n        /* \"mercado_gotas_multiplos_nfts.sol\":2980:2993  listingOwners */\n      0x09\n        /* \"mercado_gotas_multiplos_nfts.sol\":2980:3008  listingOwners[nextListingId] */\n      0x00\n        /* \"mercado_gotas_multiplos_nfts.sol\":2994:3007  nextListingId */\n      sload(0x0a)\n        /* \"mercado_gotas_multiplos_nfts.sol\":2980:3008  listingOwners[nextListingId] */\n      dup2\n      mstore\n      0x20\n      add\n      swap1\n      dup2\n      mstore\n      0x20\n      add\n      0x00\n      keccak256\n      0x00\n        /* \"mercado_gotas_multiplos_nfts.sol\":2980:3021  listingOwners[nextListingId] = msg.sender */\n      0x0100\n      exp\n      dup2\n      sload\n      dup2\n      0xffffffffffffffffffffffffffffffffffffffff\n      mul\n      not\n      and\n      swap1\n      dup4\n      0xffffffffffffffffffffffffffffffffffffffff\n      and\n      mul\n      or\n      swap1\n      sstore\n      pop\n        /* \"mercado_gotas_multiplos_nfts.sol\":3032:3048  activeListingIds */\n      0x03\n        /* \"mercado_gotas_multiplos_nfts.sol\":3054:3067  nextListingId */\n      sload(0x0a)\n        /* \"mercado_gotas_multiplos_nfts.sol\":3032:3068  activeListingIds.push(nextListingId) */\n      swap1\n      dup1\n      0x01\n      dup2\n      sload\n      add\n      dup1\n      dup3\n      sstore\n      dup1\n      swap2\n      pop\n      pop\n      0x01\n      swap1\n      sub\n      swap1\n      0x00\n      mstore\n      keccak256(0x00, 0x20)\n      add\n      0x00\n      swap1\n      swap2\n      swap1\n      swap2\n      swap1\n      swap2\n      pop\n      sstore\n        /* \"mercado_gotas_multiplos_nfts.sol\":3121:3140  _nftContractAddress */\n      dup5\n        /* \"mercado_gotas_multiplos_nfts.sol\":3084:3188  NFTListed(nextListingId, msg.sender, _nftContractAddress, _nftIds, _prices, block.timestamp + _deadline) */\n      0xffffffffffffffffffffffffffffffffffffffff\n      and\n        /* \"mercado_gotas_multiplos_nfts.sol\":3109:3119  msg.sender */\n      caller\n        /* \"mercado_gotas_multiplos_nfts.sol\":3084:3188  NFTListed(nextListingId, msg.sender, _nftContractAddress, _nftIds, _prices, block.timestamp + _deadline) */\n      0xffffffffffffffffffffffffffffffffffffffff\n      and\n        /* \"mercado_gotas_multiplos_nfts.sol\":3094:3107  nextListingId */\n      sload(0x0a)\n        /* \"mercado_gotas_multiplos_nfts.sol\":3084:3188  NFTListed(nextListingId, msg.sender, _nftContractAddress, _nftIds, _prices, block.timestamp + _deadline) */\n      0x3827cf174b534ea2bdb4e9c023a13983775839ee29833adeba7fee3b8f2c755a\n        /* \"mercado_gotas_multiplos_nfts.sol\":3142:3149  _nftIds */\n      dup8\n        /* \"mercado_gotas_multiplos_nfts.sol\":3151:3158  _prices */\n      dup8\n        /* \"mercado_gotas_multiplos_nfts.sol\":3178:3187  _deadline */\n      dup8\n        /* \"mercado_gotas_multiplos_nfts.sol\":3160:3175  block.timestamp */\n      timestamp\n        /* \"mercado_gotas_multiplos_nfts.sol\":3160:3187  block.timestamp + _deadline */\n      tag_262\n      swap2\n      swap1\n      tag_185\n      jump\t// in\n    tag_262:\n        /* \"mercado_gotas_multiplos_nfts.sol\":3084:3188  NFTListed(nextListingId, msg.sender, _nftContractAddress, _nftIds, _prices, block.timestamp + _deadline) */\n      mload(0x40)\n      tag_263\n      swap4\n      swap3\n      swap2\n      swap1\n      tag_264\n      jump\t// in\n    tag_263:\n      mload(0x40)\n      dup1\n      swap2\n      sub\n      swap1\n      log4\n        /* \"mercado_gotas_multiplos_nfts.sol\":3198:3211  nextListingId */\n      0x0a\n      0x00\n        /* \"mercado_gotas_multiplos_nfts.sol\":3198:3213  nextListingId++ */\n      dup2\n      sload\n      dup1\n      swap3\n      swap2\n      swap1\n      tag_265\n      swap1\n      tag_152\n      jump\t// in\n    tag_265:\n      swap2\n      swap1\n      pop\n      sstore\n      pop\n        /* \"@openzeppelin/contracts/security/ReentrancyGuard.sol\":2292:2293  _ */\n      pop\n        /* \"@openzeppelin/contracts/security/ReentrancyGuard.sol\":2303:2323  _nonReentrantAfter() */\n      tag_266\n        /* \"@openzeppelin/contracts/security/ReentrancyGuard.sol\":2303:2321  _nonReentrantAfter */\n      tag_125\n        /* \"@openzeppelin/contracts/security/ReentrancyGuard.sol\":2303:2323  _nonReentrantAfter() */\n      jump\t// in\n    tag_266:\n        /* \"mercado_gotas_multiplos_nfts.sol\":1949:3220  function listNFT(address _nftContractAddress, uint256[] memory _nftIds, uint256[] memory _prices, uint256 _deadline) external whenNotPaused nonReentrant {... */\n      pop\n      pop\n      pop\n      pop\n      jump\t// out\n        /* \"@openzeppelin/contracts/security/Pausable.sol\":1615:1699  function paused() public view virtual returns (bool) {... */\n    tag_48:\n        /* \"@openzeppelin/contracts/security/Pausable.sol\":1662:1666  bool */\n      0x00\n        /* \"@openzeppelin/contracts/security/Pausable.sol\":1685:1692  _paused */\n      0x02\n      0x00\n      swap1\n      sload\n      swap1\n      0x0100\n      exp\n      swap1\n      div\n      0xff\n      and\n        /* \"@openzeppelin/contracts/security/Pausable.sol\":1678:1692  return _paused */\n      swap1\n      pop\n        /* \"@openzeppelin/contracts/security/Pausable.sol\":1615:1699  function paused() public view virtual returns (bool) {... */\n      swap1\n      jump\t// out\n        /* \"mercado_gotas_multiplos_nfts.sol\":5270:5614  function updateFeeAddresses(address _newRoyaltyAddress, address _newPlatformFeeAddress) external onlyOwner nonReentrant {... */\n    tag_55:\n        /* \"@openzeppelin/contracts/access/Ownable.sol\":1094:1107  _checkOwner() */\n      tag_269\n        /* \"@openzeppelin/contracts/access/Ownable.sol\":1094:1105  _checkOwner */\n      tag_155\n        /* \"@openzeppelin/contracts/access/Ownable.sol\":1094:1107  _checkOwner() */\n      jump\t// in\n    tag_269:\n        /* \"@openzeppelin/contracts/security/ReentrancyGuard.sol\":2261:2282  _nonReentrantBefore() */\n      tag_271\n        /* \"@openzeppelin/contracts/security/ReentrancyGuard.sol\":2261:2280  _nonReentrantBefore */\n      tag_116\n        /* \"@openzeppelin/contracts/security/ReentrancyGuard.sol\":2261:2282  _nonReentrantBefore() */\n      jump\t// in\n    tag_271:\n        /* \"mercado_gotas_multiplos_nfts.sol\":5438:5439  0 */\n      0x00\n        /* \"mercado_gotas_multiplos_nfts.sol\":5408:5440  _newRoyaltyAddress != address(0) */\n      0xffffffffffffffffffffffffffffffffffffffff\n      and\n        /* \"mercado_gotas_multiplos_nfts.sol\":5408:5426  _newRoyaltyAddress */\n      dup3\n        /* \"mercado_gotas_multiplos_nfts.sol\":5408:5440  _newRoyaltyAddress != address(0) */\n      0xffffffffffffffffffffffffffffffffffffffff\n      and\n      eq\n      iszero\n        /* \"mercado_gotas_multiplos_nfts.sol\":5408:5480  _newRoyaltyAddress != address(0) && _newPlatformFeeAddress != address(0) */\n      dup1\n      iszero\n      tag_273\n      jumpi\n      pop\n        /* \"mercado_gotas_multiplos_nfts.sol\":5478:5479  0 */\n      0x00\n        /* \"mercado_gotas_multiplos_nfts.sol\":5444:5480  _newPlatformFeeAddress != address(0) */\n      0xffffffffffffffffffffffffffffffffffffffff\n      and\n        /* \"mercado_gotas_multiplos_nfts.sol\":5444:5466  _newPlatformFeeAddress */\n      dup2\n        /* \"mercado_gotas_multiplos_nfts.sol\":5444:5480  _newPlatformFeeAddress != address(0) */\n      0xffffffffffffffffffffffffffffffffffffffff\n      and\n      eq\n      iszero\n        /* \"mercado_gotas_multiplos_nfts.sol\":5408:5480  _newRoyaltyAddress != address(0) && _newPlatformFeeAddress != address(0) */\n    tag_273:\n        /* \"mercado_gotas_multiplos_nfts.sol\":5400:5509  require(_newRoyaltyAddress != address(0) && _newPlatformFeeAddress != address(0), \"Addresses cannot be zero\") */\n      tag_274\n      jumpi\n      mload(0x40)\n      0x08c379a000000000000000000000000000000000000000000000000000000000\n      dup2\n      mstore\n      0x04\n      add\n      tag_275\n      swap1\n      tag_276\n      jump\t// in\n    tag_275:\n      mload(0x40)\n      dup1\n      swap2\n      sub\n      swap1\n      revert\n    tag_274:\n        /* \"mercado_gotas_multiplos_nfts.sol\":5536:5554  _newRoyaltyAddress */\n      dup2\n        /* \"mercado_gotas_multiplos_nfts.sol\":5519:5533  royaltyAddress */\n      0x06\n      0x00\n        /* \"mercado_gotas_multiplos_nfts.sol\":5519:5554  royaltyAddress = _newRoyaltyAddress */\n      0x0100\n      exp\n      dup2\n      sload\n      dup2\n      0xffffffffffffffffffffffffffffffffffffffff\n      mul\n      not\n      and\n      swap1\n      dup4\n      0xffffffffffffffffffffffffffffffffffffffff\n      and\n      mul\n      or\n      swap1\n      sstore\n      pop\n        /* \"mercado_gotas_multiplos_nfts.sol\":5585:5607  _newPlatformFeeAddress */\n      dup1\n        /* \"mercado_gotas_multiplos_nfts.sol\":5564:5582  platformFeeAddress */\n      0x07\n      0x00\n        /* \"mercado_gotas_multiplos_nfts.sol\":5564:5607  platformFeeAddress = _newPlatformFeeAddress */\n      0x0100\n      exp\n      dup2\n      sload\n      dup2\n      0xffffffffffffffffffffffffffffffffffffffff\n      mul\n      not\n      and\n      swap1\n      dup4\n      0xffffffffffffffffffffffffffffffffffffffff\n      and\n      mul\n      or\n      swap1\n      sstore\n      pop\n        /* \"@openzeppelin/contracts/security/ReentrancyGuard.sol\":2303:2323  _nonReentrantAfter() */\n      tag_277\n        /* \"@openzeppelin/contracts/security/ReentrancyGuard.sol\":2303:2321  _nonReentrantAfter */\n      tag_125\n        /* \"@openzeppelin/contracts/security/ReentrancyGuard.sol\":2303:2323  _nonReentrantAfter() */\n      jump\t// in\n    tag_277:\n        /* \"mercado_gotas_multiplos_nfts.sol\":5270:5614  function updateFeeAddresses(address _newRoyaltyAddress, address _newPlatformFeeAddress) external onlyOwner nonReentrant {... */\n      pop\n      pop\n      jump\t// out\n        /* \"@openzeppelin/contracts/access/Ownable.sol\":1824:1925  function renounceOwnership() public virtual onlyOwner {... */\n    tag_58:\n        /* \"@openzeppelin/contracts/access/Ownable.sol\":1094:1107  _checkOwner() */\n      tag_279\n        /* \"@openzeppelin/contracts/access/Ownable.sol\":1094:1105  _checkOwner */\n      tag_155\n        /* \"@openzeppelin/contracts/access/Ownable.sol\":1094:1107  _checkOwner() */\n      jump\t// in\n    tag_279:\n        /* \"@openzeppelin/contracts/access/Ownable.sol\":1888:1918  _transferOwnership(address(0)) */\n      tag_281\n        /* \"@openzeppelin/contracts/access/Ownable.sol\":1915:1916  0 */\n      0x00\n        /* \"@openzeppelin/contracts/access/Ownable.sol\":1888:1906  _transferOwnership */\n      tag_282\n        /* \"@openzeppelin/contracts/access/Ownable.sol\":1888:1918  _transferOwnership(address(0)) */\n      jump\t// in\n    tag_281:\n        /* \"@openzeppelin/contracts/access/Ownable.sol\":1824:1925  function renounceOwnership() public virtual onlyOwner {... */\n      jump\t// out\n        /* \"mercado_gotas_multiplos_nfts.sol\":5620:5865  function updateFeePercentages(uint256 _newRoyaltyPercentage, uint256 _newPlatformFeePercentage) external onlyOwner nonReentrant {... */\n    tag_63:\n        /* \"@openzeppelin/contracts/access/Ownable.sol\":1094:1107  _checkOwner() */\n      tag_284\n        /* \"@openzeppelin/contracts/access/Ownable.sol\":1094:1105  _checkOwner */\n      tag_155\n        /* \"@openzeppelin/contracts/access/Ownable.sol\":1094:1107  _checkOwner() */\n      jump\t// in\n    tag_284:\n        /* \"@openzeppelin/contracts/security/ReentrancyGuard.sol\":2261:2282  _nonReentrantBefore() */\n      tag_286\n        /* \"@openzeppelin/contracts/security/ReentrancyGuard.sol\":2261:2280  _nonReentrantBefore */\n      tag_116\n        /* \"@openzeppelin/contracts/security/ReentrancyGuard.sol\":2261:2282  _nonReentrantBefore() */\n      jump\t// in\n    tag_286:\n        /* \"mercado_gotas_multiplos_nfts.sol\":5778:5799  _newRoyaltyPercentage */\n      dup2\n        /* \"mercado_gotas_multiplos_nfts.sol\":5758:5775  royaltyPercentage */\n      0x04\n        /* \"mercado_gotas_multiplos_nfts.sol\":5758:5799  royaltyPercentage = _newRoyaltyPercentage */\n      dup2\n      swap1\n      sstore\n      pop\n        /* \"mercado_gotas_multiplos_nfts.sol\":5833:5858  _newPlatformFeePercentage */\n      dup1\n        /* \"mercado_gotas_multiplos_nfts.sol\":5809:5830  platformFeePercentage */\n      0x05\n        /* \"mercado_gotas_multiplos_nfts.sol\":5809:5858  platformFeePercentage = _newPlatformFeePercentage */\n      dup2\n      swap1\n      sstore\n      pop\n        /* \"@openzeppelin/contracts/security/ReentrancyGuard.sol\":2303:2323  _nonReentrantAfter() */\n      tag_288\n        /* \"@openzeppelin/contracts/security/ReentrancyGuard.sol\":2303:2321  _nonReentrantAfter */\n      tag_125\n        /* \"@openzeppelin/contracts/security/ReentrancyGuard.sol\":2303:2323  _nonReentrantAfter() */\n      jump\t// in\n    tag_288:\n        /* \"mercado_gotas_multiplos_nfts.sol\":5620:5865  function updateFeePercentages(uint256 _newRoyaltyPercentage, uint256 _newPlatformFeePercentage) external onlyOwner nonReentrant {... */\n      pop\n      pop\n      jump\t// out\n        /* \"mercado_gotas_multiplos_nfts.sol\":1070:1118  mapping(uint256 => address) public listingOwners */\n    tag_67:\n      mstore(0x20, 0x09)\n      dup1\n      0x00\n      mstore\n      keccak256(0x00, 0x40)\n      0x00\n      swap2\n      pop\n      sload\n      swap1\n      0x0100\n      exp\n      swap1\n      div\n      0xffffffffffffffffffffffffffffffffffffffff\n      and\n      dup2\n      jump\t// out\n        /* \"mercado_gotas_multiplos_nfts.sol\":5106:5180  function pause() external onlyOwner nonReentrant {... */\n    tag_72:\n        /* \"@openzeppelin/contracts/access/Ownable.sol\":1094:1107  _checkOwner() */\n      tag_290\n        /* \"@openzeppelin/contracts/access/Ownable.sol\":1094:1105  _checkOwner */\n      tag_155\n        /* \"@openzeppelin/contracts/access/Ownable.sol\":1094:1107  _checkOwner() */\n      jump\t// in\n    tag_290:\n        /* \"@openzeppelin/contracts/security/ReentrancyGuard.sol\":2261:2282  _nonReentrantBefore() */\n      tag_292\n        /* \"@openzeppelin/contracts/security/ReentrancyGuard.sol\":2261:2280  _nonReentrantBefore */\n      tag_116\n        /* \"@openzeppelin/contracts/security/ReentrancyGuard.sol\":2261:2282  _nonReentrantBefore() */\n      jump\t// in\n    tag_292:\n        /* \"mercado_gotas_multiplos_nfts.sol\":5165:5173  _pause() */\n      tag_294\n        /* \"mercado_gotas_multiplos_nfts.sol\":5165:5171  _pause */\n      tag_295\n        /* \"mercado_gotas_multiplos_nfts.sol\":5165:5173  _pause() */\n      jump\t// in\n    tag_294:\n        /* \"@openzeppelin/contracts/security/ReentrancyGuard.sol\":2303:2323  _nonReentrantAfter() */\n      tag_296\n        /* \"@openzeppelin/contracts/security/ReentrancyGuard.sol\":2303:2321  _nonReentrantAfter */\n      tag_125\n        /* \"@openzeppelin/contracts/security/ReentrancyGuard.sol\":2303:2323  _nonReentrantAfter() */\n      jump\t// in\n    tag_296:\n        /* \"mercado_gotas_multiplos_nfts.sol\":5106:5180  function pause() external onlyOwner nonReentrant {... */\n      jump\t// out\n        /* \"mercado_gotas_multiplos_nfts.sol\":865:897  uint256 public royaltyPercentage */\n    tag_75:\n      sload(0x04)\n      dup2\n      jump\t// out\n        /* \"@openzeppelin/contracts/access/Ownable.sol\":1201:1286  function owner() public view virtual returns (address) {... */\n    tag_80:\n        /* \"@openzeppelin/contracts/access/Ownable.sol\":1247:1254  address */\n      0x00\n        /* \"@openzeppelin/contracts/access/Ownable.sol\":1273:1279  _owner */\n      dup1\n      0x00\n      swap1\n      sload\n      swap1\n      0x0100\n      exp\n      swap1\n      div\n      0xffffffffffffffffffffffffffffffffffffffff\n      and\n        /* \"@openzeppelin/contracts/access/Ownable.sol\":1266:1279  return _owner */\n      swap1\n      pop\n        /* \"@openzeppelin/contracts/access/Ownable.sol\":1201:1286  function owner() public view virtual returns (address) {... */\n      swap1\n      jump\t// out\n        /* \"mercado_gotas_multiplos_nfts.sol\":1125:1157  uint256 public nextListingId = 1 */\n    tag_84:\n      sload(0x0a)\n      dup2\n      jump\t// out\n        /* \"mercado_gotas_multiplos_nfts.sol\":946:975  address public royaltyAddress */\n    tag_88:\n      0x06\n      0x00\n      swap1\n      sload\n      swap1\n      0x0100\n      exp\n      swap1\n      div\n      0xffffffffffffffffffffffffffffffffffffffff\n      and\n      dup2\n      jump\t// out\n        /* \"mercado_gotas_multiplos_nfts.sol\":903:939  uint256 public platformFeePercentage */\n    tag_92:\n      sload(0x05)\n      dup2\n      jump\t// out\n        /* \"mercado_gotas_multiplos_nfts.sol\":1021:1064  mapping(uint256 => Listing) public listings */\n    tag_97:\n      mstore(0x20, 0x08)\n      dup1\n      0x00\n      mstore\n      keccak256(0x00, 0x40)\n      0x00\n      swap2\n      pop\n      swap1\n      pop\n      dup1\n      0x00\n      add\n      0x00\n      swap1\n      sload\n      swap1\n      0x0100\n      exp\n      swap1\n      div\n      0xffffffffffffffffffffffffffffffffffffffff\n      and\n      swap1\n      dup1\n      0x02\n      add\n      0x00\n      swap1\n      sload\n      swap1\n      0x0100\n      exp\n      swap1\n      div\n      0xffffffffffffffffffffffffffffffffffffffff\n      and\n      swap1\n      dup1\n      0x04\n      add\n      sload\n      swap1\n      pop\n      dup4\n      jump\t// out\n        /* \"mercado_gotas_multiplos_nfts.sol\":826:859  uint256[] public activeListingIds */\n    tag_103:\n      0x03\n      dup2\n      dup2\n      sload\n      dup2\n      lt\n      tag_298\n      jumpi\n      0x00\n      dup1\n      revert\n    tag_298:\n      swap1\n      0x00\n      mstore\n      keccak256(0x00, 0x20)\n      add\n      0x00\n      swap2\n      pop\n      swap1\n      pop\n      sload\n      dup2\n      jump\t// out\n        /* \"mercado_gotas_multiplos_nfts.sol\":981:1014  address public platformFeeAddress */\n    tag_107:\n      0x07\n      0x00\n      swap1\n      sload\n      swap1\n      0x0100\n      exp\n      swap1\n      div\n      0xffffffffffffffffffffffffffffffffffffffff\n      and\n      dup2\n      jump\t// out\n        /* \"@openzeppelin/contracts/access/Ownable.sol\":2074:2272  function transferOwnership(address newOwner) public virtual onlyOwner {... */\n    tag_113:\n        /* \"@openzeppelin/contracts/access/Ownable.sol\":1094:1107  _checkOwner() */\n      tag_301\n        /* \"@openzeppelin/contracts/access/Ownable.sol\":1094:1105  _checkOwner */\n      tag_155\n        /* \"@openzeppelin/contracts/access/Ownable.sol\":1094:1107  _checkOwner() */\n      jump\t// in\n    tag_301:\n        /* \"@openzeppelin/contracts/access/Ownable.sol\":2182:2183  0 */\n      0x00\n        /* \"@openzeppelin/contracts/access/Ownable.sol\":2162:2184  newOwner != address(0) */\n      0xffffffffffffffffffffffffffffffffffffffff\n      and\n        /* \"@openzeppelin/contracts/access/Ownable.sol\":2162:2170  newOwner */\n      dup2\n        /* \"@openzeppelin/contracts/access/Ownable.sol\":2162:2184  newOwner != address(0) */\n      0xffffffffffffffffffffffffffffffffffffffff\n      and\n      eq\n      iszero\n        /* \"@openzeppelin/contracts/access/Ownable.sol\":2154:2227  require(newOwner != address(0), \"Ownable: new owner is the zero address\") */\n      tag_303\n      jumpi\n      mload(0x40)\n      0x08c379a000000000000000000000000000000000000000000000000000000000\n      dup2\n      mstore\n      0x04\n      add\n      tag_304\n      swap1\n      tag_305\n      jump\t// in\n    tag_304:\n      mload(0x40)\n      dup1\n      swap2\n      sub\n      swap1\n      revert\n    tag_303:\n        /* \"@openzeppelin/contracts/access/Ownable.sol\":2237:2265  _transferOwnership(newOwner) */\n      tag_306\n        /* \"@openzeppelin/contracts/access/Ownable.sol\":2256:2264  newOwner */\n      dup2\n        /* \"@openzeppelin/contracts/access/Ownable.sol\":2237:2255  _transferOwnership */\n      tag_282\n        /* \"@openzeppelin/contracts/access/Ownable.sol\":2237:2265  _transferOwnership(newOwner) */\n      jump\t// in\n    tag_306:\n        /* \"@openzeppelin/contracts/access/Ownable.sol\":2074:2272  function transferOwnership(address newOwner) public virtual onlyOwner {... */\n      pop\n      jump\t// out\n        /* \"@openzeppelin/contracts/security/ReentrancyGuard.sol\":2336:2623  function _nonReentrantBefore() private {... */\n    tag_116:\n        /* \"@openzeppelin/contracts/security/ReentrancyGuard.sol\":1759:1760  2 */\n      0x02\n        /* \"@openzeppelin/contracts/security/ReentrancyGuard.sol\":2468:2475  _status */\n      sload(0x01)\n        /* \"@openzeppelin/contracts/security/ReentrancyGuard.sol\":2468:2487  _status != _ENTERED */\n      eq\n      iszero\n        /* \"@openzeppelin/contracts/security/ReentrancyGuard.sol\":2460:2523  require(_status != _ENTERED, \"ReentrancyGuard: reentrant call\") */\n      tag_308\n      jumpi\n      mload(0x40)\n      0x08c379a000000000000000000000000000000000000000000000000000000000\n      dup2\n      mstore\n      0x04\n      add\n      tag_309\n      swap1\n      tag_310\n      jump\t// in\n    tag_309:\n      mload(0x40)\n      dup1\n      swap2\n      sub\n      swap1\n      revert\n    tag_308:\n        /* \"@openzeppelin/contracts/security/ReentrancyGuard.sol\":1759:1760  2 */\n      0x02\n        /* \"@openzeppelin/contracts/security/ReentrancyGuard.sol\":2598:2605  _status */\n      0x01\n        /* \"@openzeppelin/contracts/security/ReentrancyGuard.sol\":2598:2616  _status = _ENTERED */\n      dup2\n      swap1\n      sstore\n      pop\n        /* \"@openzeppelin/contracts/security/ReentrancyGuard.sol\":2336:2623  function _nonReentrantBefore() private {... */\n      jump\t// out\n        /* \"@openzeppelin/contracts/security/ReentrancyGuard.sol\":2629:2838  function _nonReentrantAfter() private {... */\n    tag_125:\n        /* \"@openzeppelin/contracts/security/ReentrancyGuard.sol\":1716:1717  1 */\n      0x01\n        /* \"@openzeppelin/contracts/security/ReentrancyGuard.sol\":2809:2816  _status */\n      dup1\n        /* \"@openzeppelin/contracts/security/ReentrancyGuard.sol\":2809:2831  _status = _NOT_ENTERED */\n      dup2\n      swap1\n      sstore\n      pop\n        /* \"@openzeppelin/contracts/security/ReentrancyGuard.sol\":2629:2838  function _nonReentrantAfter() private {... */\n      jump\t// out\n        /* \"@openzeppelin/contracts/access/Ownable.sol\":1359:1489  function _checkOwner() internal view virtual {... */\n    tag_155:\n        /* \"@openzeppelin/contracts/access/Ownable.sol\":1433:1445  _msgSender() */\n      tag_313\n        /* \"@openzeppelin/contracts/access/Ownable.sol\":1433:1443  _msgSender */\n      tag_314\n        /* \"@openzeppelin/contracts/access/Ownable.sol\":1433:1445  _msgSender() */\n      jump\t// in\n    tag_313:\n        /* \"@openzeppelin/contracts/access/Ownable.sol\":1422:1445  owner() == _msgSender() */\n      0xffffffffffffffffffffffffffffffffffffffff\n      and\n        /* \"@openzeppelin/contracts/access/Ownable.sol\":1422:1429  owner() */\n      tag_315\n        /* \"@openzeppelin/contracts/access/Ownable.sol\":1422:1427  owner */\n      tag_80\n        /* \"@openzeppelin/contracts/access/Ownable.sol\":1422:1429  owner() */\n      jump\t// in\n    tag_315:\n        /* \"@openzeppelin/contracts/access/Ownable.sol\":1422:1445  owner() == _msgSender() */\n      0xffffffffffffffffffffffffffffffffffffffff\n      and\n      eq\n        /* \"@openzeppelin/contracts/access/Ownable.sol\":1414:1482  require(owner() == _msgSender(), \"Ownable: caller is not the owner\") */\n      tag_316\n      jumpi\n      mload(0x40)\n      0x08c379a000000000000000000000000000000000000000000000000000000000\n      dup2\n      mstore\n      0x04\n      add\n      tag_317\n      swap1\n      tag_318\n      jump\t// in\n    tag_317:\n      mload(0x40)\n      dup1\n      swap2\n      sub\n      swap1\n      revert\n    tag_316:\n        /* \"@openzeppelin/contracts/access/Ownable.sol\":1359:1489  function _checkOwner() internal view virtual {... */\n      jump\t// out\n        /* \"@openzeppelin/contracts/security/Pausable.sol\":2433:2550  function _unpause() internal virtual whenPaused {... */\n    tag_160:\n        /* \"@openzeppelin/contracts/security/Pausable.sol\":1486:1502  _requirePaused() */\n      tag_320\n        /* \"@openzeppelin/contracts/security/Pausable.sol\":1486:1500  _requirePaused */\n      tag_321\n        /* \"@openzeppelin/contracts/security/Pausable.sol\":1486:1502  _requirePaused() */\n      jump\t// in\n    tag_320:\n        /* \"@openzeppelin/contracts/security/Pausable.sol\":2501:2506  false */\n      0x00\n        /* \"@openzeppelin/contracts/security/Pausable.sol\":2491:2498  _paused */\n      0x02\n      0x00\n        /* \"@openzeppelin/contracts/security/Pausable.sol\":2491:2506  _paused = false */\n      0x0100\n      exp\n      dup2\n      sload\n      dup2\n      0xff\n      mul\n      not\n      and\n      swap1\n      dup4\n      iszero\n      iszero\n      mul\n      or\n      swap1\n      sstore\n      pop\n        /* \"@openzeppelin/contracts/security/Pausable.sol\":2521:2543  Unpaused(_msgSender()) */\n      0x5db9ee0a495bf2e6ff9c91a7834c1ba4fdd244a5e8aa4e537bd38aeae4b073aa\n        /* \"@openzeppelin/contracts/security/Pausable.sol\":2530:2542  _msgSender() */\n      tag_323\n        /* \"@openzeppelin/contracts/security/Pausable.sol\":2530:2540  _msgSender */\n      tag_314\n        /* \"@openzeppelin/contracts/security/Pausable.sol\":2530:2542  _msgSender() */\n      jump\t// in\n    tag_323:\n        /* \"@openzeppelin/contracts/security/Pausable.sol\":2521:2543  Unpaused(_msgSender()) */\n      mload(0x40)\n      tag_324\n      swap2\n      swap1\n      tag_69\n      jump\t// in\n    tag_324:\n      mload(0x40)\n      dup1\n      swap2\n      sub\n      swap1\n      log1\n        /* \"@openzeppelin/contracts/security/Pausable.sol\":2433:2550  function _unpause() internal virtual whenPaused {... */\n      jump\t// out\n        /* \"@openzeppelin/contracts/security/Pausable.sol\":1767:1873  function _requireNotPaused() internal view virtual {... */\n    tag_164:\n        /* \"@openzeppelin/contracts/security/Pausable.sol\":1837:1845  paused() */\n      tag_326\n        /* \"@openzeppelin/contracts/security/Pausable.sol\":1837:1843  paused */\n      tag_48\n        /* \"@openzeppelin/contracts/security/Pausable.sol\":1837:1845  paused() */\n      jump\t// in\n    tag_326:\n        /* \"@openzeppelin/contracts/security/Pausable.sol\":1836:1845  !paused() */\n      iszero\n        /* \"@openzeppelin/contracts/security/Pausable.sol\":1828:1866  require(!paused(), \"Pausable: paused\") */\n      tag_327\n      jumpi\n      mload(0x40)\n      0x08c379a000000000000000000000000000000000000000000000000000000000\n      dup2\n      mstore\n      0x04\n      add\n      tag_328\n      swap1\n      tag_329\n      jump\t// in\n    tag_328:\n      mload(0x40)\n      dup1\n      swap2\n      sub\n      swap1\n      revert\n    tag_327:\n        /* \"@openzeppelin/contracts/security/Pausable.sol\":1767:1873  function _requireNotPaused() internal view virtual {... */\n      jump\t// out\n        /* \"@openzeppelin/contracts/access/Ownable.sol\":2426:2613  function _transferOwnership(address newOwner) internal virtual {... */\n    tag_282:\n        /* \"@openzeppelin/contracts/access/Ownable.sol\":2499:2515  address oldOwner */\n      0x00\n        /* \"@openzeppelin/contracts/access/Ownable.sol\":2518:2524  _owner */\n      dup1\n      0x00\n      swap1\n      sload\n      swap1\n      0x0100\n      exp\n      swap1\n      div\n      0xffffffffffffffffffffffffffffffffffffffff\n      and\n        /* \"@openzeppelin/contracts/access/Ownable.sol\":2499:2524  address oldOwner = _owner */\n      swap1\n      pop\n        /* \"@openzeppelin/contracts/access/Ownable.sol\":2543:2551  newOwner */\n      dup2\n        /* \"@openzeppelin/contracts/access/Ownable.sol\":2534:2540  _owner */\n      0x00\n      dup1\n        /* \"@openzeppelin/contracts/access/Ownable.sol\":2534:2551  _owner = newOwner */\n      0x0100\n      exp\n      dup2\n      sload\n      dup2\n      0xffffffffffffffffffffffffffffffffffffffff\n      mul\n      not\n      and\n      swap1\n      dup4\n      0xffffffffffffffffffffffffffffffffffffffff\n      and\n      mul\n      or\n      swap1\n      sstore\n      pop\n        /* \"@openzeppelin/contracts/access/Ownable.sol\":2597:2605  newOwner */\n      dup2\n        /* \"@openzeppelin/contracts/access/Ownable.sol\":2566:2606  OwnershipTransferred(oldOwner, newOwner) */\n      0xffffffffffffffffffffffffffffffffffffffff\n      and\n        /* \"@openzeppelin/contracts/access/Ownable.sol\":2587:2595  oldOwner */\n      dup2\n        /* \"@openzeppelin/contracts/access/Ownable.sol\":2566:2606  OwnershipTransferred(oldOwner, newOwner) */\n      0xffffffffffffffffffffffffffffffffffffffff\n      and\n      0x8be0079c531659141344cd1fd0a4f28419497f9722a3daafe3b4186f6b6457e0\n      mload(0x40)\n      mload(0x40)\n      dup1\n      swap2\n      sub\n      swap1\n      log3\n        /* \"@openzeppelin/contracts/access/Ownable.sol\":2426:2613  function _transferOwnership(address newOwner) internal virtual {... */\n      pop\n      pop\n      jump\t// out\n        /* \"@openzeppelin/contracts/security/Pausable.sol\":2186:2301  function _pause() internal virtual whenNotPaused {... */\n    tag_295:\n        /* \"@openzeppelin/contracts/security/Pausable.sol\":1239:1258  _requireNotPaused() */\n      tag_332\n        /* \"@openzeppelin/contracts/security/Pausable.sol\":1239:1256  _requireNotPaused */\n      tag_164\n        /* \"@openzeppelin/contracts/security/Pausable.sol\":1239:1258  _requireNotPaused() */\n      jump\t// in\n    tag_332:\n        /* \"@openzeppelin/contracts/security/Pausable.sol\":2255:2259  true */\n      0x01\n        /* \"@openzeppelin/contracts/security/Pausable.sol\":2245:2252  _paused */\n      0x02\n      0x00\n        /* \"@openzeppelin/contracts/security/Pausable.sol\":2245:2259  _paused = true */\n      0x0100\n      exp\n      dup2\n      sload\n      dup2\n      0xff\n      mul\n      not\n      and\n      swap1\n      dup4\n      iszero\n      iszero\n      mul\n      or\n      swap1\n      sstore\n      pop\n        /* \"@openzeppelin/contracts/security/Pausable.sol\":2274:2294  Paused(_msgSender()) */\n      0x62e78cea01bee320cd4e420270b5ea74000d11b0c9f74754ebdbfc544b05a258\n        /* \"@openzeppelin/contracts/security/Pausable.sol\":2281:2293  _msgSender() */\n      tag_334\n        /* \"@openzeppelin/contracts/security/Pausable.sol\":2281:2291  _msgSender */\n      tag_314\n        /* \"@openzeppelin/contracts/security/Pausable.sol\":2281:2293  _msgSender() */\n      jump\t// in\n    tag_334:\n        /* \"@openzeppelin/contracts/security/Pausable.sol\":2274:2294  Paused(_msgSender()) */\n      mload(0x40)\n      tag_335\n      swap2\n      swap1\n      tag_69\n      jump\t// in\n    tag_335:\n      mload(0x40)\n      dup1\n      swap2\n      sub\n      swap1\n      log1\n        /* \"@openzeppelin/contracts/security/Pausable.sol\":2186:2301  function _pause() internal virtual whenNotPaused {... */\n      jump\t// out\n        /* \"@openzeppelin/contracts/utils/Context.sol\":640:736  function _msgSender() internal view virtual returns (address) {... */\n    tag_314:\n        /* \"@openzeppelin/contracts/utils/Context.sol\":693:700  address */\n      0x00\n        /* \"@openzeppelin/contracts/utils/Context.sol\":719:729  msg.sender */\n      caller\n        /* \"@openzeppelin/contracts/utils/Context.sol\":712:729  return msg.sender */\n      swap1\n      pop\n        /* \"@openzeppelin/contracts/utils/Context.sol\":640:736  function _msgSender() internal view virtual returns (address) {... */\n      swap1\n      jump\t// out\n        /* \"@openzeppelin/contracts/security/Pausable.sol\":1945:2051  function _requirePaused() internal view virtual {... */\n    tag_321:\n        /* \"@openzeppelin/contracts/security/Pausable.sol\":2011:2019  paused() */\n      tag_338\n        /* \"@openzeppelin/contracts/security/Pausable.sol\":2011:2017  paused */\n      tag_48\n        /* \"@openzeppelin/contracts/security/Pausable.sol\":2011:2019  paused() */\n      jump\t// in\n    tag_338:\n        /* \"@openzeppelin/contracts/security/Pausable.sol\":2003:2044  require(paused(), \"Pausable: not paused\") */\n      tag_339\n      jumpi\n      mload(0x40)\n      0x08c379a000000000000000000000000000000000000000000000000000000000\n      dup2\n      mstore\n      0x04\n      add\n      tag_340\n      swap1\n      tag_341\n      jump\t// in\n    tag_340:\n      mload(0x40)\n      dup1\n      swap2\n      sub\n      swap1\n      revert\n    tag_339:\n        /* \"@openzeppelin/contracts/security/Pausable.sol\":1945:2051  function _requirePaused() internal view virtual {... */\n      jump\t// out\n    tag_122:\n      pop\n      dup1\n      sload\n      0x00\n      dup3\n      sstore\n      swap1\n      0x00\n      mstore\n      keccak256(0x00, 0x20)\n      swap1\n      dup2\n      add\n      swap1\n      tag_343\n      swap2\n      swap1\n      tag_344\n      jump\t// in\n    tag_343:\n      pop\n      jump\t// out\n    tag_131:\n      mload(0x40)\n      dup1\n      0x60\n      add\n      0x40\n      mstore\n      dup1\n      0x00\n      dup2\n      mstore\n      0x20\n      add\n      0x60\n      dup2\n      mstore\n      0x20\n      add\n      0x60\n      dup2\n      mstore\n      pop\n      swap1\n      jump\t// out\n    tag_259:\n      dup3\n      dup1\n      sload\n      dup3\n      dup3\n      sstore\n      swap1\n      0x00\n      mstore\n      keccak256(0x00, 0x20)\n      swap1\n      dup2\n      add\n      swap3\n      dup3\n      iszero\n      tag_345\n      jumpi\n      swap2\n      0x20\n      mul\n      dup3\n      add\n    tag_346:\n      dup3\n      dup2\n      gt\n      iszero\n      tag_347\n      jumpi\n      dup3\n      mload\n      dup3\n      sstore\n      swap2\n      0x20\n      add\n      swap2\n      swap1\n      0x01\n      add\n      swap1\n      jump(tag_346)\n    tag_347:\n    tag_345:\n      pop\n      swap1\n      pop\n      tag_348\n      swap2\n      swap1\n      tag_344\n      jump\t// in\n    tag_348:\n      pop\n      swap1\n      jump\t// out\n    tag_344:\n    tag_349:\n      dup1\n      dup3\n      gt\n      iszero\n      tag_350\n      jumpi\n      0x00\n      dup2\n      0x00\n      swap1\n      sstore\n      pop\n      0x01\n      add\n      jump(tag_349)\n    tag_350:\n      pop\n      swap1\n      jump\t// out\n        /* \"#utility.yul\":24:646   */\n    tag_352:\n      0x00\n        /* \"#utility.yul\":145:225   */\n      tag_354\n        /* \"#utility.yul\":160:224   */\n      tag_355\n        /* \"#utility.yul\":217:223   */\n      dup5\n        /* \"#utility.yul\":160:224   */\n      tag_356\n      jump\t// in\n    tag_355:\n        /* \"#utility.yul\":145:225   */\n      tag_357\n      jump\t// in\n    tag_354:\n        /* \"#utility.yul\":136:225   */\n      swap1\n      pop\n        /* \"#utility.yul\":245:250   */\n      dup1\n        /* \"#utility.yul\":273:279   */\n      dup4\n        /* \"#utility.yul\":266:271   */\n      dup3\n        /* \"#utility.yul\":259:280   */\n      mstore\n        /* \"#utility.yul\":299:303   */\n      0x20\n        /* \"#utility.yul\":292:297   */\n      dup3\n        /* \"#utility.yul\":288:304   */\n      add\n        /* \"#utility.yul\":281:304   */\n      swap1\n      pop\n        /* \"#utility.yul\":324:330   */\n      dup3\n        /* \"#utility.yul\":374:377   */\n      dup6\n        /* \"#utility.yul\":366:370   */\n      0x20\n        /* \"#utility.yul\":358:364   */\n      dup7\n        /* \"#utility.yul\":354:371   */\n      mul\n        /* \"#utility.yul\":349:352   */\n      dup3\n        /* \"#utility.yul\":345:372   */\n      add\n        /* \"#utility.yul\":342:378   */\n      gt\n        /* \"#utility.yul\":339:341   */\n      iszero\n      tag_358\n      jumpi\n        /* \"#utility.yul\":391:392   */\n      0x00\n        /* \"#utility.yul\":388:389   */\n      dup1\n        /* \"#utility.yul\":381:393   */\n      revert\n        /* \"#utility.yul\":339:341   */\n    tag_358:\n        /* \"#utility.yul\":419:420   */\n      0x00\n        /* \"#utility.yul\":404:640   */\n    tag_359:\n        /* \"#utility.yul\":429:435   */\n      dup6\n        /* \"#utility.yul\":426:427   */\n      dup2\n        /* \"#utility.yul\":423:436   */\n      lt\n        /* \"#utility.yul\":404:640   */\n      iszero\n      tag_361\n      jumpi\n        /* \"#utility.yul\":496:499   */\n      dup2\n        /* \"#utility.yul\":524:561   */\n      tag_362\n        /* \"#utility.yul\":557:560   */\n      dup9\n        /* \"#utility.yul\":545:555   */\n      dup3\n        /* \"#utility.yul\":524:561   */\n      tag_363\n      jump\t// in\n    tag_362:\n        /* \"#utility.yul\":519:522   */\n      dup5\n        /* \"#utility.yul\":512:562   */\n      mstore\n        /* \"#utility.yul\":591:595   */\n      0x20\n        /* \"#utility.yul\":586:589   */\n      dup5\n        /* \"#utility.yul\":582:596   */\n      add\n        /* \"#utility.yul\":575:596   */\n      swap4\n      pop\n        /* \"#utility.yul\":625:629   */\n      0x20\n        /* \"#utility.yul\":620:623   */\n      dup4\n        /* \"#utility.yul\":616:630   */\n      add\n        /* \"#utility.yul\":609:630   */\n      swap3\n      pop\n        /* \"#utility.yul\":464:640   */\n      pop\n        /* \"#utility.yul\":451:452   */\n      0x01\n        /* \"#utility.yul\":448:449   */\n      dup2\n        /* \"#utility.yul\":444:453   */\n      add\n        /* \"#utility.yul\":439:453   */\n      swap1\n      pop\n        /* \"#utility.yul\":404:640   */\n      jump(tag_359)\n    tag_361:\n        /* \"#utility.yul\":408:422   */\n      pop\n        /* \"#utility.yul\":126:646   */\n      pop\n      pop\n      swap4\n      swap3\n      pop\n      pop\n      pop\n      jump\t// out\n        /* \"#utility.yul\":652:1005   */\n    tag_364:\n      0x00\n        /* \"#utility.yul\":766:831   */\n      tag_366\n        /* \"#utility.yul\":781:830   */\n      tag_367\n        /* \"#utility.yul\":823:829   */\n      dup5\n        /* \"#utility.yul\":781:830   */\n      tag_368\n      jump\t// in\n    tag_367:\n        /* \"#utility.yul\":766:831   */\n      tag_357\n      jump\t// in\n    tag_366:\n        /* \"#utility.yul\":757:831   */\n      swap1\n      pop\n        /* \"#utility.yul\":854:860   */\n      dup3\n        /* \"#utility.yul\":847:852   */\n      dup2\n        /* \"#utility.yul\":840:861   */\n      mstore\n        /* \"#utility.yul\":892:896   */\n      0x20\n        /* \"#utility.yul\":885:890   */\n      dup2\n        /* \"#utility.yul\":881:897   */\n      add\n        /* \"#utility.yul\":930:933   */\n      dup5\n        /* \"#utility.yul\":921:927   */\n      dup5\n        /* \"#utility.yul\":916:919   */\n      dup5\n        /* \"#utility.yul\":912:928   */\n      add\n        /* \"#utility.yul\":909:934   */\n      gt\n        /* \"#utility.yul\":906:908   */\n      iszero\n      tag_369\n      jumpi\n        /* \"#utility.yul\":947:948   */\n      0x00\n        /* \"#utility.yul\":944:945   */\n      dup1\n        /* \"#utility.yul\":937:949   */\n      revert\n        /* \"#utility.yul\":906:908   */\n    tag_369:\n        /* \"#utility.yul\":960:999   */\n      tag_370\n        /* \"#utility.yul\":992:998   */\n      dup5\n        /* \"#utility.yul\":987:990   */\n      dup3\n        /* \"#utility.yul\":982:985   */\n      dup6\n        /* \"#utility.yul\":960:999   */\n      tag_371\n      jump\t// in\n    tag_370:\n        /* \"#utility.yul\":747:1005   */\n      pop\n      swap4\n      swap3\n      pop\n      pop\n      pop\n      jump\t// out\n        /* \"#utility.yul\":1011:1150   */\n    tag_372:\n      0x00\n        /* \"#utility.yul\":1095:1101   */\n      dup2\n        /* \"#utility.yul\":1082:1102   */\n      calldataload\n        /* \"#utility.yul\":1073:1102   */\n      swap1\n      pop\n        /* \"#utility.yul\":1111:1144   */\n      tag_374\n        /* \"#utility.yul\":1138:1143   */\n      dup2\n        /* \"#utility.yul\":1111:1144   */\n      tag_375\n      jump\t// in\n    tag_374:\n        /* \"#utility.yul\":1063:1150   */\n      swap3\n      swap2\n      pop\n      pop\n      jump\t// out\n        /* \"#utility.yul\":1156:1299   */\n    tag_376:\n      0x00\n        /* \"#utility.yul\":1244:1250   */\n      dup2\n        /* \"#utility.yul\":1238:1251   */\n      mload\n        /* \"#utility.yul\":1229:1251   */\n      swap1\n      pop\n        /* \"#utility.yul\":1260:1293   */\n      tag_378\n        /* \"#utility.yul\":1287:1292   */\n      dup2\n        /* \"#utility.yul\":1260:1293   */\n      tag_375\n      jump\t// in\n    tag_378:\n        /* \"#utility.yul\":1219:1299   */\n      swap3\n      swap2\n      pop\n      pop\n      jump\t// out\n        /* \"#utility.yul\":1322:1625   */\n    tag_379:\n      0x00\n        /* \"#utility.yul\":1442:1445   */\n      dup3\n        /* \"#utility.yul\":1435:1439   */\n      0x1f\n        /* \"#utility.yul\":1427:1433   */\n      dup4\n        /* \"#utility.yul\":1423:1440   */\n      add\n        /* \"#utility.yul\":1419:1446   */\n      slt\n        /* \"#utility.yul\":1409:1411   */\n      tag_381\n      jumpi\n        /* \"#utility.yul\":1460:1461   */\n      0x00\n        /* \"#utility.yul\":1457:1458   */\n      dup1\n        /* \"#utility.yul\":1450:1462   */\n      revert\n        /* \"#utility.yul\":1409:1411   */\n    tag_381:\n        /* \"#utility.yul\":1500:1506   */\n      dup2\n        /* \"#utility.yul\":1487:1507   */\n      calldataload\n        /* \"#utility.yul\":1525:1619   */\n      tag_382\n        /* \"#utility.yul\":1615:1618   */\n      dup5\n        /* \"#utility.yul\":1607:1613   */\n      dup3\n        /* \"#utility.yul\":1600:1604   */\n      0x20\n        /* \"#utility.yul\":1592:1598   */\n      dup7\n        /* \"#utility.yul\":1588:1605   */\n      add\n        /* \"#utility.yul\":1525:1619   */\n      tag_352\n      jump\t// in\n    tag_382:\n        /* \"#utility.yul\":1516:1619   */\n      swap2\n      pop\n        /* \"#utility.yul\":1399:1625   */\n      pop\n      swap3\n      swap2\n      pop\n      pop\n      jump\t// out\n        /* \"#utility.yul\":1645:1933   */\n    tag_383:\n      0x00\n        /* \"#utility.yul\":1761:1764   */\n      dup3\n        /* \"#utility.yul\":1754:1758   */\n      0x1f\n        /* \"#utility.yul\":1746:1752   */\n      dup4\n        /* \"#utility.yul\":1742:1759   */\n      add\n        /* \"#utility.yul\":1738:1765   */\n      slt\n        /* \"#utility.yul\":1728:1730   */\n      tag_385\n      jumpi\n        /* \"#utility.yul\":1779:1780   */\n      0x00\n        /* \"#utility.yul\":1776:1777   */\n      dup1\n        /* \"#utility.yul\":1769:1781   */\n      revert\n        /* \"#utility.yul\":1728:1730   */\n    tag_385:\n        /* \"#utility.yul\":1812:1818   */\n      dup2\n        /* \"#utility.yul\":1806:1819   */\n      mload\n        /* \"#utility.yul\":1837:1927   */\n      tag_386\n        /* \"#utility.yul\":1923:1926   */\n      dup5\n        /* \"#utility.yul\":1915:1921   */\n      dup3\n        /* \"#utility.yul\":1908:1912   */\n      0x20\n        /* \"#utility.yul\":1900:1906   */\n      dup7\n        /* \"#utility.yul\":1896:1913   */\n      add\n        /* \"#utility.yul\":1837:1927   */\n      tag_364\n      jump\t// in\n    tag_386:\n        /* \"#utility.yul\":1828:1927   */\n      swap2\n      pop\n        /* \"#utility.yul\":1718:1933   */\n      pop\n      swap3\n      swap2\n      pop\n      pop\n      jump\t// out\n        /* \"#utility.yul\":1939:2078   */\n    tag_363:\n      0x00\n        /* \"#utility.yul\":2023:2029   */\n      dup2\n        /* \"#utility.yul\":2010:2030   */\n      calldataload\n        /* \"#utility.yul\":2001:2030   */\n      swap1\n      pop\n        /* \"#utility.yul\":2039:2072   */\n      tag_388\n        /* \"#utility.yul\":2066:2071   */\n      dup2\n        /* \"#utility.yul\":2039:2072   */\n      tag_389\n      jump\t// in\n    tag_388:\n        /* \"#utility.yul\":1991:2078   */\n      swap3\n      swap2\n      pop\n      pop\n      jump\t// out\n        /* \"#utility.yul\":2084:2346   */\n    tag_112:\n      0x00\n        /* \"#utility.yul\":2192:2194   */\n      0x20\n        /* \"#utility.yul\":2180:2189   */\n      dup3\n        /* \"#utility.yul\":2171:2178   */\n      dup5\n        /* \"#utility.yul\":2167:2190   */\n      sub\n        /* \"#utility.yul\":2163:2195   */\n      slt\n        /* \"#utility.yul\":2160:2162   */\n      iszero\n      tag_391\n      jumpi\n        /* \"#utility.yul\":2208:2209   */\n      0x00\n        /* \"#utility.yul\":2205:2206   */\n      dup1\n        /* \"#utility.yul\":2198:2210   */\n      revert\n        /* \"#utility.yul\":2160:2162   */\n    tag_391:\n        /* \"#utility.yul\":2251:2252   */\n      0x00\n        /* \"#utility.yul\":2276:2329   */\n      tag_392\n        /* \"#utility.yul\":2321:2328   */\n      dup5\n        /* \"#utility.yul\":2312:2318   */\n      dup3\n        /* \"#utility.yul\":2301:2310   */\n      dup6\n        /* \"#utility.yul\":2297:2319   */\n      add\n        /* \"#utility.yul\":2276:2329   */\n      tag_372\n      jump\t// in\n    tag_392:\n        /* \"#utility.yul\":2266:2329   */\n      swap2\n      pop\n        /* \"#utility.yul\":2222:2339   */\n      pop\n        /* \"#utility.yul\":2150:2346   */\n      swap3\n      swap2\n      pop\n      pop\n      jump\t// out\n        /* \"#utility.yul\":2352:2636   */\n    tag_194:\n      0x00\n        /* \"#utility.yul\":2471:2473   */\n      0x20\n        /* \"#utility.yul\":2459:2468   */\n      dup3\n        /* \"#utility.yul\":2450:2457   */\n      dup5\n        /* \"#utility.yul\":2446:2469   */\n      sub\n        /* \"#utility.yul\":2442:2474   */\n      slt\n        /* \"#utility.yul\":2439:2441   */\n      iszero\n      tag_394\n      jumpi\n        /* \"#utility.yul\":2487:2488   */\n      0x00\n        /* \"#utility.yul\":2484:2485   */\n      dup1\n        /* \"#utility.yul\":2477:2489   */\n      revert\n        /* \"#utility.yul\":2439:2441   */\n    tag_394:\n        /* \"#utility.yul\":2530:2531   */\n      0x00\n        /* \"#utility.yul\":2555:2619   */\n      tag_395\n        /* \"#utility.yul\":2611:2618   */\n      dup5\n        /* \"#utility.yul\":2602:2608   */\n      dup3\n        /* \"#utility.yul\":2591:2600   */\n      dup6\n        /* \"#utility.yul\":2587:2609   */\n      add\n        /* \"#utility.yul\":2555:2619   */\n      tag_376\n      jump\t// in\n    tag_395:\n        /* \"#utility.yul\":2545:2619   */\n      swap2\n      pop\n        /* \"#utility.yul\":2501:2629   */\n      pop\n        /* \"#utility.yul\":2429:2636   */\n      swap3\n      swap2\n      pop\n      pop\n      jump\t// out\n        /* \"#utility.yul\":2642:3049   */\n    tag_54:\n      0x00\n      dup1\n        /* \"#utility.yul\":2767:2769   */\n      0x40\n        /* \"#utility.yul\":2755:2764   */\n      dup4\n        /* \"#utility.yul\":2746:2753   */\n      dup6\n        /* \"#utility.yul\":2742:2765   */\n      sub\n        /* \"#utility.yul\":2738:2770   */\n      slt\n        /* \"#utility.yul\":2735:2737   */\n      iszero\n      tag_397\n      jumpi\n        /* \"#utility.yul\":2783:2784   */\n      0x00\n        /* \"#utility.yul\":2780:2781   */\n      dup1\n        /* \"#utility.yul\":2773:2785   */\n      revert\n        /* \"#utility.yul\":2735:2737   */\n    tag_397:\n        /* \"#utility.yul\":2826:2827   */\n      0x00\n        /* \"#utility.yul\":2851:2904   */\n      tag_398\n        /* \"#utility.yul\":2896:2903   */\n      dup6\n        /* \"#utility.yul\":2887:2893   */\n      dup3\n        /* \"#utility.yul\":2876:2885   */\n      dup7\n        /* \"#utility.yul\":2872:2894   */\n      add\n        /* \"#utility.yul\":2851:2904   */\n      tag_372\n      jump\t// in\n    tag_398:\n        /* \"#utility.yul\":2841:2904   */\n      swap3\n      pop\n        /* \"#utility.yul\":2797:2914   */\n      pop\n        /* \"#utility.yul\":2953:2955   */\n      0x20\n        /* \"#utility.yul\":2979:3032   */\n      tag_399\n        /* \"#utility.yul\":3024:3031   */\n      dup6\n        /* \"#utility.yul\":3015:3021   */\n      dup3\n        /* \"#utility.yul\":3004:3013   */\n      dup7\n        /* \"#utility.yul\":3000:3022   */\n      add\n        /* \"#utility.yul\":2979:3032   */\n      tag_372\n      jump\t// in\n    tag_399:\n        /* \"#utility.yul\":2969:3032   */\n      swap2\n      pop\n        /* \"#utility.yul\":2924:3042   */\n      pop\n        /* \"#utility.yul\":2725:3049   */\n      swap3\n      pop\n      swap3\n      swap1\n      pop\n      jump\t// out\n        /* \"#utility.yul\":3055:4039   */\n    tag_44:\n      0x00\n      dup1\n      0x00\n      dup1\n        /* \"#utility.yul\":3264:3267   */\n      0x80\n        /* \"#utility.yul\":3252:3261   */\n      dup6\n        /* \"#utility.yul\":3243:3250   */\n      dup8\n        /* \"#utility.yul\":3239:3262   */\n      sub\n        /* \"#utility.yul\":3235:3268   */\n      slt\n        /* \"#utility.yul\":3232:3234   */\n      iszero\n      tag_401\n      jumpi\n        /* \"#utility.yul\":3281:3282   */\n      0x00\n        /* \"#utility.yul\":3278:3279   */\n      dup1\n        /* \"#utility.yul\":3271:3283   */\n      revert\n        /* \"#utility.yul\":3232:3234   */\n    tag_401:\n        /* \"#utility.yul\":3324:3325   */\n      0x00\n        /* \"#utility.yul\":3349:3402   */\n      tag_402\n        /* \"#utility.yul\":3394:3401   */\n      dup8\n        /* \"#utility.yul\":3385:3391   */\n      dup3\n        /* \"#utility.yul\":3374:3383   */\n      dup9\n        /* \"#utility.yul\":3370:3392   */\n      add\n        /* \"#utility.yul\":3349:3402   */\n      tag_372\n      jump\t// in\n    tag_402:\n        /* \"#utility.yul\":3339:3402   */\n      swap5\n      pop\n        /* \"#utility.yul\":3295:3412   */\n      pop\n        /* \"#utility.yul\":3479:3481   */\n      0x20\n        /* \"#utility.yul\":3468:3477   */\n      dup6\n        /* \"#utility.yul\":3464:3482   */\n      add\n        /* \"#utility.yul\":3451:3483   */\n      calldataload\n        /* \"#utility.yul\":3510:3528   */\n      0xffffffffffffffff\n        /* \"#utility.yul\":3502:3508   */\n      dup2\n        /* \"#utility.yul\":3499:3529   */\n      gt\n        /* \"#utility.yul\":3496:3498   */\n      iszero\n      tag_403\n      jumpi\n        /* \"#utility.yul\":3542:3543   */\n      0x00\n        /* \"#utility.yul\":3539:3540   */\n      dup1\n        /* \"#utility.yul\":3532:3544   */\n      revert\n        /* \"#utility.yul\":3496:3498   */\n    tag_403:\n        /* \"#utility.yul\":3570:3648   */\n      tag_404\n        /* \"#utility.yul\":3640:3647   */\n      dup8\n        /* \"#utility.yul\":3631:3637   */\n      dup3\n        /* \"#utility.yul\":3620:3629   */\n      dup9\n        /* \"#utility.yul\":3616:3638   */\n      add\n        /* \"#utility.yul\":3570:3648   */\n      tag_379\n      jump\t// in\n    tag_404:\n        /* \"#utility.yul\":3560:3648   */\n      swap4\n      pop\n        /* \"#utility.yul\":3422:3658   */\n      pop\n        /* \"#utility.yul\":3725:3727   */\n      0x40\n        /* \"#utility.yul\":3714:3723   */\n      dup6\n        /* \"#utility.yul\":3710:3728   */\n      add\n        /* \"#utility.yul\":3697:3729   */\n      calldataload\n        /* \"#utility.yul\":3756:3774   */\n      0xffffffffffffffff\n        /* \"#utility.yul\":3748:3754   */\n      dup2\n        /* \"#utility.yul\":3745:3775   */\n      gt\n        /* \"#utility.yul\":3742:3744   */\n      iszero\n      tag_405\n      jumpi\n        /* \"#utility.yul\":3788:3789   */\n      0x00\n        /* \"#utility.yul\":3785:3786   */\n      dup1\n        /* \"#utility.yul\":3778:3790   */\n      revert\n        /* \"#utility.yul\":3742:3744   */\n    tag_405:\n        /* \"#utility.yul\":3816:3894   */\n      tag_406\n        /* \"#utility.yul\":3886:3893   */\n      dup8\n        /* \"#utility.yul\":3877:3883   */\n      dup3\n        /* \"#utility.yul\":3866:3875   */\n      dup9\n        /* \"#utility.yul\":3862:3884   */\n      add\n        /* \"#utility.yul\":3816:3894   */\n      tag_379\n      jump\t// in\n    tag_406:\n        /* \"#utility.yul\":3806:3894   */\n      swap3\n      pop\n        /* \"#utility.yul\":3668:3904   */\n      pop\n        /* \"#utility.yul\":3943:3945   */\n      0x60\n        /* \"#utility.yul\":3969:4022   */\n      tag_407\n        /* \"#utility.yul\":4014:4021   */\n      dup8\n        /* \"#utility.yul\":4005:4011   */\n      dup3\n        /* \"#utility.yul\":3994:4003   */\n      dup9\n        /* \"#utility.yul\":3990:4012   */\n      add\n        /* \"#utility.yul\":3969:4022   */\n      tag_363\n      jump\t// in\n    tag_407:\n        /* \"#utility.yul\":3959:4022   */\n      swap2\n      pop\n        /* \"#utility.yul\":3914:4032   */\n      pop\n        /* \"#utility.yul\":3222:4039   */\n      swap3\n      swap6\n      swap2\n      swap5\n      pop\n      swap3\n      pop\n      jump\t// out\n        /* \"#utility.yul\":4045:4435   */\n    tag_143:\n      0x00\n        /* \"#utility.yul\":4174:4176   */\n      0x20\n        /* \"#utility.yul\":4162:4171   */\n      dup3\n        /* \"#utility.yul\":4153:4160   */\n      dup5\n        /* \"#utility.yul\":4149:4172   */\n      sub\n        /* \"#utility.yul\":4145:4177   */\n      slt\n        /* \"#utility.yul\":4142:4144   */\n      iszero\n      tag_409\n      jumpi\n        /* \"#utility.yul\":4190:4191   */\n      0x00\n        /* \"#utility.yul\":4187:4188   */\n      dup1\n        /* \"#utility.yul\":4180:4192   */\n      revert\n        /* \"#utility.yul\":4142:4144   */\n    tag_409:\n        /* \"#utility.yul\":4254:4255   */\n      0x00\n        /* \"#utility.yul\":4243:4252   */\n      dup3\n        /* \"#utility.yul\":4239:4256   */\n      add\n        /* \"#utility.yul\":4233:4257   */\n      mload\n        /* \"#utility.yul\":4284:4302   */\n      0xffffffffffffffff\n        /* \"#utility.yul\":4276:4282   */\n      dup2\n        /* \"#utility.yul\":4273:4303   */\n      gt\n        /* \"#utility.yul\":4270:4272   */\n      iszero\n      tag_410\n      jumpi\n        /* \"#utility.yul\":4316:4317   */\n      0x00\n        /* \"#utility.yul\":4313:4314   */\n      dup1\n        /* \"#utility.yul\":4306:4318   */\n      revert\n        /* \"#utility.yul\":4270:4272   */\n    tag_410:\n        /* \"#utility.yul\":4344:4418   */\n      tag_411\n        /* \"#utility.yul\":4410:4417   */\n      dup5\n        /* \"#utility.yul\":4401:4407   */\n      dup3\n        /* \"#utility.yul\":4390:4399   */\n      dup6\n        /* \"#utility.yul\":4386:4408   */\n      add\n        /* \"#utility.yul\":4344:4418   */\n      tag_383\n      jump\t// in\n    tag_411:\n        /* \"#utility.yul\":4334:4418   */\n      swap2\n      pop\n        /* \"#utility.yul\":4204:4428   */\n      pop\n        /* \"#utility.yul\":4132:4435   */\n      swap3\n      swap2\n      pop\n      pop\n      jump\t// out\n        /* \"#utility.yul\":4441:4703   */\n    tag_28:\n      0x00\n        /* \"#utility.yul\":4549:4551   */\n      0x20\n        /* \"#utility.yul\":4537:4546   */\n      dup3\n        /* \"#utility.yul\":4528:4535   */\n      dup5\n        /* \"#utility.yul\":4524:4547   */\n      sub\n        /* \"#utility.yul\":4520:4552   */\n      slt\n        /* \"#utility.yul\":4517:4519   */\n      iszero\n      tag_413\n      jumpi\n        /* \"#utility.yul\":4565:4566   */\n      0x00\n        /* \"#utility.yul\":4562:4563   */\n      dup1\n        /* \"#utility.yul\":4555:4567   */\n      revert\n        /* \"#utility.yul\":4517:4519   */\n    tag_413:\n        /* \"#utility.yul\":4608:4609   */\n      0x00\n        /* \"#utility.yul\":4633:4686   */\n      tag_414\n        /* \"#utility.yul\":4678:4685   */\n      dup5\n        /* \"#utility.yul\":4669:4675   */\n      dup3\n        /* \"#utility.yul\":4658:4667   */\n      dup6\n        /* \"#utility.yul\":4654:4676   */\n      add\n        /* \"#utility.yul\":4633:4686   */\n      tag_363\n      jump\t// in\n    tag_414:\n        /* \"#utility.yul\":4623:4686   */\n      swap2\n      pop\n        /* \"#utility.yul\":4579:4696   */\n      pop\n        /* \"#utility.yul\":4507:4703   */\n      swap3\n      swap2\n      pop\n      pop\n      jump\t// out\n        /* \"#utility.yul\":4709:5116   */\n    tag_62:\n      0x00\n      dup1\n        /* \"#utility.yul\":4834:4836   */\n      0x40\n        /* \"#utility.yul\":4822:4831   */\n      dup4\n        /* \"#utility.yul\":4813:4820   */\n      dup6\n        /* \"#utility.yul\":4809:4832   */\n      sub\n        /* \"#utility.yul\":4805:4837   */\n      slt\n        /* \"#utility.yul\":4802:4804   */\n      iszero\n      tag_416\n      jumpi\n        /* \"#utility.yul\":4850:4851   */\n      0x00\n        /* \"#utility.yul\":4847:4848   */\n      dup1\n        /* \"#utility.yul\":4840:4852   */\n      revert\n        /* \"#utility.yul\":4802:4804   */\n    tag_416:\n        /* \"#utility.yul\":4893:4894   */\n      0x00\n        /* \"#utility.yul\":4918:4971   */\n      tag_417\n        /* \"#utility.yul\":4963:4970   */\n      dup6\n        /* \"#utility.yul\":4954:4960   */\n      dup3\n        /* \"#utility.yul\":4943:4952   */\n      dup7\n        /* \"#utility.yul\":4939:4961   */\n      add\n        /* \"#utility.yul\":4918:4971   */\n      tag_363\n      jump\t// in\n    tag_417:\n        /* \"#utility.yul\":4908:4971   */\n      swap3\n      pop\n        /* \"#utility.yul\":4864:4981   */\n      pop\n        /* \"#utility.yul\":5020:5022   */\n      0x20\n        /* \"#utility.yul\":5046:5099   */\n      tag_418\n        /* \"#utility.yul\":5091:5098   */\n      dup6\n        /* \"#utility.yul\":5082:5088   */\n      dup3\n        /* \"#utility.yul\":5071:5080   */\n      dup7\n        /* \"#utility.yul\":5067:5089   */\n      add\n        /* \"#utility.yul\":5046:5099   */\n      tag_363\n      jump\t// in\n    tag_418:\n        /* \"#utility.yul\":5036:5099   */\n      swap2\n      pop\n        /* \"#utility.yul\":4991:5109   */\n      pop\n        /* \"#utility.yul\":4792:5116   */\n      swap3\n      pop\n      swap3\n      swap1\n      pop\n      jump\t// out\n        /* \"#utility.yul\":5122:5390   */\n    tag_419:\n      0x00\n        /* \"#utility.yul\":5282:5384   */\n      tag_421\n        /* \"#utility.yul\":5380:5383   */\n      dup4\n        /* \"#utility.yul\":5372:5378   */\n      dup4\n        /* \"#utility.yul\":5282:5384   */\n      tag_422\n      jump\t// in\n    tag_421:\n        /* \"#utility.yul\":5268:5384   */\n      swap1\n      pop\n        /* \"#utility.yul\":5258:5390   */\n      swap3\n      swap2\n      pop\n      pop\n      jump\t// out\n        /* \"#utility.yul\":5396:5575   */\n    tag_423:\n      0x00\n        /* \"#utility.yul\":5486:5532   */\n      tag_425\n        /* \"#utility.yul\":5528:5531   */\n      dup4\n        /* \"#utility.yul\":5520:5526   */\n      dup4\n        /* \"#utility.yul\":5486:5532   */\n      tag_426\n      jump\t// in\n    tag_425:\n        /* \"#utility.yul\":5564:5568   */\n      0x20\n        /* \"#utility.yul\":5559:5562   */\n      dup4\n        /* \"#utility.yul\":5555:5569   */\n      add\n        /* \"#utility.yul\":5541:5569   */\n      swap1\n      pop\n        /* \"#utility.yul\":5476:5575   */\n      swap3\n      swap2\n      pop\n      pop\n      jump\t// out\n        /* \"#utility.yul\":5581:5699   */\n    tag_427:\n        /* \"#utility.yul\":5668:5692   */\n      tag_429\n        /* \"#utility.yul\":5686:5691   */\n      dup2\n        /* \"#utility.yul\":5668:5692   */\n      tag_430\n      jump\t// in\n    tag_429:\n        /* \"#utility.yul\":5663:5666   */\n      dup3\n        /* \"#utility.yul\":5656:5693   */\n      mstore\n        /* \"#utility.yul\":5646:5699   */\n      pop\n      pop\n      jump\t// out\n        /* \"#utility.yul\":5797:6932   */\n    tag_431:\n      0x00\n        /* \"#utility.yul\":6001:6083   */\n      tag_433\n        /* \"#utility.yul\":6077:6082   */\n      dup3\n        /* \"#utility.yul\":6001:6083   */\n      tag_434\n      jump\t// in\n    tag_433:\n        /* \"#utility.yul\":6099:6213   */\n      tag_435\n        /* \"#utility.yul\":6206:6212   */\n      dup2\n        /* \"#utility.yul\":6201:6204   */\n      dup6\n        /* \"#utility.yul\":6099:6213   */\n      tag_436\n      jump\t// in\n    tag_435:\n        /* \"#utility.yul\":6092:6213   */\n      swap4\n      pop\n        /* \"#utility.yul\":6239:6242   */\n      dup4\n        /* \"#utility.yul\":6284:6288   */\n      0x20\n        /* \"#utility.yul\":6276:6282   */\n      dup3\n        /* \"#utility.yul\":6272:6289   */\n      mul\n        /* \"#utility.yul\":6267:6270   */\n      dup6\n        /* \"#utility.yul\":6263:6290   */\n      add\n        /* \"#utility.yul\":6314:6398   */\n      tag_437\n        /* \"#utility.yul\":6392:6397   */\n      dup6\n        /* \"#utility.yul\":6314:6398   */\n      tag_438\n      jump\t// in\n    tag_437:\n        /* \"#utility.yul\":6421:6428   */\n      dup1\n        /* \"#utility.yul\":6452:6453   */\n      0x00\n        /* \"#utility.yul\":6437:6887   */\n    tag_439:\n        /* \"#utility.yul\":6462:6468   */\n      dup6\n        /* \"#utility.yul\":6459:6460   */\n      dup2\n        /* \"#utility.yul\":6456:6469   */\n      lt\n        /* \"#utility.yul\":6437:6887   */\n      iszero\n      tag_441\n      jumpi\n        /* \"#utility.yul\":6533:6542   */\n      dup5\n        /* \"#utility.yul\":6527:6531   */\n      dup5\n        /* \"#utility.yul\":6523:6543   */\n      sub\n        /* \"#utility.yul\":6518:6521   */\n      dup10\n        /* \"#utility.yul\":6511:6544   */\n      mstore\n        /* \"#utility.yul\":6584:6590   */\n      dup2\n        /* \"#utility.yul\":6578:6591   */\n      mload\n        /* \"#utility.yul\":6612:6732   */\n      tag_442\n        /* \"#utility.yul\":6727:6731   */\n      dup6\n        /* \"#utility.yul\":6712:6725   */\n      dup3\n        /* \"#utility.yul\":6612:6732   */\n      tag_419\n      jump\t// in\n    tag_442:\n        /* \"#utility.yul\":6604:6732   */\n      swap5\n      pop\n        /* \"#utility.yul\":6755:6843   */\n      tag_443\n        /* \"#utility.yul\":6836:6842   */\n      dup4\n        /* \"#utility.yul\":6755:6843   */\n      tag_444\n      jump\t// in\n    tag_443:\n        /* \"#utility.yul\":6745:6843   */\n      swap3\n      pop\n        /* \"#utility.yul\":6872:6876   */\n      0x20\n        /* \"#utility.yul\":6867:6870   */\n      dup11\n        /* \"#utility.yul\":6863:6877   */\n      add\n        /* \"#utility.yul\":6856:6877   */\n      swap10\n      pop\n        /* \"#utility.yul\":6497:6887   */\n      pop\n        /* \"#utility.yul\":6484:6485   */\n      0x01\n        /* \"#utility.yul\":6481:6482   */\n      dup2\n        /* \"#utility.yul\":6477:6486   */\n      add\n        /* \"#utility.yul\":6472:6486   */\n      swap1\n      pop\n        /* \"#utility.yul\":6437:6887   */\n      jump(tag_439)\n    tag_441:\n        /* \"#utility.yul\":6441:6455   */\n      pop\n        /* \"#utility.yul\":6903:6907   */\n      dup3\n        /* \"#utility.yul\":6896:6907   */\n      swap8\n      pop\n        /* \"#utility.yul\":6923:6926   */\n      dup8\n        /* \"#utility.yul\":6916:6926   */\n      swap6\n      pop\n        /* \"#utility.yul\":5977:6932   */\n      pop\n      pop\n      pop\n      pop\n      pop\n      swap3\n      swap2\n      pop\n      pop\n      jump\t// out\n        /* \"#utility.yul\":6968:7680   */\n    tag_445:\n      0x00\n        /* \"#utility.yul\":7106:7160   */\n      tag_447\n        /* \"#utility.yul\":7154:7159   */\n      dup3\n        /* \"#utility.yul\":7106:7160   */\n      tag_448\n      jump\t// in\n    tag_447:\n        /* \"#utility.yul\":7176:7252   */\n      tag_449\n        /* \"#utility.yul\":7245:7251   */\n      dup2\n        /* \"#utility.yul\":7240:7243   */\n      dup6\n        /* \"#utility.yul\":7176:7252   */\n      tag_450\n      jump\t// in\n    tag_449:\n        /* \"#utility.yul\":7169:7252   */\n      swap4\n      pop\n        /* \"#utility.yul\":7276:7332   */\n      tag_451\n        /* \"#utility.yul\":7326:7331   */\n      dup4\n        /* \"#utility.yul\":7276:7332   */\n      tag_452\n      jump\t// in\n    tag_451:\n        /* \"#utility.yul\":7355:7362   */\n      dup1\n        /* \"#utility.yul\":7386:7387   */\n      0x00\n        /* \"#utility.yul\":7371:7655   */\n    tag_453:\n        /* \"#utility.yul\":7396:7402   */\n      dup4\n        /* \"#utility.yul\":7393:7394   */\n      dup2\n        /* \"#utility.yul\":7390:7403   */\n      lt\n        /* \"#utility.yul\":7371:7655   */\n      iszero\n      tag_455\n      jumpi\n        /* \"#utility.yul\":7472:7478   */\n      dup2\n        /* \"#utility.yul\":7466:7479   */\n      mload\n        /* \"#utility.yul\":7499:7562   */\n      tag_456\n        /* \"#utility.yul\":7558:7561   */\n      dup9\n        /* \"#utility.yul\":7543:7556   */\n      dup3\n        /* \"#utility.yul\":7499:7562   */\n      tag_423\n      jump\t// in\n    tag_456:\n        /* \"#utility.yul\":7492:7562   */\n      swap8\n      pop\n        /* \"#utility.yul\":7585:7645   */\n      tag_457\n        /* \"#utility.yul\":7638:7644   */\n      dup4\n        /* \"#utility.yul\":7585:7645   */\n      tag_458\n      jump\t// in\n    tag_457:\n        /* \"#utility.yul\":7575:7645   */\n      swap3\n      pop\n        /* \"#utility.yul\":7431:7655   */\n      pop\n        /* \"#utility.yul\":7418:7419   */\n      0x01\n        /* \"#utility.yul\":7415:7416   */\n      dup2\n        /* \"#utility.yul\":7411:7420   */\n      add\n        /* \"#utility.yul\":7406:7420   */\n      swap1\n      pop\n        /* \"#utility.yul\":7371:7655   */\n      jump(tag_453)\n    tag_455:\n        /* \"#utility.yul\":7375:7389   */\n      pop\n        /* \"#utility.yul\":7671:7674   */\n      dup6\n        /* \"#utility.yul\":7664:7674   */\n      swap4\n      pop\n        /* \"#utility.yul\":7082:7680   */\n      pop\n      pop\n      pop\n      swap3\n      swap2\n      pop\n      pop\n      jump\t// out\n        /* \"#utility.yul\":7716:8448   */\n    tag_459:\n      0x00\n        /* \"#utility.yul\":7864:7918   */\n      tag_461\n        /* \"#utility.yul\":7912:7917   */\n      dup3\n        /* \"#utility.yul\":7864:7918   */\n      tag_448\n      jump\t// in\n    tag_461:\n        /* \"#utility.yul\":7934:8020   */\n      tag_462\n        /* \"#utility.yul\":8013:8019   */\n      dup2\n        /* \"#utility.yul\":8008:8011   */\n      dup6\n        /* \"#utility.yul\":7934:8020   */\n      tag_463\n      jump\t// in\n    tag_462:\n        /* \"#utility.yul\":7927:8020   */\n      swap4\n      pop\n        /* \"#utility.yul\":8044:8100   */\n      tag_464\n        /* \"#utility.yul\":8094:8099   */\n      dup4\n        /* \"#utility.yul\":8044:8100   */\n      tag_452\n      jump\t// in\n    tag_464:\n        /* \"#utility.yul\":8123:8130   */\n      dup1\n        /* \"#utility.yul\":8154:8155   */\n      0x00\n        /* \"#utility.yul\":8139:8423   */\n    tag_465:\n        /* \"#utility.yul\":8164:8170   */\n      dup4\n        /* \"#utility.yul\":8161:8162   */\n      dup2\n        /* \"#utility.yul\":8158:8171   */\n      lt\n        /* \"#utility.yul\":8139:8423   */\n      iszero\n      tag_467\n      jumpi\n        /* \"#utility.yul\":8240:8246   */\n      dup2\n        /* \"#utility.yul\":8234:8247   */\n      mload\n        /* \"#utility.yul\":8267:8330   */\n      tag_468\n        /* \"#utility.yul\":8326:8329   */\n      dup9\n        /* \"#utility.yul\":8311:8324   */\n      dup3\n        /* \"#utility.yul\":8267:8330   */\n      tag_423\n      jump\t// in\n    tag_468:\n        /* \"#utility.yul\":8260:8330   */\n      swap8\n      pop\n        /* \"#utility.yul\":8353:8413   */\n      tag_469\n        /* \"#utility.yul\":8406:8412   */\n      dup4\n        /* \"#utility.yul\":8353:8413   */\n      tag_458\n      jump\t// in\n    tag_469:\n        /* \"#utility.yul\":8343:8413   */\n      swap3\n      pop\n        /* \"#utility.yul\":8199:8423   */\n      pop\n        /* \"#utility.yul\":8186:8187   */\n      0x01\n        /* \"#utility.yul\":8183:8184   */\n      dup2\n        /* \"#utility.yul\":8179:8188   */\n      add\n        /* \"#utility.yul\":8174:8188   */\n      swap1\n      pop\n        /* \"#utility.yul\":8139:8423   */\n      jump(tag_465)\n    tag_467:\n        /* \"#utility.yul\":8143:8157   */\n      pop\n        /* \"#utility.yul\":8439:8442   */\n      dup6\n        /* \"#utility.yul\":8432:8442   */\n      swap4\n      pop\n        /* \"#utility.yul\":7840:8448   */\n      pop\n      pop\n      pop\n      swap3\n      swap2\n      pop\n      pop\n      jump\t// out\n        /* \"#utility.yul\":8484:9235   */\n    tag_470:\n      0x00\n        /* \"#utility.yul\":8629:8680   */\n      tag_472\n        /* \"#utility.yul\":8674:8679   */\n      dup3\n        /* \"#utility.yul\":8629:8680   */\n      tag_473\n      jump\t// in\n    tag_472:\n        /* \"#utility.yul\":8696:8782   */\n      tag_474\n        /* \"#utility.yul\":8775:8781   */\n      dup2\n        /* \"#utility.yul\":8770:8773   */\n      dup6\n        /* \"#utility.yul\":8696:8782   */\n      tag_463\n      jump\t// in\n    tag_474:\n        /* \"#utility.yul\":8689:8782   */\n      swap4\n      pop\n        /* \"#utility.yul\":8806:8859   */\n      tag_475\n        /* \"#utility.yul\":8853:8858   */\n      dup4\n        /* \"#utility.yul\":8806:8859   */\n      tag_476\n      jump\t// in\n    tag_475:\n        /* \"#utility.yul\":8882:8889   */\n      dup1\n        /* \"#utility.yul\":8913:8914   */\n      0x00\n        /* \"#utility.yul\":8898:9210   */\n    tag_477:\n        /* \"#utility.yul\":8923:8929   */\n      dup4\n        /* \"#utility.yul\":8920:8921   */\n      dup2\n        /* \"#utility.yul\":8917:8930   */\n      lt\n        /* \"#utility.yul\":8898:9210   */\n      iszero\n      tag_479\n      jumpi\n        /* \"#utility.yul\":8993:9037   */\n      tag_480\n        /* \"#utility.yul\":9030:9036   */\n      dup3\n        /* \"#utility.yul\":8993:9037   */\n      tag_481\n      jump\t// in\n    tag_480:\n        /* \"#utility.yul\":9057:9120   */\n      tag_482\n        /* \"#utility.yul\":9116:9119   */\n      dup9\n        /* \"#utility.yul\":9101:9114   */\n      dup3\n        /* \"#utility.yul\":9057:9120   */\n      tag_423\n      jump\t// in\n    tag_482:\n        /* \"#utility.yul\":9050:9120   */\n      swap8\n      pop\n        /* \"#utility.yul\":9143:9200   */\n      tag_483\n        /* \"#utility.yul\":9193:9199   */\n      dup4\n        /* \"#utility.yul\":9143:9200   */\n      tag_484\n      jump\t// in\n    tag_483:\n        /* \"#utility.yul\":9133:9200   */\n      swap3\n      pop\n        /* \"#utility.yul\":8958:9210   */\n      pop\n        /* \"#utility.yul\":8945:8946   */\n      0x01\n        /* \"#utility.yul\":8942:8943   */\n      dup2\n        /* \"#utility.yul\":8938:8947   */\n      add\n        /* \"#utility.yul\":8933:8947   */\n      swap1\n      pop\n        /* \"#utility.yul\":8898:9210   */\n      jump(tag_477)\n    tag_479:\n        /* \"#utility.yul\":8902:8916   */\n      pop\n        /* \"#utility.yul\":9226:9229   */\n      dup6\n        /* \"#utility.yul\":9219:9229   */\n      swap4\n      pop\n        /* \"#utility.yul\":8605:9235   */\n      pop\n      pop\n      pop\n      swap3\n      swap2\n      pop\n      pop\n      jump\t// out\n        /* \"#utility.yul\":9241:9350   */\n    tag_485:\n        /* \"#utility.yul\":9322:9343   */\n      tag_487\n        /* \"#utility.yul\":9337:9342   */\n      dup2\n        /* \"#utility.yul\":9322:9343   */\n      tag_488\n      jump\t// in\n    tag_487:\n        /* \"#utility.yul\":9317:9320   */\n      dup3\n        /* \"#utility.yul\":9310:9344   */\n      mstore\n        /* \"#utility.yul\":9300:9350   */\n      pop\n      pop\n      jump\t// out\n        /* \"#utility.yul\":9356:9700   */\n    tag_489:\n      0x00\n        /* \"#utility.yul\":9462:9501   */\n      tag_491\n        /* \"#utility.yul\":9495:9500   */\n      dup3\n        /* \"#utility.yul\":9462:9501   */\n      tag_492\n      jump\t// in\n    tag_491:\n        /* \"#utility.yul\":9517:9578   */\n      tag_493\n        /* \"#utility.yul\":9571:9577   */\n      dup2\n        /* \"#utility.yul\":9566:9569   */\n      dup6\n        /* \"#utility.yul\":9517:9578   */\n      tag_494\n      jump\t// in\n    tag_493:\n        /* \"#utility.yul\":9510:9578   */\n      swap4\n      pop\n        /* \"#utility.yul\":9587:9639   */\n      tag_495\n        /* \"#utility.yul\":9632:9638   */\n      dup2\n        /* \"#utility.yul\":9627:9630   */\n      dup6\n        /* \"#utility.yul\":9620:9624   */\n      0x20\n        /* \"#utility.yul\":9613:9618   */\n      dup7\n        /* \"#utility.yul\":9609:9625   */\n      add\n        /* \"#utility.yul\":9587:9639   */\n      tag_371\n      jump\t// in\n    tag_495:\n        /* \"#utility.yul\":9664:9693   */\n      tag_496\n        /* \"#utility.yul\":9686:9692   */\n      dup2\n        /* \"#utility.yul\":9664:9693   */\n      tag_497\n      jump\t// in\n    tag_496:\n        /* \"#utility.yul\":9659:9662   */\n      dup5\n        /* \"#utility.yul\":9655:9694   */\n      add\n        /* \"#utility.yul\":9648:9694   */\n      swap2\n      pop\n        /* \"#utility.yul\":9438:9700   */\n      pop\n      swap3\n      swap2\n      pop\n      pop\n      jump\t// out\n        /* \"#utility.yul\":9706:10024   */\n    tag_498:\n      0x00\n        /* \"#utility.yul\":9869:9936   */\n      tag_500\n        /* \"#utility.yul\":9933:9935   */\n      0x14\n        /* \"#utility.yul\":9928:9931   */\n      dup4\n        /* \"#utility.yul\":9869:9936   */\n      tag_501\n      jump\t// in\n    tag_500:\n        /* \"#utility.yul\":9862:9936   */\n      swap2\n      pop\n        /* \"#utility.yul\":9966:9988   */\n      0x5061757361626c653a206e6f7420706175736564000000000000000000000000\n        /* \"#utility.yul\":9962:9963   */\n      0x00\n        /* \"#utility.yul\":9957:9960   */\n      dup4\n        /* \"#utility.yul\":9953:9964   */\n      add\n        /* \"#utility.yul\":9946:9989   */\n      mstore\n        /* \"#utility.yul\":10015:10017   */\n      0x20\n        /* \"#utility.yul\":10010:10013   */\n      dup3\n        /* \"#utility.yul\":10006:10018   */\n      add\n        /* \"#utility.yul\":9999:10018   */\n      swap1\n      pop\n        /* \"#utility.yul\":9852:10024   */\n      swap2\n      swap1\n      pop\n      jump\t// out\n        /* \"#utility.yul\":10030:10400   */\n    tag_502:\n      0x00\n        /* \"#utility.yul\":10193:10260   */\n      tag_504\n        /* \"#utility.yul\":10257:10259   */\n      0x26\n        /* \"#utility.yul\":10252:10255   */\n      dup4\n        /* \"#utility.yul\":10193:10260   */\n      tag_501\n      jump\t// in\n    tag_504:\n        /* \"#utility.yul\":10186:10260   */\n      swap2\n      pop\n        /* \"#utility.yul\":10290:10324   */\n      0x4f776e61626c653a206e6577206f776e657220697320746865207a65726f2061\n        /* \"#utility.yul\":10286:10287   */\n      0x00\n        /* \"#utility.yul\":10281:10284   */\n      dup4\n        /* \"#utility.yul\":10277:10288   */\n      add\n        /* \"#utility.yul\":10270:10325   */\n      mstore\n        /* \"#utility.yul\":10356:10364   */\n      0x6464726573730000000000000000000000000000000000000000000000000000\n        /* \"#utility.yul\":10351:10353   */\n      0x20\n        /* \"#utility.yul\":10346:10349   */\n      dup4\n        /* \"#utility.yul\":10342:10354   */\n      add\n        /* \"#utility.yul\":10335:10365   */\n      mstore\n        /* \"#utility.yul\":10391:10393   */\n      0x40\n        /* \"#utility.yul\":10386:10389   */\n      dup3\n        /* \"#utility.yul\":10382:10394   */\n      add\n        /* \"#utility.yul\":10375:10394   */\n      swap1\n      pop\n        /* \"#utility.yul\":10176:10400   */\n      swap2\n      swap1\n      pop\n      jump\t// out\n        /* \"#utility.yul\":10406:10771   */\n    tag_505:\n      0x00\n        /* \"#utility.yul\":10569:10636   */\n      tag_507\n        /* \"#utility.yul\":10633:10635   */\n      0x21\n        /* \"#utility.yul\":10628:10631   */\n      dup4\n        /* \"#utility.yul\":10569:10636   */\n      tag_501\n      jump\t// in\n    tag_507:\n        /* \"#utility.yul\":10562:10636   */\n      swap2\n      pop\n        /* \"#utility.yul\":10666:10700   */\n      0x596f752063616e6e6f742062757920796f7572206f776e206c697374696e6773\n        /* \"#utility.yul\":10662:10663   */\n      0x00\n        /* \"#utility.yul\":10657:10660   */\n      dup4\n        /* \"#utility.yul\":10653:10664   */\n      add\n        /* \"#utility.yul\":10646:10701   */\n      mstore\n        /* \"#utility.yul\":10732:10735   */\n      0x2e00000000000000000000000000000000000000000000000000000000000000\n        /* \"#utility.yul\":10727:10729   */\n      0x20\n        /* \"#utility.yul\":10722:10725   */\n      dup4\n        /* \"#utility.yul\":10718:10730   */\n      add\n        /* \"#utility.yul\":10711:10736   */\n      mstore\n        /* \"#utility.yul\":10762:10764   */\n      0x40\n        /* \"#utility.yul\":10757:10760   */\n      dup3\n        /* \"#utility.yul\":10753:10765   */\n      add\n        /* \"#utility.yul\":10746:10765   */\n      swap1\n      pop\n        /* \"#utility.yul\":10552:10771   */\n      swap2\n      swap1\n      pop\n      jump\t// out\n        /* \"#utility.yul\":10777:11107   */\n    tag_508:\n      0x00\n        /* \"#utility.yul\":10940:11007   */\n      tag_510\n        /* \"#utility.yul\":11004:11006   */\n      0x20\n        /* \"#utility.yul\":10999:11002   */\n      dup4\n        /* \"#utility.yul\":10940:11007   */\n      tag_501\n      jump\t// in\n    tag_510:\n        /* \"#utility.yul\":10933:11007   */\n      swap2\n      pop\n        /* \"#utility.yul\":11037:11071   */\n      0x596f75206d757374206f776e20746865204e465420746f206c6973742069742e\n        /* \"#utility.yul\":11033:11034   */\n      0x00\n        /* \"#utility.yul\":11028:11031   */\n      dup4\n        /* \"#utility.yul\":11024:11035   */\n      add\n        /* \"#utility.yul\":11017:11072   */\n      mstore\n        /* \"#utility.yul\":11098:11100   */\n      0x20\n        /* \"#utility.yul\":11093:11096   */\n      dup3\n        /* \"#utility.yul\":11089:11101   */\n      add\n        /* \"#utility.yul\":11082:11101   */\n      swap1\n      pop\n        /* \"#utility.yul\":10923:11107   */\n      swap2\n      swap1\n      pop\n      jump\t// out\n        /* \"#utility.yul\":11113:11435   */\n    tag_511:\n      0x00\n        /* \"#utility.yul\":11276:11343   */\n      tag_513\n        /* \"#utility.yul\":11340:11342   */\n      0x18\n        /* \"#utility.yul\":11335:11338   */\n      dup4\n        /* \"#utility.yul\":11276:11343   */\n      tag_501\n      jump\t// in\n    tag_513:\n        /* \"#utility.yul\":11269:11343   */\n      swap2\n      pop\n        /* \"#utility.yul\":11373:11399   */\n      0x4164647265737365732063616e6e6f74206265207a65726f0000000000000000\n        /* \"#utility.yul\":11369:11370   */\n      0x00\n        /* \"#utility.yul\":11364:11367   */\n      dup4\n        /* \"#utility.yul\":11360:11371   */\n      add\n        /* \"#utility.yul\":11353:11400   */\n      mstore\n        /* \"#utility.yul\":11426:11428   */\n      0x20\n        /* \"#utility.yul\":11421:11424   */\n      dup3\n        /* \"#utility.yul\":11417:11429   */\n      add\n        /* \"#utility.yul\":11410:11429   */\n      swap1\n      pop\n        /* \"#utility.yul\":11259:11435   */\n      swap2\n      swap1\n      pop\n      jump\t// out\n        /* \"#utility.yul\":11441:11764   */\n    tag_514:\n      0x00\n        /* \"#utility.yul\":11604:11671   */\n      tag_516\n        /* \"#utility.yul\":11668:11670   */\n      0x19\n        /* \"#utility.yul\":11663:11666   */\n      dup4\n        /* \"#utility.yul\":11604:11671   */\n      tag_501\n      jump\t// in\n    tag_516:\n        /* \"#utility.yul\":11597:11671   */\n      swap2\n      pop\n        /* \"#utility.yul\":11701:11728   */\n      0x54686973206c697374696e672068617320657870697265642e00000000000000\n        /* \"#utility.yul\":11697:11698   */\n      0x00\n        /* \"#utility.yul\":11692:11695   */\n      dup4\n        /* \"#utility.yul\":11688:11699   */\n      add\n        /* \"#utility.yul\":11681:11729   */\n      mstore\n        /* \"#utility.yul\":11755:11757   */\n      0x20\n        /* \"#utility.yul\":11750:11753   */\n      dup3\n        /* \"#utility.yul\":11746:11758   */\n      add\n        /* \"#utility.yul\":11739:11758   */\n      swap1\n      pop\n        /* \"#utility.yul\":11587:11764   */\n      swap2\n      swap1\n      pop\n      jump\t// out\n        /* \"#utility.yul\":11770:12084   */\n    tag_517:\n      0x00\n        /* \"#utility.yul\":11933:12000   */\n      tag_519\n        /* \"#utility.yul\":11997:11999   */\n      0x10\n        /* \"#utility.yul\":11992:11995   */\n      dup4\n        /* \"#utility.yul\":11933:12000   */\n      tag_501\n      jump\t// in\n    tag_519:\n        /* \"#utility.yul\":11926:12000   */\n      swap2\n      pop\n        /* \"#utility.yul\":12030:12048   */\n      0x5061757361626c653a2070617573656400000000000000000000000000000000\n        /* \"#utility.yul\":12026:12027   */\n      0x00\n        /* \"#utility.yul\":12021:12024   */\n      dup4\n        /* \"#utility.yul\":12017:12028   */\n      add\n        /* \"#utility.yul\":12010:12049   */\n      mstore\n        /* \"#utility.yul\":12075:12077   */\n      0x20\n        /* \"#utility.yul\":12070:12073   */\n      dup3\n        /* \"#utility.yul\":12066:12078   */\n      add\n        /* \"#utility.yul\":12059:12078   */\n      swap1\n      pop\n        /* \"#utility.yul\":11916:12084   */\n      swap2\n      swap1\n      pop\n      jump\t// out\n        /* \"#utility.yul\":12090:12459   */\n    tag_520:\n      0x00\n        /* \"#utility.yul\":12253:12320   */\n      tag_522\n        /* \"#utility.yul\":12317:12319   */\n      0x25\n        /* \"#utility.yul\":12312:12315   */\n      dup4\n        /* \"#utility.yul\":12253:12320   */\n      tag_501\n      jump\t// in\n    tag_522:\n        /* \"#utility.yul\":12246:12320   */\n      swap2\n      pop\n        /* \"#utility.yul\":12350:12384   */\n      0x4f6e6c7920746865206c697374696e67206f776e65722063616e2063616e6365\n        /* \"#utility.yul\":12346:12347   */\n      0x00\n        /* \"#utility.yul\":12341:12344   */\n      dup4\n        /* \"#utility.yul\":12337:12348   */\n      add\n        /* \"#utility.yul\":12330:12385   */\n      mstore\n        /* \"#utility.yul\":12416:12423   */\n      0x6c2069742e000000000000000000000000000000000000000000000000000000\n        /* \"#utility.yul\":12411:12413   */\n      0x20\n        /* \"#utility.yul\":12406:12409   */\n      dup4\n        /* \"#utility.yul\":12402:12414   */\n      add\n        /* \"#utility.yul\":12395:12424   */\n      mstore\n        /* \"#utility.yul\":12450:12452   */\n      0x40\n        /* \"#utility.yul\":12445:12448   */\n      dup3\n        /* \"#utility.yul\":12441:12453   */\n      add\n        /* \"#utility.yul\":12434:12453   */\n      swap1\n      pop\n        /* \"#utility.yul\":12236:12459   */\n      swap2\n      swap1\n      pop\n      jump\t// out\n        /* \"#utility.yul\":12465:12786   */\n    tag_523:\n      0x00\n        /* \"#utility.yul\":12628:12695   */\n      tag_525\n        /* \"#utility.yul\":12692:12694   */\n      0x17\n        /* \"#utility.yul\":12687:12690   */\n      dup4\n        /* \"#utility.yul\":12628:12695   */\n      tag_501\n      jump\t// in\n    tag_525:\n        /* \"#utility.yul\":12621:12695   */\n      swap2\n      pop\n        /* \"#utility.yul\":12725:12750   */\n      0x4c697374696e6720646f6573206e6f742065786973742e000000000000000000\n        /* \"#utility.yul\":12721:12722   */\n      0x00\n        /* \"#utility.yul\":12716:12719   */\n      dup4\n        /* \"#utility.yul\":12712:12723   */\n      add\n        /* \"#utility.yul\":12705:12751   */\n      mstore\n        /* \"#utility.yul\":12777:12779   */\n      0x20\n        /* \"#utility.yul\":12772:12775   */\n      dup3\n        /* \"#utility.yul\":12768:12780   */\n      add\n        /* \"#utility.yul\":12761:12780   */\n      swap1\n      pop\n        /* \"#utility.yul\":12611:12786   */\n      swap2\n      swap1\n      pop\n      jump\t// out\n        /* \"#utility.yul\":12792:13122   */\n    tag_526:\n      0x00\n        /* \"#utility.yul\":12955:13022   */\n      tag_528\n        /* \"#utility.yul\":13019:13021   */\n      0x20\n        /* \"#utility.yul\":13014:13017   */\n      dup4\n        /* \"#utility.yul\":12955:13022   */\n      tag_501\n      jump\t// in\n    tag_528:\n        /* \"#utility.yul\":12948:13022   */\n      swap2\n      pop\n        /* \"#utility.yul\":13052:13086   */\n      0x4f776e61626c653a2063616c6c6572206973206e6f7420746865206f776e6572\n        /* \"#utility.yul\":13048:13049   */\n      0x00\n        /* \"#utility.yul\":13043:13046   */\n      dup4\n        /* \"#utility.yul\":13039:13050   */\n      add\n        /* \"#utility.yul\":13032:13087   */\n      mstore\n        /* \"#utility.yul\":13113:13115   */\n      0x20\n        /* \"#utility.yul\":13108:13111   */\n      dup3\n        /* \"#utility.yul\":13104:13116   */\n      add\n        /* \"#utility.yul\":13097:13116   */\n      swap1\n      pop\n        /* \"#utility.yul\":12938:13122   */\n      swap2\n      swap1\n      pop\n      jump\t// out\n        /* \"#utility.yul\":13128:13495   */\n    tag_529:\n      0x00\n        /* \"#utility.yul\":13291:13358   */\n      tag_531\n        /* \"#utility.yul\":13355:13357   */\n      0x23\n        /* \"#utility.yul\":13350:13353   */\n      dup4\n        /* \"#utility.yul\":13291:13358   */\n      tag_501\n      jump\t// in\n    tag_531:\n        /* \"#utility.yul\":13284:13358   */\n      swap2\n      pop\n        /* \"#utility.yul\":13388:13422   */\n      0x446561646c696e65206d7573742062652067726561746572207468616e207a65\n        /* \"#utility.yul\":13384:13385   */\n      0x00\n        /* \"#utility.yul\":13379:13382   */\n      dup4\n        /* \"#utility.yul\":13375:13386   */\n      add\n        /* \"#utility.yul\":13368:13423   */\n      mstore\n        /* \"#utility.yul\":13454:13459   */\n      0x726f2e0000000000000000000000000000000000000000000000000000000000\n        /* \"#utility.yul\":13449:13451   */\n      0x20\n        /* \"#utility.yul\":13444:13447   */\n      dup4\n        /* \"#utility.yul\":13440:13452   */\n      add\n        /* \"#utility.yul\":13433:13460   */\n      mstore\n        /* \"#utility.yul\":13486:13488   */\n      0x40\n        /* \"#utility.yul\":13481:13484   */\n      dup3\n        /* \"#utility.yul\":13477:13489   */\n      add\n        /* \"#utility.yul\":13470:13489   */\n      swap1\n      pop\n        /* \"#utility.yul\":13274:13495   */\n      swap2\n      swap1\n      pop\n      jump\t// out\n        /* \"#utility.yul\":13501:13831   */\n    tag_532:\n      0x00\n        /* \"#utility.yul\":13664:13731   */\n      tag_534\n        /* \"#utility.yul\":13728:13730   */\n      0x20\n        /* \"#utility.yul\":13723:13726   */\n      dup4\n        /* \"#utility.yul\":13664:13731   */\n      tag_501\n      jump\t// in\n    tag_534:\n        /* \"#utility.yul\":13657:13731   */\n      swap2\n      pop\n        /* \"#utility.yul\":13761:13795   */\n      0x5072696365206d7573742062652067726561746572207468616e207a65726f2e\n        /* \"#utility.yul\":13757:13758   */\n      0x00\n        /* \"#utility.yul\":13752:13755   */\n      dup4\n        /* \"#utility.yul\":13748:13759   */\n      add\n        /* \"#utility.yul\":13741:13796   */\n      mstore\n        /* \"#utility.yul\":13822:13824   */\n      0x20\n        /* \"#utility.yul\":13817:13820   */\n      dup3\n        /* \"#utility.yul\":13813:13825   */\n      add\n        /* \"#utility.yul\":13806:13825   */\n      swap1\n      pop\n        /* \"#utility.yul\":13647:13831   */\n      swap2\n      swap1\n      pop\n      jump\t// out\n        /* \"#utility.yul\":13837:14206   */\n    tag_535:\n      0x00\n        /* \"#utility.yul\":14000:14067   */\n      tag_537\n        /* \"#utility.yul\":14064:14066   */\n      0x25\n        /* \"#utility.yul\":14059:14062   */\n      dup4\n        /* \"#utility.yul\":14000:14067   */\n      tag_501\n      jump\t// in\n    tag_537:\n        /* \"#utility.yul\":13993:14067   */\n      swap2\n      pop\n        /* \"#utility.yul\":14097:14131   */\n      0x53656e742076616c7565206d7573742062652067726561746572207468616e20\n        /* \"#utility.yul\":14093:14094   */\n      0x00\n        /* \"#utility.yul\":14088:14091   */\n      dup4\n        /* \"#utility.yul\":14084:14095   */\n      add\n        /* \"#utility.yul\":14077:14132   */\n      mstore\n        /* \"#utility.yul\":14163:14170   */\n      0x7a65726f2e000000000000000000000000000000000000000000000000000000\n        /* \"#utility.yul\":14158:14160   */\n      0x20\n        /* \"#utility.yul\":14153:14156   */\n      dup4\n        /* \"#utility.yul\":14149:14161   */\n      add\n        /* \"#utility.yul\":14142:14171   */\n      mstore\n        /* \"#utility.yul\":14197:14199   */\n      0x40\n        /* \"#utility.yul\":14192:14195   */\n      dup3\n        /* \"#utility.yul\":14188:14200   */\n      add\n        /* \"#utility.yul\":14181:14200   */\n      swap1\n      pop\n        /* \"#utility.yul\":13983:14206   */\n      swap2\n      swap1\n      pop\n      jump\t// out\n        /* \"#utility.yul\":14212:14588   */\n    tag_538:\n      0x00\n        /* \"#utility.yul\":14375:14442   */\n      tag_540\n        /* \"#utility.yul\":14439:14441   */\n      0x2c\n        /* \"#utility.yul\":14434:14437   */\n      dup4\n        /* \"#utility.yul\":14375:14442   */\n      tag_501\n      jump\t// in\n    tag_540:\n        /* \"#utility.yul\":14368:14442   */\n      swap2\n      pop\n        /* \"#utility.yul\":14472:14506   */\n      0x53656e742076616c7565206d75737420626520657175616c20746f2074686520\n        /* \"#utility.yul\":14468:14469   */\n      0x00\n        /* \"#utility.yul\":14463:14466   */\n      dup4\n        /* \"#utility.yul\":14459:14470   */\n      add\n        /* \"#utility.yul\":14452:14507   */\n      mstore\n        /* \"#utility.yul\":14538:14552   */\n      0x746f74616c2070726963652e0000000000000000000000000000000000000000\n        /* \"#utility.yul\":14533:14535   */\n      0x20\n        /* \"#utility.yul\":14528:14531   */\n      dup4\n        /* \"#utility.yul\":14524:14536   */\n      add\n        /* \"#utility.yul\":14517:14553   */\n      mstore\n        /* \"#utility.yul\":14579:14581   */\n      0x40\n        /* \"#utility.yul\":14574:14577   */\n      dup3\n        /* \"#utility.yul\":14570:14582   */\n      add\n        /* \"#utility.yul\":14563:14582   */\n      swap1\n      pop\n        /* \"#utility.yul\":14358:14588   */\n      swap2\n      swap1\n      pop\n      jump\t// out\n        /* \"#utility.yul\":14594:14921   */\n    tag_541:\n      0x00\n        /* \"#utility.yul\":14757:14824   */\n      tag_543\n        /* \"#utility.yul\":14821:14823   */\n      0x1d\n        /* \"#utility.yul\":14816:14819   */\n      dup4\n        /* \"#utility.yul\":14757:14824   */\n      tag_501\n      jump\t// in\n    tag_543:\n        /* \"#utility.yul\":14750:14824   */\n      swap2\n      pop\n        /* \"#utility.yul\":14854:14885   */\n      0x4d757374206c697374206174206c65617374206f6e6520746f6b656e2e000000\n        /* \"#utility.yul\":14850:14851   */\n      0x00\n        /* \"#utility.yul\":14845:14848   */\n      dup4\n        /* \"#utility.yul\":14841:14852   */\n      add\n        /* \"#utility.yul\":14834:14886   */\n      mstore\n        /* \"#utility.yul\":14912:14914   */\n      0x20\n        /* \"#utility.yul\":14907:14910   */\n      dup3\n        /* \"#utility.yul\":14903:14915   */\n      add\n        /* \"#utility.yul\":14896:14915   */\n      swap1\n      pop\n        /* \"#utility.yul\":14740:14921   */\n      swap2\n      swap1\n      pop\n      jump\t// out\n        /* \"#utility.yul\":14927:15306   */\n    tag_544:\n      0x00\n        /* \"#utility.yul\":15090:15157   */\n      tag_546\n        /* \"#utility.yul\":15154:15156   */\n      0x2f\n        /* \"#utility.yul\":15149:15152   */\n      dup4\n        /* \"#utility.yul\":15090:15157   */\n      tag_501\n      jump\t// in\n    tag_546:\n        /* \"#utility.yul\":15083:15157   */\n      swap2\n      pop\n        /* \"#utility.yul\":15187:15221   */\n      0x546f6b656e2049447320616e6420707269636573206d75737420686176652074\n        /* \"#utility.yul\":15183:15184   */\n      0x00\n        /* \"#utility.yul\":15178:15181   */\n      dup4\n        /* \"#utility.yul\":15174:15185   */\n      add\n        /* \"#utility.yul\":15167:15222   */\n      mstore\n        /* \"#utility.yul\":15253:15270   */\n      0x68652073616d65206c656e6774682e0000000000000000000000000000000000\n        /* \"#utility.yul\":15248:15250   */\n      0x20\n        /* \"#utility.yul\":15243:15246   */\n      dup4\n        /* \"#utility.yul\":15239:15251   */\n      add\n        /* \"#utility.yul\":15232:15271   */\n      mstore\n        /* \"#utility.yul\":15297:15299   */\n      0x40\n        /* \"#utility.yul\":15292:15295   */\n      dup3\n        /* \"#utility.yul\":15288:15300   */\n      add\n        /* \"#utility.yul\":15281:15300   */\n      swap1\n      pop\n        /* \"#utility.yul\":15073:15306   */\n      swap2\n      swap1\n      pop\n      jump\t// out\n        /* \"#utility.yul\":15312:15641   */\n    tag_547:\n      0x00\n        /* \"#utility.yul\":15475:15542   */\n      tag_549\n        /* \"#utility.yul\":15539:15541   */\n      0x1f\n        /* \"#utility.yul\":15534:15537   */\n      dup4\n        /* \"#utility.yul\":15475:15542   */\n      tag_501\n      jump\t// in\n    tag_549:\n        /* \"#utility.yul\":15468:15542   */\n      swap2\n      pop\n        /* \"#utility.yul\":15572:15605   */\n      0x5265656e7472616e637947756172643a207265656e7472616e742063616c6c00\n        /* \"#utility.yul\":15568:15569   */\n      0x00\n        /* \"#utility.yul\":15563:15566   */\n      dup4\n        /* \"#utility.yul\":15559:15570   */\n      add\n        /* \"#utility.yul\":15552:15606   */\n      mstore\n        /* \"#utility.yul\":15632:15634   */\n      0x20\n        /* \"#utility.yul\":15627:15630   */\n      dup3\n        /* \"#utility.yul\":15623:15635   */\n      add\n        /* \"#utility.yul\":15616:15635   */\n      swap1\n      pop\n        /* \"#utility.yul\":15458:15641   */\n      swap2\n      swap1\n      pop\n      jump\t// out\n        /* \"#utility.yul\":15647:15975   */\n    tag_550:\n      0x00\n        /* \"#utility.yul\":15810:15877   */\n      tag_552\n        /* \"#utility.yul\":15874:15876   */\n      0x1e\n        /* \"#utility.yul\":15869:15872   */\n      dup4\n        /* \"#utility.yul\":15810:15877   */\n      tag_501\n      jump\t// in\n    tag_552:\n        /* \"#utility.yul\":15803:15877   */\n      swap2\n      pop\n        /* \"#utility.yul\":15907:15939   */\n      0x53656c6c6572206e6f206c6f6e676572206f776e7320746865204e46542e0000\n        /* \"#utility.yul\":15903:15904   */\n      0x00\n        /* \"#utility.yul\":15898:15901   */\n      dup4\n        /* \"#utility.yul\":15894:15905   */\n      add\n        /* \"#utility.yul\":15887:15940   */\n      mstore\n        /* \"#utility.yul\":15966:15968   */\n      0x20\n        /* \"#utility.yul\":15961:15964   */\n      dup3\n        /* \"#utility.yul\":15957:15969   */\n      add\n        /* \"#utility.yul\":15950:15969   */\n      swap1\n      pop\n        /* \"#utility.yul\":15793:15975   */\n      swap2\n      swap1\n      pop\n      jump\t// out\n        /* \"#utility.yul\":16069:16966   */\n    tag_422:\n      0x00\n        /* \"#utility.yul\":16220:16224   */\n      0x60\n        /* \"#utility.yul\":16215:16218   */\n      dup4\n        /* \"#utility.yul\":16211:16225   */\n      add\n        /* \"#utility.yul\":16312:16316   */\n      0x00\n        /* \"#utility.yul\":16305:16310   */\n      dup4\n        /* \"#utility.yul\":16301:16317   */\n      add\n        /* \"#utility.yul\":16295:16318   */\n      mload\n        /* \"#utility.yul\":16331:16394   */\n      tag_554\n        /* \"#utility.yul\":16388:16392   */\n      0x00\n        /* \"#utility.yul\":16383:16386   */\n      dup7\n        /* \"#utility.yul\":16379:16393   */\n      add\n        /* \"#utility.yul\":16365:16377   */\n      dup3\n        /* \"#utility.yul\":16331:16394   */\n      tag_426\n      jump\t// in\n    tag_554:\n        /* \"#utility.yul\":16235:16404   */\n      pop\n        /* \"#utility.yul\":16488:16492   */\n      0x20\n        /* \"#utility.yul\":16481:16486   */\n      dup4\n        /* \"#utility.yul\":16477:16493   */\n      add\n        /* \"#utility.yul\":16471:16494   */\n      mload\n        /* \"#utility.yul\":16541:16544   */\n      dup5\n        /* \"#utility.yul\":16535:16539   */\n      dup3\n        /* \"#utility.yul\":16531:16545   */\n      sub\n        /* \"#utility.yul\":16524:16528   */\n      0x20\n        /* \"#utility.yul\":16519:16522   */\n      dup7\n        /* \"#utility.yul\":16515:16529   */\n      add\n        /* \"#utility.yul\":16508:16546   */\n      mstore\n        /* \"#utility.yul\":16567:16670   */\n      tag_555\n        /* \"#utility.yul\":16665:16669   */\n      dup3\n        /* \"#utility.yul\":16651:16663   */\n      dup3\n        /* \"#utility.yul\":16567:16670   */\n      tag_445\n      jump\t// in\n    tag_555:\n        /* \"#utility.yul\":16559:16670   */\n      swap2\n      pop\n        /* \"#utility.yul\":16414:16681   */\n      pop\n        /* \"#utility.yul\":16776:16780   */\n      0x40\n        /* \"#utility.yul\":16769:16774   */\n      dup4\n        /* \"#utility.yul\":16765:16781   */\n      add\n        /* \"#utility.yul\":16759:16782   */\n      mload\n        /* \"#utility.yul\":16829:16832   */\n      dup5\n        /* \"#utility.yul\":16823:16827   */\n      dup3\n        /* \"#utility.yul\":16819:16833   */\n      sub\n        /* \"#utility.yul\":16812:16816   */\n      0x40\n        /* \"#utility.yul\":16807:16810   */\n      dup7\n        /* \"#utility.yul\":16803:16817   */\n      add\n        /* \"#utility.yul\":16796:16834   */\n      mstore\n        /* \"#utility.yul\":16855:16928   */\n      tag_556\n        /* \"#utility.yul\":16923:16927   */\n      dup3\n        /* \"#utility.yul\":16909:16921   */\n      dup3\n        /* \"#utility.yul\":16855:16928   */\n      tag_489\n      jump\t// in\n    tag_556:\n        /* \"#utility.yul\":16847:16928   */\n      swap2\n      pop\n        /* \"#utility.yul\":16691:16939   */\n      pop\n        /* \"#utility.yul\":16956:16960   */\n      dup1\n        /* \"#utility.yul\":16949:16960   */\n      swap2\n      pop\n        /* \"#utility.yul\":16189:16966   */\n      pop\n      swap3\n      swap2\n      pop\n      pop\n      jump\t// out\n        /* \"#utility.yul\":16972:17080   */\n    tag_426:\n        /* \"#utility.yul\":17049:17073   */\n      tag_558\n        /* \"#utility.yul\":17067:17072   */\n      dup2\n        /* \"#utility.yul\":17049:17073   */\n      tag_559\n      jump\t// in\n    tag_558:\n        /* \"#utility.yul\":17044:17047   */\n      dup3\n        /* \"#utility.yul\":17037:17074   */\n      mstore\n        /* \"#utility.yul\":17027:17080   */\n      pop\n      pop\n      jump\t// out\n        /* \"#utility.yul\":17086:17204   */\n    tag_560:\n        /* \"#utility.yul\":17173:17197   */\n      tag_562\n        /* \"#utility.yul\":17191:17196   */\n      dup2\n        /* \"#utility.yul\":17173:17197   */\n      tag_559\n      jump\t// in\n    tag_562:\n        /* \"#utility.yul\":17168:17171   */\n      dup3\n        /* \"#utility.yul\":17161:17198   */\n      mstore\n        /* \"#utility.yul\":17151:17204   */\n      pop\n      pop\n      jump\t// out\n        /* \"#utility.yul\":17210:17432   */\n    tag_69:\n      0x00\n        /* \"#utility.yul\":17341:17343   */\n      0x20\n        /* \"#utility.yul\":17330:17339   */\n      dup3\n        /* \"#utility.yul\":17326:17344   */\n      add\n        /* \"#utility.yul\":17318:17344   */\n      swap1\n      pop\n        /* \"#utility.yul\":17354:17425   */\n      tag_564\n        /* \"#utility.yul\":17422:17423   */\n      0x00\n        /* \"#utility.yul\":17411:17420   */\n      dup4\n        /* \"#utility.yul\":17407:17424   */\n      add\n        /* \"#utility.yul\":17398:17404   */\n      dup5\n        /* \"#utility.yul\":17354:17425   */\n      tag_427\n      jump\t// in\n    tag_564:\n        /* \"#utility.yul\":17308:17432   */\n      swap3\n      swap2\n      pop\n      pop\n      jump\t// out\n        /* \"#utility.yul\":17438:17880   */\n    tag_99:\n      0x00\n        /* \"#utility.yul\":17625:17627   */\n      0x60\n        /* \"#utility.yul\":17614:17623   */\n      dup3\n        /* \"#utility.yul\":17610:17628   */\n      add\n        /* \"#utility.yul\":17602:17628   */\n      swap1\n      pop\n        /* \"#utility.yul\":17638:17709   */\n      tag_566\n        /* \"#utility.yul\":17706:17707   */\n      0x00\n        /* \"#utility.yul\":17695:17704   */\n      dup4\n        /* \"#utility.yul\":17691:17708   */\n      add\n        /* \"#utility.yul\":17682:17688   */\n      dup7\n        /* \"#utility.yul\":17638:17709   */\n      tag_427\n      jump\t// in\n    tag_566:\n        /* \"#utility.yul\":17719:17791   */\n      tag_567\n        /* \"#utility.yul\":17787:17789   */\n      0x20\n        /* \"#utility.yul\":17776:17785   */\n      dup4\n        /* \"#utility.yul\":17772:17790   */\n      add\n        /* \"#utility.yul\":17763:17769   */\n      dup6\n        /* \"#utility.yul\":17719:17791   */\n      tag_427\n      jump\t// in\n    tag_567:\n        /* \"#utility.yul\":17801:17873   */\n      tag_568\n        /* \"#utility.yul\":17869:17871   */\n      0x40\n        /* \"#utility.yul\":17858:17867   */\n      dup4\n        /* \"#utility.yul\":17854:17872   */\n      add\n        /* \"#utility.yul\":17845:17851   */\n      dup5\n        /* \"#utility.yul\":17801:17873   */\n      tag_560\n      jump\t// in\n    tag_568:\n        /* \"#utility.yul\":17592:17880   */\n      swap5\n      swap4\n      pop\n      pop\n      pop\n      pop\n      jump\t// out\n        /* \"#utility.yul\":17886:18371   */\n    tag_34:\n      0x00\n        /* \"#utility.yul\":18123:18125   */\n      0x20\n        /* \"#utility.yul\":18112:18121   */\n      dup3\n        /* \"#utility.yul\":18108:18126   */\n      add\n        /* \"#utility.yul\":18100:18126   */\n      swap1\n      pop\n        /* \"#utility.yul\":18172:18181   */\n      dup2\n        /* \"#utility.yul\":18166:18170   */\n      dup2\n        /* \"#utility.yul\":18162:18182   */\n      sub\n        /* \"#utility.yul\":18158:18159   */\n      0x00\n        /* \"#utility.yul\":18147:18156   */\n      dup4\n        /* \"#utility.yul\":18143:18160   */\n      add\n        /* \"#utility.yul\":18136:18183   */\n      mstore\n        /* \"#utility.yul\":18200:18364   */\n      tag_570\n        /* \"#utility.yul\":18359:18363   */\n      dup2\n        /* \"#utility.yul\":18350:18356   */\n      dup5\n        /* \"#utility.yul\":18200:18364   */\n      tag_431\n      jump\t// in\n    tag_570:\n        /* \"#utility.yul\":18192:18364   */\n      swap1\n      pop\n        /* \"#utility.yul\":18090:18371   */\n      swap3\n      swap2\n      pop\n      pop\n      jump\t// out\n        /* \"#utility.yul\":18377:19121   */\n    tag_264:\n      0x00\n        /* \"#utility.yul\":18664:18666   */\n      0x60\n        /* \"#utility.yul\":18653:18662   */\n      dup3\n        /* \"#utility.yul\":18649:18667   */\n      add\n        /* \"#utility.yul\":18641:18667   */\n      swap1\n      pop\n        /* \"#utility.yul\":18713:18722   */\n      dup2\n        /* \"#utility.yul\":18707:18711   */\n      dup2\n        /* \"#utility.yul\":18703:18723   */\n      sub\n        /* \"#utility.yul\":18699:18700   */\n      0x00\n        /* \"#utility.yul\":18688:18697   */\n      dup4\n        /* \"#utility.yul\":18684:18701   */\n      add\n        /* \"#utility.yul\":18677:18724   */\n      mstore\n        /* \"#utility.yul\":18741:18849   */\n      tag_572\n        /* \"#utility.yul\":18844:18848   */\n      dup2\n        /* \"#utility.yul\":18835:18841   */\n      dup7\n        /* \"#utility.yul\":18741:18849   */\n      tag_459\n      jump\t// in\n    tag_572:\n        /* \"#utility.yul\":18733:18849   */\n      swap1\n      pop\n        /* \"#utility.yul\":18896:18905   */\n      dup2\n        /* \"#utility.yul\":18890:18894   */\n      dup2\n        /* \"#utility.yul\":18886:18906   */\n      sub\n        /* \"#utility.yul\":18881:18883   */\n      0x20\n        /* \"#utility.yul\":18870:18879   */\n      dup4\n        /* \"#utility.yul\":18866:18884   */\n      add\n        /* \"#utility.yul\":18859:18907   */\n      mstore\n        /* \"#utility.yul\":18924:19032   */\n      tag_573\n        /* \"#utility.yul\":19027:19031   */\n      dup2\n        /* \"#utility.yul\":19018:19024   */\n      dup6\n        /* \"#utility.yul\":18924:19032   */\n      tag_459\n      jump\t// in\n    tag_573:\n        /* \"#utility.yul\":18916:19032   */\n      swap1\n      pop\n        /* \"#utility.yul\":19042:19114   */\n      tag_574\n        /* \"#utility.yul\":19110:19112   */\n      0x40\n        /* \"#utility.yul\":19099:19108   */\n      dup4\n        /* \"#utility.yul\":19095:19113   */\n      add\n        /* \"#utility.yul\":19086:19092   */\n      dup5\n        /* \"#utility.yul\":19042:19114   */\n      tag_560\n      jump\t// in\n    tag_574:\n        /* \"#utility.yul\":18631:19121   */\n      swap5\n      swap4\n      pop\n      pop\n      pop\n      pop\n      jump\t// out\n        /* \"#utility.yul\":19127:19604   */\n    tag_222:\n      0x00\n        /* \"#utility.yul\":19333:19335   */\n      0x40\n        /* \"#utility.yul\":19322:19331   */\n      dup3\n        /* \"#utility.yul\":19318:19336   */\n      add\n        /* \"#utility.yul\":19310:19336   */\n      swap1\n      pop\n        /* \"#utility.yul\":19382:19391   */\n      dup2\n        /* \"#utility.yul\":19376:19380   */\n      dup2\n        /* \"#utility.yul\":19372:19392   */\n      sub\n        /* \"#utility.yul\":19368:19369   */\n      0x00\n        /* \"#utility.yul\":19357:19366   */\n      dup4\n        /* \"#utility.yul\":19353:19370   */\n      add\n        /* \"#utility.yul\":19346:19393   */\n      mstore\n        /* \"#utility.yul\":19410:19515   */\n      tag_576\n        /* \"#utility.yul\":19510:19514   */\n      dup2\n        /* \"#utility.yul\":19501:19507   */\n      dup6\n        /* \"#utility.yul\":19410:19515   */\n      tag_470\n      jump\t// in\n    tag_576:\n        /* \"#utility.yul\":19402:19515   */\n      swap1\n      pop\n        /* \"#utility.yul\":19525:19597   */\n      tag_577\n        /* \"#utility.yul\":19593:19595   */\n      0x20\n        /* \"#utility.yul\":19582:19591   */\n      dup4\n        /* \"#utility.yul\":19578:19596   */\n      add\n        /* \"#utility.yul\":19569:19575   */\n      dup5\n        /* \"#utility.yul\":19525:19597   */\n      tag_560\n      jump\t// in\n    tag_577:\n        /* \"#utility.yul\":19300:19604   */\n      swap4\n      swap3\n      pop\n      pop\n      pop\n      jump\t// out\n        /* \"#utility.yul\":19610:19820   */\n    tag_50:\n      0x00\n        /* \"#utility.yul\":19735:19737   */\n      0x20\n        /* \"#utility.yul\":19724:19733   */\n      dup3\n        /* \"#utility.yul\":19720:19738   */\n      add\n        /* \"#utility.yul\":19712:19738   */\n      swap1\n      pop\n        /* \"#utility.yul\":19748:19813   */\n      tag_579\n        /* \"#utility.yul\":19810:19811   */\n      0x00\n        /* \"#utility.yul\":19799:19808   */\n      dup4\n        /* \"#utility.yul\":19795:19812   */\n      add\n        /* \"#utility.yul\":19786:19792   */\n      dup5\n        /* \"#utility.yul\":19748:19813   */\n      tag_485\n      jump\t// in\n    tag_579:\n        /* \"#utility.yul\":19702:19820   */\n      swap3\n      swap2\n      pop\n      pop\n      jump\t// out\n        /* \"#utility.yul\":19826:20245   */\n    tag_341:\n      0x00\n        /* \"#utility.yul\":20030:20032   */\n      0x20\n        /* \"#utility.yul\":20019:20028   */\n      dup3\n        /* \"#utility.yul\":20015:20033   */\n      add\n        /* \"#utility.yul\":20007:20033   */\n      swap1\n      pop\n        /* \"#utility.yul\":20079:20088   */\n      dup2\n        /* \"#utility.yul\":20073:20077   */\n      dup2\n        /* \"#utility.yul\":20069:20089   */\n      sub\n        /* \"#utility.yul\":20065:20066   */\n      0x00\n        /* \"#utility.yul\":20054:20063   */\n      dup4\n        /* \"#utility.yul\":20050:20067   */\n      add\n        /* \"#utility.yul\":20043:20090   */\n      mstore\n        /* \"#utility.yul\":20107:20238   */\n      tag_581\n        /* \"#utility.yul\":20233:20237   */\n      dup2\n        /* \"#utility.yul\":20107:20238   */\n      tag_498\n      jump\t// in\n    tag_581:\n        /* \"#utility.yul\":20099:20238   */\n      swap1\n      pop\n        /* \"#utility.yul\":19997:20245   */\n      swap2\n      swap1\n      pop\n      jump\t// out\n        /* \"#utility.yul\":20251:20670   */\n    tag_305:\n      0x00\n        /* \"#utility.yul\":20455:20457   */\n      0x20\n        /* \"#utility.yul\":20444:20453   */\n      dup3\n        /* \"#utility.yul\":20440:20458   */\n      add\n        /* \"#utility.yul\":20432:20458   */\n      swap1\n      pop\n        /* \"#utility.yul\":20504:20513   */\n      dup2\n        /* \"#utility.yul\":20498:20502   */\n      dup2\n        /* \"#utility.yul\":20494:20514   */\n      sub\n        /* \"#utility.yul\":20490:20491   */\n      0x00\n        /* \"#utility.yul\":20479:20488   */\n      dup4\n        /* \"#utility.yul\":20475:20492   */\n      add\n        /* \"#utility.yul\":20468:20515   */\n      mstore\n        /* \"#utility.yul\":20532:20663   */\n      tag_583\n        /* \"#utility.yul\":20658:20662   */\n      dup2\n        /* \"#utility.yul\":20532:20663   */\n      tag_502\n      jump\t// in\n    tag_583:\n        /* \"#utility.yul\":20524:20663   */\n      swap1\n      pop\n        /* \"#utility.yul\":20422:20670   */\n      swap2\n      swap1\n      pop\n      jump\t// out\n        /* \"#utility.yul\":20676:21095   */\n    tag_188:\n      0x00\n        /* \"#utility.yul\":20880:20882   */\n      0x20\n        /* \"#utility.yul\":20869:20878   */\n      dup3\n        /* \"#utility.yul\":20865:20883   */\n      add\n        /* \"#utility.yul\":20857:20883   */\n      swap1\n      pop\n        /* \"#utility.yul\":20929:20938   */\n      dup2\n        /* \"#utility.yul\":20923:20927   */\n      dup2\n        /* \"#utility.yul\":20919:20939   */\n      sub\n        /* \"#utility.yul\":20915:20916   */\n      0x00\n        /* \"#utility.yul\":20904:20913   */\n      dup4\n        /* \"#utility.yul\":20900:20917   */\n      add\n        /* \"#utility.yul\":20893:20940   */\n      mstore\n        /* \"#utility.yul\":20957:21088   */\n      tag_585\n        /* \"#utility.yul\":21083:21087   */\n      dup2\n        /* \"#utility.yul\":20957:21088   */\n      tag_505\n      jump\t// in\n    tag_585:\n        /* \"#utility.yul\":20949:21088   */\n      swap1\n      pop\n        /* \"#utility.yul\":20847:21095   */\n      swap2\n      swap1\n      pop\n      jump\t// out\n        /* \"#utility.yul\":21101:21520   */\n    tag_255:\n      0x00\n        /* \"#utility.yul\":21305:21307   */\n      0x20\n        /* \"#utility.yul\":21294:21303   */\n      dup3\n        /* \"#utility.yul\":21290:21308   */\n      add\n        /* \"#utility.yul\":21282:21308   */\n      swap1\n      pop\n        /* \"#utility.yul\":21354:21363   */\n      dup2\n        /* \"#utility.yul\":21348:21352   */\n      dup2\n        /* \"#utility.yul\":21344:21364   */\n      sub\n        /* \"#utility.yul\":21340:21341   */\n      0x00\n        /* \"#utility.yul\":21329:21338   */\n      dup4\n        /* \"#utility.yul\":21325:21342   */\n      add\n        /* \"#utility.yul\":21318:21365   */\n      mstore\n        /* \"#utility.yul\":21382:21513   */\n      tag_587\n        /* \"#utility.yul\":21508:21512   */\n      dup2\n        /* \"#utility.yul\":21382:21513   */\n      tag_508\n      jump\t// in\n    tag_587:\n        /* \"#utility.yul\":21374:21513   */\n      swap1\n      pop\n        /* \"#utility.yul\":21272:21520   */\n      swap2\n      swap1\n      pop\n      jump\t// out\n        /* \"#utility.yul\":21526:21945   */\n    tag_276:\n      0x00\n        /* \"#utility.yul\":21730:21732   */\n      0x20\n        /* \"#utility.yul\":21719:21728   */\n      dup3\n        /* \"#utility.yul\":21715:21733   */\n      add\n        /* \"#utility.yul\":21707:21733   */\n      swap1\n      pop\n        /* \"#utility.yul\":21779:21788   */\n      dup2\n        /* \"#utility.yul\":21773:21777   */\n      dup2\n        /* \"#utility.yul\":21769:21789   */\n      sub\n        /* \"#utility.yul\":21765:21766   */\n      0x00\n        /* \"#utility.yul\":21754:21763   */\n      dup4\n        /* \"#utility.yul\":21750:21767   */\n      add\n        /* \"#utility.yul\":21743:21790   */\n      mstore\n        /* \"#utility.yul\":21807:21938   */\n      tag_589\n        /* \"#utility.yul\":21933:21937   */\n      dup2\n        /* \"#utility.yul\":21807:21938   */\n      tag_511\n      jump\t// in\n    tag_589:\n        /* \"#utility.yul\":21799:21938   */\n      swap1\n      pop\n        /* \"#utility.yul\":21697:21945   */\n      swap2\n      swap1\n      pop\n      jump\t// out\n        /* \"#utility.yul\":21951:22370   */\n    tag_176:\n      0x00\n        /* \"#utility.yul\":22155:22157   */\n      0x20\n        /* \"#utility.yul\":22144:22153   */\n      dup3\n        /* \"#utility.yul\":22140:22158   */\n      add\n        /* \"#utility.yul\":22132:22158   */\n      swap1\n      pop\n        /* \"#utility.yul\":22204:22213   */\n      dup2\n        /* \"#utility.yul\":22198:22202   */\n      dup2\n        /* \"#utility.yul\":22194:22214   */\n      sub\n        /* \"#utility.yul\":22190:22191   */\n      0x00\n        /* \"#utility.yul\":22179:22188   */\n      dup4\n        /* \"#utility.yul\":22175:22192   */\n      add\n        /* \"#utility.yul\":22168:22215   */\n      mstore\n        /* \"#utility.yul\":22232:22363   */\n      tag_591\n        /* \"#utility.yul\":22358:22362   */\n      dup2\n        /* \"#utility.yul\":22232:22363   */\n      tag_514\n      jump\t// in\n    tag_591:\n        /* \"#utility.yul\":22224:22363   */\n      swap1\n      pop\n        /* \"#utility.yul\":22122:22370   */\n      swap2\n      swap1\n      pop\n      jump\t// out\n        /* \"#utility.yul\":22376:22795   */\n    tag_329:\n      0x00\n        /* \"#utility.yul\":22580:22582   */\n      0x20\n        /* \"#utility.yul\":22569:22578   */\n      dup3\n        /* \"#utility.yul\":22565:22583   */\n      add\n        /* \"#utility.yul\":22557:22583   */\n      swap1\n      pop\n        /* \"#utility.yul\":22629:22638   */\n      dup2\n        /* \"#utility.yul\":22623:22627   */\n      dup2\n        /* \"#utility.yul\":22619:22639   */\n      sub\n        /* \"#utility.yul\":22615:22616   */\n      0x00\n        /* \"#utility.yul\":22604:22613   */\n      dup4\n        /* \"#utility.yul\":22600:22617   */\n      add\n        /* \"#utility.yul\":22593:22640   */\n      mstore\n        /* \"#utility.yul\":22657:22788   */\n      tag_593\n        /* \"#utility.yul\":22783:22787   */\n      dup2\n        /* \"#utility.yul\":22657:22788   */\n      tag_517\n      jump\t// in\n    tag_593:\n        /* \"#utility.yul\":22649:22788   */\n      swap1\n      pop\n        /* \"#utility.yul\":22547:22795   */\n      swap2\n      swap1\n      pop\n      jump\t// out\n        /* \"#utility.yul\":22801:23220   */\n    tag_120:\n      0x00\n        /* \"#utility.yul\":23005:23007   */\n      0x20\n        /* \"#utility.yul\":22994:23003   */\n      dup3\n        /* \"#utility.yul\":22990:23008   */\n      add\n        /* \"#utility.yul\":22982:23008   */\n      swap1\n      pop\n        /* \"#utility.yul\":23054:23063   */\n      dup2\n        /* \"#utility.yul\":23048:23052   */\n      dup2\n        /* \"#utility.yul\":23044:23064   */\n      sub\n        /* \"#utility.yul\":23040:23041   */\n      0x00\n        /* \"#utility.yul\":23029:23038   */\n      dup4\n        /* \"#utility.yul\":23025:23042   */\n      add\n        /* \"#utility.yul\":23018:23065   */\n      mstore\n        /* \"#utility.yul\":23082:23213   */\n      tag_595\n        /* \"#utility.yul\":23208:23212   */\n      dup2\n        /* \"#utility.yul\":23082:23213   */\n      tag_520\n      jump\t// in\n    tag_595:\n        /* \"#utility.yul\":23074:23213   */\n      swap1\n      pop\n        /* \"#utility.yul\":22972:23220   */\n      swap2\n      swap1\n      pop\n      jump\t// out\n        /* \"#utility.yul\":23226:23645   */\n    tag_173:\n      0x00\n        /* \"#utility.yul\":23430:23432   */\n      0x20\n        /* \"#utility.yul\":23419:23428   */\n      dup3\n        /* \"#utility.yul\":23415:23433   */\n      add\n        /* \"#utility.yul\":23407:23433   */\n      swap1\n      pop\n        /* \"#utility.yul\":23479:23488   */\n      dup2\n        /* \"#utility.yul\":23473:23477   */\n      dup2\n        /* \"#utility.yul\":23469:23489   */\n      sub\n        /* \"#utility.yul\":23465:23466   */\n      0x00\n        /* \"#utility.yul\":23454:23463   */\n      dup4\n        /* \"#utility.yul\":23450:23467   */\n      add\n        /* \"#utility.yul\":23443:23490   */\n      mstore\n        /* \"#utility.yul\":23507:23638   */\n      tag_597\n        /* \"#utility.yul\":23633:23637   */\n      dup2\n        /* \"#utility.yul\":23507:23638   */\n      tag_523\n      jump\t// in\n    tag_597:\n        /* \"#utility.yul\":23499:23638   */\n      swap1\n      pop\n        /* \"#utility.yul\":23397:23645   */\n      swap2\n      swap1\n      pop\n      jump\t// out\n        /* \"#utility.yul\":23651:24070   */\n    tag_318:\n      0x00\n        /* \"#utility.yul\":23855:23857   */\n      0x20\n        /* \"#utility.yul\":23844:23853   */\n      dup3\n        /* \"#utility.yul\":23840:23858   */\n      add\n        /* \"#utility.yul\":23832:23858   */\n      swap1\n      pop\n        /* \"#utility.yul\":23904:23913   */\n      dup2\n        /* \"#utility.yul\":23898:23902   */\n      dup2\n        /* \"#utility.yul\":23894:23914   */\n      sub\n        /* \"#utility.yul\":23890:23891   */\n      0x00\n        /* \"#utility.yul\":23879:23888   */\n      dup4\n        /* \"#utility.yul\":23875:23892   */\n      add\n        /* \"#utility.yul\":23868:23915   */\n      mstore\n        /* \"#utility.yul\":23932:24063   */\n      tag_599\n        /* \"#utility.yul\":24058:24062   */\n      dup2\n        /* \"#utility.yul\":23932:24063   */\n      tag_526\n      jump\t// in\n    tag_599:\n        /* \"#utility.yul\":23924:24063   */\n      swap1\n      pop\n        /* \"#utility.yul\":23822:24070   */\n      swap2\n      swap1\n      pop\n      jump\t// out\n        /* \"#utility.yul\":24076:24495   */\n    tag_239:\n      0x00\n        /* \"#utility.yul\":24280:24282   */\n      0x20\n        /* \"#utility.yul\":24269:24278   */\n      dup3\n        /* \"#utility.yul\":24265:24283   */\n      add\n        /* \"#utility.yul\":24257:24283   */\n      swap1\n      pop\n        /* \"#utility.yul\":24329:24338   */\n      dup2\n        /* \"#utility.yul\":24323:24327   */\n      dup2\n        /* \"#utility.yul\":24319:24339   */\n      sub\n        /* \"#utility.yul\":24315:24316   */\n      0x00\n        /* \"#utility.yul\":24304:24313   */\n      dup4\n        /* \"#utility.yul\":24300:24317   */\n      add\n        /* \"#utility.yul\":24293:24340   */\n      mstore\n        /* \"#utility.yul\":24357:24488   */\n      tag_601\n        /* \"#utility.yul\":24483:24487   */\n      dup2\n        /* \"#utility.yul\":24357:24488   */\n      tag_529\n      jump\t// in\n    tag_601:\n        /* \"#utility.yul\":24349:24488   */\n      swap1\n      pop\n        /* \"#utility.yul\":24247:24495   */\n      swap2\n      swap1\n      pop\n      jump\t// out\n        /* \"#utility.yul\":24501:24920   */\n    tag_247:\n      0x00\n        /* \"#utility.yul\":24705:24707   */\n      0x20\n        /* \"#utility.yul\":24694:24703   */\n      dup3\n        /* \"#utility.yul\":24690:24708   */\n      add\n        /* \"#utility.yul\":24682:24708   */\n      swap1\n      pop\n        /* \"#utility.yul\":24754:24763   */\n      dup2\n        /* \"#utility.yul\":24748:24752   */\n      dup2\n        /* \"#utility.yul\":24744:24764   */\n      sub\n        /* \"#utility.yul\":24740:24741   */\n      0x00\n        /* \"#utility.yul\":24729:24738   */\n      dup4\n        /* \"#utility.yul\":24725:24742   */\n      add\n        /* \"#utility.yul\":24718:24765   */\n      mstore\n        /* \"#utility.yul\":24782:24913   */\n      tag_603\n        /* \"#utility.yul\":24908:24912   */\n      dup2\n        /* \"#utility.yul\":24782:24913   */\n      tag_532\n      jump\t// in\n    tag_603:\n        /* \"#utility.yul\":24774:24913   */\n      swap1\n      pop\n        /* \"#utility.yul\":24672:24920   */\n      swap2\n      swap1\n      pop\n      jump\t// out\n        /* \"#utility.yul\":24926:25345   */\n    tag_170:\n      0x00\n        /* \"#utility.yul\":25130:25132   */\n      0x20\n        /* \"#utility.yul\":25119:25128   */\n      dup3\n        /* \"#utility.yul\":25115:25133   */\n      add\n        /* \"#utility.yul\":25107:25133   */\n      swap1\n      pop\n        /* \"#utility.yul\":25179:25188   */\n      dup2\n        /* \"#utility.yul\":25173:25177   */\n      dup2\n        /* \"#utility.yul\":25169:25189   */\n      sub\n        /* \"#utility.yul\":25165:25166   */\n      0x00\n        /* \"#utility.yul\":25154:25163   */\n      dup4\n        /* \"#utility.yul\":25150:25167   */\n      add\n        /* \"#utility.yul\":25143:25190   */\n      mstore\n        /* \"#utility.yul\":25207:25338   */\n      tag_605\n        /* \"#utility.yul\":25333:25337   */\n      dup2\n        /* \"#utility.yul\":25207:25338   */\n      tag_535\n      jump\t// in\n    tag_605:\n        /* \"#utility.yul\":25199:25338   */\n      swap1\n      pop\n        /* \"#utility.yul\":25097:25345   */\n      swap2\n      swap1\n      pop\n      jump\t// out\n        /* \"#utility.yul\":25351:25770   */\n    tag_205:\n      0x00\n        /* \"#utility.yul\":25555:25557   */\n      0x20\n        /* \"#utility.yul\":25544:25553   */\n      dup3\n        /* \"#utility.yul\":25540:25558   */\n      add\n        /* \"#utility.yul\":25532:25558   */\n      swap1\n      pop\n        /* \"#utility.yul\":25604:25613   */\n      dup2\n        /* \"#utility.yul\":25598:25602   */\n      dup2\n        /* \"#utility.yul\":25594:25614   */\n      sub\n        /* \"#utility.yul\":25590:25591   */\n      0x00\n        /* \"#utility.yul\":25579:25588   */\n      dup4\n        /* \"#utility.yul\":25575:25592   */\n      add\n        /* \"#utility.yul\":25568:25615   */\n      mstore\n        /* \"#utility.yul\":25632:25763   */\n      tag_607\n        /* \"#utility.yul\":25758:25762   */\n      dup2\n        /* \"#utility.yul\":25632:25763   */\n      tag_538\n      jump\t// in\n    tag_607:\n        /* \"#utility.yul\":25624:25763   */\n      swap1\n      pop\n        /* \"#utility.yul\":25522:25770   */\n      swap2\n      swap1\n      pop\n      jump\t// out\n        /* \"#utility.yul\":25776:26195   */\n    tag_233:\n      0x00\n        /* \"#utility.yul\":25980:25982   */\n      0x20\n        /* \"#utility.yul\":25969:25978   */\n      dup3\n        /* \"#utility.yul\":25965:25983   */\n      add\n        /* \"#utility.yul\":25957:25983   */\n      swap1\n      pop\n        /* \"#utility.yul\":26029:26038   */\n      dup2\n        /* \"#utility.yul\":26023:26027   */\n      dup2\n        /* \"#utility.yul\":26019:26039   */\n      sub\n        /* \"#utility.yul\":26015:26016   */\n      0x00\n        /* \"#utility.yul\":26004:26013   */\n      dup4\n        /* \"#utility.yul\":26000:26017   */\n      add\n        /* \"#utility.yul\":25993:26040   */\n      mstore\n        /* \"#utility.yul\":26057:26188   */\n      tag_609\n        /* \"#utility.yul\":26183:26187   */\n      dup2\n        /* \"#utility.yul\":26057:26188   */\n      tag_541\n      jump\t// in\n    tag_609:\n        /* \"#utility.yul\":26049:26188   */\n      swap1\n      pop\n        /* \"#utility.yul\":25947:26195   */\n      swap2\n      swap1\n      pop\n      jump\t// out\n        /* \"#utility.yul\":26201:26620   */\n    tag_236:\n      0x00\n        /* \"#utility.yul\":26405:26407   */\n      0x20\n        /* \"#utility.yul\":26394:26403   */\n      dup3\n        /* \"#utility.yul\":26390:26408   */\n      add\n        /* \"#utility.yul\":26382:26408   */\n      swap1\n      pop\n        /* \"#utility.yul\":26454:26463   */\n      dup2\n        /* \"#utility.yul\":26448:26452   */\n      dup2\n        /* \"#utility.yul\":26444:26464   */\n      sub\n        /* \"#utility.yul\":26440:26441   */\n      0x00\n        /* \"#utility.yul\":26429:26438   */\n      dup4\n        /* \"#utility.yul\":26425:26442   */\n      add\n        /* \"#utility.yul\":26418:26465   */\n      mstore\n        /* \"#utility.yul\":26482:26613   */\n      tag_611\n        /* \"#utility.yul\":26608:26612   */\n      dup2\n        /* \"#utility.yul\":26482:26613   */\n      tag_544\n      jump\t// in\n    tag_611:\n        /* \"#utility.yul\":26474:26613   */\n      swap1\n      pop\n        /* \"#utility.yul\":26372:26620   */\n      swap2\n      swap1\n      pop\n      jump\t// out\n        /* \"#utility.yul\":26626:27045   */\n    tag_310:\n      0x00\n        /* \"#utility.yul\":26830:26832   */\n      0x20\n        /* \"#utility.yul\":26819:26828   */\n      dup3\n        /* \"#utility.yul\":26815:26833   */\n      add\n        /* \"#utility.yul\":26807:26833   */\n      swap1\n      pop\n        /* \"#utility.yul\":26879:26888   */\n      dup2\n        /* \"#utility.yul\":26873:26877   */\n      dup2\n        /* \"#utility.yul\":26869:26889   */\n      sub\n        /* \"#utility.yul\":26865:26866   */\n      0x00\n        /* \"#utility.yul\":26854:26863   */\n      dup4\n        /* \"#utility.yul\":26850:26867   */\n      add\n        /* \"#utility.yul\":26843:26890   */\n      mstore\n        /* \"#utility.yul\":26907:27038   */\n      tag_613\n        /* \"#utility.yul\":27033:27037   */\n      dup2\n        /* \"#utility.yul\":26907:27038   */\n      tag_547\n      jump\t// in\n    tag_613:\n        /* \"#utility.yul\":26899:27038   */\n      swap1\n      pop\n        /* \"#utility.yul\":26797:27045   */\n      swap2\n      swap1\n      pop\n      jump\t// out\n        /* \"#utility.yul\":27051:27470   */\n    tag_197:\n      0x00\n        /* \"#utility.yul\":27255:27257   */\n      0x20\n        /* \"#utility.yul\":27244:27253   */\n      dup3\n        /* \"#utility.yul\":27240:27258   */\n      add\n        /* \"#utility.yul\":27232:27258   */\n      swap1\n      pop\n        /* \"#utility.yul\":27304:27313   */\n      dup2\n        /* \"#utility.yul\":27298:27302   */\n      dup2\n        /* \"#utility.yul\":27294:27314   */\n      sub\n        /* \"#utility.yul\":27290:27291   */\n      0x00\n        /* \"#utility.yul\":27279:27288   */\n      dup4\n        /* \"#utility.yul\":27275:27292   */\n      add\n        /* \"#utility.yul\":27268:27315   */\n      mstore\n        /* \"#utility.yul\":27332:27463   */\n      tag_615\n        /* \"#utility.yul\":27458:27462   */\n      dup2\n        /* \"#utility.yul\":27332:27463   */\n      tag_550\n      jump\t// in\n    tag_615:\n        /* \"#utility.yul\":27324:27463   */\n      swap1\n      pop\n        /* \"#utility.yul\":27222:27470   */\n      swap2\n      swap1\n      pop\n      jump\t// out\n        /* \"#utility.yul\":27476:27698   */\n    tag_77:\n      0x00\n        /* \"#utility.yul\":27607:27609   */\n      0x20\n        /* \"#utility.yul\":27596:27605   */\n      dup3\n        /* \"#utility.yul\":27592:27610   */\n      add\n        /* \"#utility.yul\":27584:27610   */\n      swap1\n      pop\n        /* \"#utility.yul\":27620:27691   */\n      tag_617\n        /* \"#utility.yul\":27688:27689   */\n      0x00\n        /* \"#utility.yul\":27677:27686   */\n      dup4\n        /* \"#utility.yul\":27673:27690   */\n      add\n        /* \"#utility.yul\":27664:27670   */\n      dup5\n        /* \"#utility.yul\":27620:27691   */\n      tag_560\n      jump\t// in\n    tag_617:\n        /* \"#utility.yul\":27574:27698   */\n      swap3\n      swap2\n      pop\n      pop\n      jump\t// out\n        /* \"#utility.yul\":27704:27987   */\n    tag_357:\n      0x00\n        /* \"#utility.yul\":27770:27772   */\n      0x40\n        /* \"#utility.yul\":27764:27773   */\n      mload\n        /* \"#utility.yul\":27754:27773   */\n      swap1\n      pop\n        /* \"#utility.yul\":27812:27816   */\n      dup2\n        /* \"#utility.yul\":27804:27810   */\n      dup2\n        /* \"#utility.yul\":27800:27817   */\n      add\n        /* \"#utility.yul\":27919:27925   */\n      dup2\n        /* \"#utility.yul\":27907:27917   */\n      dup2\n        /* \"#utility.yul\":27904:27926   */\n      lt\n        /* \"#utility.yul\":27883:27901   */\n      0xffffffffffffffff\n        /* \"#utility.yul\":27871:27881   */\n      dup3\n        /* \"#utility.yul\":27868:27902   */\n      gt\n        /* \"#utility.yul\":27865:27927   */\n      or\n        /* \"#utility.yul\":27862:27864   */\n      iszero\n      tag_619\n      jumpi\n        /* \"#utility.yul\":27930:27948   */\n      tag_620\n      tag_621\n      jump\t// in\n    tag_620:\n        /* \"#utility.yul\":27862:27864   */\n    tag_619:\n        /* \"#utility.yul\":27970:27980   */\n      dup1\n        /* \"#utility.yul\":27966:27968   */\n      0x40\n        /* \"#utility.yul\":27959:27981   */\n      mstore\n        /* \"#utility.yul\":27744:27987   */\n      pop\n      swap2\n      swap1\n      pop\n      jump\t// out\n        /* \"#utility.yul\":27993:28304   */\n    tag_356:\n      0x00\n        /* \"#utility.yul\":28160:28178   */\n      0xffffffffffffffff\n        /* \"#utility.yul\":28152:28158   */\n      dup3\n        /* \"#utility.yul\":28149:28179   */\n      gt\n        /* \"#utility.yul\":28146:28148   */\n      iszero\n      tag_623\n      jumpi\n        /* \"#utility.yul\":28182:28200   */\n      tag_624\n      tag_621\n      jump\t// in\n    tag_624:\n        /* \"#utility.yul\":28146:28148   */\n    tag_623:\n        /* \"#utility.yul\":28232:28236   */\n      0x20\n        /* \"#utility.yul\":28224:28230   */\n      dup3\n        /* \"#utility.yul\":28220:28237   */\n      mul\n        /* \"#utility.yul\":28212:28237   */\n      swap1\n      pop\n        /* \"#utility.yul\":28292:28296   */\n      0x20\n        /* \"#utility.yul\":28286:28290   */\n      dup2\n        /* \"#utility.yul\":28282:28297   */\n      add\n        /* \"#utility.yul\":28274:28297   */\n      swap1\n      pop\n        /* \"#utility.yul\":28075:28304   */\n      swap2\n      swap1\n      pop\n      jump\t// out\n        /* \"#utility.yul\":28310:28642   */\n    tag_368:\n      0x00\n        /* \"#utility.yul\":28462:28480   */\n      0xffffffffffffffff\n        /* \"#utility.yul\":28454:28460   */\n      dup3\n        /* \"#utility.yul\":28451:28481   */\n      gt\n        /* \"#utility.yul\":28448:28450   */\n      iszero\n      tag_626\n      jumpi\n        /* \"#utility.yul\":28484:28502   */\n      tag_627\n      tag_621\n      jump\t// in\n    tag_627:\n        /* \"#utility.yul\":28448:28450   */\n    tag_626:\n        /* \"#utility.yul\":28569:28573   */\n      0x1f\n        /* \"#utility.yul\":28565:28574   */\n      not\n        /* \"#utility.yul\":28558:28562   */\n      0x1f\n        /* \"#utility.yul\":28550:28556   */\n      dup4\n        /* \"#utility.yul\":28546:28563   */\n      add\n        /* \"#utility.yul\":28542:28575   */\n      and\n        /* \"#utility.yul\":28534:28575   */\n      swap1\n      pop\n        /* \"#utility.yul\":28630:28634   */\n      0x20\n        /* \"#utility.yul\":28624:28628   */\n      dup2\n        /* \"#utility.yul\":28620:28635   */\n      add\n        /* \"#utility.yul\":28612:28635   */\n      swap1\n      pop\n        /* \"#utility.yul\":28377:28642   */\n      swap2\n      swap1\n      pop\n      jump\t// out\n        /* \"#utility.yul\":28648:28808   */\n    tag_438:\n      0x00\n        /* \"#utility.yul\":28766:28769   */\n      dup2\n        /* \"#utility.yul\":28758:28769   */\n      swap1\n      pop\n        /* \"#utility.yul\":28796:28800   */\n      0x20\n        /* \"#utility.yul\":28791:28794   */\n      dup3\n        /* \"#utility.yul\":28787:28801   */\n      add\n        /* \"#utility.yul\":28779:28801   */\n      swap1\n      pop\n        /* \"#utility.yul\":28748:28808   */\n      swap2\n      swap1\n      pop\n      jump\t// out\n        /* \"#utility.yul\":28814:28946   */\n    tag_452:\n      0x00\n        /* \"#utility.yul\":28904:28907   */\n      dup2\n        /* \"#utility.yul\":28896:28907   */\n      swap1\n      pop\n        /* \"#utility.yul\":28934:28938   */\n      0x20\n        /* \"#utility.yul\":28929:28932   */\n      dup3\n        /* \"#utility.yul\":28925:28939   */\n      add\n        /* \"#utility.yul\":28917:28939   */\n      swap1\n      pop\n        /* \"#utility.yul\":28886:28946   */\n      swap2\n      swap1\n      pop\n      jump\t// out\n        /* \"#utility.yul\":28952:29108   */\n    tag_476:\n      0x00\n        /* \"#utility.yul\":29039:29042   */\n      dup2\n        /* \"#utility.yul\":29031:29042   */\n      swap1\n      pop\n        /* \"#utility.yul\":29062:29065   */\n      dup2\n        /* \"#utility.yul\":29059:29060   */\n      0x00\n        /* \"#utility.yul\":29052:29066   */\n      mstore\n        /* \"#utility.yul\":29096:29100   */\n      0x20\n        /* \"#utility.yul\":29093:29094   */\n      0x00\n        /* \"#utility.yul\":29083:29101   */\n      keccak256\n        /* \"#utility.yul\":29075:29101   */\n      swap1\n      pop\n        /* \"#utility.yul\":29021:29108   */\n      swap2\n      swap1\n      pop\n      jump\t// out\n        /* \"#utility.yul\":29114:29256   */\n    tag_434:\n      0x00\n        /* \"#utility.yul\":29243:29248   */\n      dup2\n        /* \"#utility.yul\":29237:29249   */\n      mload\n        /* \"#utility.yul\":29227:29249   */\n      swap1\n      pop\n        /* \"#utility.yul\":29216:29256   */\n      swap2\n      swap1\n      pop\n      jump\t// out\n        /* \"#utility.yul\":29262:29376   */\n    tag_448:\n      0x00\n        /* \"#utility.yul\":29363:29368   */\n      dup2\n        /* \"#utility.yul\":29357:29369   */\n      mload\n        /* \"#utility.yul\":29347:29369   */\n      swap1\n      pop\n        /* \"#utility.yul\":29336:29376   */\n      swap2\n      swap1\n      pop\n      jump\t// out\n        /* \"#utility.yul\":29382:29493   */\n    tag_473:\n      0x00\n        /* \"#utility.yul\":29480:29485   */\n      dup2\n        /* \"#utility.yul\":29474:29486   */\n      sload\n        /* \"#utility.yul\":29464:29486   */\n      swap1\n      pop\n        /* \"#utility.yul\":29453:29493   */\n      swap2\n      swap1\n      pop\n      jump\t// out\n        /* \"#utility.yul\":29499:29598   */\n    tag_492:\n      0x00\n        /* \"#utility.yul\":29585:29590   */\n      dup2\n        /* \"#utility.yul\":29579:29591   */\n      mload\n        /* \"#utility.yul\":29569:29591   */\n      swap1\n      pop\n        /* \"#utility.yul\":29558:29598   */\n      swap2\n      swap1\n      pop\n      jump\t// out\n        /* \"#utility.yul\":29604:29745   */\n    tag_444:\n      0x00\n        /* \"#utility.yul\":29734:29738   */\n      0x20\n        /* \"#utility.yul\":29729:29732   */\n      dup3\n        /* \"#utility.yul\":29725:29739   */\n      add\n        /* \"#utility.yul\":29717:29739   */\n      swap1\n      pop\n        /* \"#utility.yul\":29707:29745   */\n      swap2\n      swap1\n      pop\n      jump\t// out\n        /* \"#utility.yul\":29751:29864   */\n    tag_458:\n      0x00\n        /* \"#utility.yul\":29853:29857   */\n      0x20\n        /* \"#utility.yul\":29848:29851   */\n      dup3\n        /* \"#utility.yul\":29844:29858   */\n      add\n        /* \"#utility.yul\":29836:29858   */\n      swap1\n      pop\n        /* \"#utility.yul\":29826:29864   */\n      swap2\n      swap1\n      pop\n      jump\t// out\n        /* \"#utility.yul\":29870:29980   */\n    tag_484:\n      0x00\n        /* \"#utility.yul\":29969:29973   */\n      0x01\n        /* \"#utility.yul\":29964:29967   */\n      dup3\n        /* \"#utility.yul\":29960:29974   */\n      add\n        /* \"#utility.yul\":29952:29974   */\n      swap1\n      pop\n        /* \"#utility.yul\":29942:29980   */\n      swap2\n      swap1\n      pop\n      jump\t// out\n        /* \"#utility.yul\":29986:30198   */\n    tag_436:\n      0x00\n        /* \"#utility.yul\":30147:30153   */\n      dup3\n        /* \"#utility.yul\":30142:30145   */\n      dup3\n        /* \"#utility.yul\":30135:30154   */\n      mstore\n        /* \"#utility.yul\":30187:30191   */\n      0x20\n        /* \"#utility.yul\":30182:30185   */\n      dup3\n        /* \"#utility.yul\":30178:30192   */\n      add\n        /* \"#utility.yul\":30163:30192   */\n      swap1\n      pop\n        /* \"#utility.yul\":30125:30198   */\n      swap3\n      swap2\n      pop\n      pop\n      jump\t// out\n        /* \"#utility.yul\":30204:30378   */\n    tag_450:\n      0x00\n        /* \"#utility.yul\":30327:30333   */\n      dup3\n        /* \"#utility.yul\":30322:30325   */\n      dup3\n        /* \"#utility.yul\":30315:30334   */\n      mstore\n        /* \"#utility.yul\":30367:30371   */\n      0x20\n        /* \"#utility.yul\":30362:30365   */\n      dup3\n        /* \"#utility.yul\":30358:30372   */\n      add\n        /* \"#utility.yul\":30343:30372   */\n      swap1\n      pop\n        /* \"#utility.yul\":30305:30378   */\n      swap3\n      swap2\n      pop\n      pop\n      jump\t// out\n        /* \"#utility.yul\":30384:30568   */\n    tag_463:\n      0x00\n        /* \"#utility.yul\":30517:30523   */\n      dup3\n        /* \"#utility.yul\":30512:30515   */\n      dup3\n        /* \"#utility.yul\":30505:30524   */\n      mstore\n        /* \"#utility.yul\":30557:30561   */\n      0x20\n        /* \"#utility.yul\":30552:30555   */\n      dup3\n        /* \"#utility.yul\":30548:30562   */\n      add\n        /* \"#utility.yul\":30533:30562   */\n      swap1\n      pop\n        /* \"#utility.yul\":30495:30568   */\n      swap3\n      swap2\n      pop\n      pop\n      jump\t// out\n        /* \"#utility.yul\":30574:30733   */\n    tag_494:\n      0x00\n        /* \"#utility.yul\":30682:30688   */\n      dup3\n        /* \"#utility.yul\":30677:30680   */\n      dup3\n        /* \"#utility.yul\":30670:30689   */\n      mstore\n        /* \"#utility.yul\":30722:30726   */\n      0x20\n        /* \"#utility.yul\":30717:30720   */\n      dup3\n        /* \"#utility.yul\":30713:30727   */\n      add\n        /* \"#utility.yul\":30698:30727   */\n      swap1\n      pop\n        /* \"#utility.yul\":30660:30733   */\n      swap3\n      swap2\n      pop\n      pop\n      jump\t// out\n        /* \"#utility.yul\":30739:30908   */\n    tag_501:\n      0x00\n        /* \"#utility.yul\":30857:30863   */\n      dup3\n        /* \"#utility.yul\":30852:30855   */\n      dup3\n        /* \"#utility.yul\":30845:30864   */\n      mstore\n        /* \"#utility.yul\":30897:30901   */\n      0x20\n        /* \"#utility.yul\":30892:30895   */\n      dup3\n        /* \"#utility.yul\":30888:30902   */\n      add\n        /* \"#utility.yul\":30873:30902   */\n      swap1\n      pop\n        /* \"#utility.yul\":30835:30908   */\n      swap3\n      swap2\n      pop\n      pop\n      jump\t// out\n        /* \"#utility.yul\":30914:31219   */\n    tag_185:\n      0x00\n        /* \"#utility.yul\":30973:30993   */\n      tag_644\n        /* \"#utility.yul\":30991:30992   */\n      dup3\n        /* \"#utility.yul\":30973:30993   */\n      tag_559\n      jump\t// in\n    tag_644:\n        /* \"#utility.yul\":30968:30993   */\n      swap2\n      pop\n        /* \"#utility.yul\":31007:31027   */\n      tag_645\n        /* \"#utility.yul\":31025:31026   */\n      dup4\n        /* \"#utility.yul\":31007:31027   */\n      tag_559\n      jump\t// in\n    tag_645:\n        /* \"#utility.yul\":31002:31027   */\n      swap3\n      pop\n        /* \"#utility.yul\":31161:31162   */\n      dup3\n        /* \"#utility.yul\":31093:31159   */\n      0xffffffffffffffffffffffffffffffffffffffffffffffffffffffffffffffff\n        /* \"#utility.yul\":31089:31163   */\n      sub\n        /* \"#utility.yul\":31086:31087   */\n      dup3\n        /* \"#utility.yul\":31083:31164   */\n      gt\n        /* \"#utility.yul\":31080:31082   */\n      iszero\n      tag_646\n      jumpi\n        /* \"#utility.yul\":31167:31185   */\n      tag_647\n      tag_648\n      jump\t// in\n    tag_647:\n        /* \"#utility.yul\":31080:31082   */\n    tag_646:\n        /* \"#utility.yul\":31211:31212   */\n      dup3\n        /* \"#utility.yul\":31208:31209   */\n      dup3\n        /* \"#utility.yul\":31204:31213   */\n      add\n        /* \"#utility.yul\":31197:31213   */\n      swap1\n      pop\n        /* \"#utility.yul\":30958:31219   */\n      swap3\n      swap2\n      pop\n      pop\n      jump\t// out\n        /* \"#utility.yul\":31225:31410   */\n    tag_209:\n      0x00\n        /* \"#utility.yul\":31282:31302   */\n      tag_650\n        /* \"#utility.yul\":31300:31301   */\n      dup3\n        /* \"#utility.yul\":31282:31302   */\n      tag_559\n      jump\t// in\n    tag_650:\n        /* \"#utility.yul\":31277:31302   */\n      swap2\n      pop\n        /* \"#utility.yul\":31316:31336   */\n      tag_651\n        /* \"#utility.yul\":31334:31335   */\n      dup4\n        /* \"#utility.yul\":31316:31336   */\n      tag_559\n      jump\t// in\n    tag_651:\n        /* \"#utility.yul\":31311:31336   */\n      swap3\n      pop\n        /* \"#utility.yul\":31355:31356   */\n      dup3\n        /* \"#utility.yul\":31345:31347   */\n      tag_652\n      jumpi\n        /* \"#utility.yul\":31360:31378   */\n      tag_653\n      tag_654\n      jump\t// in\n    tag_653:\n        /* \"#utility.yul\":31345:31347   */\n    tag_652:\n        /* \"#utility.yul\":31402:31403   */\n      dup3\n        /* \"#utility.yul\":31399:31400   */\n      dup3\n        /* \"#utility.yul\":31395:31404   */\n      div\n        /* \"#utility.yul\":31390:31404   */\n      swap1\n      pop\n        /* \"#utility.yul\":31267:31410   */\n      swap3\n      swap2\n      pop\n      pop\n      jump\t// out\n        /* \"#utility.yul\":31416:31764   */\n    tag_207:\n      0x00\n        /* \"#utility.yul\":31479:31499   */\n      tag_656\n        /* \"#utility.yul\":31497:31498   */\n      dup3\n        /* \"#utility.yul\":31479:31499   */\n      tag_559\n      jump\t// in\n    tag_656:\n        /* \"#utility.yul\":31474:31499   */\n      swap2\n      pop\n        /* \"#utility.yul\":31513:31533   */\n      tag_657\n        /* \"#utility.yul\":31531:31532   */\n      dup4\n        /* \"#utility.yul\":31513:31533   */\n      tag_559\n      jump\t// in\n    tag_657:\n        /* \"#utility.yul\":31508:31533   */\n      swap3\n      pop\n        /* \"#utility.yul\":31701:31702   */\n      dup2\n        /* \"#utility.yul\":31633:31699   */\n      0xffffffffffffffffffffffffffffffffffffffffffffffffffffffffffffffff\n        /* \"#utility.yul\":31629:31703   */\n      div\n        /* \"#utility.yul\":31626:31627   */\n      dup4\n        /* \"#utility.yul\":31623:31704   */\n      gt\n        /* \"#utility.yul\":31618:31619   */\n      dup3\n        /* \"#utility.yul\":31611:31620   */\n      iszero\n        /* \"#utility.yul\":31604:31621   */\n      iszero\n        /* \"#utility.yul\":31600:31705   */\n      and\n        /* \"#utility.yul\":31597:31599   */\n      iszero\n      tag_658\n      jumpi\n        /* \"#utility.yul\":31708:31726   */\n      tag_659\n      tag_648\n      jump\t// in\n    tag_659:\n        /* \"#utility.yul\":31597:31599   */\n    tag_658:\n        /* \"#utility.yul\":31756:31757   */\n      dup3\n        /* \"#utility.yul\":31753:31754   */\n      dup3\n        /* \"#utility.yul\":31749:31758   */\n      mul\n        /* \"#utility.yul\":31738:31758   */\n      swap1\n      pop\n        /* \"#utility.yul\":31464:31764   */\n      swap3\n      swap2\n      pop\n      pop\n      jump\t// out\n        /* \"#utility.yul\":31770:31961   */\n    tag_213:\n      0x00\n        /* \"#utility.yul\":31830:31850   */\n      tag_661\n        /* \"#utility.yul\":31848:31849   */\n      dup3\n        /* \"#utility.yul\":31830:31850   */\n      tag_559\n      jump\t// in\n    tag_661:\n        /* \"#utility.yul\":31825:31850   */\n      swap2\n      pop\n        /* \"#utility.yul\":31864:31884   */\n      tag_662\n        /* \"#utility.yul\":31882:31883   */\n      dup4\n        /* \"#utility.yul\":31864:31884   */\n      tag_559\n      jump\t// in\n    tag_662:\n        /* \"#utility.yul\":31859:31884   */\n      swap3\n      pop\n        /* \"#utility.yul\":31903:31904   */\n      dup3\n        /* \"#utility.yul\":31900:31901   */\n      dup3\n        /* \"#utility.yul\":31897:31905   */\n      lt\n        /* \"#utility.yul\":31894:31896   */\n      iszero\n      tag_663\n      jumpi\n        /* \"#utility.yul\":31908:31926   */\n      tag_664\n      tag_648\n      jump\t// in\n    tag_664:\n        /* \"#utility.yul\":31894:31896   */\n    tag_663:\n        /* \"#utility.yul\":31953:31954   */\n      dup3\n        /* \"#utility.yul\":31950:31951   */\n      dup3\n        /* \"#utility.yul\":31946:31955   */\n      sub\n        /* \"#utility.yul\":31938:31955   */\n      swap1\n      pop\n        /* \"#utility.yul\":31815:31961   */\n      swap3\n      swap2\n      pop\n      pop\n      jump\t// out\n        /* \"#utility.yul\":31967:32057   */\n    tag_665:\n      0x00\n        /* \"#utility.yul\":32046:32051   */\n      dup2\n        /* \"#utility.yul\":32035:32051   */\n      swap1\n      pop\n        /* \"#utility.yul\":32025:32057   */\n      swap2\n      swap1\n      pop\n      jump\t// out\n        /* \"#utility.yul\":32063:32159   */\n    tag_430:\n      0x00\n        /* \"#utility.yul\":32129:32153   */\n      tag_668\n        /* \"#utility.yul\":32147:32152   */\n      dup3\n        /* \"#utility.yul\":32129:32153   */\n      tag_669\n      jump\t// in\n    tag_668:\n        /* \"#utility.yul\":32118:32153   */\n      swap1\n      pop\n        /* \"#utility.yul\":32108:32159   */\n      swap2\n      swap1\n      pop\n      jump\t// out\n        /* \"#utility.yul\":32165:32255   */\n    tag_488:\n      0x00\n        /* \"#utility.yul\":32242:32247   */\n      dup2\n        /* \"#utility.yul\":32235:32248   */\n      iszero\n        /* \"#utility.yul\":32228:32249   */\n      iszero\n        /* \"#utility.yul\":32217:32249   */\n      swap1\n      pop\n        /* \"#utility.yul\":32207:32255   */\n      swap2\n      swap1\n      pop\n      jump\t// out\n        /* \"#utility.yul\":32261:32387   */\n    tag_669:\n      0x00\n        /* \"#utility.yul\":32338:32380   */\n      0xffffffffffffffffffffffffffffffffffffffff\n        /* \"#utility.yul\":32331:32336   */\n      dup3\n        /* \"#utility.yul\":32327:32381   */\n      and\n        /* \"#utility.yul\":32316:32381   */\n      swap1\n      pop\n        /* \"#utility.yul\":32306:32387   */\n      swap2\n      swap1\n      pop\n      jump\t// out\n        /* \"#utility.yul\":32393:32470   */\n    tag_559:\n      0x00\n        /* \"#utility.yul\":32459:32464   */\n      dup2\n        /* \"#utility.yul\":32448:32464   */\n      swap1\n      pop\n        /* \"#utility.yul\":32438:32470   */\n      swap2\n      swap1\n      pop\n      jump\t// out\n        /* \"#utility.yul\":32476:32783   */\n    tag_371:\n        /* \"#utility.yul\":32544:32545   */\n      0x00\n        /* \"#utility.yul\":32554:32667   */\n    tag_674:\n        /* \"#utility.yul\":32568:32574   */\n      dup4\n        /* \"#utility.yul\":32565:32566   */\n      dup2\n        /* \"#utility.yul\":32562:32575   */\n      lt\n        /* \"#utility.yul\":32554:32667   */\n      iszero\n      tag_676\n      jumpi\n        /* \"#utility.yul\":32653:32654   */\n      dup1\n        /* \"#utility.yul\":32648:32651   */\n      dup3\n        /* \"#utility.yul\":32644:32655   */\n      add\n        /* \"#utility.yul\":32638:32656   */\n      mload\n        /* \"#utility.yul\":32634:32635   */\n      dup2\n        /* \"#utility.yul\":32629:32632   */\n      dup5\n        /* \"#utility.yul\":32625:32636   */\n      add\n        /* \"#utility.yul\":32618:32657   */\n      mstore\n        /* \"#utility.yul\":32590:32592   */\n      0x20\n        /* \"#utility.yul\":32587:32588   */\n      dup2\n        /* \"#utility.yul\":32583:32593   */\n      add\n        /* \"#utility.yul\":32578:32593   */\n      swap1\n      pop\n        /* \"#utility.yul\":32554:32667   */\n      jump(tag_674)\n    tag_676:\n        /* \"#utility.yul\":32685:32691   */\n      dup4\n        /* \"#utility.yul\":32682:32683   */\n      dup2\n        /* \"#utility.yul\":32679:32692   */\n      gt\n        /* \"#utility.yul\":32676:32678   */\n      iszero\n      tag_677\n      jumpi\n        /* \"#utility.yul\":32765:32766   */\n      0x00\n        /* \"#utility.yul\":32756:32762   */\n      dup5\n        /* \"#utility.yul\":32751:32754   */\n      dup5\n        /* \"#utility.yul\":32747:32763   */\n      add\n        /* \"#utility.yul\":32740:32767   */\n      mstore\n        /* \"#utility.yul\":32676:32678   */\n    tag_677:\n        /* \"#utility.yul\":32525:32783   */\n      pop\n      pop\n      pop\n      pop\n      jump\t// out\n        /* \"#utility.yul\":32789:32955   */\n    tag_678:\n      0x00\n        /* \"#utility.yul\":32883:32949   */\n      tag_680\n        /* \"#utility.yul\":32914:32948   */\n      tag_681\n        /* \"#utility.yul\":32937:32947   */\n      dup4\n        /* \"#utility.yul\":32914:32948   */\n      tag_682\n      jump\t// in\n    tag_681:\n        /* \"#utility.yul\":32883:32949   */\n      tag_665\n      jump\t// in\n    tag_680:\n        /* \"#utility.yul\":32874:32949   */\n      swap1\n      pop\n        /* \"#utility.yul\":32864:32955   */\n      swap2\n      swap1\n      pop\n      jump\t// out\n        /* \"#utility.yul\":32961:33194   */\n    tag_152:\n      0x00\n        /* \"#utility.yul\":33023:33047   */\n      tag_684\n        /* \"#utility.yul\":33041:33046   */\n      dup3\n        /* \"#utility.yul\":33023:33047   */\n      tag_559\n      jump\t// in\n    tag_684:\n        /* \"#utility.yul\":33014:33047   */\n      swap2\n      pop\n        /* \"#utility.yul\":33069:33135   */\n      0xffffffffffffffffffffffffffffffffffffffffffffffffffffffffffffffff\n        /* \"#utility.yul\":33062:33067   */\n      dup3\n        /* \"#utility.yul\":33059:33136   */\n      eq\n        /* \"#utility.yul\":33056:33058   */\n      iszero\n      tag_685\n      jumpi\n        /* \"#utility.yul\":33139:33157   */\n      tag_686\n      tag_648\n      jump\t// in\n    tag_686:\n        /* \"#utility.yul\":33056:33058   */\n    tag_685:\n        /* \"#utility.yul\":33186:33187   */\n      0x01\n        /* \"#utility.yul\":33179:33184   */\n      dup3\n        /* \"#utility.yul\":33175:33188   */\n      add\n        /* \"#utility.yul\":33168:33188   */\n      swap1\n      pop\n        /* \"#utility.yul\":33004:33194   */\n      swap2\n      swap1\n      pop\n      jump\t// out\n        /* \"#utility.yul\":33200:33380   */\n    tag_648:\n        /* \"#utility.yul\":33248:33325   */\n      0x4e487b7100000000000000000000000000000000000000000000000000000000\n        /* \"#utility.yul\":33245:33246   */\n      0x00\n        /* \"#utility.yul\":33238:33326   */\n      mstore\n        /* \"#utility.yul\":33345:33349   */\n      0x11\n        /* \"#utility.yul\":33342:33343   */\n      0x04\n        /* \"#utility.yul\":33335:33350   */\n      mstore\n        /* \"#utility.yul\":33369:33373   */\n      0x24\n        /* \"#utility.yul\":33366:33367   */\n      0x00\n        /* \"#utility.yul\":33359:33374   */\n      revert\n        /* \"#utility.yul\":33386:33566   */\n    tag_654:\n        /* \"#utility.yul\":33434:33511   */\n      0x4e487b7100000000000000000000000000000000000000000000000000000000\n        /* \"#utility.yul\":33431:33432   */\n      0x00\n        /* \"#utility.yul\":33424:33512   */\n      mstore\n        /* \"#utility.yul\":33531:33535   */\n      0x12\n        /* \"#utility.yul\":33528:33529   */\n      0x04\n        /* \"#utility.yul\":33521:33536   */\n      mstore\n        /* \"#utility.yul\":33555:33559   */\n      0x24\n        /* \"#utility.yul\":33552:33553   */\n      0x00\n        /* \"#utility.yul\":33545:33560   */\n      revert\n        /* \"#utility.yul\":33572:33752   */\n    tag_621:\n        /* \"#utility.yul\":33620:33697   */\n      0x4e487b7100000000000000000000000000000000000000000000000000000000\n        /* \"#utility.yul\":33617:33618   */\n      0x00\n        /* \"#utility.yul\":33610:33698   */\n      mstore\n        /* \"#utility.yul\":33717:33721   */\n      0x41\n        /* \"#utility.yul\":33714:33715   */\n      0x04\n        /* \"#utility.yul\":33707:33722   */\n      mstore\n        /* \"#utility.yul\":33741:33745   */\n      0x24\n        /* \"#utility.yul\":33738:33739   */\n      0x00\n        /* \"#utility.yul\":33731:33746   */\n      revert\n        /* \"#utility.yul\":33758:33902   */\n    tag_481:\n      0x00\n        /* \"#utility.yul\":33838:33895   */\n      tag_691\n        /* \"#utility.yul\":33889:33893   */\n      dup3\n        /* \"#utility.yul\":33883:33894   */\n      sload\n        /* \"#utility.yul\":33838:33895   */\n      tag_678\n      jump\t// in\n    tag_691:\n        /* \"#utility.yul\":33829:33895   */\n      swap1\n      pop\n        /* \"#utility.yul\":33819:33902   */\n      swap2\n      swap1\n      pop\n      jump\t// out\n        /* \"#utility.yul\":33908:34010   */\n    tag_497:\n      0x00\n        /* \"#utility.yul\":34000:34002   */\n      0x1f\n        /* \"#utility.yul\":33996:34003   */\n      not\n        /* \"#utility.yul\":33991:33993   */\n      0x1f\n        /* \"#utility.yul\":33984:33989   */\n      dup4\n        /* \"#utility.yul\":33980:33994   */\n      add\n        /* \"#utility.yul\":33976:34004   */\n      and\n        /* \"#utility.yul\":33966:34004   */\n      swap1\n      pop\n        /* \"#utility.yul\":33956:34010   */\n      swap2\n      swap1\n      pop\n      jump\t// out\n        /* \"#utility.yul\":34016:34118   */\n    tag_682:\n      0x00\n        /* \"#utility.yul\":34105:34110   */\n      dup2\n        /* \"#utility.yul\":34102:34103   */\n      0x00\n        /* \"#utility.yul\":34098:34111   */\n      shr\n        /* \"#utility.yul\":34077:34111   */\n      swap1\n      pop\n        /* \"#utility.yul\":34067:34118   */\n      swap2\n      swap1\n      pop\n      jump\t// out\n        /* \"#utility.yul\":34124:34246   */\n    tag_375:\n        /* \"#utility.yul\":34197:34221   */\n      tag_695\n        /* \"#utility.yul\":34215:34220   */\n      dup2\n        /* \"#utility.yul\":34197:34221   */\n      tag_430\n      jump\t// in\n    tag_695:\n        /* \"#utility.yul\":34190:34195   */\n      dup2\n        /* \"#utility.yul\":34187:34222   */\n      eq\n        /* \"#utility.yul\":34177:34179   */\n      tag_696\n      jumpi\n        /* \"#utility.yul\":34236:34237   */\n      0x00\n        /* \"#utility.yul\":34233:34234   */\n      dup1\n        /* \"#utility.yul\":34226:34238   */\n      revert\n        /* \"#utility.yul\":34177:34179   */\n    tag_696:\n        /* \"#utility.yul\":34167:34246   */\n      pop\n      jump\t// out\n        /* \"#utility.yul\":34252:34374   */\n    tag_389:\n        /* \"#utility.yul\":34325:34349   */\n      tag_698\n        /* \"#utility.yul\":34343:34348   */\n      dup2\n        /* \"#utility.yul\":34325:34349   */\n      tag_559\n      jump\t// in\n    tag_698:\n        /* \"#utility.yul\":34318:34323   */\n      dup2\n        /* \"#utility.yul\":34315:34350   */\n      eq\n        /* \"#utility.yul\":34305:34307   */\n      tag_699\n      jumpi\n        /* \"#utility.yul\":34364:34365   */\n      0x00\n        /* \"#utility.yul\":34361:34362   */\n      dup1\n        /* \"#utility.yul\":34354:34366   */\n      revert\n        /* \"#utility.yul\":34305:34307   */\n    tag_699:\n        /* \"#utility.yul\":34295:34374   */\n      pop\n      jump\t// out\n\n    auxdata: 0xa26469706673582212204997dd201be1eb34092e372520f76ba45ec3166bb06fdc683997ca2800353f6564736f6c63430008000033\n}\n",
				"bytecode": {
					"linkReferences": {},
					"object": "60806040526001600a553480156200001657600080fd5b50604051620034313803806200343183398181016040528101906200003c9190620002bf565b6200005c62000050620001c560201b60201c565b620001cd60201b60201c565b600180819055506000600260006101000a81548160ff021916908315150217905550600073ffffffffffffffffffffffffffffffffffffffff168273ffffffffffffffffffffffffffffffffffffffff1614158015620000e95750600073ffffffffffffffffffffffffffffffffffffffff168173ffffffffffffffffffffffffffffffffffffffff1614155b6200012b576040517f08c379a000000000000000000000000000000000000000000000000000000000815260040162000122906200036d565b60405180910390fd5b836004819055508260058190555081600660006101000a81548173ffffffffffffffffffffffffffffffffffffffff021916908373ffffffffffffffffffffffffffffffffffffffff16021790555080600760006101000a81548173ffffffffffffffffffffffffffffffffffffffff021916908373ffffffffffffffffffffffffffffffffffffffff1602179055505050505062000412565b600033905090565b60008060009054906101000a900473ffffffffffffffffffffffffffffffffffffffff169050816000806101000a81548173ffffffffffffffffffffffffffffffffffffffff021916908373ffffffffffffffffffffffffffffffffffffffff1602179055508173ffffffffffffffffffffffffffffffffffffffff168173ffffffffffffffffffffffffffffffffffffffff167f8be0079c531659141344cd1fd0a4f28419497f9722a3daafe3b4186f6b6457e060405160405180910390a35050565b600081519050620002a281620003de565b92915050565b600081519050620002b981620003f8565b92915050565b60008060008060808587031215620002d657600080fd5b6000620002e687828801620002a8565b9450506020620002f987828801620002a8565b93505060406200030c8782880162000291565b92505060606200031f8782880162000291565b91505092959194509250565b60006200033a6018836200038f565b91507f4164647265737365732063616e6e6f74206265207a65726f00000000000000006000830152602082019050919050565b6000602082019050818103600083015262000388816200032b565b9050919050565b600082825260208201905092915050565b6000620003ad82620003b4565b9050919050565b600073ffffffffffffffffffffffffffffffffffffffff82169050919050565b6000819050919050565b620003e981620003a0565b8114620003f557600080fd5b50565b6200040381620003d4565b81146200040f57600080fd5b50565b61300f80620004226000396000f3fe60806040526004361061011f5760003560e01c80638456cb59116100a0578063cdd78cfc11610064578063cdd78cfc14610368578063de74e57b14610393578063e3b6a1f6146103d2578063ed14834f1461040f578063f2fde38b1461043a5761011f565b80638456cb59146102a55780638a71bb2d146102bc5780638da5cb5b146102e7578063aaccf1ec14610312578063ad2f852a1461033d5761011f565b80635c975abb116100e75780635c975abb146101d45780635e4e8d65146101ff578063715018a61461022857806378578bb31461023f5780637bdaceef146102685761011f565b8063305a67a8146101245780633558ce0c1461014d5780633f4ba83a1461017857806351ed82881461018f5780635865fe5a146101ab575b600080fd5b34801561013057600080fd5b5061014b60048036038101906101469190611faa565b610463565b005b34801561015957600080fd5b50610162610606565b60405161016f9190612879565b60405180910390f35b34801561018457600080fd5b5061018d6108de565b005b6101a960048036038101906101a49190611faa565b610900565b005b3480156101b757600080fd5b506101d260048036038101906101cd9190611ed6565b6110af565b005b3480156101e057600080fd5b506101e96115d9565b6040516101f69190612910565b60405180910390f35b34801561020b57600080fd5b5061022660048036038101906102219190611e9a565b6115f0565b005b34801561023457600080fd5b5061023d611737565b005b34801561024b57600080fd5b5061026660048036038101906102619190611fd3565b61174b565b005b34801561027457600080fd5b5061028f600480360381019061028a9190611faa565b611775565b60405161029c9190612827565b60405180910390f35b3480156102b157600080fd5b506102ba6117a8565b005b3480156102c857600080fd5b506102d16117ca565b6040516102de9190612b6b565b60405180910390f35b3480156102f357600080fd5b506102fc6117d0565b6040516103099190612827565b60405180910390f35b34801561031e57600080fd5b506103276117f9565b6040516103349190612b6b565b60405180910390f35b34801561034957600080fd5b506103526117ff565b60405161035f9190612827565b60405180910390f35b34801561037457600080fd5b5061037d611825565b60405161038a9190612b6b565b60405180910390f35b34801561039f57600080fd5b506103ba60048036038101906103b59190611faa565b61182b565b6040516103c993929190612842565b60405180910390f35b3480156103de57600080fd5b506103f960048036038101906103f49190611faa565b611895565b6040516104069190612b6b565b60405180910390f35b34801561041b57600080fd5b506104246118b9565b6040516104319190612827565b60405180910390f35b34801561044657600080fd5b50610461600480360381019061045c9190611e48565b6118df565b005b61046b611963565b3373ffffffffffffffffffffffffffffffffffffffff166009600083815260200190815260200160002060009054906101000a900473ffffffffffffffffffffffffffffffffffffffff1673ffffffffffffffffffffffffffffffffffffffff161461050c576040517f08c379a000000000000000000000000000000000000000000000000000000000815260040161050390612a0b565b60405180910390fd5b60086000828152602001908152602001600020600080820160006101000a81549073ffffffffffffffffffffffffffffffffffffffff02191690556001820160006105579190611c5f565b6002820160006101000a81549073ffffffffffffffffffffffffffffffffffffffff021916905560038201600061058e9190611c5f565b600482016000905550506009600082815260200190815260200160002060006101000a81549073ffffffffffffffffffffffffffffffffffffffff0219169055807fc0c55a6edead4433d18cb1e287a0a20a2fa003a6f483bc9823d2e504d70d1c6760405160405180910390a26106036119b3565b50565b6060600060038054905067ffffffffffffffff81111561064f577f4e487b7100000000000000000000000000000000000000000000000000000000600052604160045260246000fd5b60405190808252806020026020018201604052801561068857816020015b610675611c80565b81526020019060019003908161066d5790505b50905060005b6003805490508110156108d6576000600382815481106106d7577f4e487b7100000000000000000000000000000000000000000000000000000000600052603260045260246000fd5b90600052602060002001549050600060086000838152602001908152602001600020905060006040518060200160405280600081525090508160000160009054906101000a900473ffffffffffffffffffffffffffffffffffffffff1673ffffffffffffffffffffffffffffffffffffffff1663c87b56dd8360010160008154811061078c577f4e487b7100000000000000000000000000000000000000000000000000000000600052603260045260246000fd5b90600052602060002001546040518263ffffffff1660e01b81526004016107b39190612b6b565b60006040518083038186803b1580156107cb57600080fd5b505afa92505050801561080157506040513d6000823e3d601f19601f820116820180604052508101906107fe9190611f69565b60015b61080a5761080f565b809150505b60405180606001604052808481526020018360010180548060200260200160405190810160405280929190818152602001828054801561086e57602002820191906000526020600020905b81548152602001906001019080831161085a575b50505050508152602001828152508585815181106108b5577f4e487b7100000000000000000000000000000000000000000000000000000000600052603260045260246000fd5b602002602001018190525050505080806108ce90612ea4565b91505061068e565b508091505090565b6108e66119bc565b6108ee611963565b6108f6611a3a565b6108fe6119b3565b565b610908611a9d565b610910611963565b60003411610953576040517f08c379a000000000000000000000000000000000000000000000000000000000815260040161094a90612aab565b60405180910390fd5b6000600860008381526020019081526020016000209050600073ffffffffffffffffffffffffffffffffffffffff168160020160009054906101000a900473ffffffffffffffffffffffffffffffffffffffff1673ffffffffffffffffffffffffffffffffffffffff1614156109fe576040517f08c379a00000000000000000000000000000000000000000000000000000000081526004016109f590612a2b565b60405180910390fd5b8060040154421115610a45576040517f08c379a0000000000000000000000000000000000000000000000000000000008152600401610a3c906129cb565b60405180910390fd5b6000805b8260010180549050811015610d75576000836001018281548110610a96577f4e487b7100000000000000000000000000000000000000000000000000000000600052603260045260246000fd5b90600052602060002001549050836003018281548110610adf577f4e487b7100000000000000000000000000000000000000000000000000000000600052603260045260246000fd5b906000526020600020015483610af59190612cf0565b92508360020160009054906101000a900473ffffffffffffffffffffffffffffffffffffffff1673ffffffffffffffffffffffffffffffffffffffff163373ffffffffffffffffffffffffffffffffffffffff161415610b8a576040517f08c379a0000000000000000000000000000000000000000000000000000000008152600401610b819061296b565b60405180910390fd5b60008460000160009054906101000a900473ffffffffffffffffffffffffffffffffffffffff1690508460020160009054906101000a900473ffffffffffffffffffffffffffffffffffffffff1673ffffffffffffffffffffffffffffffffffffffff168173ffffffffffffffffffffffffffffffffffffffff16636352211e846040518263ffffffff1660e01b8152600401610c279190612b6b565b60206040518083038186803b158015610c3f57600080fd5b505afa158015610c53573d6000803e3d6000fd5b505050506040513d601f19601f82011682018060405250810190610c779190611e71565b73ffffffffffffffffffffffffffffffffffffffff1614610ccd576040517f08c379a0000000000000000000000000000000000000000000000000000000008152600401610cc490612b4b565b60405180910390fd5b8073ffffffffffffffffffffffffffffffffffffffff166342842e0e8660020160009054906101000a900473ffffffffffffffffffffffffffffffffffffffff1633856040518463ffffffff1660e01b8152600401610d2e93929190612842565b600060405180830381600087803b158015610d4857600080fd5b505af1158015610d5c573d6000803e3d6000fd5b5050505050508080610d6d90612ea4565b915050610a49565b50803414610db8576040517f08c379a0000000000000000000000000000000000000000000000000000000008152600401610daf90612acb565b60405180910390fd5b600061271060045483610dcb9190612d77565b610dd59190612d46565b9050600061271060055484610dea9190612d77565b610df49190612d46565b90506000818385610e059190612dd1565b610e0f9190612dd1565b90508460020160009054906101000a900473ffffffffffffffffffffffffffffffffffffffff1673ffffffffffffffffffffffffffffffffffffffff166108fc829081150290604051600060405180830381858888f19350505050158015610e7b573d6000803e3d6000fd5b50600660009054906101000a900473ffffffffffffffffffffffffffffffffffffffff1673ffffffffffffffffffffffffffffffffffffffff166108fc849081150290604051600060405180830381858888f19350505050158015610ee4573d6000803e3d6000fd5b50600760009054906101000a900473ffffffffffffffffffffffffffffffffffffffff1673ffffffffffffffffffffffffffffffffffffffff166108fc839081150290604051600060405180830381858888f19350505050158015610f4d573d6000803e3d6000fd5b503373ffffffffffffffffffffffffffffffffffffffff168560020160009054906101000a900473ffffffffffffffffffffffffffffffffffffffff1673ffffffffffffffffffffffffffffffffffffffff16877f28c391ecfa2eeaf06de7f007def77e41a24ec631fe957aa7333dc692a567ebeb8860010188604051610fd59291906128e0565b60405180910390a460086000878152602001908152602001600020600080820160006101000a81549073ffffffffffffffffffffffffffffffffffffffff02191690556001820160006110289190611c5f565b6002820160006101000a81549073ffffffffffffffffffffffffffffffffffffffff021916905560038201600061105f9190611c5f565b600482016000905550506009600087815260200190815260200160002060006101000a81549073ffffffffffffffffffffffffffffffffffffffff021916905550505050506110ac6119b3565b50565b6110b7611a9d565b6110bf611963565b6000835111611103576040517f08c379a00000000000000000000000000000000000000000000000000000000081526004016110fa90612aeb565b60405180910390fd5b8151835114611147576040517f08c379a000000000000000000000000000000000000000000000000000000000815260040161113e90612b0b565b60405180910390fd5b6000811161118a576040517f08c379a000000000000000000000000000000000000000000000000000000000815260040161118190612a6b565b60405180910390fd5b600084905060005b84518110156113735760008582815181106111d6577f4e487b7100000000000000000000000000000000000000000000000000000000600052603260045260246000fd5b60200260200101519050600085838151811061121b577f4e487b7100000000000000000000000000000000000000000000000000000000600052603260045260246000fd5b6020026020010151905060008111611268576040517f08c379a000000000000000000000000000000000000000000000000000000000815260040161125f90612a8b565b60405180910390fd5b3373ffffffffffffffffffffffffffffffffffffffff168473ffffffffffffffffffffffffffffffffffffffff16636352211e846040518263ffffffff1660e01b81526004016112b89190612b6b565b60206040518083038186803b1580156112d057600080fd5b505afa1580156112e4573d6000803e3d6000fd5b505050506040513d601f19601f820116820180604052508101906113089190611e71565b73ffffffffffffffffffffffffffffffffffffffff161461135e576040517f08c379a00000000000000000000000000000000000000000000000000000000081526004016113559061298b565b60405180910390fd5b5050808061136b90612ea4565b915050611192565b506040518060a001604052808673ffffffffffffffffffffffffffffffffffffffff1681526020018581526020013373ffffffffffffffffffffffffffffffffffffffff16815260200184815260200183426113cf9190612cf0565b81525060086000600a54815260200190815260200160002060008201518160000160006101000a81548173ffffffffffffffffffffffffffffffffffffffff021916908373ffffffffffffffffffffffffffffffffffffffff160217905550602082015181600101908051906020019061144a929190611ca1565b5060408201518160020160006101000a81548173ffffffffffffffffffffffffffffffffffffffff021916908373ffffffffffffffffffffffffffffffffffffffff16021790555060608201518160030190805190602001906114ae929190611ca1565b50608082015181600401559050503360096000600a54815260200190815260200160002060006101000a81548173ffffffffffffffffffffffffffffffffffffffff021916908373ffffffffffffffffffffffffffffffffffffffff1602179055506003600a5490806001815401808255809150506001900390600052602060002001600090919091909150558473ffffffffffffffffffffffffffffffffffffffff163373ffffffffffffffffffffffffffffffffffffffff16600a547f3827cf174b534ea2bdb4e9c023a13983775839ee29833adeba7fee3b8f2c755a8787874261159b9190612cf0565b6040516115aa9392919061289b565b60405180910390a4600a60008154809291906115c590612ea4565b9190505550506115d36119b3565b50505050565b6000600260009054906101000a900460ff16905090565b6115f86119bc565b611600611963565b600073ffffffffffffffffffffffffffffffffffffffff168273ffffffffffffffffffffffffffffffffffffffff161415801561166a5750600073ffffffffffffffffffffffffffffffffffffffff168173ffffffffffffffffffffffffffffffffffffffff1614155b6116a9576040517f08c379a00000000000000000000000000000000000000000000000000000000081526004016116a0906129ab565b60405180910390fd5b81600660006101000a81548173ffffffffffffffffffffffffffffffffffffffff021916908373ffffffffffffffffffffffffffffffffffffffff16021790555080600760006101000a81548173ffffffffffffffffffffffffffffffffffffffff021916908373ffffffffffffffffffffffffffffffffffffffff1602179055506117336119b3565b5050565b61173f6119bc565b6117496000611ae7565b565b6117536119bc565b61175b611963565b81600481905550806005819055506117716119b3565b5050565b60096020528060005260406000206000915054906101000a900473ffffffffffffffffffffffffffffffffffffffff1681565b6117b06119bc565b6117b8611963565b6117c0611bab565b6117c86119b3565b565b60045481565b60008060009054906101000a900473ffffffffffffffffffffffffffffffffffffffff16905090565b600a5481565b600660009054906101000a900473ffffffffffffffffffffffffffffffffffffffff1681565b60055481565b60086020528060005260406000206000915090508060000160009054906101000a900473ffffffffffffffffffffffffffffffffffffffff16908060020160009054906101000a900473ffffffffffffffffffffffffffffffffffffffff16908060040154905083565b600381815481106118a557600080fd5b906000526020600020016000915090505481565b600760009054906101000a900473ffffffffffffffffffffffffffffffffffffffff1681565b6118e76119bc565b600073ffffffffffffffffffffffffffffffffffffffff168173ffffffffffffffffffffffffffffffffffffffff161415611957576040517f08c379a000000000000000000000000000000000000000000000000000000000815260040161194e9061294b565b60405180910390fd5b61196081611ae7565b50565b600260015414156119a9576040517f08c379a00000000000000000000000000000000000000000000000000000000081526004016119a090612b2b565b60405180910390fd5b6002600181905550565b60018081905550565b6119c4611c0e565b73ffffffffffffffffffffffffffffffffffffffff166119e26117d0565b73ffffffffffffffffffffffffffffffffffffffff1614611a38576040517f08c379a0000000000000000000000000000000000000000000000000000000008152600401611a2f90612a4b565b60405180910390fd5b565b611a42611c16565b6000600260006101000a81548160ff0219169083151502179055507f5db9ee0a495bf2e6ff9c91a7834c1ba4fdd244a5e8aa4e537bd38aeae4b073aa611a86611c0e565b604051611a939190612827565b60405180910390a1565b611aa56115d9565b15611ae5576040517f08c379a0000000000000000000000000000000000000000000000000000000008152600401611adc906129eb565b60405180910390fd5b565b60008060009054906101000a900473ffffffffffffffffffffffffffffffffffffffff169050816000806101000a81548173ffffffffffffffffffffffffffffffffffffffff021916908373ffffffffffffffffffffffffffffffffffffffff1602179055508173ffffffffffffffffffffffffffffffffffffffff168173ffffffffffffffffffffffffffffffffffffffff167f8be0079c531659141344cd1fd0a4f28419497f9722a3daafe3b4186f6b6457e060405160405180910390a35050565b611bb3611a9d565b6001600260006101000a81548160ff0219169083151502179055507f62e78cea01bee320cd4e420270b5ea74000d11b0c9f74754ebdbfc544b05a258611bf7611c0e565b604051611c049190612827565b60405180910390a1565b600033905090565b611c1e6115d9565b611c5d576040517f08c379a0000000000000000000000000000000000000000000000000000000008152600401611c549061292b565b60405180910390fd5b565b5080546000825590600052602060002090810190611c7d9190611cee565b50565b60405180606001604052806000815260200160608152602001606081525090565b828054828255906000526020600020908101928215611cdd579160200282015b82811115611cdc578251825591602001919060010190611cc1565b5b509050611cea9190611cee565b5090565b5b80821115611d07576000816000905550600101611cef565b5090565b6000611d1e611d1984612bb7565b612b86565b90508083825260208201905082856020860282011115611d3d57600080fd5b60005b85811015611d6d5781611d538882611e33565b845260208401935060208301925050600181019050611d40565b5050509392505050565b6000611d8a611d8584612be3565b612b86565b905082815260208101848484011115611da257600080fd5b611dad848285612e57565b509392505050565b600081359050611dc481612fab565b92915050565b600081519050611dd981612fab565b92915050565b600082601f830112611df057600080fd5b8135611e00848260208601611d0b565b91505092915050565b600082601f830112611e1a57600080fd5b8151611e2a848260208601611d77565b91505092915050565b600081359050611e4281612fc2565b92915050565b600060208284031215611e5a57600080fd5b6000611e6884828501611db5565b91505092915050565b600060208284031215611e8357600080fd5b6000611e9184828501611dca565b91505092915050565b60008060408385031215611ead57600080fd5b6000611ebb85828601611db5565b9250506020611ecc85828601611db5565b9150509250929050565b60008060008060808587031215611eec57600080fd5b6000611efa87828801611db5565b945050602085013567ffffffffffffffff811115611f1757600080fd5b611f2387828801611ddf565b935050604085013567ffffffffffffffff811115611f4057600080fd5b611f4c87828801611ddf565b9250506060611f5d87828801611e33565b91505092959194509250565b600060208284031215611f7b57600080fd5b600082015167ffffffffffffffff811115611f9557600080fd5b611fa184828501611e09565b91505092915050565b600060208284031215611fbc57600080fd5b6000611fca84828501611e33565b91505092915050565b60008060408385031215611fe657600080fd5b6000611ff485828601611e33565b925050602061200585828601611e33565b9150509250929050565b600061201b83836127b2565b905092915050565b600061202f8383612809565b60208301905092915050565b61204481612e0f565b82525050565b600061205582612c48565b61205f8185612c9b565b93508360208202850161207185612c13565b8060005b858110156120ad578484038952815161208e858261200f565b945061209983612c74565b925060208a01995050600181019050612075565b50829750879550505050505092915050565b60006120ca82612c53565b6120d48185612cac565b93506120df83612c23565b8060005b838110156121105781516120f78882612023565b975061210283612c81565b9250506001810190506120e3565b5085935050505092915050565b600061212882612c53565b6121328185612cbd565b935061213d83612c23565b8060005b8381101561216e5781516121558882612023565b975061216083612c81565b925050600181019050612141565b5085935050505092915050565b600061218682612c5e565b6121908185612cbd565b935061219b83612c33565b8060005b838110156121d3576121b082612f7a565b6121ba8882612023565b97506121c583612c8e565b92505060018101905061219f565b5085935050505092915050565b6121e981612e21565b82525050565b60006121fa82612c69565b6122048185612cce565b9350612214818560208601612e57565b61221d81612f8d565b840191505092915050565b6000612235601483612cdf565b91507f5061757361626c653a206e6f74207061757365640000000000000000000000006000830152602082019050919050565b6000612275602683612cdf565b91507f4f776e61626c653a206e6577206f776e657220697320746865207a65726f206160008301527f64647265737300000000000000000000000000000000000000000000000000006020830152604082019050919050565b60006122db602183612cdf565b91507f596f752063616e6e6f742062757920796f7572206f776e206c697374696e677360008301527f2e000000000000000000000000000000000000000000000000000000000000006020830152604082019050919050565b6000612341602083612cdf565b91507f596f75206d757374206f776e20746865204e465420746f206c6973742069742e6000830152602082019050919050565b6000612381601883612cdf565b91507f4164647265737365732063616e6e6f74206265207a65726f00000000000000006000830152602082019050919050565b60006123c1601983612cdf565b91507f54686973206c697374696e672068617320657870697265642e000000000000006000830152602082019050919050565b6000612401601083612cdf565b91507f5061757361626c653a20706175736564000000000000000000000000000000006000830152602082019050919050565b6000612441602583612cdf565b91507f4f6e6c7920746865206c697374696e67206f776e65722063616e2063616e636560008301527f6c2069742e0000000000000000000000000000000000000000000000000000006020830152604082019050919050565b60006124a7601783612cdf565b91507f4c697374696e6720646f6573206e6f742065786973742e0000000000000000006000830152602082019050919050565b60006124e7602083612cdf565b91507f4f776e61626c653a2063616c6c6572206973206e6f7420746865206f776e65726000830152602082019050919050565b6000612527602383612cdf565b91507f446561646c696e65206d7573742062652067726561746572207468616e207a6560008301527f726f2e00000000000000000000000000000000000000000000000000000000006020830152604082019050919050565b600061258d602083612cdf565b91507f5072696365206d7573742062652067726561746572207468616e207a65726f2e6000830152602082019050919050565b60006125cd602583612cdf565b91507f53656e742076616c7565206d7573742062652067726561746572207468616e2060008301527f7a65726f2e0000000000000000000000000000000000000000000000000000006020830152604082019050919050565b6000612633602c83612cdf565b91507f53656e742076616c7565206d75737420626520657175616c20746f207468652060008301527f746f74616c2070726963652e00000000000000000000000000000000000000006020830152604082019050919050565b6000612699601d83612cdf565b91507f4d757374206c697374206174206c65617374206f6e6520746f6b656e2e0000006000830152602082019050919050565b60006126d9602f83612cdf565b91507f546f6b656e2049447320616e6420707269636573206d7573742068617665207460008301527f68652073616d65206c656e6774682e00000000000000000000000000000000006020830152604082019050919050565b600061273f601f83612cdf565b91507f5265656e7472616e637947756172643a207265656e7472616e742063616c6c006000830152602082019050919050565b600061277f601e83612cdf565b91507f53656c6c6572206e6f206c6f6e676572206f776e7320746865204e46542e00006000830152602082019050919050565b60006060830160008301516127ca6000860182612809565b50602083015184820360208601526127e282826120bf565b915050604083015184820360408601526127fc82826121ef565b9150508091505092915050565b61281281612e4d565b82525050565b61282181612e4d565b82525050565b600060208201905061283c600083018461203b565b92915050565b6000606082019050612857600083018661203b565b612864602083018561203b565b6128716040830184612818565b949350505050565b60006020820190508181036000830152612893818461204a565b905092915050565b600060608201905081810360008301526128b5818661211d565b905081810360208301526128c9818561211d565b90506128d86040830184612818565b949350505050565b600060408201905081810360008301526128fa818561217b565b90506129096020830184612818565b9392505050565b600060208201905061292560008301846121e0565b92915050565b6000602082019050818103600083015261294481612228565b9050919050565b6000602082019050818103600083015261296481612268565b9050919050565b60006020820190508181036000830152612984816122ce565b9050919050565b600060208201905081810360008301526129a481612334565b9050919050565b600060208201905081810360008301526129c481612374565b9050919050565b600060208201905081810360008301526129e4816123b4565b9050919050565b60006020820190508181036000830152612a04816123f4565b9050919050565b60006020820190508181036000830152612a2481612434565b9050919050565b60006020820190508181036000830152612a448161249a565b9050919050565b60006020820190508181036000830152612a64816124da565b9050919050565b60006020820190508181036000830152612a848161251a565b9050919050565b60006020820190508181036000830152612aa481612580565b9050919050565b60006020820190508181036000830152612ac4816125c0565b9050919050565b60006020820190508181036000830152612ae481612626565b9050919050565b60006020820190508181036000830152612b048161268c565b9050919050565b60006020820190508181036000830152612b24816126cc565b9050919050565b60006020820190508181036000830152612b4481612732565b9050919050565b60006020820190508181036000830152612b6481612772565b9050919050565b6000602082019050612b806000830184612818565b92915050565b6000604051905081810181811067ffffffffffffffff82111715612bad57612bac612f4b565b5b8060405250919050565b600067ffffffffffffffff821115612bd257612bd1612f4b565b5b602082029050602081019050919050565b600067ffffffffffffffff821115612bfe57612bfd612f4b565b5b601f19601f8301169050602081019050919050565b6000819050602082019050919050565b6000819050602082019050919050565b60008190508160005260206000209050919050565b600081519050919050565b600081519050919050565b600081549050919050565b600081519050919050565b6000602082019050919050565b6000602082019050919050565b6000600182019050919050565b600082825260208201905092915050565b600082825260208201905092915050565b600082825260208201905092915050565b600082825260208201905092915050565b600082825260208201905092915050565b6000612cfb82612e4d565b9150612d0683612e4d565b9250827fffffffffffffffffffffffffffffffffffffffffffffffffffffffffffffffff03821115612d3b57612d3a612eed565b5b828201905092915050565b6000612d5182612e4d565b9150612d5c83612e4d565b925082612d6c57612d6b612f1c565b5b828204905092915050565b6000612d8282612e4d565b9150612d8d83612e4d565b9250817fffffffffffffffffffffffffffffffffffffffffffffffffffffffffffffffff0483118215151615612dc657612dc5612eed565b5b828202905092915050565b6000612ddc82612e4d565b9150612de783612e4d565b925082821015612dfa57612df9612eed565b5b828203905092915050565b6000819050919050565b6000612e1a82612e2d565b9050919050565b60008115159050919050565b600073ffffffffffffffffffffffffffffffffffffffff82169050919050565b6000819050919050565b60005b83811015612e75578082015181840152602081019050612e5a565b83811115612e84576000848401525b50505050565b6000612e9d612e9883612f9e565b612e05565b9050919050565b6000612eaf82612e4d565b91507fffffffffffffffffffffffffffffffffffffffffffffffffffffffffffffffff821415612ee257612ee1612eed565b5b600182019050919050565b7f4e487b7100000000000000000000000000000000000000000000000000000000600052601160045260246000fd5b7f4e487b7100000000000000000000000000000000000000000000000000000000600052601260045260246000fd5b7f4e487b7100000000000000000000000000000000000000000000000000000000600052604160045260246000fd5b6000612f868254612e8a565b9050919050565b6000601f19601f8301169050919050565b60008160001c9050919050565b612fb481612e0f565b8114612fbf57600080fd5b50565b612fcb81612e4d565b8114612fd657600080fd5b5056fea26469706673582212204997dd201be1eb34092e372520f76ba45ec3166bb06fdc683997ca2800353f6564736f6c63430008000033",
					"opcodes": "PUSH1 0x80 PUSH1 0x40 MSTORE PUSH1 0x1 PUSH1 0xA SSTORE CALLVALUE DUP1 ISZERO PUSH3 0x16 JUMPI PUSH1 0x0 DUP1 REVERT JUMPDEST POP PUSH1 0x40 MLOAD PUSH3 0x3431 CODESIZE SUB DUP1 PUSH3 0x3431 DUP4 CODECOPY DUP2 DUP2 ADD PUSH1 0x40 MSTORE DUP2 ADD SWAP1 PUSH3 0x3C SWAP2 SWAP1 PUSH3 0x2BF JUMP JUMPDEST PUSH3 0x5C PUSH3 0x50 PUSH3 0x1C5 PUSH1 0x20 SHL PUSH1 0x20 SHR JUMP JUMPDEST PUSH3 0x1CD PUSH1 0x20 SHL PUSH1 0x20 SHR JUMP JUMPDEST PUSH1 0x1 DUP1 DUP2 SWAP1 SSTORE POP PUSH1 0x0 PUSH1 0x2 PUSH1 0x0 PUSH2 0x100 EXP DUP2 SLOAD DUP2 PUSH1 0xFF MUL NOT AND SWAP1 DUP4 ISZERO ISZERO MUL OR SWAP1 SSTORE POP PUSH1 0x0 PUSH20 0xFFFFFFFFFFFFFFFFFFFFFFFFFFFFFFFFFFFFFFFF AND DUP3 PUSH20 0xFFFFFFFFFFFFFFFFFFFFFFFFFFFFFFFFFFFFFFFF AND EQ ISZERO DUP1 ISZERO PUSH3 0xE9 JUMPI POP PUSH1 0x0 PUSH20 0xFFFFFFFFFFFFFFFFFFFFFFFFFFFFFFFFFFFFFFFF AND DUP2 PUSH20 0xFFFFFFFFFFFFFFFFFFFFFFFFFFFFFFFFFFFFFFFF AND EQ ISZERO JUMPDEST PUSH3 0x12B JUMPI PUSH1 0x40 MLOAD PUSH32 0x8C379A000000000000000000000000000000000000000000000000000000000 DUP2 MSTORE PUSH1 0x4 ADD PUSH3 0x122 SWAP1 PUSH3 0x36D JUMP JUMPDEST PUSH1 0x40 MLOAD DUP1 SWAP2 SUB SWAP1 REVERT JUMPDEST DUP4 PUSH1 0x4 DUP2 SWAP1 SSTORE POP DUP3 PUSH1 0x5 DUP2 SWAP1 SSTORE POP DUP2 PUSH1 0x6 PUSH1 0x0 PUSH2 0x100 EXP DUP2 SLOAD DUP2 PUSH20 0xFFFFFFFFFFFFFFFFFFFFFFFFFFFFFFFFFFFFFFFF MUL NOT AND SWAP1 DUP4 PUSH20 0xFFFFFFFFFFFFFFFFFFFFFFFFFFFFFFFFFFFFFFFF AND MUL OR SWAP1 SSTORE POP DUP1 PUSH1 0x7 PUSH1 0x0 PUSH2 0x100 EXP DUP2 SLOAD DUP2 PUSH20 0xFFFFFFFFFFFFFFFFFFFFFFFFFFFFFFFFFFFFFFFF MUL NOT AND SWAP1 DUP4 PUSH20 0xFFFFFFFFFFFFFFFFFFFFFFFFFFFFFFFFFFFFFFFF AND MUL OR SWAP1 SSTORE POP POP POP POP POP PUSH3 0x412 JUMP JUMPDEST PUSH1 0x0 CALLER SWAP1 POP SWAP1 JUMP JUMPDEST PUSH1 0x0 DUP1 PUSH1 0x0 SWAP1 SLOAD SWAP1 PUSH2 0x100 EXP SWAP1 DIV PUSH20 0xFFFFFFFFFFFFFFFFFFFFFFFFFFFFFFFFFFFFFFFF AND SWAP1 POP DUP2 PUSH1 0x0 DUP1 PUSH2 0x100 EXP DUP2 SLOAD DUP2 PUSH20 0xFFFFFFFFFFFFFFFFFFFFFFFFFFFFFFFFFFFFFFFF MUL NOT AND SWAP1 DUP4 PUSH20 0xFFFFFFFFFFFFFFFFFFFFFFFFFFFFFFFFFFFFFFFF AND MUL OR SWAP1 SSTORE POP DUP2 PUSH20 0xFFFFFFFFFFFFFFFFFFFFFFFFFFFFFFFFFFFFFFFF AND DUP2 PUSH20 0xFFFFFFFFFFFFFFFFFFFFFFFFFFFFFFFFFFFFFFFF AND PUSH32 0x8BE0079C531659141344CD1FD0A4F28419497F9722A3DAAFE3B4186F6B6457E0 PUSH1 0x40 MLOAD PUSH1 0x40 MLOAD DUP1 SWAP2 SUB SWAP1 LOG3 POP POP JUMP JUMPDEST PUSH1 0x0 DUP2 MLOAD SWAP1 POP PUSH3 0x2A2 DUP2 PUSH3 0x3DE JUMP JUMPDEST SWAP3 SWAP2 POP POP JUMP JUMPDEST PUSH1 0x0 DUP2 MLOAD SWAP1 POP PUSH3 0x2B9 DUP2 PUSH3 0x3F8 JUMP JUMPDEST SWAP3 SWAP2 POP POP JUMP JUMPDEST PUSH1 0x0 DUP1 PUSH1 0x0 DUP1 PUSH1 0x80 DUP6 DUP8 SUB SLT ISZERO PUSH3 0x2D6 JUMPI PUSH1 0x0 DUP1 REVERT JUMPDEST PUSH1 0x0 PUSH3 0x2E6 DUP8 DUP3 DUP9 ADD PUSH3 0x2A8 JUMP JUMPDEST SWAP5 POP POP PUSH1 0x20 PUSH3 0x2F9 DUP8 DUP3 DUP9 ADD PUSH3 0x2A8 JUMP JUMPDEST SWAP4 POP POP PUSH1 0x40 PUSH3 0x30C DUP8 DUP3 DUP9 ADD PUSH3 0x291 JUMP JUMPDEST SWAP3 POP POP PUSH1 0x60 PUSH3 0x31F DUP8 DUP3 DUP9 ADD PUSH3 0x291 JUMP JUMPDEST SWAP2 POP POP SWAP3 SWAP6 SWAP2 SWAP5 POP SWAP3 POP JUMP JUMPDEST PUSH1 0x0 PUSH3 0x33A PUSH1 0x18 DUP4 PUSH3 0x38F JUMP JUMPDEST SWAP2 POP PUSH32 0x4164647265737365732063616E6E6F74206265207A65726F0000000000000000 PUSH1 0x0 DUP4 ADD MSTORE PUSH1 0x20 DUP3 ADD SWAP1 POP SWAP2 SWAP1 POP JUMP JUMPDEST PUSH1 0x0 PUSH1 0x20 DUP3 ADD SWAP1 POP DUP2 DUP2 SUB PUSH1 0x0 DUP4 ADD MSTORE PUSH3 0x388 DUP2 PUSH3 0x32B JUMP JUMPDEST SWAP1 POP SWAP2 SWAP1 POP JUMP JUMPDEST PUSH1 0x0 DUP3 DUP3 MSTORE PUSH1 0x20 DUP3 ADD SWAP1 POP SWAP3 SWAP2 POP POP JUMP JUMPDEST PUSH1 0x0 PUSH3 0x3AD DUP3 PUSH3 0x3B4 JUMP JUMPDEST SWAP1 POP SWAP2 SWAP1 POP JUMP JUMPDEST PUSH1 0x0 PUSH20 0xFFFFFFFFFFFFFFFFFFFFFFFFFFFFFFFFFFFFFFFF DUP3 AND SWAP1 POP SWAP2 SWAP1 POP JUMP JUMPDEST PUSH1 0x0 DUP2 SWAP1 POP SWAP2 SWAP1 POP JUMP JUMPDEST PUSH3 0x3E9 DUP2 PUSH3 0x3A0 JUMP JUMPDEST DUP2 EQ PUSH3 0x3F5 JUMPI PUSH1 0x0 DUP1 REVERT JUMPDEST POP JUMP JUMPDEST PUSH3 0x403 DUP2 PUSH3 0x3D4 JUMP JUMPDEST DUP2 EQ PUSH3 0x40F JUMPI PUSH1 0x0 DUP1 REVERT JUMPDEST POP JUMP JUMPDEST PUSH2 0x300F DUP1 PUSH3 0x422 PUSH1 0x0 CODECOPY PUSH1 0x0 RETURN INVALID PUSH1 0x80 PUSH1 0x40 MSTORE PUSH1 0x4 CALLDATASIZE LT PUSH2 0x11F JUMPI PUSH1 0x0 CALLDATALOAD PUSH1 0xE0 SHR DUP1 PUSH4 0x8456CB59 GT PUSH2 0xA0 JUMPI DUP1 PUSH4 0xCDD78CFC GT PUSH2 0x64 JUMPI DUP1 PUSH4 0xCDD78CFC EQ PUSH2 0x368 JUMPI DUP1 PUSH4 0xDE74E57B EQ PUSH2 0x393 JUMPI DUP1 PUSH4 0xE3B6A1F6 EQ PUSH2 0x3D2 JUMPI DUP1 PUSH4 0xED14834F EQ PUSH2 0x40F JUMPI DUP1 PUSH4 0xF2FDE38B EQ PUSH2 0x43A JUMPI PUSH2 0x11F JUMP JUMPDEST DUP1 PUSH4 0x8456CB59 EQ PUSH2 0x2A5 JUMPI DUP1 PUSH4 0x8A71BB2D EQ PUSH2 0x2BC JUMPI DUP1 PUSH4 0x8DA5CB5B EQ PUSH2 0x2E7 JUMPI DUP1 PUSH4 0xAACCF1EC EQ PUSH2 0x312 JUMPI DUP1 PUSH4 0xAD2F852A EQ PUSH2 0x33D JUMPI PUSH2 0x11F JUMP JUMPDEST DUP1 PUSH4 0x5C975ABB GT PUSH2 0xE7 JUMPI DUP1 PUSH4 0x5C975ABB EQ PUSH2 0x1D4 JUMPI DUP1 PUSH4 0x5E4E8D65 EQ PUSH2 0x1FF JUMPI DUP1 PUSH4 0x715018A6 EQ PUSH2 0x228 JUMPI DUP1 PUSH4 0x78578BB3 EQ PUSH2 0x23F JUMPI DUP1 PUSH4 0x7BDACEEF EQ PUSH2 0x268 JUMPI PUSH2 0x11F JUMP JUMPDEST DUP1 PUSH4 0x305A67A8 EQ PUSH2 0x124 JUMPI DUP1 PUSH4 0x3558CE0C EQ PUSH2 0x14D JUMPI DUP1 PUSH4 0x3F4BA83A EQ PUSH2 0x178 JUMPI DUP1 PUSH4 0x51ED8288 EQ PUSH2 0x18F JUMPI DUP1 PUSH4 0x5865FE5A EQ PUSH2 0x1AB JUMPI JUMPDEST PUSH1 0x0 DUP1 REVERT JUMPDEST CALLVALUE DUP1 ISZERO PUSH2 0x130 JUMPI PUSH1 0x0 DUP1 REVERT JUMPDEST POP PUSH2 0x14B PUSH1 0x4 DUP1 CALLDATASIZE SUB DUP2 ADD SWAP1 PUSH2 0x146 SWAP2 SWAP1 PUSH2 0x1FAA JUMP JUMPDEST PUSH2 0x463 JUMP JUMPDEST STOP JUMPDEST CALLVALUE DUP1 ISZERO PUSH2 0x159 JUMPI PUSH1 0x0 DUP1 REVERT JUMPDEST POP PUSH2 0x162 PUSH2 0x606 JUMP JUMPDEST PUSH1 0x40 MLOAD PUSH2 0x16F SWAP2 SWAP1 PUSH2 0x2879 JUMP JUMPDEST PUSH1 0x40 MLOAD DUP1 SWAP2 SUB SWAP1 RETURN JUMPDEST CALLVALUE DUP1 ISZERO PUSH2 0x184 JUMPI PUSH1 0x0 DUP1 REVERT JUMPDEST POP PUSH2 0x18D PUSH2 0x8DE JUMP JUMPDEST STOP JUMPDEST PUSH2 0x1A9 PUSH1 0x4 DUP1 CALLDATASIZE SUB DUP2 ADD SWAP1 PUSH2 0x1A4 SWAP2 SWAP1 PUSH2 0x1FAA JUMP JUMPDEST PUSH2 0x900 JUMP JUMPDEST STOP JUMPDEST CALLVALUE DUP1 ISZERO PUSH2 0x1B7 JUMPI PUSH1 0x0 DUP1 REVERT JUMPDEST POP PUSH2 0x1D2 PUSH1 0x4 DUP1 CALLDATASIZE SUB DUP2 ADD SWAP1 PUSH2 0x1CD SWAP2 SWAP1 PUSH2 0x1ED6 JUMP JUMPDEST PUSH2 0x10AF JUMP JUMPDEST STOP JUMPDEST CALLVALUE DUP1 ISZERO PUSH2 0x1E0 JUMPI PUSH1 0x0 DUP1 REVERT JUMPDEST POP PUSH2 0x1E9 PUSH2 0x15D9 JUMP JUMPDEST PUSH1 0x40 MLOAD PUSH2 0x1F6 SWAP2 SWAP1 PUSH2 0x2910 JUMP JUMPDEST PUSH1 0x40 MLOAD DUP1 SWAP2 SUB SWAP1 RETURN JUMPDEST CALLVALUE DUP1 ISZERO PUSH2 0x20B JUMPI PUSH1 0x0 DUP1 REVERT JUMPDEST POP PUSH2 0x226 PUSH1 0x4 DUP1 CALLDATASIZE SUB DUP2 ADD SWAP1 PUSH2 0x221 SWAP2 SWAP1 PUSH2 0x1E9A JUMP JUMPDEST PUSH2 0x15F0 JUMP JUMPDEST STOP JUMPDEST CALLVALUE DUP1 ISZERO PUSH2 0x234 JUMPI PUSH1 0x0 DUP1 REVERT JUMPDEST POP PUSH2 0x23D PUSH2 0x1737 JUMP JUMPDEST STOP JUMPDEST CALLVALUE DUP1 ISZERO PUSH2 0x24B JUMPI PUSH1 0x0 DUP1 REVERT JUMPDEST POP PUSH2 0x266 PUSH1 0x4 DUP1 CALLDATASIZE SUB DUP2 ADD SWAP1 PUSH2 0x261 SWAP2 SWAP1 PUSH2 0x1FD3 JUMP JUMPDEST PUSH2 0x174B JUMP JUMPDEST STOP JUMPDEST CALLVALUE DUP1 ISZERO PUSH2 0x274 JUMPI PUSH1 0x0 DUP1 REVERT JUMPDEST POP PUSH2 0x28F PUSH1 0x4 DUP1 CALLDATASIZE SUB DUP2 ADD SWAP1 PUSH2 0x28A SWAP2 SWAP1 PUSH2 0x1FAA JUMP JUMPDEST PUSH2 0x1775 JUMP JUMPDEST PUSH1 0x40 MLOAD PUSH2 0x29C SWAP2 SWAP1 PUSH2 0x2827 JUMP JUMPDEST PUSH1 0x40 MLOAD DUP1 SWAP2 SUB SWAP1 RETURN JUMPDEST CALLVALUE DUP1 ISZERO PUSH2 0x2B1 JUMPI PUSH1 0x0 DUP1 REVERT JUMPDEST POP PUSH2 0x2BA PUSH2 0x17A8 JUMP JUMPDEST STOP JUMPDEST CALLVALUE DUP1 ISZERO PUSH2 0x2C8 JUMPI PUSH1 0x0 DUP1 REVERT JUMPDEST POP PUSH2 0x2D1 PUSH2 0x17CA JUMP JUMPDEST PUSH1 0x40 MLOAD PUSH2 0x2DE SWAP2 SWAP1 PUSH2 0x2B6B JUMP JUMPDEST PUSH1 0x40 MLOAD DUP1 SWAP2 SUB SWAP1 RETURN JUMPDEST CALLVALUE DUP1 ISZERO PUSH2 0x2F3 JUMPI PUSH1 0x0 DUP1 REVERT JUMPDEST POP PUSH2 0x2FC PUSH2 0x17D0 JUMP JUMPDEST PUSH1 0x40 MLOAD PUSH2 0x309 SWAP2 SWAP1 PUSH2 0x2827 JUMP JUMPDEST PUSH1 0x40 MLOAD DUP1 SWAP2 SUB SWAP1 RETURN JUMPDEST CALLVALUE DUP1 ISZERO PUSH2 0x31E JUMPI PUSH1 0x0 DUP1 REVERT JUMPDEST POP PUSH2 0x327 PUSH2 0x17F9 JUMP JUMPDEST PUSH1 0x40 MLOAD PUSH2 0x334 SWAP2 SWAP1 PUSH2 0x2B6B JUMP JUMPDEST PUSH1 0x40 MLOAD DUP1 SWAP2 SUB SWAP1 RETURN JUMPDEST CALLVALUE DUP1 ISZERO PUSH2 0x349 JUMPI PUSH1 0x0 DUP1 REVERT JUMPDEST POP PUSH2 0x352 PUSH2 0x17FF JUMP JUMPDEST PUSH1 0x40 MLOAD PUSH2 0x35F SWAP2 SWAP1 PUSH2 0x2827 JUMP JUMPDEST PUSH1 0x40 MLOAD DUP1 SWAP2 SUB SWAP1 RETURN JUMPDEST CALLVALUE DUP1 ISZERO PUSH2 0x374 JUMPI PUSH1 0x0 DUP1 REVERT JUMPDEST POP PUSH2 0x37D PUSH2 0x1825 JUMP JUMPDEST PUSH1 0x40 MLOAD PUSH2 0x38A SWAP2 SWAP1 PUSH2 0x2B6B JUMP JUMPDEST PUSH1 0x40 MLOAD DUP1 SWAP2 SUB SWAP1 RETURN JUMPDEST CALLVALUE DUP1 ISZERO PUSH2 0x39F JUMPI PUSH1 0x0 DUP1 REVERT JUMPDEST POP PUSH2 0x3BA PUSH1 0x4 DUP1 CALLDATASIZE SUB DUP2 ADD SWAP1 PUSH2 0x3B5 SWAP2 SWAP1 PUSH2 0x1FAA JUMP JUMPDEST PUSH2 0x182B JUMP JUMPDEST PUSH1 0x40 MLOAD PUSH2 0x3C9 SWAP4 SWAP3 SWAP2 SWAP1 PUSH2 0x2842 JUMP JUMPDEST PUSH1 0x40 MLOAD DUP1 SWAP2 SUB SWAP1 RETURN JUMPDEST CALLVALUE DUP1 ISZERO PUSH2 0x3DE JUMPI PUSH1 0x0 DUP1 REVERT JUMPDEST POP PUSH2 0x3F9 PUSH1 0x4 DUP1 CALLDATASIZE SUB DUP2 ADD SWAP1 PUSH2 0x3F4 SWAP2 SWAP1 PUSH2 0x1FAA JUMP JUMPDEST PUSH2 0x1895 JUMP JUMPDEST PUSH1 0x40 MLOAD PUSH2 0x406 SWAP2 SWAP1 PUSH2 0x2B6B JUMP JUMPDEST PUSH1 0x40 MLOAD DUP1 SWAP2 SUB SWAP1 RETURN JUMPDEST CALLVALUE DUP1 ISZERO PUSH2 0x41B JUMPI PUSH1 0x0 DUP1 REVERT JUMPDEST POP PUSH2 0x424 PUSH2 0x18B9 JUMP JUMPDEST PUSH1 0x40 MLOAD PUSH2 0x431 SWAP2 SWAP1 PUSH2 0x2827 JUMP JUMPDEST PUSH1 0x40 MLOAD DUP1 SWAP2 SUB SWAP1 RETURN JUMPDEST CALLVALUE DUP1 ISZERO PUSH2 0x446 JUMPI PUSH1 0x0 DUP1 REVERT JUMPDEST POP PUSH2 0x461 PUSH1 0x4 DUP1 CALLDATASIZE SUB DUP2 ADD SWAP1 PUSH2 0x45C SWAP2 SWAP1 PUSH2 0x1E48 JUMP JUMPDEST PUSH2 0x18DF JUMP JUMPDEST STOP JUMPDEST PUSH2 0x46B PUSH2 0x1963 JUMP JUMPDEST CALLER PUSH20 0xFFFFFFFFFFFFFFFFFFFFFFFFFFFFFFFFFFFFFFFF AND PUSH1 0x9 PUSH1 0x0 DUP4 DUP2 MSTORE PUSH1 0x20 ADD SWAP1 DUP2 MSTORE PUSH1 0x20 ADD PUSH1 0x0 KECCAK256 PUSH1 0x0 SWAP1 SLOAD SWAP1 PUSH2 0x100 EXP SWAP1 DIV PUSH20 0xFFFFFFFFFFFFFFFFFFFFFFFFFFFFFFFFFFFFFFFF AND PUSH20 0xFFFFFFFFFFFFFFFFFFFFFFFFFFFFFFFFFFFFFFFF AND EQ PUSH2 0x50C JUMPI PUSH1 0x40 MLOAD PUSH32 0x8C379A000000000000000000000000000000000000000000000000000000000 DUP2 MSTORE PUSH1 0x4 ADD PUSH2 0x503 SWAP1 PUSH2 0x2A0B JUMP JUMPDEST PUSH1 0x40 MLOAD DUP1 SWAP2 SUB SWAP1 REVERT JUMPDEST PUSH1 0x8 PUSH1 0x0 DUP3 DUP2 MSTORE PUSH1 0x20 ADD SWAP1 DUP2 MSTORE PUSH1 0x20 ADD PUSH1 0x0 KECCAK256 PUSH1 0x0 DUP1 DUP3 ADD PUSH1 0x0 PUSH2 0x100 EXP DUP2 SLOAD SWAP1 PUSH20 0xFFFFFFFFFFFFFFFFFFFFFFFFFFFFFFFFFFFFFFFF MUL NOT AND SWAP1 SSTORE PUSH1 0x1 DUP3 ADD PUSH1 0x0 PUSH2 0x557 SWAP2 SWAP1 PUSH2 0x1C5F JUMP JUMPDEST PUSH1 0x2 DUP3 ADD PUSH1 0x0 PUSH2 0x100 EXP DUP2 SLOAD SWAP1 PUSH20 0xFFFFFFFFFFFFFFFFFFFFFFFFFFFFFFFFFFFFFFFF MUL NOT AND SWAP1 SSTORE PUSH1 0x3 DUP3 ADD PUSH1 0x0 PUSH2 0x58E SWAP2 SWAP1 PUSH2 0x1C5F JUMP JUMPDEST PUSH1 0x4 DUP3 ADD PUSH1 0x0 SWAP1 SSTORE POP POP PUSH1 0x9 PUSH1 0x0 DUP3 DUP2 MSTORE PUSH1 0x20 ADD SWAP1 DUP2 MSTORE PUSH1 0x20 ADD PUSH1 0x0 KECCAK256 PUSH1 0x0 PUSH2 0x100 EXP DUP2 SLOAD SWAP1 PUSH20 0xFFFFFFFFFFFFFFFFFFFFFFFFFFFFFFFFFFFFFFFF MUL NOT AND SWAP1 SSTORE DUP1 PUSH32 0xC0C55A6EDEAD4433D18CB1E287A0A20A2FA003A6F483BC9823D2E504D70D1C67 PUSH1 0x40 MLOAD PUSH1 0x40 MLOAD DUP1 SWAP2 SUB SWAP1 LOG2 PUSH2 0x603 PUSH2 0x19B3 JUMP JUMPDEST POP JUMP JUMPDEST PUSH1 0x60 PUSH1 0x0 PUSH1 0x3 DUP1 SLOAD SWAP1 POP PUSH8 0xFFFFFFFFFFFFFFFF DUP2 GT ISZERO PUSH2 0x64F JUMPI PUSH32 0x4E487B7100000000000000000000000000000000000000000000000000000000 PUSH1 0x0 MSTORE PUSH1 0x41 PUSH1 0x4 MSTORE PUSH1 0x24 PUSH1 0x0 REVERT JUMPDEST PUSH1 0x40 MLOAD SWAP1 DUP1 DUP3 MSTORE DUP1 PUSH1 0x20 MUL PUSH1 0x20 ADD DUP3 ADD PUSH1 0x40 MSTORE DUP1 ISZERO PUSH2 0x688 JUMPI DUP2 PUSH1 0x20 ADD JUMPDEST PUSH2 0x675 PUSH2 0x1C80 JUMP JUMPDEST DUP2 MSTORE PUSH1 0x20 ADD SWAP1 PUSH1 0x1 SWAP1 SUB SWAP1 DUP2 PUSH2 0x66D JUMPI SWAP1 POP JUMPDEST POP SWAP1 POP PUSH1 0x0 JUMPDEST PUSH1 0x3 DUP1 SLOAD SWAP1 POP DUP2 LT ISZERO PUSH2 0x8D6 JUMPI PUSH1 0x0 PUSH1 0x3 DUP3 DUP2 SLOAD DUP2 LT PUSH2 0x6D7 JUMPI PUSH32 0x4E487B7100000000000000000000000000000000000000000000000000000000 PUSH1 0x0 MSTORE PUSH1 0x32 PUSH1 0x4 MSTORE PUSH1 0x24 PUSH1 0x0 REVERT JUMPDEST SWAP1 PUSH1 0x0 MSTORE PUSH1 0x20 PUSH1 0x0 KECCAK256 ADD SLOAD SWAP1 POP PUSH1 0x0 PUSH1 0x8 PUSH1 0x0 DUP4 DUP2 MSTORE PUSH1 0x20 ADD SWAP1 DUP2 MSTORE PUSH1 0x20 ADD PUSH1 0x0 KECCAK256 SWAP1 POP PUSH1 0x0 PUSH1 0x40 MLOAD DUP1 PUSH1 0x20 ADD PUSH1 0x40 MSTORE DUP1 PUSH1 0x0 DUP2 MSTORE POP SWAP1 POP DUP2 PUSH1 0x0 ADD PUSH1 0x0 SWAP1 SLOAD SWAP1 PUSH2 0x100 EXP SWAP1 DIV PUSH20 0xFFFFFFFFFFFFFFFFFFFFFFFFFFFFFFFFFFFFFFFF AND PUSH20 0xFFFFFFFFFFFFFFFFFFFFFFFFFFFFFFFFFFFFFFFF AND PUSH4 0xC87B56DD DUP4 PUSH1 0x1 ADD PUSH1 0x0 DUP2 SLOAD DUP2 LT PUSH2 0x78C JUMPI PUSH32 0x4E487B7100000000000000000000000000000000000000000000000000000000 PUSH1 0x0 MSTORE PUSH1 0x32 PUSH1 0x4 MSTORE PUSH1 0x24 PUSH1 0x0 REVERT JUMPDEST SWAP1 PUSH1 0x0 MSTORE PUSH1 0x20 PUSH1 0x0 KECCAK256 ADD SLOAD PUSH1 0x40 MLOAD DUP3 PUSH4 0xFFFFFFFF AND PUSH1 0xE0 SHL DUP2 MSTORE PUSH1 0x4 ADD PUSH2 0x7B3 SWAP2 SWAP1 PUSH2 0x2B6B JUMP JUMPDEST PUSH1 0x0 PUSH1 0x40 MLOAD DUP1 DUP4 SUB DUP2 DUP7 DUP1 EXTCODESIZE ISZERO DUP1 ISZERO PUSH2 0x7CB JUMPI PUSH1 0x0 DUP1 REVERT JUMPDEST POP GAS STATICCALL SWAP3 POP POP POP DUP1 ISZERO PUSH2 0x801 JUMPI POP PUSH1 0x40 MLOAD RETURNDATASIZE PUSH1 0x0 DUP3 RETURNDATACOPY RETURNDATASIZE PUSH1 0x1F NOT PUSH1 0x1F DUP3 ADD AND DUP3 ADD DUP1 PUSH1 0x40 MSTORE POP DUP2 ADD SWAP1 PUSH2 0x7FE SWAP2 SWAP1 PUSH2 0x1F69 JUMP JUMPDEST PUSH1 0x1 JUMPDEST PUSH2 0x80A JUMPI PUSH2 0x80F JUMP JUMPDEST DUP1 SWAP2 POP POP JUMPDEST PUSH1 0x40 MLOAD DUP1 PUSH1 0x60 ADD PUSH1 0x40 MSTORE DUP1 DUP5 DUP2 MSTORE PUSH1 0x20 ADD DUP4 PUSH1 0x1 ADD DUP1 SLOAD DUP1 PUSH1 0x20 MUL PUSH1 0x20 ADD PUSH1 0x40 MLOAD SWAP1 DUP2 ADD PUSH1 0x40 MSTORE DUP1 SWAP3 SWAP2 SWAP1 DUP2 DUP2 MSTORE PUSH1 0x20 ADD DUP3 DUP1 SLOAD DUP1 ISZERO PUSH2 0x86E JUMPI PUSH1 0x20 MUL DUP3 ADD SWAP2 SWAP1 PUSH1 0x0 MSTORE PUSH1 0x20 PUSH1 0x0 KECCAK256 SWAP1 JUMPDEST DUP2 SLOAD DUP2 MSTORE PUSH1 0x20 ADD SWAP1 PUSH1 0x1 ADD SWAP1 DUP1 DUP4 GT PUSH2 0x85A JUMPI JUMPDEST POP POP POP POP POP DUP2 MSTORE PUSH1 0x20 ADD DUP3 DUP2 MSTORE POP DUP6 DUP6 DUP2 MLOAD DUP2 LT PUSH2 0x8B5 JUMPI PUSH32 0x4E487B7100000000000000000000000000000000000000000000000000000000 PUSH1 0x0 MSTORE PUSH1 0x32 PUSH1 0x4 MSTORE PUSH1 0x24 PUSH1 0x0 REVERT JUMPDEST PUSH1 0x20 MUL PUSH1 0x20 ADD ADD DUP2 SWAP1 MSTORE POP POP POP POP DUP1 DUP1 PUSH2 0x8CE SWAP1 PUSH2 0x2EA4 JUMP JUMPDEST SWAP2 POP POP PUSH2 0x68E JUMP JUMPDEST POP DUP1 SWAP2 POP POP SWAP1 JUMP JUMPDEST PUSH2 0x8E6 PUSH2 0x19BC JUMP JUMPDEST PUSH2 0x8EE PUSH2 0x1963 JUMP JUMPDEST PUSH2 0x8F6 PUSH2 0x1A3A JUMP JUMPDEST PUSH2 0x8FE PUSH2 0x19B3 JUMP JUMPDEST JUMP JUMPDEST PUSH2 0x908 PUSH2 0x1A9D JUMP JUMPDEST PUSH2 0x910 PUSH2 0x1963 JUMP JUMPDEST PUSH1 0x0 CALLVALUE GT PUSH2 0x953 JUMPI PUSH1 0x40 MLOAD PUSH32 0x8C379A000000000000000000000000000000000000000000000000000000000 DUP2 MSTORE PUSH1 0x4 ADD PUSH2 0x94A SWAP1 PUSH2 0x2AAB JUMP JUMPDEST PUSH1 0x40 MLOAD DUP1 SWAP2 SUB SWAP1 REVERT JUMPDEST PUSH1 0x0 PUSH1 0x8 PUSH1 0x0 DUP4 DUP2 MSTORE PUSH1 0x20 ADD SWAP1 DUP2 MSTORE PUSH1 0x20 ADD PUSH1 0x0 KECCAK256 SWAP1 POP PUSH1 0x0 PUSH20 0xFFFFFFFFFFFFFFFFFFFFFFFFFFFFFFFFFFFFFFFF AND DUP2 PUSH1 0x2 ADD PUSH1 0x0 SWAP1 SLOAD SWAP1 PUSH2 0x100 EXP SWAP1 DIV PUSH20 0xFFFFFFFFFFFFFFFFFFFFFFFFFFFFFFFFFFFFFFFF AND PUSH20 0xFFFFFFFFFFFFFFFFFFFFFFFFFFFFFFFFFFFFFFFF AND EQ ISZERO PUSH2 0x9FE JUMPI PUSH1 0x40 MLOAD PUSH32 0x8C379A000000000000000000000000000000000000000000000000000000000 DUP2 MSTORE PUSH1 0x4 ADD PUSH2 0x9F5 SWAP1 PUSH2 0x2A2B JUMP JUMPDEST PUSH1 0x40 MLOAD DUP1 SWAP2 SUB SWAP1 REVERT JUMPDEST DUP1 PUSH1 0x4 ADD SLOAD TIMESTAMP GT ISZERO PUSH2 0xA45 JUMPI PUSH1 0x40 MLOAD PUSH32 0x8C379A000000000000000000000000000000000000000000000000000000000 DUP2 MSTORE PUSH1 0x4 ADD PUSH2 0xA3C SWAP1 PUSH2 0x29CB JUMP JUMPDEST PUSH1 0x40 MLOAD DUP1 SWAP2 SUB SWAP1 REVERT JUMPDEST PUSH1 0x0 DUP1 JUMPDEST DUP3 PUSH1 0x1 ADD DUP1 SLOAD SWAP1 POP DUP2 LT ISZERO PUSH2 0xD75 JUMPI PUSH1 0x0 DUP4 PUSH1 0x1 ADD DUP3 DUP2 SLOAD DUP2 LT PUSH2 0xA96 JUMPI PUSH32 0x4E487B7100000000000000000000000000000000000000000000000000000000 PUSH1 0x0 MSTORE PUSH1 0x32 PUSH1 0x4 MSTORE PUSH1 0x24 PUSH1 0x0 REVERT JUMPDEST SWAP1 PUSH1 0x0 MSTORE PUSH1 0x20 PUSH1 0x0 KECCAK256 ADD SLOAD SWAP1 POP DUP4 PUSH1 0x3 ADD DUP3 DUP2 SLOAD DUP2 LT PUSH2 0xADF JUMPI PUSH32 0x4E487B7100000000000000000000000000000000000000000000000000000000 PUSH1 0x0 MSTORE PUSH1 0x32 PUSH1 0x4 MSTORE PUSH1 0x24 PUSH1 0x0 REVERT JUMPDEST SWAP1 PUSH1 0x0 MSTORE PUSH1 0x20 PUSH1 0x0 KECCAK256 ADD SLOAD DUP4 PUSH2 0xAF5 SWAP2 SWAP1 PUSH2 0x2CF0 JUMP JUMPDEST SWAP3 POP DUP4 PUSH1 0x2 ADD PUSH1 0x0 SWAP1 SLOAD SWAP1 PUSH2 0x100 EXP SWAP1 DIV PUSH20 0xFFFFFFFFFFFFFFFFFFFFFFFFFFFFFFFFFFFFFFFF AND PUSH20 0xFFFFFFFFFFFFFFFFFFFFFFFFFFFFFFFFFFFFFFFF AND CALLER PUSH20 0xFFFFFFFFFFFFFFFFFFFFFFFFFFFFFFFFFFFFFFFF AND EQ ISZERO PUSH2 0xB8A JUMPI PUSH1 0x40 MLOAD PUSH32 0x8C379A000000000000000000000000000000000000000000000000000000000 DUP2 MSTORE PUSH1 0x4 ADD PUSH2 0xB81 SWAP1 PUSH2 0x296B JUMP JUMPDEST PUSH1 0x40 MLOAD DUP1 SWAP2 SUB SWAP1 REVERT JUMPDEST PUSH1 0x0 DUP5 PUSH1 0x0 ADD PUSH1 0x0 SWAP1 SLOAD SWAP1 PUSH2 0x100 EXP SWAP1 DIV PUSH20 0xFFFFFFFFFFFFFFFFFFFFFFFFFFFFFFFFFFFFFFFF AND SWAP1 POP DUP5 PUSH1 0x2 ADD PUSH1 0x0 SWAP1 SLOAD SWAP1 PUSH2 0x100 EXP SWAP1 DIV PUSH20 0xFFFFFFFFFFFFFFFFFFFFFFFFFFFFFFFFFFFFFFFF AND PUSH20 0xFFFFFFFFFFFFFFFFFFFFFFFFFFFFFFFFFFFFFFFF AND DUP2 PUSH20 0xFFFFFFFFFFFFFFFFFFFFFFFFFFFFFFFFFFFFFFFF AND PUSH4 0x6352211E DUP5 PUSH1 0x40 MLOAD DUP3 PUSH4 0xFFFFFFFF AND PUSH1 0xE0 SHL DUP2 MSTORE PUSH1 0x4 ADD PUSH2 0xC27 SWAP2 SWAP1 PUSH2 0x2B6B JUMP JUMPDEST PUSH1 0x20 PUSH1 0x40 MLOAD DUP1 DUP4 SUB DUP2 DUP7 DUP1 EXTCODESIZE ISZERO DUP1 ISZERO PUSH2 0xC3F JUMPI PUSH1 0x0 DUP1 REVERT JUMPDEST POP GAS STATICCALL ISZERO DUP1 ISZERO PUSH2 0xC53 JUMPI RETURNDATASIZE PUSH1 0x0 DUP1 RETURNDATACOPY RETURNDATASIZE PUSH1 0x0 REVERT JUMPDEST POP POP POP POP PUSH1 0x40 MLOAD RETURNDATASIZE PUSH1 0x1F NOT PUSH1 0x1F DUP3 ADD AND DUP3 ADD DUP1 PUSH1 0x40 MSTORE POP DUP2 ADD SWAP1 PUSH2 0xC77 SWAP2 SWAP1 PUSH2 0x1E71 JUMP JUMPDEST PUSH20 0xFFFFFFFFFFFFFFFFFFFFFFFFFFFFFFFFFFFFFFFF AND EQ PUSH2 0xCCD JUMPI PUSH1 0x40 MLOAD PUSH32 0x8C379A000000000000000000000000000000000000000000000000000000000 DUP2 MSTORE PUSH1 0x4 ADD PUSH2 0xCC4 SWAP1 PUSH2 0x2B4B JUMP JUMPDEST PUSH1 0x40 MLOAD DUP1 SWAP2 SUB SWAP1 REVERT JUMPDEST DUP1 PUSH20 0xFFFFFFFFFFFFFFFFFFFFFFFFFFFFFFFFFFFFFFFF AND PUSH4 0x42842E0E DUP7 PUSH1 0x2 ADD PUSH1 0x0 SWAP1 SLOAD SWAP1 PUSH2 0x100 EXP SWAP1 DIV PUSH20 0xFFFFFFFFFFFFFFFFFFFFFFFFFFFFFFFFFFFFFFFF AND CALLER DUP6 PUSH1 0x40 MLOAD DUP5 PUSH4 0xFFFFFFFF AND PUSH1 0xE0 SHL DUP2 MSTORE PUSH1 0x4 ADD PUSH2 0xD2E SWAP4 SWAP3 SWAP2 SWAP1 PUSH2 0x2842 JUMP JUMPDEST PUSH1 0x0 PUSH1 0x40 MLOAD DUP1 DUP4 SUB DUP2 PUSH1 0x0 DUP8 DUP1 EXTCODESIZE ISZERO DUP1 ISZERO PUSH2 0xD48 JUMPI PUSH1 0x0 DUP1 REVERT JUMPDEST POP GAS CALL ISZERO DUP1 ISZERO PUSH2 0xD5C JUMPI RETURNDATASIZE PUSH1 0x0 DUP1 RETURNDATACOPY RETURNDATASIZE PUSH1 0x0 REVERT JUMPDEST POP POP POP POP POP POP DUP1 DUP1 PUSH2 0xD6D SWAP1 PUSH2 0x2EA4 JUMP JUMPDEST SWAP2 POP POP PUSH2 0xA49 JUMP JUMPDEST POP DUP1 CALLVALUE EQ PUSH2 0xDB8 JUMPI PUSH1 0x40 MLOAD PUSH32 0x8C379A000000000000000000000000000000000000000000000000000000000 DUP2 MSTORE PUSH1 0x4 ADD PUSH2 0xDAF SWAP1 PUSH2 0x2ACB JUMP JUMPDEST PUSH1 0x40 MLOAD DUP1 SWAP2 SUB SWAP1 REVERT JUMPDEST PUSH1 0x0 PUSH2 0x2710 PUSH1 0x4 SLOAD DUP4 PUSH2 0xDCB SWAP2 SWAP1 PUSH2 0x2D77 JUMP JUMPDEST PUSH2 0xDD5 SWAP2 SWAP1 PUSH2 0x2D46 JUMP JUMPDEST SWAP1 POP PUSH1 0x0 PUSH2 0x2710 PUSH1 0x5 SLOAD DUP5 PUSH2 0xDEA SWAP2 SWAP1 PUSH2 0x2D77 JUMP JUMPDEST PUSH2 0xDF4 SWAP2 SWAP1 PUSH2 0x2D46 JUMP JUMPDEST SWAP1 POP PUSH1 0x0 DUP2 DUP4 DUP6 PUSH2 0xE05 SWAP2 SWAP1 PUSH2 0x2DD1 JUMP JUMPDEST PUSH2 0xE0F SWAP2 SWAP1 PUSH2 0x2DD1 JUMP JUMPDEST SWAP1 POP DUP5 PUSH1 0x2 ADD PUSH1 0x0 SWAP1 SLOAD SWAP1 PUSH2 0x100 EXP SWAP1 DIV PUSH20 0xFFFFFFFFFFFFFFFFFFFFFFFFFFFFFFFFFFFFFFFF AND PUSH20 0xFFFFFFFFFFFFFFFFFFFFFFFFFFFFFFFFFFFFFFFF AND PUSH2 0x8FC DUP3 SWAP1 DUP2 ISZERO MUL SWAP1 PUSH1 0x40 MLOAD PUSH1 0x0 PUSH1 0x40 MLOAD DUP1 DUP4 SUB DUP2 DUP6 DUP9 DUP9 CALL SWAP4 POP POP POP POP ISZERO DUP1 ISZERO PUSH2 0xE7B JUMPI RETURNDATASIZE PUSH1 0x0 DUP1 RETURNDATACOPY RETURNDATASIZE PUSH1 0x0 REVERT JUMPDEST POP PUSH1 0x6 PUSH1 0x0 SWAP1 SLOAD SWAP1 PUSH2 0x100 EXP SWAP1 DIV PUSH20 0xFFFFFFFFFFFFFFFFFFFFFFFFFFFFFFFFFFFFFFFF AND PUSH20 0xFFFFFFFFFFFFFFFFFFFFFFFFFFFFFFFFFFFFFFFF AND PUSH2 0x8FC DUP5 SWAP1 DUP2 ISZERO MUL SWAP1 PUSH1 0x40 MLOAD PUSH1 0x0 PUSH1 0x40 MLOAD DUP1 DUP4 SUB DUP2 DUP6 DUP9 DUP9 CALL SWAP4 POP POP POP POP ISZERO DUP1 ISZERO PUSH2 0xEE4 JUMPI RETURNDATASIZE PUSH1 0x0 DUP1 RETURNDATACOPY RETURNDATASIZE PUSH1 0x0 REVERT JUMPDEST POP PUSH1 0x7 PUSH1 0x0 SWAP1 SLOAD SWAP1 PUSH2 0x100 EXP SWAP1 DIV PUSH20 0xFFFFFFFFFFFFFFFFFFFFFFFFFFFFFFFFFFFFFFFF AND PUSH20 0xFFFFFFFFFFFFFFFFFFFFFFFFFFFFFFFFFFFFFFFF AND PUSH2 0x8FC DUP4 SWAP1 DUP2 ISZERO MUL SWAP1 PUSH1 0x40 MLOAD PUSH1 0x0 PUSH1 0x40 MLOAD DUP1 DUP4 SUB DUP2 DUP6 DUP9 DUP9 CALL SWAP4 POP POP POP POP ISZERO DUP1 ISZERO PUSH2 0xF4D JUMPI RETURNDATASIZE PUSH1 0x0 DUP1 RETURNDATACOPY RETURNDATASIZE PUSH1 0x0 REVERT JUMPDEST POP CALLER PUSH20 0xFFFFFFFFFFFFFFFFFFFFFFFFFFFFFFFFFFFFFFFF AND DUP6 PUSH1 0x2 ADD PUSH1 0x0 SWAP1 SLOAD SWAP1 PUSH2 0x100 EXP SWAP1 DIV PUSH20 0xFFFFFFFFFFFFFFFFFFFFFFFFFFFFFFFFFFFFFFFF AND PUSH20 0xFFFFFFFFFFFFFFFFFFFFFFFFFFFFFFFFFFFFFFFF AND DUP8 PUSH32 0x28C391ECFA2EEAF06DE7F007DEF77E41A24EC631FE957AA7333DC692A567EBEB DUP9 PUSH1 0x1 ADD DUP9 PUSH1 0x40 MLOAD PUSH2 0xFD5 SWAP3 SWAP2 SWAP1 PUSH2 0x28E0 JUMP JUMPDEST PUSH1 0x40 MLOAD DUP1 SWAP2 SUB SWAP1 LOG4 PUSH1 0x8 PUSH1 0x0 DUP8 DUP2 MSTORE PUSH1 0x20 ADD SWAP1 DUP2 MSTORE PUSH1 0x20 ADD PUSH1 0x0 KECCAK256 PUSH1 0x0 DUP1 DUP3 ADD PUSH1 0x0 PUSH2 0x100 EXP DUP2 SLOAD SWAP1 PUSH20 0xFFFFFFFFFFFFFFFFFFFFFFFFFFFFFFFFFFFFFFFF MUL NOT AND SWAP1 SSTORE PUSH1 0x1 DUP3 ADD PUSH1 0x0 PUSH2 0x1028 SWAP2 SWAP1 PUSH2 0x1C5F JUMP JUMPDEST PUSH1 0x2 DUP3 ADD PUSH1 0x0 PUSH2 0x100 EXP DUP2 SLOAD SWAP1 PUSH20 0xFFFFFFFFFFFFFFFFFFFFFFFFFFFFFFFFFFFFFFFF MUL NOT AND SWAP1 SSTORE PUSH1 0x3 DUP3 ADD PUSH1 0x0 PUSH2 0x105F SWAP2 SWAP1 PUSH2 0x1C5F JUMP JUMPDEST PUSH1 0x4 DUP3 ADD PUSH1 0x0 SWAP1 SSTORE POP POP PUSH1 0x9 PUSH1 0x0 DUP8 DUP2 MSTORE PUSH1 0x20 ADD SWAP1 DUP2 MSTORE PUSH1 0x20 ADD PUSH1 0x0 KECCAK256 PUSH1 0x0 PUSH2 0x100 EXP DUP2 SLOAD SWAP1 PUSH20 0xFFFFFFFFFFFFFFFFFFFFFFFFFFFFFFFFFFFFFFFF MUL NOT AND SWAP1 SSTORE POP POP POP POP POP PUSH2 0x10AC PUSH2 0x19B3 JUMP JUMPDEST POP JUMP JUMPDEST PUSH2 0x10B7 PUSH2 0x1A9D JUMP JUMPDEST PUSH2 0x10BF PUSH2 0x1963 JUMP JUMPDEST PUSH1 0x0 DUP4 MLOAD GT PUSH2 0x1103 JUMPI PUSH1 0x40 MLOAD PUSH32 0x8C379A000000000000000000000000000000000000000000000000000000000 DUP2 MSTORE PUSH1 0x4 ADD PUSH2 0x10FA SWAP1 PUSH2 0x2AEB JUMP JUMPDEST PUSH1 0x40 MLOAD DUP1 SWAP2 SUB SWAP1 REVERT JUMPDEST DUP2 MLOAD DUP4 MLOAD EQ PUSH2 0x1147 JUMPI PUSH1 0x40 MLOAD PUSH32 0x8C379A000000000000000000000000000000000000000000000000000000000 DUP2 MSTORE PUSH1 0x4 ADD PUSH2 0x113E SWAP1 PUSH2 0x2B0B JUMP JUMPDEST PUSH1 0x40 MLOAD DUP1 SWAP2 SUB SWAP1 REVERT JUMPDEST PUSH1 0x0 DUP2 GT PUSH2 0x118A JUMPI PUSH1 0x40 MLOAD PUSH32 0x8C379A000000000000000000000000000000000000000000000000000000000 DUP2 MSTORE PUSH1 0x4 ADD PUSH2 0x1181 SWAP1 PUSH2 0x2A6B JUMP JUMPDEST PUSH1 0x40 MLOAD DUP1 SWAP2 SUB SWAP1 REVERT JUMPDEST PUSH1 0x0 DUP5 SWAP1 POP PUSH1 0x0 JUMPDEST DUP5 MLOAD DUP2 LT ISZERO PUSH2 0x1373 JUMPI PUSH1 0x0 DUP6 DUP3 DUP2 MLOAD DUP2 LT PUSH2 0x11D6 JUMPI PUSH32 0x4E487B7100000000000000000000000000000000000000000000000000000000 PUSH1 0x0 MSTORE PUSH1 0x32 PUSH1 0x4 MSTORE PUSH1 0x24 PUSH1 0x0 REVERT JUMPDEST PUSH1 0x20 MUL PUSH1 0x20 ADD ADD MLOAD SWAP1 POP PUSH1 0x0 DUP6 DUP4 DUP2 MLOAD DUP2 LT PUSH2 0x121B JUMPI PUSH32 0x4E487B7100000000000000000000000000000000000000000000000000000000 PUSH1 0x0 MSTORE PUSH1 0x32 PUSH1 0x4 MSTORE PUSH1 0x24 PUSH1 0x0 REVERT JUMPDEST PUSH1 0x20 MUL PUSH1 0x20 ADD ADD MLOAD SWAP1 POP PUSH1 0x0 DUP2 GT PUSH2 0x1268 JUMPI PUSH1 0x40 MLOAD PUSH32 0x8C379A000000000000000000000000000000000000000000000000000000000 DUP2 MSTORE PUSH1 0x4 ADD PUSH2 0x125F SWAP1 PUSH2 0x2A8B JUMP JUMPDEST PUSH1 0x40 MLOAD DUP1 SWAP2 SUB SWAP1 REVERT JUMPDEST CALLER PUSH20 0xFFFFFFFFFFFFFFFFFFFFFFFFFFFFFFFFFFFFFFFF AND DUP5 PUSH20 0xFFFFFFFFFFFFFFFFFFFFFFFFFFFFFFFFFFFFFFFF AND PUSH4 0x6352211E DUP5 PUSH1 0x40 MLOAD DUP3 PUSH4 0xFFFFFFFF AND PUSH1 0xE0 SHL DUP2 MSTORE PUSH1 0x4 ADD PUSH2 0x12B8 SWAP2 SWAP1 PUSH2 0x2B6B JUMP JUMPDEST PUSH1 0x20 PUSH1 0x40 MLOAD DUP1 DUP4 SUB DUP2 DUP7 DUP1 EXTCODESIZE ISZERO DUP1 ISZERO PUSH2 0x12D0 JUMPI PUSH1 0x0 DUP1 REVERT JUMPDEST POP GAS STATICCALL ISZERO DUP1 ISZERO PUSH2 0x12E4 JUMPI RETURNDATASIZE PUSH1 0x0 DUP1 RETURNDATACOPY RETURNDATASIZE PUSH1 0x0 REVERT JUMPDEST POP POP POP POP PUSH1 0x40 MLOAD RETURNDATASIZE PUSH1 0x1F NOT PUSH1 0x1F DUP3 ADD AND DUP3 ADD DUP1 PUSH1 0x40 MSTORE POP DUP2 ADD SWAP1 PUSH2 0x1308 SWAP2 SWAP1 PUSH2 0x1E71 JUMP JUMPDEST PUSH20 0xFFFFFFFFFFFFFFFFFFFFFFFFFFFFFFFFFFFFFFFF AND EQ PUSH2 0x135E JUMPI PUSH1 0x40 MLOAD PUSH32 0x8C379A000000000000000000000000000000000000000000000000000000000 DUP2 MSTORE PUSH1 0x4 ADD PUSH2 0x1355 SWAP1 PUSH2 0x298B JUMP JUMPDEST PUSH1 0x40 MLOAD DUP1 SWAP2 SUB SWAP1 REVERT JUMPDEST POP POP DUP1 DUP1 PUSH2 0x136B SWAP1 PUSH2 0x2EA4 JUMP JUMPDEST SWAP2 POP POP PUSH2 0x1192 JUMP JUMPDEST POP PUSH1 0x40 MLOAD DUP1 PUSH1 0xA0 ADD PUSH1 0x40 MSTORE DUP1 DUP7 PUSH20 0xFFFFFFFFFFFFFFFFFFFFFFFFFFFFFFFFFFFFFFFF AND DUP2 MSTORE PUSH1 0x20 ADD DUP6 DUP2 MSTORE PUSH1 0x20 ADD CALLER PUSH20 0xFFFFFFFFFFFFFFFFFFFFFFFFFFFFFFFFFFFFFFFF AND DUP2 MSTORE PUSH1 0x20 ADD DUP5 DUP2 MSTORE PUSH1 0x20 ADD DUP4 TIMESTAMP PUSH2 0x13CF SWAP2 SWAP1 PUSH2 0x2CF0 JUMP JUMPDEST DUP2 MSTORE POP PUSH1 0x8 PUSH1 0x0 PUSH1 0xA SLOAD DUP2 MSTORE PUSH1 0x20 ADD SWAP1 DUP2 MSTORE PUSH1 0x20 ADD PUSH1 0x0 KECCAK256 PUSH1 0x0 DUP3 ADD MLOAD DUP2 PUSH1 0x0 ADD PUSH1 0x0 PUSH2 0x100 EXP DUP2 SLOAD DUP2 PUSH20 0xFFFFFFFFFFFFFFFFFFFFFFFFFFFFFFFFFFFFFFFF MUL NOT AND SWAP1 DUP4 PUSH20 0xFFFFFFFFFFFFFFFFFFFFFFFFFFFFFFFFFFFFFFFF AND MUL OR SWAP1 SSTORE POP PUSH1 0x20 DUP3 ADD MLOAD DUP2 PUSH1 0x1 ADD SWAP1 DUP1 MLOAD SWAP1 PUSH1 0x20 ADD SWAP1 PUSH2 0x144A SWAP3 SWAP2 SWAP1 PUSH2 0x1CA1 JUMP JUMPDEST POP PUSH1 0x40 DUP3 ADD MLOAD DUP2 PUSH1 0x2 ADD PUSH1 0x0 PUSH2 0x100 EXP DUP2 SLOAD DUP2 PUSH20 0xFFFFFFFFFFFFFFFFFFFFFFFFFFFFFFFFFFFFFFFF MUL NOT AND SWAP1 DUP4 PUSH20 0xFFFFFFFFFFFFFFFFFFFFFFFFFFFFFFFFFFFFFFFF AND MUL OR SWAP1 SSTORE POP PUSH1 0x60 DUP3 ADD MLOAD DUP2 PUSH1 0x3 ADD SWAP1 DUP1 MLOAD SWAP1 PUSH1 0x20 ADD SWAP1 PUSH2 0x14AE SWAP3 SWAP2 SWAP1 PUSH2 0x1CA1 JUMP JUMPDEST POP PUSH1 0x80 DUP3 ADD MLOAD DUP2 PUSH1 0x4 ADD SSTORE SWAP1 POP POP CALLER PUSH1 0x9 PUSH1 0x0 PUSH1 0xA SLOAD DUP2 MSTORE PUSH1 0x20 ADD SWAP1 DUP2 MSTORE PUSH1 0x20 ADD PUSH1 0x0 KECCAK256 PUSH1 0x0 PUSH2 0x100 EXP DUP2 SLOAD DUP2 PUSH20 0xFFFFFFFFFFFFFFFFFFFFFFFFFFFFFFFFFFFFFFFF MUL NOT AND SWAP1 DUP4 PUSH20 0xFFFFFFFFFFFFFFFFFFFFFFFFFFFFFFFFFFFFFFFF AND MUL OR SWAP1 SSTORE POP PUSH1 0x3 PUSH1 0xA SLOAD SWAP1 DUP1 PUSH1 0x1 DUP2 SLOAD ADD DUP1 DUP3 SSTORE DUP1 SWAP2 POP POP PUSH1 0x1 SWAP1 SUB SWAP1 PUSH1 0x0 MSTORE PUSH1 0x20 PUSH1 0x0 KECCAK256 ADD PUSH1 0x0 SWAP1 SWAP2 SWAP1 SWAP2 SWAP1 SWAP2 POP SSTORE DUP5 PUSH20 0xFFFFFFFFFFFFFFFFFFFFFFFFFFFFFFFFFFFFFFFF AND CALLER PUSH20 0xFFFFFFFFFFFFFFFFFFFFFFFFFFFFFFFFFFFFFFFF AND PUSH1 0xA SLOAD PUSH32 0x3827CF174B534EA2BDB4E9C023A13983775839EE29833ADEBA7FEE3B8F2C755A DUP8 DUP8 DUP8 TIMESTAMP PUSH2 0x159B SWAP2 SWAP1 PUSH2 0x2CF0 JUMP JUMPDEST PUSH1 0x40 MLOAD PUSH2 0x15AA SWAP4 SWAP3 SWAP2 SWAP1 PUSH2 0x289B JUMP JUMPDEST PUSH1 0x40 MLOAD DUP1 SWAP2 SUB SWAP1 LOG4 PUSH1 0xA PUSH1 0x0 DUP2 SLOAD DUP1 SWAP3 SWAP2 SWAP1 PUSH2 0x15C5 SWAP1 PUSH2 0x2EA4 JUMP JUMPDEST SWAP2 SWAP1 POP SSTORE POP POP PUSH2 0x15D3 PUSH2 0x19B3 JUMP JUMPDEST POP POP POP POP JUMP JUMPDEST PUSH1 0x0 PUSH1 0x2 PUSH1 0x0 SWAP1 SLOAD SWAP1 PUSH2 0x100 EXP SWAP1 DIV PUSH1 0xFF AND SWAP1 POP SWAP1 JUMP JUMPDEST PUSH2 0x15F8 PUSH2 0x19BC JUMP JUMPDEST PUSH2 0x1600 PUSH2 0x1963 JUMP JUMPDEST PUSH1 0x0 PUSH20 0xFFFFFFFFFFFFFFFFFFFFFFFFFFFFFFFFFFFFFFFF AND DUP3 PUSH20 0xFFFFFFFFFFFFFFFFFFFFFFFFFFFFFFFFFFFFFFFF AND EQ ISZERO DUP1 ISZERO PUSH2 0x166A JUMPI POP PUSH1 0x0 PUSH20 0xFFFFFFFFFFFFFFFFFFFFFFFFFFFFFFFFFFFFFFFF AND DUP2 PUSH20 0xFFFFFFFFFFFFFFFFFFFFFFFFFFFFFFFFFFFFFFFF AND EQ ISZERO JUMPDEST PUSH2 0x16A9 JUMPI PUSH1 0x40 MLOAD PUSH32 0x8C379A000000000000000000000000000000000000000000000000000000000 DUP2 MSTORE PUSH1 0x4 ADD PUSH2 0x16A0 SWAP1 PUSH2 0x29AB JUMP JUMPDEST PUSH1 0x40 MLOAD DUP1 SWAP2 SUB SWAP1 REVERT JUMPDEST DUP2 PUSH1 0x6 PUSH1 0x0 PUSH2 0x100 EXP DUP2 SLOAD DUP2 PUSH20 0xFFFFFFFFFFFFFFFFFFFFFFFFFFFFFFFFFFFFFFFF MUL NOT AND SWAP1 DUP4 PUSH20 0xFFFFFFFFFFFFFFFFFFFFFFFFFFFFFFFFFFFFFFFF AND MUL OR SWAP1 SSTORE POP DUP1 PUSH1 0x7 PUSH1 0x0 PUSH2 0x100 EXP DUP2 SLOAD DUP2 PUSH20 0xFFFFFFFFFFFFFFFFFFFFFFFFFFFFFFFFFFFFFFFF MUL NOT AND SWAP1 DUP4 PUSH20 0xFFFFFFFFFFFFFFFFFFFFFFFFFFFFFFFFFFFFFFFF AND MUL OR SWAP1 SSTORE POP PUSH2 0x1733 PUSH2 0x19B3 JUMP JUMPDEST POP POP JUMP JUMPDEST PUSH2 0x173F PUSH2 0x19BC JUMP JUMPDEST PUSH2 0x1749 PUSH1 0x0 PUSH2 0x1AE7 JUMP JUMPDEST JUMP JUMPDEST PUSH2 0x1753 PUSH2 0x19BC JUMP JUMPDEST PUSH2 0x175B PUSH2 0x1963 JUMP JUMPDEST DUP2 PUSH1 0x4 DUP2 SWAP1 SSTORE POP DUP1 PUSH1 0x5 DUP2 SWAP1 SSTORE POP PUSH2 0x1771 PUSH2 0x19B3 JUMP JUMPDEST POP POP JUMP JUMPDEST PUSH1 0x9 PUSH1 0x20 MSTORE DUP1 PUSH1 0x0 MSTORE PUSH1 0x40 PUSH1 0x0 KECCAK256 PUSH1 0x0 SWAP2 POP SLOAD SWAP1 PUSH2 0x100 EXP SWAP1 DIV PUSH20 0xFFFFFFFFFFFFFFFFFFFFFFFFFFFFFFFFFFFFFFFF AND DUP2 JUMP JUMPDEST PUSH2 0x17B0 PUSH2 0x19BC JUMP JUMPDEST PUSH2 0x17B8 PUSH2 0x1963 JUMP JUMPDEST PUSH2 0x17C0 PUSH2 0x1BAB JUMP JUMPDEST PUSH2 0x17C8 PUSH2 0x19B3 JUMP JUMPDEST JUMP JUMPDEST PUSH1 0x4 SLOAD DUP2 JUMP JUMPDEST PUSH1 0x0 DUP1 PUSH1 0x0 SWAP1 SLOAD SWAP1 PUSH2 0x100 EXP SWAP1 DIV PUSH20 0xFFFFFFFFFFFFFFFFFFFFFFFFFFFFFFFFFFFFFFFF AND SWAP1 POP SWAP1 JUMP JUMPDEST PUSH1 0xA SLOAD DUP2 JUMP JUMPDEST PUSH1 0x6 PUSH1 0x0 SWAP1 SLOAD SWAP1 PUSH2 0x100 EXP SWAP1 DIV PUSH20 0xFFFFFFFFFFFFFFFFFFFFFFFFFFFFFFFFFFFFFFFF AND DUP2 JUMP JUMPDEST PUSH1 0x5 SLOAD DUP2 JUMP JUMPDEST PUSH1 0x8 PUSH1 0x20 MSTORE DUP1 PUSH1 0x0 MSTORE PUSH1 0x40 PUSH1 0x0 KECCAK256 PUSH1 0x0 SWAP2 POP SWAP1 POP DUP1 PUSH1 0x0 ADD PUSH1 0x0 SWAP1 SLOAD SWAP1 PUSH2 0x100 EXP SWAP1 DIV PUSH20 0xFFFFFFFFFFFFFFFFFFFFFFFFFFFFFFFFFFFFFFFF AND SWAP1 DUP1 PUSH1 0x2 ADD PUSH1 0x0 SWAP1 SLOAD SWAP1 PUSH2 0x100 EXP SWAP1 DIV PUSH20 0xFFFFFFFFFFFFFFFFFFFFFFFFFFFFFFFFFFFFFFFF AND SWAP1 DUP1 PUSH1 0x4 ADD SLOAD SWAP1 POP DUP4 JUMP JUMPDEST PUSH1 0x3 DUP2 DUP2 SLOAD DUP2 LT PUSH2 0x18A5 JUMPI PUSH1 0x0 DUP1 REVERT JUMPDEST SWAP1 PUSH1 0x0 MSTORE PUSH1 0x20 PUSH1 0x0 KECCAK256 ADD PUSH1 0x0 SWAP2 POP SWAP1 POP SLOAD DUP2 JUMP JUMPDEST PUSH1 0x7 PUSH1 0x0 SWAP1 SLOAD SWAP1 PUSH2 0x100 EXP SWAP1 DIV PUSH20 0xFFFFFFFFFFFFFFFFFFFFFFFFFFFFFFFFFFFFFFFF AND DUP2 JUMP JUMPDEST PUSH2 0x18E7 PUSH2 0x19BC JUMP JUMPDEST PUSH1 0x0 PUSH20 0xFFFFFFFFFFFFFFFFFFFFFFFFFFFFFFFFFFFFFFFF AND DUP2 PUSH20 0xFFFFFFFFFFFFFFFFFFFFFFFFFFFFFFFFFFFFFFFF AND EQ ISZERO PUSH2 0x1957 JUMPI PUSH1 0x40 MLOAD PUSH32 0x8C379A000000000000000000000000000000000000000000000000000000000 DUP2 MSTORE PUSH1 0x4 ADD PUSH2 0x194E SWAP1 PUSH2 0x294B JUMP JUMPDEST PUSH1 0x40 MLOAD DUP1 SWAP2 SUB SWAP1 REVERT JUMPDEST PUSH2 0x1960 DUP2 PUSH2 0x1AE7 JUMP JUMPDEST POP JUMP JUMPDEST PUSH1 0x2 PUSH1 0x1 SLOAD EQ ISZERO PUSH2 0x19A9 JUMPI PUSH1 0x40 MLOAD PUSH32 0x8C379A000000000000000000000000000000000000000000000000000000000 DUP2 MSTORE PUSH1 0x4 ADD PUSH2 0x19A0 SWAP1 PUSH2 0x2B2B JUMP JUMPDEST PUSH1 0x40 MLOAD DUP1 SWAP2 SUB SWAP1 REVERT JUMPDEST PUSH1 0x2 PUSH1 0x1 DUP2 SWAP1 SSTORE POP JUMP JUMPDEST PUSH1 0x1 DUP1 DUP2 SWAP1 SSTORE POP JUMP JUMPDEST PUSH2 0x19C4 PUSH2 0x1C0E JUMP JUMPDEST PUSH20 0xFFFFFFFFFFFFFFFFFFFFFFFFFFFFFFFFFFFFFFFF AND PUSH2 0x19E2 PUSH2 0x17D0 JUMP JUMPDEST PUSH20 0xFFFFFFFFFFFFFFFFFFFFFFFFFFFFFFFFFFFFFFFF AND EQ PUSH2 0x1A38 JUMPI PUSH1 0x40 MLOAD PUSH32 0x8C379A000000000000000000000000000000000000000000000000000000000 DUP2 MSTORE PUSH1 0x4 ADD PUSH2 0x1A2F SWAP1 PUSH2 0x2A4B JUMP JUMPDEST PUSH1 0x40 MLOAD DUP1 SWAP2 SUB SWAP1 REVERT JUMPDEST JUMP JUMPDEST PUSH2 0x1A42 PUSH2 0x1C16 JUMP JUMPDEST PUSH1 0x0 PUSH1 0x2 PUSH1 0x0 PUSH2 0x100 EXP DUP2 SLOAD DUP2 PUSH1 0xFF MUL NOT AND SWAP1 DUP4 ISZERO ISZERO MUL OR SWAP1 SSTORE POP PUSH32 0x5DB9EE0A495BF2E6FF9C91A7834C1BA4FDD244A5E8AA4E537BD38AEAE4B073AA PUSH2 0x1A86 PUSH2 0x1C0E JUMP JUMPDEST PUSH1 0x40 MLOAD PUSH2 0x1A93 SWAP2 SWAP1 PUSH2 0x2827 JUMP JUMPDEST PUSH1 0x40 MLOAD DUP1 SWAP2 SUB SWAP1 LOG1 JUMP JUMPDEST PUSH2 0x1AA5 PUSH2 0x15D9 JUMP JUMPDEST ISZERO PUSH2 0x1AE5 JUMPI PUSH1 0x40 MLOAD PUSH32 0x8C379A000000000000000000000000000000000000000000000000000000000 DUP2 MSTORE PUSH1 0x4 ADD PUSH2 0x1ADC SWAP1 PUSH2 0x29EB JUMP JUMPDEST PUSH1 0x40 MLOAD DUP1 SWAP2 SUB SWAP1 REVERT JUMPDEST JUMP JUMPDEST PUSH1 0x0 DUP1 PUSH1 0x0 SWAP1 SLOAD SWAP1 PUSH2 0x100 EXP SWAP1 DIV PUSH20 0xFFFFFFFFFFFFFFFFFFFFFFFFFFFFFFFFFFFFFFFF AND SWAP1 POP DUP2 PUSH1 0x0 DUP1 PUSH2 0x100 EXP DUP2 SLOAD DUP2 PUSH20 0xFFFFFFFFFFFFFFFFFFFFFFFFFFFFFFFFFFFFFFFF MUL NOT AND SWAP1 DUP4 PUSH20 0xFFFFFFFFFFFFFFFFFFFFFFFFFFFFFFFFFFFFFFFF AND MUL OR SWAP1 SSTORE POP DUP2 PUSH20 0xFFFFFFFFFFFFFFFFFFFFFFFFFFFFFFFFFFFFFFFF AND DUP2 PUSH20 0xFFFFFFFFFFFFFFFFFFFFFFFFFFFFFFFFFFFFFFFF AND PUSH32 0x8BE0079C531659141344CD1FD0A4F28419497F9722A3DAAFE3B4186F6B6457E0 PUSH1 0x40 MLOAD PUSH1 0x40 MLOAD DUP1 SWAP2 SUB SWAP1 LOG3 POP POP JUMP JUMPDEST PUSH2 0x1BB3 PUSH2 0x1A9D JUMP JUMPDEST PUSH1 0x1 PUSH1 0x2 PUSH1 0x0 PUSH2 0x100 EXP DUP2 SLOAD DUP2 PUSH1 0xFF MUL NOT AND SWAP1 DUP4 ISZERO ISZERO MUL OR SWAP1 SSTORE POP PUSH32 0x62E78CEA01BEE320CD4E420270B5EA74000D11B0C9F74754EBDBFC544B05A258 PUSH2 0x1BF7 PUSH2 0x1C0E JUMP JUMPDEST PUSH1 0x40 MLOAD PUSH2 0x1C04 SWAP2 SWAP1 PUSH2 0x2827 JUMP JUMPDEST PUSH1 0x40 MLOAD DUP1 SWAP2 SUB SWAP1 LOG1 JUMP JUMPDEST PUSH1 0x0 CALLER SWAP1 POP SWAP1 JUMP JUMPDEST PUSH2 0x1C1E PUSH2 0x15D9 JUMP JUMPDEST PUSH2 0x1C5D JUMPI PUSH1 0x40 MLOAD PUSH32 0x8C379A000000000000000000000000000000000000000000000000000000000 DUP2 MSTORE PUSH1 0x4 ADD PUSH2 0x1C54 SWAP1 PUSH2 0x292B JUMP JUMPDEST PUSH1 0x40 MLOAD DUP1 SWAP2 SUB SWAP1 REVERT JUMPDEST JUMP JUMPDEST POP DUP1 SLOAD PUSH1 0x0 DUP3 SSTORE SWAP1 PUSH1 0x0 MSTORE PUSH1 0x20 PUSH1 0x0 KECCAK256 SWAP1 DUP2 ADD SWAP1 PUSH2 0x1C7D SWAP2 SWAP1 PUSH2 0x1CEE JUMP JUMPDEST POP JUMP JUMPDEST PUSH1 0x40 MLOAD DUP1 PUSH1 0x60 ADD PUSH1 0x40 MSTORE DUP1 PUSH1 0x0 DUP2 MSTORE PUSH1 0x20 ADD PUSH1 0x60 DUP2 MSTORE PUSH1 0x20 ADD PUSH1 0x60 DUP2 MSTORE POP SWAP1 JUMP JUMPDEST DUP3 DUP1 SLOAD DUP3 DUP3 SSTORE SWAP1 PUSH1 0x0 MSTORE PUSH1 0x20 PUSH1 0x0 KECCAK256 SWAP1 DUP2 ADD SWAP3 DUP3 ISZERO PUSH2 0x1CDD JUMPI SWAP2 PUSH1 0x20 MUL DUP3 ADD JUMPDEST DUP3 DUP2 GT ISZERO PUSH2 0x1CDC JUMPI DUP3 MLOAD DUP3 SSTORE SWAP2 PUSH1 0x20 ADD SWAP2 SWAP1 PUSH1 0x1 ADD SWAP1 PUSH2 0x1CC1 JUMP JUMPDEST JUMPDEST POP SWAP1 POP PUSH2 0x1CEA SWAP2 SWAP1 PUSH2 0x1CEE JUMP JUMPDEST POP SWAP1 JUMP JUMPDEST JUMPDEST DUP1 DUP3 GT ISZERO PUSH2 0x1D07 JUMPI PUSH1 0x0 DUP2 PUSH1 0x0 SWAP1 SSTORE POP PUSH1 0x1 ADD PUSH2 0x1CEF JUMP JUMPDEST POP SWAP1 JUMP JUMPDEST PUSH1 0x0 PUSH2 0x1D1E PUSH2 0x1D19 DUP5 PUSH2 0x2BB7 JUMP JUMPDEST PUSH2 0x2B86 JUMP JUMPDEST SWAP1 POP DUP1 DUP4 DUP3 MSTORE PUSH1 0x20 DUP3 ADD SWAP1 POP DUP3 DUP6 PUSH1 0x20 DUP7 MUL DUP3 ADD GT ISZERO PUSH2 0x1D3D JUMPI PUSH1 0x0 DUP1 REVERT JUMPDEST PUSH1 0x0 JUMPDEST DUP6 DUP2 LT ISZERO PUSH2 0x1D6D JUMPI DUP2 PUSH2 0x1D53 DUP9 DUP3 PUSH2 0x1E33 JUMP JUMPDEST DUP5 MSTORE PUSH1 0x20 DUP5 ADD SWAP4 POP PUSH1 0x20 DUP4 ADD SWAP3 POP POP PUSH1 0x1 DUP2 ADD SWAP1 POP PUSH2 0x1D40 JUMP JUMPDEST POP POP POP SWAP4 SWAP3 POP POP POP JUMP JUMPDEST PUSH1 0x0 PUSH2 0x1D8A PUSH2 0x1D85 DUP5 PUSH2 0x2BE3 JUMP JUMPDEST PUSH2 0x2B86 JUMP JUMPDEST SWAP1 POP DUP3 DUP2 MSTORE PUSH1 0x20 DUP2 ADD DUP5 DUP5 DUP5 ADD GT ISZERO PUSH2 0x1DA2 JUMPI PUSH1 0x0 DUP1 REVERT JUMPDEST PUSH2 0x1DAD DUP5 DUP3 DUP6 PUSH2 0x2E57 JUMP JUMPDEST POP SWAP4 SWAP3 POP POP POP JUMP JUMPDEST PUSH1 0x0 DUP2 CALLDATALOAD SWAP1 POP PUSH2 0x1DC4 DUP2 PUSH2 0x2FAB JUMP JUMPDEST SWAP3 SWAP2 POP POP JUMP JUMPDEST PUSH1 0x0 DUP2 MLOAD SWAP1 POP PUSH2 0x1DD9 DUP2 PUSH2 0x2FAB JUMP JUMPDEST SWAP3 SWAP2 POP POP JUMP JUMPDEST PUSH1 0x0 DUP3 PUSH1 0x1F DUP4 ADD SLT PUSH2 0x1DF0 JUMPI PUSH1 0x0 DUP1 REVERT JUMPDEST DUP2 CALLDATALOAD PUSH2 0x1E00 DUP5 DUP3 PUSH1 0x20 DUP7 ADD PUSH2 0x1D0B JUMP JUMPDEST SWAP2 POP POP SWAP3 SWAP2 POP POP JUMP JUMPDEST PUSH1 0x0 DUP3 PUSH1 0x1F DUP4 ADD SLT PUSH2 0x1E1A JUMPI PUSH1 0x0 DUP1 REVERT JUMPDEST DUP2 MLOAD PUSH2 0x1E2A DUP5 DUP3 PUSH1 0x20 DUP7 ADD PUSH2 0x1D77 JUMP JUMPDEST SWAP2 POP POP SWAP3 SWAP2 POP POP JUMP JUMPDEST PUSH1 0x0 DUP2 CALLDATALOAD SWAP1 POP PUSH2 0x1E42 DUP2 PUSH2 0x2FC2 JUMP JUMPDEST SWAP3 SWAP2 POP POP JUMP JUMPDEST PUSH1 0x0 PUSH1 0x20 DUP3 DUP5 SUB SLT ISZERO PUSH2 0x1E5A JUMPI PUSH1 0x0 DUP1 REVERT JUMPDEST PUSH1 0x0 PUSH2 0x1E68 DUP5 DUP3 DUP6 ADD PUSH2 0x1DB5 JUMP JUMPDEST SWAP2 POP POP SWAP3 SWAP2 POP POP JUMP JUMPDEST PUSH1 0x0 PUSH1 0x20 DUP3 DUP5 SUB SLT ISZERO PUSH2 0x1E83 JUMPI PUSH1 0x0 DUP1 REVERT JUMPDEST PUSH1 0x0 PUSH2 0x1E91 DUP5 DUP3 DUP6 ADD PUSH2 0x1DCA JUMP JUMPDEST SWAP2 POP POP SWAP3 SWAP2 POP POP JUMP JUMPDEST PUSH1 0x0 DUP1 PUSH1 0x40 DUP4 DUP6 SUB SLT ISZERO PUSH2 0x1EAD JUMPI PUSH1 0x0 DUP1 REVERT JUMPDEST PUSH1 0x0 PUSH2 0x1EBB DUP6 DUP3 DUP7 ADD PUSH2 0x1DB5 JUMP JUMPDEST SWAP3 POP POP PUSH1 0x20 PUSH2 0x1ECC DUP6 DUP3 DUP7 ADD PUSH2 0x1DB5 JUMP JUMPDEST SWAP2 POP POP SWAP3 POP SWAP3 SWAP1 POP JUMP JUMPDEST PUSH1 0x0 DUP1 PUSH1 0x0 DUP1 PUSH1 0x80 DUP6 DUP8 SUB SLT ISZERO PUSH2 0x1EEC JUMPI PUSH1 0x0 DUP1 REVERT JUMPDEST PUSH1 0x0 PUSH2 0x1EFA DUP8 DUP3 DUP9 ADD PUSH2 0x1DB5 JUMP JUMPDEST SWAP5 POP POP PUSH1 0x20 DUP6 ADD CALLDATALOAD PUSH8 0xFFFFFFFFFFFFFFFF DUP2 GT ISZERO PUSH2 0x1F17 JUMPI PUSH1 0x0 DUP1 REVERT JUMPDEST PUSH2 0x1F23 DUP8 DUP3 DUP9 ADD PUSH2 0x1DDF JUMP JUMPDEST SWAP4 POP POP PUSH1 0x40 DUP6 ADD CALLDATALOAD PUSH8 0xFFFFFFFFFFFFFFFF DUP2 GT ISZERO PUSH2 0x1F40 JUMPI PUSH1 0x0 DUP1 REVERT JUMPDEST PUSH2 0x1F4C DUP8 DUP3 DUP9 ADD PUSH2 0x1DDF JUMP JUMPDEST SWAP3 POP POP PUSH1 0x60 PUSH2 0x1F5D DUP8 DUP3 DUP9 ADD PUSH2 0x1E33 JUMP JUMPDEST SWAP2 POP POP SWAP3 SWAP6 SWAP2 SWAP5 POP SWAP3 POP JUMP JUMPDEST PUSH1 0x0 PUSH1 0x20 DUP3 DUP5 SUB SLT ISZERO PUSH2 0x1F7B JUMPI PUSH1 0x0 DUP1 REVERT JUMPDEST PUSH1 0x0 DUP3 ADD MLOAD PUSH8 0xFFFFFFFFFFFFFFFF DUP2 GT ISZERO PUSH2 0x1F95 JUMPI PUSH1 0x0 DUP1 REVERT JUMPDEST PUSH2 0x1FA1 DUP5 DUP3 DUP6 ADD PUSH2 0x1E09 JUMP JUMPDEST SWAP2 POP POP SWAP3 SWAP2 POP POP JUMP JUMPDEST PUSH1 0x0 PUSH1 0x20 DUP3 DUP5 SUB SLT ISZERO PUSH2 0x1FBC JUMPI PUSH1 0x0 DUP1 REVERT JUMPDEST PUSH1 0x0 PUSH2 0x1FCA DUP5 DUP3 DUP6 ADD PUSH2 0x1E33 JUMP JUMPDEST SWAP2 POP POP SWAP3 SWAP2 POP POP JUMP JUMPDEST PUSH1 0x0 DUP1 PUSH1 0x40 DUP4 DUP6 SUB SLT ISZERO PUSH2 0x1FE6 JUMPI PUSH1 0x0 DUP1 REVERT JUMPDEST PUSH1 0x0 PUSH2 0x1FF4 DUP6 DUP3 DUP7 ADD PUSH2 0x1E33 JUMP JUMPDEST SWAP3 POP POP PUSH1 0x20 PUSH2 0x2005 DUP6 DUP3 DUP7 ADD PUSH2 0x1E33 JUMP JUMPDEST SWAP2 POP POP SWAP3 POP SWAP3 SWAP1 POP JUMP JUMPDEST PUSH1 0x0 PUSH2 0x201B DUP4 DUP4 PUSH2 0x27B2 JUMP JUMPDEST SWAP1 POP SWAP3 SWAP2 POP POP JUMP JUMPDEST PUSH1 0x0 PUSH2 0x202F DUP4 DUP4 PUSH2 0x2809 JUMP JUMPDEST PUSH1 0x20 DUP4 ADD SWAP1 POP SWAP3 SWAP2 POP POP JUMP JUMPDEST PUSH2 0x2044 DUP2 PUSH2 0x2E0F JUMP JUMPDEST DUP3 MSTORE POP POP JUMP JUMPDEST PUSH1 0x0 PUSH2 0x2055 DUP3 PUSH2 0x2C48 JUMP JUMPDEST PUSH2 0x205F DUP2 DUP6 PUSH2 0x2C9B JUMP JUMPDEST SWAP4 POP DUP4 PUSH1 0x20 DUP3 MUL DUP6 ADD PUSH2 0x2071 DUP6 PUSH2 0x2C13 JUMP JUMPDEST DUP1 PUSH1 0x0 JUMPDEST DUP6 DUP2 LT ISZERO PUSH2 0x20AD JUMPI DUP5 DUP5 SUB DUP10 MSTORE DUP2 MLOAD PUSH2 0x208E DUP6 DUP3 PUSH2 0x200F JUMP JUMPDEST SWAP5 POP PUSH2 0x2099 DUP4 PUSH2 0x2C74 JUMP JUMPDEST SWAP3 POP PUSH1 0x20 DUP11 ADD SWAP10 POP POP PUSH1 0x1 DUP2 ADD SWAP1 POP PUSH2 0x2075 JUMP JUMPDEST POP DUP3 SWAP8 POP DUP8 SWAP6 POP POP POP POP POP POP SWAP3 SWAP2 POP POP JUMP JUMPDEST PUSH1 0x0 PUSH2 0x20CA DUP3 PUSH2 0x2C53 JUMP JUMPDEST PUSH2 0x20D4 DUP2 DUP6 PUSH2 0x2CAC JUMP JUMPDEST SWAP4 POP PUSH2 0x20DF DUP4 PUSH2 0x2C23 JUMP JUMPDEST DUP1 PUSH1 0x0 JUMPDEST DUP4 DUP2 LT ISZERO PUSH2 0x2110 JUMPI DUP2 MLOAD PUSH2 0x20F7 DUP9 DUP3 PUSH2 0x2023 JUMP JUMPDEST SWAP8 POP PUSH2 0x2102 DUP4 PUSH2 0x2C81 JUMP JUMPDEST SWAP3 POP POP PUSH1 0x1 DUP2 ADD SWAP1 POP PUSH2 0x20E3 JUMP JUMPDEST POP DUP6 SWAP4 POP POP POP POP SWAP3 SWAP2 POP POP JUMP JUMPDEST PUSH1 0x0 PUSH2 0x2128 DUP3 PUSH2 0x2C53 JUMP JUMPDEST PUSH2 0x2132 DUP2 DUP6 PUSH2 0x2CBD JUMP JUMPDEST SWAP4 POP PUSH2 0x213D DUP4 PUSH2 0x2C23 JUMP JUMPDEST DUP1 PUSH1 0x0 JUMPDEST DUP4 DUP2 LT ISZERO PUSH2 0x216E JUMPI DUP2 MLOAD PUSH2 0x2155 DUP9 DUP3 PUSH2 0x2023 JUMP JUMPDEST SWAP8 POP PUSH2 0x2160 DUP4 PUSH2 0x2C81 JUMP JUMPDEST SWAP3 POP POP PUSH1 0x1 DUP2 ADD SWAP1 POP PUSH2 0x2141 JUMP JUMPDEST POP DUP6 SWAP4 POP POP POP POP SWAP3 SWAP2 POP POP JUMP JUMPDEST PUSH1 0x0 PUSH2 0x2186 DUP3 PUSH2 0x2C5E JUMP JUMPDEST PUSH2 0x2190 DUP2 DUP6 PUSH2 0x2CBD JUMP JUMPDEST SWAP4 POP PUSH2 0x219B DUP4 PUSH2 0x2C33 JUMP JUMPDEST DUP1 PUSH1 0x0 JUMPDEST DUP4 DUP2 LT ISZERO PUSH2 0x21D3 JUMPI PUSH2 0x21B0 DUP3 PUSH2 0x2F7A JUMP JUMPDEST PUSH2 0x21BA DUP9 DUP3 PUSH2 0x2023 JUMP JUMPDEST SWAP8 POP PUSH2 0x21C5 DUP4 PUSH2 0x2C8E JUMP JUMPDEST SWAP3 POP POP PUSH1 0x1 DUP2 ADD SWAP1 POP PUSH2 0x219F JUMP JUMPDEST POP DUP6 SWAP4 POP POP POP POP SWAP3 SWAP2 POP POP JUMP JUMPDEST PUSH2 0x21E9 DUP2 PUSH2 0x2E21 JUMP JUMPDEST DUP3 MSTORE POP POP JUMP JUMPDEST PUSH1 0x0 PUSH2 0x21FA DUP3 PUSH2 0x2C69 JUMP JUMPDEST PUSH2 0x2204 DUP2 DUP6 PUSH2 0x2CCE JUMP JUMPDEST SWAP4 POP PUSH2 0x2214 DUP2 DUP6 PUSH1 0x20 DUP7 ADD PUSH2 0x2E57 JUMP JUMPDEST PUSH2 0x221D DUP2 PUSH2 0x2F8D JUMP JUMPDEST DUP5 ADD SWAP2 POP POP SWAP3 SWAP2 POP POP JUMP JUMPDEST PUSH1 0x0 PUSH2 0x2235 PUSH1 0x14 DUP4 PUSH2 0x2CDF JUMP JUMPDEST SWAP2 POP PUSH32 0x5061757361626C653A206E6F7420706175736564000000000000000000000000 PUSH1 0x0 DUP4 ADD MSTORE PUSH1 0x20 DUP3 ADD SWAP1 POP SWAP2 SWAP1 POP JUMP JUMPDEST PUSH1 0x0 PUSH2 0x2275 PUSH1 0x26 DUP4 PUSH2 0x2CDF JUMP JUMPDEST SWAP2 POP PUSH32 0x4F776E61626C653A206E6577206F776E657220697320746865207A65726F2061 PUSH1 0x0 DUP4 ADD MSTORE PUSH32 0x6464726573730000000000000000000000000000000000000000000000000000 PUSH1 0x20 DUP4 ADD MSTORE PUSH1 0x40 DUP3 ADD SWAP1 POP SWAP2 SWAP1 POP JUMP JUMPDEST PUSH1 0x0 PUSH2 0x22DB PUSH1 0x21 DUP4 PUSH2 0x2CDF JUMP JUMPDEST SWAP2 POP PUSH32 0x596F752063616E6E6F742062757920796F7572206F776E206C697374696E6773 PUSH1 0x0 DUP4 ADD MSTORE PUSH32 0x2E00000000000000000000000000000000000000000000000000000000000000 PUSH1 0x20 DUP4 ADD MSTORE PUSH1 0x40 DUP3 ADD SWAP1 POP SWAP2 SWAP1 POP JUMP JUMPDEST PUSH1 0x0 PUSH2 0x2341 PUSH1 0x20 DUP4 PUSH2 0x2CDF JUMP JUMPDEST SWAP2 POP PUSH32 0x596F75206D757374206F776E20746865204E465420746F206C6973742069742E PUSH1 0x0 DUP4 ADD MSTORE PUSH1 0x20 DUP3 ADD SWAP1 POP SWAP2 SWAP1 POP JUMP JUMPDEST PUSH1 0x0 PUSH2 0x2381 PUSH1 0x18 DUP4 PUSH2 0x2CDF JUMP JUMPDEST SWAP2 POP PUSH32 0x4164647265737365732063616E6E6F74206265207A65726F0000000000000000 PUSH1 0x0 DUP4 ADD MSTORE PUSH1 0x20 DUP3 ADD SWAP1 POP SWAP2 SWAP1 POP JUMP JUMPDEST PUSH1 0x0 PUSH2 0x23C1 PUSH1 0x19 DUP4 PUSH2 0x2CDF JUMP JUMPDEST SWAP2 POP PUSH32 0x54686973206C697374696E672068617320657870697265642E00000000000000 PUSH1 0x0 DUP4 ADD MSTORE PUSH1 0x20 DUP3 ADD SWAP1 POP SWAP2 SWAP1 POP JUMP JUMPDEST PUSH1 0x0 PUSH2 0x2401 PUSH1 0x10 DUP4 PUSH2 0x2CDF JUMP JUMPDEST SWAP2 POP PUSH32 0x5061757361626C653A2070617573656400000000000000000000000000000000 PUSH1 0x0 DUP4 ADD MSTORE PUSH1 0x20 DUP3 ADD SWAP1 POP SWAP2 SWAP1 POP JUMP JUMPDEST PUSH1 0x0 PUSH2 0x2441 PUSH1 0x25 DUP4 PUSH2 0x2CDF JUMP JUMPDEST SWAP2 POP PUSH32 0x4F6E6C7920746865206C697374696E67206F776E65722063616E2063616E6365 PUSH1 0x0 DUP4 ADD MSTORE PUSH32 0x6C2069742E000000000000000000000000000000000000000000000000000000 PUSH1 0x20 DUP4 ADD MSTORE PUSH1 0x40 DUP3 ADD SWAP1 POP SWAP2 SWAP1 POP JUMP JUMPDEST PUSH1 0x0 PUSH2 0x24A7 PUSH1 0x17 DUP4 PUSH2 0x2CDF JUMP JUMPDEST SWAP2 POP PUSH32 0x4C697374696E6720646F6573206E6F742065786973742E000000000000000000 PUSH1 0x0 DUP4 ADD MSTORE PUSH1 0x20 DUP3 ADD SWAP1 POP SWAP2 SWAP1 POP JUMP JUMPDEST PUSH1 0x0 PUSH2 0x24E7 PUSH1 0x20 DUP4 PUSH2 0x2CDF JUMP JUMPDEST SWAP2 POP PUSH32 0x4F776E61626C653A2063616C6C6572206973206E6F7420746865206F776E6572 PUSH1 0x0 DUP4 ADD MSTORE PUSH1 0x20 DUP3 ADD SWAP1 POP SWAP2 SWAP1 POP JUMP JUMPDEST PUSH1 0x0 PUSH2 0x2527 PUSH1 0x23 DUP4 PUSH2 0x2CDF JUMP JUMPDEST SWAP2 POP PUSH32 0x446561646C696E65206D7573742062652067726561746572207468616E207A65 PUSH1 0x0 DUP4 ADD MSTORE PUSH32 0x726F2E0000000000000000000000000000000000000000000000000000000000 PUSH1 0x20 DUP4 ADD MSTORE PUSH1 0x40 DUP3 ADD SWAP1 POP SWAP2 SWAP1 POP JUMP JUMPDEST PUSH1 0x0 PUSH2 0x258D PUSH1 0x20 DUP4 PUSH2 0x2CDF JUMP JUMPDEST SWAP2 POP PUSH32 0x5072696365206D7573742062652067726561746572207468616E207A65726F2E PUSH1 0x0 DUP4 ADD MSTORE PUSH1 0x20 DUP3 ADD SWAP1 POP SWAP2 SWAP1 POP JUMP JUMPDEST PUSH1 0x0 PUSH2 0x25CD PUSH1 0x25 DUP4 PUSH2 0x2CDF JUMP JUMPDEST SWAP2 POP PUSH32 0x53656E742076616C7565206D7573742062652067726561746572207468616E20 PUSH1 0x0 DUP4 ADD MSTORE PUSH32 0x7A65726F2E000000000000000000000000000000000000000000000000000000 PUSH1 0x20 DUP4 ADD MSTORE PUSH1 0x40 DUP3 ADD SWAP1 POP SWAP2 SWAP1 POP JUMP JUMPDEST PUSH1 0x0 PUSH2 0x2633 PUSH1 0x2C DUP4 PUSH2 0x2CDF JUMP JUMPDEST SWAP2 POP PUSH32 0x53656E742076616C7565206D75737420626520657175616C20746F2074686520 PUSH1 0x0 DUP4 ADD MSTORE PUSH32 0x746F74616C2070726963652E0000000000000000000000000000000000000000 PUSH1 0x20 DUP4 ADD MSTORE PUSH1 0x40 DUP3 ADD SWAP1 POP SWAP2 SWAP1 POP JUMP JUMPDEST PUSH1 0x0 PUSH2 0x2699 PUSH1 0x1D DUP4 PUSH2 0x2CDF JUMP JUMPDEST SWAP2 POP PUSH32 0x4D757374206C697374206174206C65617374206F6E6520746F6B656E2E000000 PUSH1 0x0 DUP4 ADD MSTORE PUSH1 0x20 DUP3 ADD SWAP1 POP SWAP2 SWAP1 POP JUMP JUMPDEST PUSH1 0x0 PUSH2 0x26D9 PUSH1 0x2F DUP4 PUSH2 0x2CDF JUMP JUMPDEST SWAP2 POP PUSH32 0x546F6B656E2049447320616E6420707269636573206D75737420686176652074 PUSH1 0x0 DUP4 ADD MSTORE PUSH32 0x68652073616D65206C656E6774682E0000000000000000000000000000000000 PUSH1 0x20 DUP4 ADD MSTORE PUSH1 0x40 DUP3 ADD SWAP1 POP SWAP2 SWAP1 POP JUMP JUMPDEST PUSH1 0x0 PUSH2 0x273F PUSH1 0x1F DUP4 PUSH2 0x2CDF JUMP JUMPDEST SWAP2 POP PUSH32 0x5265656E7472616E637947756172643A207265656E7472616E742063616C6C00 PUSH1 0x0 DUP4 ADD MSTORE PUSH1 0x20 DUP3 ADD SWAP1 POP SWAP2 SWAP1 POP JUMP JUMPDEST PUSH1 0x0 PUSH2 0x277F PUSH1 0x1E DUP4 PUSH2 0x2CDF JUMP JUMPDEST SWAP2 POP PUSH32 0x53656C6C6572206E6F206C6F6E676572206F776E7320746865204E46542E0000 PUSH1 0x0 DUP4 ADD MSTORE PUSH1 0x20 DUP3 ADD SWAP1 POP SWAP2 SWAP1 POP JUMP JUMPDEST PUSH1 0x0 PUSH1 0x60 DUP4 ADD PUSH1 0x0 DUP4 ADD MLOAD PUSH2 0x27CA PUSH1 0x0 DUP7 ADD DUP3 PUSH2 0x2809 JUMP JUMPDEST POP PUSH1 0x20 DUP4 ADD MLOAD DUP5 DUP3 SUB PUSH1 0x20 DUP7 ADD MSTORE PUSH2 0x27E2 DUP3 DUP3 PUSH2 0x20BF JUMP JUMPDEST SWAP2 POP POP PUSH1 0x40 DUP4 ADD MLOAD DUP5 DUP3 SUB PUSH1 0x40 DUP7 ADD MSTORE PUSH2 0x27FC DUP3 DUP3 PUSH2 0x21EF JUMP JUMPDEST SWAP2 POP POP DUP1 SWAP2 POP POP SWAP3 SWAP2 POP POP JUMP JUMPDEST PUSH2 0x2812 DUP2 PUSH2 0x2E4D JUMP JUMPDEST DUP3 MSTORE POP POP JUMP JUMPDEST PUSH2 0x2821 DUP2 PUSH2 0x2E4D JUMP JUMPDEST DUP3 MSTORE POP POP JUMP JUMPDEST PUSH1 0x0 PUSH1 0x20 DUP3 ADD SWAP1 POP PUSH2 0x283C PUSH1 0x0 DUP4 ADD DUP5 PUSH2 0x203B JUMP JUMPDEST SWAP3 SWAP2 POP POP JUMP JUMPDEST PUSH1 0x0 PUSH1 0x60 DUP3 ADD SWAP1 POP PUSH2 0x2857 PUSH1 0x0 DUP4 ADD DUP7 PUSH2 0x203B JUMP JUMPDEST PUSH2 0x2864 PUSH1 0x20 DUP4 ADD DUP6 PUSH2 0x203B JUMP JUMPDEST PUSH2 0x2871 PUSH1 0x40 DUP4 ADD DUP5 PUSH2 0x2818 JUMP JUMPDEST SWAP5 SWAP4 POP POP POP POP JUMP JUMPDEST PUSH1 0x0 PUSH1 0x20 DUP3 ADD SWAP1 POP DUP2 DUP2 SUB PUSH1 0x0 DUP4 ADD MSTORE PUSH2 0x2893 DUP2 DUP5 PUSH2 0x204A JUMP JUMPDEST SWAP1 POP SWAP3 SWAP2 POP POP JUMP JUMPDEST PUSH1 0x0 PUSH1 0x60 DUP3 ADD SWAP1 POP DUP2 DUP2 SUB PUSH1 0x0 DUP4 ADD MSTORE PUSH2 0x28B5 DUP2 DUP7 PUSH2 0x211D JUMP JUMPDEST SWAP1 POP DUP2 DUP2 SUB PUSH1 0x20 DUP4 ADD MSTORE PUSH2 0x28C9 DUP2 DUP6 PUSH2 0x211D JUMP JUMPDEST SWAP1 POP PUSH2 0x28D8 PUSH1 0x40 DUP4 ADD DUP5 PUSH2 0x2818 JUMP JUMPDEST SWAP5 SWAP4 POP POP POP POP JUMP JUMPDEST PUSH1 0x0 PUSH1 0x40 DUP3 ADD SWAP1 POP DUP2 DUP2 SUB PUSH1 0x0 DUP4 ADD MSTORE PUSH2 0x28FA DUP2 DUP6 PUSH2 0x217B JUMP JUMPDEST SWAP1 POP PUSH2 0x2909 PUSH1 0x20 DUP4 ADD DUP5 PUSH2 0x2818 JUMP JUMPDEST SWAP4 SWAP3 POP POP POP JUMP JUMPDEST PUSH1 0x0 PUSH1 0x20 DUP3 ADD SWAP1 POP PUSH2 0x2925 PUSH1 0x0 DUP4 ADD DUP5 PUSH2 0x21E0 JUMP JUMPDEST SWAP3 SWAP2 POP POP JUMP JUMPDEST PUSH1 0x0 PUSH1 0x20 DUP3 ADD SWAP1 POP DUP2 DUP2 SUB PUSH1 0x0 DUP4 ADD MSTORE PUSH2 0x2944 DUP2 PUSH2 0x2228 JUMP JUMPDEST SWAP1 POP SWAP2 SWAP1 POP JUMP JUMPDEST PUSH1 0x0 PUSH1 0x20 DUP3 ADD SWAP1 POP DUP2 DUP2 SUB PUSH1 0x0 DUP4 ADD MSTORE PUSH2 0x2964 DUP2 PUSH2 0x2268 JUMP JUMPDEST SWAP1 POP SWAP2 SWAP1 POP JUMP JUMPDEST PUSH1 0x0 PUSH1 0x20 DUP3 ADD SWAP1 POP DUP2 DUP2 SUB PUSH1 0x0 DUP4 ADD MSTORE PUSH2 0x2984 DUP2 PUSH2 0x22CE JUMP JUMPDEST SWAP1 POP SWAP2 SWAP1 POP JUMP JUMPDEST PUSH1 0x0 PUSH1 0x20 DUP3 ADD SWAP1 POP DUP2 DUP2 SUB PUSH1 0x0 DUP4 ADD MSTORE PUSH2 0x29A4 DUP2 PUSH2 0x2334 JUMP JUMPDEST SWAP1 POP SWAP2 SWAP1 POP JUMP JUMPDEST PUSH1 0x0 PUSH1 0x20 DUP3 ADD SWAP1 POP DUP2 DUP2 SUB PUSH1 0x0 DUP4 ADD MSTORE PUSH2 0x29C4 DUP2 PUSH2 0x2374 JUMP JUMPDEST SWAP1 POP SWAP2 SWAP1 POP JUMP JUMPDEST PUSH1 0x0 PUSH1 0x20 DUP3 ADD SWAP1 POP DUP2 DUP2 SUB PUSH1 0x0 DUP4 ADD MSTORE PUSH2 0x29E4 DUP2 PUSH2 0x23B4 JUMP JUMPDEST SWAP1 POP SWAP2 SWAP1 POP JUMP JUMPDEST PUSH1 0x0 PUSH1 0x20 DUP3 ADD SWAP1 POP DUP2 DUP2 SUB PUSH1 0x0 DUP4 ADD MSTORE PUSH2 0x2A04 DUP2 PUSH2 0x23F4 JUMP JUMPDEST SWAP1 POP SWAP2 SWAP1 POP JUMP JUMPDEST PUSH1 0x0 PUSH1 0x20 DUP3 ADD SWAP1 POP DUP2 DUP2 SUB PUSH1 0x0 DUP4 ADD MSTORE PUSH2 0x2A24 DUP2 PUSH2 0x2434 JUMP JUMPDEST SWAP1 POP SWAP2 SWAP1 POP JUMP JUMPDEST PUSH1 0x0 PUSH1 0x20 DUP3 ADD SWAP1 POP DUP2 DUP2 SUB PUSH1 0x0 DUP4 ADD MSTORE PUSH2 0x2A44 DUP2 PUSH2 0x249A JUMP JUMPDEST SWAP1 POP SWAP2 SWAP1 POP JUMP JUMPDEST PUSH1 0x0 PUSH1 0x20 DUP3 ADD SWAP1 POP DUP2 DUP2 SUB PUSH1 0x0 DUP4 ADD MSTORE PUSH2 0x2A64 DUP2 PUSH2 0x24DA JUMP JUMPDEST SWAP1 POP SWAP2 SWAP1 POP JUMP JUMPDEST PUSH1 0x0 PUSH1 0x20 DUP3 ADD SWAP1 POP DUP2 DUP2 SUB PUSH1 0x0 DUP4 ADD MSTORE PUSH2 0x2A84 DUP2 PUSH2 0x251A JUMP JUMPDEST SWAP1 POP SWAP2 SWAP1 POP JUMP JUMPDEST PUSH1 0x0 PUSH1 0x20 DUP3 ADD SWAP1 POP DUP2 DUP2 SUB PUSH1 0x0 DUP4 ADD MSTORE PUSH2 0x2AA4 DUP2 PUSH2 0x2580 JUMP JUMPDEST SWAP1 POP SWAP2 SWAP1 POP JUMP JUMPDEST PUSH1 0x0 PUSH1 0x20 DUP3 ADD SWAP1 POP DUP2 DUP2 SUB PUSH1 0x0 DUP4 ADD MSTORE PUSH2 0x2AC4 DUP2 PUSH2 0x25C0 JUMP JUMPDEST SWAP1 POP SWAP2 SWAP1 POP JUMP JUMPDEST PUSH1 0x0 PUSH1 0x20 DUP3 ADD SWAP1 POP DUP2 DUP2 SUB PUSH1 0x0 DUP4 ADD MSTORE PUSH2 0x2AE4 DUP2 PUSH2 0x2626 JUMP JUMPDEST SWAP1 POP SWAP2 SWAP1 POP JUMP JUMPDEST PUSH1 0x0 PUSH1 0x20 DUP3 ADD SWAP1 POP DUP2 DUP2 SUB PUSH1 0x0 DUP4 ADD MSTORE PUSH2 0x2B04 DUP2 PUSH2 0x268C JUMP JUMPDEST SWAP1 POP SWAP2 SWAP1 POP JUMP JUMPDEST PUSH1 0x0 PUSH1 0x20 DUP3 ADD SWAP1 POP DUP2 DUP2 SUB PUSH1 0x0 DUP4 ADD MSTORE PUSH2 0x2B24 DUP2 PUSH2 0x26CC JUMP JUMPDEST SWAP1 POP SWAP2 SWAP1 POP JUMP JUMPDEST PUSH1 0x0 PUSH1 0x20 DUP3 ADD SWAP1 POP DUP2 DUP2 SUB PUSH1 0x0 DUP4 ADD MSTORE PUSH2 0x2B44 DUP2 PUSH2 0x2732 JUMP JUMPDEST SWAP1 POP SWAP2 SWAP1 POP JUMP JUMPDEST PUSH1 0x0 PUSH1 0x20 DUP3 ADD SWAP1 POP DUP2 DUP2 SUB PUSH1 0x0 DUP4 ADD MSTORE PUSH2 0x2B64 DUP2 PUSH2 0x2772 JUMP JUMPDEST SWAP1 POP SWAP2 SWAP1 POP JUMP JUMPDEST PUSH1 0x0 PUSH1 0x20 DUP3 ADD SWAP1 POP PUSH2 0x2B80 PUSH1 0x0 DUP4 ADD DUP5 PUSH2 0x2818 JUMP JUMPDEST SWAP3 SWAP2 POP POP JUMP JUMPDEST PUSH1 0x0 PUSH1 0x40 MLOAD SWAP1 POP DUP2 DUP2 ADD DUP2 DUP2 LT PUSH8 0xFFFFFFFFFFFFFFFF DUP3 GT OR ISZERO PUSH2 0x2BAD JUMPI PUSH2 0x2BAC PUSH2 0x2F4B JUMP JUMPDEST JUMPDEST DUP1 PUSH1 0x40 MSTORE POP SWAP2 SWAP1 POP JUMP JUMPDEST PUSH1 0x0 PUSH8 0xFFFFFFFFFFFFFFFF DUP3 GT ISZERO PUSH2 0x2BD2 JUMPI PUSH2 0x2BD1 PUSH2 0x2F4B JUMP JUMPDEST JUMPDEST PUSH1 0x20 DUP3 MUL SWAP1 POP PUSH1 0x20 DUP2 ADD SWAP1 POP SWAP2 SWAP1 POP JUMP JUMPDEST PUSH1 0x0 PUSH8 0xFFFFFFFFFFFFFFFF DUP3 GT ISZERO PUSH2 0x2BFE JUMPI PUSH2 0x2BFD PUSH2 0x2F4B JUMP JUMPDEST JUMPDEST PUSH1 0x1F NOT PUSH1 0x1F DUP4 ADD AND SWAP1 POP PUSH1 0x20 DUP2 ADD SWAP1 POP SWAP2 SWAP1 POP JUMP JUMPDEST PUSH1 0x0 DUP2 SWAP1 POP PUSH1 0x20 DUP3 ADD SWAP1 POP SWAP2 SWAP1 POP JUMP JUMPDEST PUSH1 0x0 DUP2 SWAP1 POP PUSH1 0x20 DUP3 ADD SWAP1 POP SWAP2 SWAP1 POP JUMP JUMPDEST PUSH1 0x0 DUP2 SWAP1 POP DUP2 PUSH1 0x0 MSTORE PUSH1 0x20 PUSH1 0x0 KECCAK256 SWAP1 POP SWAP2 SWAP1 POP JUMP JUMPDEST PUSH1 0x0 DUP2 MLOAD SWAP1 POP SWAP2 SWAP1 POP JUMP JUMPDEST PUSH1 0x0 DUP2 MLOAD SWAP1 POP SWAP2 SWAP1 POP JUMP JUMPDEST PUSH1 0x0 DUP2 SLOAD SWAP1 POP SWAP2 SWAP1 POP JUMP JUMPDEST PUSH1 0x0 DUP2 MLOAD SWAP1 POP SWAP2 SWAP1 POP JUMP JUMPDEST PUSH1 0x0 PUSH1 0x20 DUP3 ADD SWAP1 POP SWAP2 SWAP1 POP JUMP JUMPDEST PUSH1 0x0 PUSH1 0x20 DUP3 ADD SWAP1 POP SWAP2 SWAP1 POP JUMP JUMPDEST PUSH1 0x0 PUSH1 0x1 DUP3 ADD SWAP1 POP SWAP2 SWAP1 POP JUMP JUMPDEST PUSH1 0x0 DUP3 DUP3 MSTORE PUSH1 0x20 DUP3 ADD SWAP1 POP SWAP3 SWAP2 POP POP JUMP JUMPDEST PUSH1 0x0 DUP3 DUP3 MSTORE PUSH1 0x20 DUP3 ADD SWAP1 POP SWAP3 SWAP2 POP POP JUMP JUMPDEST PUSH1 0x0 DUP3 DUP3 MSTORE PUSH1 0x20 DUP3 ADD SWAP1 POP SWAP3 SWAP2 POP POP JUMP JUMPDEST PUSH1 0x0 DUP3 DUP3 MSTORE PUSH1 0x20 DUP3 ADD SWAP1 POP SWAP3 SWAP2 POP POP JUMP JUMPDEST PUSH1 0x0 DUP3 DUP3 MSTORE PUSH1 0x20 DUP3 ADD SWAP1 POP SWAP3 SWAP2 POP POP JUMP JUMPDEST PUSH1 0x0 PUSH2 0x2CFB DUP3 PUSH2 0x2E4D JUMP JUMPDEST SWAP2 POP PUSH2 0x2D06 DUP4 PUSH2 0x2E4D JUMP JUMPDEST SWAP3 POP DUP3 PUSH32 0xFFFFFFFFFFFFFFFFFFFFFFFFFFFFFFFFFFFFFFFFFFFFFFFFFFFFFFFFFFFFFFFF SUB DUP3 GT ISZERO PUSH2 0x2D3B JUMPI PUSH2 0x2D3A PUSH2 0x2EED JUMP JUMPDEST JUMPDEST DUP3 DUP3 ADD SWAP1 POP SWAP3 SWAP2 POP POP JUMP JUMPDEST PUSH1 0x0 PUSH2 0x2D51 DUP3 PUSH2 0x2E4D JUMP JUMPDEST SWAP2 POP PUSH2 0x2D5C DUP4 PUSH2 0x2E4D JUMP JUMPDEST SWAP3 POP DUP3 PUSH2 0x2D6C JUMPI PUSH2 0x2D6B PUSH2 0x2F1C JUMP JUMPDEST JUMPDEST DUP3 DUP3 DIV SWAP1 POP SWAP3 SWAP2 POP POP JUMP JUMPDEST PUSH1 0x0 PUSH2 0x2D82 DUP3 PUSH2 0x2E4D JUMP JUMPDEST SWAP2 POP PUSH2 0x2D8D DUP4 PUSH2 0x2E4D JUMP JUMPDEST SWAP3 POP DUP2 PUSH32 0xFFFFFFFFFFFFFFFFFFFFFFFFFFFFFFFFFFFFFFFFFFFFFFFFFFFFFFFFFFFFFFFF DIV DUP4 GT DUP3 ISZERO ISZERO AND ISZERO PUSH2 0x2DC6 JUMPI PUSH2 0x2DC5 PUSH2 0x2EED JUMP JUMPDEST JUMPDEST DUP3 DUP3 MUL SWAP1 POP SWAP3 SWAP2 POP POP JUMP JUMPDEST PUSH1 0x0 PUSH2 0x2DDC DUP3 PUSH2 0x2E4D JUMP JUMPDEST SWAP2 POP PUSH2 0x2DE7 DUP4 PUSH2 0x2E4D JUMP JUMPDEST SWAP3 POP DUP3 DUP3 LT ISZERO PUSH2 0x2DFA JUMPI PUSH2 0x2DF9 PUSH2 0x2EED JUMP JUMPDEST JUMPDEST DUP3 DUP3 SUB SWAP1 POP SWAP3 SWAP2 POP POP JUMP JUMPDEST PUSH1 0x0 DUP2 SWAP1 POP SWAP2 SWAP1 POP JUMP JUMPDEST PUSH1 0x0 PUSH2 0x2E1A DUP3 PUSH2 0x2E2D JUMP JUMPDEST SWAP1 POP SWAP2 SWAP1 POP JUMP JUMPDEST PUSH1 0x0 DUP2 ISZERO ISZERO SWAP1 POP SWAP2 SWAP1 POP JUMP JUMPDEST PUSH1 0x0 PUSH20 0xFFFFFFFFFFFFFFFFFFFFFFFFFFFFFFFFFFFFFFFF DUP3 AND SWAP1 POP SWAP2 SWAP1 POP JUMP JUMPDEST PUSH1 0x0 DUP2 SWAP1 POP SWAP2 SWAP1 POP JUMP JUMPDEST PUSH1 0x0 JUMPDEST DUP4 DUP2 LT ISZERO PUSH2 0x2E75 JUMPI DUP1 DUP3 ADD MLOAD DUP2 DUP5 ADD MSTORE PUSH1 0x20 DUP2 ADD SWAP1 POP PUSH2 0x2E5A JUMP JUMPDEST DUP4 DUP2 GT ISZERO PUSH2 0x2E84 JUMPI PUSH1 0x0 DUP5 DUP5 ADD MSTORE JUMPDEST POP POP POP POP JUMP JUMPDEST PUSH1 0x0 PUSH2 0x2E9D PUSH2 0x2E98 DUP4 PUSH2 0x2F9E JUMP JUMPDEST PUSH2 0x2E05 JUMP JUMPDEST SWAP1 POP SWAP2 SWAP1 POP JUMP JUMPDEST PUSH1 0x0 PUSH2 0x2EAF DUP3 PUSH2 0x2E4D JUMP JUMPDEST SWAP2 POP PUSH32 0xFFFFFFFFFFFFFFFFFFFFFFFFFFFFFFFFFFFFFFFFFFFFFFFFFFFFFFFFFFFFFFFF DUP3 EQ ISZERO PUSH2 0x2EE2 JUMPI PUSH2 0x2EE1 PUSH2 0x2EED JUMP JUMPDEST JUMPDEST PUSH1 0x1 DUP3 ADD SWAP1 POP SWAP2 SWAP1 POP JUMP JUMPDEST PUSH32 0x4E487B7100000000000000000000000000000000000000000000000000000000 PUSH1 0x0 MSTORE PUSH1 0x11 PUSH1 0x4 MSTORE PUSH1 0x24 PUSH1 0x0 REVERT JUMPDEST PUSH32 0x4E487B7100000000000000000000000000000000000000000000000000000000 PUSH1 0x0 MSTORE PUSH1 0x12 PUSH1 0x4 MSTORE PUSH1 0x24 PUSH1 0x0 REVERT JUMPDEST PUSH32 0x4E487B7100000000000000000000000000000000000000000000000000000000 PUSH1 0x0 MSTORE PUSH1 0x41 PUSH1 0x4 MSTORE PUSH1 0x24 PUSH1 0x0 REVERT JUMPDEST PUSH1 0x0 PUSH2 0x2F86 DUP3 SLOAD PUSH2 0x2E8A JUMP JUMPDEST SWAP1 POP SWAP2 SWAP1 POP JUMP JUMPDEST PUSH1 0x0 PUSH1 0x1F NOT PUSH1 0x1F DUP4 ADD AND SWAP1 POP SWAP2 SWAP1 POP JUMP JUMPDEST PUSH1 0x0 DUP2 PUSH1 0x0 SHR SWAP1 POP SWAP2 SWAP1 POP JUMP JUMPDEST PUSH2 0x2FB4 DUP2 PUSH2 0x2E0F JUMP JUMPDEST DUP2 EQ PUSH2 0x2FBF JUMPI PUSH1 0x0 DUP1 REVERT JUMPDEST POP JUMP JUMPDEST PUSH2 0x2FCB DUP2 PUSH2 0x2E4D JUMP JUMPDEST DUP2 EQ PUSH2 0x2FD6 JUMPI PUSH1 0x0 DUP1 REVERT JUMPDEST POP JUMP INVALID LOG2 PUSH5 0x6970667358 0x22 SLT KECCAK256 0x49 SWAP8 0xDD KECCAK256 SHL 0xE1 0xEB CALLVALUE MULMOD 0x2E CALLDATACOPY 0x25 KECCAK256 0xF7 PUSH12 0xA45EC3166BB06FDC683997CA 0x28 STOP CALLDATALOAD EXTCODEHASH PUSH6 0x64736F6C6343 STOP ADDMOD STOP STOP CALLER "
				},
				"gasEstimates": {
					"creation": {
						"codeDepositCost": "2460600",
						"executionCost": "infinite",
						"totalCost": "infinite"
					},
					"external": {
						"activeListingIds(uint256)": "infinite",
						"buyNFT(uint256)": "infinite",
						"cancelListing(uint256)": "infinite",
						"getAllListingInfo()": "infinite",
						"listNFT(address,uint256[],uint256[],uint256)": "infinite",
						"listingOwners(uint256)": "1650",
						"listings(uint256)": "infinite",
						"nextListingId()": "1218",
						"owner()": "1289",
						"pause()": "infinite",
						"paused()": "1202",
						"platformFeeAddress()": "1302",
						"platformFeePercentage()": "1151",
						"renounceOwnership()": "24465",
						"royaltyAddress()": "1325",
						"royaltyPercentage()": "1174",
						"transferOwnership(address)": "24857",
						"unpause()": "infinite",
						"updateFeeAddresses(address,address)": "infinite",
						"updateFeePercentages(uint256,uint256)": "infinite"
					}
				},
				"methodIdentifiers": {
					"activeListingIds(uint256)": "e3b6a1f6",
					"buyNFT(uint256)": "51ed8288",
					"cancelListing(uint256)": "305a67a8",
					"getAllListingInfo()": "3558ce0c",
					"listNFT(address,uint256[],uint256[],uint256)": "5865fe5a",
					"listingOwners(uint256)": "7bdaceef",
					"listings(uint256)": "de74e57b",
					"nextListingId()": "aaccf1ec",
					"owner()": "8da5cb5b",
					"pause()": "8456cb59",
					"paused()": "5c975abb",
					"platformFeeAddress()": "ed14834f",
					"platformFeePercentage()": "cdd78cfc",
					"renounceOwnership()": "715018a6",
					"royaltyAddress()": "ad2f852a",
					"royaltyPercentage()": "8a71bb2d",
					"transferOwnership(address)": "f2fde38b",
					"unpause()": "3f4ba83a",
					"updateFeeAddresses(address,address)": "5e4e8d65",
					"updateFeePercentages(uint256,uint256)": "78578bb3"
				}
			},
			"storageLayout": {
				"storage": [
					{
						"astId": 7,
						"contract": "mercado_gotas_multiplos_nfts.sol:GotasNFTMarketplace",
						"label": "_owner",
						"offset": 0,
						"slot": "0",
						"type": "t_address"
					},
					{
						"astId": 231,
						"contract": "mercado_gotas_multiplos_nfts.sol:GotasNFTMarketplace",
						"label": "_status",
						"offset": 0,
						"slot": "1",
						"type": "t_uint256"
					},
					{
						"astId": 130,
						"contract": "mercado_gotas_multiplos_nfts.sol:GotasNFTMarketplace",
						"label": "_paused",
						"offset": 0,
						"slot": "2",
						"type": "t_bool"
					},
					{
						"astId": 499,
						"contract": "mercado_gotas_multiplos_nfts.sol:GotasNFTMarketplace",
						"label": "activeListingIds",
						"offset": 0,
						"slot": "3",
						"type": "t_array(t_uint256)dyn_storage"
					},
					{
						"astId": 501,
						"contract": "mercado_gotas_multiplos_nfts.sol:GotasNFTMarketplace",
						"label": "royaltyPercentage",
						"offset": 0,
						"slot": "4",
						"type": "t_uint256"
					},
					{
						"astId": 503,
						"contract": "mercado_gotas_multiplos_nfts.sol:GotasNFTMarketplace",
						"label": "platformFeePercentage",
						"offset": 0,
						"slot": "5",
						"type": "t_uint256"
					},
					{
						"astId": 505,
						"contract": "mercado_gotas_multiplos_nfts.sol:GotasNFTMarketplace",
						"label": "royaltyAddress",
						"offset": 0,
						"slot": "6",
						"type": "t_address"
					},
					{
						"astId": 507,
						"contract": "mercado_gotas_multiplos_nfts.sol:GotasNFTMarketplace",
						"label": "platformFeeAddress",
						"offset": 0,
						"slot": "7",
						"type": "t_address"
					},
					{
						"astId": 512,
						"contract": "mercado_gotas_multiplos_nfts.sol:GotasNFTMarketplace",
						"label": "listings",
						"offset": 0,
						"slot": "8",
						"type": "t_mapping(t_uint256,t_struct(Listing)488_storage)"
					},
					{
						"astId": 516,
						"contract": "mercado_gotas_multiplos_nfts.sol:GotasNFTMarketplace",
						"label": "listingOwners",
						"offset": 0,
						"slot": "9",
						"type": "t_mapping(t_uint256,t_address)"
					},
					{
						"astId": 519,
						"contract": "mercado_gotas_multiplos_nfts.sol:GotasNFTMarketplace",
						"label": "nextListingId",
						"offset": 0,
						"slot": "10",
						"type": "t_uint256"
					}
				],
				"types": {
					"t_address": {
						"encoding": "inplace",
						"label": "address",
						"numberOfBytes": "20"
					},
					"t_array(t_uint256)dyn_storage": {
						"base": "t_uint256",
						"encoding": "dynamic_array",
						"label": "uint256[]",
						"numberOfBytes": "32"
					},
					"t_bool": {
						"encoding": "inplace",
						"label": "bool",
						"numberOfBytes": "1"
					},
					"t_mapping(t_uint256,t_address)": {
						"encoding": "mapping",
						"key": "t_uint256",
						"label": "mapping(uint256 => address)",
						"numberOfBytes": "32",
						"value": "t_address"
					},
					"t_mapping(t_uint256,t_struct(Listing)488_storage)": {
						"encoding": "mapping",
						"key": "t_uint256",
						"label": "mapping(uint256 => struct GotasNFTMarketplace.Listing)",
						"numberOfBytes": "32",
						"value": "t_struct(Listing)488_storage"
					},
					"t_struct(Listing)488_storage": {
						"encoding": "inplace",
						"label": "struct GotasNFTMarketplace.Listing",
						"members": [
							{
								"astId": 477,
								"contract": "mercado_gotas_multiplos_nfts.sol:GotasNFTMarketplace",
								"label": "nftContractAddress",
								"offset": 0,
								"slot": "0",
								"type": "t_address"
							},
							{
								"astId": 480,
								"contract": "mercado_gotas_multiplos_nfts.sol:GotasNFTMarketplace",
								"label": "nftIds",
								"offset": 0,
								"slot": "1",
								"type": "t_array(t_uint256)dyn_storage"
							},
							{
								"astId": 482,
								"contract": "mercado_gotas_multiplos_nfts.sol:GotasNFTMarketplace",
								"label": "seller",
								"offset": 0,
								"slot": "2",
								"type": "t_address"
							},
							{
								"astId": 485,
								"contract": "mercado_gotas_multiplos_nfts.sol:GotasNFTMarketplace",
								"label": "prices",
								"offset": 0,
								"slot": "3",
								"type": "t_array(t_uint256)dyn_storage"
							},
							{
								"astId": 487,
								"contract": "mercado_gotas_multiplos_nfts.sol:GotasNFTMarketplace",
								"label": "deadline",
								"offset": 0,
								"slot": "4",
								"type": "t_uint256"
							}
						],
						"numberOfBytes": "160"
					},
					"t_uint256": {
						"encoding": "inplace",
						"label": "uint256",
						"numberOfBytes": "32"
					}
				}
			},
			"userdoc": {
				"kind": "user",
				"methods": {},
				"version": 1
			}
		}
	}
}