{
	"mercado_de_gotas.sol": {
		"GotasNFTMarketplace": {
			"abi": [
				{
					"inputs": [
						{
							"internalType": "uint256",
							"name": "_royaltyPercentage",
							"type": "uint256"
						},
						{
							"internalType": "uint256",
							"name": "_platformFeePercentage",
							"type": "uint256"
						},
						{
							"internalType": "address",
							"name": "_royaltyAddress",
							"type": "address"
						},
						{
							"internalType": "address",
							"name": "_platformFeeAddress",
							"type": "address"
						}
					],
					"stateMutability": "nonpayable",
					"type": "constructor"
				},
				{
					"anonymous": false,
					"inputs": [
						{
							"indexed": true,
							"internalType": "uint256",
							"name": "listingId",
							"type": "uint256"
						}
					],
					"name": "NFTDelisted",
					"type": "event"
				},
				{
					"anonymous": false,
					"inputs": [
						{
							"indexed": true,
							"internalType": "uint256",
							"name": "listingId",
							"type": "uint256"
						},
						{
							"indexed": true,
							"internalType": "address",
							"name": "seller",
							"type": "address"
						},
						{
							"indexed": true,
							"internalType": "address",
							"name": "nftContract",
							"type": "address"
						},
						{
							"indexed": false,
							"internalType": "uint256",
							"name": "nftId",
							"type": "uint256"
						},
						{
							"indexed": false,
							"internalType": "uint256",
							"name": "price",
							"type": "uint256"
						},
						{
							"indexed": false,
							"internalType": "uint256",
							"name": "deadline",
							"type": "uint256"
						}
					],
					"name": "NFTListed",
					"type": "event"
				},
				{
					"anonymous": false,
					"inputs": [
						{
							"indexed": true,
							"internalType": "uint256",
							"name": "listingId",
							"type": "uint256"
						},
						{
							"indexed": true,
							"internalType": "address",
							"name": "seller",
							"type": "address"
						},
						{
							"indexed": true,
							"internalType": "address",
							"name": "buyer",
							"type": "address"
						},
						{
							"indexed": false,
							"internalType": "uint256",
							"name": "price",
							"type": "uint256"
						}
					],
					"name": "NFTSold",
					"type": "event"
				},
				{
					"anonymous": false,
					"inputs": [
						{
							"indexed": true,
							"internalType": "address",
							"name": "previousOwner",
							"type": "address"
						},
						{
							"indexed": true,
							"internalType": "address",
							"name": "newOwner",
							"type": "address"
						}
					],
					"name": "OwnershipTransferred",
					"type": "event"
				},
				{
					"anonymous": false,
					"inputs": [
						{
							"indexed": false,
							"internalType": "address",
							"name": "account",
							"type": "address"
						}
					],
					"name": "Paused",
					"type": "event"
				},
				{
					"anonymous": false,
					"inputs": [
						{
							"indexed": false,
							"internalType": "address",
							"name": "account",
							"type": "address"
						}
					],
					"name": "Unpaused",
					"type": "event"
				},
				{
					"inputs": [
						{
							"internalType": "uint256",
							"name": "",
							"type": "uint256"
						}
					],
					"name": "activeListingIds",
					"outputs": [
						{
							"internalType": "uint256",
							"name": "",
							"type": "uint256"
						}
					],
					"stateMutability": "view",
					"type": "function"
				},
				{
					"inputs": [
						{
							"internalType": "uint256",
							"name": "_listingId",
							"type": "uint256"
						}
					],
					"name": "buyNFT",
					"outputs": [],
					"stateMutability": "payable",
					"type": "function"
				},
				{
					"inputs": [
						{
							"internalType": "uint256",
							"name": "_listingId",
							"type": "uint256"
						}
					],
					"name": "cancelListing",
					"outputs": [],
					"stateMutability": "nonpayable",
					"type": "function"
				},
				{
					"inputs": [],
					"name": "getAllListingIds",
					"outputs": [
						{
							"internalType": "uint256[]",
							"name": "",
							"type": "uint256[]"
						}
					],
					"stateMutability": "view",
					"type": "function"
				},
				{
					"inputs": [
						{
							"internalType": "uint256",
							"name": "_listingId",
							"type": "uint256"
						}
					],
					"name": "getListingInfo",
					"outputs": [
						{
							"internalType": "uint256",
							"name": "",
							"type": "uint256"
						},
						{
							"internalType": "uint256",
							"name": "",
							"type": "uint256"
						},
						{
							"internalType": "string",
							"name": "",
							"type": "string"
						}
					],
					"stateMutability": "view",
					"type": "function"
				},
				{
					"inputs": [
						{
							"internalType": "address",
							"name": "_nftContractAddress",
							"type": "address"
						},
						{
							"internalType": "uint256",
							"name": "_nftId",
							"type": "uint256"
						},
						{
							"internalType": "uint256",
							"name": "_price",
							"type": "uint256"
						},
						{
							"internalType": "uint256",
							"name": "_deadline",
							"type": "uint256"
						}
					],
					"name": "listNFT",
					"outputs": [],
					"stateMutability": "nonpayable",
					"type": "function"
				},
				{
					"inputs": [
						{
							"internalType": "uint256",
							"name": "",
							"type": "uint256"
						}
					],
					"name": "listingOwners",
					"outputs": [
						{
							"internalType": "address",
							"name": "",
							"type": "address"
						}
					],
					"stateMutability": "view",
					"type": "function"
				},
				{
					"inputs": [
						{
							"internalType": "uint256",
							"name": "",
							"type": "uint256"
						}
					],
					"name": "listings",
					"outputs": [
						{
							"internalType": "address",
							"name": "nftContractAddress",
							"type": "address"
						},
						{
							"internalType": "uint256",
							"name": "nftId",
							"type": "uint256"
						},
						{
							"internalType": "address",
							"name": "seller",
							"type": "address"
						},
						{
							"internalType": "uint256",
							"name": "price",
							"type": "uint256"
						},
						{
							"internalType": "uint256",
							"name": "deadline",
							"type": "uint256"
						}
					],
					"stateMutability": "view",
					"type": "function"
				},
				{
					"inputs": [],
					"name": "nextListingId",
					"outputs": [
						{
							"internalType": "uint256",
							"name": "",
							"type": "uint256"
						}
					],
					"stateMutability": "view",
					"type": "function"
				},
				{
					"inputs": [],
					"name": "owner",
					"outputs": [
						{
							"internalType": "address",
							"name": "",
							"type": "address"
						}
					],
					"stateMutability": "view",
					"type": "function"
				},
				{
					"inputs": [],
					"name": "pause",
					"outputs": [],
					"stateMutability": "nonpayable",
					"type": "function"
				},
				{
					"inputs": [],
					"name": "paused",
					"outputs": [
						{
							"internalType": "bool",
							"name": "",
							"type": "bool"
						}
					],
					"stateMutability": "view",
					"type": "function"
				},
				{
					"inputs": [],
					"name": "platformFeeAddress",
					"outputs": [
						{
							"internalType": "address",
							"name": "",
							"type": "address"
						}
					],
					"stateMutability": "view",
					"type": "function"
				},
				{
					"inputs": [],
					"name": "platformFeePercentage",
					"outputs": [
						{
							"internalType": "uint256",
							"name": "",
							"type": "uint256"
						}
					],
					"stateMutability": "view",
					"type": "function"
				},
				{
					"inputs": [],
					"name": "renounceOwnership",
					"outputs": [],
					"stateMutability": "nonpayable",
					"type": "function"
				},
				{
					"inputs": [],
					"name": "royaltyAddress",
					"outputs": [
						{
							"internalType": "address",
							"name": "",
							"type": "address"
						}
					],
					"stateMutability": "view",
					"type": "function"
				},
				{
					"inputs": [],
					"name": "royaltyPercentage",
					"outputs": [
						{
							"internalType": "uint256",
							"name": "",
							"type": "uint256"
						}
					],
					"stateMutability": "view",
					"type": "function"
				},
				{
					"inputs": [
						{
							"internalType": "address",
							"name": "newOwner",
							"type": "address"
						}
					],
					"name": "transferOwnership",
					"outputs": [],
					"stateMutability": "nonpayable",
					"type": "function"
				},
				{
					"inputs": [],
					"name": "unpause",
					"outputs": [],
					"stateMutability": "nonpayable",
					"type": "function"
				},
				{
					"inputs": [
						{
							"internalType": "address",
							"name": "_newRoyaltyAddress",
							"type": "address"
						},
						{
							"internalType": "address",
							"name": "_newPlatformFeeAddress",
							"type": "address"
						}
					],
					"name": "updateFeeAddresses",
					"outputs": [],
					"stateMutability": "nonpayable",
					"type": "function"
				},
				{
					"inputs": [
						{
							"internalType": "uint256",
							"name": "_newRoyaltyPercentage",
							"type": "uint256"
						},
						{
							"internalType": "uint256",
							"name": "_newPlatformFeePercentage",
							"type": "uint256"
						}
					],
					"name": "updateFeePercentages",
					"outputs": [],
					"stateMutability": "nonpayable",
					"type": "function"
				}
			],
			"devdoc": {
				"kind": "dev",
				"methods": {
					"owner()": {
						"details": "Returns the address of the current owner."
					},
					"paused()": {
						"details": "Returns true if the contract is paused, and false otherwise."
					},
					"renounceOwnership()": {
						"details": "Leaves the contract without owner. It will not be possible to call `onlyOwner` functions. Can only be called by the current owner. NOTE: Renouncing ownership will leave the contract without an owner, thereby disabling any functionality that is only available to the owner."
					},
					"transferOwnership(address)": {
						"details": "Transfers ownership of the contract to a new account (`newOwner`). Can only be called by the current owner."
					}
				},
				"version": 1
			},
			"evm": {
				"assembly": "    /* \"mercado_de_gotas.sol\":406:5673  contract GotasNFTMarketplace is Ownable, ReentrancyGuard, Pausable {... */\n  mstore(0x40, 0x80)\n    /* \"mercado_de_gotas.sol\":969:970  1 */\n  0x01\n    /* \"mercado_de_gotas.sol\":938:970  uint256 public nextListingId = 1 */\n  0x0a\n  sstore\n    /* \"mercado_de_gotas.sol\":1285:1727  constructor(uint256 _royaltyPercentage, uint256 _platformFeePercentage, address _royaltyAddress, address _platformFeeAddress) {... */\n  callvalue\n  dup1\n  iszero\n  tag_1\n  jumpi\n  0x00\n  dup1\n  revert\ntag_1:\n  pop\n  mload(0x40)\n  sub(codesize, bytecodeSize)\n  dup1\n  bytecodeSize\n  dup4\n  codecopy\n  dup2\n  dup2\n  add\n  0x40\n  mstore\n  dup2\n  add\n  swap1\n  tag_2\n  swap2\n  swap1\n  tag_3\n  jump\t// in\ntag_2:\n    /* \"@openzeppelin/contracts/access/Ownable.sol\":936:968  _transferOwnership(_msgSender()) */\n  tag_9\n    /* \"@openzeppelin/contracts/access/Ownable.sol\":955:967  _msgSender() */\n  tag_10\n    /* \"@openzeppelin/contracts/access/Ownable.sol\":955:965  _msgSender */\n  shl(0x20, tag_11)\n    /* \"@openzeppelin/contracts/access/Ownable.sol\":955:967  _msgSender() */\n  0x20\n  shr\n  jump\t// in\ntag_10:\n    /* \"@openzeppelin/contracts/access/Ownable.sol\":936:954  _transferOwnership */\n  shl(0x20, tag_12)\n    /* \"@openzeppelin/contracts/access/Ownable.sol\":936:968  _transferOwnership(_msgSender()) */\n  0x20\n  shr\n  jump\t// in\ntag_9:\n    /* \"@openzeppelin/contracts/security/ReentrancyGuard.sol\":1716:1717  1 */\n  0x01\n    /* \"@openzeppelin/contracts/security/ReentrancyGuard.sol\":1821:1828  _status */\n  dup1\n    /* \"@openzeppelin/contracts/security/ReentrancyGuard.sol\":1821:1843  _status = _NOT_ENTERED */\n  dup2\n  swap1\n  sstore\n  pop\n    /* \"@openzeppelin/contracts/security/Pausable.sol\":1006:1011  false */\n  0x00\n    /* \"@openzeppelin/contracts/security/Pausable.sol\":996:1003  _paused */\n  0x02\n  0x00\n    /* \"@openzeppelin/contracts/security/Pausable.sol\":996:1011  _paused = false */\n  0x0100\n  exp\n  dup2\n  sload\n  dup2\n  0xff\n  mul\n  not\n  and\n  swap1\n  dup4\n  iszero\n  iszero\n  mul\n  or\n  swap1\n  sstore\n  pop\n    /* \"mercado_de_gotas.sol\":1456:1457  0 */\n  0x00\n    /* \"mercado_de_gotas.sol\":1429:1458  _royaltyAddress != address(0) */\n  0xffffffffffffffffffffffffffffffffffffffff\n  and\n    /* \"mercado_de_gotas.sol\":1429:1444  _royaltyAddress */\n  dup3\n    /* \"mercado_de_gotas.sol\":1429:1458  _royaltyAddress != address(0) */\n  0xffffffffffffffffffffffffffffffffffffffff\n  and\n  eq\n  iszero\n    /* \"mercado_de_gotas.sol\":1429:1495  _royaltyAddress != address(0) && _platformFeeAddress != address(0) */\n  dup1\n  iszero\n  tag_16\n  jumpi\n  pop\n    /* \"mercado_de_gotas.sol\":1493:1494  0 */\n  0x00\n    /* \"mercado_de_gotas.sol\":1462:1495  _platformFeeAddress != address(0) */\n  0xffffffffffffffffffffffffffffffffffffffff\n  and\n    /* \"mercado_de_gotas.sol\":1462:1481  _platformFeeAddress */\n  dup2\n    /* \"mercado_de_gotas.sol\":1462:1495  _platformFeeAddress != address(0) */\n  0xffffffffffffffffffffffffffffffffffffffff\n  and\n  eq\n  iszero\n    /* \"mercado_de_gotas.sol\":1429:1495  _royaltyAddress != address(0) && _platformFeeAddress != address(0) */\ntag_16:\n    /* \"mercado_de_gotas.sol\":1421:1524  require(_royaltyAddress != address(0) && _platformFeeAddress != address(0), \"Addresses cannot be zero\") */\n  tag_17\n  jumpi\n  mload(0x40)\n  0x08c379a000000000000000000000000000000000000000000000000000000000\n  dup2\n  mstore\n  0x04\n  add\n  tag_18\n  swap1\n  tag_19\n  jump\t// in\ntag_18:\n  mload(0x40)\n  dup1\n  swap2\n  sub\n  swap1\n  revert\ntag_17:\n    /* \"mercado_de_gotas.sol\":1554:1572  _royaltyPercentage */\n  dup4\n    /* \"mercado_de_gotas.sol\":1534:1551  royaltyPercentage */\n  0x04\n    /* \"mercado_de_gotas.sol\":1534:1572  royaltyPercentage = _royaltyPercentage */\n  dup2\n  swap1\n  sstore\n  pop\n    /* \"mercado_de_gotas.sol\":1606:1628  _platformFeePercentage */\n  dup3\n    /* \"mercado_de_gotas.sol\":1582:1603  platformFeePercentage */\n  0x05\n    /* \"mercado_de_gotas.sol\":1582:1628  platformFeePercentage = _platformFeePercentage */\n  dup2\n  swap1\n  sstore\n  pop\n    /* \"mercado_de_gotas.sol\":1655:1670  _royaltyAddress */\n  dup2\n    /* \"mercado_de_gotas.sol\":1638:1652  royaltyAddress */\n  0x06\n  0x00\n    /* \"mercado_de_gotas.sol\":1638:1670  royaltyAddress = _royaltyAddress */\n  0x0100\n  exp\n  dup2\n  sload\n  dup2\n  0xffffffffffffffffffffffffffffffffffffffff\n  mul\n  not\n  and\n  swap1\n  dup4\n  0xffffffffffffffffffffffffffffffffffffffff\n  and\n  mul\n  or\n  swap1\n  sstore\n  pop\n    /* \"mercado_de_gotas.sol\":1701:1720  _platformFeeAddress */\n  dup1\n    /* \"mercado_de_gotas.sol\":1680:1698  platformFeeAddress */\n  0x07\n  0x00\n    /* \"mercado_de_gotas.sol\":1680:1720  platformFeeAddress = _platformFeeAddress */\n  0x0100\n  exp\n  dup2\n  sload\n  dup2\n  0xffffffffffffffffffffffffffffffffffffffff\n  mul\n  not\n  and\n  swap1\n  dup4\n  0xffffffffffffffffffffffffffffffffffffffff\n  and\n  mul\n  or\n  swap1\n  sstore\n  pop\n    /* \"mercado_de_gotas.sol\":1285:1727  constructor(uint256 _royaltyPercentage, uint256 _platformFeePercentage, address _royaltyAddress, address _platformFeeAddress) {... */\n  pop\n  pop\n  pop\n  pop\n    /* \"mercado_de_gotas.sol\":406:5673  contract GotasNFTMarketplace is Ownable, ReentrancyGuard, Pausable {... */\n  jump(tag_20)\n    /* \"@openzeppelin/contracts/utils/Context.sol\":640:736  function _msgSender() internal view virtual returns (address) {... */\ntag_11:\n    /* \"@openzeppelin/contracts/utils/Context.sol\":693:700  address */\n  0x00\n    /* \"@openzeppelin/contracts/utils/Context.sol\":719:729  msg.sender */\n  caller\n    /* \"@openzeppelin/contracts/utils/Context.sol\":712:729  return msg.sender */\n  swap1\n  pop\n    /* \"@openzeppelin/contracts/utils/Context.sol\":640:736  function _msgSender() internal view virtual returns (address) {... */\n  swap1\n  jump\t// out\n    /* \"@openzeppelin/contracts/access/Ownable.sol\":2426:2613  function _transferOwnership(address newOwner) internal virtual {... */\ntag_12:\n    /* \"@openzeppelin/contracts/access/Ownable.sol\":2499:2515  address oldOwner */\n  0x00\n    /* \"@openzeppelin/contracts/access/Ownable.sol\":2518:2524  _owner */\n  dup1\n  0x00\n  swap1\n  sload\n  swap1\n  0x0100\n  exp\n  swap1\n  div\n  0xffffffffffffffffffffffffffffffffffffffff\n  and\n    /* \"@openzeppelin/contracts/access/Ownable.sol\":2499:2524  address oldOwner = _owner */\n  swap1\n  pop\n    /* \"@openzeppelin/contracts/access/Ownable.sol\":2543:2551  newOwner */\n  dup2\n    /* \"@openzeppelin/contracts/access/Ownable.sol\":2534:2540  _owner */\n  0x00\n  dup1\n    /* \"@openzeppelin/contracts/access/Ownable.sol\":2534:2551  _owner = newOwner */\n  0x0100\n  exp\n  dup2\n  sload\n  dup2\n  0xffffffffffffffffffffffffffffffffffffffff\n  mul\n  not\n  and\n  swap1\n  dup4\n  0xffffffffffffffffffffffffffffffffffffffff\n  and\n  mul\n  or\n  swap1\n  sstore\n  pop\n    /* \"@openzeppelin/contracts/access/Ownable.sol\":2597:2605  newOwner */\n  dup2\n    /* \"@openzeppelin/contracts/access/Ownable.sol\":2566:2606  OwnershipTransferred(oldOwner, newOwner) */\n  0xffffffffffffffffffffffffffffffffffffffff\n  and\n    /* \"@openzeppelin/contracts/access/Ownable.sol\":2587:2595  oldOwner */\n  dup2\n    /* \"@openzeppelin/contracts/access/Ownable.sol\":2566:2606  OwnershipTransferred(oldOwner, newOwner) */\n  0xffffffffffffffffffffffffffffffffffffffff\n  and\n  0x8be0079c531659141344cd1fd0a4f28419497f9722a3daafe3b4186f6b6457e0\n  mload(0x40)\n  mload(0x40)\n  dup1\n  swap2\n  sub\n  swap1\n  log3\n    /* \"@openzeppelin/contracts/access/Ownable.sol\":2426:2613  function _transferOwnership(address newOwner) internal virtual {... */\n  pop\n  pop\n  jump\t// out\n    /* \"#utility.yul\":7:150   */\ntag_24:\n  0x00\n    /* \"#utility.yul\":95:101   */\n  dup2\n    /* \"#utility.yul\":89:102   */\n  mload\n    /* \"#utility.yul\":80:102   */\n  swap1\n  pop\n    /* \"#utility.yul\":111:144   */\n  tag_26\n    /* \"#utility.yul\":138:143   */\n  dup2\n    /* \"#utility.yul\":111:144   */\n  tag_27\n  jump\t// in\ntag_26:\n    /* \"#utility.yul\":70:150   */\n  swap3\n  swap2\n  pop\n  pop\n  jump\t// out\n    /* \"#utility.yul\":156:299   */\ntag_28:\n  0x00\n    /* \"#utility.yul\":244:250   */\n  dup2\n    /* \"#utility.yul\":238:251   */\n  mload\n    /* \"#utility.yul\":229:251   */\n  swap1\n  pop\n    /* \"#utility.yul\":260:293   */\n  tag_30\n    /* \"#utility.yul\":287:292   */\n  dup2\n    /* \"#utility.yul\":260:293   */\n  tag_31\n  jump\t// in\ntag_30:\n    /* \"#utility.yul\":219:299   */\n  swap3\n  swap2\n  pop\n  pop\n  jump\t// out\n    /* \"#utility.yul\":305:1058   */\ntag_3:\n  0x00\n  dup1\n  0x00\n  dup1\n    /* \"#utility.yul\":475:478   */\n  0x80\n    /* \"#utility.yul\":463:472   */\n  dup6\n    /* \"#utility.yul\":454:461   */\n  dup8\n    /* \"#utility.yul\":450:473   */\n  sub\n    /* \"#utility.yul\":446:479   */\n  slt\n    /* \"#utility.yul\":443:445   */\n  iszero\n  tag_33\n  jumpi\n    /* \"#utility.yul\":492:493   */\n  0x00\n    /* \"#utility.yul\":489:490   */\n  dup1\n    /* \"#utility.yul\":482:494   */\n  revert\n    /* \"#utility.yul\":443:445   */\ntag_33:\n    /* \"#utility.yul\":535:536   */\n  0x00\n    /* \"#utility.yul\":560:624   */\n  tag_34\n    /* \"#utility.yul\":616:623   */\n  dup8\n    /* \"#utility.yul\":607:613   */\n  dup3\n    /* \"#utility.yul\":596:605   */\n  dup9\n    /* \"#utility.yul\":592:614   */\n  add\n    /* \"#utility.yul\":560:624   */\n  tag_28\n  jump\t// in\ntag_34:\n    /* \"#utility.yul\":550:624   */\n  swap5\n  pop\n    /* \"#utility.yul\":506:634   */\n  pop\n    /* \"#utility.yul\":673:675   */\n  0x20\n    /* \"#utility.yul\":699:763   */\n  tag_35\n    /* \"#utility.yul\":755:762   */\n  dup8\n    /* \"#utility.yul\":746:752   */\n  dup3\n    /* \"#utility.yul\":735:744   */\n  dup9\n    /* \"#utility.yul\":731:753   */\n  add\n    /* \"#utility.yul\":699:763   */\n  tag_28\n  jump\t// in\ntag_35:\n    /* \"#utility.yul\":689:763   */\n  swap4\n  pop\n    /* \"#utility.yul\":644:773   */\n  pop\n    /* \"#utility.yul\":812:814   */\n  0x40\n    /* \"#utility.yul\":838:902   */\n  tag_36\n    /* \"#utility.yul\":894:901   */\n  dup8\n    /* \"#utility.yul\":885:891   */\n  dup3\n    /* \"#utility.yul\":874:883   */\n  dup9\n    /* \"#utility.yul\":870:892   */\n  add\n    /* \"#utility.yul\":838:902   */\n  tag_24\n  jump\t// in\ntag_36:\n    /* \"#utility.yul\":828:902   */\n  swap3\n  pop\n    /* \"#utility.yul\":783:912   */\n  pop\n    /* \"#utility.yul\":951:953   */\n  0x60\n    /* \"#utility.yul\":977:1041   */\n  tag_37\n    /* \"#utility.yul\":1033:1040   */\n  dup8\n    /* \"#utility.yul\":1024:1030   */\n  dup3\n    /* \"#utility.yul\":1013:1022   */\n  dup9\n    /* \"#utility.yul\":1009:1031   */\n  add\n    /* \"#utility.yul\":977:1041   */\n  tag_24\n  jump\t// in\ntag_37:\n    /* \"#utility.yul\":967:1041   */\n  swap2\n  pop\n    /* \"#utility.yul\":922:1051   */\n  pop\n    /* \"#utility.yul\":433:1058   */\n  swap3\n  swap6\n  swap2\n  swap5\n  pop\n  swap3\n  pop\n  jump\t// out\n    /* \"#utility.yul\":1064:1386   */\ntag_38:\n  0x00\n    /* \"#utility.yul\":1227:1294   */\n  tag_40\n    /* \"#utility.yul\":1291:1293   */\n  0x18\n    /* \"#utility.yul\":1286:1289   */\n  dup4\n    /* \"#utility.yul\":1227:1294   */\n  tag_41\n  jump\t// in\ntag_40:\n    /* \"#utility.yul\":1220:1294   */\n  swap2\n  pop\n    /* \"#utility.yul\":1324:1350   */\n  0x4164647265737365732063616e6e6f74206265207a65726f0000000000000000\n    /* \"#utility.yul\":1320:1321   */\n  0x00\n    /* \"#utility.yul\":1315:1318   */\n  dup4\n    /* \"#utility.yul\":1311:1322   */\n  add\n    /* \"#utility.yul\":1304:1351   */\n  mstore\n    /* \"#utility.yul\":1377:1379   */\n  0x20\n    /* \"#utility.yul\":1372:1375   */\n  dup3\n    /* \"#utility.yul\":1368:1380   */\n  add\n    /* \"#utility.yul\":1361:1380   */\n  swap1\n  pop\n    /* \"#utility.yul\":1210:1386   */\n  swap2\n  swap1\n  pop\n  jump\t// out\n    /* \"#utility.yul\":1392:1811   */\ntag_19:\n  0x00\n    /* \"#utility.yul\":1596:1598   */\n  0x20\n    /* \"#utility.yul\":1585:1594   */\n  dup3\n    /* \"#utility.yul\":1581:1599   */\n  add\n    /* \"#utility.yul\":1573:1599   */\n  swap1\n  pop\n    /* \"#utility.yul\":1645:1654   */\n  dup2\n    /* \"#utility.yul\":1639:1643   */\n  dup2\n    /* \"#utility.yul\":1635:1655   */\n  sub\n    /* \"#utility.yul\":1631:1632   */\n  0x00\n    /* \"#utility.yul\":1620:1629   */\n  dup4\n    /* \"#utility.yul\":1616:1633   */\n  add\n    /* \"#utility.yul\":1609:1656   */\n  mstore\n    /* \"#utility.yul\":1673:1804   */\n  tag_43\n    /* \"#utility.yul\":1799:1803   */\n  dup2\n    /* \"#utility.yul\":1673:1804   */\n  tag_38\n  jump\t// in\ntag_43:\n    /* \"#utility.yul\":1665:1804   */\n  swap1\n  pop\n    /* \"#utility.yul\":1563:1811   */\n  swap2\n  swap1\n  pop\n  jump\t// out\n    /* \"#utility.yul\":1817:1986   */\ntag_41:\n  0x00\n    /* \"#utility.yul\":1935:1941   */\n  dup3\n    /* \"#utility.yul\":1930:1933   */\n  dup3\n    /* \"#utility.yul\":1923:1942   */\n  mstore\n    /* \"#utility.yul\":1975:1979   */\n  0x20\n    /* \"#utility.yul\":1970:1973   */\n  dup3\n    /* \"#utility.yul\":1966:1980   */\n  add\n    /* \"#utility.yul\":1951:1980   */\n  swap1\n  pop\n    /* \"#utility.yul\":1913:1986   */\n  swap3\n  swap2\n  pop\n  pop\n  jump\t// out\n    /* \"#utility.yul\":1992:2088   */\ntag_45:\n  0x00\n    /* \"#utility.yul\":2058:2082   */\n  tag_47\n    /* \"#utility.yul\":2076:2081   */\n  dup3\n    /* \"#utility.yul\":2058:2082   */\n  tag_48\n  jump\t// in\ntag_47:\n    /* \"#utility.yul\":2047:2082   */\n  swap1\n  pop\n    /* \"#utility.yul\":2037:2088   */\n  swap2\n  swap1\n  pop\n  jump\t// out\n    /* \"#utility.yul\":2094:2220   */\ntag_48:\n  0x00\n    /* \"#utility.yul\":2171:2213   */\n  0xffffffffffffffffffffffffffffffffffffffff\n    /* \"#utility.yul\":2164:2169   */\n  dup3\n    /* \"#utility.yul\":2160:2214   */\n  and\n    /* \"#utility.yul\":2149:2214   */\n  swap1\n  pop\n    /* \"#utility.yul\":2139:2220   */\n  swap2\n  swap1\n  pop\n  jump\t// out\n    /* \"#utility.yul\":2226:2303   */\ntag_50:\n  0x00\n    /* \"#utility.yul\":2292:2297   */\n  dup2\n    /* \"#utility.yul\":2281:2297   */\n  swap1\n  pop\n    /* \"#utility.yul\":2271:2303   */\n  swap2\n  swap1\n  pop\n  jump\t// out\n    /* \"#utility.yul\":2309:2431   */\ntag_27:\n    /* \"#utility.yul\":2382:2406   */\n  tag_53\n    /* \"#utility.yul\":2400:2405   */\n  dup2\n    /* \"#utility.yul\":2382:2406   */\n  tag_45\n  jump\t// in\ntag_53:\n    /* \"#utility.yul\":2375:2380   */\n  dup2\n    /* \"#utility.yul\":2372:2407   */\n  eq\n    /* \"#utility.yul\":2362:2364   */\n  tag_54\n  jumpi\n    /* \"#utility.yul\":2421:2422   */\n  0x00\n    /* \"#utility.yul\":2418:2419   */\n  dup1\n    /* \"#utility.yul\":2411:2423   */\n  revert\n    /* \"#utility.yul\":2362:2364   */\ntag_54:\n    /* \"#utility.yul\":2352:2431   */\n  pop\n  jump\t// out\n    /* \"#utility.yul\":2437:2559   */\ntag_31:\n    /* \"#utility.yul\":2510:2534   */\n  tag_56\n    /* \"#utility.yul\":2528:2533   */\n  dup2\n    /* \"#utility.yul\":2510:2534   */\n  tag_50\n  jump\t// in\ntag_56:\n    /* \"#utility.yul\":2503:2508   */\n  dup2\n    /* \"#utility.yul\":2500:2535   */\n  eq\n    /* \"#utility.yul\":2490:2492   */\n  tag_57\n  jumpi\n    /* \"#utility.yul\":2549:2550   */\n  0x00\n    /* \"#utility.yul\":2546:2547   */\n  dup1\n    /* \"#utility.yul\":2539:2551   */\n  revert\n    /* \"#utility.yul\":2490:2492   */\ntag_57:\n    /* \"#utility.yul\":2480:2559   */\n  pop\n  jump\t// out\n    /* \"mercado_de_gotas.sol\":406:5673  contract GotasNFTMarketplace is Ownable, ReentrancyGuard, Pausable {... */\ntag_20:\n  dataSize(sub_0)\n  dup1\n  dataOffset(sub_0)\n  0x00\n  codecopy\n  0x00\n  return\nstop\n\nsub_0: assembly {\n        /* \"mercado_de_gotas.sol\":406:5673  contract GotasNFTMarketplace is Ownable, ReentrancyGuard, Pausable {... */\n      mstore(0x40, 0x80)\n      jumpi(tag_1, lt(calldatasize, 0x04))\n      shr(0xe0, calldataload(0x00))\n      dup1\n      0x85dd3008\n      gt\n      tag_23\n      jumpi\n      dup1\n      0xb9314135\n      gt\n      tag_24\n      jumpi\n      dup1\n      0xb9314135\n      eq\n      tag_17\n      jumpi\n      dup1\n      0xcdd78cfc\n      eq\n      tag_18\n      jumpi\n      dup1\n      0xde74e57b\n      eq\n      tag_19\n      jumpi\n      dup1\n      0xe3b6a1f6\n      eq\n      tag_20\n      jumpi\n      dup1\n      0xed14834f\n      eq\n      tag_21\n      jumpi\n      dup1\n      0xf2fde38b\n      eq\n      tag_22\n      jumpi\n      jump(tag_1)\n    tag_24:\n      dup1\n      0x85dd3008\n      eq\n      tag_12\n      jumpi\n      dup1\n      0x8a71bb2d\n      eq\n      tag_13\n      jumpi\n      dup1\n      0x8da5cb5b\n      eq\n      tag_14\n      jumpi\n      dup1\n      0xaaccf1ec\n      eq\n      tag_15\n      jumpi\n      dup1\n      0xad2f852a\n      eq\n      tag_16\n      jumpi\n      jump(tag_1)\n    tag_23:\n      dup1\n      0x5e4e8d65\n      gt\n      tag_25\n      jumpi\n      dup1\n      0x5e4e8d65\n      eq\n      tag_7\n      jumpi\n      dup1\n      0x715018a6\n      eq\n      tag_8\n      jumpi\n      dup1\n      0x78578bb3\n      eq\n      tag_9\n      jumpi\n      dup1\n      0x7bdaceef\n      eq\n      tag_10\n      jumpi\n      dup1\n      0x8456cb59\n      eq\n      tag_11\n      jumpi\n      jump(tag_1)\n    tag_25:\n      dup1\n      0x305a67a8\n      eq\n      tag_2\n      jumpi\n      dup1\n      0x3c44a5f0\n      eq\n      tag_3\n      jumpi\n      dup1\n      0x3f4ba83a\n      eq\n      tag_4\n      jumpi\n      dup1\n      0x51ed8288\n      eq\n      tag_5\n      jumpi\n      dup1\n      0x5c975abb\n      eq\n      tag_6\n      jumpi\n    tag_1:\n      0x00\n      dup1\n      revert\n        /* \"mercado_de_gotas.sol\":3954:4252  function cancelListing(uint256 _listingId) external nonReentrant {... */\n    tag_2:\n      callvalue\n      dup1\n      iszero\n      tag_26\n      jumpi\n      0x00\n      dup1\n      revert\n    tag_26:\n      pop\n      tag_27\n      0x04\n      dup1\n      calldatasize\n      sub\n      dup2\n      add\n      swap1\n      tag_28\n      swap2\n      swap1\n      tag_29\n      jump\t// in\n    tag_28:\n      tag_30\n      jump\t// in\n    tag_27:\n      stop\n        /* \"mercado_de_gotas.sol\":1733:2654  function listNFT(address _nftContractAddress, uint256 _nftId, uint256 _price, uint256 _deadline) external whenNotPaused nonReentrant {... */\n    tag_3:\n      callvalue\n      dup1\n      iszero\n      tag_31\n      jumpi\n      0x00\n      dup1\n      revert\n    tag_31:\n      pop\n      tag_32\n      0x04\n      dup1\n      calldatasize\n      sub\n      dup2\n      add\n      swap1\n      tag_33\n      swap2\n      swap1\n      tag_34\n      jump\t// in\n    tag_33:\n      tag_35\n      jump\t// in\n    tag_32:\n      stop\n        /* \"mercado_de_gotas.sol\":4338:4416  function unpause() external onlyOwner nonReentrant {... */\n    tag_4:\n      callvalue\n      dup1\n      iszero\n      tag_36\n      jumpi\n      0x00\n      dup1\n      revert\n    tag_36:\n      pop\n      tag_37\n      tag_38\n      jump\t// in\n    tag_37:\n      stop\n        /* \"mercado_de_gotas.sol\":2660:3948  function buyNFT(uint256 _listingId) external payable whenNotPaused nonReentrant {... */\n    tag_5:\n      tag_39\n      0x04\n      dup1\n      calldatasize\n      sub\n      dup2\n      add\n      swap1\n      tag_40\n      swap2\n      swap1\n      tag_29\n      jump\t// in\n    tag_40:\n      tag_41\n      jump\t// in\n    tag_39:\n      stop\n        /* \"@openzeppelin/contracts/security/Pausable.sol\":1615:1699  function paused() public view virtual returns (bool) {... */\n    tag_6:\n      callvalue\n      dup1\n      iszero\n      tag_42\n      jumpi\n      0x00\n      dup1\n      revert\n    tag_42:\n      pop\n      tag_43\n      tag_44\n      jump\t// in\n    tag_43:\n      mload(0x40)\n      tag_45\n      swap2\n      swap1\n      tag_46\n      jump\t// in\n    tag_45:\n      mload(0x40)\n      dup1\n      swap2\n      sub\n      swap1\n      return\n        /* \"mercado_de_gotas.sol\":4422:4766  function updateFeeAddresses(address _newRoyaltyAddress, address _newPlatformFeeAddress) external onlyOwner nonReentrant {... */\n    tag_7:\n      callvalue\n      dup1\n      iszero\n      tag_47\n      jumpi\n      0x00\n      dup1\n      revert\n    tag_47:\n      pop\n      tag_48\n      0x04\n      dup1\n      calldatasize\n      sub\n      dup2\n      add\n      swap1\n      tag_49\n      swap2\n      swap1\n      tag_50\n      jump\t// in\n    tag_49:\n      tag_51\n      jump\t// in\n    tag_48:\n      stop\n        /* \"@openzeppelin/contracts/access/Ownable.sol\":1824:1925  function renounceOwnership() public virtual onlyOwner {... */\n    tag_8:\n      callvalue\n      dup1\n      iszero\n      tag_52\n      jumpi\n      0x00\n      dup1\n      revert\n    tag_52:\n      pop\n      tag_53\n      tag_54\n      jump\t// in\n    tag_53:\n      stop\n        /* \"mercado_de_gotas.sol\":4772:5017  function updateFeePercentages(uint256 _newRoyaltyPercentage, uint256 _newPlatformFeePercentage) external onlyOwner nonReentrant {... */\n    tag_9:\n      callvalue\n      dup1\n      iszero\n      tag_55\n      jumpi\n      0x00\n      dup1\n      revert\n    tag_55:\n      pop\n      tag_56\n      0x04\n      dup1\n      calldatasize\n      sub\n      dup2\n      add\n      swap1\n      tag_57\n      swap2\n      swap1\n      tag_58\n      jump\t// in\n    tag_57:\n      tag_59\n      jump\t// in\n    tag_56:\n      stop\n        /* \"mercado_de_gotas.sol\":883:931  mapping(uint256 => address) public listingOwners */\n    tag_10:\n      callvalue\n      dup1\n      iszero\n      tag_60\n      jumpi\n      0x00\n      dup1\n      revert\n    tag_60:\n      pop\n      tag_61\n      0x04\n      dup1\n      calldatasize\n      sub\n      dup2\n      add\n      swap1\n      tag_62\n      swap2\n      swap1\n      tag_29\n      jump\t// in\n    tag_62:\n      tag_63\n      jump\t// in\n    tag_61:\n      mload(0x40)\n      tag_64\n      swap2\n      swap1\n      tag_65\n      jump\t// in\n    tag_64:\n      mload(0x40)\n      dup1\n      swap2\n      sub\n      swap1\n      return\n        /* \"mercado_de_gotas.sol\":4258:4332  function pause() external onlyOwner nonReentrant {... */\n    tag_11:\n      callvalue\n      dup1\n      iszero\n      tag_66\n      jumpi\n      0x00\n      dup1\n      revert\n    tag_66:\n      pop\n      tag_67\n      tag_68\n      jump\t// in\n    tag_67:\n      stop\n        /* \"mercado_de_gotas.sol\":5023:5132  function getAllListingIds() external view returns (uint256[] memory) {... */\n    tag_12:\n      callvalue\n      dup1\n      iszero\n      tag_69\n      jumpi\n      0x00\n      dup1\n      revert\n    tag_69:\n      pop\n      tag_70\n      tag_71\n      jump\t// in\n    tag_70:\n      mload(0x40)\n      tag_72\n      swap2\n      swap1\n      tag_73\n      jump\t// in\n    tag_72:\n      mload(0x40)\n      dup1\n      swap2\n      sub\n      swap1\n      return\n        /* \"mercado_de_gotas.sol\":678:710  uint256 public royaltyPercentage */\n    tag_13:\n      callvalue\n      dup1\n      iszero\n      tag_74\n      jumpi\n      0x00\n      dup1\n      revert\n    tag_74:\n      pop\n      tag_75\n      tag_76\n      jump\t// in\n    tag_75:\n      mload(0x40)\n      tag_77\n      swap2\n      swap1\n      tag_78\n      jump\t// in\n    tag_77:\n      mload(0x40)\n      dup1\n      swap2\n      sub\n      swap1\n      return\n        /* \"@openzeppelin/contracts/access/Ownable.sol\":1201:1286  function owner() public view virtual returns (address) {... */\n    tag_14:\n      callvalue\n      dup1\n      iszero\n      tag_79\n      jumpi\n      0x00\n      dup1\n      revert\n    tag_79:\n      pop\n      tag_80\n      tag_81\n      jump\t// in\n    tag_80:\n      mload(0x40)\n      tag_82\n      swap2\n      swap1\n      tag_65\n      jump\t// in\n    tag_82:\n      mload(0x40)\n      dup1\n      swap2\n      sub\n      swap1\n      return\n        /* \"mercado_de_gotas.sol\":938:970  uint256 public nextListingId = 1 */\n    tag_15:\n      callvalue\n      dup1\n      iszero\n      tag_83\n      jumpi\n      0x00\n      dup1\n      revert\n    tag_83:\n      pop\n      tag_84\n      tag_85\n      jump\t// in\n    tag_84:\n      mload(0x40)\n      tag_86\n      swap2\n      swap1\n      tag_78\n      jump\t// in\n    tag_86:\n      mload(0x40)\n      dup1\n      swap2\n      sub\n      swap1\n      return\n        /* \"mercado_de_gotas.sol\":759:788  address public royaltyAddress */\n    tag_16:\n      callvalue\n      dup1\n      iszero\n      tag_87\n      jumpi\n      0x00\n      dup1\n      revert\n    tag_87:\n      pop\n      tag_88\n      tag_89\n      jump\t// in\n    tag_88:\n      mload(0x40)\n      tag_90\n      swap2\n      swap1\n      tag_65\n      jump\t// in\n    tag_90:\n      mload(0x40)\n      dup1\n      swap2\n      sub\n      swap1\n      return\n        /* \"mercado_de_gotas.sol\":5138:5671  function getListingInfo(uint256 _listingId) external view returns (uint256, uint256, string memory) {... */\n    tag_17:\n      callvalue\n      dup1\n      iszero\n      tag_91\n      jumpi\n      0x00\n      dup1\n      revert\n    tag_91:\n      pop\n      tag_92\n      0x04\n      dup1\n      calldatasize\n      sub\n      dup2\n      add\n      swap1\n      tag_93\n      swap2\n      swap1\n      tag_29\n      jump\t// in\n    tag_93:\n      tag_94\n      jump\t// in\n    tag_92:\n      mload(0x40)\n      tag_95\n      swap4\n      swap3\n      swap2\n      swap1\n      tag_96\n      jump\t// in\n    tag_95:\n      mload(0x40)\n      dup1\n      swap2\n      sub\n      swap1\n      return\n        /* \"mercado_de_gotas.sol\":716:752  uint256 public platformFeePercentage */\n    tag_18:\n      callvalue\n      dup1\n      iszero\n      tag_97\n      jumpi\n      0x00\n      dup1\n      revert\n    tag_97:\n      pop\n      tag_98\n      tag_99\n      jump\t// in\n    tag_98:\n      mload(0x40)\n      tag_100\n      swap2\n      swap1\n      tag_78\n      jump\t// in\n    tag_100:\n      mload(0x40)\n      dup1\n      swap2\n      sub\n      swap1\n      return\n        /* \"mercado_de_gotas.sol\":834:877  mapping(uint256 => Listing) public listings */\n    tag_19:\n      callvalue\n      dup1\n      iszero\n      tag_101\n      jumpi\n      0x00\n      dup1\n      revert\n    tag_101:\n      pop\n      tag_102\n      0x04\n      dup1\n      calldatasize\n      sub\n      dup2\n      add\n      swap1\n      tag_103\n      swap2\n      swap1\n      tag_29\n      jump\t// in\n    tag_103:\n      tag_104\n      jump\t// in\n    tag_102:\n      mload(0x40)\n      tag_105\n      swap6\n      swap5\n      swap4\n      swap3\n      swap2\n      swap1\n      tag_106\n      jump\t// in\n    tag_105:\n      mload(0x40)\n      dup1\n      swap2\n      sub\n      swap1\n      return\n        /* \"mercado_de_gotas.sol\":639:672  uint256[] public activeListingIds */\n    tag_20:\n      callvalue\n      dup1\n      iszero\n      tag_107\n      jumpi\n      0x00\n      dup1\n      revert\n    tag_107:\n      pop\n      tag_108\n      0x04\n      dup1\n      calldatasize\n      sub\n      dup2\n      add\n      swap1\n      tag_109\n      swap2\n      swap1\n      tag_29\n      jump\t// in\n    tag_109:\n      tag_110\n      jump\t// in\n    tag_108:\n      mload(0x40)\n      tag_111\n      swap2\n      swap1\n      tag_78\n      jump\t// in\n    tag_111:\n      mload(0x40)\n      dup1\n      swap2\n      sub\n      swap1\n      return\n        /* \"mercado_de_gotas.sol\":794:827  address public platformFeeAddress */\n    tag_21:\n      callvalue\n      dup1\n      iszero\n      tag_112\n      jumpi\n      0x00\n      dup1\n      revert\n    tag_112:\n      pop\n      tag_113\n      tag_114\n      jump\t// in\n    tag_113:\n      mload(0x40)\n      tag_115\n      swap2\n      swap1\n      tag_65\n      jump\t// in\n    tag_115:\n      mload(0x40)\n      dup1\n      swap2\n      sub\n      swap1\n      return\n        /* \"@openzeppelin/contracts/access/Ownable.sol\":2074:2272  function transferOwnership(address newOwner) public virtual onlyOwner {... */\n    tag_22:\n      callvalue\n      dup1\n      iszero\n      tag_116\n      jumpi\n      0x00\n      dup1\n      revert\n    tag_116:\n      pop\n      tag_117\n      0x04\n      dup1\n      calldatasize\n      sub\n      dup2\n      add\n      swap1\n      tag_118\n      swap2\n      swap1\n      tag_119\n      jump\t// in\n    tag_118:\n      tag_120\n      jump\t// in\n    tag_117:\n      stop\n        /* \"mercado_de_gotas.sol\":3954:4252  function cancelListing(uint256 _listingId) external nonReentrant {... */\n    tag_30:\n        /* \"@openzeppelin/contracts/security/ReentrancyGuard.sol\":2261:2282  _nonReentrantBefore() */\n      tag_122\n        /* \"@openzeppelin/contracts/security/ReentrancyGuard.sol\":2261:2280  _nonReentrantBefore */\n      tag_123\n        /* \"@openzeppelin/contracts/security/ReentrancyGuard.sol\":2261:2282  _nonReentrantBefore() */\n      jump\t// in\n    tag_122:\n        /* \"mercado_de_gotas.sol\":4066:4076  msg.sender */\n      caller\n        /* \"mercado_de_gotas.sol\":4037:4076  listingOwners[_listingId] == msg.sender */\n      0xffffffffffffffffffffffffffffffffffffffff\n      and\n        /* \"mercado_de_gotas.sol\":4037:4050  listingOwners */\n      0x09\n        /* \"mercado_de_gotas.sol\":4037:4062  listingOwners[_listingId] */\n      0x00\n        /* \"mercado_de_gotas.sol\":4051:4061  _listingId */\n      dup4\n        /* \"mercado_de_gotas.sol\":4037:4062  listingOwners[_listingId] */\n      dup2\n      mstore\n      0x20\n      add\n      swap1\n      dup2\n      mstore\n      0x20\n      add\n      0x00\n      keccak256\n      0x00\n      swap1\n      sload\n      swap1\n      0x0100\n      exp\n      swap1\n      div\n      0xffffffffffffffffffffffffffffffffffffffff\n      and\n        /* \"mercado_de_gotas.sol\":4037:4076  listingOwners[_listingId] == msg.sender */\n      0xffffffffffffffffffffffffffffffffffffffff\n      and\n      eq\n        /* \"mercado_de_gotas.sol\":4029:4118  require(listingOwners[_listingId] == msg.sender, \"Only the listing owner can cancel it.\") */\n      tag_125\n      jumpi\n      mload(0x40)\n      0x08c379a000000000000000000000000000000000000000000000000000000000\n      dup2\n      mstore\n      0x04\n      add\n      tag_126\n      swap1\n      tag_127\n      jump\t// in\n    tag_126:\n      mload(0x40)\n      dup1\n      swap2\n      sub\n      swap1\n      revert\n    tag_125:\n        /* \"mercado_de_gotas.sol\":4144:4152  listings */\n      0x08\n        /* \"mercado_de_gotas.sol\":4144:4164  listings[_listingId] */\n      0x00\n        /* \"mercado_de_gotas.sol\":4153:4163  _listingId */\n      dup3\n        /* \"mercado_de_gotas.sol\":4144:4164  listings[_listingId] */\n      dup2\n      mstore\n      0x20\n      add\n      swap1\n      dup2\n      mstore\n      0x20\n      add\n      0x00\n      keccak256\n      0x00\n        /* \"mercado_de_gotas.sol\":4137:4164  delete listings[_listingId] */\n      dup1\n      dup3\n      add\n      exp(0x0100, 0x00)\n      dup2\n      sload\n      swap1\n      0xffffffffffffffffffffffffffffffffffffffff\n      mul\n      not\n      and\n      swap1\n      sstore\n      0x01\n      dup3\n      add\n      0x00\n      swap1\n      sstore\n      0x02\n      dup3\n      add\n      exp(0x0100, 0x00)\n      dup2\n      sload\n      swap1\n      0xffffffffffffffffffffffffffffffffffffffff\n      mul\n      not\n      and\n      swap1\n      sstore\n      0x03\n      dup3\n      add\n      0x00\n      swap1\n      sstore\n      0x04\n      dup3\n      add\n      0x00\n      swap1\n      sstore\n      pop\n      pop\n        /* \"mercado_de_gotas.sol\":4181:4194  listingOwners */\n      0x09\n        /* \"mercado_de_gotas.sol\":4181:4206  listingOwners[_listingId] */\n      0x00\n        /* \"mercado_de_gotas.sol\":4195:4205  _listingId */\n      dup3\n        /* \"mercado_de_gotas.sol\":4181:4206  listingOwners[_listingId] */\n      dup2\n      mstore\n      0x20\n      add\n      swap1\n      dup2\n      mstore\n      0x20\n      add\n      0x00\n      keccak256\n      0x00\n        /* \"mercado_de_gotas.sol\":4174:4206  delete listingOwners[_listingId] */\n      0x0100\n      exp\n      dup2\n      sload\n      swap1\n      0xffffffffffffffffffffffffffffffffffffffff\n      mul\n      not\n      and\n      swap1\n      sstore\n        /* \"mercado_de_gotas.sol\":4234:4244  _listingId */\n      dup1\n        /* \"mercado_de_gotas.sol\":4222:4245  NFTDelisted(_listingId) */\n      0xc0c55a6edead4433d18cb1e287a0a20a2fa003a6f483bc9823d2e504d70d1c67\n      mload(0x40)\n      mload(0x40)\n      dup1\n      swap2\n      sub\n      swap1\n      log2\n        /* \"@openzeppelin/contracts/security/ReentrancyGuard.sol\":2303:2323  _nonReentrantAfter() */\n      tag_128\n        /* \"@openzeppelin/contracts/security/ReentrancyGuard.sol\":2303:2321  _nonReentrantAfter */\n      tag_129\n        /* \"@openzeppelin/contracts/security/ReentrancyGuard.sol\":2303:2323  _nonReentrantAfter() */\n      jump\t// in\n    tag_128:\n        /* \"mercado_de_gotas.sol\":3954:4252  function cancelListing(uint256 _listingId) external nonReentrant {... */\n      pop\n      jump\t// out\n        /* \"mercado_de_gotas.sol\":1733:2654  function listNFT(address _nftContractAddress, uint256 _nftId, uint256 _price, uint256 _deadline) external whenNotPaused nonReentrant {... */\n    tag_35:\n        /* \"@openzeppelin/contracts/security/Pausable.sol\":1239:1258  _requireNotPaused() */\n      tag_131\n        /* \"@openzeppelin/contracts/security/Pausable.sol\":1239:1256  _requireNotPaused */\n      tag_132\n        /* \"@openzeppelin/contracts/security/Pausable.sol\":1239:1258  _requireNotPaused() */\n      jump\t// in\n    tag_131:\n        /* \"@openzeppelin/contracts/security/ReentrancyGuard.sol\":2261:2282  _nonReentrantBefore() */\n      tag_134\n        /* \"@openzeppelin/contracts/security/ReentrancyGuard.sol\":2261:2280  _nonReentrantBefore */\n      tag_123\n        /* \"@openzeppelin/contracts/security/ReentrancyGuard.sol\":2261:2282  _nonReentrantBefore() */\n      jump\t// in\n    tag_134:\n        /* \"mercado_de_gotas.sol\":1893:1894  0 */\n      0x00\n        /* \"mercado_de_gotas.sol\":1884:1890  _price */\n      dup3\n        /* \"mercado_de_gotas.sol\":1884:1894  _price > 0 */\n      gt\n        /* \"mercado_de_gotas.sol\":1876:1931  require(_price > 0, \"Price must be greater than zero.\") */\n      tag_136\n      jumpi\n      mload(0x40)\n      0x08c379a000000000000000000000000000000000000000000000000000000000\n      dup2\n      mstore\n      0x04\n      add\n      tag_137\n      swap1\n      tag_138\n      jump\t// in\n    tag_137:\n      mload(0x40)\n      dup1\n      swap2\n      sub\n      swap1\n      revert\n    tag_136:\n        /* \"mercado_de_gotas.sol\":1961:1962  0 */\n      0x00\n        /* \"mercado_de_gotas.sol\":1949:1958  _deadline */\n      dup2\n        /* \"mercado_de_gotas.sol\":1949:1962  _deadline > 0 */\n      gt\n        /* \"mercado_de_gotas.sol\":1941:2002  require(_deadline > 0, \"Deadline must be greater than zero.\") */\n      tag_139\n      jumpi\n      mload(0x40)\n      0x08c379a000000000000000000000000000000000000000000000000000000000\n      dup2\n      mstore\n      0x04\n      add\n      tag_140\n      swap1\n      tag_141\n      jump\t// in\n    tag_140:\n      mload(0x40)\n      dup1\n      swap2\n      sub\n      swap1\n      revert\n    tag_139:\n        /* \"mercado_de_gotas.sol\":2013:2032  IERC721 nftContract */\n      0x00\n        /* \"mercado_de_gotas.sol\":2043:2062  _nftContractAddress */\n      dup5\n        /* \"mercado_de_gotas.sol\":2013:2063  IERC721 nftContract = IERC721(_nftContractAddress) */\n      swap1\n      pop\n        /* \"mercado_de_gotas.sol\":2112:2122  msg.sender */\n      caller\n        /* \"mercado_de_gotas.sol\":2081:2122  nftContract.ownerOf(_nftId) == msg.sender */\n      0xffffffffffffffffffffffffffffffffffffffff\n      and\n        /* \"mercado_de_gotas.sol\":2081:2092  nftContract */\n      dup2\n        /* \"mercado_de_gotas.sol\":2081:2100  nftContract.ownerOf */\n      0xffffffffffffffffffffffffffffffffffffffff\n      and\n      0x6352211e\n        /* \"mercado_de_gotas.sol\":2101:2107  _nftId */\n      dup7\n        /* \"mercado_de_gotas.sol\":2081:2108  nftContract.ownerOf(_nftId) */\n      mload(0x40)\n      dup3\n      0xffffffff\n      and\n      0xe0\n      shl\n      dup2\n      mstore\n      0x04\n      add\n      tag_142\n      swap2\n      swap1\n      tag_78\n      jump\t// in\n    tag_142:\n      0x20\n      mload(0x40)\n      dup1\n      dup4\n      sub\n      dup2\n      dup7\n      dup1\n      extcodesize\n      iszero\n      dup1\n      iszero\n      tag_143\n      jumpi\n      0x00\n      dup1\n      revert\n    tag_143:\n      pop\n      gas\n      staticcall\n      iszero\n      dup1\n      iszero\n      tag_145\n      jumpi\n      returndatasize\n      0x00\n      dup1\n      returndatacopy\n      revert(0x00, returndatasize)\n    tag_145:\n      pop\n      pop\n      pop\n      pop\n      mload(0x40)\n      returndatasize\n      not(0x1f)\n      0x1f\n      dup3\n      add\n      and\n      dup3\n      add\n      dup1\n      0x40\n      mstore\n      pop\n      dup2\n      add\n      swap1\n      tag_146\n      swap2\n      swap1\n      tag_147\n      jump\t// in\n    tag_146:\n        /* \"mercado_de_gotas.sol\":2081:2122  nftContract.ownerOf(_nftId) == msg.sender */\n      0xffffffffffffffffffffffffffffffffffffffff\n      and\n      eq\n        /* \"mercado_de_gotas.sol\":2073:2159  require(nftContract.ownerOf(_nftId) == msg.sender, \"You must own the NFT to list it.\") */\n      tag_148\n      jumpi\n      mload(0x40)\n      0x08c379a000000000000000000000000000000000000000000000000000000000\n      dup2\n      mstore\n      0x04\n      add\n      tag_149\n      swap1\n      tag_150\n      jump\t// in\n    tag_149:\n      mload(0x40)\n      dup1\n      swap2\n      sub\n      swap1\n      revert\n    tag_148:\n        /* \"mercado_de_gotas.sol\":2196:2405  Listing({... */\n      mload(0x40)\n      dup1\n      0xa0\n      add\n      0x40\n      mstore\n      dup1\n        /* \"mercado_de_gotas.sol\":2238:2257  _nftContractAddress */\n      dup7\n        /* \"mercado_de_gotas.sol\":2196:2405  Listing({... */\n      0xffffffffffffffffffffffffffffffffffffffff\n      and\n      dup2\n      mstore\n      0x20\n      add\n        /* \"mercado_de_gotas.sol\":2278:2284  _nftId */\n      dup6\n        /* \"mercado_de_gotas.sol\":2196:2405  Listing({... */\n      dup2\n      mstore\n      0x20\n      add\n        /* \"mercado_de_gotas.sol\":2306:2316  msg.sender */\n      caller\n        /* \"mercado_de_gotas.sol\":2196:2405  Listing({... */\n      0xffffffffffffffffffffffffffffffffffffffff\n      and\n      dup2\n      mstore\n      0x20\n      add\n        /* \"mercado_de_gotas.sol\":2337:2343  _price */\n      dup5\n        /* \"mercado_de_gotas.sol\":2196:2405  Listing({... */\n      dup2\n      mstore\n      0x20\n      add\n        /* \"mercado_de_gotas.sol\":2385:2394  _deadline */\n      dup4\n        /* \"mercado_de_gotas.sol\":2367:2382  block.timestamp */\n      timestamp\n        /* \"mercado_de_gotas.sol\":2367:2394  block.timestamp + _deadline */\n      tag_151\n      swap2\n      swap1\n      tag_152\n      jump\t// in\n    tag_151:\n        /* \"mercado_de_gotas.sol\":2196:2405  Listing({... */\n      dup2\n      mstore\n      pop\n        /* \"mercado_de_gotas.sol\":2170:2178  listings */\n      0x08\n        /* \"mercado_de_gotas.sol\":2170:2193  listings[nextListingId] */\n      0x00\n        /* \"mercado_de_gotas.sol\":2179:2192  nextListingId */\n      sload(0x0a)\n        /* \"mercado_de_gotas.sol\":2170:2193  listings[nextListingId] */\n      dup2\n      mstore\n      0x20\n      add\n      swap1\n      dup2\n      mstore\n      0x20\n      add\n      0x00\n      keccak256\n        /* \"mercado_de_gotas.sol\":2170:2405  listings[nextListingId] = Listing({... */\n      0x00\n      dup3\n      add\n      mload\n      dup2\n      0x00\n      add\n      exp(0x0100, 0x00)\n      dup2\n      sload\n      dup2\n      0xffffffffffffffffffffffffffffffffffffffff\n      mul\n      not\n      and\n      swap1\n      dup4\n      0xffffffffffffffffffffffffffffffffffffffff\n      and\n      mul\n      or\n      swap1\n      sstore\n      pop\n      0x20\n      dup3\n      add\n      mload\n      dup2\n      0x01\n      add\n      sstore\n      0x40\n      dup3\n      add\n      mload\n      dup2\n      0x02\n      add\n      exp(0x0100, 0x00)\n      dup2\n      sload\n      dup2\n      0xffffffffffffffffffffffffffffffffffffffff\n      mul\n      not\n      and\n      swap1\n      dup4\n      0xffffffffffffffffffffffffffffffffffffffff\n      and\n      mul\n      or\n      swap1\n      sstore\n      pop\n      0x60\n      dup3\n      add\n      mload\n      dup2\n      0x03\n      add\n      sstore\n      0x80\n      dup3\n      add\n      mload\n      dup2\n      0x04\n      add\n      sstore\n      swap1\n      pop\n      pop\n        /* \"mercado_de_gotas.sol\":2447:2457  msg.sender */\n      caller\n        /* \"mercado_de_gotas.sol\":2416:2429  listingOwners */\n      0x09\n        /* \"mercado_de_gotas.sol\":2416:2444  listingOwners[nextListingId] */\n      0x00\n        /* \"mercado_de_gotas.sol\":2430:2443  nextListingId */\n      sload(0x0a)\n        /* \"mercado_de_gotas.sol\":2416:2444  listingOwners[nextListingId] */\n      dup2\n      mstore\n      0x20\n      add\n      swap1\n      dup2\n      mstore\n      0x20\n      add\n      0x00\n      keccak256\n      0x00\n        /* \"mercado_de_gotas.sol\":2416:2457  listingOwners[nextListingId] = msg.sender */\n      0x0100\n      exp\n      dup2\n      sload\n      dup2\n      0xffffffffffffffffffffffffffffffffffffffff\n      mul\n      not\n      and\n      swap1\n      dup4\n      0xffffffffffffffffffffffffffffffffffffffff\n      and\n      mul\n      or\n      swap1\n      sstore\n      pop\n        /* \"mercado_de_gotas.sol\":2468:2484  activeListingIds */\n      0x03\n        /* \"mercado_de_gotas.sol\":2490:2503  nextListingId */\n      sload(0x0a)\n        /* \"mercado_de_gotas.sol\":2468:2504  activeListingIds.push(nextListingId) */\n      swap1\n      dup1\n      0x01\n      dup2\n      sload\n      add\n      dup1\n      dup3\n      sstore\n      dup1\n      swap2\n      pop\n      pop\n      0x01\n      swap1\n      sub\n      swap1\n      0x00\n      mstore\n      keccak256(0x00, 0x20)\n      add\n      0x00\n      swap1\n      swap2\n      swap1\n      swap2\n      swap1\n      swap2\n      pop\n      sstore\n        /* \"mercado_de_gotas.sol\":2557:2576  _nftContractAddress */\n      dup5\n        /* \"mercado_de_gotas.sol\":2520:2622  NFTListed(nextListingId, msg.sender, _nftContractAddress, _nftId, _price, block.timestamp + _deadline) */\n      0xffffffffffffffffffffffffffffffffffffffff\n      and\n        /* \"mercado_de_gotas.sol\":2545:2555  msg.sender */\n      caller\n        /* \"mercado_de_gotas.sol\":2520:2622  NFTListed(nextListingId, msg.sender, _nftContractAddress, _nftId, _price, block.timestamp + _deadline) */\n      0xffffffffffffffffffffffffffffffffffffffff\n      and\n        /* \"mercado_de_gotas.sol\":2530:2543  nextListingId */\n      sload(0x0a)\n        /* \"mercado_de_gotas.sol\":2520:2622  NFTListed(nextListingId, msg.sender, _nftContractAddress, _nftId, _price, block.timestamp + _deadline) */\n      0xf33c76fec15a03b2e414df8c9dce93f5b05f8672742e0f1eb558b2161162dfcb\n        /* \"mercado_de_gotas.sol\":2578:2584  _nftId */\n      dup8\n        /* \"mercado_de_gotas.sol\":2586:2592  _price */\n      dup8\n        /* \"mercado_de_gotas.sol\":2612:2621  _deadline */\n      dup8\n        /* \"mercado_de_gotas.sol\":2594:2609  block.timestamp */\n      timestamp\n        /* \"mercado_de_gotas.sol\":2594:2621  block.timestamp + _deadline */\n      tag_154\n      swap2\n      swap1\n      tag_152\n      jump\t// in\n    tag_154:\n        /* \"mercado_de_gotas.sol\":2520:2622  NFTListed(nextListingId, msg.sender, _nftContractAddress, _nftId, _price, block.timestamp + _deadline) */\n      mload(0x40)\n      tag_155\n      swap4\n      swap3\n      swap2\n      swap1\n      tag_156\n      jump\t// in\n    tag_155:\n      mload(0x40)\n      dup1\n      swap2\n      sub\n      swap1\n      log4\n        /* \"mercado_de_gotas.sol\":2632:2645  nextListingId */\n      0x0a\n      0x00\n        /* \"mercado_de_gotas.sol\":2632:2647  nextListingId++ */\n      dup2\n      sload\n      dup1\n      swap3\n      swap2\n      swap1\n      tag_157\n      swap1\n      tag_158\n      jump\t// in\n    tag_157:\n      swap2\n      swap1\n      pop\n      sstore\n      pop\n        /* \"@openzeppelin/contracts/security/ReentrancyGuard.sol\":2292:2293  _ */\n      pop\n        /* \"@openzeppelin/contracts/security/ReentrancyGuard.sol\":2303:2323  _nonReentrantAfter() */\n      tag_159\n        /* \"@openzeppelin/contracts/security/ReentrancyGuard.sol\":2303:2321  _nonReentrantAfter */\n      tag_129\n        /* \"@openzeppelin/contracts/security/ReentrancyGuard.sol\":2303:2323  _nonReentrantAfter() */\n      jump\t// in\n    tag_159:\n        /* \"mercado_de_gotas.sol\":1733:2654  function listNFT(address _nftContractAddress, uint256 _nftId, uint256 _price, uint256 _deadline) external whenNotPaused nonReentrant {... */\n      pop\n      pop\n      pop\n      pop\n      jump\t// out\n        /* \"mercado_de_gotas.sol\":4338:4416  function unpause() external onlyOwner nonReentrant {... */\n    tag_38:\n        /* \"@openzeppelin/contracts/access/Ownable.sol\":1094:1107  _checkOwner() */\n      tag_161\n        /* \"@openzeppelin/contracts/access/Ownable.sol\":1094:1105  _checkOwner */\n      tag_162\n        /* \"@openzeppelin/contracts/access/Ownable.sol\":1094:1107  _checkOwner() */\n      jump\t// in\n    tag_161:\n        /* \"@openzeppelin/contracts/security/ReentrancyGuard.sol\":2261:2282  _nonReentrantBefore() */\n      tag_164\n        /* \"@openzeppelin/contracts/security/ReentrancyGuard.sol\":2261:2280  _nonReentrantBefore */\n      tag_123\n        /* \"@openzeppelin/contracts/security/ReentrancyGuard.sol\":2261:2282  _nonReentrantBefore() */\n      jump\t// in\n    tag_164:\n        /* \"mercado_de_gotas.sol\":4399:4409  _unpause() */\n      tag_166\n        /* \"mercado_de_gotas.sol\":4399:4407  _unpause */\n      tag_167\n        /* \"mercado_de_gotas.sol\":4399:4409  _unpause() */\n      jump\t// in\n    tag_166:\n        /* \"@openzeppelin/contracts/security/ReentrancyGuard.sol\":2303:2323  _nonReentrantAfter() */\n      tag_168\n        /* \"@openzeppelin/contracts/security/ReentrancyGuard.sol\":2303:2321  _nonReentrantAfter */\n      tag_129\n        /* \"@openzeppelin/contracts/security/ReentrancyGuard.sol\":2303:2323  _nonReentrantAfter() */\n      jump\t// in\n    tag_168:\n        /* \"mercado_de_gotas.sol\":4338:4416  function unpause() external onlyOwner nonReentrant {... */\n      jump\t// out\n        /* \"mercado_de_gotas.sol\":2660:3948  function buyNFT(uint256 _listingId) external payable whenNotPaused nonReentrant {... */\n    tag_41:\n        /* \"@openzeppelin/contracts/security/Pausable.sol\":1239:1258  _requireNotPaused() */\n      tag_170\n        /* \"@openzeppelin/contracts/security/Pausable.sol\":1239:1256  _requireNotPaused */\n      tag_132\n        /* \"@openzeppelin/contracts/security/Pausable.sol\":1239:1258  _requireNotPaused() */\n      jump\t// in\n    tag_170:\n        /* \"@openzeppelin/contracts/security/ReentrancyGuard.sol\":2261:2282  _nonReentrantBefore() */\n      tag_172\n        /* \"@openzeppelin/contracts/security/ReentrancyGuard.sol\":2261:2280  _nonReentrantBefore */\n      tag_123\n        /* \"@openzeppelin/contracts/security/ReentrancyGuard.sol\":2261:2282  _nonReentrantBefore() */\n      jump\t// in\n    tag_172:\n        /* \"mercado_de_gotas.sol\":2770:2771  0 */\n      0x00\n        /* \"mercado_de_gotas.sol\":2758:2767  msg.value */\n      callvalue\n        /* \"mercado_de_gotas.sol\":2758:2771  msg.value > 0 */\n      gt\n        /* \"mercado_de_gotas.sol\":2750:2813  require(msg.value > 0, \"Sent value must be greater than zero.\") */\n      tag_174\n      jumpi\n      mload(0x40)\n      0x08c379a000000000000000000000000000000000000000000000000000000000\n      dup2\n      mstore\n      0x04\n      add\n      tag_175\n      swap1\n      tag_176\n      jump\t// in\n    tag_175:\n      mload(0x40)\n      dup1\n      swap2\n      sub\n      swap1\n      revert\n    tag_174:\n        /* \"mercado_de_gotas.sol\":2824:2847  Listing storage listing */\n      0x00\n        /* \"mercado_de_gotas.sol\":2850:2858  listings */\n      0x08\n        /* \"mercado_de_gotas.sol\":2850:2870  listings[_listingId] */\n      0x00\n        /* \"mercado_de_gotas.sol\":2859:2869  _listingId */\n      dup4\n        /* \"mercado_de_gotas.sol\":2850:2870  listings[_listingId] */\n      dup2\n      mstore\n      0x20\n      add\n      swap1\n      dup2\n      mstore\n      0x20\n      add\n      0x00\n      keccak256\n        /* \"mercado_de_gotas.sol\":2824:2870  Listing storage listing = listings[_listingId] */\n      swap1\n      pop\n        /* \"mercado_de_gotas.sol\":2914:2915  0 */\n      0x00\n        /* \"mercado_de_gotas.sol\":2888:2916  listing.seller != address(0) */\n      0xffffffffffffffffffffffffffffffffffffffff\n      and\n        /* \"mercado_de_gotas.sol\":2888:2895  listing */\n      dup2\n        /* \"mercado_de_gotas.sol\":2888:2902  listing.seller */\n      0x02\n      add\n      0x00\n      swap1\n      sload\n      swap1\n      0x0100\n      exp\n      swap1\n      div\n      0xffffffffffffffffffffffffffffffffffffffff\n      and\n        /* \"mercado_de_gotas.sol\":2888:2916  listing.seller != address(0) */\n      0xffffffffffffffffffffffffffffffffffffffff\n      and\n      eq\n      iszero\n        /* \"mercado_de_gotas.sol\":2880:2944  require(listing.seller != address(0), \"Listing does not exist.\") */\n      tag_177\n      jumpi\n      mload(0x40)\n      0x08c379a000000000000000000000000000000000000000000000000000000000\n      dup2\n      mstore\n      0x04\n      add\n      tag_178\n      swap1\n      tag_179\n      jump\t// in\n    tag_178:\n      mload(0x40)\n      dup1\n      swap2\n      sub\n      swap1\n      revert\n    tag_177:\n        /* \"mercado_de_gotas.sol\":2981:2988  listing */\n      dup1\n        /* \"mercado_de_gotas.sol\":2981:2997  listing.deadline */\n      0x04\n      add\n      sload\n        /* \"mercado_de_gotas.sol\":2962:2977  block.timestamp */\n      timestamp\n        /* \"mercado_de_gotas.sol\":2962:2997  block.timestamp <= listing.deadline */\n      gt\n      iszero\n        /* \"mercado_de_gotas.sol\":2954:3027  require(block.timestamp <= listing.deadline, \"This listing has expired.\") */\n      tag_180\n      jumpi\n      mload(0x40)\n      0x08c379a000000000000000000000000000000000000000000000000000000000\n      dup2\n      mstore\n      0x04\n      add\n      tag_181\n      swap1\n      tag_182\n      jump\t// in\n    tag_181:\n      mload(0x40)\n      dup1\n      swap2\n      sub\n      swap1\n      revert\n    tag_180:\n        /* \"mercado_de_gotas.sol\":3058:3065  listing */\n      dup1\n        /* \"mercado_de_gotas.sol\":3058:3071  listing.price */\n      0x03\n      add\n      sload\n        /* \"mercado_de_gotas.sol\":3045:3054  msg.value */\n      callvalue\n        /* \"mercado_de_gotas.sol\":3045:3071  msg.value == listing.price */\n      eq\n        /* \"mercado_de_gotas.sol\":3037:3122  require(msg.value == listing.price, \"Sent value must be equal to the listing price.\") */\n      tag_183\n      jumpi\n      mload(0x40)\n      0x08c379a000000000000000000000000000000000000000000000000000000000\n      dup2\n      mstore\n      0x04\n      add\n      tag_184\n      swap1\n      tag_185\n      jump\t// in\n    tag_184:\n      mload(0x40)\n      dup1\n      swap2\n      sub\n      swap1\n      revert\n    tag_183:\n        /* \"mercado_de_gotas.sol\":3133:3154  uint256 royaltyAmount */\n      0x00\n        /* \"mercado_de_gotas.sol\":3195:3200  10000 */\n      0x2710\n        /* \"mercado_de_gotas.sol\":3174:3191  royaltyPercentage */\n      sload(0x04)\n        /* \"mercado_de_gotas.sol\":3158:3165  listing */\n      dup4\n        /* \"mercado_de_gotas.sol\":3158:3171  listing.price */\n      0x03\n      add\n      sload\n        /* \"mercado_de_gotas.sol\":3158:3191  listing.price * royaltyPercentage */\n      tag_186\n      swap2\n      swap1\n      tag_187\n      jump\t// in\n    tag_186:\n        /* \"mercado_de_gotas.sol\":3157:3200  (listing.price * royaltyPercentage) / 10000 */\n      tag_188\n      swap2\n      swap1\n      tag_189\n      jump\t// in\n    tag_188:\n        /* \"mercado_de_gotas.sol\":3133:3200  uint256 royaltyAmount = (listing.price * royaltyPercentage) / 10000 */\n      swap1\n      pop\n        /* \"mercado_de_gotas.sol\":3210:3229  uint256 platformFee */\n      0x00\n        /* \"mercado_de_gotas.sol\":3274:3279  10000 */\n      0x2710\n        /* \"mercado_de_gotas.sol\":3249:3270  platformFeePercentage */\n      sload(0x05)\n        /* \"mercado_de_gotas.sol\":3233:3240  listing */\n      dup5\n        /* \"mercado_de_gotas.sol\":3233:3246  listing.price */\n      0x03\n      add\n      sload\n        /* \"mercado_de_gotas.sol\":3233:3270  listing.price * platformFeePercentage */\n      tag_190\n      swap2\n      swap1\n      tag_187\n      jump\t// in\n    tag_190:\n        /* \"mercado_de_gotas.sol\":3232:3279  (listing.price * platformFeePercentage) / 10000 */\n      tag_191\n      swap2\n      swap1\n      tag_189\n      jump\t// in\n    tag_191:\n        /* \"mercado_de_gotas.sol\":3210:3279  uint256 platformFee = (listing.price * platformFeePercentage) / 10000 */\n      swap1\n      pop\n        /* \"mercado_de_gotas.sol\":3289:3309  uint256 sellerAmount */\n      0x00\n        /* \"mercado_de_gotas.sol\":3344:3355  platformFee */\n      dup2\n        /* \"mercado_de_gotas.sol\":3328:3341  royaltyAmount */\n      dup4\n        /* \"mercado_de_gotas.sol\":3312:3319  listing */\n      dup6\n        /* \"mercado_de_gotas.sol\":3312:3325  listing.price */\n      0x03\n      add\n      sload\n        /* \"mercado_de_gotas.sol\":3312:3341  listing.price - royaltyAmount */\n      tag_192\n      swap2\n      swap1\n      tag_193\n      jump\t// in\n    tag_192:\n        /* \"mercado_de_gotas.sol\":3312:3355  listing.price - royaltyAmount - platformFee */\n      tag_194\n      swap2\n      swap1\n      tag_193\n      jump\t// in\n    tag_194:\n        /* \"mercado_de_gotas.sol\":3289:3355  uint256 sellerAmount = listing.price - royaltyAmount - platformFee */\n      swap1\n      pop\n        /* \"mercado_de_gotas.sol\":3366:3385  IERC721 nftContract */\n      0x00\n        /* \"mercado_de_gotas.sol\":3396:3403  listing */\n      dup5\n        /* \"mercado_de_gotas.sol\":3396:3422  listing.nftContractAddress */\n      0x00\n      add\n      0x00\n      swap1\n      sload\n      swap1\n      0x0100\n      exp\n      swap1\n      div\n      0xffffffffffffffffffffffffffffffffffffffff\n      and\n        /* \"mercado_de_gotas.sol\":3366:3423  IERC721 nftContract = IERC721(listing.nftContractAddress) */\n      swap1\n      pop\n        /* \"mercado_de_gotas.sol\":3479:3486  listing */\n      dup5\n        /* \"mercado_de_gotas.sol\":3479:3493  listing.seller */\n      0x02\n      add\n      0x00\n      swap1\n      sload\n      swap1\n      0x0100\n      exp\n      swap1\n      div\n      0xffffffffffffffffffffffffffffffffffffffff\n      and\n        /* \"mercado_de_gotas.sol\":3441:3493  nftContract.ownerOf(listing.nftId) == listing.seller */\n      0xffffffffffffffffffffffffffffffffffffffff\n      and\n        /* \"mercado_de_gotas.sol\":3441:3452  nftContract */\n      dup2\n        /* \"mercado_de_gotas.sol\":3441:3460  nftContract.ownerOf */\n      0xffffffffffffffffffffffffffffffffffffffff\n      and\n      0x6352211e\n        /* \"mercado_de_gotas.sol\":3461:3468  listing */\n      dup8\n        /* \"mercado_de_gotas.sol\":3461:3474  listing.nftId */\n      0x01\n      add\n      sload\n        /* \"mercado_de_gotas.sol\":3441:3475  nftContract.ownerOf(listing.nftId) */\n      mload(0x40)\n      dup3\n      0xffffffff\n      and\n      0xe0\n      shl\n      dup2\n      mstore\n      0x04\n      add\n      tag_195\n      swap2\n      swap1\n      tag_78\n      jump\t// in\n    tag_195:\n      0x20\n      mload(0x40)\n      dup1\n      dup4\n      sub\n      dup2\n      dup7\n      dup1\n      extcodesize\n      iszero\n      dup1\n      iszero\n      tag_196\n      jumpi\n      0x00\n      dup1\n      revert\n    tag_196:\n      pop\n      gas\n      staticcall\n      iszero\n      dup1\n      iszero\n      tag_198\n      jumpi\n      returndatasize\n      0x00\n      dup1\n      returndatacopy\n      revert(0x00, returndatasize)\n    tag_198:\n      pop\n      pop\n      pop\n      pop\n      mload(0x40)\n      returndatasize\n      not(0x1f)\n      0x1f\n      dup3\n      add\n      and\n      dup3\n      add\n      dup1\n      0x40\n      mstore\n      pop\n      dup2\n      add\n      swap1\n      tag_199\n      swap2\n      swap1\n      tag_147\n      jump\t// in\n    tag_199:\n        /* \"mercado_de_gotas.sol\":3441:3493  nftContract.ownerOf(listing.nftId) == listing.seller */\n      0xffffffffffffffffffffffffffffffffffffffff\n      and\n      eq\n        /* \"mercado_de_gotas.sol\":3433:3528  require(nftContract.ownerOf(listing.nftId) == listing.seller, \"Seller no longer owns the NFT.\") */\n      tag_200\n      jumpi\n      mload(0x40)\n      0x08c379a000000000000000000000000000000000000000000000000000000000\n      dup2\n      mstore\n      0x04\n      add\n      tag_201\n      swap1\n      tag_202\n      jump\t// in\n    tag_201:\n      mload(0x40)\n      dup1\n      swap2\n      sub\n      swap1\n      revert\n    tag_200:\n        /* \"mercado_de_gotas.sol\":3539:3550  nftContract */\n      dup1\n        /* \"mercado_de_gotas.sol\":3539:3567  nftContract.safeTransferFrom */\n      0xffffffffffffffffffffffffffffffffffffffff\n      and\n      0x42842e0e\n        /* \"mercado_de_gotas.sol\":3568:3575  listing */\n      dup7\n        /* \"mercado_de_gotas.sol\":3568:3582  listing.seller */\n      0x02\n      add\n      0x00\n      swap1\n      sload\n      swap1\n      0x0100\n      exp\n      swap1\n      div\n      0xffffffffffffffffffffffffffffffffffffffff\n      and\n        /* \"mercado_de_gotas.sol\":3584:3594  msg.sender */\n      caller\n        /* \"mercado_de_gotas.sol\":3596:3603  listing */\n      dup9\n        /* \"mercado_de_gotas.sol\":3596:3609  listing.nftId */\n      0x01\n      add\n      sload\n        /* \"mercado_de_gotas.sol\":3539:3610  nftContract.safeTransferFrom(listing.seller, msg.sender, listing.nftId) */\n      mload(0x40)\n      dup5\n      0xffffffff\n      and\n      0xe0\n      shl\n      dup2\n      mstore\n      0x04\n      add\n      tag_203\n      swap4\n      swap3\n      swap2\n      swap1\n      tag_204\n      jump\t// in\n    tag_203:\n      0x00\n      mload(0x40)\n      dup1\n      dup4\n      sub\n      dup2\n      0x00\n      dup8\n      dup1\n      extcodesize\n      iszero\n      dup1\n      iszero\n      tag_205\n      jumpi\n      0x00\n      dup1\n      revert\n    tag_205:\n      pop\n      gas\n      call\n      iszero\n      dup1\n      iszero\n      tag_207\n      jumpi\n      returndatasize\n      0x00\n      dup1\n      returndatacopy\n      revert(0x00, returndatasize)\n    tag_207:\n      pop\n      pop\n      pop\n      pop\n        /* \"mercado_de_gotas.sol\":3629:3636  listing */\n      dup5\n        /* \"mercado_de_gotas.sol\":3629:3643  listing.seller */\n      0x02\n      add\n      0x00\n      swap1\n      sload\n      swap1\n      0x0100\n      exp\n      swap1\n      div\n      0xffffffffffffffffffffffffffffffffffffffff\n      and\n        /* \"mercado_de_gotas.sol\":3621:3653  payable(listing.seller).transfer */\n      0xffffffffffffffffffffffffffffffffffffffff\n      and\n        /* \"mercado_de_gotas.sol\":3621:3667  payable(listing.seller).transfer(sellerAmount) */\n      0x08fc\n        /* \"mercado_de_gotas.sol\":3654:3666  sellerAmount */\n      dup4\n        /* \"mercado_de_gotas.sol\":3621:3667  payable(listing.seller).transfer(sellerAmount) */\n      swap1\n      dup2\n      iszero\n      mul\n      swap1\n      mload(0x40)\n      0x00\n      mload(0x40)\n      dup1\n      dup4\n      sub\n      dup2\n      dup6\n      dup9\n      dup9\n      call\n      swap4\n      pop\n      pop\n      pop\n      pop\n      iszero\n      dup1\n      iszero\n      tag_209\n      jumpi\n      returndatasize\n      0x00\n      dup1\n      returndatacopy\n      revert(0x00, returndatasize)\n    tag_209:\n      pop\n        /* \"mercado_de_gotas.sol\":3685:3699  royaltyAddress */\n      0x06\n      0x00\n      swap1\n      sload\n      swap1\n      0x0100\n      exp\n      swap1\n      div\n      0xffffffffffffffffffffffffffffffffffffffff\n      and\n        /* \"mercado_de_gotas.sol\":3677:3709  payable(royaltyAddress).transfer */\n      0xffffffffffffffffffffffffffffffffffffffff\n      and\n        /* \"mercado_de_gotas.sol\":3677:3724  payable(royaltyAddress).transfer(royaltyAmount) */\n      0x08fc\n        /* \"mercado_de_gotas.sol\":3710:3723  royaltyAmount */\n      dup6\n        /* \"mercado_de_gotas.sol\":3677:3724  payable(royaltyAddress).transfer(royaltyAmount) */\n      swap1\n      dup2\n      iszero\n      mul\n      swap1\n      mload(0x40)\n      0x00\n      mload(0x40)\n      dup1\n      dup4\n      sub\n      dup2\n      dup6\n      dup9\n      dup9\n      call\n      swap4\n      pop\n      pop\n      pop\n      pop\n      iszero\n      dup1\n      iszero\n      tag_211\n      jumpi\n      returndatasize\n      0x00\n      dup1\n      returndatacopy\n      revert(0x00, returndatasize)\n    tag_211:\n      pop\n        /* \"mercado_de_gotas.sol\":3742:3760  platformFeeAddress */\n      0x07\n      0x00\n      swap1\n      sload\n      swap1\n      0x0100\n      exp\n      swap1\n      div\n      0xffffffffffffffffffffffffffffffffffffffff\n      and\n        /* \"mercado_de_gotas.sol\":3734:3770  payable(platformFeeAddress).transfer */\n      0xffffffffffffffffffffffffffffffffffffffff\n      and\n        /* \"mercado_de_gotas.sol\":3734:3783  payable(platformFeeAddress).transfer(platformFee) */\n      0x08fc\n        /* \"mercado_de_gotas.sol\":3771:3782  platformFee */\n      dup5\n        /* \"mercado_de_gotas.sol\":3734:3783  payable(platformFeeAddress).transfer(platformFee) */\n      swap1\n      dup2\n      iszero\n      mul\n      swap1\n      mload(0x40)\n      0x00\n      mload(0x40)\n      dup1\n      dup4\n      sub\n      dup2\n      dup6\n      dup9\n      dup9\n      call\n      swap4\n      pop\n      pop\n      pop\n      pop\n      iszero\n      dup1\n      iszero\n      tag_213\n      jumpi\n      returndatasize\n      0x00\n      dup1\n      returndatacopy\n      revert(0x00, returndatasize)\n    tag_213:\n      pop\n        /* \"mercado_de_gotas.sol\":3835:3845  msg.sender */\n      caller\n        /* \"mercado_de_gotas.sol\":3799:3861  NFTSold(_listingId, listing.seller, msg.sender, listing.price) */\n      0xffffffffffffffffffffffffffffffffffffffff\n      and\n        /* \"mercado_de_gotas.sol\":3819:3826  listing */\n      dup6\n        /* \"mercado_de_gotas.sol\":3819:3833  listing.seller */\n      0x02\n      add\n      0x00\n      swap1\n      sload\n      swap1\n      0x0100\n      exp\n      swap1\n      div\n      0xffffffffffffffffffffffffffffffffffffffff\n      and\n        /* \"mercado_de_gotas.sol\":3799:3861  NFTSold(_listingId, listing.seller, msg.sender, listing.price) */\n      0xffffffffffffffffffffffffffffffffffffffff\n      and\n        /* \"mercado_de_gotas.sol\":3807:3817  _listingId */\n      dup8\n        /* \"mercado_de_gotas.sol\":3799:3861  NFTSold(_listingId, listing.seller, msg.sender, listing.price) */\n      0x8562eb94748e30bb0071e932744ce902b460c683474fcb3bfd567ffa16b1afb2\n        /* \"mercado_de_gotas.sol\":3847:3854  listing */\n      dup9\n        /* \"mercado_de_gotas.sol\":3847:3860  listing.price */\n      0x03\n      add\n      sload\n        /* \"mercado_de_gotas.sol\":3799:3861  NFTSold(_listingId, listing.seller, msg.sender, listing.price) */\n      mload(0x40)\n      tag_214\n      swap2\n      swap1\n      tag_78\n      jump\t// in\n    tag_214:\n      mload(0x40)\n      dup1\n      swap2\n      sub\n      swap1\n      log4\n        /* \"mercado_de_gotas.sol\":3879:3887  listings */\n      0x08\n        /* \"mercado_de_gotas.sol\":3879:3899  listings[_listingId] */\n      0x00\n        /* \"mercado_de_gotas.sol\":3888:3898  _listingId */\n      dup8\n        /* \"mercado_de_gotas.sol\":3879:3899  listings[_listingId] */\n      dup2\n      mstore\n      0x20\n      add\n      swap1\n      dup2\n      mstore\n      0x20\n      add\n      0x00\n      keccak256\n      0x00\n        /* \"mercado_de_gotas.sol\":3872:3899  delete listings[_listingId] */\n      dup1\n      dup3\n      add\n      exp(0x0100, 0x00)\n      dup2\n      sload\n      swap1\n      0xffffffffffffffffffffffffffffffffffffffff\n      mul\n      not\n      and\n      swap1\n      sstore\n      0x01\n      dup3\n      add\n      0x00\n      swap1\n      sstore\n      0x02\n      dup3\n      add\n      exp(0x0100, 0x00)\n      dup2\n      sload\n      swap1\n      0xffffffffffffffffffffffffffffffffffffffff\n      mul\n      not\n      and\n      swap1\n      sstore\n      0x03\n      dup3\n      add\n      0x00\n      swap1\n      sstore\n      0x04\n      dup3\n      add\n      0x00\n      swap1\n      sstore\n      pop\n      pop\n        /* \"mercado_de_gotas.sol\":3916:3929  listingOwners */\n      0x09\n        /* \"mercado_de_gotas.sol\":3916:3941  listingOwners[_listingId] */\n      0x00\n        /* \"mercado_de_gotas.sol\":3930:3940  _listingId */\n      dup8\n        /* \"mercado_de_gotas.sol\":3916:3941  listingOwners[_listingId] */\n      dup2\n      mstore\n      0x20\n      add\n      swap1\n      dup2\n      mstore\n      0x20\n      add\n      0x00\n      keccak256\n      0x00\n        /* \"mercado_de_gotas.sol\":3909:3941  delete listingOwners[_listingId] */\n      0x0100\n      exp\n      dup2\n      sload\n      swap1\n      0xffffffffffffffffffffffffffffffffffffffff\n      mul\n      not\n      and\n      swap1\n      sstore\n        /* \"@openzeppelin/contracts/security/ReentrancyGuard.sol\":2292:2293  _ */\n      pop\n      pop\n      pop\n      pop\n      pop\n        /* \"@openzeppelin/contracts/security/ReentrancyGuard.sol\":2303:2323  _nonReentrantAfter() */\n      tag_215\n        /* \"@openzeppelin/contracts/security/ReentrancyGuard.sol\":2303:2321  _nonReentrantAfter */\n      tag_129\n        /* \"@openzeppelin/contracts/security/ReentrancyGuard.sol\":2303:2323  _nonReentrantAfter() */\n      jump\t// in\n    tag_215:\n        /* \"mercado_de_gotas.sol\":2660:3948  function buyNFT(uint256 _listingId) external payable whenNotPaused nonReentrant {... */\n      pop\n      jump\t// out\n        /* \"@openzeppelin/contracts/security/Pausable.sol\":1615:1699  function paused() public view virtual returns (bool) {... */\n    tag_44:\n        /* \"@openzeppelin/contracts/security/Pausable.sol\":1662:1666  bool */\n      0x00\n        /* \"@openzeppelin/contracts/security/Pausable.sol\":1685:1692  _paused */\n      0x02\n      0x00\n      swap1\n      sload\n      swap1\n      0x0100\n      exp\n      swap1\n      div\n      0xff\n      and\n        /* \"@openzeppelin/contracts/security/Pausable.sol\":1678:1692  return _paused */\n      swap1\n      pop\n        /* \"@openzeppelin/contracts/security/Pausable.sol\":1615:1699  function paused() public view virtual returns (bool) {... */\n      swap1\n      jump\t// out\n        /* \"mercado_de_gotas.sol\":4422:4766  function updateFeeAddresses(address _newRoyaltyAddress, address _newPlatformFeeAddress) external onlyOwner nonReentrant {... */\n    tag_51:\n        /* \"@openzeppelin/contracts/access/Ownable.sol\":1094:1107  _checkOwner() */\n      tag_218\n        /* \"@openzeppelin/contracts/access/Ownable.sol\":1094:1105  _checkOwner */\n      tag_162\n        /* \"@openzeppelin/contracts/access/Ownable.sol\":1094:1107  _checkOwner() */\n      jump\t// in\n    tag_218:\n        /* \"@openzeppelin/contracts/security/ReentrancyGuard.sol\":2261:2282  _nonReentrantBefore() */\n      tag_220\n        /* \"@openzeppelin/contracts/security/ReentrancyGuard.sol\":2261:2280  _nonReentrantBefore */\n      tag_123\n        /* \"@openzeppelin/contracts/security/ReentrancyGuard.sol\":2261:2282  _nonReentrantBefore() */\n      jump\t// in\n    tag_220:\n        /* \"mercado_de_gotas.sol\":4590:4591  0 */\n      0x00\n        /* \"mercado_de_gotas.sol\":4560:4592  _newRoyaltyAddress != address(0) */\n      0xffffffffffffffffffffffffffffffffffffffff\n      and\n        /* \"mercado_de_gotas.sol\":4560:4578  _newRoyaltyAddress */\n      dup3\n        /* \"mercado_de_gotas.sol\":4560:4592  _newRoyaltyAddress != address(0) */\n      0xffffffffffffffffffffffffffffffffffffffff\n      and\n      eq\n      iszero\n        /* \"mercado_de_gotas.sol\":4560:4632  _newRoyaltyAddress != address(0) && _newPlatformFeeAddress != address(0) */\n      dup1\n      iszero\n      tag_222\n      jumpi\n      pop\n        /* \"mercado_de_gotas.sol\":4630:4631  0 */\n      0x00\n        /* \"mercado_de_gotas.sol\":4596:4632  _newPlatformFeeAddress != address(0) */\n      0xffffffffffffffffffffffffffffffffffffffff\n      and\n        /* \"mercado_de_gotas.sol\":4596:4618  _newPlatformFeeAddress */\n      dup2\n        /* \"mercado_de_gotas.sol\":4596:4632  _newPlatformFeeAddress != address(0) */\n      0xffffffffffffffffffffffffffffffffffffffff\n      and\n      eq\n      iszero\n        /* \"mercado_de_gotas.sol\":4560:4632  _newRoyaltyAddress != address(0) && _newPlatformFeeAddress != address(0) */\n    tag_222:\n        /* \"mercado_de_gotas.sol\":4552:4661  require(_newRoyaltyAddress != address(0) && _newPlatformFeeAddress != address(0), \"Addresses cannot be zero\") */\n      tag_223\n      jumpi\n      mload(0x40)\n      0x08c379a000000000000000000000000000000000000000000000000000000000\n      dup2\n      mstore\n      0x04\n      add\n      tag_224\n      swap1\n      tag_225\n      jump\t// in\n    tag_224:\n      mload(0x40)\n      dup1\n      swap2\n      sub\n      swap1\n      revert\n    tag_223:\n        /* \"mercado_de_gotas.sol\":4688:4706  _newRoyaltyAddress */\n      dup2\n        /* \"mercado_de_gotas.sol\":4671:4685  royaltyAddress */\n      0x06\n      0x00\n        /* \"mercado_de_gotas.sol\":4671:4706  royaltyAddress = _newRoyaltyAddress */\n      0x0100\n      exp\n      dup2\n      sload\n      dup2\n      0xffffffffffffffffffffffffffffffffffffffff\n      mul\n      not\n      and\n      swap1\n      dup4\n      0xffffffffffffffffffffffffffffffffffffffff\n      and\n      mul\n      or\n      swap1\n      sstore\n      pop\n        /* \"mercado_de_gotas.sol\":4737:4759  _newPlatformFeeAddress */\n      dup1\n        /* \"mercado_de_gotas.sol\":4716:4734  platformFeeAddress */\n      0x07\n      0x00\n        /* \"mercado_de_gotas.sol\":4716:4759  platformFeeAddress = _newPlatformFeeAddress */\n      0x0100\n      exp\n      dup2\n      sload\n      dup2\n      0xffffffffffffffffffffffffffffffffffffffff\n      mul\n      not\n      and\n      swap1\n      dup4\n      0xffffffffffffffffffffffffffffffffffffffff\n      and\n      mul\n      or\n      swap1\n      sstore\n      pop\n        /* \"@openzeppelin/contracts/security/ReentrancyGuard.sol\":2303:2323  _nonReentrantAfter() */\n      tag_226\n        /* \"@openzeppelin/contracts/security/ReentrancyGuard.sol\":2303:2321  _nonReentrantAfter */\n      tag_129\n        /* \"@openzeppelin/contracts/security/ReentrancyGuard.sol\":2303:2323  _nonReentrantAfter() */\n      jump\t// in\n    tag_226:\n        /* \"mercado_de_gotas.sol\":4422:4766  function updateFeeAddresses(address _newRoyaltyAddress, address _newPlatformFeeAddress) external onlyOwner nonReentrant {... */\n      pop\n      pop\n      jump\t// out\n        /* \"@openzeppelin/contracts/access/Ownable.sol\":1824:1925  function renounceOwnership() public virtual onlyOwner {... */\n    tag_54:\n        /* \"@openzeppelin/contracts/access/Ownable.sol\":1094:1107  _checkOwner() */\n      tag_228\n        /* \"@openzeppelin/contracts/access/Ownable.sol\":1094:1105  _checkOwner */\n      tag_162\n        /* \"@openzeppelin/contracts/access/Ownable.sol\":1094:1107  _checkOwner() */\n      jump\t// in\n    tag_228:\n        /* \"@openzeppelin/contracts/access/Ownable.sol\":1888:1918  _transferOwnership(address(0)) */\n      tag_230\n        /* \"@openzeppelin/contracts/access/Ownable.sol\":1915:1916  0 */\n      0x00\n        /* \"@openzeppelin/contracts/access/Ownable.sol\":1888:1906  _transferOwnership */\n      tag_231\n        /* \"@openzeppelin/contracts/access/Ownable.sol\":1888:1918  _transferOwnership(address(0)) */\n      jump\t// in\n    tag_230:\n        /* \"@openzeppelin/contracts/access/Ownable.sol\":1824:1925  function renounceOwnership() public virtual onlyOwner {... */\n      jump\t// out\n        /* \"mercado_de_gotas.sol\":4772:5017  function updateFeePercentages(uint256 _newRoyaltyPercentage, uint256 _newPlatformFeePercentage) external onlyOwner nonReentrant {... */\n    tag_59:\n        /* \"@openzeppelin/contracts/access/Ownable.sol\":1094:1107  _checkOwner() */\n      tag_233\n        /* \"@openzeppelin/contracts/access/Ownable.sol\":1094:1105  _checkOwner */\n      tag_162\n        /* \"@openzeppelin/contracts/access/Ownable.sol\":1094:1107  _checkOwner() */\n      jump\t// in\n    tag_233:\n        /* \"@openzeppelin/contracts/security/ReentrancyGuard.sol\":2261:2282  _nonReentrantBefore() */\n      tag_235\n        /* \"@openzeppelin/contracts/security/ReentrancyGuard.sol\":2261:2280  _nonReentrantBefore */\n      tag_123\n        /* \"@openzeppelin/contracts/security/ReentrancyGuard.sol\":2261:2282  _nonReentrantBefore() */\n      jump\t// in\n    tag_235:\n        /* \"mercado_de_gotas.sol\":4930:4951  _newRoyaltyPercentage */\n      dup2\n        /* \"mercado_de_gotas.sol\":4910:4927  royaltyPercentage */\n      0x04\n        /* \"mercado_de_gotas.sol\":4910:4951  royaltyPercentage = _newRoyaltyPercentage */\n      dup2\n      swap1\n      sstore\n      pop\n        /* \"mercado_de_gotas.sol\":4985:5010  _newPlatformFeePercentage */\n      dup1\n        /* \"mercado_de_gotas.sol\":4961:4982  platformFeePercentage */\n      0x05\n        /* \"mercado_de_gotas.sol\":4961:5010  platformFeePercentage = _newPlatformFeePercentage */\n      dup2\n      swap1\n      sstore\n      pop\n        /* \"@openzeppelin/contracts/security/ReentrancyGuard.sol\":2303:2323  _nonReentrantAfter() */\n      tag_237\n        /* \"@openzeppelin/contracts/security/ReentrancyGuard.sol\":2303:2321  _nonReentrantAfter */\n      tag_129\n        /* \"@openzeppelin/contracts/security/ReentrancyGuard.sol\":2303:2323  _nonReentrantAfter() */\n      jump\t// in\n    tag_237:\n        /* \"mercado_de_gotas.sol\":4772:5017  function updateFeePercentages(uint256 _newRoyaltyPercentage, uint256 _newPlatformFeePercentage) external onlyOwner nonReentrant {... */\n      pop\n      pop\n      jump\t// out\n        /* \"mercado_de_gotas.sol\":883:931  mapping(uint256 => address) public listingOwners */\n    tag_63:\n      mstore(0x20, 0x09)\n      dup1\n      0x00\n      mstore\n      keccak256(0x00, 0x40)\n      0x00\n      swap2\n      pop\n      sload\n      swap1\n      0x0100\n      exp\n      swap1\n      div\n      0xffffffffffffffffffffffffffffffffffffffff\n      and\n      dup2\n      jump\t// out\n        /* \"mercado_de_gotas.sol\":4258:4332  function pause() external onlyOwner nonReentrant {... */\n    tag_68:\n        /* \"@openzeppelin/contracts/access/Ownable.sol\":1094:1107  _checkOwner() */\n      tag_239\n        /* \"@openzeppelin/contracts/access/Ownable.sol\":1094:1105  _checkOwner */\n      tag_162\n        /* \"@openzeppelin/contracts/access/Ownable.sol\":1094:1107  _checkOwner() */\n      jump\t// in\n    tag_239:\n        /* \"@openzeppelin/contracts/security/ReentrancyGuard.sol\":2261:2282  _nonReentrantBefore() */\n      tag_241\n        /* \"@openzeppelin/contracts/security/ReentrancyGuard.sol\":2261:2280  _nonReentrantBefore */\n      tag_123\n        /* \"@openzeppelin/contracts/security/ReentrancyGuard.sol\":2261:2282  _nonReentrantBefore() */\n      jump\t// in\n    tag_241:\n        /* \"mercado_de_gotas.sol\":4317:4325  _pause() */\n      tag_243\n        /* \"mercado_de_gotas.sol\":4317:4323  _pause */\n      tag_244\n        /* \"mercado_de_gotas.sol\":4317:4325  _pause() */\n      jump\t// in\n    tag_243:\n        /* \"@openzeppelin/contracts/security/ReentrancyGuard.sol\":2303:2323  _nonReentrantAfter() */\n      tag_245\n        /* \"@openzeppelin/contracts/security/ReentrancyGuard.sol\":2303:2321  _nonReentrantAfter */\n      tag_129\n        /* \"@openzeppelin/contracts/security/ReentrancyGuard.sol\":2303:2323  _nonReentrantAfter() */\n      jump\t// in\n    tag_245:\n        /* \"mercado_de_gotas.sol\":4258:4332  function pause() external onlyOwner nonReentrant {... */\n      jump\t// out\n        /* \"mercado_de_gotas.sol\":5023:5132  function getAllListingIds() external view returns (uint256[] memory) {... */\n    tag_71:\n        /* \"mercado_de_gotas.sol\":5074:5090  uint256[] memory */\n      0x60\n        /* \"mercado_de_gotas.sol\":5109:5125  activeListingIds */\n      0x03\n        /* \"mercado_de_gotas.sol\":5102:5125  return activeListingIds */\n      dup1\n      sload\n      dup1\n      0x20\n      mul\n      0x20\n      add\n      mload(0x40)\n      swap1\n      dup2\n      add\n      0x40\n      mstore\n      dup1\n      swap3\n      swap2\n      swap1\n      dup2\n      dup2\n      mstore\n      0x20\n      add\n      dup3\n      dup1\n      sload\n      dup1\n      iszero\n      tag_247\n      jumpi\n      0x20\n      mul\n      dup3\n      add\n      swap2\n      swap1\n      0x00\n      mstore\n      keccak256(0x00, 0x20)\n      swap1\n    tag_248:\n      dup2\n      sload\n      dup2\n      mstore\n      0x20\n      add\n      swap1\n      0x01\n      add\n      swap1\n      dup1\n      dup4\n      gt\n      tag_248\n      jumpi\n    tag_247:\n      pop\n      pop\n      pop\n      pop\n      pop\n      swap1\n      pop\n        /* \"mercado_de_gotas.sol\":5023:5132  function getAllListingIds() external view returns (uint256[] memory) {... */\n      swap1\n      jump\t// out\n        /* \"mercado_de_gotas.sol\":678:710  uint256 public royaltyPercentage */\n    tag_76:\n      sload(0x04)\n      dup2\n      jump\t// out\n        /* \"@openzeppelin/contracts/access/Ownable.sol\":1201:1286  function owner() public view virtual returns (address) {... */\n    tag_81:\n        /* \"@openzeppelin/contracts/access/Ownable.sol\":1247:1254  address */\n      0x00\n        /* \"@openzeppelin/contracts/access/Ownable.sol\":1273:1279  _owner */\n      dup1\n      0x00\n      swap1\n      sload\n      swap1\n      0x0100\n      exp\n      swap1\n      div\n      0xffffffffffffffffffffffffffffffffffffffff\n      and\n        /* \"@openzeppelin/contracts/access/Ownable.sol\":1266:1279  return _owner */\n      swap1\n      pop\n        /* \"@openzeppelin/contracts/access/Ownable.sol\":1201:1286  function owner() public view virtual returns (address) {... */\n      swap1\n      jump\t// out\n        /* \"mercado_de_gotas.sol\":938:970  uint256 public nextListingId = 1 */\n    tag_85:\n      sload(0x0a)\n      dup2\n      jump\t// out\n        /* \"mercado_de_gotas.sol\":759:788  address public royaltyAddress */\n    tag_89:\n      0x06\n      0x00\n      swap1\n      sload\n      swap1\n      0x0100\n      exp\n      swap1\n      div\n      0xffffffffffffffffffffffffffffffffffffffff\n      and\n      dup2\n      jump\t// out\n        /* \"mercado_de_gotas.sol\":5138:5671  function getListingInfo(uint256 _listingId) external view returns (uint256, uint256, string memory) {... */\n    tag_94:\n        /* \"mercado_de_gotas.sol\":5205:5212  uint256 */\n      0x00\n        /* \"mercado_de_gotas.sol\":5214:5221  uint256 */\n      dup1\n        /* \"mercado_de_gotas.sol\":5223:5236  string memory */\n      0x60\n        /* \"mercado_de_gotas.sol\":5248:5271  Listing storage listing */\n      0x00\n        /* \"mercado_de_gotas.sol\":5274:5282  listings */\n      0x08\n        /* \"mercado_de_gotas.sol\":5274:5294  listings[_listingId] */\n      0x00\n        /* \"mercado_de_gotas.sol\":5283:5293  _listingId */\n      dup7\n        /* \"mercado_de_gotas.sol\":5274:5294  listings[_listingId] */\n      dup2\n      mstore\n      0x20\n      add\n      swap1\n      dup2\n      mstore\n      0x20\n      add\n      0x00\n      keccak256\n        /* \"mercado_de_gotas.sol\":5248:5294  Listing storage listing = listings[_listingId] */\n      swap1\n      pop\n        /* \"mercado_de_gotas.sol\":5338:5339  0 */\n      0x00\n        /* \"mercado_de_gotas.sol\":5312:5340  listing.seller != address(0) */\n      0xffffffffffffffffffffffffffffffffffffffff\n      and\n        /* \"mercado_de_gotas.sol\":5312:5319  listing */\n      dup2\n        /* \"mercado_de_gotas.sol\":5312:5326  listing.seller */\n      0x02\n      add\n      0x00\n      swap1\n      sload\n      swap1\n      0x0100\n      exp\n      swap1\n      div\n      0xffffffffffffffffffffffffffffffffffffffff\n      and\n        /* \"mercado_de_gotas.sol\":5312:5340  listing.seller != address(0) */\n      0xffffffffffffffffffffffffffffffffffffffff\n      and\n      eq\n      iszero\n        /* \"mercado_de_gotas.sol\":5304:5368  require(listing.seller != address(0), \"Listing does not exist.\") */\n      tag_251\n      jumpi\n      mload(0x40)\n      0x08c379a000000000000000000000000000000000000000000000000000000000\n      dup2\n      mstore\n      0x04\n      add\n      tag_252\n      swap1\n      tag_179\n      jump\t// in\n    tag_252:\n      mload(0x40)\n      dup1\n      swap2\n      sub\n      swap1\n      revert\n    tag_251:\n        /* \"mercado_de_gotas.sol\":5379:5410  string memory tokenMetadataLink */\n      0x00\n        /* \"mercado_de_gotas.sol\":5379:5415  string memory tokenMetadataLink = \"\" */\n      mload(0x40)\n      dup1\n      0x20\n      add\n      0x40\n      mstore\n      dup1\n      0x00\n      dup2\n      mstore\n      pop\n      swap1\n      pop\n        /* \"mercado_de_gotas.sol\":5446:5453  listing */\n      dup2\n        /* \"mercado_de_gotas.sol\":5446:5472  listing.nftContractAddress */\n      0x00\n      add\n      0x00\n      swap1\n      sload\n      swap1\n      0x0100\n      exp\n      swap1\n      div\n      0xffffffffffffffffffffffffffffffffffffffff\n      and\n        /* \"mercado_de_gotas.sol\":5430:5482  IERC721Metadata(listing.nftContractAddress).tokenURI */\n      0xffffffffffffffffffffffffffffffffffffffff\n      and\n      0xc87b56dd\n        /* \"mercado_de_gotas.sol\":5483:5490  listing */\n      dup4\n        /* \"mercado_de_gotas.sol\":5483:5496  listing.nftId */\n      0x01\n      add\n      sload\n        /* \"mercado_de_gotas.sol\":5430:5497  IERC721Metadata(listing.nftContractAddress).tokenURI(listing.nftId) */\n      mload(0x40)\n      dup3\n      0xffffffff\n      and\n      0xe0\n      shl\n      dup2\n      mstore\n      0x04\n      add\n      tag_253\n      swap2\n      swap1\n      tag_78\n      jump\t// in\n    tag_253:\n      0x00\n      mload(0x40)\n      dup1\n      dup4\n      sub\n      dup2\n      dup7\n      dup1\n      extcodesize\n      iszero\n      dup1\n      iszero\n      tag_254\n      jumpi\n      0x00\n      dup1\n      revert\n    tag_254:\n      pop\n      gas\n      staticcall\n      swap3\n      pop\n      pop\n      pop\n      dup1\n      iszero\n      tag_255\n      jumpi\n      pop\n      mload(0x40)\n      returndatasize\n      0x00\n      dup3\n      returndatacopy\n      returndatasize\n      not(0x1f)\n      0x1f\n      dup3\n      add\n      and\n      dup3\n      add\n      dup1\n      0x40\n      mstore\n      pop\n      dup2\n      add\n      swap1\n      tag_256\n      swap2\n      swap1\n      tag_257\n      jump\t// in\n    tag_256:\n      0x01\n    tag_255:\n        /* \"mercado_de_gotas.sol\":5426:5601  try IERC721Metadata(listing.nftContractAddress).tokenURI(listing.nftId) returns (string memory metadataLink) {... */\n      tag_258\n      jumpi\n      jump(tag_261)\n    tag_258:\n        /* \"mercado_de_gotas.sol\":5569:5581  metadataLink */\n      dup1\n        /* \"mercado_de_gotas.sol\":5549:5581  tokenMetadataLink = metadataLink */\n      swap2\n      pop\n        /* \"mercado_de_gotas.sol\":5498:5592  returns (string memory metadataLink) {... */\n      pop\n        /* \"mercado_de_gotas.sol\":5426:5601  try IERC721Metadata(listing.nftContractAddress).tokenURI(listing.nftId) returns (string memory metadataLink) {... */\n    tag_261:\n        /* \"mercado_de_gotas.sol\":5619:5629  _listingId */\n      dup6\n        /* \"mercado_de_gotas.sol\":5631:5638  listing */\n      dup3\n        /* \"mercado_de_gotas.sol\":5631:5644  listing.nftId */\n      0x01\n      add\n      sload\n        /* \"mercado_de_gotas.sol\":5646:5663  tokenMetadataLink */\n      dup3\n        /* \"mercado_de_gotas.sol\":5611:5664  return (_listingId, listing.nftId, tokenMetadataLink) */\n      swap5\n      pop\n      swap5\n      pop\n      swap5\n      pop\n      pop\n      pop\n        /* \"mercado_de_gotas.sol\":5138:5671  function getListingInfo(uint256 _listingId) external view returns (uint256, uint256, string memory) {... */\n      swap2\n      swap4\n      swap1\n      swap3\n      pop\n      jump\t// out\n        /* \"mercado_de_gotas.sol\":716:752  uint256 public platformFeePercentage */\n    tag_99:\n      sload(0x05)\n      dup2\n      jump\t// out\n        /* \"mercado_de_gotas.sol\":834:877  mapping(uint256 => Listing) public listings */\n    tag_104:\n      mstore(0x20, 0x08)\n      dup1\n      0x00\n      mstore\n      keccak256(0x00, 0x40)\n      0x00\n      swap2\n      pop\n      swap1\n      pop\n      dup1\n      0x00\n      add\n      0x00\n      swap1\n      sload\n      swap1\n      0x0100\n      exp\n      swap1\n      div\n      0xffffffffffffffffffffffffffffffffffffffff\n      and\n      swap1\n      dup1\n      0x01\n      add\n      sload\n      swap1\n      dup1\n      0x02\n      add\n      0x00\n      swap1\n      sload\n      swap1\n      0x0100\n      exp\n      swap1\n      div\n      0xffffffffffffffffffffffffffffffffffffffff\n      and\n      swap1\n      dup1\n      0x03\n      add\n      sload\n      swap1\n      dup1\n      0x04\n      add\n      sload\n      swap1\n      pop\n      dup6\n      jump\t// out\n        /* \"mercado_de_gotas.sol\":639:672  uint256[] public activeListingIds */\n    tag_110:\n      0x03\n      dup2\n      dup2\n      sload\n      dup2\n      lt\n      tag_262\n      jumpi\n      0x00\n      dup1\n      revert\n    tag_262:\n      swap1\n      0x00\n      mstore\n      keccak256(0x00, 0x20)\n      add\n      0x00\n      swap2\n      pop\n      swap1\n      pop\n      sload\n      dup2\n      jump\t// out\n        /* \"mercado_de_gotas.sol\":794:827  address public platformFeeAddress */\n    tag_114:\n      0x07\n      0x00\n      swap1\n      sload\n      swap1\n      0x0100\n      exp\n      swap1\n      div\n      0xffffffffffffffffffffffffffffffffffffffff\n      and\n      dup2\n      jump\t// out\n        /* \"@openzeppelin/contracts/access/Ownable.sol\":2074:2272  function transferOwnership(address newOwner) public virtual onlyOwner {... */\n    tag_120:\n        /* \"@openzeppelin/contracts/access/Ownable.sol\":1094:1107  _checkOwner() */\n      tag_265\n        /* \"@openzeppelin/contracts/access/Ownable.sol\":1094:1105  _checkOwner */\n      tag_162\n        /* \"@openzeppelin/contracts/access/Ownable.sol\":1094:1107  _checkOwner() */\n      jump\t// in\n    tag_265:\n        /* \"@openzeppelin/contracts/access/Ownable.sol\":2182:2183  0 */\n      0x00\n        /* \"@openzeppelin/contracts/access/Ownable.sol\":2162:2184  newOwner != address(0) */\n      0xffffffffffffffffffffffffffffffffffffffff\n      and\n        /* \"@openzeppelin/contracts/access/Ownable.sol\":2162:2170  newOwner */\n      dup2\n        /* \"@openzeppelin/contracts/access/Ownable.sol\":2162:2184  newOwner != address(0) */\n      0xffffffffffffffffffffffffffffffffffffffff\n      and\n      eq\n      iszero\n        /* \"@openzeppelin/contracts/access/Ownable.sol\":2154:2227  require(newOwner != address(0), \"Ownable: new owner is the zero address\") */\n      tag_267\n      jumpi\n      mload(0x40)\n      0x08c379a000000000000000000000000000000000000000000000000000000000\n      dup2\n      mstore\n      0x04\n      add\n      tag_268\n      swap1\n      tag_269\n      jump\t// in\n    tag_268:\n      mload(0x40)\n      dup1\n      swap2\n      sub\n      swap1\n      revert\n    tag_267:\n        /* \"@openzeppelin/contracts/access/Ownable.sol\":2237:2265  _transferOwnership(newOwner) */\n      tag_270\n        /* \"@openzeppelin/contracts/access/Ownable.sol\":2256:2264  newOwner */\n      dup2\n        /* \"@openzeppelin/contracts/access/Ownable.sol\":2237:2255  _transferOwnership */\n      tag_231\n        /* \"@openzeppelin/contracts/access/Ownable.sol\":2237:2265  _transferOwnership(newOwner) */\n      jump\t// in\n    tag_270:\n        /* \"@openzeppelin/contracts/access/Ownable.sol\":2074:2272  function transferOwnership(address newOwner) public virtual onlyOwner {... */\n      pop\n      jump\t// out\n        /* \"@openzeppelin/contracts/security/ReentrancyGuard.sol\":2336:2623  function _nonReentrantBefore() private {... */\n    tag_123:\n        /* \"@openzeppelin/contracts/security/ReentrancyGuard.sol\":1759:1760  2 */\n      0x02\n        /* \"@openzeppelin/contracts/security/ReentrancyGuard.sol\":2468:2475  _status */\n      sload(0x01)\n        /* \"@openzeppelin/contracts/security/ReentrancyGuard.sol\":2468:2487  _status != _ENTERED */\n      eq\n      iszero\n        /* \"@openzeppelin/contracts/security/ReentrancyGuard.sol\":2460:2523  require(_status != _ENTERED, \"ReentrancyGuard: reentrant call\") */\n      tag_272\n      jumpi\n      mload(0x40)\n      0x08c379a000000000000000000000000000000000000000000000000000000000\n      dup2\n      mstore\n      0x04\n      add\n      tag_273\n      swap1\n      tag_274\n      jump\t// in\n    tag_273:\n      mload(0x40)\n      dup1\n      swap2\n      sub\n      swap1\n      revert\n    tag_272:\n        /* \"@openzeppelin/contracts/security/ReentrancyGuard.sol\":1759:1760  2 */\n      0x02\n        /* \"@openzeppelin/contracts/security/ReentrancyGuard.sol\":2598:2605  _status */\n      0x01\n        /* \"@openzeppelin/contracts/security/ReentrancyGuard.sol\":2598:2616  _status = _ENTERED */\n      dup2\n      swap1\n      sstore\n      pop\n        /* \"@openzeppelin/contracts/security/ReentrancyGuard.sol\":2336:2623  function _nonReentrantBefore() private {... */\n      jump\t// out\n        /* \"@openzeppelin/contracts/security/ReentrancyGuard.sol\":2629:2838  function _nonReentrantAfter() private {... */\n    tag_129:\n        /* \"@openzeppelin/contracts/security/ReentrancyGuard.sol\":1716:1717  1 */\n      0x01\n        /* \"@openzeppelin/contracts/security/ReentrancyGuard.sol\":2809:2816  _status */\n      dup1\n        /* \"@openzeppelin/contracts/security/ReentrancyGuard.sol\":2809:2831  _status = _NOT_ENTERED */\n      dup2\n      swap1\n      sstore\n      pop\n        /* \"@openzeppelin/contracts/security/ReentrancyGuard.sol\":2629:2838  function _nonReentrantAfter() private {... */\n      jump\t// out\n        /* \"@openzeppelin/contracts/security/Pausable.sol\":1767:1873  function _requireNotPaused() internal view virtual {... */\n    tag_132:\n        /* \"@openzeppelin/contracts/security/Pausable.sol\":1837:1845  paused() */\n      tag_277\n        /* \"@openzeppelin/contracts/security/Pausable.sol\":1837:1843  paused */\n      tag_44\n        /* \"@openzeppelin/contracts/security/Pausable.sol\":1837:1845  paused() */\n      jump\t// in\n    tag_277:\n        /* \"@openzeppelin/contracts/security/Pausable.sol\":1836:1845  !paused() */\n      iszero\n        /* \"@openzeppelin/contracts/security/Pausable.sol\":1828:1866  require(!paused(), \"Pausable: paused\") */\n      tag_278\n      jumpi\n      mload(0x40)\n      0x08c379a000000000000000000000000000000000000000000000000000000000\n      dup2\n      mstore\n      0x04\n      add\n      tag_279\n      swap1\n      tag_280\n      jump\t// in\n    tag_279:\n      mload(0x40)\n      dup1\n      swap2\n      sub\n      swap1\n      revert\n    tag_278:\n        /* \"@openzeppelin/contracts/security/Pausable.sol\":1767:1873  function _requireNotPaused() internal view virtual {... */\n      jump\t// out\n        /* \"@openzeppelin/contracts/access/Ownable.sol\":1359:1489  function _checkOwner() internal view virtual {... */\n    tag_162:\n        /* \"@openzeppelin/contracts/access/Ownable.sol\":1433:1445  _msgSender() */\n      tag_282\n        /* \"@openzeppelin/contracts/access/Ownable.sol\":1433:1443  _msgSender */\n      tag_283\n        /* \"@openzeppelin/contracts/access/Ownable.sol\":1433:1445  _msgSender() */\n      jump\t// in\n    tag_282:\n        /* \"@openzeppelin/contracts/access/Ownable.sol\":1422:1445  owner() == _msgSender() */\n      0xffffffffffffffffffffffffffffffffffffffff\n      and\n        /* \"@openzeppelin/contracts/access/Ownable.sol\":1422:1429  owner() */\n      tag_284\n        /* \"@openzeppelin/contracts/access/Ownable.sol\":1422:1427  owner */\n      tag_81\n        /* \"@openzeppelin/contracts/access/Ownable.sol\":1422:1429  owner() */\n      jump\t// in\n    tag_284:\n        /* \"@openzeppelin/contracts/access/Ownable.sol\":1422:1445  owner() == _msgSender() */\n      0xffffffffffffffffffffffffffffffffffffffff\n      and\n      eq\n        /* \"@openzeppelin/contracts/access/Ownable.sol\":1414:1482  require(owner() == _msgSender(), \"Ownable: caller is not the owner\") */\n      tag_285\n      jumpi\n      mload(0x40)\n      0x08c379a000000000000000000000000000000000000000000000000000000000\n      dup2\n      mstore\n      0x04\n      add\n      tag_286\n      swap1\n      tag_287\n      jump\t// in\n    tag_286:\n      mload(0x40)\n      dup1\n      swap2\n      sub\n      swap1\n      revert\n    tag_285:\n        /* \"@openzeppelin/contracts/access/Ownable.sol\":1359:1489  function _checkOwner() internal view virtual {... */\n      jump\t// out\n        /* \"@openzeppelin/contracts/security/Pausable.sol\":2433:2550  function _unpause() internal virtual whenPaused {... */\n    tag_167:\n        /* \"@openzeppelin/contracts/security/Pausable.sol\":1486:1502  _requirePaused() */\n      tag_289\n        /* \"@openzeppelin/contracts/security/Pausable.sol\":1486:1500  _requirePaused */\n      tag_290\n        /* \"@openzeppelin/contracts/security/Pausable.sol\":1486:1502  _requirePaused() */\n      jump\t// in\n    tag_289:\n        /* \"@openzeppelin/contracts/security/Pausable.sol\":2501:2506  false */\n      0x00\n        /* \"@openzeppelin/contracts/security/Pausable.sol\":2491:2498  _paused */\n      0x02\n      0x00\n        /* \"@openzeppelin/contracts/security/Pausable.sol\":2491:2506  _paused = false */\n      0x0100\n      exp\n      dup2\n      sload\n      dup2\n      0xff\n      mul\n      not\n      and\n      swap1\n      dup4\n      iszero\n      iszero\n      mul\n      or\n      swap1\n      sstore\n      pop\n        /* \"@openzeppelin/contracts/security/Pausable.sol\":2521:2543  Unpaused(_msgSender()) */\n      0x5db9ee0a495bf2e6ff9c91a7834c1ba4fdd244a5e8aa4e537bd38aeae4b073aa\n        /* \"@openzeppelin/contracts/security/Pausable.sol\":2530:2542  _msgSender() */\n      tag_292\n        /* \"@openzeppelin/contracts/security/Pausable.sol\":2530:2540  _msgSender */\n      tag_283\n        /* \"@openzeppelin/contracts/security/Pausable.sol\":2530:2542  _msgSender() */\n      jump\t// in\n    tag_292:\n        /* \"@openzeppelin/contracts/security/Pausable.sol\":2521:2543  Unpaused(_msgSender()) */\n      mload(0x40)\n      tag_293\n      swap2\n      swap1\n      tag_65\n      jump\t// in\n    tag_293:\n      mload(0x40)\n      dup1\n      swap2\n      sub\n      swap1\n      log1\n        /* \"@openzeppelin/contracts/security/Pausable.sol\":2433:2550  function _unpause() internal virtual whenPaused {... */\n      jump\t// out\n        /* \"@openzeppelin/contracts/access/Ownable.sol\":2426:2613  function _transferOwnership(address newOwner) internal virtual {... */\n    tag_231:\n        /* \"@openzeppelin/contracts/access/Ownable.sol\":2499:2515  address oldOwner */\n      0x00\n        /* \"@openzeppelin/contracts/access/Ownable.sol\":2518:2524  _owner */\n      dup1\n      0x00\n      swap1\n      sload\n      swap1\n      0x0100\n      exp\n      swap1\n      div\n      0xffffffffffffffffffffffffffffffffffffffff\n      and\n        /* \"@openzeppelin/contracts/access/Ownable.sol\":2499:2524  address oldOwner = _owner */\n      swap1\n      pop\n        /* \"@openzeppelin/contracts/access/Ownable.sol\":2543:2551  newOwner */\n      dup2\n        /* \"@openzeppelin/contracts/access/Ownable.sol\":2534:2540  _owner */\n      0x00\n      dup1\n        /* \"@openzeppelin/contracts/access/Ownable.sol\":2534:2551  _owner = newOwner */\n      0x0100\n      exp\n      dup2\n      sload\n      dup2\n      0xffffffffffffffffffffffffffffffffffffffff\n      mul\n      not\n      and\n      swap1\n      dup4\n      0xffffffffffffffffffffffffffffffffffffffff\n      and\n      mul\n      or\n      swap1\n      sstore\n      pop\n        /* \"@openzeppelin/contracts/access/Ownable.sol\":2597:2605  newOwner */\n      dup2\n        /* \"@openzeppelin/contracts/access/Ownable.sol\":2566:2606  OwnershipTransferred(oldOwner, newOwner) */\n      0xffffffffffffffffffffffffffffffffffffffff\n      and\n        /* \"@openzeppelin/contracts/access/Ownable.sol\":2587:2595  oldOwner */\n      dup2\n        /* \"@openzeppelin/contracts/access/Ownable.sol\":2566:2606  OwnershipTransferred(oldOwner, newOwner) */\n      0xffffffffffffffffffffffffffffffffffffffff\n      and\n      0x8be0079c531659141344cd1fd0a4f28419497f9722a3daafe3b4186f6b6457e0\n      mload(0x40)\n      mload(0x40)\n      dup1\n      swap2\n      sub\n      swap1\n      log3\n        /* \"@openzeppelin/contracts/access/Ownable.sol\":2426:2613  function _transferOwnership(address newOwner) internal virtual {... */\n      pop\n      pop\n      jump\t// out\n        /* \"@openzeppelin/contracts/security/Pausable.sol\":2186:2301  function _pause() internal virtual whenNotPaused {... */\n    tag_244:\n        /* \"@openzeppelin/contracts/security/Pausable.sol\":1239:1258  _requireNotPaused() */\n      tag_296\n        /* \"@openzeppelin/contracts/security/Pausable.sol\":1239:1256  _requireNotPaused */\n      tag_132\n        /* \"@openzeppelin/contracts/security/Pausable.sol\":1239:1258  _requireNotPaused() */\n      jump\t// in\n    tag_296:\n        /* \"@openzeppelin/contracts/security/Pausable.sol\":2255:2259  true */\n      0x01\n        /* \"@openzeppelin/contracts/security/Pausable.sol\":2245:2252  _paused */\n      0x02\n      0x00\n        /* \"@openzeppelin/contracts/security/Pausable.sol\":2245:2259  _paused = true */\n      0x0100\n      exp\n      dup2\n      sload\n      dup2\n      0xff\n      mul\n      not\n      and\n      swap1\n      dup4\n      iszero\n      iszero\n      mul\n      or\n      swap1\n      sstore\n      pop\n        /* \"@openzeppelin/contracts/security/Pausable.sol\":2274:2294  Paused(_msgSender()) */\n      0x62e78cea01bee320cd4e420270b5ea74000d11b0c9f74754ebdbfc544b05a258\n        /* \"@openzeppelin/contracts/security/Pausable.sol\":2281:2293  _msgSender() */\n      tag_298\n        /* \"@openzeppelin/contracts/security/Pausable.sol\":2281:2291  _msgSender */\n      tag_283\n        /* \"@openzeppelin/contracts/security/Pausable.sol\":2281:2293  _msgSender() */\n      jump\t// in\n    tag_298:\n        /* \"@openzeppelin/contracts/security/Pausable.sol\":2274:2294  Paused(_msgSender()) */\n      mload(0x40)\n      tag_299\n      swap2\n      swap1\n      tag_65\n      jump\t// in\n    tag_299:\n      mload(0x40)\n      dup1\n      swap2\n      sub\n      swap1\n      log1\n        /* \"@openzeppelin/contracts/security/Pausable.sol\":2186:2301  function _pause() internal virtual whenNotPaused {... */\n      jump\t// out\n        /* \"@openzeppelin/contracts/utils/Context.sol\":640:736  function _msgSender() internal view virtual returns (address) {... */\n    tag_283:\n        /* \"@openzeppelin/contracts/utils/Context.sol\":693:700  address */\n      0x00\n        /* \"@openzeppelin/contracts/utils/Context.sol\":719:729  msg.sender */\n      caller\n        /* \"@openzeppelin/contracts/utils/Context.sol\":712:729  return msg.sender */\n      swap1\n      pop\n        /* \"@openzeppelin/contracts/utils/Context.sol\":640:736  function _msgSender() internal view virtual returns (address) {... */\n      swap1\n      jump\t// out\n        /* \"@openzeppelin/contracts/security/Pausable.sol\":1945:2051  function _requirePaused() internal view virtual {... */\n    tag_290:\n        /* \"@openzeppelin/contracts/security/Pausable.sol\":2011:2019  paused() */\n      tag_302\n        /* \"@openzeppelin/contracts/security/Pausable.sol\":2011:2017  paused */\n      tag_44\n        /* \"@openzeppelin/contracts/security/Pausable.sol\":2011:2019  paused() */\n      jump\t// in\n    tag_302:\n        /* \"@openzeppelin/contracts/security/Pausable.sol\":2003:2044  require(paused(), \"Pausable: not paused\") */\n      tag_303\n      jumpi\n      mload(0x40)\n      0x08c379a000000000000000000000000000000000000000000000000000000000\n      dup2\n      mstore\n      0x04\n      add\n      tag_304\n      swap1\n      tag_305\n      jump\t// in\n    tag_304:\n      mload(0x40)\n      dup1\n      swap2\n      sub\n      swap1\n      revert\n    tag_303:\n        /* \"@openzeppelin/contracts/security/Pausable.sol\":1945:2051  function _requirePaused() internal view virtual {... */\n      jump\t// out\n        /* \"#utility.yul\":7:360   */\n    tag_307:\n      0x00\n        /* \"#utility.yul\":121:186   */\n      tag_309\n        /* \"#utility.yul\":136:185   */\n      tag_310\n        /* \"#utility.yul\":178:184   */\n      dup5\n        /* \"#utility.yul\":136:185   */\n      tag_311\n      jump\t// in\n    tag_310:\n        /* \"#utility.yul\":121:186   */\n      tag_312\n      jump\t// in\n    tag_309:\n        /* \"#utility.yul\":112:186   */\n      swap1\n      pop\n        /* \"#utility.yul\":209:215   */\n      dup3\n        /* \"#utility.yul\":202:207   */\n      dup2\n        /* \"#utility.yul\":195:216   */\n      mstore\n        /* \"#utility.yul\":247:251   */\n      0x20\n        /* \"#utility.yul\":240:245   */\n      dup2\n        /* \"#utility.yul\":236:252   */\n      add\n        /* \"#utility.yul\":285:288   */\n      dup5\n        /* \"#utility.yul\":276:282   */\n      dup5\n        /* \"#utility.yul\":271:274   */\n      dup5\n        /* \"#utility.yul\":267:283   */\n      add\n        /* \"#utility.yul\":264:289   */\n      gt\n        /* \"#utility.yul\":261:263   */\n      iszero\n      tag_313\n      jumpi\n        /* \"#utility.yul\":302:303   */\n      0x00\n        /* \"#utility.yul\":299:300   */\n      dup1\n        /* \"#utility.yul\":292:304   */\n      revert\n        /* \"#utility.yul\":261:263   */\n    tag_313:\n        /* \"#utility.yul\":315:354   */\n      tag_314\n        /* \"#utility.yul\":347:353   */\n      dup5\n        /* \"#utility.yul\":342:345   */\n      dup3\n        /* \"#utility.yul\":337:340   */\n      dup6\n        /* \"#utility.yul\":315:354   */\n      tag_315\n      jump\t// in\n    tag_314:\n        /* \"#utility.yul\":102:360   */\n      pop\n      swap4\n      swap3\n      pop\n      pop\n      pop\n      jump\t// out\n        /* \"#utility.yul\":366:505   */\n    tag_316:\n      0x00\n        /* \"#utility.yul\":450:456   */\n      dup2\n        /* \"#utility.yul\":437:457   */\n      calldataload\n        /* \"#utility.yul\":428:457   */\n      swap1\n      pop\n        /* \"#utility.yul\":466:499   */\n      tag_318\n        /* \"#utility.yul\":493:498   */\n      dup2\n        /* \"#utility.yul\":466:499   */\n      tag_319\n      jump\t// in\n    tag_318:\n        /* \"#utility.yul\":418:505   */\n      swap3\n      swap2\n      pop\n      pop\n      jump\t// out\n        /* \"#utility.yul\":511:654   */\n    tag_320:\n      0x00\n        /* \"#utility.yul\":599:605   */\n      dup2\n        /* \"#utility.yul\":593:606   */\n      mload\n        /* \"#utility.yul\":584:606   */\n      swap1\n      pop\n        /* \"#utility.yul\":615:648   */\n      tag_322\n        /* \"#utility.yul\":642:647   */\n      dup2\n        /* \"#utility.yul\":615:648   */\n      tag_319\n      jump\t// in\n    tag_322:\n        /* \"#utility.yul\":574:654   */\n      swap3\n      swap2\n      pop\n      pop\n      jump\t// out\n        /* \"#utility.yul\":674:962   */\n    tag_323:\n      0x00\n        /* \"#utility.yul\":790:793   */\n      dup3\n        /* \"#utility.yul\":783:787   */\n      0x1f\n        /* \"#utility.yul\":775:781   */\n      dup4\n        /* \"#utility.yul\":771:788   */\n      add\n        /* \"#utility.yul\":767:794   */\n      slt\n        /* \"#utility.yul\":757:759   */\n      tag_325\n      jumpi\n        /* \"#utility.yul\":808:809   */\n      0x00\n        /* \"#utility.yul\":805:806   */\n      dup1\n        /* \"#utility.yul\":798:810   */\n      revert\n        /* \"#utility.yul\":757:759   */\n    tag_325:\n        /* \"#utility.yul\":841:847   */\n      dup2\n        /* \"#utility.yul\":835:848   */\n      mload\n        /* \"#utility.yul\":866:956   */\n      tag_326\n        /* \"#utility.yul\":952:955   */\n      dup5\n        /* \"#utility.yul\":944:950   */\n      dup3\n        /* \"#utility.yul\":937:941   */\n      0x20\n        /* \"#utility.yul\":929:935   */\n      dup7\n        /* \"#utility.yul\":925:942   */\n      add\n        /* \"#utility.yul\":866:956   */\n      tag_307\n      jump\t// in\n    tag_326:\n        /* \"#utility.yul\":857:956   */\n      swap2\n      pop\n        /* \"#utility.yul\":747:962   */\n      pop\n      swap3\n      swap2\n      pop\n      pop\n      jump\t// out\n        /* \"#utility.yul\":968:1107   */\n    tag_327:\n      0x00\n        /* \"#utility.yul\":1052:1058   */\n      dup2\n        /* \"#utility.yul\":1039:1059   */\n      calldataload\n        /* \"#utility.yul\":1030:1059   */\n      swap1\n      pop\n        /* \"#utility.yul\":1068:1101   */\n      tag_329\n        /* \"#utility.yul\":1095:1100   */\n      dup2\n        /* \"#utility.yul\":1068:1101   */\n      tag_330\n      jump\t// in\n    tag_329:\n        /* \"#utility.yul\":1020:1107   */\n      swap3\n      swap2\n      pop\n      pop\n      jump\t// out\n        /* \"#utility.yul\":1113:1375   */\n    tag_119:\n      0x00\n        /* \"#utility.yul\":1221:1223   */\n      0x20\n        /* \"#utility.yul\":1209:1218   */\n      dup3\n        /* \"#utility.yul\":1200:1207   */\n      dup5\n        /* \"#utility.yul\":1196:1219   */\n      sub\n        /* \"#utility.yul\":1192:1224   */\n      slt\n        /* \"#utility.yul\":1189:1191   */\n      iszero\n      tag_332\n      jumpi\n        /* \"#utility.yul\":1237:1238   */\n      0x00\n        /* \"#utility.yul\":1234:1235   */\n      dup1\n        /* \"#utility.yul\":1227:1239   */\n      revert\n        /* \"#utility.yul\":1189:1191   */\n    tag_332:\n        /* \"#utility.yul\":1280:1281   */\n      0x00\n        /* \"#utility.yul\":1305:1358   */\n      tag_333\n        /* \"#utility.yul\":1350:1357   */\n      dup5\n        /* \"#utility.yul\":1341:1347   */\n      dup3\n        /* \"#utility.yul\":1330:1339   */\n      dup6\n        /* \"#utility.yul\":1326:1348   */\n      add\n        /* \"#utility.yul\":1305:1358   */\n      tag_316\n      jump\t// in\n    tag_333:\n        /* \"#utility.yul\":1295:1358   */\n      swap2\n      pop\n        /* \"#utility.yul\":1251:1368   */\n      pop\n        /* \"#utility.yul\":1179:1375   */\n      swap3\n      swap2\n      pop\n      pop\n      jump\t// out\n        /* \"#utility.yul\":1381:1665   */\n    tag_147:\n      0x00\n        /* \"#utility.yul\":1500:1502   */\n      0x20\n        /* \"#utility.yul\":1488:1497   */\n      dup3\n        /* \"#utility.yul\":1479:1486   */\n      dup5\n        /* \"#utility.yul\":1475:1498   */\n      sub\n        /* \"#utility.yul\":1471:1503   */\n      slt\n        /* \"#utility.yul\":1468:1470   */\n      iszero\n      tag_335\n      jumpi\n        /* \"#utility.yul\":1516:1517   */\n      0x00\n        /* \"#utility.yul\":1513:1514   */\n      dup1\n        /* \"#utility.yul\":1506:1518   */\n      revert\n        /* \"#utility.yul\":1468:1470   */\n    tag_335:\n        /* \"#utility.yul\":1559:1560   */\n      0x00\n        /* \"#utility.yul\":1584:1648   */\n      tag_336\n        /* \"#utility.yul\":1640:1647   */\n      dup5\n        /* \"#utility.yul\":1631:1637   */\n      dup3\n        /* \"#utility.yul\":1620:1629   */\n      dup6\n        /* \"#utility.yul\":1616:1638   */\n      add\n        /* \"#utility.yul\":1584:1648   */\n      tag_320\n      jump\t// in\n    tag_336:\n        /* \"#utility.yul\":1574:1648   */\n      swap2\n      pop\n        /* \"#utility.yul\":1530:1658   */\n      pop\n        /* \"#utility.yul\":1458:1665   */\n      swap3\n      swap2\n      pop\n      pop\n      jump\t// out\n        /* \"#utility.yul\":1671:2078   */\n    tag_50:\n      0x00\n      dup1\n        /* \"#utility.yul\":1796:1798   */\n      0x40\n        /* \"#utility.yul\":1784:1793   */\n      dup4\n        /* \"#utility.yul\":1775:1782   */\n      dup6\n        /* \"#utility.yul\":1771:1794   */\n      sub\n        /* \"#utility.yul\":1767:1799   */\n      slt\n        /* \"#utility.yul\":1764:1766   */\n      iszero\n      tag_338\n      jumpi\n        /* \"#utility.yul\":1812:1813   */\n      0x00\n        /* \"#utility.yul\":1809:1810   */\n      dup1\n        /* \"#utility.yul\":1802:1814   */\n      revert\n        /* \"#utility.yul\":1764:1766   */\n    tag_338:\n        /* \"#utility.yul\":1855:1856   */\n      0x00\n        /* \"#utility.yul\":1880:1933   */\n      tag_339\n        /* \"#utility.yul\":1925:1932   */\n      dup6\n        /* \"#utility.yul\":1916:1922   */\n      dup3\n        /* \"#utility.yul\":1905:1914   */\n      dup7\n        /* \"#utility.yul\":1901:1923   */\n      add\n        /* \"#utility.yul\":1880:1933   */\n      tag_316\n      jump\t// in\n    tag_339:\n        /* \"#utility.yul\":1870:1933   */\n      swap3\n      pop\n        /* \"#utility.yul\":1826:1943   */\n      pop\n        /* \"#utility.yul\":1982:1984   */\n      0x20\n        /* \"#utility.yul\":2008:2061   */\n      tag_340\n        /* \"#utility.yul\":2053:2060   */\n      dup6\n        /* \"#utility.yul\":2044:2050   */\n      dup3\n        /* \"#utility.yul\":2033:2042   */\n      dup7\n        /* \"#utility.yul\":2029:2051   */\n      add\n        /* \"#utility.yul\":2008:2061   */\n      tag_316\n      jump\t// in\n    tag_340:\n        /* \"#utility.yul\":1998:2061   */\n      swap2\n      pop\n        /* \"#utility.yul\":1953:2071   */\n      pop\n        /* \"#utility.yul\":1754:2078   */\n      swap3\n      pop\n      swap3\n      swap1\n      pop\n      jump\t// out\n        /* \"#utility.yul\":2084:2782   */\n    tag_34:\n      0x00\n      dup1\n      0x00\n      dup1\n        /* \"#utility.yul\":2243:2246   */\n      0x80\n        /* \"#utility.yul\":2231:2240   */\n      dup6\n        /* \"#utility.yul\":2222:2229   */\n      dup8\n        /* \"#utility.yul\":2218:2241   */\n      sub\n        /* \"#utility.yul\":2214:2247   */\n      slt\n        /* \"#utility.yul\":2211:2213   */\n      iszero\n      tag_342\n      jumpi\n        /* \"#utility.yul\":2260:2261   */\n      0x00\n        /* \"#utility.yul\":2257:2258   */\n      dup1\n        /* \"#utility.yul\":2250:2262   */\n      revert\n        /* \"#utility.yul\":2211:2213   */\n    tag_342:\n        /* \"#utility.yul\":2303:2304   */\n      0x00\n        /* \"#utility.yul\":2328:2381   */\n      tag_343\n        /* \"#utility.yul\":2373:2380   */\n      dup8\n        /* \"#utility.yul\":2364:2370   */\n      dup3\n        /* \"#utility.yul\":2353:2362   */\n      dup9\n        /* \"#utility.yul\":2349:2371   */\n      add\n        /* \"#utility.yul\":2328:2381   */\n      tag_316\n      jump\t// in\n    tag_343:\n        /* \"#utility.yul\":2318:2381   */\n      swap5\n      pop\n        /* \"#utility.yul\":2274:2391   */\n      pop\n        /* \"#utility.yul\":2430:2432   */\n      0x20\n        /* \"#utility.yul\":2456:2509   */\n      tag_344\n        /* \"#utility.yul\":2501:2508   */\n      dup8\n        /* \"#utility.yul\":2492:2498   */\n      dup3\n        /* \"#utility.yul\":2481:2490   */\n      dup9\n        /* \"#utility.yul\":2477:2499   */\n      add\n        /* \"#utility.yul\":2456:2509   */\n      tag_327\n      jump\t// in\n    tag_344:\n        /* \"#utility.yul\":2446:2509   */\n      swap4\n      pop\n        /* \"#utility.yul\":2401:2519   */\n      pop\n        /* \"#utility.yul\":2558:2560   */\n      0x40\n        /* \"#utility.yul\":2584:2637   */\n      tag_345\n        /* \"#utility.yul\":2629:2636   */\n      dup8\n        /* \"#utility.yul\":2620:2626   */\n      dup3\n        /* \"#utility.yul\":2609:2618   */\n      dup9\n        /* \"#utility.yul\":2605:2627   */\n      add\n        /* \"#utility.yul\":2584:2637   */\n      tag_327\n      jump\t// in\n    tag_345:\n        /* \"#utility.yul\":2574:2637   */\n      swap3\n      pop\n        /* \"#utility.yul\":2529:2647   */\n      pop\n        /* \"#utility.yul\":2686:2688   */\n      0x60\n        /* \"#utility.yul\":2712:2765   */\n      tag_346\n        /* \"#utility.yul\":2757:2764   */\n      dup8\n        /* \"#utility.yul\":2748:2754   */\n      dup3\n        /* \"#utility.yul\":2737:2746   */\n      dup9\n        /* \"#utility.yul\":2733:2755   */\n      add\n        /* \"#utility.yul\":2712:2765   */\n      tag_327\n      jump\t// in\n    tag_346:\n        /* \"#utility.yul\":2702:2765   */\n      swap2\n      pop\n        /* \"#utility.yul\":2657:2775   */\n      pop\n        /* \"#utility.yul\":2201:2782   */\n      swap3\n      swap6\n      swap2\n      swap5\n      pop\n      swap3\n      pop\n      jump\t// out\n        /* \"#utility.yul\":2788:3178   */\n    tag_257:\n      0x00\n        /* \"#utility.yul\":2917:2919   */\n      0x20\n        /* \"#utility.yul\":2905:2914   */\n      dup3\n        /* \"#utility.yul\":2896:2903   */\n      dup5\n        /* \"#utility.yul\":2892:2915   */\n      sub\n        /* \"#utility.yul\":2888:2920   */\n      slt\n        /* \"#utility.yul\":2885:2887   */\n      iszero\n      tag_348\n      jumpi\n        /* \"#utility.yul\":2933:2934   */\n      0x00\n        /* \"#utility.yul\":2930:2931   */\n      dup1\n        /* \"#utility.yul\":2923:2935   */\n      revert\n        /* \"#utility.yul\":2885:2887   */\n    tag_348:\n        /* \"#utility.yul\":2997:2998   */\n      0x00\n        /* \"#utility.yul\":2986:2995   */\n      dup3\n        /* \"#utility.yul\":2982:2999   */\n      add\n        /* \"#utility.yul\":2976:3000   */\n      mload\n        /* \"#utility.yul\":3027:3045   */\n      0xffffffffffffffff\n        /* \"#utility.yul\":3019:3025   */\n      dup2\n        /* \"#utility.yul\":3016:3046   */\n      gt\n        /* \"#utility.yul\":3013:3015   */\n      iszero\n      tag_349\n      jumpi\n        /* \"#utility.yul\":3059:3060   */\n      0x00\n        /* \"#utility.yul\":3056:3057   */\n      dup1\n        /* \"#utility.yul\":3049:3061   */\n      revert\n        /* \"#utility.yul\":3013:3015   */\n    tag_349:\n        /* \"#utility.yul\":3087:3161   */\n      tag_350\n        /* \"#utility.yul\":3153:3160   */\n      dup5\n        /* \"#utility.yul\":3144:3150   */\n      dup3\n        /* \"#utility.yul\":3133:3142   */\n      dup6\n        /* \"#utility.yul\":3129:3151   */\n      add\n        /* \"#utility.yul\":3087:3161   */\n      tag_323\n      jump\t// in\n    tag_350:\n        /* \"#utility.yul\":3077:3161   */\n      swap2\n      pop\n        /* \"#utility.yul\":2947:3171   */\n      pop\n        /* \"#utility.yul\":2875:3178   */\n      swap3\n      swap2\n      pop\n      pop\n      jump\t// out\n        /* \"#utility.yul\":3184:3446   */\n    tag_29:\n      0x00\n        /* \"#utility.yul\":3292:3294   */\n      0x20\n        /* \"#utility.yul\":3280:3289   */\n      dup3\n        /* \"#utility.yul\":3271:3278   */\n      dup5\n        /* \"#utility.yul\":3267:3290   */\n      sub\n        /* \"#utility.yul\":3263:3295   */\n      slt\n        /* \"#utility.yul\":3260:3262   */\n      iszero\n      tag_352\n      jumpi\n        /* \"#utility.yul\":3308:3309   */\n      0x00\n        /* \"#utility.yul\":3305:3306   */\n      dup1\n        /* \"#utility.yul\":3298:3310   */\n      revert\n        /* \"#utility.yul\":3260:3262   */\n    tag_352:\n        /* \"#utility.yul\":3351:3352   */\n      0x00\n        /* \"#utility.yul\":3376:3429   */\n      tag_353\n        /* \"#utility.yul\":3421:3428   */\n      dup5\n        /* \"#utility.yul\":3412:3418   */\n      dup3\n        /* \"#utility.yul\":3401:3410   */\n      dup6\n        /* \"#utility.yul\":3397:3419   */\n      add\n        /* \"#utility.yul\":3376:3429   */\n      tag_327\n      jump\t// in\n    tag_353:\n        /* \"#utility.yul\":3366:3429   */\n      swap2\n      pop\n        /* \"#utility.yul\":3322:3439   */\n      pop\n        /* \"#utility.yul\":3250:3446   */\n      swap3\n      swap2\n      pop\n      pop\n      jump\t// out\n        /* \"#utility.yul\":3452:3859   */\n    tag_58:\n      0x00\n      dup1\n        /* \"#utility.yul\":3577:3579   */\n      0x40\n        /* \"#utility.yul\":3565:3574   */\n      dup4\n        /* \"#utility.yul\":3556:3563   */\n      dup6\n        /* \"#utility.yul\":3552:3575   */\n      sub\n        /* \"#utility.yul\":3548:3580   */\n      slt\n        /* \"#utility.yul\":3545:3547   */\n      iszero\n      tag_355\n      jumpi\n        /* \"#utility.yul\":3593:3594   */\n      0x00\n        /* \"#utility.yul\":3590:3591   */\n      dup1\n        /* \"#utility.yul\":3583:3595   */\n      revert\n        /* \"#utility.yul\":3545:3547   */\n    tag_355:\n        /* \"#utility.yul\":3636:3637   */\n      0x00\n        /* \"#utility.yul\":3661:3714   */\n      tag_356\n        /* \"#utility.yul\":3706:3713   */\n      dup6\n        /* \"#utility.yul\":3697:3703   */\n      dup3\n        /* \"#utility.yul\":3686:3695   */\n      dup7\n        /* \"#utility.yul\":3682:3704   */\n      add\n        /* \"#utility.yul\":3661:3714   */\n      tag_327\n      jump\t// in\n    tag_356:\n        /* \"#utility.yul\":3651:3714   */\n      swap3\n      pop\n        /* \"#utility.yul\":3607:3724   */\n      pop\n        /* \"#utility.yul\":3763:3765   */\n      0x20\n        /* \"#utility.yul\":3789:3842   */\n      tag_357\n        /* \"#utility.yul\":3834:3841   */\n      dup6\n        /* \"#utility.yul\":3825:3831   */\n      dup3\n        /* \"#utility.yul\":3814:3823   */\n      dup7\n        /* \"#utility.yul\":3810:3832   */\n      add\n        /* \"#utility.yul\":3789:3842   */\n      tag_327\n      jump\t// in\n    tag_357:\n        /* \"#utility.yul\":3779:3842   */\n      swap2\n      pop\n        /* \"#utility.yul\":3734:3852   */\n      pop\n        /* \"#utility.yul\":3535:3859   */\n      swap3\n      pop\n      swap3\n      swap1\n      pop\n      jump\t// out\n        /* \"#utility.yul\":3865:4044   */\n    tag_358:\n      0x00\n        /* \"#utility.yul\":3955:4001   */\n      tag_360\n        /* \"#utility.yul\":3997:4000   */\n      dup4\n        /* \"#utility.yul\":3989:3995   */\n      dup4\n        /* \"#utility.yul\":3955:4001   */\n      tag_361\n      jump\t// in\n    tag_360:\n        /* \"#utility.yul\":4033:4037   */\n      0x20\n        /* \"#utility.yul\":4028:4031   */\n      dup4\n        /* \"#utility.yul\":4024:4038   */\n      add\n        /* \"#utility.yul\":4010:4038   */\n      swap1\n      pop\n        /* \"#utility.yul\":3945:4044   */\n      swap3\n      swap2\n      pop\n      pop\n      jump\t// out\n        /* \"#utility.yul\":4050:4168   */\n    tag_362:\n        /* \"#utility.yul\":4137:4161   */\n      tag_364\n        /* \"#utility.yul\":4155:4160   */\n      dup2\n        /* \"#utility.yul\":4137:4161   */\n      tag_365\n      jump\t// in\n    tag_364:\n        /* \"#utility.yul\":4132:4135   */\n      dup3\n        /* \"#utility.yul\":4125:4162   */\n      mstore\n        /* \"#utility.yul\":4115:4168   */\n      pop\n      pop\n      jump\t// out\n        /* \"#utility.yul\":4204:4936   */\n    tag_366:\n      0x00\n        /* \"#utility.yul\":4352:4406   */\n      tag_368\n        /* \"#utility.yul\":4400:4405   */\n      dup3\n        /* \"#utility.yul\":4352:4406   */\n      tag_369\n      jump\t// in\n    tag_368:\n        /* \"#utility.yul\":4422:4508   */\n      tag_370\n        /* \"#utility.yul\":4501:4507   */\n      dup2\n        /* \"#utility.yul\":4496:4499   */\n      dup6\n        /* \"#utility.yul\":4422:4508   */\n      tag_371\n      jump\t// in\n    tag_370:\n        /* \"#utility.yul\":4415:4508   */\n      swap4\n      pop\n        /* \"#utility.yul\":4532:4588   */\n      tag_372\n        /* \"#utility.yul\":4582:4587   */\n      dup4\n        /* \"#utility.yul\":4532:4588   */\n      tag_373\n      jump\t// in\n    tag_372:\n        /* \"#utility.yul\":4611:4618   */\n      dup1\n        /* \"#utility.yul\":4642:4643   */\n      0x00\n        /* \"#utility.yul\":4627:4911   */\n    tag_374:\n        /* \"#utility.yul\":4652:4658   */\n      dup4\n        /* \"#utility.yul\":4649:4650   */\n      dup2\n        /* \"#utility.yul\":4646:4659   */\n      lt\n        /* \"#utility.yul\":4627:4911   */\n      iszero\n      tag_376\n      jumpi\n        /* \"#utility.yul\":4728:4734   */\n      dup2\n        /* \"#utility.yul\":4722:4735   */\n      mload\n        /* \"#utility.yul\":4755:4818   */\n      tag_377\n        /* \"#utility.yul\":4814:4817   */\n      dup9\n        /* \"#utility.yul\":4799:4812   */\n      dup3\n        /* \"#utility.yul\":4755:4818   */\n      tag_358\n      jump\t// in\n    tag_377:\n        /* \"#utility.yul\":4748:4818   */\n      swap8\n      pop\n        /* \"#utility.yul\":4841:4901   */\n      tag_378\n        /* \"#utility.yul\":4894:4900   */\n      dup4\n        /* \"#utility.yul\":4841:4901   */\n      tag_379\n      jump\t// in\n    tag_378:\n        /* \"#utility.yul\":4831:4901   */\n      swap3\n      pop\n        /* \"#utility.yul\":4687:4911   */\n      pop\n        /* \"#utility.yul\":4674:4675   */\n      0x01\n        /* \"#utility.yul\":4671:4672   */\n      dup2\n        /* \"#utility.yul\":4667:4676   */\n      add\n        /* \"#utility.yul\":4662:4676   */\n      swap1\n      pop\n        /* \"#utility.yul\":4627:4911   */\n      jump(tag_374)\n    tag_376:\n        /* \"#utility.yul\":4631:4645   */\n      pop\n        /* \"#utility.yul\":4927:4930   */\n      dup6\n        /* \"#utility.yul\":4920:4930   */\n      swap4\n      pop\n        /* \"#utility.yul\":4328:4936   */\n      pop\n      pop\n      pop\n      swap3\n      swap2\n      pop\n      pop\n      jump\t// out\n        /* \"#utility.yul\":4942:5051   */\n    tag_380:\n        /* \"#utility.yul\":5023:5044   */\n      tag_382\n        /* \"#utility.yul\":5038:5043   */\n      dup2\n        /* \"#utility.yul\":5023:5044   */\n      tag_383\n      jump\t// in\n    tag_382:\n        /* \"#utility.yul\":5018:5021   */\n      dup3\n        /* \"#utility.yul\":5011:5045   */\n      mstore\n        /* \"#utility.yul\":5001:5051   */\n      pop\n      pop\n      jump\t// out\n        /* \"#utility.yul\":5057:5421   */\n    tag_384:\n      0x00\n        /* \"#utility.yul\":5173:5212   */\n      tag_386\n        /* \"#utility.yul\":5206:5211   */\n      dup3\n        /* \"#utility.yul\":5173:5212   */\n      tag_387\n      jump\t// in\n    tag_386:\n        /* \"#utility.yul\":5228:5299   */\n      tag_388\n        /* \"#utility.yul\":5292:5298   */\n      dup2\n        /* \"#utility.yul\":5287:5290   */\n      dup6\n        /* \"#utility.yul\":5228:5299   */\n      tag_389\n      jump\t// in\n    tag_388:\n        /* \"#utility.yul\":5221:5299   */\n      swap4\n      pop\n        /* \"#utility.yul\":5308:5360   */\n      tag_390\n        /* \"#utility.yul\":5353:5359   */\n      dup2\n        /* \"#utility.yul\":5348:5351   */\n      dup6\n        /* \"#utility.yul\":5341:5345   */\n      0x20\n        /* \"#utility.yul\":5334:5339   */\n      dup7\n        /* \"#utility.yul\":5330:5346   */\n      add\n        /* \"#utility.yul\":5308:5360   */\n      tag_315\n      jump\t// in\n    tag_390:\n        /* \"#utility.yul\":5385:5414   */\n      tag_391\n        /* \"#utility.yul\":5407:5413   */\n      dup2\n        /* \"#utility.yul\":5385:5414   */\n      tag_392\n      jump\t// in\n    tag_391:\n        /* \"#utility.yul\":5380:5383   */\n      dup5\n        /* \"#utility.yul\":5376:5415   */\n      add\n        /* \"#utility.yul\":5369:5415   */\n      swap2\n      pop\n        /* \"#utility.yul\":5149:5421   */\n      pop\n      swap3\n      swap2\n      pop\n      pop\n      jump\t// out\n        /* \"#utility.yul\":5427:5745   */\n    tag_393:\n      0x00\n        /* \"#utility.yul\":5590:5657   */\n      tag_395\n        /* \"#utility.yul\":5654:5656   */\n      0x14\n        /* \"#utility.yul\":5649:5652   */\n      dup4\n        /* \"#utility.yul\":5590:5657   */\n      tag_389\n      jump\t// in\n    tag_395:\n        /* \"#utility.yul\":5583:5657   */\n      swap2\n      pop\n        /* \"#utility.yul\":5687:5709   */\n      0x5061757361626c653a206e6f7420706175736564000000000000000000000000\n        /* \"#utility.yul\":5683:5684   */\n      0x00\n        /* \"#utility.yul\":5678:5681   */\n      dup4\n        /* \"#utility.yul\":5674:5685   */\n      add\n        /* \"#utility.yul\":5667:5710   */\n      mstore\n        /* \"#utility.yul\":5736:5738   */\n      0x20\n        /* \"#utility.yul\":5731:5734   */\n      dup3\n        /* \"#utility.yul\":5727:5739   */\n      add\n        /* \"#utility.yul\":5720:5739   */\n      swap1\n      pop\n        /* \"#utility.yul\":5573:5745   */\n      swap2\n      swap1\n      pop\n      jump\t// out\n        /* \"#utility.yul\":5751:6121   */\n    tag_396:\n      0x00\n        /* \"#utility.yul\":5914:5981   */\n      tag_398\n        /* \"#utility.yul\":5978:5980   */\n      0x26\n        /* \"#utility.yul\":5973:5976   */\n      dup4\n        /* \"#utility.yul\":5914:5981   */\n      tag_389\n      jump\t// in\n    tag_398:\n        /* \"#utility.yul\":5907:5981   */\n      swap2\n      pop\n        /* \"#utility.yul\":6011:6045   */\n      0x4f776e61626c653a206e6577206f776e657220697320746865207a65726f2061\n        /* \"#utility.yul\":6007:6008   */\n      0x00\n        /* \"#utility.yul\":6002:6005   */\n      dup4\n        /* \"#utility.yul\":5998:6009   */\n      add\n        /* \"#utility.yul\":5991:6046   */\n      mstore\n        /* \"#utility.yul\":6077:6085   */\n      0x6464726573730000000000000000000000000000000000000000000000000000\n        /* \"#utility.yul\":6072:6074   */\n      0x20\n        /* \"#utility.yul\":6067:6070   */\n      dup4\n        /* \"#utility.yul\":6063:6075   */\n      add\n        /* \"#utility.yul\":6056:6086   */\n      mstore\n        /* \"#utility.yul\":6112:6114   */\n      0x40\n        /* \"#utility.yul\":6107:6110   */\n      dup3\n        /* \"#utility.yul\":6103:6115   */\n      add\n        /* \"#utility.yul\":6096:6115   */\n      swap1\n      pop\n        /* \"#utility.yul\":5897:6121   */\n      swap2\n      swap1\n      pop\n      jump\t// out\n        /* \"#utility.yul\":6127:6457   */\n    tag_399:\n      0x00\n        /* \"#utility.yul\":6290:6357   */\n      tag_401\n        /* \"#utility.yul\":6354:6356   */\n      0x20\n        /* \"#utility.yul\":6349:6352   */\n      dup4\n        /* \"#utility.yul\":6290:6357   */\n      tag_389\n      jump\t// in\n    tag_401:\n        /* \"#utility.yul\":6283:6357   */\n      swap2\n      pop\n        /* \"#utility.yul\":6387:6421   */\n      0x596f75206d757374206f776e20746865204e465420746f206c6973742069742e\n        /* \"#utility.yul\":6383:6384   */\n      0x00\n        /* \"#utility.yul\":6378:6381   */\n      dup4\n        /* \"#utility.yul\":6374:6385   */\n      add\n        /* \"#utility.yul\":6367:6422   */\n      mstore\n        /* \"#utility.yul\":6448:6450   */\n      0x20\n        /* \"#utility.yul\":6443:6446   */\n      dup3\n        /* \"#utility.yul\":6439:6451   */\n      add\n        /* \"#utility.yul\":6432:6451   */\n      swap1\n      pop\n        /* \"#utility.yul\":6273:6457   */\n      swap2\n      swap1\n      pop\n      jump\t// out\n        /* \"#utility.yul\":6463:6785   */\n    tag_402:\n      0x00\n        /* \"#utility.yul\":6626:6693   */\n      tag_404\n        /* \"#utility.yul\":6690:6692   */\n      0x18\n        /* \"#utility.yul\":6685:6688   */\n      dup4\n        /* \"#utility.yul\":6626:6693   */\n      tag_389\n      jump\t// in\n    tag_404:\n        /* \"#utility.yul\":6619:6693   */\n      swap2\n      pop\n        /* \"#utility.yul\":6723:6749   */\n      0x4164647265737365732063616e6e6f74206265207a65726f0000000000000000\n        /* \"#utility.yul\":6719:6720   */\n      0x00\n        /* \"#utility.yul\":6714:6717   */\n      dup4\n        /* \"#utility.yul\":6710:6721   */\n      add\n        /* \"#utility.yul\":6703:6750   */\n      mstore\n        /* \"#utility.yul\":6776:6778   */\n      0x20\n        /* \"#utility.yul\":6771:6774   */\n      dup3\n        /* \"#utility.yul\":6767:6779   */\n      add\n        /* \"#utility.yul\":6760:6779   */\n      swap1\n      pop\n        /* \"#utility.yul\":6609:6785   */\n      swap2\n      swap1\n      pop\n      jump\t// out\n        /* \"#utility.yul\":6791:7114   */\n    tag_405:\n      0x00\n        /* \"#utility.yul\":6954:7021   */\n      tag_407\n        /* \"#utility.yul\":7018:7020   */\n      0x19\n        /* \"#utility.yul\":7013:7016   */\n      dup4\n        /* \"#utility.yul\":6954:7021   */\n      tag_389\n      jump\t// in\n    tag_407:\n        /* \"#utility.yul\":6947:7021   */\n      swap2\n      pop\n        /* \"#utility.yul\":7051:7078   */\n      0x54686973206c697374696e672068617320657870697265642e00000000000000\n        /* \"#utility.yul\":7047:7048   */\n      0x00\n        /* \"#utility.yul\":7042:7045   */\n      dup4\n        /* \"#utility.yul\":7038:7049   */\n      add\n        /* \"#utility.yul\":7031:7079   */\n      mstore\n        /* \"#utility.yul\":7105:7107   */\n      0x20\n        /* \"#utility.yul\":7100:7103   */\n      dup3\n        /* \"#utility.yul\":7096:7108   */\n      add\n        /* \"#utility.yul\":7089:7108   */\n      swap1\n      pop\n        /* \"#utility.yul\":6937:7114   */\n      swap2\n      swap1\n      pop\n      jump\t// out\n        /* \"#utility.yul\":7120:7498   */\n    tag_408:\n      0x00\n        /* \"#utility.yul\":7283:7350   */\n      tag_410\n        /* \"#utility.yul\":7347:7349   */\n      0x2e\n        /* \"#utility.yul\":7342:7345   */\n      dup4\n        /* \"#utility.yul\":7283:7350   */\n      tag_389\n      jump\t// in\n    tag_410:\n        /* \"#utility.yul\":7276:7350   */\n      swap2\n      pop\n        /* \"#utility.yul\":7380:7414   */\n      0x53656e742076616c7565206d75737420626520657175616c20746f2074686520\n        /* \"#utility.yul\":7376:7377   */\n      0x00\n        /* \"#utility.yul\":7371:7374   */\n      dup4\n        /* \"#utility.yul\":7367:7378   */\n      add\n        /* \"#utility.yul\":7360:7415   */\n      mstore\n        /* \"#utility.yul\":7446:7462   */\n      0x6c697374696e672070726963652e000000000000000000000000000000000000\n        /* \"#utility.yul\":7441:7443   */\n      0x20\n        /* \"#utility.yul\":7436:7439   */\n      dup4\n        /* \"#utility.yul\":7432:7444   */\n      add\n        /* \"#utility.yul\":7425:7463   */\n      mstore\n        /* \"#utility.yul\":7489:7491   */\n      0x40\n        /* \"#utility.yul\":7484:7487   */\n      dup3\n        /* \"#utility.yul\":7480:7492   */\n      add\n        /* \"#utility.yul\":7473:7492   */\n      swap1\n      pop\n        /* \"#utility.yul\":7266:7498   */\n      swap2\n      swap1\n      pop\n      jump\t// out\n        /* \"#utility.yul\":7504:7818   */\n    tag_411:\n      0x00\n        /* \"#utility.yul\":7667:7734   */\n      tag_413\n        /* \"#utility.yul\":7731:7733   */\n      0x10\n        /* \"#utility.yul\":7726:7729   */\n      dup4\n        /* \"#utility.yul\":7667:7734   */\n      tag_389\n      jump\t// in\n    tag_413:\n        /* \"#utility.yul\":7660:7734   */\n      swap2\n      pop\n        /* \"#utility.yul\":7764:7782   */\n      0x5061757361626c653a2070617573656400000000000000000000000000000000\n        /* \"#utility.yul\":7760:7761   */\n      0x00\n        /* \"#utility.yul\":7755:7758   */\n      dup4\n        /* \"#utility.yul\":7751:7762   */\n      add\n        /* \"#utility.yul\":7744:7783   */\n      mstore\n        /* \"#utility.yul\":7809:7811   */\n      0x20\n        /* \"#utility.yul\":7804:7807   */\n      dup3\n        /* \"#utility.yul\":7800:7812   */\n      add\n        /* \"#utility.yul\":7793:7812   */\n      swap1\n      pop\n        /* \"#utility.yul\":7650:7818   */\n      swap2\n      swap1\n      pop\n      jump\t// out\n        /* \"#utility.yul\":7824:8193   */\n    tag_414:\n      0x00\n        /* \"#utility.yul\":7987:8054   */\n      tag_416\n        /* \"#utility.yul\":8051:8053   */\n      0x25\n        /* \"#utility.yul\":8046:8049   */\n      dup4\n        /* \"#utility.yul\":7987:8054   */\n      tag_389\n      jump\t// in\n    tag_416:\n        /* \"#utility.yul\":7980:8054   */\n      swap2\n      pop\n        /* \"#utility.yul\":8084:8118   */\n      0x4f6e6c7920746865206c697374696e67206f776e65722063616e2063616e6365\n        /* \"#utility.yul\":8080:8081   */\n      0x00\n        /* \"#utility.yul\":8075:8078   */\n      dup4\n        /* \"#utility.yul\":8071:8082   */\n      add\n        /* \"#utility.yul\":8064:8119   */\n      mstore\n        /* \"#utility.yul\":8150:8157   */\n      0x6c2069742e000000000000000000000000000000000000000000000000000000\n        /* \"#utility.yul\":8145:8147   */\n      0x20\n        /* \"#utility.yul\":8140:8143   */\n      dup4\n        /* \"#utility.yul\":8136:8148   */\n      add\n        /* \"#utility.yul\":8129:8158   */\n      mstore\n        /* \"#utility.yul\":8184:8186   */\n      0x40\n        /* \"#utility.yul\":8179:8182   */\n      dup3\n        /* \"#utility.yul\":8175:8187   */\n      add\n        /* \"#utility.yul\":8168:8187   */\n      swap1\n      pop\n        /* \"#utility.yul\":7970:8193   */\n      swap2\n      swap1\n      pop\n      jump\t// out\n        /* \"#utility.yul\":8199:8520   */\n    tag_417:\n      0x00\n        /* \"#utility.yul\":8362:8429   */\n      tag_419\n        /* \"#utility.yul\":8426:8428   */\n      0x17\n        /* \"#utility.yul\":8421:8424   */\n      dup4\n        /* \"#utility.yul\":8362:8429   */\n      tag_389\n      jump\t// in\n    tag_419:\n        /* \"#utility.yul\":8355:8429   */\n      swap2\n      pop\n        /* \"#utility.yul\":8459:8484   */\n      0x4c697374696e6720646f6573206e6f742065786973742e000000000000000000\n        /* \"#utility.yul\":8455:8456   */\n      0x00\n        /* \"#utility.yul\":8450:8453   */\n      dup4\n        /* \"#utility.yul\":8446:8457   */\n      add\n        /* \"#utility.yul\":8439:8485   */\n      mstore\n        /* \"#utility.yul\":8511:8513   */\n      0x20\n        /* \"#utility.yul\":8506:8509   */\n      dup3\n        /* \"#utility.yul\":8502:8514   */\n      add\n        /* \"#utility.yul\":8495:8514   */\n      swap1\n      pop\n        /* \"#utility.yul\":8345:8520   */\n      swap2\n      swap1\n      pop\n      jump\t// out\n        /* \"#utility.yul\":8526:8856   */\n    tag_420:\n      0x00\n        /* \"#utility.yul\":8689:8756   */\n      tag_422\n        /* \"#utility.yul\":8753:8755   */\n      0x20\n        /* \"#utility.yul\":8748:8751   */\n      dup4\n        /* \"#utility.yul\":8689:8756   */\n      tag_389\n      jump\t// in\n    tag_422:\n        /* \"#utility.yul\":8682:8756   */\n      swap2\n      pop\n        /* \"#utility.yul\":8786:8820   */\n      0x4f776e61626c653a2063616c6c6572206973206e6f7420746865206f776e6572\n        /* \"#utility.yul\":8782:8783   */\n      0x00\n        /* \"#utility.yul\":8777:8780   */\n      dup4\n        /* \"#utility.yul\":8773:8784   */\n      add\n        /* \"#utility.yul\":8766:8821   */\n      mstore\n        /* \"#utility.yul\":8847:8849   */\n      0x20\n        /* \"#utility.yul\":8842:8845   */\n      dup3\n        /* \"#utility.yul\":8838:8850   */\n      add\n        /* \"#utility.yul\":8831:8850   */\n      swap1\n      pop\n        /* \"#utility.yul\":8672:8856   */\n      swap2\n      swap1\n      pop\n      jump\t// out\n        /* \"#utility.yul\":8862:9229   */\n    tag_423:\n      0x00\n        /* \"#utility.yul\":9025:9092   */\n      tag_425\n        /* \"#utility.yul\":9089:9091   */\n      0x23\n        /* \"#utility.yul\":9084:9087   */\n      dup4\n        /* \"#utility.yul\":9025:9092   */\n      tag_389\n      jump\t// in\n    tag_425:\n        /* \"#utility.yul\":9018:9092   */\n      swap2\n      pop\n        /* \"#utility.yul\":9122:9156   */\n      0x446561646c696e65206d7573742062652067726561746572207468616e207a65\n        /* \"#utility.yul\":9118:9119   */\n      0x00\n        /* \"#utility.yul\":9113:9116   */\n      dup4\n        /* \"#utility.yul\":9109:9120   */\n      add\n        /* \"#utility.yul\":9102:9157   */\n      mstore\n        /* \"#utility.yul\":9188:9193   */\n      0x726f2e0000000000000000000000000000000000000000000000000000000000\n        /* \"#utility.yul\":9183:9185   */\n      0x20\n        /* \"#utility.yul\":9178:9181   */\n      dup4\n        /* \"#utility.yul\":9174:9186   */\n      add\n        /* \"#utility.yul\":9167:9194   */\n      mstore\n        /* \"#utility.yul\":9220:9222   */\n      0x40\n        /* \"#utility.yul\":9215:9218   */\n      dup3\n        /* \"#utility.yul\":9211:9223   */\n      add\n        /* \"#utility.yul\":9204:9223   */\n      swap1\n      pop\n        /* \"#utility.yul\":9008:9229   */\n      swap2\n      swap1\n      pop\n      jump\t// out\n        /* \"#utility.yul\":9235:9565   */\n    tag_426:\n      0x00\n        /* \"#utility.yul\":9398:9465   */\n      tag_428\n        /* \"#utility.yul\":9462:9464   */\n      0x20\n        /* \"#utility.yul\":9457:9460   */\n      dup4\n        /* \"#utility.yul\":9398:9465   */\n      tag_389\n      jump\t// in\n    tag_428:\n        /* \"#utility.yul\":9391:9465   */\n      swap2\n      pop\n        /* \"#utility.yul\":9495:9529   */\n      0x5072696365206d7573742062652067726561746572207468616e207a65726f2e\n        /* \"#utility.yul\":9491:9492   */\n      0x00\n        /* \"#utility.yul\":9486:9489   */\n      dup4\n        /* \"#utility.yul\":9482:9493   */\n      add\n        /* \"#utility.yul\":9475:9530   */\n      mstore\n        /* \"#utility.yul\":9556:9558   */\n      0x20\n        /* \"#utility.yul\":9551:9554   */\n      dup3\n        /* \"#utility.yul\":9547:9559   */\n      add\n        /* \"#utility.yul\":9540:9559   */\n      swap1\n      pop\n        /* \"#utility.yul\":9381:9565   */\n      swap2\n      swap1\n      pop\n      jump\t// out\n        /* \"#utility.yul\":9571:9940   */\n    tag_429:\n      0x00\n        /* \"#utility.yul\":9734:9801   */\n      tag_431\n        /* \"#utility.yul\":9798:9800   */\n      0x25\n        /* \"#utility.yul\":9793:9796   */\n      dup4\n        /* \"#utility.yul\":9734:9801   */\n      tag_389\n      jump\t// in\n    tag_431:\n        /* \"#utility.yul\":9727:9801   */\n      swap2\n      pop\n        /* \"#utility.yul\":9831:9865   */\n      0x53656e742076616c7565206d7573742062652067726561746572207468616e20\n        /* \"#utility.yul\":9827:9828   */\n      0x00\n        /* \"#utility.yul\":9822:9825   */\n      dup4\n        /* \"#utility.yul\":9818:9829   */\n      add\n        /* \"#utility.yul\":9811:9866   */\n      mstore\n        /* \"#utility.yul\":9897:9904   */\n      0x7a65726f2e000000000000000000000000000000000000000000000000000000\n        /* \"#utility.yul\":9892:9894   */\n      0x20\n        /* \"#utility.yul\":9887:9890   */\n      dup4\n        /* \"#utility.yul\":9883:9895   */\n      add\n        /* \"#utility.yul\":9876:9905   */\n      mstore\n        /* \"#utility.yul\":9931:9933   */\n      0x40\n        /* \"#utility.yul\":9926:9929   */\n      dup3\n        /* \"#utility.yul\":9922:9934   */\n      add\n        /* \"#utility.yul\":9915:9934   */\n      swap1\n      pop\n        /* \"#utility.yul\":9717:9940   */\n      swap2\n      swap1\n      pop\n      jump\t// out\n        /* \"#utility.yul\":9946:10275   */\n    tag_432:\n      0x00\n        /* \"#utility.yul\":10109:10176   */\n      tag_434\n        /* \"#utility.yul\":10173:10175   */\n      0x1f\n        /* \"#utility.yul\":10168:10171   */\n      dup4\n        /* \"#utility.yul\":10109:10176   */\n      tag_389\n      jump\t// in\n    tag_434:\n        /* \"#utility.yul\":10102:10176   */\n      swap2\n      pop\n        /* \"#utility.yul\":10206:10239   */\n      0x5265656e7472616e637947756172643a207265656e7472616e742063616c6c00\n        /* \"#utility.yul\":10202:10203   */\n      0x00\n        /* \"#utility.yul\":10197:10200   */\n      dup4\n        /* \"#utility.yul\":10193:10204   */\n      add\n        /* \"#utility.yul\":10186:10240   */\n      mstore\n        /* \"#utility.yul\":10266:10268   */\n      0x20\n        /* \"#utility.yul\":10261:10264   */\n      dup3\n        /* \"#utility.yul\":10257:10269   */\n      add\n        /* \"#utility.yul\":10250:10269   */\n      swap1\n      pop\n        /* \"#utility.yul\":10092:10275   */\n      swap2\n      swap1\n      pop\n      jump\t// out\n        /* \"#utility.yul\":10281:10609   */\n    tag_435:\n      0x00\n        /* \"#utility.yul\":10444:10511   */\n      tag_437\n        /* \"#utility.yul\":10508:10510   */\n      0x1e\n        /* \"#utility.yul\":10503:10506   */\n      dup4\n        /* \"#utility.yul\":10444:10511   */\n      tag_389\n      jump\t// in\n    tag_437:\n        /* \"#utility.yul\":10437:10511   */\n      swap2\n      pop\n        /* \"#utility.yul\":10541:10573   */\n      0x53656c6c6572206e6f206c6f6e676572206f776e7320746865204e46542e0000\n        /* \"#utility.yul\":10537:10538   */\n      0x00\n        /* \"#utility.yul\":10532:10535   */\n      dup4\n        /* \"#utility.yul\":10528:10539   */\n      add\n        /* \"#utility.yul\":10521:10574   */\n      mstore\n        /* \"#utility.yul\":10600:10602   */\n      0x20\n        /* \"#utility.yul\":10595:10598   */\n      dup3\n        /* \"#utility.yul\":10591:10603   */\n      add\n        /* \"#utility.yul\":10584:10603   */\n      swap1\n      pop\n        /* \"#utility.yul\":10427:10609   */\n      swap2\n      swap1\n      pop\n      jump\t// out\n        /* \"#utility.yul\":10615:10723   */\n    tag_361:\n        /* \"#utility.yul\":10692:10716   */\n      tag_439\n        /* \"#utility.yul\":10710:10715   */\n      dup2\n        /* \"#utility.yul\":10692:10716   */\n      tag_440\n      jump\t// in\n    tag_439:\n        /* \"#utility.yul\":10687:10690   */\n      dup3\n        /* \"#utility.yul\":10680:10717   */\n      mstore\n        /* \"#utility.yul\":10670:10723   */\n      pop\n      pop\n      jump\t// out\n        /* \"#utility.yul\":10729:10847   */\n    tag_441:\n        /* \"#utility.yul\":10816:10840   */\n      tag_443\n        /* \"#utility.yul\":10834:10839   */\n      dup2\n        /* \"#utility.yul\":10816:10840   */\n      tag_440\n      jump\t// in\n    tag_443:\n        /* \"#utility.yul\":10811:10814   */\n      dup3\n        /* \"#utility.yul\":10804:10841   */\n      mstore\n        /* \"#utility.yul\":10794:10847   */\n      pop\n      pop\n      jump\t// out\n        /* \"#utility.yul\":10853:11075   */\n    tag_65:\n      0x00\n        /* \"#utility.yul\":10984:10986   */\n      0x20\n        /* \"#utility.yul\":10973:10982   */\n      dup3\n        /* \"#utility.yul\":10969:10987   */\n      add\n        /* \"#utility.yul\":10961:10987   */\n      swap1\n      pop\n        /* \"#utility.yul\":10997:11068   */\n      tag_445\n        /* \"#utility.yul\":11065:11066   */\n      0x00\n        /* \"#utility.yul\":11054:11063   */\n      dup4\n        /* \"#utility.yul\":11050:11067   */\n      add\n        /* \"#utility.yul\":11041:11047   */\n      dup5\n        /* \"#utility.yul\":10997:11068   */\n      tag_362\n      jump\t// in\n    tag_445:\n        /* \"#utility.yul\":10951:11075   */\n      swap3\n      swap2\n      pop\n      pop\n      jump\t// out\n        /* \"#utility.yul\":11081:11523   */\n    tag_204:\n      0x00\n        /* \"#utility.yul\":11268:11270   */\n      0x60\n        /* \"#utility.yul\":11257:11266   */\n      dup3\n        /* \"#utility.yul\":11253:11271   */\n      add\n        /* \"#utility.yul\":11245:11271   */\n      swap1\n      pop\n        /* \"#utility.yul\":11281:11352   */\n      tag_447\n        /* \"#utility.yul\":11349:11350   */\n      0x00\n        /* \"#utility.yul\":11338:11347   */\n      dup4\n        /* \"#utility.yul\":11334:11351   */\n      add\n        /* \"#utility.yul\":11325:11331   */\n      dup7\n        /* \"#utility.yul\":11281:11352   */\n      tag_362\n      jump\t// in\n    tag_447:\n        /* \"#utility.yul\":11362:11434   */\n      tag_448\n        /* \"#utility.yul\":11430:11432   */\n      0x20\n        /* \"#utility.yul\":11419:11428   */\n      dup4\n        /* \"#utility.yul\":11415:11433   */\n      add\n        /* \"#utility.yul\":11406:11412   */\n      dup6\n        /* \"#utility.yul\":11362:11434   */\n      tag_362\n      jump\t// in\n    tag_448:\n        /* \"#utility.yul\":11444:11516   */\n      tag_449\n        /* \"#utility.yul\":11512:11514   */\n      0x40\n        /* \"#utility.yul\":11501:11510   */\n      dup4\n        /* \"#utility.yul\":11497:11515   */\n      add\n        /* \"#utility.yul\":11488:11494   */\n      dup5\n        /* \"#utility.yul\":11444:11516   */\n      tag_441\n      jump\t// in\n    tag_449:\n        /* \"#utility.yul\":11235:11523   */\n      swap5\n      swap4\n      pop\n      pop\n      pop\n      pop\n      jump\t// out\n        /* \"#utility.yul\":11529:12193   */\n    tag_106:\n      0x00\n        /* \"#utility.yul\":11772:11775   */\n      0xa0\n        /* \"#utility.yul\":11761:11770   */\n      dup3\n        /* \"#utility.yul\":11757:11776   */\n      add\n        /* \"#utility.yul\":11749:11776   */\n      swap1\n      pop\n        /* \"#utility.yul\":11786:11857   */\n      tag_451\n        /* \"#utility.yul\":11854:11855   */\n      0x00\n        /* \"#utility.yul\":11843:11852   */\n      dup4\n        /* \"#utility.yul\":11839:11856   */\n      add\n        /* \"#utility.yul\":11830:11836   */\n      dup9\n        /* \"#utility.yul\":11786:11857   */\n      tag_362\n      jump\t// in\n    tag_451:\n        /* \"#utility.yul\":11867:11939   */\n      tag_452\n        /* \"#utility.yul\":11935:11937   */\n      0x20\n        /* \"#utility.yul\":11924:11933   */\n      dup4\n        /* \"#utility.yul\":11920:11938   */\n      add\n        /* \"#utility.yul\":11911:11917   */\n      dup8\n        /* \"#utility.yul\":11867:11939   */\n      tag_441\n      jump\t// in\n    tag_452:\n        /* \"#utility.yul\":11949:12021   */\n      tag_453\n        /* \"#utility.yul\":12017:12019   */\n      0x40\n        /* \"#utility.yul\":12006:12015   */\n      dup4\n        /* \"#utility.yul\":12002:12020   */\n      add\n        /* \"#utility.yul\":11993:11999   */\n      dup7\n        /* \"#utility.yul\":11949:12021   */\n      tag_362\n      jump\t// in\n    tag_453:\n        /* \"#utility.yul\":12031:12103   */\n      tag_454\n        /* \"#utility.yul\":12099:12101   */\n      0x60\n        /* \"#utility.yul\":12088:12097   */\n      dup4\n        /* \"#utility.yul\":12084:12102   */\n      add\n        /* \"#utility.yul\":12075:12081   */\n      dup6\n        /* \"#utility.yul\":12031:12103   */\n      tag_441\n      jump\t// in\n    tag_454:\n        /* \"#utility.yul\":12113:12186   */\n      tag_455\n        /* \"#utility.yul\":12181:12184   */\n      0x80\n        /* \"#utility.yul\":12170:12179   */\n      dup4\n        /* \"#utility.yul\":12166:12185   */\n      add\n        /* \"#utility.yul\":12157:12163   */\n      dup5\n        /* \"#utility.yul\":12113:12186   */\n      tag_441\n      jump\t// in\n    tag_455:\n        /* \"#utility.yul\":11739:12193   */\n      swap7\n      swap6\n      pop\n      pop\n      pop\n      pop\n      pop\n      pop\n      jump\t// out\n        /* \"#utility.yul\":12199:12572   */\n    tag_73:\n      0x00\n        /* \"#utility.yul\":12380:12382   */\n      0x20\n        /* \"#utility.yul\":12369:12378   */\n      dup3\n        /* \"#utility.yul\":12365:12383   */\n      add\n        /* \"#utility.yul\":12357:12383   */\n      swap1\n      pop\n        /* \"#utility.yul\":12429:12438   */\n      dup2\n        /* \"#utility.yul\":12423:12427   */\n      dup2\n        /* \"#utility.yul\":12419:12439   */\n      sub\n        /* \"#utility.yul\":12415:12416   */\n      0x00\n        /* \"#utility.yul\":12404:12413   */\n      dup4\n        /* \"#utility.yul\":12400:12417   */\n      add\n        /* \"#utility.yul\":12393:12440   */\n      mstore\n        /* \"#utility.yul\":12457:12565   */\n      tag_457\n        /* \"#utility.yul\":12560:12564   */\n      dup2\n        /* \"#utility.yul\":12551:12557   */\n      dup5\n        /* \"#utility.yul\":12457:12565   */\n      tag_366\n      jump\t// in\n    tag_457:\n        /* \"#utility.yul\":12449:12565   */\n      swap1\n      pop\n        /* \"#utility.yul\":12347:12572   */\n      swap3\n      swap2\n      pop\n      pop\n      jump\t// out\n        /* \"#utility.yul\":12578:12788   */\n    tag_46:\n      0x00\n        /* \"#utility.yul\":12703:12705   */\n      0x20\n        /* \"#utility.yul\":12692:12701   */\n      dup3\n        /* \"#utility.yul\":12688:12706   */\n      add\n        /* \"#utility.yul\":12680:12706   */\n      swap1\n      pop\n        /* \"#utility.yul\":12716:12781   */\n      tag_459\n        /* \"#utility.yul\":12778:12779   */\n      0x00\n        /* \"#utility.yul\":12767:12776   */\n      dup4\n        /* \"#utility.yul\":12763:12780   */\n      add\n        /* \"#utility.yul\":12754:12760   */\n      dup5\n        /* \"#utility.yul\":12716:12781   */\n      tag_380\n      jump\t// in\n    tag_459:\n        /* \"#utility.yul\":12670:12788   */\n      swap3\n      swap2\n      pop\n      pop\n      jump\t// out\n        /* \"#utility.yul\":12794:13213   */\n    tag_305:\n      0x00\n        /* \"#utility.yul\":12998:13000   */\n      0x20\n        /* \"#utility.yul\":12987:12996   */\n      dup3\n        /* \"#utility.yul\":12983:13001   */\n      add\n        /* \"#utility.yul\":12975:13001   */\n      swap1\n      pop\n        /* \"#utility.yul\":13047:13056   */\n      dup2\n        /* \"#utility.yul\":13041:13045   */\n      dup2\n        /* \"#utility.yul\":13037:13057   */\n      sub\n        /* \"#utility.yul\":13033:13034   */\n      0x00\n        /* \"#utility.yul\":13022:13031   */\n      dup4\n        /* \"#utility.yul\":13018:13035   */\n      add\n        /* \"#utility.yul\":13011:13058   */\n      mstore\n        /* \"#utility.yul\":13075:13206   */\n      tag_461\n        /* \"#utility.yul\":13201:13205   */\n      dup2\n        /* \"#utility.yul\":13075:13206   */\n      tag_393\n      jump\t// in\n    tag_461:\n        /* \"#utility.yul\":13067:13206   */\n      swap1\n      pop\n        /* \"#utility.yul\":12965:13213   */\n      swap2\n      swap1\n      pop\n      jump\t// out\n        /* \"#utility.yul\":13219:13638   */\n    tag_269:\n      0x00\n        /* \"#utility.yul\":13423:13425   */\n      0x20\n        /* \"#utility.yul\":13412:13421   */\n      dup3\n        /* \"#utility.yul\":13408:13426   */\n      add\n        /* \"#utility.yul\":13400:13426   */\n      swap1\n      pop\n        /* \"#utility.yul\":13472:13481   */\n      dup2\n        /* \"#utility.yul\":13466:13470   */\n      dup2\n        /* \"#utility.yul\":13462:13482   */\n      sub\n        /* \"#utility.yul\":13458:13459   */\n      0x00\n        /* \"#utility.yul\":13447:13456   */\n      dup4\n        /* \"#utility.yul\":13443:13460   */\n      add\n        /* \"#utility.yul\":13436:13483   */\n      mstore\n        /* \"#utility.yul\":13500:13631   */\n      tag_463\n        /* \"#utility.yul\":13626:13630   */\n      dup2\n        /* \"#utility.yul\":13500:13631   */\n      tag_396\n      jump\t// in\n    tag_463:\n        /* \"#utility.yul\":13492:13631   */\n      swap1\n      pop\n        /* \"#utility.yul\":13390:13638   */\n      swap2\n      swap1\n      pop\n      jump\t// out\n        /* \"#utility.yul\":13644:14063   */\n    tag_150:\n      0x00\n        /* \"#utility.yul\":13848:13850   */\n      0x20\n        /* \"#utility.yul\":13837:13846   */\n      dup3\n        /* \"#utility.yul\":13833:13851   */\n      add\n        /* \"#utility.yul\":13825:13851   */\n      swap1\n      pop\n        /* \"#utility.yul\":13897:13906   */\n      dup2\n        /* \"#utility.yul\":13891:13895   */\n      dup2\n        /* \"#utility.yul\":13887:13907   */\n      sub\n        /* \"#utility.yul\":13883:13884   */\n      0x00\n        /* \"#utility.yul\":13872:13881   */\n      dup4\n        /* \"#utility.yul\":13868:13885   */\n      add\n        /* \"#utility.yul\":13861:13908   */\n      mstore\n        /* \"#utility.yul\":13925:14056   */\n      tag_465\n        /* \"#utility.yul\":14051:14055   */\n      dup2\n        /* \"#utility.yul\":13925:14056   */\n      tag_399\n      jump\t// in\n    tag_465:\n        /* \"#utility.yul\":13917:14056   */\n      swap1\n      pop\n        /* \"#utility.yul\":13815:14063   */\n      swap2\n      swap1\n      pop\n      jump\t// out\n        /* \"#utility.yul\":14069:14488   */\n    tag_225:\n      0x00\n        /* \"#utility.yul\":14273:14275   */\n      0x20\n        /* \"#utility.yul\":14262:14271   */\n      dup3\n        /* \"#utility.yul\":14258:14276   */\n      add\n        /* \"#utility.yul\":14250:14276   */\n      swap1\n      pop\n        /* \"#utility.yul\":14322:14331   */\n      dup2\n        /* \"#utility.yul\":14316:14320   */\n      dup2\n        /* \"#utility.yul\":14312:14332   */\n      sub\n        /* \"#utility.yul\":14308:14309   */\n      0x00\n        /* \"#utility.yul\":14297:14306   */\n      dup4\n        /* \"#utility.yul\":14293:14310   */\n      add\n        /* \"#utility.yul\":14286:14333   */\n      mstore\n        /* \"#utility.yul\":14350:14481   */\n      tag_467\n        /* \"#utility.yul\":14476:14480   */\n      dup2\n        /* \"#utility.yul\":14350:14481   */\n      tag_402\n      jump\t// in\n    tag_467:\n        /* \"#utility.yul\":14342:14481   */\n      swap1\n      pop\n        /* \"#utility.yul\":14240:14488   */\n      swap2\n      swap1\n      pop\n      jump\t// out\n        /* \"#utility.yul\":14494:14913   */\n    tag_182:\n      0x00\n        /* \"#utility.yul\":14698:14700   */\n      0x20\n        /* \"#utility.yul\":14687:14696   */\n      dup3\n        /* \"#utility.yul\":14683:14701   */\n      add\n        /* \"#utility.yul\":14675:14701   */\n      swap1\n      pop\n        /* \"#utility.yul\":14747:14756   */\n      dup2\n        /* \"#utility.yul\":14741:14745   */\n      dup2\n        /* \"#utility.yul\":14737:14757   */\n      sub\n        /* \"#utility.yul\":14733:14734   */\n      0x00\n        /* \"#utility.yul\":14722:14731   */\n      dup4\n        /* \"#utility.yul\":14718:14735   */\n      add\n        /* \"#utility.yul\":14711:14758   */\n      mstore\n        /* \"#utility.yul\":14775:14906   */\n      tag_469\n        /* \"#utility.yul\":14901:14905   */\n      dup2\n        /* \"#utility.yul\":14775:14906   */\n      tag_405\n      jump\t// in\n    tag_469:\n        /* \"#utility.yul\":14767:14906   */\n      swap1\n      pop\n        /* \"#utility.yul\":14665:14913   */\n      swap2\n      swap1\n      pop\n      jump\t// out\n        /* \"#utility.yul\":14919:15338   */\n    tag_185:\n      0x00\n        /* \"#utility.yul\":15123:15125   */\n      0x20\n        /* \"#utility.yul\":15112:15121   */\n      dup3\n        /* \"#utility.yul\":15108:15126   */\n      add\n        /* \"#utility.yul\":15100:15126   */\n      swap1\n      pop\n        /* \"#utility.yul\":15172:15181   */\n      dup2\n        /* \"#utility.yul\":15166:15170   */\n      dup2\n        /* \"#utility.yul\":15162:15182   */\n      sub\n        /* \"#utility.yul\":15158:15159   */\n      0x00\n        /* \"#utility.yul\":15147:15156   */\n      dup4\n        /* \"#utility.yul\":15143:15160   */\n      add\n        /* \"#utility.yul\":15136:15183   */\n      mstore\n        /* \"#utility.yul\":15200:15331   */\n      tag_471\n        /* \"#utility.yul\":15326:15330   */\n      dup2\n        /* \"#utility.yul\":15200:15331   */\n      tag_408\n      jump\t// in\n    tag_471:\n        /* \"#utility.yul\":15192:15331   */\n      swap1\n      pop\n        /* \"#utility.yul\":15090:15338   */\n      swap2\n      swap1\n      pop\n      jump\t// out\n        /* \"#utility.yul\":15344:15763   */\n    tag_280:\n      0x00\n        /* \"#utility.yul\":15548:15550   */\n      0x20\n        /* \"#utility.yul\":15537:15546   */\n      dup3\n        /* \"#utility.yul\":15533:15551   */\n      add\n        /* \"#utility.yul\":15525:15551   */\n      swap1\n      pop\n        /* \"#utility.yul\":15597:15606   */\n      dup2\n        /* \"#utility.yul\":15591:15595   */\n      dup2\n        /* \"#utility.yul\":15587:15607   */\n      sub\n        /* \"#utility.yul\":15583:15584   */\n      0x00\n        /* \"#utility.yul\":15572:15581   */\n      dup4\n        /* \"#utility.yul\":15568:15585   */\n      add\n        /* \"#utility.yul\":15561:15608   */\n      mstore\n        /* \"#utility.yul\":15625:15756   */\n      tag_473\n        /* \"#utility.yul\":15751:15755   */\n      dup2\n        /* \"#utility.yul\":15625:15756   */\n      tag_411\n      jump\t// in\n    tag_473:\n        /* \"#utility.yul\":15617:15756   */\n      swap1\n      pop\n        /* \"#utility.yul\":15515:15763   */\n      swap2\n      swap1\n      pop\n      jump\t// out\n        /* \"#utility.yul\":15769:16188   */\n    tag_127:\n      0x00\n        /* \"#utility.yul\":15973:15975   */\n      0x20\n        /* \"#utility.yul\":15962:15971   */\n      dup3\n        /* \"#utility.yul\":15958:15976   */\n      add\n        /* \"#utility.yul\":15950:15976   */\n      swap1\n      pop\n        /* \"#utility.yul\":16022:16031   */\n      dup2\n        /* \"#utility.yul\":16016:16020   */\n      dup2\n        /* \"#utility.yul\":16012:16032   */\n      sub\n        /* \"#utility.yul\":16008:16009   */\n      0x00\n        /* \"#utility.yul\":15997:16006   */\n      dup4\n        /* \"#utility.yul\":15993:16010   */\n      add\n        /* \"#utility.yul\":15986:16033   */\n      mstore\n        /* \"#utility.yul\":16050:16181   */\n      tag_475\n        /* \"#utility.yul\":16176:16180   */\n      dup2\n        /* \"#utility.yul\":16050:16181   */\n      tag_414\n      jump\t// in\n    tag_475:\n        /* \"#utility.yul\":16042:16181   */\n      swap1\n      pop\n        /* \"#utility.yul\":15940:16188   */\n      swap2\n      swap1\n      pop\n      jump\t// out\n        /* \"#utility.yul\":16194:16613   */\n    tag_179:\n      0x00\n        /* \"#utility.yul\":16398:16400   */\n      0x20\n        /* \"#utility.yul\":16387:16396   */\n      dup3\n        /* \"#utility.yul\":16383:16401   */\n      add\n        /* \"#utility.yul\":16375:16401   */\n      swap1\n      pop\n        /* \"#utility.yul\":16447:16456   */\n      dup2\n        /* \"#utility.yul\":16441:16445   */\n      dup2\n        /* \"#utility.yul\":16437:16457   */\n      sub\n        /* \"#utility.yul\":16433:16434   */\n      0x00\n        /* \"#utility.yul\":16422:16431   */\n      dup4\n        /* \"#utility.yul\":16418:16435   */\n      add\n        /* \"#utility.yul\":16411:16458   */\n      mstore\n        /* \"#utility.yul\":16475:16606   */\n      tag_477\n        /* \"#utility.yul\":16601:16605   */\n      dup2\n        /* \"#utility.yul\":16475:16606   */\n      tag_417\n      jump\t// in\n    tag_477:\n        /* \"#utility.yul\":16467:16606   */\n      swap1\n      pop\n        /* \"#utility.yul\":16365:16613   */\n      swap2\n      swap1\n      pop\n      jump\t// out\n        /* \"#utility.yul\":16619:17038   */\n    tag_287:\n      0x00\n        /* \"#utility.yul\":16823:16825   */\n      0x20\n        /* \"#utility.yul\":16812:16821   */\n      dup3\n        /* \"#utility.yul\":16808:16826   */\n      add\n        /* \"#utility.yul\":16800:16826   */\n      swap1\n      pop\n        /* \"#utility.yul\":16872:16881   */\n      dup2\n        /* \"#utility.yul\":16866:16870   */\n      dup2\n        /* \"#utility.yul\":16862:16882   */\n      sub\n        /* \"#utility.yul\":16858:16859   */\n      0x00\n        /* \"#utility.yul\":16847:16856   */\n      dup4\n        /* \"#utility.yul\":16843:16860   */\n      add\n        /* \"#utility.yul\":16836:16883   */\n      mstore\n        /* \"#utility.yul\":16900:17031   */\n      tag_479\n        /* \"#utility.yul\":17026:17030   */\n      dup2\n        /* \"#utility.yul\":16900:17031   */\n      tag_420\n      jump\t// in\n    tag_479:\n        /* \"#utility.yul\":16892:17031   */\n      swap1\n      pop\n        /* \"#utility.yul\":16790:17038   */\n      swap2\n      swap1\n      pop\n      jump\t// out\n        /* \"#utility.yul\":17044:17463   */\n    tag_141:\n      0x00\n        /* \"#utility.yul\":17248:17250   */\n      0x20\n        /* \"#utility.yul\":17237:17246   */\n      dup3\n        /* \"#utility.yul\":17233:17251   */\n      add\n        /* \"#utility.yul\":17225:17251   */\n      swap1\n      pop\n        /* \"#utility.yul\":17297:17306   */\n      dup2\n        /* \"#utility.yul\":17291:17295   */\n      dup2\n        /* \"#utility.yul\":17287:17307   */\n      sub\n        /* \"#utility.yul\":17283:17284   */\n      0x00\n        /* \"#utility.yul\":17272:17281   */\n      dup4\n        /* \"#utility.yul\":17268:17285   */\n      add\n        /* \"#utility.yul\":17261:17308   */\n      mstore\n        /* \"#utility.yul\":17325:17456   */\n      tag_481\n        /* \"#utility.yul\":17451:17455   */\n      dup2\n        /* \"#utility.yul\":17325:17456   */\n      tag_423\n      jump\t// in\n    tag_481:\n        /* \"#utility.yul\":17317:17456   */\n      swap1\n      pop\n        /* \"#utility.yul\":17215:17463   */\n      swap2\n      swap1\n      pop\n      jump\t// out\n        /* \"#utility.yul\":17469:17888   */\n    tag_138:\n      0x00\n        /* \"#utility.yul\":17673:17675   */\n      0x20\n        /* \"#utility.yul\":17662:17671   */\n      dup3\n        /* \"#utility.yul\":17658:17676   */\n      add\n        /* \"#utility.yul\":17650:17676   */\n      swap1\n      pop\n        /* \"#utility.yul\":17722:17731   */\n      dup2\n        /* \"#utility.yul\":17716:17720   */\n      dup2\n        /* \"#utility.yul\":17712:17732   */\n      sub\n        /* \"#utility.yul\":17708:17709   */\n      0x00\n        /* \"#utility.yul\":17697:17706   */\n      dup4\n        /* \"#utility.yul\":17693:17710   */\n      add\n        /* \"#utility.yul\":17686:17733   */\n      mstore\n        /* \"#utility.yul\":17750:17881   */\n      tag_483\n        /* \"#utility.yul\":17876:17880   */\n      dup2\n        /* \"#utility.yul\":17750:17881   */\n      tag_426\n      jump\t// in\n    tag_483:\n        /* \"#utility.yul\":17742:17881   */\n      swap1\n      pop\n        /* \"#utility.yul\":17640:17888   */\n      swap2\n      swap1\n      pop\n      jump\t// out\n        /* \"#utility.yul\":17894:18313   */\n    tag_176:\n      0x00\n        /* \"#utility.yul\":18098:18100   */\n      0x20\n        /* \"#utility.yul\":18087:18096   */\n      dup3\n        /* \"#utility.yul\":18083:18101   */\n      add\n        /* \"#utility.yul\":18075:18101   */\n      swap1\n      pop\n        /* \"#utility.yul\":18147:18156   */\n      dup2\n        /* \"#utility.yul\":18141:18145   */\n      dup2\n        /* \"#utility.yul\":18137:18157   */\n      sub\n        /* \"#utility.yul\":18133:18134   */\n      0x00\n        /* \"#utility.yul\":18122:18131   */\n      dup4\n        /* \"#utility.yul\":18118:18135   */\n      add\n        /* \"#utility.yul\":18111:18158   */\n      mstore\n        /* \"#utility.yul\":18175:18306   */\n      tag_485\n        /* \"#utility.yul\":18301:18305   */\n      dup2\n        /* \"#utility.yul\":18175:18306   */\n      tag_429\n      jump\t// in\n    tag_485:\n        /* \"#utility.yul\":18167:18306   */\n      swap1\n      pop\n        /* \"#utility.yul\":18065:18313   */\n      swap2\n      swap1\n      pop\n      jump\t// out\n        /* \"#utility.yul\":18319:18738   */\n    tag_274:\n      0x00\n        /* \"#utility.yul\":18523:18525   */\n      0x20\n        /* \"#utility.yul\":18512:18521   */\n      dup3\n        /* \"#utility.yul\":18508:18526   */\n      add\n        /* \"#utility.yul\":18500:18526   */\n      swap1\n      pop\n        /* \"#utility.yul\":18572:18581   */\n      dup2\n        /* \"#utility.yul\":18566:18570   */\n      dup2\n        /* \"#utility.yul\":18562:18582   */\n      sub\n        /* \"#utility.yul\":18558:18559   */\n      0x00\n        /* \"#utility.yul\":18547:18556   */\n      dup4\n        /* \"#utility.yul\":18543:18560   */\n      add\n        /* \"#utility.yul\":18536:18583   */\n      mstore\n        /* \"#utility.yul\":18600:18731   */\n      tag_487\n        /* \"#utility.yul\":18726:18730   */\n      dup2\n        /* \"#utility.yul\":18600:18731   */\n      tag_432\n      jump\t// in\n    tag_487:\n        /* \"#utility.yul\":18592:18731   */\n      swap1\n      pop\n        /* \"#utility.yul\":18490:18738   */\n      swap2\n      swap1\n      pop\n      jump\t// out\n        /* \"#utility.yul\":18744:19163   */\n    tag_202:\n      0x00\n        /* \"#utility.yul\":18948:18950   */\n      0x20\n        /* \"#utility.yul\":18937:18946   */\n      dup3\n        /* \"#utility.yul\":18933:18951   */\n      add\n        /* \"#utility.yul\":18925:18951   */\n      swap1\n      pop\n        /* \"#utility.yul\":18997:19006   */\n      dup2\n        /* \"#utility.yul\":18991:18995   */\n      dup2\n        /* \"#utility.yul\":18987:19007   */\n      sub\n        /* \"#utility.yul\":18983:18984   */\n      0x00\n        /* \"#utility.yul\":18972:18981   */\n      dup4\n        /* \"#utility.yul\":18968:18985   */\n      add\n        /* \"#utility.yul\":18961:19008   */\n      mstore\n        /* \"#utility.yul\":19025:19156   */\n      tag_489\n        /* \"#utility.yul\":19151:19155   */\n      dup2\n        /* \"#utility.yul\":19025:19156   */\n      tag_435\n      jump\t// in\n    tag_489:\n        /* \"#utility.yul\":19017:19156   */\n      swap1\n      pop\n        /* \"#utility.yul\":18915:19163   */\n      swap2\n      swap1\n      pop\n      jump\t// out\n        /* \"#utility.yul\":19169:19391   */\n    tag_78:\n      0x00\n        /* \"#utility.yul\":19300:19302   */\n      0x20\n        /* \"#utility.yul\":19289:19298   */\n      dup3\n        /* \"#utility.yul\":19285:19303   */\n      add\n        /* \"#utility.yul\":19277:19303   */\n      swap1\n      pop\n        /* \"#utility.yul\":19313:19384   */\n      tag_491\n        /* \"#utility.yul\":19381:19382   */\n      0x00\n        /* \"#utility.yul\":19370:19379   */\n      dup4\n        /* \"#utility.yul\":19366:19383   */\n      add\n        /* \"#utility.yul\":19357:19363   */\n      dup5\n        /* \"#utility.yul\":19313:19384   */\n      tag_441\n      jump\t// in\n    tag_491:\n        /* \"#utility.yul\":19267:19391   */\n      swap3\n      swap2\n      pop\n      pop\n      jump\t// out\n        /* \"#utility.yul\":19397:19930   */\n    tag_96:\n      0x00\n        /* \"#utility.yul\":19604:19606   */\n      0x60\n        /* \"#utility.yul\":19593:19602   */\n      dup3\n        /* \"#utility.yul\":19589:19607   */\n      add\n        /* \"#utility.yul\":19581:19607   */\n      swap1\n      pop\n        /* \"#utility.yul\":19617:19688   */\n      tag_493\n        /* \"#utility.yul\":19685:19686   */\n      0x00\n        /* \"#utility.yul\":19674:19683   */\n      dup4\n        /* \"#utility.yul\":19670:19687   */\n      add\n        /* \"#utility.yul\":19661:19667   */\n      dup7\n        /* \"#utility.yul\":19617:19688   */\n      tag_441\n      jump\t// in\n    tag_493:\n        /* \"#utility.yul\":19698:19770   */\n      tag_494\n        /* \"#utility.yul\":19766:19768   */\n      0x20\n        /* \"#utility.yul\":19755:19764   */\n      dup4\n        /* \"#utility.yul\":19751:19769   */\n      add\n        /* \"#utility.yul\":19742:19748   */\n      dup6\n        /* \"#utility.yul\":19698:19770   */\n      tag_441\n      jump\t// in\n    tag_494:\n        /* \"#utility.yul\":19817:19826   */\n      dup2\n        /* \"#utility.yul\":19811:19815   */\n      dup2\n        /* \"#utility.yul\":19807:19827   */\n      sub\n        /* \"#utility.yul\":19802:19804   */\n      0x40\n        /* \"#utility.yul\":19791:19800   */\n      dup4\n        /* \"#utility.yul\":19787:19805   */\n      add\n        /* \"#utility.yul\":19780:19828   */\n      mstore\n        /* \"#utility.yul\":19845:19923   */\n      tag_495\n        /* \"#utility.yul\":19918:19922   */\n      dup2\n        /* \"#utility.yul\":19909:19915   */\n      dup5\n        /* \"#utility.yul\":19845:19923   */\n      tag_384\n      jump\t// in\n    tag_495:\n        /* \"#utility.yul\":19837:19923   */\n      swap1\n      pop\n        /* \"#utility.yul\":19571:19930   */\n      swap5\n      swap4\n      pop\n      pop\n      pop\n      pop\n      jump\t// out\n        /* \"#utility.yul\":19936:20378   */\n    tag_156:\n      0x00\n        /* \"#utility.yul\":20123:20125   */\n      0x60\n        /* \"#utility.yul\":20112:20121   */\n      dup3\n        /* \"#utility.yul\":20108:20126   */\n      add\n        /* \"#utility.yul\":20100:20126   */\n      swap1\n      pop\n        /* \"#utility.yul\":20136:20207   */\n      tag_497\n        /* \"#utility.yul\":20204:20205   */\n      0x00\n        /* \"#utility.yul\":20193:20202   */\n      dup4\n        /* \"#utility.yul\":20189:20206   */\n      add\n        /* \"#utility.yul\":20180:20186   */\n      dup7\n        /* \"#utility.yul\":20136:20207   */\n      tag_441\n      jump\t// in\n    tag_497:\n        /* \"#utility.yul\":20217:20289   */\n      tag_498\n        /* \"#utility.yul\":20285:20287   */\n      0x20\n        /* \"#utility.yul\":20274:20283   */\n      dup4\n        /* \"#utility.yul\":20270:20288   */\n      add\n        /* \"#utility.yul\":20261:20267   */\n      dup6\n        /* \"#utility.yul\":20217:20289   */\n      tag_441\n      jump\t// in\n    tag_498:\n        /* \"#utility.yul\":20299:20371   */\n      tag_499\n        /* \"#utility.yul\":20367:20369   */\n      0x40\n        /* \"#utility.yul\":20356:20365   */\n      dup4\n        /* \"#utility.yul\":20352:20370   */\n      add\n        /* \"#utility.yul\":20343:20349   */\n      dup5\n        /* \"#utility.yul\":20299:20371   */\n      tag_441\n      jump\t// in\n    tag_499:\n        /* \"#utility.yul\":20090:20378   */\n      swap5\n      swap4\n      pop\n      pop\n      pop\n      pop\n      jump\t// out\n        /* \"#utility.yul\":20384:20667   */\n    tag_312:\n      0x00\n        /* \"#utility.yul\":20450:20452   */\n      0x40\n        /* \"#utility.yul\":20444:20453   */\n      mload\n        /* \"#utility.yul\":20434:20453   */\n      swap1\n      pop\n        /* \"#utility.yul\":20492:20496   */\n      dup2\n        /* \"#utility.yul\":20484:20490   */\n      dup2\n        /* \"#utility.yul\":20480:20497   */\n      add\n        /* \"#utility.yul\":20599:20605   */\n      dup2\n        /* \"#utility.yul\":20587:20597   */\n      dup2\n        /* \"#utility.yul\":20584:20606   */\n      lt\n        /* \"#utility.yul\":20563:20581   */\n      0xffffffffffffffff\n        /* \"#utility.yul\":20551:20561   */\n      dup3\n        /* \"#utility.yul\":20548:20582   */\n      gt\n        /* \"#utility.yul\":20545:20607   */\n      or\n        /* \"#utility.yul\":20542:20544   */\n      iszero\n      tag_501\n      jumpi\n        /* \"#utility.yul\":20610:20628   */\n      tag_502\n      tag_503\n      jump\t// in\n    tag_502:\n        /* \"#utility.yul\":20542:20544   */\n    tag_501:\n        /* \"#utility.yul\":20650:20660   */\n      dup1\n        /* \"#utility.yul\":20646:20648   */\n      0x40\n        /* \"#utility.yul\":20639:20661   */\n      mstore\n        /* \"#utility.yul\":20424:20667   */\n      pop\n      swap2\n      swap1\n      pop\n      jump\t// out\n        /* \"#utility.yul\":20673:21005   */\n    tag_311:\n      0x00\n        /* \"#utility.yul\":20825:20843   */\n      0xffffffffffffffff\n        /* \"#utility.yul\":20817:20823   */\n      dup3\n        /* \"#utility.yul\":20814:20844   */\n      gt\n        /* \"#utility.yul\":20811:20813   */\n      iszero\n      tag_505\n      jumpi\n        /* \"#utility.yul\":20847:20865   */\n      tag_506\n      tag_503\n      jump\t// in\n    tag_506:\n        /* \"#utility.yul\":20811:20813   */\n    tag_505:\n        /* \"#utility.yul\":20932:20936   */\n      0x1f\n        /* \"#utility.yul\":20928:20937   */\n      not\n        /* \"#utility.yul\":20921:20925   */\n      0x1f\n        /* \"#utility.yul\":20913:20919   */\n      dup4\n        /* \"#utility.yul\":20909:20926   */\n      add\n        /* \"#utility.yul\":20905:20938   */\n      and\n        /* \"#utility.yul\":20897:20938   */\n      swap1\n      pop\n        /* \"#utility.yul\":20993:20997   */\n      0x20\n        /* \"#utility.yul\":20987:20991   */\n      dup2\n        /* \"#utility.yul\":20983:20998   */\n      add\n        /* \"#utility.yul\":20975:20998   */\n      swap1\n      pop\n        /* \"#utility.yul\":20740:21005   */\n      swap2\n      swap1\n      pop\n      jump\t// out\n        /* \"#utility.yul\":21011:21143   */\n    tag_373:\n      0x00\n        /* \"#utility.yul\":21101:21104   */\n      dup2\n        /* \"#utility.yul\":21093:21104   */\n      swap1\n      pop\n        /* \"#utility.yul\":21131:21135   */\n      0x20\n        /* \"#utility.yul\":21126:21129   */\n      dup3\n        /* \"#utility.yul\":21122:21136   */\n      add\n        /* \"#utility.yul\":21114:21136   */\n      swap1\n      pop\n        /* \"#utility.yul\":21083:21143   */\n      swap2\n      swap1\n      pop\n      jump\t// out\n        /* \"#utility.yul\":21149:21263   */\n    tag_369:\n      0x00\n        /* \"#utility.yul\":21250:21255   */\n      dup2\n        /* \"#utility.yul\":21244:21256   */\n      mload\n        /* \"#utility.yul\":21234:21256   */\n      swap1\n      pop\n        /* \"#utility.yul\":21223:21263   */\n      swap2\n      swap1\n      pop\n      jump\t// out\n        /* \"#utility.yul\":21269:21368   */\n    tag_387:\n      0x00\n        /* \"#utility.yul\":21355:21360   */\n      dup2\n        /* \"#utility.yul\":21349:21361   */\n      mload\n        /* \"#utility.yul\":21339:21361   */\n      swap1\n      pop\n        /* \"#utility.yul\":21328:21368   */\n      swap2\n      swap1\n      pop\n      jump\t// out\n        /* \"#utility.yul\":21374:21487   */\n    tag_379:\n      0x00\n        /* \"#utility.yul\":21476:21480   */\n      0x20\n        /* \"#utility.yul\":21471:21474   */\n      dup3\n        /* \"#utility.yul\":21467:21481   */\n      add\n        /* \"#utility.yul\":21459:21481   */\n      swap1\n      pop\n        /* \"#utility.yul\":21449:21487   */\n      swap2\n      swap1\n      pop\n      jump\t// out\n        /* \"#utility.yul\":21493:21677   */\n    tag_371:\n      0x00\n        /* \"#utility.yul\":21626:21632   */\n      dup3\n        /* \"#utility.yul\":21621:21624   */\n      dup3\n        /* \"#utility.yul\":21614:21633   */\n      mstore\n        /* \"#utility.yul\":21666:21670   */\n      0x20\n        /* \"#utility.yul\":21661:21664   */\n      dup3\n        /* \"#utility.yul\":21657:21671   */\n      add\n        /* \"#utility.yul\":21642:21671   */\n      swap1\n      pop\n        /* \"#utility.yul\":21604:21677   */\n      swap3\n      swap2\n      pop\n      pop\n      jump\t// out\n        /* \"#utility.yul\":21683:21852   */\n    tag_389:\n      0x00\n        /* \"#utility.yul\":21801:21807   */\n      dup3\n        /* \"#utility.yul\":21796:21799   */\n      dup3\n        /* \"#utility.yul\":21789:21808   */\n      mstore\n        /* \"#utility.yul\":21841:21845   */\n      0x20\n        /* \"#utility.yul\":21836:21839   */\n      dup3\n        /* \"#utility.yul\":21832:21846   */\n      add\n        /* \"#utility.yul\":21817:21846   */\n      swap1\n      pop\n        /* \"#utility.yul\":21779:21852   */\n      swap3\n      swap2\n      pop\n      pop\n      jump\t// out\n        /* \"#utility.yul\":21858:22163   */\n    tag_152:\n      0x00\n        /* \"#utility.yul\":21917:21937   */\n      tag_514\n        /* \"#utility.yul\":21935:21936   */\n      dup3\n        /* \"#utility.yul\":21917:21937   */\n      tag_440\n      jump\t// in\n    tag_514:\n        /* \"#utility.yul\":21912:21937   */\n      swap2\n      pop\n        /* \"#utility.yul\":21951:21971   */\n      tag_515\n        /* \"#utility.yul\":21969:21970   */\n      dup4\n        /* \"#utility.yul\":21951:21971   */\n      tag_440\n      jump\t// in\n    tag_515:\n        /* \"#utility.yul\":21946:21971   */\n      swap3\n      pop\n        /* \"#utility.yul\":22105:22106   */\n      dup3\n        /* \"#utility.yul\":22037:22103   */\n      0xffffffffffffffffffffffffffffffffffffffffffffffffffffffffffffffff\n        /* \"#utility.yul\":22033:22107   */\n      sub\n        /* \"#utility.yul\":22030:22031   */\n      dup3\n        /* \"#utility.yul\":22027:22108   */\n      gt\n        /* \"#utility.yul\":22024:22026   */\n      iszero\n      tag_516\n      jumpi\n        /* \"#utility.yul\":22111:22129   */\n      tag_517\n      tag_518\n      jump\t// in\n    tag_517:\n        /* \"#utility.yul\":22024:22026   */\n    tag_516:\n        /* \"#utility.yul\":22155:22156   */\n      dup3\n        /* \"#utility.yul\":22152:22153   */\n      dup3\n        /* \"#utility.yul\":22148:22157   */\n      add\n        /* \"#utility.yul\":22141:22157   */\n      swap1\n      pop\n        /* \"#utility.yul\":21902:22163   */\n      swap3\n      swap2\n      pop\n      pop\n      jump\t// out\n        /* \"#utility.yul\":22169:22354   */\n    tag_189:\n      0x00\n        /* \"#utility.yul\":22226:22246   */\n      tag_520\n        /* \"#utility.yul\":22244:22245   */\n      dup3\n        /* \"#utility.yul\":22226:22246   */\n      tag_440\n      jump\t// in\n    tag_520:\n        /* \"#utility.yul\":22221:22246   */\n      swap2\n      pop\n        /* \"#utility.yul\":22260:22280   */\n      tag_521\n        /* \"#utility.yul\":22278:22279   */\n      dup4\n        /* \"#utility.yul\":22260:22280   */\n      tag_440\n      jump\t// in\n    tag_521:\n        /* \"#utility.yul\":22255:22280   */\n      swap3\n      pop\n        /* \"#utility.yul\":22299:22300   */\n      dup3\n        /* \"#utility.yul\":22289:22291   */\n      tag_522\n      jumpi\n        /* \"#utility.yul\":22304:22322   */\n      tag_523\n      tag_524\n      jump\t// in\n    tag_523:\n        /* \"#utility.yul\":22289:22291   */\n    tag_522:\n        /* \"#utility.yul\":22346:22347   */\n      dup3\n        /* \"#utility.yul\":22343:22344   */\n      dup3\n        /* \"#utility.yul\":22339:22348   */\n      div\n        /* \"#utility.yul\":22334:22348   */\n      swap1\n      pop\n        /* \"#utility.yul\":22211:22354   */\n      swap3\n      swap2\n      pop\n      pop\n      jump\t// out\n        /* \"#utility.yul\":22360:22708   */\n    tag_187:\n      0x00\n        /* \"#utility.yul\":22423:22443   */\n      tag_526\n        /* \"#utility.yul\":22441:22442   */\n      dup3\n        /* \"#utility.yul\":22423:22443   */\n      tag_440\n      jump\t// in\n    tag_526:\n        /* \"#utility.yul\":22418:22443   */\n      swap2\n      pop\n        /* \"#utility.yul\":22457:22477   */\n      tag_527\n        /* \"#utility.yul\":22475:22476   */\n      dup4\n        /* \"#utility.yul\":22457:22477   */\n      tag_440\n      jump\t// in\n    tag_527:\n        /* \"#utility.yul\":22452:22477   */\n      swap3\n      pop\n        /* \"#utility.yul\":22645:22646   */\n      dup2\n        /* \"#utility.yul\":22577:22643   */\n      0xffffffffffffffffffffffffffffffffffffffffffffffffffffffffffffffff\n        /* \"#utility.yul\":22573:22647   */\n      div\n        /* \"#utility.yul\":22570:22571   */\n      dup4\n        /* \"#utility.yul\":22567:22648   */\n      gt\n        /* \"#utility.yul\":22562:22563   */\n      dup3\n        /* \"#utility.yul\":22555:22564   */\n      iszero\n        /* \"#utility.yul\":22548:22565   */\n      iszero\n        /* \"#utility.yul\":22544:22649   */\n      and\n        /* \"#utility.yul\":22541:22543   */\n      iszero\n      tag_528\n      jumpi\n        /* \"#utility.yul\":22652:22670   */\n      tag_529\n      tag_518\n      jump\t// in\n    tag_529:\n        /* \"#utility.yul\":22541:22543   */\n    tag_528:\n        /* \"#utility.yul\":22700:22701   */\n      dup3\n        /* \"#utility.yul\":22697:22698   */\n      dup3\n        /* \"#utility.yul\":22693:22702   */\n      mul\n        /* \"#utility.yul\":22682:22702   */\n      swap1\n      pop\n        /* \"#utility.yul\":22408:22708   */\n      swap3\n      swap2\n      pop\n      pop\n      jump\t// out\n        /* \"#utility.yul\":22714:22905   */\n    tag_193:\n      0x00\n        /* \"#utility.yul\":22774:22794   */\n      tag_531\n        /* \"#utility.yul\":22792:22793   */\n      dup3\n        /* \"#utility.yul\":22774:22794   */\n      tag_440\n      jump\t// in\n    tag_531:\n        /* \"#utility.yul\":22769:22794   */\n      swap2\n      pop\n        /* \"#utility.yul\":22808:22828   */\n      tag_532\n        /* \"#utility.yul\":22826:22827   */\n      dup4\n        /* \"#utility.yul\":22808:22828   */\n      tag_440\n      jump\t// in\n    tag_532:\n        /* \"#utility.yul\":22803:22828   */\n      swap3\n      pop\n        /* \"#utility.yul\":22847:22848   */\n      dup3\n        /* \"#utility.yul\":22844:22845   */\n      dup3\n        /* \"#utility.yul\":22841:22849   */\n      lt\n        /* \"#utility.yul\":22838:22840   */\n      iszero\n      tag_533\n      jumpi\n        /* \"#utility.yul\":22852:22870   */\n      tag_534\n      tag_518\n      jump\t// in\n    tag_534:\n        /* \"#utility.yul\":22838:22840   */\n    tag_533:\n        /* \"#utility.yul\":22897:22898   */\n      dup3\n        /* \"#utility.yul\":22894:22895   */\n      dup3\n        /* \"#utility.yul\":22890:22899   */\n      sub\n        /* \"#utility.yul\":22882:22899   */\n      swap1\n      pop\n        /* \"#utility.yul\":22759:22905   */\n      swap3\n      swap2\n      pop\n      pop\n      jump\t// out\n        /* \"#utility.yul\":22911:23007   */\n    tag_365:\n      0x00\n        /* \"#utility.yul\":22977:23001   */\n      tag_536\n        /* \"#utility.yul\":22995:23000   */\n      dup3\n        /* \"#utility.yul\":22977:23001   */\n      tag_537\n      jump\t// in\n    tag_536:\n        /* \"#utility.yul\":22966:23001   */\n      swap1\n      pop\n        /* \"#utility.yul\":22956:23007   */\n      swap2\n      swap1\n      pop\n      jump\t// out\n        /* \"#utility.yul\":23013:23103   */\n    tag_383:\n      0x00\n        /* \"#utility.yul\":23090:23095   */\n      dup2\n        /* \"#utility.yul\":23083:23096   */\n      iszero\n        /* \"#utility.yul\":23076:23097   */\n      iszero\n        /* \"#utility.yul\":23065:23097   */\n      swap1\n      pop\n        /* \"#utility.yul\":23055:23103   */\n      swap2\n      swap1\n      pop\n      jump\t// out\n        /* \"#utility.yul\":23109:23235   */\n    tag_537:\n      0x00\n        /* \"#utility.yul\":23186:23228   */\n      0xffffffffffffffffffffffffffffffffffffffff\n        /* \"#utility.yul\":23179:23184   */\n      dup3\n        /* \"#utility.yul\":23175:23229   */\n      and\n        /* \"#utility.yul\":23164:23229   */\n      swap1\n      pop\n        /* \"#utility.yul\":23154:23235   */\n      swap2\n      swap1\n      pop\n      jump\t// out\n        /* \"#utility.yul\":23241:23318   */\n    tag_440:\n      0x00\n        /* \"#utility.yul\":23307:23312   */\n      dup2\n        /* \"#utility.yul\":23296:23312   */\n      swap1\n      pop\n        /* \"#utility.yul\":23286:23318   */\n      swap2\n      swap1\n      pop\n      jump\t// out\n        /* \"#utility.yul\":23324:23631   */\n    tag_315:\n        /* \"#utility.yul\":23392:23393   */\n      0x00\n        /* \"#utility.yul\":23402:23515   */\n    tag_542:\n        /* \"#utility.yul\":23416:23422   */\n      dup4\n        /* \"#utility.yul\":23413:23414   */\n      dup2\n        /* \"#utility.yul\":23410:23423   */\n      lt\n        /* \"#utility.yul\":23402:23515   */\n      iszero\n      tag_544\n      jumpi\n        /* \"#utility.yul\":23501:23502   */\n      dup1\n        /* \"#utility.yul\":23496:23499   */\n      dup3\n        /* \"#utility.yul\":23492:23503   */\n      add\n        /* \"#utility.yul\":23486:23504   */\n      mload\n        /* \"#utility.yul\":23482:23483   */\n      dup2\n        /* \"#utility.yul\":23477:23480   */\n      dup5\n        /* \"#utility.yul\":23473:23484   */\n      add\n        /* \"#utility.yul\":23466:23505   */\n      mstore\n        /* \"#utility.yul\":23438:23440   */\n      0x20\n        /* \"#utility.yul\":23435:23436   */\n      dup2\n        /* \"#utility.yul\":23431:23441   */\n      add\n        /* \"#utility.yul\":23426:23441   */\n      swap1\n      pop\n        /* \"#utility.yul\":23402:23515   */\n      jump(tag_542)\n    tag_544:\n        /* \"#utility.yul\":23533:23539   */\n      dup4\n        /* \"#utility.yul\":23530:23531   */\n      dup2\n        /* \"#utility.yul\":23527:23540   */\n      gt\n        /* \"#utility.yul\":23524:23526   */\n      iszero\n      tag_545\n      jumpi\n        /* \"#utility.yul\":23613:23614   */\n      0x00\n        /* \"#utility.yul\":23604:23610   */\n      dup5\n        /* \"#utility.yul\":23599:23602   */\n      dup5\n        /* \"#utility.yul\":23595:23611   */\n      add\n        /* \"#utility.yul\":23588:23615   */\n      mstore\n        /* \"#utility.yul\":23524:23526   */\n    tag_545:\n        /* \"#utility.yul\":23373:23631   */\n      pop\n      pop\n      pop\n      pop\n      jump\t// out\n        /* \"#utility.yul\":23637:23870   */\n    tag_158:\n      0x00\n        /* \"#utility.yul\":23699:23723   */\n      tag_547\n        /* \"#utility.yul\":23717:23722   */\n      dup3\n        /* \"#utility.yul\":23699:23723   */\n      tag_440\n      jump\t// in\n    tag_547:\n        /* \"#utility.yul\":23690:23723   */\n      swap2\n      pop\n        /* \"#utility.yul\":23745:23811   */\n      0xffffffffffffffffffffffffffffffffffffffffffffffffffffffffffffffff\n        /* \"#utility.yul\":23738:23743   */\n      dup3\n        /* \"#utility.yul\":23735:23812   */\n      eq\n        /* \"#utility.yul\":23732:23734   */\n      iszero\n      tag_548\n      jumpi\n        /* \"#utility.yul\":23815:23833   */\n      tag_549\n      tag_518\n      jump\t// in\n    tag_549:\n        /* \"#utility.yul\":23732:23734   */\n    tag_548:\n        /* \"#utility.yul\":23862:23863   */\n      0x01\n        /* \"#utility.yul\":23855:23860   */\n      dup3\n        /* \"#utility.yul\":23851:23864   */\n      add\n        /* \"#utility.yul\":23844:23864   */\n      swap1\n      pop\n        /* \"#utility.yul\":23680:23870   */\n      swap2\n      swap1\n      pop\n      jump\t// out\n        /* \"#utility.yul\":23876:24056   */\n    tag_518:\n        /* \"#utility.yul\":23924:24001   */\n      0x4e487b7100000000000000000000000000000000000000000000000000000000\n        /* \"#utility.yul\":23921:23922   */\n      0x00\n        /* \"#utility.yul\":23914:24002   */\n      mstore\n        /* \"#utility.yul\":24021:24025   */\n      0x11\n        /* \"#utility.yul\":24018:24019   */\n      0x04\n        /* \"#utility.yul\":24011:24026   */\n      mstore\n        /* \"#utility.yul\":24045:24049   */\n      0x24\n        /* \"#utility.yul\":24042:24043   */\n      0x00\n        /* \"#utility.yul\":24035:24050   */\n      revert\n        /* \"#utility.yul\":24062:24242   */\n    tag_524:\n        /* \"#utility.yul\":24110:24187   */\n      0x4e487b7100000000000000000000000000000000000000000000000000000000\n        /* \"#utility.yul\":24107:24108   */\n      0x00\n        /* \"#utility.yul\":24100:24188   */\n      mstore\n        /* \"#utility.yul\":24207:24211   */\n      0x12\n        /* \"#utility.yul\":24204:24205   */\n      0x04\n        /* \"#utility.yul\":24197:24212   */\n      mstore\n        /* \"#utility.yul\":24231:24235   */\n      0x24\n        /* \"#utility.yul\":24228:24229   */\n      0x00\n        /* \"#utility.yul\":24221:24236   */\n      revert\n        /* \"#utility.yul\":24248:24428   */\n    tag_503:\n        /* \"#utility.yul\":24296:24373   */\n      0x4e487b7100000000000000000000000000000000000000000000000000000000\n        /* \"#utility.yul\":24293:24294   */\n      0x00\n        /* \"#utility.yul\":24286:24374   */\n      mstore\n        /* \"#utility.yul\":24393:24397   */\n      0x41\n        /* \"#utility.yul\":24390:24391   */\n      0x04\n        /* \"#utility.yul\":24383:24398   */\n      mstore\n        /* \"#utility.yul\":24417:24421   */\n      0x24\n        /* \"#utility.yul\":24414:24415   */\n      0x00\n        /* \"#utility.yul\":24407:24422   */\n      revert\n        /* \"#utility.yul\":24434:24536   */\n    tag_392:\n      0x00\n        /* \"#utility.yul\":24526:24528   */\n      0x1f\n        /* \"#utility.yul\":24522:24529   */\n      not\n        /* \"#utility.yul\":24517:24519   */\n      0x1f\n        /* \"#utility.yul\":24510:24515   */\n      dup4\n        /* \"#utility.yul\":24506:24520   */\n      add\n        /* \"#utility.yul\":24502:24530   */\n      and\n        /* \"#utility.yul\":24492:24530   */\n      swap1\n      pop\n        /* \"#utility.yul\":24482:24536   */\n      swap2\n      swap1\n      pop\n      jump\t// out\n        /* \"#utility.yul\":24542:24664   */\n    tag_319:\n        /* \"#utility.yul\":24615:24639   */\n      tag_555\n        /* \"#utility.yul\":24633:24638   */\n      dup2\n        /* \"#utility.yul\":24615:24639   */\n      tag_365\n      jump\t// in\n    tag_555:\n        /* \"#utility.yul\":24608:24613   */\n      dup2\n        /* \"#utility.yul\":24605:24640   */\n      eq\n        /* \"#utility.yul\":24595:24597   */\n      tag_556\n      jumpi\n        /* \"#utility.yul\":24654:24655   */\n      0x00\n        /* \"#utility.yul\":24651:24652   */\n      dup1\n        /* \"#utility.yul\":24644:24656   */\n      revert\n        /* \"#utility.yul\":24595:24597   */\n    tag_556:\n        /* \"#utility.yul\":24585:24664   */\n      pop\n      jump\t// out\n        /* \"#utility.yul\":24670:24792   */\n    tag_330:\n        /* \"#utility.yul\":24743:24767   */\n      tag_558\n        /* \"#utility.yul\":24761:24766   */\n      dup2\n        /* \"#utility.yul\":24743:24767   */\n      tag_440\n      jump\t// in\n    tag_558:\n        /* \"#utility.yul\":24736:24741   */\n      dup2\n        /* \"#utility.yul\":24733:24768   */\n      eq\n        /* \"#utility.yul\":24723:24725   */\n      tag_559\n      jumpi\n        /* \"#utility.yul\":24782:24783   */\n      0x00\n        /* \"#utility.yul\":24779:24780   */\n      dup1\n        /* \"#utility.yul\":24772:24784   */\n      revert\n        /* \"#utility.yul\":24723:24725   */\n    tag_559:\n        /* \"#utility.yul\":24713:24792   */\n      pop\n      jump\t// out\n\n    auxdata: 0xa264697066735822122096fe0452bf526ba9f398e15851a234406c67815676f4fdc39f45f405ec32bb5564736f6c63430008000033\n}\n",
				"bytecode": {
					"linkReferences": {},
					"object": "60806040526001600a553480156200001657600080fd5b5060405162002bbc38038062002bbc83398181016040528101906200003c9190620002bf565b6200005c62000050620001c560201b60201c565b620001cd60201b60201c565b600180819055506000600260006101000a81548160ff021916908315150217905550600073ffffffffffffffffffffffffffffffffffffffff168273ffffffffffffffffffffffffffffffffffffffff1614158015620000e95750600073ffffffffffffffffffffffffffffffffffffffff168173ffffffffffffffffffffffffffffffffffffffff1614155b6200012b576040517f08c379a000000000000000000000000000000000000000000000000000000000815260040162000122906200036d565b60405180910390fd5b836004819055508260058190555081600660006101000a81548173ffffffffffffffffffffffffffffffffffffffff021916908373ffffffffffffffffffffffffffffffffffffffff16021790555080600760006101000a81548173ffffffffffffffffffffffffffffffffffffffff021916908373ffffffffffffffffffffffffffffffffffffffff1602179055505050505062000412565b600033905090565b60008060009054906101000a900473ffffffffffffffffffffffffffffffffffffffff169050816000806101000a81548173ffffffffffffffffffffffffffffffffffffffff021916908373ffffffffffffffffffffffffffffffffffffffff1602179055508173ffffffffffffffffffffffffffffffffffffffff168173ffffffffffffffffffffffffffffffffffffffff167f8be0079c531659141344cd1fd0a4f28419497f9722a3daafe3b4186f6b6457e060405160405180910390a35050565b600081519050620002a281620003de565b92915050565b600081519050620002b981620003f8565b92915050565b60008060008060808587031215620002d657600080fd5b6000620002e687828801620002a8565b9450506020620002f987828801620002a8565b93505060406200030c8782880162000291565b92505060606200031f8782880162000291565b91505092959194509250565b60006200033a6018836200038f565b91507f4164647265737365732063616e6e6f74206265207a65726f00000000000000006000830152602082019050919050565b6000602082019050818103600083015262000388816200032b565b9050919050565b600082825260208201905092915050565b6000620003ad82620003b4565b9050919050565b600073ffffffffffffffffffffffffffffffffffffffff82169050919050565b6000819050919050565b620003e981620003a0565b8114620003f557600080fd5b50565b6200040381620003d4565b81146200040f57600080fd5b50565b61279a80620004226000396000f3fe60806040526004361061012a5760003560e01c806385dd3008116100ab578063b93141351161006f578063b931413514610373578063cdd78cfc146103b2578063de74e57b146103dd578063e3b6a1f61461041e578063ed14834f1461045b578063f2fde38b146104865761012a565b806385dd30081461029c5780638a71bb2d146102c75780638da5cb5b146102f2578063aaccf1ec1461031d578063ad2f852a146103485761012a565b80635e4e8d65116100f25780635e4e8d65146101df578063715018a61461020857806378578bb31461021f5780637bdaceef146102485780638456cb59146102855761012a565b8063305a67a81461012f5780633c44a5f0146101585780633f4ba83a1461018157806351ed8288146101985780635c975abb146101b4575b600080fd5b34801561013b57600080fd5b5061015660048036038101906101519190611ae9565b6104af565b005b34801561016457600080fd5b5061017f600480360381019061017a9190611a45565b610642565b005b34801561018d57600080fd5b50610196610a12565b005b6101b260048036038101906101ad9190611ae9565b610a34565b005b3480156101c057600080fd5b506101c961108f565b6040516101d6919061217e565b60405180910390f35b3480156101eb57600080fd5b5061020660048036038101906102019190611a09565b6110a6565b005b34801561021457600080fd5b5061021d6111ed565b005b34801561022b57600080fd5b5061024660048036038101906102419190611b12565b611201565b005b34801561025457600080fd5b5061026f600480360381019061026a9190611ae9565b61122b565b60405161027c91906120b7565b60405180910390f35b34801561029157600080fd5b5061029a61125e565b005b3480156102a857600080fd5b506102b1611280565b6040516102be919061215c565b60405180910390f35b3480156102d357600080fd5b506102dc6112d8565b6040516102e99190612379565b60405180910390f35b3480156102fe57600080fd5b506103076112de565b60405161031491906120b7565b60405180910390f35b34801561032957600080fd5b50610332611307565b60405161033f9190612379565b60405180910390f35b34801561035457600080fd5b5061035d61130d565b60405161036a91906120b7565b60405180910390f35b34801561037f57600080fd5b5061039a60048036038101906103959190611ae9565b611333565b6040516103a993929190612394565b60405180910390f35b3480156103be57600080fd5b506103c76114ca565b6040516103d49190612379565b60405180910390f35b3480156103e957600080fd5b5061040460048036038101906103ff9190611ae9565b6114d0565b604051610415959493929190612109565b60405180910390f35b34801561042a57600080fd5b5061044560048036038101906104409190611ae9565b611546565b6040516104529190612379565b60405180910390f35b34801561046757600080fd5b5061047061156a565b60405161047d91906120b7565b60405180910390f35b34801561049257600080fd5b506104ad60048036038101906104a891906119b7565b611590565b005b6104b7611614565b3373ffffffffffffffffffffffffffffffffffffffff166009600083815260200190815260200160002060009054906101000a900473ffffffffffffffffffffffffffffffffffffffff1673ffffffffffffffffffffffffffffffffffffffff1614610558576040517f08c379a000000000000000000000000000000000000000000000000000000000815260040161054f90612279565b60405180910390fd5b60086000828152602001908152602001600020600080820160006101000a81549073ffffffffffffffffffffffffffffffffffffffff021916905560018201600090556002820160006101000a81549073ffffffffffffffffffffffffffffffffffffffff02191690556003820160009055600482016000905550506009600082815260200190815260200160002060006101000a81549073ffffffffffffffffffffffffffffffffffffffff0219169055807fc0c55a6edead4433d18cb1e287a0a20a2fa003a6f483bc9823d2e504d70d1c6760405160405180910390a261063f611664565b50565b61064a61166d565b610652611614565b60008211610695576040517f08c379a000000000000000000000000000000000000000000000000000000000815260040161068c906122f9565b60405180910390fd5b600081116106d8576040517f08c379a00000000000000000000000000000000000000000000000000000000081526004016106cf906122d9565b60405180910390fd5b60008490503373ffffffffffffffffffffffffffffffffffffffff168173ffffffffffffffffffffffffffffffffffffffff16636352211e866040518263ffffffff1660e01b815260040161072d9190612379565b60206040518083038186803b15801561074557600080fd5b505afa158015610759573d6000803e3d6000fd5b505050506040513d601f19601f8201168201806040525081019061077d91906119e0565b73ffffffffffffffffffffffffffffffffffffffff16146107d3576040517f08c379a00000000000000000000000000000000000000000000000000000000081526004016107ca906121d9565b60405180910390fd5b6040518060a001604052808673ffffffffffffffffffffffffffffffffffffffff1681526020018581526020013373ffffffffffffffffffffffffffffffffffffffff168152602001848152602001834261082e91906124bf565b81525060086000600a54815260200190815260200160002060008201518160000160006101000a81548173ffffffffffffffffffffffffffffffffffffffff021916908373ffffffffffffffffffffffffffffffffffffffff1602179055506020820151816001015560408201518160020160006101000a81548173ffffffffffffffffffffffffffffffffffffffff021916908373ffffffffffffffffffffffffffffffffffffffff16021790555060608201518160030155608082015181600401559050503360096000600a54815260200190815260200160002060006101000a81548173ffffffffffffffffffffffffffffffffffffffff021916908373ffffffffffffffffffffffffffffffffffffffff1602179055506003600a5490806001815401808255809150506001900390600052602060002001600090919091909150558473ffffffffffffffffffffffffffffffffffffffff163373ffffffffffffffffffffffffffffffffffffffff16600a547ff33c76fec15a03b2e414df8c9dce93f5b05f8672742e0f1eb558b2161162dfcb878787426109d491906124bf565b6040516109e3939291906123d2565b60405180910390a4600a60008154809291906109fe9061264f565b919050555050610a0c611664565b50505050565b610a1a6116b7565b610a22611614565b610a2a611735565b610a32611664565b565b610a3c61166d565b610a44611614565b60003411610a87576040517f08c379a0000000000000000000000000000000000000000000000000000000008152600401610a7e90612319565b60405180910390fd5b6000600860008381526020019081526020016000209050600073ffffffffffffffffffffffffffffffffffffffff168160020160009054906101000a900473ffffffffffffffffffffffffffffffffffffffff1673ffffffffffffffffffffffffffffffffffffffff161415610b32576040517f08c379a0000000000000000000000000000000000000000000000000000000008152600401610b2990612299565b60405180910390fd5b8060040154421115610b79576040517f08c379a0000000000000000000000000000000000000000000000000000000008152600401610b7090612219565b60405180910390fd5b80600301543414610bbf576040517f08c379a0000000000000000000000000000000000000000000000000000000008152600401610bb690612239565b60405180910390fd5b60006127106004548360030154610bd69190612546565b610be09190612515565b905060006127106005548460030154610bf99190612546565b610c039190612515565b9050600081838560030154610c1891906125a0565b610c2291906125a0565b905060008460000160009054906101000a900473ffffffffffffffffffffffffffffffffffffffff1690508460020160009054906101000a900473ffffffffffffffffffffffffffffffffffffffff1673ffffffffffffffffffffffffffffffffffffffff168173ffffffffffffffffffffffffffffffffffffffff16636352211e87600101546040518263ffffffff1660e01b8152600401610cc59190612379565b60206040518083038186803b158015610cdd57600080fd5b505afa158015610cf1573d6000803e3d6000fd5b505050506040513d601f19601f82011682018060405250810190610d1591906119e0565b73ffffffffffffffffffffffffffffffffffffffff1614610d6b576040517f08c379a0000000000000000000000000000000000000000000000000000000008152600401610d6290612359565b60405180910390fd5b8073ffffffffffffffffffffffffffffffffffffffff166342842e0e8660020160009054906101000a900473ffffffffffffffffffffffffffffffffffffffff163388600101546040518463ffffffff1660e01b8152600401610dd0939291906120d2565b600060405180830381600087803b158015610dea57600080fd5b505af1158015610dfe573d6000803e3d6000fd5b505050508460020160009054906101000a900473ffffffffffffffffffffffffffffffffffffffff1673ffffffffffffffffffffffffffffffffffffffff166108fc839081150290604051600060405180830381858888f19350505050158015610e6c573d6000803e3d6000fd5b50600660009054906101000a900473ffffffffffffffffffffffffffffffffffffffff1673ffffffffffffffffffffffffffffffffffffffff166108fc859081150290604051600060405180830381858888f19350505050158015610ed5573d6000803e3d6000fd5b50600760009054906101000a900473ffffffffffffffffffffffffffffffffffffffff1673ffffffffffffffffffffffffffffffffffffffff166108fc849081150290604051600060405180830381858888f19350505050158015610f3e573d6000803e3d6000fd5b503373ffffffffffffffffffffffffffffffffffffffff168560020160009054906101000a900473ffffffffffffffffffffffffffffffffffffffff1673ffffffffffffffffffffffffffffffffffffffff16877f8562eb94748e30bb0071e932744ce902b460c683474fcb3bfd567ffa16b1afb28860030154604051610fc59190612379565b60405180910390a460086000878152602001908152602001600020600080820160006101000a81549073ffffffffffffffffffffffffffffffffffffffff021916905560018201600090556002820160006101000a81549073ffffffffffffffffffffffffffffffffffffffff02191690556003820160009055600482016000905550506009600087815260200190815260200160002060006101000a81549073ffffffffffffffffffffffffffffffffffffffff0219169055505050505061108c611664565b50565b6000600260009054906101000a900460ff16905090565b6110ae6116b7565b6110b6611614565b600073ffffffffffffffffffffffffffffffffffffffff168273ffffffffffffffffffffffffffffffffffffffff16141580156111205750600073ffffffffffffffffffffffffffffffffffffffff168173ffffffffffffffffffffffffffffffffffffffff1614155b61115f576040517f08c379a0000000000000000000000000000000000000000000000000000000008152600401611156906121f9565b60405180910390fd5b81600660006101000a81548173ffffffffffffffffffffffffffffffffffffffff021916908373ffffffffffffffffffffffffffffffffffffffff16021790555080600760006101000a81548173ffffffffffffffffffffffffffffffffffffffff021916908373ffffffffffffffffffffffffffffffffffffffff1602179055506111e9611664565b5050565b6111f56116b7565b6111ff6000611798565b565b6112096116b7565b611211611614565b8160048190555080600581905550611227611664565b5050565b60096020528060005260406000206000915054906101000a900473ffffffffffffffffffffffffffffffffffffffff1681565b6112666116b7565b61126e611614565b61127661185c565b61127e611664565b565b606060038054806020026020016040519081016040528092919081815260200182805480156112ce57602002820191906000526020600020905b8154815260200190600101908083116112ba575b5050505050905090565b60045481565b60008060009054906101000a900473ffffffffffffffffffffffffffffffffffffffff16905090565b600a5481565b600660009054906101000a900473ffffffffffffffffffffffffffffffffffffffff1681565b60008060606000600860008681526020019081526020016000209050600073ffffffffffffffffffffffffffffffffffffffff168160020160009054906101000a900473ffffffffffffffffffffffffffffffffffffffff1673ffffffffffffffffffffffffffffffffffffffff1614156113e3576040517f08c379a00000000000000000000000000000000000000000000000000000000081526004016113da90612299565b60405180910390fd5b60006040518060200160405280600081525090508160000160009054906101000a900473ffffffffffffffffffffffffffffffffffffffff1673ffffffffffffffffffffffffffffffffffffffff1663c87b56dd83600101546040518263ffffffff1660e01b81526004016114589190612379565b60006040518083038186803b15801561147057600080fd5b505afa9250505080156114a657506040513d6000823e3d601f19601f820116820180604052508101906114a39190611aa8565b60015b6114af576114b4565b809150505b8582600101548294509450945050509193909250565b60055481565b60086020528060005260406000206000915090508060000160009054906101000a900473ffffffffffffffffffffffffffffffffffffffff16908060010154908060020160009054906101000a900473ffffffffffffffffffffffffffffffffffffffff16908060030154908060040154905085565b6003818154811061155657600080fd5b906000526020600020016000915090505481565b600760009054906101000a900473ffffffffffffffffffffffffffffffffffffffff1681565b6115986116b7565b600073ffffffffffffffffffffffffffffffffffffffff168173ffffffffffffffffffffffffffffffffffffffff161415611608576040517f08c379a00000000000000000000000000000000000000000000000000000000081526004016115ff906121b9565b60405180910390fd5b61161181611798565b50565b6002600154141561165a576040517f08c379a000000000000000000000000000000000000000000000000000000000815260040161165190612339565b60405180910390fd5b6002600181905550565b60018081905550565b61167561108f565b156116b5576040517f08c379a00000000000000000000000000000000000000000000000000000000081526004016116ac90612259565b60405180910390fd5b565b6116bf6118bf565b73ffffffffffffffffffffffffffffffffffffffff166116dd6112de565b73ffffffffffffffffffffffffffffffffffffffff1614611733576040517f08c379a000000000000000000000000000000000000000000000000000000000815260040161172a906122b9565b60405180910390fd5b565b61173d6118c7565b6000600260006101000a81548160ff0219169083151502179055507f5db9ee0a495bf2e6ff9c91a7834c1ba4fdd244a5e8aa4e537bd38aeae4b073aa6117816118bf565b60405161178e91906120b7565b60405180910390a1565b60008060009054906101000a900473ffffffffffffffffffffffffffffffffffffffff169050816000806101000a81548173ffffffffffffffffffffffffffffffffffffffff021916908373ffffffffffffffffffffffffffffffffffffffff1602179055508173ffffffffffffffffffffffffffffffffffffffff168173ffffffffffffffffffffffffffffffffffffffff167f8be0079c531659141344cd1fd0a4f28419497f9722a3daafe3b4186f6b6457e060405160405180910390a35050565b61186461166d565b6001600260006101000a81548160ff0219169083151502179055507f62e78cea01bee320cd4e420270b5ea74000d11b0c9f74754ebdbfc544b05a2586118a86118bf565b6040516118b591906120b7565b60405180910390a1565b600033905090565b6118cf61108f565b61190e576040517f08c379a000000000000000000000000000000000000000000000000000000000815260040161190590612199565b60405180910390fd5b565b600061192361191e8461243a565b612409565b90508281526020810184848401111561193b57600080fd5b61194684828561261c565b509392505050565b60008135905061195d81612736565b92915050565b60008151905061197281612736565b92915050565b600082601f83011261198957600080fd5b8151611999848260208601611910565b91505092915050565b6000813590506119b18161274d565b92915050565b6000602082840312156119c957600080fd5b60006119d78482850161194e565b91505092915050565b6000602082840312156119f257600080fd5b6000611a0084828501611963565b91505092915050565b60008060408385031215611a1c57600080fd5b6000611a2a8582860161194e565b9250506020611a3b8582860161194e565b9150509250929050565b60008060008060808587031215611a5b57600080fd5b6000611a698782880161194e565b9450506020611a7a878288016119a2565b9350506040611a8b878288016119a2565b9250506060611a9c878288016119a2565b91505092959194509250565b600060208284031215611aba57600080fd5b600082015167ffffffffffffffff811115611ad457600080fd5b611ae084828501611978565b91505092915050565b600060208284031215611afb57600080fd5b6000611b09848285016119a2565b91505092915050565b60008060408385031215611b2557600080fd5b6000611b33858286016119a2565b9250506020611b44858286016119a2565b9150509250929050565b6000611b5a8383612099565b60208301905092915050565b611b6f816125d4565b82525050565b6000611b808261247a565b611b8a818561249d565b9350611b958361246a565b8060005b83811015611bc6578151611bad8882611b4e565b9750611bb883612490565b925050600181019050611b99565b5085935050505092915050565b611bdc816125e6565b82525050565b6000611bed82612485565b611bf781856124ae565b9350611c0781856020860161261c565b611c1081612725565b840191505092915050565b6000611c286014836124ae565b91507f5061757361626c653a206e6f74207061757365640000000000000000000000006000830152602082019050919050565b6000611c686026836124ae565b91507f4f776e61626c653a206e6577206f776e657220697320746865207a65726f206160008301527f64647265737300000000000000000000000000000000000000000000000000006020830152604082019050919050565b6000611cce6020836124ae565b91507f596f75206d757374206f776e20746865204e465420746f206c6973742069742e6000830152602082019050919050565b6000611d0e6018836124ae565b91507f4164647265737365732063616e6e6f74206265207a65726f00000000000000006000830152602082019050919050565b6000611d4e6019836124ae565b91507f54686973206c697374696e672068617320657870697265642e000000000000006000830152602082019050919050565b6000611d8e602e836124ae565b91507f53656e742076616c7565206d75737420626520657175616c20746f207468652060008301527f6c697374696e672070726963652e0000000000000000000000000000000000006020830152604082019050919050565b6000611df46010836124ae565b91507f5061757361626c653a20706175736564000000000000000000000000000000006000830152602082019050919050565b6000611e346025836124ae565b91507f4f6e6c7920746865206c697374696e67206f776e65722063616e2063616e636560008301527f6c2069742e0000000000000000000000000000000000000000000000000000006020830152604082019050919050565b6000611e9a6017836124ae565b91507f4c697374696e6720646f6573206e6f742065786973742e0000000000000000006000830152602082019050919050565b6000611eda6020836124ae565b91507f4f776e61626c653a2063616c6c6572206973206e6f7420746865206f776e65726000830152602082019050919050565b6000611f1a6023836124ae565b91507f446561646c696e65206d7573742062652067726561746572207468616e207a6560008301527f726f2e00000000000000000000000000000000000000000000000000000000006020830152604082019050919050565b6000611f806020836124ae565b91507f5072696365206d7573742062652067726561746572207468616e207a65726f2e6000830152602082019050919050565b6000611fc06025836124ae565b91507f53656e742076616c7565206d7573742062652067726561746572207468616e2060008301527f7a65726f2e0000000000000000000000000000000000000000000000000000006020830152604082019050919050565b6000612026601f836124ae565b91507f5265656e7472616e637947756172643a207265656e7472616e742063616c6c006000830152602082019050919050565b6000612066601e836124ae565b91507f53656c6c6572206e6f206c6f6e676572206f776e7320746865204e46542e00006000830152602082019050919050565b6120a281612612565b82525050565b6120b181612612565b82525050565b60006020820190506120cc6000830184611b66565b92915050565b60006060820190506120e76000830186611b66565b6120f46020830185611b66565b61210160408301846120a8565b949350505050565b600060a08201905061211e6000830188611b66565b61212b60208301876120a8565b6121386040830186611b66565b61214560608301856120a8565b61215260808301846120a8565b9695505050505050565b600060208201905081810360008301526121768184611b75565b905092915050565b60006020820190506121936000830184611bd3565b92915050565b600060208201905081810360008301526121b281611c1b565b9050919050565b600060208201905081810360008301526121d281611c5b565b9050919050565b600060208201905081810360008301526121f281611cc1565b9050919050565b6000602082019050818103600083015261221281611d01565b9050919050565b6000602082019050818103600083015261223281611d41565b9050919050565b6000602082019050818103600083015261225281611d81565b9050919050565b6000602082019050818103600083015261227281611de7565b9050919050565b6000602082019050818103600083015261229281611e27565b9050919050565b600060208201905081810360008301526122b281611e8d565b9050919050565b600060208201905081810360008301526122d281611ecd565b9050919050565b600060208201905081810360008301526122f281611f0d565b9050919050565b6000602082019050818103600083015261231281611f73565b9050919050565b6000602082019050818103600083015261233281611fb3565b9050919050565b6000602082019050818103600083015261235281612019565b9050919050565b6000602082019050818103600083015261237281612059565b9050919050565b600060208201905061238e60008301846120a8565b92915050565b60006060820190506123a960008301866120a8565b6123b660208301856120a8565b81810360408301526123c88184611be2565b9050949350505050565b60006060820190506123e760008301866120a8565b6123f460208301856120a8565b61240160408301846120a8565b949350505050565b6000604051905081810181811067ffffffffffffffff821117156124305761242f6126f6565b5b8060405250919050565b600067ffffffffffffffff821115612455576124546126f6565b5b601f19601f8301169050602081019050919050565b6000819050602082019050919050565b600081519050919050565b600081519050919050565b6000602082019050919050565b600082825260208201905092915050565b600082825260208201905092915050565b60006124ca82612612565b91506124d583612612565b9250827fffffffffffffffffffffffffffffffffffffffffffffffffffffffffffffffff0382111561250a57612509612698565b5b828201905092915050565b600061252082612612565b915061252b83612612565b92508261253b5761253a6126c7565b5b828204905092915050565b600061255182612612565b915061255c83612612565b9250817fffffffffffffffffffffffffffffffffffffffffffffffffffffffffffffffff048311821515161561259557612594612698565b5b828202905092915050565b60006125ab82612612565b91506125b683612612565b9250828210156125c9576125c8612698565b5b828203905092915050565b60006125df826125f2565b9050919050565b60008115159050919050565b600073ffffffffffffffffffffffffffffffffffffffff82169050919050565b6000819050919050565b60005b8381101561263a57808201518184015260208101905061261f565b83811115612649576000848401525b50505050565b600061265a82612612565b91507fffffffffffffffffffffffffffffffffffffffffffffffffffffffffffffffff82141561268d5761268c612698565b5b600182019050919050565b7f4e487b7100000000000000000000000000000000000000000000000000000000600052601160045260246000fd5b7f4e487b7100000000000000000000000000000000000000000000000000000000600052601260045260246000fd5b7f4e487b7100000000000000000000000000000000000000000000000000000000600052604160045260246000fd5b6000601f19601f8301169050919050565b61273f816125d4565b811461274a57600080fd5b50565b61275681612612565b811461276157600080fd5b5056fea264697066735822122096fe0452bf526ba9f398e15851a234406c67815676f4fdc39f45f405ec32bb5564736f6c63430008000033",
					"opcodes": "PUSH1 0x80 PUSH1 0x40 MSTORE PUSH1 0x1 PUSH1 0xA SSTORE CALLVALUE DUP1 ISZERO PUSH3 0x16 JUMPI PUSH1 0x0 DUP1 REVERT JUMPDEST POP PUSH1 0x40 MLOAD PUSH3 0x2BBC CODESIZE SUB DUP1 PUSH3 0x2BBC DUP4 CODECOPY DUP2 DUP2 ADD PUSH1 0x40 MSTORE DUP2 ADD SWAP1 PUSH3 0x3C SWAP2 SWAP1 PUSH3 0x2BF JUMP JUMPDEST PUSH3 0x5C PUSH3 0x50 PUSH3 0x1C5 PUSH1 0x20 SHL PUSH1 0x20 SHR JUMP JUMPDEST PUSH3 0x1CD PUSH1 0x20 SHL PUSH1 0x20 SHR JUMP JUMPDEST PUSH1 0x1 DUP1 DUP2 SWAP1 SSTORE POP PUSH1 0x0 PUSH1 0x2 PUSH1 0x0 PUSH2 0x100 EXP DUP2 SLOAD DUP2 PUSH1 0xFF MUL NOT AND SWAP1 DUP4 ISZERO ISZERO MUL OR SWAP1 SSTORE POP PUSH1 0x0 PUSH20 0xFFFFFFFFFFFFFFFFFFFFFFFFFFFFFFFFFFFFFFFF AND DUP3 PUSH20 0xFFFFFFFFFFFFFFFFFFFFFFFFFFFFFFFFFFFFFFFF AND EQ ISZERO DUP1 ISZERO PUSH3 0xE9 JUMPI POP PUSH1 0x0 PUSH20 0xFFFFFFFFFFFFFFFFFFFFFFFFFFFFFFFFFFFFFFFF AND DUP2 PUSH20 0xFFFFFFFFFFFFFFFFFFFFFFFFFFFFFFFFFFFFFFFF AND EQ ISZERO JUMPDEST PUSH3 0x12B JUMPI PUSH1 0x40 MLOAD PUSH32 0x8C379A000000000000000000000000000000000000000000000000000000000 DUP2 MSTORE PUSH1 0x4 ADD PUSH3 0x122 SWAP1 PUSH3 0x36D JUMP JUMPDEST PUSH1 0x40 MLOAD DUP1 SWAP2 SUB SWAP1 REVERT JUMPDEST DUP4 PUSH1 0x4 DUP2 SWAP1 SSTORE POP DUP3 PUSH1 0x5 DUP2 SWAP1 SSTORE POP DUP2 PUSH1 0x6 PUSH1 0x0 PUSH2 0x100 EXP DUP2 SLOAD DUP2 PUSH20 0xFFFFFFFFFFFFFFFFFFFFFFFFFFFFFFFFFFFFFFFF MUL NOT AND SWAP1 DUP4 PUSH20 0xFFFFFFFFFFFFFFFFFFFFFFFFFFFFFFFFFFFFFFFF AND MUL OR SWAP1 SSTORE POP DUP1 PUSH1 0x7 PUSH1 0x0 PUSH2 0x100 EXP DUP2 SLOAD DUP2 PUSH20 0xFFFFFFFFFFFFFFFFFFFFFFFFFFFFFFFFFFFFFFFF MUL NOT AND SWAP1 DUP4 PUSH20 0xFFFFFFFFFFFFFFFFFFFFFFFFFFFFFFFFFFFFFFFF AND MUL OR SWAP1 SSTORE POP POP POP POP POP PUSH3 0x412 JUMP JUMPDEST PUSH1 0x0 CALLER SWAP1 POP SWAP1 JUMP JUMPDEST PUSH1 0x0 DUP1 PUSH1 0x0 SWAP1 SLOAD SWAP1 PUSH2 0x100 EXP SWAP1 DIV PUSH20 0xFFFFFFFFFFFFFFFFFFFFFFFFFFFFFFFFFFFFFFFF AND SWAP1 POP DUP2 PUSH1 0x0 DUP1 PUSH2 0x100 EXP DUP2 SLOAD DUP2 PUSH20 0xFFFFFFFFFFFFFFFFFFFFFFFFFFFFFFFFFFFFFFFF MUL NOT AND SWAP1 DUP4 PUSH20 0xFFFFFFFFFFFFFFFFFFFFFFFFFFFFFFFFFFFFFFFF AND MUL OR SWAP1 SSTORE POP DUP2 PUSH20 0xFFFFFFFFFFFFFFFFFFFFFFFFFFFFFFFFFFFFFFFF AND DUP2 PUSH20 0xFFFFFFFFFFFFFFFFFFFFFFFFFFFFFFFFFFFFFFFF AND PUSH32 0x8BE0079C531659141344CD1FD0A4F28419497F9722A3DAAFE3B4186F6B6457E0 PUSH1 0x40 MLOAD PUSH1 0x40 MLOAD DUP1 SWAP2 SUB SWAP1 LOG3 POP POP JUMP JUMPDEST PUSH1 0x0 DUP2 MLOAD SWAP1 POP PUSH3 0x2A2 DUP2 PUSH3 0x3DE JUMP JUMPDEST SWAP3 SWAP2 POP POP JUMP JUMPDEST PUSH1 0x0 DUP2 MLOAD SWAP1 POP PUSH3 0x2B9 DUP2 PUSH3 0x3F8 JUMP JUMPDEST SWAP3 SWAP2 POP POP JUMP JUMPDEST PUSH1 0x0 DUP1 PUSH1 0x0 DUP1 PUSH1 0x80 DUP6 DUP8 SUB SLT ISZERO PUSH3 0x2D6 JUMPI PUSH1 0x0 DUP1 REVERT JUMPDEST PUSH1 0x0 PUSH3 0x2E6 DUP8 DUP3 DUP9 ADD PUSH3 0x2A8 JUMP JUMPDEST SWAP5 POP POP PUSH1 0x20 PUSH3 0x2F9 DUP8 DUP3 DUP9 ADD PUSH3 0x2A8 JUMP JUMPDEST SWAP4 POP POP PUSH1 0x40 PUSH3 0x30C DUP8 DUP3 DUP9 ADD PUSH3 0x291 JUMP JUMPDEST SWAP3 POP POP PUSH1 0x60 PUSH3 0x31F DUP8 DUP3 DUP9 ADD PUSH3 0x291 JUMP JUMPDEST SWAP2 POP POP SWAP3 SWAP6 SWAP2 SWAP5 POP SWAP3 POP JUMP JUMPDEST PUSH1 0x0 PUSH3 0x33A PUSH1 0x18 DUP4 PUSH3 0x38F JUMP JUMPDEST SWAP2 POP PUSH32 0x4164647265737365732063616E6E6F74206265207A65726F0000000000000000 PUSH1 0x0 DUP4 ADD MSTORE PUSH1 0x20 DUP3 ADD SWAP1 POP SWAP2 SWAP1 POP JUMP JUMPDEST PUSH1 0x0 PUSH1 0x20 DUP3 ADD SWAP1 POP DUP2 DUP2 SUB PUSH1 0x0 DUP4 ADD MSTORE PUSH3 0x388 DUP2 PUSH3 0x32B JUMP JUMPDEST SWAP1 POP SWAP2 SWAP1 POP JUMP JUMPDEST PUSH1 0x0 DUP3 DUP3 MSTORE PUSH1 0x20 DUP3 ADD SWAP1 POP SWAP3 SWAP2 POP POP JUMP JUMPDEST PUSH1 0x0 PUSH3 0x3AD DUP3 PUSH3 0x3B4 JUMP JUMPDEST SWAP1 POP SWAP2 SWAP1 POP JUMP JUMPDEST PUSH1 0x0 PUSH20 0xFFFFFFFFFFFFFFFFFFFFFFFFFFFFFFFFFFFFFFFF DUP3 AND SWAP1 POP SWAP2 SWAP1 POP JUMP JUMPDEST PUSH1 0x0 DUP2 SWAP1 POP SWAP2 SWAP1 POP JUMP JUMPDEST PUSH3 0x3E9 DUP2 PUSH3 0x3A0 JUMP JUMPDEST DUP2 EQ PUSH3 0x3F5 JUMPI PUSH1 0x0 DUP1 REVERT JUMPDEST POP JUMP JUMPDEST PUSH3 0x403 DUP2 PUSH3 0x3D4 JUMP JUMPDEST DUP2 EQ PUSH3 0x40F JUMPI PUSH1 0x0 DUP1 REVERT JUMPDEST POP JUMP JUMPDEST PUSH2 0x279A DUP1 PUSH3 0x422 PUSH1 0x0 CODECOPY PUSH1 0x0 RETURN INVALID PUSH1 0x80 PUSH1 0x40 MSTORE PUSH1 0x4 CALLDATASIZE LT PUSH2 0x12A JUMPI PUSH1 0x0 CALLDATALOAD PUSH1 0xE0 SHR DUP1 PUSH4 0x85DD3008 GT PUSH2 0xAB JUMPI DUP1 PUSH4 0xB9314135 GT PUSH2 0x6F JUMPI DUP1 PUSH4 0xB9314135 EQ PUSH2 0x373 JUMPI DUP1 PUSH4 0xCDD78CFC EQ PUSH2 0x3B2 JUMPI DUP1 PUSH4 0xDE74E57B EQ PUSH2 0x3DD JUMPI DUP1 PUSH4 0xE3B6A1F6 EQ PUSH2 0x41E JUMPI DUP1 PUSH4 0xED14834F EQ PUSH2 0x45B JUMPI DUP1 PUSH4 0xF2FDE38B EQ PUSH2 0x486 JUMPI PUSH2 0x12A JUMP JUMPDEST DUP1 PUSH4 0x85DD3008 EQ PUSH2 0x29C JUMPI DUP1 PUSH4 0x8A71BB2D EQ PUSH2 0x2C7 JUMPI DUP1 PUSH4 0x8DA5CB5B EQ PUSH2 0x2F2 JUMPI DUP1 PUSH4 0xAACCF1EC EQ PUSH2 0x31D JUMPI DUP1 PUSH4 0xAD2F852A EQ PUSH2 0x348 JUMPI PUSH2 0x12A JUMP JUMPDEST DUP1 PUSH4 0x5E4E8D65 GT PUSH2 0xF2 JUMPI DUP1 PUSH4 0x5E4E8D65 EQ PUSH2 0x1DF JUMPI DUP1 PUSH4 0x715018A6 EQ PUSH2 0x208 JUMPI DUP1 PUSH4 0x78578BB3 EQ PUSH2 0x21F JUMPI DUP1 PUSH4 0x7BDACEEF EQ PUSH2 0x248 JUMPI DUP1 PUSH4 0x8456CB59 EQ PUSH2 0x285 JUMPI PUSH2 0x12A JUMP JUMPDEST DUP1 PUSH4 0x305A67A8 EQ PUSH2 0x12F JUMPI DUP1 PUSH4 0x3C44A5F0 EQ PUSH2 0x158 JUMPI DUP1 PUSH4 0x3F4BA83A EQ PUSH2 0x181 JUMPI DUP1 PUSH4 0x51ED8288 EQ PUSH2 0x198 JUMPI DUP1 PUSH4 0x5C975ABB EQ PUSH2 0x1B4 JUMPI JUMPDEST PUSH1 0x0 DUP1 REVERT JUMPDEST CALLVALUE DUP1 ISZERO PUSH2 0x13B JUMPI PUSH1 0x0 DUP1 REVERT JUMPDEST POP PUSH2 0x156 PUSH1 0x4 DUP1 CALLDATASIZE SUB DUP2 ADD SWAP1 PUSH2 0x151 SWAP2 SWAP1 PUSH2 0x1AE9 JUMP JUMPDEST PUSH2 0x4AF JUMP JUMPDEST STOP JUMPDEST CALLVALUE DUP1 ISZERO PUSH2 0x164 JUMPI PUSH1 0x0 DUP1 REVERT JUMPDEST POP PUSH2 0x17F PUSH1 0x4 DUP1 CALLDATASIZE SUB DUP2 ADD SWAP1 PUSH2 0x17A SWAP2 SWAP1 PUSH2 0x1A45 JUMP JUMPDEST PUSH2 0x642 JUMP JUMPDEST STOP JUMPDEST CALLVALUE DUP1 ISZERO PUSH2 0x18D JUMPI PUSH1 0x0 DUP1 REVERT JUMPDEST POP PUSH2 0x196 PUSH2 0xA12 JUMP JUMPDEST STOP JUMPDEST PUSH2 0x1B2 PUSH1 0x4 DUP1 CALLDATASIZE SUB DUP2 ADD SWAP1 PUSH2 0x1AD SWAP2 SWAP1 PUSH2 0x1AE9 JUMP JUMPDEST PUSH2 0xA34 JUMP JUMPDEST STOP JUMPDEST CALLVALUE DUP1 ISZERO PUSH2 0x1C0 JUMPI PUSH1 0x0 DUP1 REVERT JUMPDEST POP PUSH2 0x1C9 PUSH2 0x108F JUMP JUMPDEST PUSH1 0x40 MLOAD PUSH2 0x1D6 SWAP2 SWAP1 PUSH2 0x217E JUMP JUMPDEST PUSH1 0x40 MLOAD DUP1 SWAP2 SUB SWAP1 RETURN JUMPDEST CALLVALUE DUP1 ISZERO PUSH2 0x1EB JUMPI PUSH1 0x0 DUP1 REVERT JUMPDEST POP PUSH2 0x206 PUSH1 0x4 DUP1 CALLDATASIZE SUB DUP2 ADD SWAP1 PUSH2 0x201 SWAP2 SWAP1 PUSH2 0x1A09 JUMP JUMPDEST PUSH2 0x10A6 JUMP JUMPDEST STOP JUMPDEST CALLVALUE DUP1 ISZERO PUSH2 0x214 JUMPI PUSH1 0x0 DUP1 REVERT JUMPDEST POP PUSH2 0x21D PUSH2 0x11ED JUMP JUMPDEST STOP JUMPDEST CALLVALUE DUP1 ISZERO PUSH2 0x22B JUMPI PUSH1 0x0 DUP1 REVERT JUMPDEST POP PUSH2 0x246 PUSH1 0x4 DUP1 CALLDATASIZE SUB DUP2 ADD SWAP1 PUSH2 0x241 SWAP2 SWAP1 PUSH2 0x1B12 JUMP JUMPDEST PUSH2 0x1201 JUMP JUMPDEST STOP JUMPDEST CALLVALUE DUP1 ISZERO PUSH2 0x254 JUMPI PUSH1 0x0 DUP1 REVERT JUMPDEST POP PUSH2 0x26F PUSH1 0x4 DUP1 CALLDATASIZE SUB DUP2 ADD SWAP1 PUSH2 0x26A SWAP2 SWAP1 PUSH2 0x1AE9 JUMP JUMPDEST PUSH2 0x122B JUMP JUMPDEST PUSH1 0x40 MLOAD PUSH2 0x27C SWAP2 SWAP1 PUSH2 0x20B7 JUMP JUMPDEST PUSH1 0x40 MLOAD DUP1 SWAP2 SUB SWAP1 RETURN JUMPDEST CALLVALUE DUP1 ISZERO PUSH2 0x291 JUMPI PUSH1 0x0 DUP1 REVERT JUMPDEST POP PUSH2 0x29A PUSH2 0x125E JUMP JUMPDEST STOP JUMPDEST CALLVALUE DUP1 ISZERO PUSH2 0x2A8 JUMPI PUSH1 0x0 DUP1 REVERT JUMPDEST POP PUSH2 0x2B1 PUSH2 0x1280 JUMP JUMPDEST PUSH1 0x40 MLOAD PUSH2 0x2BE SWAP2 SWAP1 PUSH2 0x215C JUMP JUMPDEST PUSH1 0x40 MLOAD DUP1 SWAP2 SUB SWAP1 RETURN JUMPDEST CALLVALUE DUP1 ISZERO PUSH2 0x2D3 JUMPI PUSH1 0x0 DUP1 REVERT JUMPDEST POP PUSH2 0x2DC PUSH2 0x12D8 JUMP JUMPDEST PUSH1 0x40 MLOAD PUSH2 0x2E9 SWAP2 SWAP1 PUSH2 0x2379 JUMP JUMPDEST PUSH1 0x40 MLOAD DUP1 SWAP2 SUB SWAP1 RETURN JUMPDEST CALLVALUE DUP1 ISZERO PUSH2 0x2FE JUMPI PUSH1 0x0 DUP1 REVERT JUMPDEST POP PUSH2 0x307 PUSH2 0x12DE JUMP JUMPDEST PUSH1 0x40 MLOAD PUSH2 0x314 SWAP2 SWAP1 PUSH2 0x20B7 JUMP JUMPDEST PUSH1 0x40 MLOAD DUP1 SWAP2 SUB SWAP1 RETURN JUMPDEST CALLVALUE DUP1 ISZERO PUSH2 0x329 JUMPI PUSH1 0x0 DUP1 REVERT JUMPDEST POP PUSH2 0x332 PUSH2 0x1307 JUMP JUMPDEST PUSH1 0x40 MLOAD PUSH2 0x33F SWAP2 SWAP1 PUSH2 0x2379 JUMP JUMPDEST PUSH1 0x40 MLOAD DUP1 SWAP2 SUB SWAP1 RETURN JUMPDEST CALLVALUE DUP1 ISZERO PUSH2 0x354 JUMPI PUSH1 0x0 DUP1 REVERT JUMPDEST POP PUSH2 0x35D PUSH2 0x130D JUMP JUMPDEST PUSH1 0x40 MLOAD PUSH2 0x36A SWAP2 SWAP1 PUSH2 0x20B7 JUMP JUMPDEST PUSH1 0x40 MLOAD DUP1 SWAP2 SUB SWAP1 RETURN JUMPDEST CALLVALUE DUP1 ISZERO PUSH2 0x37F JUMPI PUSH1 0x0 DUP1 REVERT JUMPDEST POP PUSH2 0x39A PUSH1 0x4 DUP1 CALLDATASIZE SUB DUP2 ADD SWAP1 PUSH2 0x395 SWAP2 SWAP1 PUSH2 0x1AE9 JUMP JUMPDEST PUSH2 0x1333 JUMP JUMPDEST PUSH1 0x40 MLOAD PUSH2 0x3A9 SWAP4 SWAP3 SWAP2 SWAP1 PUSH2 0x2394 JUMP JUMPDEST PUSH1 0x40 MLOAD DUP1 SWAP2 SUB SWAP1 RETURN JUMPDEST CALLVALUE DUP1 ISZERO PUSH2 0x3BE JUMPI PUSH1 0x0 DUP1 REVERT JUMPDEST POP PUSH2 0x3C7 PUSH2 0x14CA JUMP JUMPDEST PUSH1 0x40 MLOAD PUSH2 0x3D4 SWAP2 SWAP1 PUSH2 0x2379 JUMP JUMPDEST PUSH1 0x40 MLOAD DUP1 SWAP2 SUB SWAP1 RETURN JUMPDEST CALLVALUE DUP1 ISZERO PUSH2 0x3E9 JUMPI PUSH1 0x0 DUP1 REVERT JUMPDEST POP PUSH2 0x404 PUSH1 0x4 DUP1 CALLDATASIZE SUB DUP2 ADD SWAP1 PUSH2 0x3FF SWAP2 SWAP1 PUSH2 0x1AE9 JUMP JUMPDEST PUSH2 0x14D0 JUMP JUMPDEST PUSH1 0x40 MLOAD PUSH2 0x415 SWAP6 SWAP5 SWAP4 SWAP3 SWAP2 SWAP1 PUSH2 0x2109 JUMP JUMPDEST PUSH1 0x40 MLOAD DUP1 SWAP2 SUB SWAP1 RETURN JUMPDEST CALLVALUE DUP1 ISZERO PUSH2 0x42A JUMPI PUSH1 0x0 DUP1 REVERT JUMPDEST POP PUSH2 0x445 PUSH1 0x4 DUP1 CALLDATASIZE SUB DUP2 ADD SWAP1 PUSH2 0x440 SWAP2 SWAP1 PUSH2 0x1AE9 JUMP JUMPDEST PUSH2 0x1546 JUMP JUMPDEST PUSH1 0x40 MLOAD PUSH2 0x452 SWAP2 SWAP1 PUSH2 0x2379 JUMP JUMPDEST PUSH1 0x40 MLOAD DUP1 SWAP2 SUB SWAP1 RETURN JUMPDEST CALLVALUE DUP1 ISZERO PUSH2 0x467 JUMPI PUSH1 0x0 DUP1 REVERT JUMPDEST POP PUSH2 0x470 PUSH2 0x156A JUMP JUMPDEST PUSH1 0x40 MLOAD PUSH2 0x47D SWAP2 SWAP1 PUSH2 0x20B7 JUMP JUMPDEST PUSH1 0x40 MLOAD DUP1 SWAP2 SUB SWAP1 RETURN JUMPDEST CALLVALUE DUP1 ISZERO PUSH2 0x492 JUMPI PUSH1 0x0 DUP1 REVERT JUMPDEST POP PUSH2 0x4AD PUSH1 0x4 DUP1 CALLDATASIZE SUB DUP2 ADD SWAP1 PUSH2 0x4A8 SWAP2 SWAP1 PUSH2 0x19B7 JUMP JUMPDEST PUSH2 0x1590 JUMP JUMPDEST STOP JUMPDEST PUSH2 0x4B7 PUSH2 0x1614 JUMP JUMPDEST CALLER PUSH20 0xFFFFFFFFFFFFFFFFFFFFFFFFFFFFFFFFFFFFFFFF AND PUSH1 0x9 PUSH1 0x0 DUP4 DUP2 MSTORE PUSH1 0x20 ADD SWAP1 DUP2 MSTORE PUSH1 0x20 ADD PUSH1 0x0 KECCAK256 PUSH1 0x0 SWAP1 SLOAD SWAP1 PUSH2 0x100 EXP SWAP1 DIV PUSH20 0xFFFFFFFFFFFFFFFFFFFFFFFFFFFFFFFFFFFFFFFF AND PUSH20 0xFFFFFFFFFFFFFFFFFFFFFFFFFFFFFFFFFFFFFFFF AND EQ PUSH2 0x558 JUMPI PUSH1 0x40 MLOAD PUSH32 0x8C379A000000000000000000000000000000000000000000000000000000000 DUP2 MSTORE PUSH1 0x4 ADD PUSH2 0x54F SWAP1 PUSH2 0x2279 JUMP JUMPDEST PUSH1 0x40 MLOAD DUP1 SWAP2 SUB SWAP1 REVERT JUMPDEST PUSH1 0x8 PUSH1 0x0 DUP3 DUP2 MSTORE PUSH1 0x20 ADD SWAP1 DUP2 MSTORE PUSH1 0x20 ADD PUSH1 0x0 KECCAK256 PUSH1 0x0 DUP1 DUP3 ADD PUSH1 0x0 PUSH2 0x100 EXP DUP2 SLOAD SWAP1 PUSH20 0xFFFFFFFFFFFFFFFFFFFFFFFFFFFFFFFFFFFFFFFF MUL NOT AND SWAP1 SSTORE PUSH1 0x1 DUP3 ADD PUSH1 0x0 SWAP1 SSTORE PUSH1 0x2 DUP3 ADD PUSH1 0x0 PUSH2 0x100 EXP DUP2 SLOAD SWAP1 PUSH20 0xFFFFFFFFFFFFFFFFFFFFFFFFFFFFFFFFFFFFFFFF MUL NOT AND SWAP1 SSTORE PUSH1 0x3 DUP3 ADD PUSH1 0x0 SWAP1 SSTORE PUSH1 0x4 DUP3 ADD PUSH1 0x0 SWAP1 SSTORE POP POP PUSH1 0x9 PUSH1 0x0 DUP3 DUP2 MSTORE PUSH1 0x20 ADD SWAP1 DUP2 MSTORE PUSH1 0x20 ADD PUSH1 0x0 KECCAK256 PUSH1 0x0 PUSH2 0x100 EXP DUP2 SLOAD SWAP1 PUSH20 0xFFFFFFFFFFFFFFFFFFFFFFFFFFFFFFFFFFFFFFFF MUL NOT AND SWAP1 SSTORE DUP1 PUSH32 0xC0C55A6EDEAD4433D18CB1E287A0A20A2FA003A6F483BC9823D2E504D70D1C67 PUSH1 0x40 MLOAD PUSH1 0x40 MLOAD DUP1 SWAP2 SUB SWAP1 LOG2 PUSH2 0x63F PUSH2 0x1664 JUMP JUMPDEST POP JUMP JUMPDEST PUSH2 0x64A PUSH2 0x166D JUMP JUMPDEST PUSH2 0x652 PUSH2 0x1614 JUMP JUMPDEST PUSH1 0x0 DUP3 GT PUSH2 0x695 JUMPI PUSH1 0x40 MLOAD PUSH32 0x8C379A000000000000000000000000000000000000000000000000000000000 DUP2 MSTORE PUSH1 0x4 ADD PUSH2 0x68C SWAP1 PUSH2 0x22F9 JUMP JUMPDEST PUSH1 0x40 MLOAD DUP1 SWAP2 SUB SWAP1 REVERT JUMPDEST PUSH1 0x0 DUP2 GT PUSH2 0x6D8 JUMPI PUSH1 0x40 MLOAD PUSH32 0x8C379A000000000000000000000000000000000000000000000000000000000 DUP2 MSTORE PUSH1 0x4 ADD PUSH2 0x6CF SWAP1 PUSH2 0x22D9 JUMP JUMPDEST PUSH1 0x40 MLOAD DUP1 SWAP2 SUB SWAP1 REVERT JUMPDEST PUSH1 0x0 DUP5 SWAP1 POP CALLER PUSH20 0xFFFFFFFFFFFFFFFFFFFFFFFFFFFFFFFFFFFFFFFF AND DUP2 PUSH20 0xFFFFFFFFFFFFFFFFFFFFFFFFFFFFFFFFFFFFFFFF AND PUSH4 0x6352211E DUP7 PUSH1 0x40 MLOAD DUP3 PUSH4 0xFFFFFFFF AND PUSH1 0xE0 SHL DUP2 MSTORE PUSH1 0x4 ADD PUSH2 0x72D SWAP2 SWAP1 PUSH2 0x2379 JUMP JUMPDEST PUSH1 0x20 PUSH1 0x40 MLOAD DUP1 DUP4 SUB DUP2 DUP7 DUP1 EXTCODESIZE ISZERO DUP1 ISZERO PUSH2 0x745 JUMPI PUSH1 0x0 DUP1 REVERT JUMPDEST POP GAS STATICCALL ISZERO DUP1 ISZERO PUSH2 0x759 JUMPI RETURNDATASIZE PUSH1 0x0 DUP1 RETURNDATACOPY RETURNDATASIZE PUSH1 0x0 REVERT JUMPDEST POP POP POP POP PUSH1 0x40 MLOAD RETURNDATASIZE PUSH1 0x1F NOT PUSH1 0x1F DUP3 ADD AND DUP3 ADD DUP1 PUSH1 0x40 MSTORE POP DUP2 ADD SWAP1 PUSH2 0x77D SWAP2 SWAP1 PUSH2 0x19E0 JUMP JUMPDEST PUSH20 0xFFFFFFFFFFFFFFFFFFFFFFFFFFFFFFFFFFFFFFFF AND EQ PUSH2 0x7D3 JUMPI PUSH1 0x40 MLOAD PUSH32 0x8C379A000000000000000000000000000000000000000000000000000000000 DUP2 MSTORE PUSH1 0x4 ADD PUSH2 0x7CA SWAP1 PUSH2 0x21D9 JUMP JUMPDEST PUSH1 0x40 MLOAD DUP1 SWAP2 SUB SWAP1 REVERT JUMPDEST PUSH1 0x40 MLOAD DUP1 PUSH1 0xA0 ADD PUSH1 0x40 MSTORE DUP1 DUP7 PUSH20 0xFFFFFFFFFFFFFFFFFFFFFFFFFFFFFFFFFFFFFFFF AND DUP2 MSTORE PUSH1 0x20 ADD DUP6 DUP2 MSTORE PUSH1 0x20 ADD CALLER PUSH20 0xFFFFFFFFFFFFFFFFFFFFFFFFFFFFFFFFFFFFFFFF AND DUP2 MSTORE PUSH1 0x20 ADD DUP5 DUP2 MSTORE PUSH1 0x20 ADD DUP4 TIMESTAMP PUSH2 0x82E SWAP2 SWAP1 PUSH2 0x24BF JUMP JUMPDEST DUP2 MSTORE POP PUSH1 0x8 PUSH1 0x0 PUSH1 0xA SLOAD DUP2 MSTORE PUSH1 0x20 ADD SWAP1 DUP2 MSTORE PUSH1 0x20 ADD PUSH1 0x0 KECCAK256 PUSH1 0x0 DUP3 ADD MLOAD DUP2 PUSH1 0x0 ADD PUSH1 0x0 PUSH2 0x100 EXP DUP2 SLOAD DUP2 PUSH20 0xFFFFFFFFFFFFFFFFFFFFFFFFFFFFFFFFFFFFFFFF MUL NOT AND SWAP1 DUP4 PUSH20 0xFFFFFFFFFFFFFFFFFFFFFFFFFFFFFFFFFFFFFFFF AND MUL OR SWAP1 SSTORE POP PUSH1 0x20 DUP3 ADD MLOAD DUP2 PUSH1 0x1 ADD SSTORE PUSH1 0x40 DUP3 ADD MLOAD DUP2 PUSH1 0x2 ADD PUSH1 0x0 PUSH2 0x100 EXP DUP2 SLOAD DUP2 PUSH20 0xFFFFFFFFFFFFFFFFFFFFFFFFFFFFFFFFFFFFFFFF MUL NOT AND SWAP1 DUP4 PUSH20 0xFFFFFFFFFFFFFFFFFFFFFFFFFFFFFFFFFFFFFFFF AND MUL OR SWAP1 SSTORE POP PUSH1 0x60 DUP3 ADD MLOAD DUP2 PUSH1 0x3 ADD SSTORE PUSH1 0x80 DUP3 ADD MLOAD DUP2 PUSH1 0x4 ADD SSTORE SWAP1 POP POP CALLER PUSH1 0x9 PUSH1 0x0 PUSH1 0xA SLOAD DUP2 MSTORE PUSH1 0x20 ADD SWAP1 DUP2 MSTORE PUSH1 0x20 ADD PUSH1 0x0 KECCAK256 PUSH1 0x0 PUSH2 0x100 EXP DUP2 SLOAD DUP2 PUSH20 0xFFFFFFFFFFFFFFFFFFFFFFFFFFFFFFFFFFFFFFFF MUL NOT AND SWAP1 DUP4 PUSH20 0xFFFFFFFFFFFFFFFFFFFFFFFFFFFFFFFFFFFFFFFF AND MUL OR SWAP1 SSTORE POP PUSH1 0x3 PUSH1 0xA SLOAD SWAP1 DUP1 PUSH1 0x1 DUP2 SLOAD ADD DUP1 DUP3 SSTORE DUP1 SWAP2 POP POP PUSH1 0x1 SWAP1 SUB SWAP1 PUSH1 0x0 MSTORE PUSH1 0x20 PUSH1 0x0 KECCAK256 ADD PUSH1 0x0 SWAP1 SWAP2 SWAP1 SWAP2 SWAP1 SWAP2 POP SSTORE DUP5 PUSH20 0xFFFFFFFFFFFFFFFFFFFFFFFFFFFFFFFFFFFFFFFF AND CALLER PUSH20 0xFFFFFFFFFFFFFFFFFFFFFFFFFFFFFFFFFFFFFFFF AND PUSH1 0xA SLOAD PUSH32 0xF33C76FEC15A03B2E414DF8C9DCE93F5B05F8672742E0F1EB558B2161162DFCB DUP8 DUP8 DUP8 TIMESTAMP PUSH2 0x9D4 SWAP2 SWAP1 PUSH2 0x24BF JUMP JUMPDEST PUSH1 0x40 MLOAD PUSH2 0x9E3 SWAP4 SWAP3 SWAP2 SWAP1 PUSH2 0x23D2 JUMP JUMPDEST PUSH1 0x40 MLOAD DUP1 SWAP2 SUB SWAP1 LOG4 PUSH1 0xA PUSH1 0x0 DUP2 SLOAD DUP1 SWAP3 SWAP2 SWAP1 PUSH2 0x9FE SWAP1 PUSH2 0x264F JUMP JUMPDEST SWAP2 SWAP1 POP SSTORE POP POP PUSH2 0xA0C PUSH2 0x1664 JUMP JUMPDEST POP POP POP POP JUMP JUMPDEST PUSH2 0xA1A PUSH2 0x16B7 JUMP JUMPDEST PUSH2 0xA22 PUSH2 0x1614 JUMP JUMPDEST PUSH2 0xA2A PUSH2 0x1735 JUMP JUMPDEST PUSH2 0xA32 PUSH2 0x1664 JUMP JUMPDEST JUMP JUMPDEST PUSH2 0xA3C PUSH2 0x166D JUMP JUMPDEST PUSH2 0xA44 PUSH2 0x1614 JUMP JUMPDEST PUSH1 0x0 CALLVALUE GT PUSH2 0xA87 JUMPI PUSH1 0x40 MLOAD PUSH32 0x8C379A000000000000000000000000000000000000000000000000000000000 DUP2 MSTORE PUSH1 0x4 ADD PUSH2 0xA7E SWAP1 PUSH2 0x2319 JUMP JUMPDEST PUSH1 0x40 MLOAD DUP1 SWAP2 SUB SWAP1 REVERT JUMPDEST PUSH1 0x0 PUSH1 0x8 PUSH1 0x0 DUP4 DUP2 MSTORE PUSH1 0x20 ADD SWAP1 DUP2 MSTORE PUSH1 0x20 ADD PUSH1 0x0 KECCAK256 SWAP1 POP PUSH1 0x0 PUSH20 0xFFFFFFFFFFFFFFFFFFFFFFFFFFFFFFFFFFFFFFFF AND DUP2 PUSH1 0x2 ADD PUSH1 0x0 SWAP1 SLOAD SWAP1 PUSH2 0x100 EXP SWAP1 DIV PUSH20 0xFFFFFFFFFFFFFFFFFFFFFFFFFFFFFFFFFFFFFFFF AND PUSH20 0xFFFFFFFFFFFFFFFFFFFFFFFFFFFFFFFFFFFFFFFF AND EQ ISZERO PUSH2 0xB32 JUMPI PUSH1 0x40 MLOAD PUSH32 0x8C379A000000000000000000000000000000000000000000000000000000000 DUP2 MSTORE PUSH1 0x4 ADD PUSH2 0xB29 SWAP1 PUSH2 0x2299 JUMP JUMPDEST PUSH1 0x40 MLOAD DUP1 SWAP2 SUB SWAP1 REVERT JUMPDEST DUP1 PUSH1 0x4 ADD SLOAD TIMESTAMP GT ISZERO PUSH2 0xB79 JUMPI PUSH1 0x40 MLOAD PUSH32 0x8C379A000000000000000000000000000000000000000000000000000000000 DUP2 MSTORE PUSH1 0x4 ADD PUSH2 0xB70 SWAP1 PUSH2 0x2219 JUMP JUMPDEST PUSH1 0x40 MLOAD DUP1 SWAP2 SUB SWAP1 REVERT JUMPDEST DUP1 PUSH1 0x3 ADD SLOAD CALLVALUE EQ PUSH2 0xBBF JUMPI PUSH1 0x40 MLOAD PUSH32 0x8C379A000000000000000000000000000000000000000000000000000000000 DUP2 MSTORE PUSH1 0x4 ADD PUSH2 0xBB6 SWAP1 PUSH2 0x2239 JUMP JUMPDEST PUSH1 0x40 MLOAD DUP1 SWAP2 SUB SWAP1 REVERT JUMPDEST PUSH1 0x0 PUSH2 0x2710 PUSH1 0x4 SLOAD DUP4 PUSH1 0x3 ADD SLOAD PUSH2 0xBD6 SWAP2 SWAP1 PUSH2 0x2546 JUMP JUMPDEST PUSH2 0xBE0 SWAP2 SWAP1 PUSH2 0x2515 JUMP JUMPDEST SWAP1 POP PUSH1 0x0 PUSH2 0x2710 PUSH1 0x5 SLOAD DUP5 PUSH1 0x3 ADD SLOAD PUSH2 0xBF9 SWAP2 SWAP1 PUSH2 0x2546 JUMP JUMPDEST PUSH2 0xC03 SWAP2 SWAP1 PUSH2 0x2515 JUMP JUMPDEST SWAP1 POP PUSH1 0x0 DUP2 DUP4 DUP6 PUSH1 0x3 ADD SLOAD PUSH2 0xC18 SWAP2 SWAP1 PUSH2 0x25A0 JUMP JUMPDEST PUSH2 0xC22 SWAP2 SWAP1 PUSH2 0x25A0 JUMP JUMPDEST SWAP1 POP PUSH1 0x0 DUP5 PUSH1 0x0 ADD PUSH1 0x0 SWAP1 SLOAD SWAP1 PUSH2 0x100 EXP SWAP1 DIV PUSH20 0xFFFFFFFFFFFFFFFFFFFFFFFFFFFFFFFFFFFFFFFF AND SWAP1 POP DUP5 PUSH1 0x2 ADD PUSH1 0x0 SWAP1 SLOAD SWAP1 PUSH2 0x100 EXP SWAP1 DIV PUSH20 0xFFFFFFFFFFFFFFFFFFFFFFFFFFFFFFFFFFFFFFFF AND PUSH20 0xFFFFFFFFFFFFFFFFFFFFFFFFFFFFFFFFFFFFFFFF AND DUP2 PUSH20 0xFFFFFFFFFFFFFFFFFFFFFFFFFFFFFFFFFFFFFFFF AND PUSH4 0x6352211E DUP8 PUSH1 0x1 ADD SLOAD PUSH1 0x40 MLOAD DUP3 PUSH4 0xFFFFFFFF AND PUSH1 0xE0 SHL DUP2 MSTORE PUSH1 0x4 ADD PUSH2 0xCC5 SWAP2 SWAP1 PUSH2 0x2379 JUMP JUMPDEST PUSH1 0x20 PUSH1 0x40 MLOAD DUP1 DUP4 SUB DUP2 DUP7 DUP1 EXTCODESIZE ISZERO DUP1 ISZERO PUSH2 0xCDD JUMPI PUSH1 0x0 DUP1 REVERT JUMPDEST POP GAS STATICCALL ISZERO DUP1 ISZERO PUSH2 0xCF1 JUMPI RETURNDATASIZE PUSH1 0x0 DUP1 RETURNDATACOPY RETURNDATASIZE PUSH1 0x0 REVERT JUMPDEST POP POP POP POP PUSH1 0x40 MLOAD RETURNDATASIZE PUSH1 0x1F NOT PUSH1 0x1F DUP3 ADD AND DUP3 ADD DUP1 PUSH1 0x40 MSTORE POP DUP2 ADD SWAP1 PUSH2 0xD15 SWAP2 SWAP1 PUSH2 0x19E0 JUMP JUMPDEST PUSH20 0xFFFFFFFFFFFFFFFFFFFFFFFFFFFFFFFFFFFFFFFF AND EQ PUSH2 0xD6B JUMPI PUSH1 0x40 MLOAD PUSH32 0x8C379A000000000000000000000000000000000000000000000000000000000 DUP2 MSTORE PUSH1 0x4 ADD PUSH2 0xD62 SWAP1 PUSH2 0x2359 JUMP JUMPDEST PUSH1 0x40 MLOAD DUP1 SWAP2 SUB SWAP1 REVERT JUMPDEST DUP1 PUSH20 0xFFFFFFFFFFFFFFFFFFFFFFFFFFFFFFFFFFFFFFFF AND PUSH4 0x42842E0E DUP7 PUSH1 0x2 ADD PUSH1 0x0 SWAP1 SLOAD SWAP1 PUSH2 0x100 EXP SWAP1 DIV PUSH20 0xFFFFFFFFFFFFFFFFFFFFFFFFFFFFFFFFFFFFFFFF AND CALLER DUP9 PUSH1 0x1 ADD SLOAD PUSH1 0x40 MLOAD DUP5 PUSH4 0xFFFFFFFF AND PUSH1 0xE0 SHL DUP2 MSTORE PUSH1 0x4 ADD PUSH2 0xDD0 SWAP4 SWAP3 SWAP2 SWAP1 PUSH2 0x20D2 JUMP JUMPDEST PUSH1 0x0 PUSH1 0x40 MLOAD DUP1 DUP4 SUB DUP2 PUSH1 0x0 DUP8 DUP1 EXTCODESIZE ISZERO DUP1 ISZERO PUSH2 0xDEA JUMPI PUSH1 0x0 DUP1 REVERT JUMPDEST POP GAS CALL ISZERO DUP1 ISZERO PUSH2 0xDFE JUMPI RETURNDATASIZE PUSH1 0x0 DUP1 RETURNDATACOPY RETURNDATASIZE PUSH1 0x0 REVERT JUMPDEST POP POP POP POP DUP5 PUSH1 0x2 ADD PUSH1 0x0 SWAP1 SLOAD SWAP1 PUSH2 0x100 EXP SWAP1 DIV PUSH20 0xFFFFFFFFFFFFFFFFFFFFFFFFFFFFFFFFFFFFFFFF AND PUSH20 0xFFFFFFFFFFFFFFFFFFFFFFFFFFFFFFFFFFFFFFFF AND PUSH2 0x8FC DUP4 SWAP1 DUP2 ISZERO MUL SWAP1 PUSH1 0x40 MLOAD PUSH1 0x0 PUSH1 0x40 MLOAD DUP1 DUP4 SUB DUP2 DUP6 DUP9 DUP9 CALL SWAP4 POP POP POP POP ISZERO DUP1 ISZERO PUSH2 0xE6C JUMPI RETURNDATASIZE PUSH1 0x0 DUP1 RETURNDATACOPY RETURNDATASIZE PUSH1 0x0 REVERT JUMPDEST POP PUSH1 0x6 PUSH1 0x0 SWAP1 SLOAD SWAP1 PUSH2 0x100 EXP SWAP1 DIV PUSH20 0xFFFFFFFFFFFFFFFFFFFFFFFFFFFFFFFFFFFFFFFF AND PUSH20 0xFFFFFFFFFFFFFFFFFFFFFFFFFFFFFFFFFFFFFFFF AND PUSH2 0x8FC DUP6 SWAP1 DUP2 ISZERO MUL SWAP1 PUSH1 0x40 MLOAD PUSH1 0x0 PUSH1 0x40 MLOAD DUP1 DUP4 SUB DUP2 DUP6 DUP9 DUP9 CALL SWAP4 POP POP POP POP ISZERO DUP1 ISZERO PUSH2 0xED5 JUMPI RETURNDATASIZE PUSH1 0x0 DUP1 RETURNDATACOPY RETURNDATASIZE PUSH1 0x0 REVERT JUMPDEST POP PUSH1 0x7 PUSH1 0x0 SWAP1 SLOAD SWAP1 PUSH2 0x100 EXP SWAP1 DIV PUSH20 0xFFFFFFFFFFFFFFFFFFFFFFFFFFFFFFFFFFFFFFFF AND PUSH20 0xFFFFFFFFFFFFFFFFFFFFFFFFFFFFFFFFFFFFFFFF AND PUSH2 0x8FC DUP5 SWAP1 DUP2 ISZERO MUL SWAP1 PUSH1 0x40 MLOAD PUSH1 0x0 PUSH1 0x40 MLOAD DUP1 DUP4 SUB DUP2 DUP6 DUP9 DUP9 CALL SWAP4 POP POP POP POP ISZERO DUP1 ISZERO PUSH2 0xF3E JUMPI RETURNDATASIZE PUSH1 0x0 DUP1 RETURNDATACOPY RETURNDATASIZE PUSH1 0x0 REVERT JUMPDEST POP CALLER PUSH20 0xFFFFFFFFFFFFFFFFFFFFFFFFFFFFFFFFFFFFFFFF AND DUP6 PUSH1 0x2 ADD PUSH1 0x0 SWAP1 SLOAD SWAP1 PUSH2 0x100 EXP SWAP1 DIV PUSH20 0xFFFFFFFFFFFFFFFFFFFFFFFFFFFFFFFFFFFFFFFF AND PUSH20 0xFFFFFFFFFFFFFFFFFFFFFFFFFFFFFFFFFFFFFFFF AND DUP8 PUSH32 0x8562EB94748E30BB0071E932744CE902B460C683474FCB3BFD567FFA16B1AFB2 DUP9 PUSH1 0x3 ADD SLOAD PUSH1 0x40 MLOAD PUSH2 0xFC5 SWAP2 SWAP1 PUSH2 0x2379 JUMP JUMPDEST PUSH1 0x40 MLOAD DUP1 SWAP2 SUB SWAP1 LOG4 PUSH1 0x8 PUSH1 0x0 DUP8 DUP2 MSTORE PUSH1 0x20 ADD SWAP1 DUP2 MSTORE PUSH1 0x20 ADD PUSH1 0x0 KECCAK256 PUSH1 0x0 DUP1 DUP3 ADD PUSH1 0x0 PUSH2 0x100 EXP DUP2 SLOAD SWAP1 PUSH20 0xFFFFFFFFFFFFFFFFFFFFFFFFFFFFFFFFFFFFFFFF MUL NOT AND SWAP1 SSTORE PUSH1 0x1 DUP3 ADD PUSH1 0x0 SWAP1 SSTORE PUSH1 0x2 DUP3 ADD PUSH1 0x0 PUSH2 0x100 EXP DUP2 SLOAD SWAP1 PUSH20 0xFFFFFFFFFFFFFFFFFFFFFFFFFFFFFFFFFFFFFFFF MUL NOT AND SWAP1 SSTORE PUSH1 0x3 DUP3 ADD PUSH1 0x0 SWAP1 SSTORE PUSH1 0x4 DUP3 ADD PUSH1 0x0 SWAP1 SSTORE POP POP PUSH1 0x9 PUSH1 0x0 DUP8 DUP2 MSTORE PUSH1 0x20 ADD SWAP1 DUP2 MSTORE PUSH1 0x20 ADD PUSH1 0x0 KECCAK256 PUSH1 0x0 PUSH2 0x100 EXP DUP2 SLOAD SWAP1 PUSH20 0xFFFFFFFFFFFFFFFFFFFFFFFFFFFFFFFFFFFFFFFF MUL NOT AND SWAP1 SSTORE POP POP POP POP POP PUSH2 0x108C PUSH2 0x1664 JUMP JUMPDEST POP JUMP JUMPDEST PUSH1 0x0 PUSH1 0x2 PUSH1 0x0 SWAP1 SLOAD SWAP1 PUSH2 0x100 EXP SWAP1 DIV PUSH1 0xFF AND SWAP1 POP SWAP1 JUMP JUMPDEST PUSH2 0x10AE PUSH2 0x16B7 JUMP JUMPDEST PUSH2 0x10B6 PUSH2 0x1614 JUMP JUMPDEST PUSH1 0x0 PUSH20 0xFFFFFFFFFFFFFFFFFFFFFFFFFFFFFFFFFFFFFFFF AND DUP3 PUSH20 0xFFFFFFFFFFFFFFFFFFFFFFFFFFFFFFFFFFFFFFFF AND EQ ISZERO DUP1 ISZERO PUSH2 0x1120 JUMPI POP PUSH1 0x0 PUSH20 0xFFFFFFFFFFFFFFFFFFFFFFFFFFFFFFFFFFFFFFFF AND DUP2 PUSH20 0xFFFFFFFFFFFFFFFFFFFFFFFFFFFFFFFFFFFFFFFF AND EQ ISZERO JUMPDEST PUSH2 0x115F JUMPI PUSH1 0x40 MLOAD PUSH32 0x8C379A000000000000000000000000000000000000000000000000000000000 DUP2 MSTORE PUSH1 0x4 ADD PUSH2 0x1156 SWAP1 PUSH2 0x21F9 JUMP JUMPDEST PUSH1 0x40 MLOAD DUP1 SWAP2 SUB SWAP1 REVERT JUMPDEST DUP2 PUSH1 0x6 PUSH1 0x0 PUSH2 0x100 EXP DUP2 SLOAD DUP2 PUSH20 0xFFFFFFFFFFFFFFFFFFFFFFFFFFFFFFFFFFFFFFFF MUL NOT AND SWAP1 DUP4 PUSH20 0xFFFFFFFFFFFFFFFFFFFFFFFFFFFFFFFFFFFFFFFF AND MUL OR SWAP1 SSTORE POP DUP1 PUSH1 0x7 PUSH1 0x0 PUSH2 0x100 EXP DUP2 SLOAD DUP2 PUSH20 0xFFFFFFFFFFFFFFFFFFFFFFFFFFFFFFFFFFFFFFFF MUL NOT AND SWAP1 DUP4 PUSH20 0xFFFFFFFFFFFFFFFFFFFFFFFFFFFFFFFFFFFFFFFF AND MUL OR SWAP1 SSTORE POP PUSH2 0x11E9 PUSH2 0x1664 JUMP JUMPDEST POP POP JUMP JUMPDEST PUSH2 0x11F5 PUSH2 0x16B7 JUMP JUMPDEST PUSH2 0x11FF PUSH1 0x0 PUSH2 0x1798 JUMP JUMPDEST JUMP JUMPDEST PUSH2 0x1209 PUSH2 0x16B7 JUMP JUMPDEST PUSH2 0x1211 PUSH2 0x1614 JUMP JUMPDEST DUP2 PUSH1 0x4 DUP2 SWAP1 SSTORE POP DUP1 PUSH1 0x5 DUP2 SWAP1 SSTORE POP PUSH2 0x1227 PUSH2 0x1664 JUMP JUMPDEST POP POP JUMP JUMPDEST PUSH1 0x9 PUSH1 0x20 MSTORE DUP1 PUSH1 0x0 MSTORE PUSH1 0x40 PUSH1 0x0 KECCAK256 PUSH1 0x0 SWAP2 POP SLOAD SWAP1 PUSH2 0x100 EXP SWAP1 DIV PUSH20 0xFFFFFFFFFFFFFFFFFFFFFFFFFFFFFFFFFFFFFFFF AND DUP2 JUMP JUMPDEST PUSH2 0x1266 PUSH2 0x16B7 JUMP JUMPDEST PUSH2 0x126E PUSH2 0x1614 JUMP JUMPDEST PUSH2 0x1276 PUSH2 0x185C JUMP JUMPDEST PUSH2 0x127E PUSH2 0x1664 JUMP JUMPDEST JUMP JUMPDEST PUSH1 0x60 PUSH1 0x3 DUP1 SLOAD DUP1 PUSH1 0x20 MUL PUSH1 0x20 ADD PUSH1 0x40 MLOAD SWAP1 DUP2 ADD PUSH1 0x40 MSTORE DUP1 SWAP3 SWAP2 SWAP1 DUP2 DUP2 MSTORE PUSH1 0x20 ADD DUP3 DUP1 SLOAD DUP1 ISZERO PUSH2 0x12CE JUMPI PUSH1 0x20 MUL DUP3 ADD SWAP2 SWAP1 PUSH1 0x0 MSTORE PUSH1 0x20 PUSH1 0x0 KECCAK256 SWAP1 JUMPDEST DUP2 SLOAD DUP2 MSTORE PUSH1 0x20 ADD SWAP1 PUSH1 0x1 ADD SWAP1 DUP1 DUP4 GT PUSH2 0x12BA JUMPI JUMPDEST POP POP POP POP POP SWAP1 POP SWAP1 JUMP JUMPDEST PUSH1 0x4 SLOAD DUP2 JUMP JUMPDEST PUSH1 0x0 DUP1 PUSH1 0x0 SWAP1 SLOAD SWAP1 PUSH2 0x100 EXP SWAP1 DIV PUSH20 0xFFFFFFFFFFFFFFFFFFFFFFFFFFFFFFFFFFFFFFFF AND SWAP1 POP SWAP1 JUMP JUMPDEST PUSH1 0xA SLOAD DUP2 JUMP JUMPDEST PUSH1 0x6 PUSH1 0x0 SWAP1 SLOAD SWAP1 PUSH2 0x100 EXP SWAP1 DIV PUSH20 0xFFFFFFFFFFFFFFFFFFFFFFFFFFFFFFFFFFFFFFFF AND DUP2 JUMP JUMPDEST PUSH1 0x0 DUP1 PUSH1 0x60 PUSH1 0x0 PUSH1 0x8 PUSH1 0x0 DUP7 DUP2 MSTORE PUSH1 0x20 ADD SWAP1 DUP2 MSTORE PUSH1 0x20 ADD PUSH1 0x0 KECCAK256 SWAP1 POP PUSH1 0x0 PUSH20 0xFFFFFFFFFFFFFFFFFFFFFFFFFFFFFFFFFFFFFFFF AND DUP2 PUSH1 0x2 ADD PUSH1 0x0 SWAP1 SLOAD SWAP1 PUSH2 0x100 EXP SWAP1 DIV PUSH20 0xFFFFFFFFFFFFFFFFFFFFFFFFFFFFFFFFFFFFFFFF AND PUSH20 0xFFFFFFFFFFFFFFFFFFFFFFFFFFFFFFFFFFFFFFFF AND EQ ISZERO PUSH2 0x13E3 JUMPI PUSH1 0x40 MLOAD PUSH32 0x8C379A000000000000000000000000000000000000000000000000000000000 DUP2 MSTORE PUSH1 0x4 ADD PUSH2 0x13DA SWAP1 PUSH2 0x2299 JUMP JUMPDEST PUSH1 0x40 MLOAD DUP1 SWAP2 SUB SWAP1 REVERT JUMPDEST PUSH1 0x0 PUSH1 0x40 MLOAD DUP1 PUSH1 0x20 ADD PUSH1 0x40 MSTORE DUP1 PUSH1 0x0 DUP2 MSTORE POP SWAP1 POP DUP2 PUSH1 0x0 ADD PUSH1 0x0 SWAP1 SLOAD SWAP1 PUSH2 0x100 EXP SWAP1 DIV PUSH20 0xFFFFFFFFFFFFFFFFFFFFFFFFFFFFFFFFFFFFFFFF AND PUSH20 0xFFFFFFFFFFFFFFFFFFFFFFFFFFFFFFFFFFFFFFFF AND PUSH4 0xC87B56DD DUP4 PUSH1 0x1 ADD SLOAD PUSH1 0x40 MLOAD DUP3 PUSH4 0xFFFFFFFF AND PUSH1 0xE0 SHL DUP2 MSTORE PUSH1 0x4 ADD PUSH2 0x1458 SWAP2 SWAP1 PUSH2 0x2379 JUMP JUMPDEST PUSH1 0x0 PUSH1 0x40 MLOAD DUP1 DUP4 SUB DUP2 DUP7 DUP1 EXTCODESIZE ISZERO DUP1 ISZERO PUSH2 0x1470 JUMPI PUSH1 0x0 DUP1 REVERT JUMPDEST POP GAS STATICCALL SWAP3 POP POP POP DUP1 ISZERO PUSH2 0x14A6 JUMPI POP PUSH1 0x40 MLOAD RETURNDATASIZE PUSH1 0x0 DUP3 RETURNDATACOPY RETURNDATASIZE PUSH1 0x1F NOT PUSH1 0x1F DUP3 ADD AND DUP3 ADD DUP1 PUSH1 0x40 MSTORE POP DUP2 ADD SWAP1 PUSH2 0x14A3 SWAP2 SWAP1 PUSH2 0x1AA8 JUMP JUMPDEST PUSH1 0x1 JUMPDEST PUSH2 0x14AF JUMPI PUSH2 0x14B4 JUMP JUMPDEST DUP1 SWAP2 POP POP JUMPDEST DUP6 DUP3 PUSH1 0x1 ADD SLOAD DUP3 SWAP5 POP SWAP5 POP SWAP5 POP POP POP SWAP2 SWAP4 SWAP1 SWAP3 POP JUMP JUMPDEST PUSH1 0x5 SLOAD DUP2 JUMP JUMPDEST PUSH1 0x8 PUSH1 0x20 MSTORE DUP1 PUSH1 0x0 MSTORE PUSH1 0x40 PUSH1 0x0 KECCAK256 PUSH1 0x0 SWAP2 POP SWAP1 POP DUP1 PUSH1 0x0 ADD PUSH1 0x0 SWAP1 SLOAD SWAP1 PUSH2 0x100 EXP SWAP1 DIV PUSH20 0xFFFFFFFFFFFFFFFFFFFFFFFFFFFFFFFFFFFFFFFF AND SWAP1 DUP1 PUSH1 0x1 ADD SLOAD SWAP1 DUP1 PUSH1 0x2 ADD PUSH1 0x0 SWAP1 SLOAD SWAP1 PUSH2 0x100 EXP SWAP1 DIV PUSH20 0xFFFFFFFFFFFFFFFFFFFFFFFFFFFFFFFFFFFFFFFF AND SWAP1 DUP1 PUSH1 0x3 ADD SLOAD SWAP1 DUP1 PUSH1 0x4 ADD SLOAD SWAP1 POP DUP6 JUMP JUMPDEST PUSH1 0x3 DUP2 DUP2 SLOAD DUP2 LT PUSH2 0x1556 JUMPI PUSH1 0x0 DUP1 REVERT JUMPDEST SWAP1 PUSH1 0x0 MSTORE PUSH1 0x20 PUSH1 0x0 KECCAK256 ADD PUSH1 0x0 SWAP2 POP SWAP1 POP SLOAD DUP2 JUMP JUMPDEST PUSH1 0x7 PUSH1 0x0 SWAP1 SLOAD SWAP1 PUSH2 0x100 EXP SWAP1 DIV PUSH20 0xFFFFFFFFFFFFFFFFFFFFFFFFFFFFFFFFFFFFFFFF AND DUP2 JUMP JUMPDEST PUSH2 0x1598 PUSH2 0x16B7 JUMP JUMPDEST PUSH1 0x0 PUSH20 0xFFFFFFFFFFFFFFFFFFFFFFFFFFFFFFFFFFFFFFFF AND DUP2 PUSH20 0xFFFFFFFFFFFFFFFFFFFFFFFFFFFFFFFFFFFFFFFF AND EQ ISZERO PUSH2 0x1608 JUMPI PUSH1 0x40 MLOAD PUSH32 0x8C379A000000000000000000000000000000000000000000000000000000000 DUP2 MSTORE PUSH1 0x4 ADD PUSH2 0x15FF SWAP1 PUSH2 0x21B9 JUMP JUMPDEST PUSH1 0x40 MLOAD DUP1 SWAP2 SUB SWAP1 REVERT JUMPDEST PUSH2 0x1611 DUP2 PUSH2 0x1798 JUMP JUMPDEST POP JUMP JUMPDEST PUSH1 0x2 PUSH1 0x1 SLOAD EQ ISZERO PUSH2 0x165A JUMPI PUSH1 0x40 MLOAD PUSH32 0x8C379A000000000000000000000000000000000000000000000000000000000 DUP2 MSTORE PUSH1 0x4 ADD PUSH2 0x1651 SWAP1 PUSH2 0x2339 JUMP JUMPDEST PUSH1 0x40 MLOAD DUP1 SWAP2 SUB SWAP1 REVERT JUMPDEST PUSH1 0x2 PUSH1 0x1 DUP2 SWAP1 SSTORE POP JUMP JUMPDEST PUSH1 0x1 DUP1 DUP2 SWAP1 SSTORE POP JUMP JUMPDEST PUSH2 0x1675 PUSH2 0x108F JUMP JUMPDEST ISZERO PUSH2 0x16B5 JUMPI PUSH1 0x40 MLOAD PUSH32 0x8C379A000000000000000000000000000000000000000000000000000000000 DUP2 MSTORE PUSH1 0x4 ADD PUSH2 0x16AC SWAP1 PUSH2 0x2259 JUMP JUMPDEST PUSH1 0x40 MLOAD DUP1 SWAP2 SUB SWAP1 REVERT JUMPDEST JUMP JUMPDEST PUSH2 0x16BF PUSH2 0x18BF JUMP JUMPDEST PUSH20 0xFFFFFFFFFFFFFFFFFFFFFFFFFFFFFFFFFFFFFFFF AND PUSH2 0x16DD PUSH2 0x12DE JUMP JUMPDEST PUSH20 0xFFFFFFFFFFFFFFFFFFFFFFFFFFFFFFFFFFFFFFFF AND EQ PUSH2 0x1733 JUMPI PUSH1 0x40 MLOAD PUSH32 0x8C379A000000000000000000000000000000000000000000000000000000000 DUP2 MSTORE PUSH1 0x4 ADD PUSH2 0x172A SWAP1 PUSH2 0x22B9 JUMP JUMPDEST PUSH1 0x40 MLOAD DUP1 SWAP2 SUB SWAP1 REVERT JUMPDEST JUMP JUMPDEST PUSH2 0x173D PUSH2 0x18C7 JUMP JUMPDEST PUSH1 0x0 PUSH1 0x2 PUSH1 0x0 PUSH2 0x100 EXP DUP2 SLOAD DUP2 PUSH1 0xFF MUL NOT AND SWAP1 DUP4 ISZERO ISZERO MUL OR SWAP1 SSTORE POP PUSH32 0x5DB9EE0A495BF2E6FF9C91A7834C1BA4FDD244A5E8AA4E537BD38AEAE4B073AA PUSH2 0x1781 PUSH2 0x18BF JUMP JUMPDEST PUSH1 0x40 MLOAD PUSH2 0x178E SWAP2 SWAP1 PUSH2 0x20B7 JUMP JUMPDEST PUSH1 0x40 MLOAD DUP1 SWAP2 SUB SWAP1 LOG1 JUMP JUMPDEST PUSH1 0x0 DUP1 PUSH1 0x0 SWAP1 SLOAD SWAP1 PUSH2 0x100 EXP SWAP1 DIV PUSH20 0xFFFFFFFFFFFFFFFFFFFFFFFFFFFFFFFFFFFFFFFF AND SWAP1 POP DUP2 PUSH1 0x0 DUP1 PUSH2 0x100 EXP DUP2 SLOAD DUP2 PUSH20 0xFFFFFFFFFFFFFFFFFFFFFFFFFFFFFFFFFFFFFFFF MUL NOT AND SWAP1 DUP4 PUSH20 0xFFFFFFFFFFFFFFFFFFFFFFFFFFFFFFFFFFFFFFFF AND MUL OR SWAP1 SSTORE POP DUP2 PUSH20 0xFFFFFFFFFFFFFFFFFFFFFFFFFFFFFFFFFFFFFFFF AND DUP2 PUSH20 0xFFFFFFFFFFFFFFFFFFFFFFFFFFFFFFFFFFFFFFFF AND PUSH32 0x8BE0079C531659141344CD1FD0A4F28419497F9722A3DAAFE3B4186F6B6457E0 PUSH1 0x40 MLOAD PUSH1 0x40 MLOAD DUP1 SWAP2 SUB SWAP1 LOG3 POP POP JUMP JUMPDEST PUSH2 0x1864 PUSH2 0x166D JUMP JUMPDEST PUSH1 0x1 PUSH1 0x2 PUSH1 0x0 PUSH2 0x100 EXP DUP2 SLOAD DUP2 PUSH1 0xFF MUL NOT AND SWAP1 DUP4 ISZERO ISZERO MUL OR SWAP1 SSTORE POP PUSH32 0x62E78CEA01BEE320CD4E420270B5EA74000D11B0C9F74754EBDBFC544B05A258 PUSH2 0x18A8 PUSH2 0x18BF JUMP JUMPDEST PUSH1 0x40 MLOAD PUSH2 0x18B5 SWAP2 SWAP1 PUSH2 0x20B7 JUMP JUMPDEST PUSH1 0x40 MLOAD DUP1 SWAP2 SUB SWAP1 LOG1 JUMP JUMPDEST PUSH1 0x0 CALLER SWAP1 POP SWAP1 JUMP JUMPDEST PUSH2 0x18CF PUSH2 0x108F JUMP JUMPDEST PUSH2 0x190E JUMPI PUSH1 0x40 MLOAD PUSH32 0x8C379A000000000000000000000000000000000000000000000000000000000 DUP2 MSTORE PUSH1 0x4 ADD PUSH2 0x1905 SWAP1 PUSH2 0x2199 JUMP JUMPDEST PUSH1 0x40 MLOAD DUP1 SWAP2 SUB SWAP1 REVERT JUMPDEST JUMP JUMPDEST PUSH1 0x0 PUSH2 0x1923 PUSH2 0x191E DUP5 PUSH2 0x243A JUMP JUMPDEST PUSH2 0x2409 JUMP JUMPDEST SWAP1 POP DUP3 DUP2 MSTORE PUSH1 0x20 DUP2 ADD DUP5 DUP5 DUP5 ADD GT ISZERO PUSH2 0x193B JUMPI PUSH1 0x0 DUP1 REVERT JUMPDEST PUSH2 0x1946 DUP5 DUP3 DUP6 PUSH2 0x261C JUMP JUMPDEST POP SWAP4 SWAP3 POP POP POP JUMP JUMPDEST PUSH1 0x0 DUP2 CALLDATALOAD SWAP1 POP PUSH2 0x195D DUP2 PUSH2 0x2736 JUMP JUMPDEST SWAP3 SWAP2 POP POP JUMP JUMPDEST PUSH1 0x0 DUP2 MLOAD SWAP1 POP PUSH2 0x1972 DUP2 PUSH2 0x2736 JUMP JUMPDEST SWAP3 SWAP2 POP POP JUMP JUMPDEST PUSH1 0x0 DUP3 PUSH1 0x1F DUP4 ADD SLT PUSH2 0x1989 JUMPI PUSH1 0x0 DUP1 REVERT JUMPDEST DUP2 MLOAD PUSH2 0x1999 DUP5 DUP3 PUSH1 0x20 DUP7 ADD PUSH2 0x1910 JUMP JUMPDEST SWAP2 POP POP SWAP3 SWAP2 POP POP JUMP JUMPDEST PUSH1 0x0 DUP2 CALLDATALOAD SWAP1 POP PUSH2 0x19B1 DUP2 PUSH2 0x274D JUMP JUMPDEST SWAP3 SWAP2 POP POP JUMP JUMPDEST PUSH1 0x0 PUSH1 0x20 DUP3 DUP5 SUB SLT ISZERO PUSH2 0x19C9 JUMPI PUSH1 0x0 DUP1 REVERT JUMPDEST PUSH1 0x0 PUSH2 0x19D7 DUP5 DUP3 DUP6 ADD PUSH2 0x194E JUMP JUMPDEST SWAP2 POP POP SWAP3 SWAP2 POP POP JUMP JUMPDEST PUSH1 0x0 PUSH1 0x20 DUP3 DUP5 SUB SLT ISZERO PUSH2 0x19F2 JUMPI PUSH1 0x0 DUP1 REVERT JUMPDEST PUSH1 0x0 PUSH2 0x1A00 DUP5 DUP3 DUP6 ADD PUSH2 0x1963 JUMP JUMPDEST SWAP2 POP POP SWAP3 SWAP2 POP POP JUMP JUMPDEST PUSH1 0x0 DUP1 PUSH1 0x40 DUP4 DUP6 SUB SLT ISZERO PUSH2 0x1A1C JUMPI PUSH1 0x0 DUP1 REVERT JUMPDEST PUSH1 0x0 PUSH2 0x1A2A DUP6 DUP3 DUP7 ADD PUSH2 0x194E JUMP JUMPDEST SWAP3 POP POP PUSH1 0x20 PUSH2 0x1A3B DUP6 DUP3 DUP7 ADD PUSH2 0x194E JUMP JUMPDEST SWAP2 POP POP SWAP3 POP SWAP3 SWAP1 POP JUMP JUMPDEST PUSH1 0x0 DUP1 PUSH1 0x0 DUP1 PUSH1 0x80 DUP6 DUP8 SUB SLT ISZERO PUSH2 0x1A5B JUMPI PUSH1 0x0 DUP1 REVERT JUMPDEST PUSH1 0x0 PUSH2 0x1A69 DUP8 DUP3 DUP9 ADD PUSH2 0x194E JUMP JUMPDEST SWAP5 POP POP PUSH1 0x20 PUSH2 0x1A7A DUP8 DUP3 DUP9 ADD PUSH2 0x19A2 JUMP JUMPDEST SWAP4 POP POP PUSH1 0x40 PUSH2 0x1A8B DUP8 DUP3 DUP9 ADD PUSH2 0x19A2 JUMP JUMPDEST SWAP3 POP POP PUSH1 0x60 PUSH2 0x1A9C DUP8 DUP3 DUP9 ADD PUSH2 0x19A2 JUMP JUMPDEST SWAP2 POP POP SWAP3 SWAP6 SWAP2 SWAP5 POP SWAP3 POP JUMP JUMPDEST PUSH1 0x0 PUSH1 0x20 DUP3 DUP5 SUB SLT ISZERO PUSH2 0x1ABA JUMPI PUSH1 0x0 DUP1 REVERT JUMPDEST PUSH1 0x0 DUP3 ADD MLOAD PUSH8 0xFFFFFFFFFFFFFFFF DUP2 GT ISZERO PUSH2 0x1AD4 JUMPI PUSH1 0x0 DUP1 REVERT JUMPDEST PUSH2 0x1AE0 DUP5 DUP3 DUP6 ADD PUSH2 0x1978 JUMP JUMPDEST SWAP2 POP POP SWAP3 SWAP2 POP POP JUMP JUMPDEST PUSH1 0x0 PUSH1 0x20 DUP3 DUP5 SUB SLT ISZERO PUSH2 0x1AFB JUMPI PUSH1 0x0 DUP1 REVERT JUMPDEST PUSH1 0x0 PUSH2 0x1B09 DUP5 DUP3 DUP6 ADD PUSH2 0x19A2 JUMP JUMPDEST SWAP2 POP POP SWAP3 SWAP2 POP POP JUMP JUMPDEST PUSH1 0x0 DUP1 PUSH1 0x40 DUP4 DUP6 SUB SLT ISZERO PUSH2 0x1B25 JUMPI PUSH1 0x0 DUP1 REVERT JUMPDEST PUSH1 0x0 PUSH2 0x1B33 DUP6 DUP3 DUP7 ADD PUSH2 0x19A2 JUMP JUMPDEST SWAP3 POP POP PUSH1 0x20 PUSH2 0x1B44 DUP6 DUP3 DUP7 ADD PUSH2 0x19A2 JUMP JUMPDEST SWAP2 POP POP SWAP3 POP SWAP3 SWAP1 POP JUMP JUMPDEST PUSH1 0x0 PUSH2 0x1B5A DUP4 DUP4 PUSH2 0x2099 JUMP JUMPDEST PUSH1 0x20 DUP4 ADD SWAP1 POP SWAP3 SWAP2 POP POP JUMP JUMPDEST PUSH2 0x1B6F DUP2 PUSH2 0x25D4 JUMP JUMPDEST DUP3 MSTORE POP POP JUMP JUMPDEST PUSH1 0x0 PUSH2 0x1B80 DUP3 PUSH2 0x247A JUMP JUMPDEST PUSH2 0x1B8A DUP2 DUP6 PUSH2 0x249D JUMP JUMPDEST SWAP4 POP PUSH2 0x1B95 DUP4 PUSH2 0x246A JUMP JUMPDEST DUP1 PUSH1 0x0 JUMPDEST DUP4 DUP2 LT ISZERO PUSH2 0x1BC6 JUMPI DUP2 MLOAD PUSH2 0x1BAD DUP9 DUP3 PUSH2 0x1B4E JUMP JUMPDEST SWAP8 POP PUSH2 0x1BB8 DUP4 PUSH2 0x2490 JUMP JUMPDEST SWAP3 POP POP PUSH1 0x1 DUP2 ADD SWAP1 POP PUSH2 0x1B99 JUMP JUMPDEST POP DUP6 SWAP4 POP POP POP POP SWAP3 SWAP2 POP POP JUMP JUMPDEST PUSH2 0x1BDC DUP2 PUSH2 0x25E6 JUMP JUMPDEST DUP3 MSTORE POP POP JUMP JUMPDEST PUSH1 0x0 PUSH2 0x1BED DUP3 PUSH2 0x2485 JUMP JUMPDEST PUSH2 0x1BF7 DUP2 DUP6 PUSH2 0x24AE JUMP JUMPDEST SWAP4 POP PUSH2 0x1C07 DUP2 DUP6 PUSH1 0x20 DUP7 ADD PUSH2 0x261C JUMP JUMPDEST PUSH2 0x1C10 DUP2 PUSH2 0x2725 JUMP JUMPDEST DUP5 ADD SWAP2 POP POP SWAP3 SWAP2 POP POP JUMP JUMPDEST PUSH1 0x0 PUSH2 0x1C28 PUSH1 0x14 DUP4 PUSH2 0x24AE JUMP JUMPDEST SWAP2 POP PUSH32 0x5061757361626C653A206E6F7420706175736564000000000000000000000000 PUSH1 0x0 DUP4 ADD MSTORE PUSH1 0x20 DUP3 ADD SWAP1 POP SWAP2 SWAP1 POP JUMP JUMPDEST PUSH1 0x0 PUSH2 0x1C68 PUSH1 0x26 DUP4 PUSH2 0x24AE JUMP JUMPDEST SWAP2 POP PUSH32 0x4F776E61626C653A206E6577206F776E657220697320746865207A65726F2061 PUSH1 0x0 DUP4 ADD MSTORE PUSH32 0x6464726573730000000000000000000000000000000000000000000000000000 PUSH1 0x20 DUP4 ADD MSTORE PUSH1 0x40 DUP3 ADD SWAP1 POP SWAP2 SWAP1 POP JUMP JUMPDEST PUSH1 0x0 PUSH2 0x1CCE PUSH1 0x20 DUP4 PUSH2 0x24AE JUMP JUMPDEST SWAP2 POP PUSH32 0x596F75206D757374206F776E20746865204E465420746F206C6973742069742E PUSH1 0x0 DUP4 ADD MSTORE PUSH1 0x20 DUP3 ADD SWAP1 POP SWAP2 SWAP1 POP JUMP JUMPDEST PUSH1 0x0 PUSH2 0x1D0E PUSH1 0x18 DUP4 PUSH2 0x24AE JUMP JUMPDEST SWAP2 POP PUSH32 0x4164647265737365732063616E6E6F74206265207A65726F0000000000000000 PUSH1 0x0 DUP4 ADD MSTORE PUSH1 0x20 DUP3 ADD SWAP1 POP SWAP2 SWAP1 POP JUMP JUMPDEST PUSH1 0x0 PUSH2 0x1D4E PUSH1 0x19 DUP4 PUSH2 0x24AE JUMP JUMPDEST SWAP2 POP PUSH32 0x54686973206C697374696E672068617320657870697265642E00000000000000 PUSH1 0x0 DUP4 ADD MSTORE PUSH1 0x20 DUP3 ADD SWAP1 POP SWAP2 SWAP1 POP JUMP JUMPDEST PUSH1 0x0 PUSH2 0x1D8E PUSH1 0x2E DUP4 PUSH2 0x24AE JUMP JUMPDEST SWAP2 POP PUSH32 0x53656E742076616C7565206D75737420626520657175616C20746F2074686520 PUSH1 0x0 DUP4 ADD MSTORE PUSH32 0x6C697374696E672070726963652E000000000000000000000000000000000000 PUSH1 0x20 DUP4 ADD MSTORE PUSH1 0x40 DUP3 ADD SWAP1 POP SWAP2 SWAP1 POP JUMP JUMPDEST PUSH1 0x0 PUSH2 0x1DF4 PUSH1 0x10 DUP4 PUSH2 0x24AE JUMP JUMPDEST SWAP2 POP PUSH32 0x5061757361626C653A2070617573656400000000000000000000000000000000 PUSH1 0x0 DUP4 ADD MSTORE PUSH1 0x20 DUP3 ADD SWAP1 POP SWAP2 SWAP1 POP JUMP JUMPDEST PUSH1 0x0 PUSH2 0x1E34 PUSH1 0x25 DUP4 PUSH2 0x24AE JUMP JUMPDEST SWAP2 POP PUSH32 0x4F6E6C7920746865206C697374696E67206F776E65722063616E2063616E6365 PUSH1 0x0 DUP4 ADD MSTORE PUSH32 0x6C2069742E000000000000000000000000000000000000000000000000000000 PUSH1 0x20 DUP4 ADD MSTORE PUSH1 0x40 DUP3 ADD SWAP1 POP SWAP2 SWAP1 POP JUMP JUMPDEST PUSH1 0x0 PUSH2 0x1E9A PUSH1 0x17 DUP4 PUSH2 0x24AE JUMP JUMPDEST SWAP2 POP PUSH32 0x4C697374696E6720646F6573206E6F742065786973742E000000000000000000 PUSH1 0x0 DUP4 ADD MSTORE PUSH1 0x20 DUP3 ADD SWAP1 POP SWAP2 SWAP1 POP JUMP JUMPDEST PUSH1 0x0 PUSH2 0x1EDA PUSH1 0x20 DUP4 PUSH2 0x24AE JUMP JUMPDEST SWAP2 POP PUSH32 0x4F776E61626C653A2063616C6C6572206973206E6F7420746865206F776E6572 PUSH1 0x0 DUP4 ADD MSTORE PUSH1 0x20 DUP3 ADD SWAP1 POP SWAP2 SWAP1 POP JUMP JUMPDEST PUSH1 0x0 PUSH2 0x1F1A PUSH1 0x23 DUP4 PUSH2 0x24AE JUMP JUMPDEST SWAP2 POP PUSH32 0x446561646C696E65206D7573742062652067726561746572207468616E207A65 PUSH1 0x0 DUP4 ADD MSTORE PUSH32 0x726F2E0000000000000000000000000000000000000000000000000000000000 PUSH1 0x20 DUP4 ADD MSTORE PUSH1 0x40 DUP3 ADD SWAP1 POP SWAP2 SWAP1 POP JUMP JUMPDEST PUSH1 0x0 PUSH2 0x1F80 PUSH1 0x20 DUP4 PUSH2 0x24AE JUMP JUMPDEST SWAP2 POP PUSH32 0x5072696365206D7573742062652067726561746572207468616E207A65726F2E PUSH1 0x0 DUP4 ADD MSTORE PUSH1 0x20 DUP3 ADD SWAP1 POP SWAP2 SWAP1 POP JUMP JUMPDEST PUSH1 0x0 PUSH2 0x1FC0 PUSH1 0x25 DUP4 PUSH2 0x24AE JUMP JUMPDEST SWAP2 POP PUSH32 0x53656E742076616C7565206D7573742062652067726561746572207468616E20 PUSH1 0x0 DUP4 ADD MSTORE PUSH32 0x7A65726F2E000000000000000000000000000000000000000000000000000000 PUSH1 0x20 DUP4 ADD MSTORE PUSH1 0x40 DUP3 ADD SWAP1 POP SWAP2 SWAP1 POP JUMP JUMPDEST PUSH1 0x0 PUSH2 0x2026 PUSH1 0x1F DUP4 PUSH2 0x24AE JUMP JUMPDEST SWAP2 POP PUSH32 0x5265656E7472616E637947756172643A207265656E7472616E742063616C6C00 PUSH1 0x0 DUP4 ADD MSTORE PUSH1 0x20 DUP3 ADD SWAP1 POP SWAP2 SWAP1 POP JUMP JUMPDEST PUSH1 0x0 PUSH2 0x2066 PUSH1 0x1E DUP4 PUSH2 0x24AE JUMP JUMPDEST SWAP2 POP PUSH32 0x53656C6C6572206E6F206C6F6E676572206F776E7320746865204E46542E0000 PUSH1 0x0 DUP4 ADD MSTORE PUSH1 0x20 DUP3 ADD SWAP1 POP SWAP2 SWAP1 POP JUMP JUMPDEST PUSH2 0x20A2 DUP2 PUSH2 0x2612 JUMP JUMPDEST DUP3 MSTORE POP POP JUMP JUMPDEST PUSH2 0x20B1 DUP2 PUSH2 0x2612 JUMP JUMPDEST DUP3 MSTORE POP POP JUMP JUMPDEST PUSH1 0x0 PUSH1 0x20 DUP3 ADD SWAP1 POP PUSH2 0x20CC PUSH1 0x0 DUP4 ADD DUP5 PUSH2 0x1B66 JUMP JUMPDEST SWAP3 SWAP2 POP POP JUMP JUMPDEST PUSH1 0x0 PUSH1 0x60 DUP3 ADD SWAP1 POP PUSH2 0x20E7 PUSH1 0x0 DUP4 ADD DUP7 PUSH2 0x1B66 JUMP JUMPDEST PUSH2 0x20F4 PUSH1 0x20 DUP4 ADD DUP6 PUSH2 0x1B66 JUMP JUMPDEST PUSH2 0x2101 PUSH1 0x40 DUP4 ADD DUP5 PUSH2 0x20A8 JUMP JUMPDEST SWAP5 SWAP4 POP POP POP POP JUMP JUMPDEST PUSH1 0x0 PUSH1 0xA0 DUP3 ADD SWAP1 POP PUSH2 0x211E PUSH1 0x0 DUP4 ADD DUP9 PUSH2 0x1B66 JUMP JUMPDEST PUSH2 0x212B PUSH1 0x20 DUP4 ADD DUP8 PUSH2 0x20A8 JUMP JUMPDEST PUSH2 0x2138 PUSH1 0x40 DUP4 ADD DUP7 PUSH2 0x1B66 JUMP JUMPDEST PUSH2 0x2145 PUSH1 0x60 DUP4 ADD DUP6 PUSH2 0x20A8 JUMP JUMPDEST PUSH2 0x2152 PUSH1 0x80 DUP4 ADD DUP5 PUSH2 0x20A8 JUMP JUMPDEST SWAP7 SWAP6 POP POP POP POP POP POP JUMP JUMPDEST PUSH1 0x0 PUSH1 0x20 DUP3 ADD SWAP1 POP DUP2 DUP2 SUB PUSH1 0x0 DUP4 ADD MSTORE PUSH2 0x2176 DUP2 DUP5 PUSH2 0x1B75 JUMP JUMPDEST SWAP1 POP SWAP3 SWAP2 POP POP JUMP JUMPDEST PUSH1 0x0 PUSH1 0x20 DUP3 ADD SWAP1 POP PUSH2 0x2193 PUSH1 0x0 DUP4 ADD DUP5 PUSH2 0x1BD3 JUMP JUMPDEST SWAP3 SWAP2 POP POP JUMP JUMPDEST PUSH1 0x0 PUSH1 0x20 DUP3 ADD SWAP1 POP DUP2 DUP2 SUB PUSH1 0x0 DUP4 ADD MSTORE PUSH2 0x21B2 DUP2 PUSH2 0x1C1B JUMP JUMPDEST SWAP1 POP SWAP2 SWAP1 POP JUMP JUMPDEST PUSH1 0x0 PUSH1 0x20 DUP3 ADD SWAP1 POP DUP2 DUP2 SUB PUSH1 0x0 DUP4 ADD MSTORE PUSH2 0x21D2 DUP2 PUSH2 0x1C5B JUMP JUMPDEST SWAP1 POP SWAP2 SWAP1 POP JUMP JUMPDEST PUSH1 0x0 PUSH1 0x20 DUP3 ADD SWAP1 POP DUP2 DUP2 SUB PUSH1 0x0 DUP4 ADD MSTORE PUSH2 0x21F2 DUP2 PUSH2 0x1CC1 JUMP JUMPDEST SWAP1 POP SWAP2 SWAP1 POP JUMP JUMPDEST PUSH1 0x0 PUSH1 0x20 DUP3 ADD SWAP1 POP DUP2 DUP2 SUB PUSH1 0x0 DUP4 ADD MSTORE PUSH2 0x2212 DUP2 PUSH2 0x1D01 JUMP JUMPDEST SWAP1 POP SWAP2 SWAP1 POP JUMP JUMPDEST PUSH1 0x0 PUSH1 0x20 DUP3 ADD SWAP1 POP DUP2 DUP2 SUB PUSH1 0x0 DUP4 ADD MSTORE PUSH2 0x2232 DUP2 PUSH2 0x1D41 JUMP JUMPDEST SWAP1 POP SWAP2 SWAP1 POP JUMP JUMPDEST PUSH1 0x0 PUSH1 0x20 DUP3 ADD SWAP1 POP DUP2 DUP2 SUB PUSH1 0x0 DUP4 ADD MSTORE PUSH2 0x2252 DUP2 PUSH2 0x1D81 JUMP JUMPDEST SWAP1 POP SWAP2 SWAP1 POP JUMP JUMPDEST PUSH1 0x0 PUSH1 0x20 DUP3 ADD SWAP1 POP DUP2 DUP2 SUB PUSH1 0x0 DUP4 ADD MSTORE PUSH2 0x2272 DUP2 PUSH2 0x1DE7 JUMP JUMPDEST SWAP1 POP SWAP2 SWAP1 POP JUMP JUMPDEST PUSH1 0x0 PUSH1 0x20 DUP3 ADD SWAP1 POP DUP2 DUP2 SUB PUSH1 0x0 DUP4 ADD MSTORE PUSH2 0x2292 DUP2 PUSH2 0x1E27 JUMP JUMPDEST SWAP1 POP SWAP2 SWAP1 POP JUMP JUMPDEST PUSH1 0x0 PUSH1 0x20 DUP3 ADD SWAP1 POP DUP2 DUP2 SUB PUSH1 0x0 DUP4 ADD MSTORE PUSH2 0x22B2 DUP2 PUSH2 0x1E8D JUMP JUMPDEST SWAP1 POP SWAP2 SWAP1 POP JUMP JUMPDEST PUSH1 0x0 PUSH1 0x20 DUP3 ADD SWAP1 POP DUP2 DUP2 SUB PUSH1 0x0 DUP4 ADD MSTORE PUSH2 0x22D2 DUP2 PUSH2 0x1ECD JUMP JUMPDEST SWAP1 POP SWAP2 SWAP1 POP JUMP JUMPDEST PUSH1 0x0 PUSH1 0x20 DUP3 ADD SWAP1 POP DUP2 DUP2 SUB PUSH1 0x0 DUP4 ADD MSTORE PUSH2 0x22F2 DUP2 PUSH2 0x1F0D JUMP JUMPDEST SWAP1 POP SWAP2 SWAP1 POP JUMP JUMPDEST PUSH1 0x0 PUSH1 0x20 DUP3 ADD SWAP1 POP DUP2 DUP2 SUB PUSH1 0x0 DUP4 ADD MSTORE PUSH2 0x2312 DUP2 PUSH2 0x1F73 JUMP JUMPDEST SWAP1 POP SWAP2 SWAP1 POP JUMP JUMPDEST PUSH1 0x0 PUSH1 0x20 DUP3 ADD SWAP1 POP DUP2 DUP2 SUB PUSH1 0x0 DUP4 ADD MSTORE PUSH2 0x2332 DUP2 PUSH2 0x1FB3 JUMP JUMPDEST SWAP1 POP SWAP2 SWAP1 POP JUMP JUMPDEST PUSH1 0x0 PUSH1 0x20 DUP3 ADD SWAP1 POP DUP2 DUP2 SUB PUSH1 0x0 DUP4 ADD MSTORE PUSH2 0x2352 DUP2 PUSH2 0x2019 JUMP JUMPDEST SWAP1 POP SWAP2 SWAP1 POP JUMP JUMPDEST PUSH1 0x0 PUSH1 0x20 DUP3 ADD SWAP1 POP DUP2 DUP2 SUB PUSH1 0x0 DUP4 ADD MSTORE PUSH2 0x2372 DUP2 PUSH2 0x2059 JUMP JUMPDEST SWAP1 POP SWAP2 SWAP1 POP JUMP JUMPDEST PUSH1 0x0 PUSH1 0x20 DUP3 ADD SWAP1 POP PUSH2 0x238E PUSH1 0x0 DUP4 ADD DUP5 PUSH2 0x20A8 JUMP JUMPDEST SWAP3 SWAP2 POP POP JUMP JUMPDEST PUSH1 0x0 PUSH1 0x60 DUP3 ADD SWAP1 POP PUSH2 0x23A9 PUSH1 0x0 DUP4 ADD DUP7 PUSH2 0x20A8 JUMP JUMPDEST PUSH2 0x23B6 PUSH1 0x20 DUP4 ADD DUP6 PUSH2 0x20A8 JUMP JUMPDEST DUP2 DUP2 SUB PUSH1 0x40 DUP4 ADD MSTORE PUSH2 0x23C8 DUP2 DUP5 PUSH2 0x1BE2 JUMP JUMPDEST SWAP1 POP SWAP5 SWAP4 POP POP POP POP JUMP JUMPDEST PUSH1 0x0 PUSH1 0x60 DUP3 ADD SWAP1 POP PUSH2 0x23E7 PUSH1 0x0 DUP4 ADD DUP7 PUSH2 0x20A8 JUMP JUMPDEST PUSH2 0x23F4 PUSH1 0x20 DUP4 ADD DUP6 PUSH2 0x20A8 JUMP JUMPDEST PUSH2 0x2401 PUSH1 0x40 DUP4 ADD DUP5 PUSH2 0x20A8 JUMP JUMPDEST SWAP5 SWAP4 POP POP POP POP JUMP JUMPDEST PUSH1 0x0 PUSH1 0x40 MLOAD SWAP1 POP DUP2 DUP2 ADD DUP2 DUP2 LT PUSH8 0xFFFFFFFFFFFFFFFF DUP3 GT OR ISZERO PUSH2 0x2430 JUMPI PUSH2 0x242F PUSH2 0x26F6 JUMP JUMPDEST JUMPDEST DUP1 PUSH1 0x40 MSTORE POP SWAP2 SWAP1 POP JUMP JUMPDEST PUSH1 0x0 PUSH8 0xFFFFFFFFFFFFFFFF DUP3 GT ISZERO PUSH2 0x2455 JUMPI PUSH2 0x2454 PUSH2 0x26F6 JUMP JUMPDEST JUMPDEST PUSH1 0x1F NOT PUSH1 0x1F DUP4 ADD AND SWAP1 POP PUSH1 0x20 DUP2 ADD SWAP1 POP SWAP2 SWAP1 POP JUMP JUMPDEST PUSH1 0x0 DUP2 SWAP1 POP PUSH1 0x20 DUP3 ADD SWAP1 POP SWAP2 SWAP1 POP JUMP JUMPDEST PUSH1 0x0 DUP2 MLOAD SWAP1 POP SWAP2 SWAP1 POP JUMP JUMPDEST PUSH1 0x0 DUP2 MLOAD SWAP1 POP SWAP2 SWAP1 POP JUMP JUMPDEST PUSH1 0x0 PUSH1 0x20 DUP3 ADD SWAP1 POP SWAP2 SWAP1 POP JUMP JUMPDEST PUSH1 0x0 DUP3 DUP3 MSTORE PUSH1 0x20 DUP3 ADD SWAP1 POP SWAP3 SWAP2 POP POP JUMP JUMPDEST PUSH1 0x0 DUP3 DUP3 MSTORE PUSH1 0x20 DUP3 ADD SWAP1 POP SWAP3 SWAP2 POP POP JUMP JUMPDEST PUSH1 0x0 PUSH2 0x24CA DUP3 PUSH2 0x2612 JUMP JUMPDEST SWAP2 POP PUSH2 0x24D5 DUP4 PUSH2 0x2612 JUMP JUMPDEST SWAP3 POP DUP3 PUSH32 0xFFFFFFFFFFFFFFFFFFFFFFFFFFFFFFFFFFFFFFFFFFFFFFFFFFFFFFFFFFFFFFFF SUB DUP3 GT ISZERO PUSH2 0x250A JUMPI PUSH2 0x2509 PUSH2 0x2698 JUMP JUMPDEST JUMPDEST DUP3 DUP3 ADD SWAP1 POP SWAP3 SWAP2 POP POP JUMP JUMPDEST PUSH1 0x0 PUSH2 0x2520 DUP3 PUSH2 0x2612 JUMP JUMPDEST SWAP2 POP PUSH2 0x252B DUP4 PUSH2 0x2612 JUMP JUMPDEST SWAP3 POP DUP3 PUSH2 0x253B JUMPI PUSH2 0x253A PUSH2 0x26C7 JUMP JUMPDEST JUMPDEST DUP3 DUP3 DIV SWAP1 POP SWAP3 SWAP2 POP POP JUMP JUMPDEST PUSH1 0x0 PUSH2 0x2551 DUP3 PUSH2 0x2612 JUMP JUMPDEST SWAP2 POP PUSH2 0x255C DUP4 PUSH2 0x2612 JUMP JUMPDEST SWAP3 POP DUP2 PUSH32 0xFFFFFFFFFFFFFFFFFFFFFFFFFFFFFFFFFFFFFFFFFFFFFFFFFFFFFFFFFFFFFFFF DIV DUP4 GT DUP3 ISZERO ISZERO AND ISZERO PUSH2 0x2595 JUMPI PUSH2 0x2594 PUSH2 0x2698 JUMP JUMPDEST JUMPDEST DUP3 DUP3 MUL SWAP1 POP SWAP3 SWAP2 POP POP JUMP JUMPDEST PUSH1 0x0 PUSH2 0x25AB DUP3 PUSH2 0x2612 JUMP JUMPDEST SWAP2 POP PUSH2 0x25B6 DUP4 PUSH2 0x2612 JUMP JUMPDEST SWAP3 POP DUP3 DUP3 LT ISZERO PUSH2 0x25C9 JUMPI PUSH2 0x25C8 PUSH2 0x2698 JUMP JUMPDEST JUMPDEST DUP3 DUP3 SUB SWAP1 POP SWAP3 SWAP2 POP POP JUMP JUMPDEST PUSH1 0x0 PUSH2 0x25DF DUP3 PUSH2 0x25F2 JUMP JUMPDEST SWAP1 POP SWAP2 SWAP1 POP JUMP JUMPDEST PUSH1 0x0 DUP2 ISZERO ISZERO SWAP1 POP SWAP2 SWAP1 POP JUMP JUMPDEST PUSH1 0x0 PUSH20 0xFFFFFFFFFFFFFFFFFFFFFFFFFFFFFFFFFFFFFFFF DUP3 AND SWAP1 POP SWAP2 SWAP1 POP JUMP JUMPDEST PUSH1 0x0 DUP2 SWAP1 POP SWAP2 SWAP1 POP JUMP JUMPDEST PUSH1 0x0 JUMPDEST DUP4 DUP2 LT ISZERO PUSH2 0x263A JUMPI DUP1 DUP3 ADD MLOAD DUP2 DUP5 ADD MSTORE PUSH1 0x20 DUP2 ADD SWAP1 POP PUSH2 0x261F JUMP JUMPDEST DUP4 DUP2 GT ISZERO PUSH2 0x2649 JUMPI PUSH1 0x0 DUP5 DUP5 ADD MSTORE JUMPDEST POP POP POP POP JUMP JUMPDEST PUSH1 0x0 PUSH2 0x265A DUP3 PUSH2 0x2612 JUMP JUMPDEST SWAP2 POP PUSH32 0xFFFFFFFFFFFFFFFFFFFFFFFFFFFFFFFFFFFFFFFFFFFFFFFFFFFFFFFFFFFFFFFF DUP3 EQ ISZERO PUSH2 0x268D JUMPI PUSH2 0x268C PUSH2 0x2698 JUMP JUMPDEST JUMPDEST PUSH1 0x1 DUP3 ADD SWAP1 POP SWAP2 SWAP1 POP JUMP JUMPDEST PUSH32 0x4E487B7100000000000000000000000000000000000000000000000000000000 PUSH1 0x0 MSTORE PUSH1 0x11 PUSH1 0x4 MSTORE PUSH1 0x24 PUSH1 0x0 REVERT JUMPDEST PUSH32 0x4E487B7100000000000000000000000000000000000000000000000000000000 PUSH1 0x0 MSTORE PUSH1 0x12 PUSH1 0x4 MSTORE PUSH1 0x24 PUSH1 0x0 REVERT JUMPDEST PUSH32 0x4E487B7100000000000000000000000000000000000000000000000000000000 PUSH1 0x0 MSTORE PUSH1 0x41 PUSH1 0x4 MSTORE PUSH1 0x24 PUSH1 0x0 REVERT JUMPDEST PUSH1 0x0 PUSH1 0x1F NOT PUSH1 0x1F DUP4 ADD AND SWAP1 POP SWAP2 SWAP1 POP JUMP JUMPDEST PUSH2 0x273F DUP2 PUSH2 0x25D4 JUMP JUMPDEST DUP2 EQ PUSH2 0x274A JUMPI PUSH1 0x0 DUP1 REVERT JUMPDEST POP JUMP JUMPDEST PUSH2 0x2756 DUP2 PUSH2 0x2612 JUMP JUMPDEST DUP2 EQ PUSH2 0x2761 JUMPI PUSH1 0x0 DUP1 REVERT JUMPDEST POP JUMP INVALID LOG2 PUSH5 0x6970667358 0x22 SLT KECCAK256 SWAP7 INVALID DIV MSTORE 0xBF MSTORE PUSH12 0xA9F398E15851A234406C6781 JUMP PUSH23 0xF4FDC39F45F405EC32BB5564736F6C6343000800003300 "
				},
				"gasEstimates": {
					"creation": {
						"codeDepositCost": "2027600",
						"executionCost": "infinite",
						"totalCost": "infinite"
					},
					"external": {
						"activeListingIds(uint256)": "infinite",
						"buyNFT(uint256)": "infinite",
						"cancelListing(uint256)": "121184",
						"getAllListingIds()": "infinite",
						"getListingInfo(uint256)": "infinite",
						"listNFT(address,uint256,uint256,uint256)": "infinite",
						"listingOwners(uint256)": "1628",
						"listings(uint256)": "infinite",
						"nextListingId()": "1218",
						"owner()": "1289",
						"pause()": "infinite",
						"paused()": "1291",
						"platformFeeAddress()": "1324",
						"platformFeePercentage()": "1173",
						"renounceOwnership()": "24443",
						"royaltyAddress()": "1325",
						"royaltyPercentage()": "1174",
						"transferOwnership(address)": "24879",
						"unpause()": "infinite",
						"updateFeeAddresses(address,address)": "infinite",
						"updateFeePercentages(uint256,uint256)": "infinite"
					}
				},
				"methodIdentifiers": {
					"activeListingIds(uint256)": "e3b6a1f6",
					"buyNFT(uint256)": "51ed8288",
					"cancelListing(uint256)": "305a67a8",
					"getAllListingIds()": "85dd3008",
					"getListingInfo(uint256)": "b9314135",
					"listNFT(address,uint256,uint256,uint256)": "3c44a5f0",
					"listingOwners(uint256)": "7bdaceef",
					"listings(uint256)": "de74e57b",
					"nextListingId()": "aaccf1ec",
					"owner()": "8da5cb5b",
					"pause()": "8456cb59",
					"paused()": "5c975abb",
					"platformFeeAddress()": "ed14834f",
					"platformFeePercentage()": "cdd78cfc",
					"renounceOwnership()": "715018a6",
					"royaltyAddress()": "ad2f852a",
					"royaltyPercentage()": "8a71bb2d",
					"transferOwnership(address)": "f2fde38b",
					"unpause()": "3f4ba83a",
					"updateFeeAddresses(address,address)": "5e4e8d65",
					"updateFeePercentages(uint256,uint256)": "78578bb3"
				}
			},
			"storageLayout": {
				"storage": [
					{
						"astId": 7,
						"contract": "mercado_de_gotas.sol:GotasNFTMarketplace",
						"label": "_owner",
						"offset": 0,
						"slot": "0",
						"type": "t_address"
					},
					{
						"astId": 231,
						"contract": "mercado_de_gotas.sol:GotasNFTMarketplace",
						"label": "_status",
						"offset": 0,
						"slot": "1",
						"type": "t_uint256"
					},
					{
						"astId": 130,
						"contract": "mercado_de_gotas.sol:GotasNFTMarketplace",
						"label": "_paused",
						"offset": 0,
						"slot": "2",
						"type": "t_bool"
					},
					{
						"astId": 489,
						"contract": "mercado_de_gotas.sol:GotasNFTMarketplace",
						"label": "activeListingIds",
						"offset": 0,
						"slot": "3",
						"type": "t_array(t_uint256)dyn_storage"
					},
					{
						"astId": 491,
						"contract": "mercado_de_gotas.sol:GotasNFTMarketplace",
						"label": "royaltyPercentage",
						"offset": 0,
						"slot": "4",
						"type": "t_uint256"
					},
					{
						"astId": 493,
						"contract": "mercado_de_gotas.sol:GotasNFTMarketplace",
						"label": "platformFeePercentage",
						"offset": 0,
						"slot": "5",
						"type": "t_uint256"
					},
					{
						"astId": 495,
						"contract": "mercado_de_gotas.sol:GotasNFTMarketplace",
						"label": "royaltyAddress",
						"offset": 0,
						"slot": "6",
						"type": "t_address"
					},
					{
						"astId": 497,
						"contract": "mercado_de_gotas.sol:GotasNFTMarketplace",
						"label": "platformFeeAddress",
						"offset": 0,
						"slot": "7",
						"type": "t_address"
					},
					{
						"astId": 502,
						"contract": "mercado_de_gotas.sol:GotasNFTMarketplace",
						"label": "listings",
						"offset": 0,
						"slot": "8",
						"type": "t_mapping(t_uint256,t_struct(Listing)486_storage)"
					},
					{
						"astId": 506,
						"contract": "mercado_de_gotas.sol:GotasNFTMarketplace",
						"label": "listingOwners",
						"offset": 0,
						"slot": "9",
						"type": "t_mapping(t_uint256,t_address)"
					},
					{
						"astId": 509,
						"contract": "mercado_de_gotas.sol:GotasNFTMarketplace",
						"label": "nextListingId",
						"offset": 0,
						"slot": "10",
						"type": "t_uint256"
					}
				],
				"types": {
					"t_address": {
						"encoding": "inplace",
						"label": "address",
						"numberOfBytes": "20"
					},
					"t_array(t_uint256)dyn_storage": {
						"base": "t_uint256",
						"encoding": "dynamic_array",
						"label": "uint256[]",
						"numberOfBytes": "32"
					},
					"t_bool": {
						"encoding": "inplace",
						"label": "bool",
						"numberOfBytes": "1"
					},
					"t_mapping(t_uint256,t_address)": {
						"encoding": "mapping",
						"key": "t_uint256",
						"label": "mapping(uint256 => address)",
						"numberOfBytes": "32",
						"value": "t_address"
					},
					"t_mapping(t_uint256,t_struct(Listing)486_storage)": {
						"encoding": "mapping",
						"key": "t_uint256",
						"label": "mapping(uint256 => struct GotasNFTMarketplace.Listing)",
						"numberOfBytes": "32",
						"value": "t_struct(Listing)486_storage"
					},
					"t_struct(Listing)486_storage": {
						"encoding": "inplace",
						"label": "struct GotasNFTMarketplace.Listing",
						"members": [
							{
								"astId": 477,
								"contract": "mercado_de_gotas.sol:GotasNFTMarketplace",
								"label": "nftContractAddress",
								"offset": 0,
								"slot": "0",
								"type": "t_address"
							},
							{
								"astId": 479,
								"contract": "mercado_de_gotas.sol:GotasNFTMarketplace",
								"label": "nftId",
								"offset": 0,
								"slot": "1",
								"type": "t_uint256"
							},
							{
								"astId": 481,
								"contract": "mercado_de_gotas.sol:GotasNFTMarketplace",
								"label": "seller",
								"offset": 0,
								"slot": "2",
								"type": "t_address"
							},
							{
								"astId": 483,
								"contract": "mercado_de_gotas.sol:GotasNFTMarketplace",
								"label": "price",
								"offset": 0,
								"slot": "3",
								"type": "t_uint256"
							},
							{
								"astId": 485,
								"contract": "mercado_de_gotas.sol:GotasNFTMarketplace",
								"label": "deadline",
								"offset": 0,
								"slot": "4",
								"type": "t_uint256"
							}
						],
						"numberOfBytes": "160"
					},
					"t_uint256": {
						"encoding": "inplace",
						"label": "uint256",
						"numberOfBytes": "32"
					}
				}
			},
			"userdoc": {
				"kind": "user",
				"methods": {},
				"version": 1
			}
		}
	}
}